{"contracts/V2/EventOrganizerV2.sol":{"EventOrganizerV2":{"abi":[{"inputs":[],"stateMutability":"nonpayable","type":"constructor"},{"inputs":[],"name":"AlreadyRegistered","type":"error"},{"inputs":[],"name":"EventNotFound","type":"error"},{"inputs":[],"name":"InvalidAddress","type":"error"},{"inputs":[],"name":"InvalidRating","type":"error"},{"inputs":[],"name":"NotAuthorized","type":"error"},{"inputs":[],"name":"NotRegistered","type":"error"},{"inputs":[],"name":"NotVerified","type":"error"},{"inputs":[{"internalType":"address","name":"owner","type":"address"}],"name":"OwnableInvalidOwner","type":"error"},{"inputs":[{"internalType":"address","name":"account","type":"address"}],"name":"OwnableUnauthorizedAccount","type":"error"},{"inputs":[],"name":"UEARequired","type":"error"},{"anonymous":false,"inputs":[{"indexed":true,"internalType":"uint256","name":"eventId","type":"uint256"}],"name":"EventDeactivated","type":"event"},{"anonymous":false,"inputs":[{"indexed":true,"internalType":"uint256","name":"eventId","type":"uint256"},{"indexed":true,"internalType":"address","name":"eventContract","type":"address"},{"indexed":true,"internalType":"address","name":"organizer","type":"address"},{"indexed":false,"internalType":"uint256","name":"timestamp","type":"uint256"}],"name":"EventRecorded","type":"event"},{"anonymous":false,"inputs":[{"indexed":true,"internalType":"address","name":"organizer","type":"address"},{"indexed":false,"internalType":"string","name":"profileUri","type":"string"},{"indexed":false,"internalType":"uint256","name":"timestamp","type":"uint256"}],"name":"OrganizerRegistered","type":"event"},{"anonymous":false,"inputs":[{"indexed":true,"internalType":"address","name":"ueaAddress","type":"address"},{"indexed":true,"internalType":"address","name":"originalAddress","type":"address"},{"indexed":false,"internalType":"string","name":"profileUri","type":"string"},{"indexed":false,"internalType":"uint256","name":"timestamp","type":"uint256"}],"name":"OrganizerRegisteredWithUEA","type":"event"},{"anonymous":false,"inputs":[{"indexed":true,"internalType":"address","name":"organizer","type":"address"},{"indexed":false,"internalType":"bool","name":"verified","type":"bool"}],"name":"OrganizerVerified","type":"event"},{"anonymous":false,"inputs":[{"indexed":true,"internalType":"address","name":"previousOwner","type":"address"},{"indexed":true,"internalType":"address","name":"newOwner","type":"address"}],"name":"OwnershipTransferred","type":"event"},{"anonymous":false,"inputs":[{"indexed":true,"internalType":"address","name":"organizer","type":"address"},{"indexed":false,"internalType":"address","name":"newAddress","type":"address"}],"name":"PayoutAddressUpdated","type":"event"},{"anonymous":false,"inputs":[{"indexed":true,"internalType":"address","name":"organizer","type":"address"},{"indexed":false,"internalType":"string","name":"profileUri","type":"string"}],"name":"ProfileUpdated","type":"event"},{"anonymous":false,"inputs":[{"indexed":true,"internalType":"address","name":"organizer","type":"address"},{"indexed":false,"internalType":"uint256","name":"rating","type":"uint256"},{"indexed":false,"internalType":"address","name":"ratedBy","type":"address"}],"name":"RatingAdded","type":"event"},{"anonymous":false,"inputs":[{"indexed":true,"internalType":"address","name":"organizer","type":"address"},{"indexed":false,"internalType":"uint256","name":"amount","type":"uint256"},{"indexed":false,"internalType":"uint256","name":"revenue","type":"uint256"}],"name":"TicketsSoldIncremented","type":"event"},{"inputs":[{"internalType":"address","name":"_organizer","type":"address"},{"internalType":"uint256","name":"_rating","type":"uint256"}],"name":"addOrganizerRating","outputs":[],"stateMutability":"nonpayable","type":"function"},{"inputs":[{"internalType":"address","name":"","type":"address"}],"name":"authorizedEventContracts","outputs":[{"internalType":"bool","name":"","type":"bool"}],"stateMutability":"view","type":"function"},{"inputs":[{"internalType":"uint256","name":"eventId","type":"uint256"}],"name":"deactivateEvent","outputs":[],"stateMutability":"nonpayable","type":"function"},{"inputs":[{"internalType":"uint256","name":"","type":"uint256"}],"name":"deployedEvents","outputs":[{"internalType":"address","name":"eventContract","type":"address"},{"internalType":"address","name":"organizer","type":"address"},{"internalType":"uint256","name":"eventId","type":"uint256"},{"internalType":"uint256","name":"deployedAt","type":"uint256"},{"internalType":"bool","name":"isActive","type":"bool"}],"stateMutability":"view","type":"function"},{"inputs":[{"internalType":"address","name":"","type":"address"}],"name":"eventContractToId","outputs":[{"internalType":"uint256","name":"","type":"uint256"}],"stateMutability":"view","type":"function"},{"inputs":[],"name":"getActiveEvents","outputs":[{"components":[{"internalType":"address","name":"eventContract","type":"address"},{"internalType":"address","name":"organizer","type":"address"},{"internalType":"uint256","name":"eventId","type":"uint256"},{"internalType":"uint256","name":"deployedAt","type":"uint256"},{"internalType":"bool","name":"isActive","type":"bool"}],"internalType":"struct EventOrganizerV2.DeployedEvent[]","name":"","type":"tuple[]"}],"stateMutability":"view","type":"function"},{"inputs":[],"name":"getAllDeployedEvents","outputs":[{"components":[{"internalType":"address","name":"eventContract","type":"address"},{"internalType":"address","name":"organizer","type":"address"},{"internalType":"uint256","name":"eventId","type":"uint256"},{"internalType":"uint256","name":"deployedAt","type":"uint256"},{"internalType":"bool","name":"isActive","type":"bool"}],"internalType":"struct EventOrganizerV2.DeployedEvent[]","name":"","type":"tuple[]"}],"stateMutability":"view","type":"function"},{"inputs":[],"name":"getDeployedEventsCount","outputs":[{"internalType":"uint256","name":"","type":"uint256"}],"stateMutability":"view","type":"function"},{"inputs":[{"internalType":"uint256","name":"eventId","type":"uint256"}],"name":"getEventDetails","outputs":[{"internalType":"address","name":"eventContract","type":"address"},{"internalType":"address","name":"organizer","type":"address"},{"internalType":"uint256","name":"deployedAt","type":"uint256"},{"internalType":"bool","name":"isActive","type":"bool"}],"stateMutability":"view","type":"function"},{"inputs":[{"internalType":"address","name":"eventContract","type":"address"}],"name":"getEventIdByContract","outputs":[{"internalType":"uint256","name":"","type":"uint256"}],"stateMutability":"view","type":"function"},{"inputs":[{"internalType":"address","name":"organizer","type":"address"}],"name":"getEventsByOrganizer","outputs":[{"internalType":"uint256[]","name":"","type":"uint256[]"}],"stateMutability":"view","type":"function"},{"inputs":[],"name":"getOrganizerCount","outputs":[{"internalType":"uint256","name":"","type":"uint256"}],"stateMutability":"view","type":"function"},{"inputs":[{"internalType":"address","name":"organizerAddr","type":"address"}],"name":"getOrganizerDetails","outputs":[{"internalType":"string","name":"profileUri","type":"string"},{"internalType":"string","name":"contentHash","type":"string"},{"internalType":"uint256","name":"registrationDate","type":"uint256"},{"internalType":"bool","name":"isVerified","type":"bool"},{"internalType":"uint256","name":"totalEvents","type":"uint256"},{"internalType":"uint256","name":"totalTicketsSold","type":"uint256"},{"internalType":"uint256","name":"totalRevenue","type":"uint256"},{"internalType":"uint256","name":"averageRating","type":"uint256"}],"stateMutability":"view","type":"function"},{"inputs":[{"internalType":"address","name":"organizer","type":"address"}],"name":"getOrganizerPayoutAddress","outputs":[{"internalType":"address","name":"","type":"address"}],"stateMutability":"view","type":"function"},{"inputs":[{"internalType":"address","name":"_organizer","type":"address"}],"name":"getOrganizerRating","outputs":[{"internalType":"uint256","name":"","type":"uint256"}],"stateMutability":"view","type":"function"},{"inputs":[{"internalType":"address","name":"ueaAddress","type":"address"}],"name":"getOriginalFromUEA","outputs":[{"internalType":"address","name":"","type":"address"}],"stateMutability":"view","type":"function"},{"inputs":[{"internalType":"address","name":"organizer","type":"address"}],"name":"getPrimaryOrganizerAddress","outputs":[{"internalType":"address","name":"","type":"address"}],"stateMutability":"view","type":"function"},{"inputs":[{"internalType":"address","name":"originalAddress","type":"address"}],"name":"getUEAFromOriginal","outputs":[{"internalType":"address","name":"","type":"address"}],"stateMutability":"view","type":"function"},{"inputs":[],"name":"getVerifiedOrganizers","outputs":[{"internalType":"address[]","name":"","type":"address[]"}],"stateMutability":"view","type":"function"},{"inputs":[{"internalType":"address","name":"organizer","type":"address"},{"internalType":"uint256","name":"amount","type":"uint256"},{"internalType":"uint256","name":"revenue","type":"uint256"}],"name":"incrementTicketsSold","outputs":[],"stateMutability":"nonpayable","type":"function"},{"inputs":[{"internalType":"address","name":"eventContract","type":"address"}],"name":"isAuthorizedEventContract","outputs":[{"internalType":"bool","name":"","type":"bool"}],"stateMutability":"view","type":"function"},{"inputs":[{"internalType":"address","name":"organizer","type":"address"}],"name":"isVerifiedOrganizer","outputs":[{"internalType":"bool","name":"","type":"bool"}],"stateMutability":"view","type":"function"},{"inputs":[{"internalType":"address","name":"","type":"address"},{"internalType":"uint256","name":"","type":"uint256"}],"name":"organizerEvents","outputs":[{"internalType":"uint256","name":"","type":"uint256"}],"stateMutability":"view","type":"function"},{"inputs":[{"internalType":"address","name":"organizer","type":"address"}],"name":"organizerExists","outputs":[{"internalType":"bool","name":"","type":"bool"}],"stateMutability":"view","type":"function"},{"inputs":[{"internalType":"uint256","name":"","type":"uint256"}],"name":"organizerList","outputs":[{"internalType":"address","name":"","type":"address"}],"stateMutability":"view","type":"function"},{"inputs":[{"internalType":"address","name":"","type":"address"}],"name":"organizers","outputs":[{"internalType":"string","name":"profileUri","type":"string"},{"internalType":"string","name":"contentHash","type":"string"},{"internalType":"uint256","name":"registrationDate","type":"uint256"},{"internalType":"bool","name":"isVerified","type":"bool"},{"internalType":"uint256","name":"totalEvents","type":"uint256"},{"internalType":"uint256","name":"totalTicketsSold","type":"uint256"},{"internalType":"uint256","name":"totalRevenue","type":"uint256"},{"internalType":"uint256","name":"ratingSum","type":"uint256"},{"internalType":"uint256","name":"ratingCount","type":"uint256"},{"internalType":"address","name":"payoutAddress","type":"address"},{"internalType":"bool","name":"exists","type":"bool"}],"stateMutability":"view","type":"function"},{"inputs":[{"internalType":"address","name":"","type":"address"}],"name":"originalToUea","outputs":[{"internalType":"address","name":"","type":"address"}],"stateMutability":"view","type":"function"},{"inputs":[],"name":"owner","outputs":[{"internalType":"address","name":"","type":"address"}],"stateMutability":"view","type":"function"},{"inputs":[{"internalType":"address","name":"eventContract","type":"address"},{"internalType":"address","name":"creator","type":"address"},{"internalType":"uint256","name":"_eventId","type":"uint256"}],"name":"recordEventCreation","outputs":[{"internalType":"uint256","name":"assignedEventId","type":"uint256"}],"stateMutability":"nonpayable","type":"function"},{"inputs":[{"internalType":"string","name":"_profileUri","type":"string"},{"internalType":"string","name":"_contentHash","type":"string"},{"internalType":"address","name":"_originalAddress","type":"address"}],"name":"registerOrganizer","outputs":[],"stateMutability":"nonpayable","type":"function"},{"inputs":[],"name":"renounceOwnership","outputs":[],"stateMutability":"nonpayable","type":"function"},{"inputs":[{"internalType":"address","name":"newOwner","type":"address"}],"name":"transferOwnership","outputs":[],"stateMutability":"nonpayable","type":"function"},{"inputs":[{"internalType":"address","name":"","type":"address"}],"name":"ueaToOriginal","outputs":[{"internalType":"address","name":"","type":"address"}],"stateMutability":"view","type":"function"},{"inputs":[{"internalType":"address","name":"_newAddress","type":"address"}],"name":"updateOrganizerPayoutAddress","outputs":[],"stateMutability":"nonpayable","type":"function"},{"inputs":[{"internalType":"string","name":"_profileUri","type":"string"},{"internalType":"string","name":"_contentHash","type":"string"}],"name":"updateOrganizerProfile","outputs":[],"stateMutability":"nonpayable","type":"function"},{"inputs":[{"internalType":"address","name":"_organizer","type":"address"},{"internalType":"bool","name":"_verified","type":"bool"}],"name":"verifyOrganizer","outputs":[],"stateMutability":"nonpayable","type":"function"}],"evm":{"bytecode":{"linkReferences":{},"object":"608080604052346200054f573315620005395760008054336001600160a01b0319821681178355916001600160a01b03909116907f8be0079c531659141344cd1fd0a4f28419497f9722a3daafe3b4186f6b6457e09080a360405161016081016001600160401b0381118282101762000365576040526200007f62000554565b6000815281526200008f62000554565b6000815260208201524260408201526001606082015260006080820152600060a0820152600060c0820152600060e08201526000610100820152336101208201526001610140820152336000526001602052604060002090805191825160018060401b03811162000365578154600181811c911680156200052e575b60208210146200044b57601f8111620004e5575b506020601f82116001146200047857819293946000926200046c575b50508160011b916000199060031b1c19161781555b60208201518051906001600160401b03821162000365576001830154600181811c9116801562000461575b60208210146200044b57601f8111620003ff575b50602090601f831160011462000387576009939291600091836200037b575b50508160011b916000199060031b1c19161760018201555b60408301516002820155600381016060840151151560ff801983541691161790556080830151600482015560a0830151600582015560c0830151600682015560e083015160078201556101008301516008820155019060018060a01b036101208201511682549161014060ff60a01b910151151560a01b169160018060a81b0319161717905560018060a01b036000541660025468010000000000000000811015620003655760018101806002558110156200034f57600260009081527f405787fa12a823e0f2b7631cc41b3ba8828b3321ca811111fa75cd3aa3bb5ace9190910180546001600160a01b03191690921790915554620002cf906001600160a01b031662000574565b5060018060a01b0360005416807f3d5483a93df0921e07ba2b0050c4d0f5793795035f1db5af3face517df5e333b60606040516040815260006040820152426020820152a27fb2db07fb09ffc5844977daaf0aae46ed92b7b07810799a6af9e9d0c80eba59de602060405160018152a26040516122cb9081620006158239f35b634e487b7160e01b600052603260045260246000fd5b634e487b7160e01b600052604160045260246000fd5b015190508580620001ae565b906001840160005260206000209160005b601f1985168110620003e6575091839160019360099695601f19811610620003cc575b505050811b016001820155620001c6565b015160001960f88460031b161c19169055858080620003bb565b9192602060018192868501518155019401920162000398565b600184016000526020600020601f840160051c81016020851062000443575b601f830160051c82018110620004365750506200018f565b600081556001016200041e565b50806200041e565b634e487b7160e01b600052602260045260246000fd5b90607f16906200017b565b0151905084806200013b565b8260005260206000209060005b601f1984168110620004cc5750600193949583601f19811610620004b2575b505050811b01815562000150565b015160001960f88460031b161c19169055848080620004a4565b9091602060018192858a01518155019301910162000485565b826000526020600020601f830160051c81016020841062000526575b601f830160051c82018110620005195750506200011f565b6000815560010162000501565b508062000501565b90607f16906200010b565b631e4fbdf760e01b815260006004820152602490fd5b600080fd5b60405190602082016001600160401b038111838210176200036557604052565b6000818152600460205260408120546200060f5760035468010000000000000000811015620005fb576001810180600355811015620005e7577fc2575a0e9e593c00f959f8c92f12db2869c3395a3b0502d05e2516446f71f85b0182905560035491815260046020526040902055600190565b634e487b7160e01b82526032600452602482fd5b634e487b7160e01b82526041600452602482fd5b90509056fe6080604052600436101561001257600080fd5b60003560e01c80630544c5b9146119aa578063087da4a41461068a5780631624939d146118c65780631bfba652146116b35780631c00caab146115605780632264e8cb1461153d57806324af603214611510578063317893ff146114f257806332833f28146114615780633612280f14611330578063412a9986146113005780634adad82d14610b1f5780634ca6db3914610b5e5780634ec33f6e1461124c5780635cb75d8514610ce557806361b0c73914610bf25780636bb7de8b14610747578063715018a614610b99578063722adcee14610b5e5780637b8bce2214610b1f5780638da5cb5b14610af6578063957a632e14610a5c5780639593644814610a315780639f6271c31461097d5780639f816ba214610897578063b085e083146107c4578063bb26b2aa14610782578063d1d8327014610747578063d36b904c146106e2578063d9d4c1c7146106c4578063e0c322b61461068a578063e4aa47e314610632578063eade22f6146105c4578063ec38d5a014610549578063f1755ba2146102365763f2fde38b146101a857600080fd5b34610231576020366003190112610231576101c1611a89565b6101c961211f565b6001600160a01b0390811690811561021857600054826001600160601b0360a01b821617600055167f8be0079c531659141344cd1fd0a4f28419497f9722a3daafe3b4186f6b6457e0600080a3005b604051631e4fbdf760e01b815260006004820152602490fd5b600080fd5b346102315760403660031901126102315767ffffffffffffffff60043581811161023157610268903690600401611c90565b9060243581811161023157610281903690600401611c90565b913360005260019260209084825260ff60096040600020015460a01c1615610537576001600160a01b036102b433611feb565b16938460005285835260406000209584519682881161046e576102d78154611a9f565b97601f988981116104f1575b5080868a821160011461048f57600091610484575b50600019600383901b1c191690831b1790555b856000528084528060406000200192805192831161046e5761032d8454611a9f565b888111610428575b50849783116001146103a65782917fdd635a4cd84864e37e4479dbfc2ec667acfa473c83c8422a8ac9d9d07599b01c9798839260009461039b575b50501b916000199060031b1c19161790555b610396604051928284938452830190611bd9565b0390a2005b015192508980610370565b601f9291921982169784600052856000209160005b8a81106104135750837fdd635a4cd84864e37e4479dbfc2ec667acfa473c83c8422a8ac9d9d07599b01c999a106103fa575b505050811b019055610382565b015160001960f88460031b161c191690558780806103ed565b818301518455928501929187019187016103bb565b84600052856000208980860160051c820192888710610465575b0160051c019083905b828110610459575050610335565b6000815501839061044b565b92508192610442565b634e487b7160e01b600052604160045260246000fd5b90508701518a6102f8565b849250601f1982169084600052886000209160005b8a8c8383106104dc5750505083116104c3575b5050811b01905561030b565b89015160001960f88460031b161c191690558a806104b7565b840151855588969094019392830192016104a4565b82600052866000208a80840160051c82019289851061052e575b0160051c019084905b8281106105225750506102e3565b60008155018490610514565b9250819261050b565b60405163aba4733960e01b8152600490fd5b34610231576020366003190112610231576004356007548110156105b25761057b610575608092611d83565b50611f8a565b60018060a01b0390818151169160208201511690836060820151910151151591604051938452602084015260408301526060820152f35b604051635add554360e01b8152600490fd5b3461023157602036600319011261023157600435600754811015610231576105ed60a091611d83565b50600180831b0390818154169160018201541690600281015460ff60046003840154930154169260405194855260208501526040840152606083015215156080820152f35b346102315760403660031901126102315761064b611a89565b6001600160a01b03166000908152600860205260409020805460243591908210156102315760209161067c91611d6b565b90546040519160031b1c8152f35b34610231576020366003190112610231576001600160a01b036106ab611a89565b1660005260096020526020604060002054604051908152f35b34610231576000366003190112610231576020600254604051908152f35b34610231576020366003190112610231576001600160a01b038061070c610707611a89565b611feb565b169081600052600160205260ff60096040600020015460a01c1615610537576020916000526001825260096040600020015416604051908152f35b346102315760203660031901126102315760206001600160a01b038061076b611a89565b166000526005825260406000205416604051908152f35b3461023157602036600319011261023157600435600254811015610231576107ab602091611ce7565b905460405160039290921b1c6001600160a01b03168152f35b34610231576040366003190112610231576107dd611a89565b6024359081151590818303610231576107f461211f565b6001600160a01b039061080690611feb565b169182600052600160205260ff60096040600020015460a01c1615610537577fb2db07fb09ffc5844977daaf0aae46ed92b7b07810799a6af9e9d0c80eba59de91602091846000526001835261086f8160036040600020019060ff801983541691151516179055565b156108885761087d8461214b565b505b604051908152a2005b610891846121ac565b5061087f565b3461023157600036600319011261023157600380546108b581611f72565b6108c26040519182611b12565b8181526108ce82611f72565b6020938285019391601f190136853760005b82811061093657505050906040519283926020840190602085525180915260408401929160005b82811061091657505050500390f35b83516001600160a01b031685528695509381019392810192600101610907565b60008290527fc2575a0e9e593c00f959f8c92f12db2869c3395a3b0502d05e2516446f71f85b810154600191906001600160a01b03166109768287611fd7565b52016108e0565b3461023157602080600319360112610231576001600160a01b0361099f611a89565b1660005260088152604060002060405190818382549182815201908192600052846000209060005b86828210610a1d5786866109dd82880383611b12565b604051928392818401908285525180915260408401929160005b828110610a0657505050500390f35b8351855286955093810193928101926001016109f7565b8354855290930192600192830192016109c7565b34610231576020366003190112610231576020610a54610a4f611a89565b612051565b604051908152f35b34610231576020366003190112610231576004356007548110156105b257610a8381611d83565b50600054336001600160a01b0391821614159081610ae5575b50610ad357600401805460ff191690557f9bec5b77a290657edefc9defa075c60a874e90f7cc9496853ca9962d58a4ffdd600080a2005b60405163ea8e4eb560e01b8152600490fd5b905060018201541633141583610a9c565b34610231576000366003190112610231576000546040516001600160a01b039091168152602090f35b34610231576020366003190112610231576001600160a01b03610b40611a89565b16600052600a602052602060ff604060002054166040519015158152f35b346102315760203660031901126102315760206001600160a01b0380610b82611a89565b166000526006825260406000205416604051908152f35b3461023157600036600319011261023157610bb261211f565b600080546001600160a01b0319811682556001600160a01b03167f8be0079c531659141344cd1fd0a4f28419497f9722a3daafe3b4186f6b6457e08280a3005b3461023157606036600319011261023157610c0b611a89565b60005460443591602435916001600160a01b03919082163303610cbd575b610c3290611feb565b169182600052600160205260ff60096040600020015460a01c1615610537577f17e83cfa962d2a1753c58a1d4c41f6262bbf47dd8a24f98d7f883dc0284567c49160409184600052600160205260058360002001610c91838254611dbe565b905584600052600160205260068360002001610cae828254611dbe565b905582519182526020820152a2005b33600052600a60205260ff60406000205416610c295760405163ea8e4eb560e01b8152600490fd5b346102315760603660031901126102315760043567ffffffffffffffff811161023157610d16903690600401611c90565b60243567ffffffffffffffff811161023157610d36903690600401611c90565b604435906001600160a01b03821682036102315733600052600160205260ff60096040600020015460a01c1661123a576001600160a01b038216611212575b60405190610d8282611af5565b83825260208201524260408201526001606082015260006080820152600060a0820152600060c0820152600060e082015260006101008201523361012082015260016101408201523360005260016020526040600020815180519067ffffffffffffffff821161046e578190610df88454611a9f565b601f81116111c2575b50602090601f83116001146111565760009261114b575b50508160011b916000199060031b1c19161781555b602082015180519067ffffffffffffffff821161046e57610e516001840154611a9f565b601f8111611104575b50602090601f831160011461109157600993929160009183611086575b50508160011b916000199060031b1c19161760018201555b60408301516002820155610eb860608401511515600383019060ff801983541691151516179055565b6080830151600482015560a0830151600582015560c0830151600682015560e083015160078201556101008301516008820155019060018060a01b036101208201511682549161014060ff60a01b910151151560a01b16916affffffffffffffffffffff60a81b1617179055600254600160401b81101561046e57806001610f439201600255611ce7565b81549060031b9033821b9160018060a01b03901b1916179055610f653361214b565b506001600160a01b0381161561103d5733600052600560205260406000206001600160601b0360a01b9060018060a01b0383168282541617905560018060a01b038216600052600660205260406000209033908254161790557f7f1838e1923f4fcd4770c40162134223bb524ac45a29053099b7dc5cf5845312610ff460405193604085526040850190611bd9565b4260208501526001600160a01b0390921692339281900390a35b604051600181527fb2db07fb09ffc5844977daaf0aae46ed92b7b07810799a6af9e9d0c80eba59de60203392a2005b507f3d5483a93df0921e07ba2b0050c4d0f5793795035f1db5af3face517df5e333b61107460405192604084526040840190611bd9565b914260208201528033930390a261100e565b015190508780610e77565b906001840160005260206000209160005b601f19851681106110ec575091839160019360099695601f198116106110d3575b505050811b016001820155610e8f565b015160001960f88460031b161c191690558780806110c3565b919260206001819286850151815501940192016110a2565b600184016000526020600020601f840160051c810160208510611144575b601f830160051c82018110611138575050610e5a565b60008155600101611122565b5080611122565b015190508680610e18565b9250836000526020600020906000935b601f19841685106111a7576001945083601f1981161061118e575b505050811b018155610e2d565b015160001960f88460031b161c19169055868080611181565b81810151835560209485019460019093019290910190611166565b909150836000526020600020601f840160051c81016020851061120b575b90849392915b601f830160051c820181106111fc575050610e01565b600081558594506001016111e6565b50806111e0565b6001600160a01b03821660009081526001602052604090206009015460a01c60ff1615610d75575b604051630ea075bf60e21b8152600490fd5b3461023157602036600319011261023157611265611a89565b33600052600160205260ff60096040600020015460a01c1615610537576001600160a01b039081169081156112ee5760207fba2be5e898fed1646bc0814dee1cc9a2aee98f51fced7d5fc4699c47d9907753916112c133611feb565b169283600052600182526009604060002001816001600160601b0360a01b825416179055604051908152a2005b60405163e6c4247b60e01b8152600490fd5b3461023157602036600319011261023157602061131e610707611a89565b6040516001600160a01b039091168152f35b3461023157600036600319011261023157600080600754905b81811061142f575061135a82611f72565b916113686040519384611b12565b808352611377601f1991611f72565b0160005b8181106113f55750506000805b8281106113a1576040518061139d8682611c19565b0390f35b60ff60046113ae83611d83565b500154166113bf575b600101611388565b906113ed6001916113d261057585611d83565b6113dc8288611fd7565b526113e78187611fd7565b50611de1565b9190506113b7565b60209060405161140481611ad9565b600081528260008183015260006040830152600060608301526000608083015282870101520161137b565b60ff600461143c83611d83565b5001541661144d575b600101611349565b91611459600191611de1565b929050611445565b346102315760003660031901126102315760075461147e81611f72565b61148b6040519182611b12565b8181526020916020820160076000527fa66cc928b5edb82af9bd49922954155ab7b0942694bea4ce44661d9a8736c688936000915b8383106114d5576040518061139d8782611c19565b6005826001926114e489611f8a565b8152019601920191946114c0565b34610231576000366003190112610231576020600754604051908152f35b3461023157602036600319011261023157602061153361152e611a89565b611e7b565b6040519015158152f35b3461023157602036600319011261023157602061153361155b611a89565b611e10565b34610231576020366003190112610231576001600160a01b0380611585610707611a89565b1660005260016020526040600020604051916115a083611af5565b6115a982611b34565b83526115b760018301611b34565b926020810193845260028301546040820190815260ff6003850154169260608301931515845260048501546080840190815260058601549060a0850191825260068701549260c0860193845260078801548060e088015260ff60088a01549260096101009b858d8c015201549081166101208a015260a01c1615156101408801528115156000146116a6576116839161164f91611df0565b955b519851945196511515915192519351946116756040519a8a8c9b8c528b0190611bd9565b9089820360208b0152611bd9565b9560408801526060870152608086015260a085015260c084015260e08301520390f35b5050611683600095611651565b34610231576060366003190112610231576116cc611a89565b602435906001600160a01b039081831683036102315781908160005416330361188f575b169182156112ee576117028291611feb565b168060005260019260209380855260ff60096040600020015460a01c16156105375782600052808552600460406000200161173d8154611de1565b9055600754936040519061175082611ad9565b8382528682018581526040830192878452606081014281526080820190868252600160401b95868b101561046e57878b0160075561178d8b611d83565b95909561187957866117e1976004965116906001600160601b0360a01b91828954161788558a88019251169082541617905551600285015551600384015551151591019060ff801983541691151516179055565b836000526008865260406000209081549081101561046e5761180c8187938561182394018155611d6b565b819391549060031b91821b91600019901b19161790565b9055816000526009855283604060002055600a855260406000209060ff19825416179055827fff58b66f24ff4eb8cdcbb449f475bb0a38562bcc93747b2789258890a3ec587f85604051428152a4604051908152f35b634e487b7160e01b600052600060045260246000fd5b9081163303610ad357816118a284611feb565b16600052600160205260ff60096040600020015460a01c16156105375781906116f0565b34610231576040366003190112610231576118df611a89565b602435906001600160a01b03906118f590611feb565b169081600052600160205260ff60096040600020015460a01c1615610537576001811080156119a0575b61198e5760407f0bb5dae0881d92dbba846442c97b0e16b14bb50c193562dd865ef8fb6693363a9183600052600160205260078260002001611962828254611dbe565b90558360005260016020526008826000200161197e8154611de1565b90558151908152336020820152a2005b60405163d29df2dd60e01b8152600490fd5b506005811161191f565b3461023157602036600319011261023157611a3c6001600160a01b03806119cf611a89565b166000526001602052604060002060ff6119e882611b34565b926119f560018401611b34565b906002840154938360038201541660048201546005830154600684015491600785015493611a4a60096008880154970154986040519d8e9d8e610160908181520190611bd9565b8d810360208f015290611bd9565b9960408c0152151560608b015260808a015260a089015260c088015260e0870152610100860152811661012085015260a01c1615156101408301520390f35b600435906001600160a01b038216820361023157565b90600182811c92168015611acf575b6020831014611ab957565b634e487b7160e01b600052602260045260246000fd5b91607f1691611aae565b60a0810190811067ffffffffffffffff82111761046e57604052565b610160810190811067ffffffffffffffff82111761046e57604052565b90601f8019910116810190811067ffffffffffffffff82111761046e57604052565b90604051918260008254611b4781611a9f565b90818452602094600191600181169081600014611bb75750600114611b78575b505050611b7692500383611b12565b565b600090815285812095935091905b818310611b9f575050611b769350820101388080611b67565b85548884018501529485019487945091830191611b86565b92505050611b7694925060ff191682840152151560051b820101388080611b67565b919082519283825260005b848110611c05575050826000602080949584010152601f8019910116010190565b602081830181015184830182015201611be4565b60208082019080835283518092528060408094019401926000905b838210611c4357505050505090565b845180516001600160a01b03908116885281850151168785015280820151878301526060808201519088015260809081015115159087015260a09095019493820193600190910190611c34565b81601f820112156102315780359067ffffffffffffffff821161046e5760405192611cc5601f8401601f191660200185611b12565b8284526020838301011161023157816000926020809301838601378301015290565b600254811015611d1e5760026000527f405787fa12a823e0f2b7631cc41b3ba8828b3321ca811111fa75cd3aa3bb5ace0190600090565b634e487b7160e01b600052603260045260246000fd5b600354811015611d1e5760036000527fc2575a0e9e593c00f959f8c92f12db2869c3395a3b0502d05e2516446f71f85b0190600090565b8054821015611d1e5760005260206000200190600090565b600754811015611d1e576005906007600052027fa66cc928b5edb82af9bd49922954155ab7b0942694bea4ce44661d9a8736c6880190600090565b91908201809211611dcb57565b634e487b7160e01b600052601160045260246000fd5b6000198114611dcb5760010190565b8115611dfa570490565b634e487b7160e01b600052601260045260246000fd5b60018060a01b0380600092168252600160205260ff600960408420015460a01c16611e745760066020526040822054168015159081611e58575b50611e525790565b50600190565b8252506001602052604081206009015460a01c60ff1638611e4a565b5050600190565b60018060a01b038091166000918183526001916020918383526040908186209260ff938480600983015460a01c169182611f64575b5050611f2c57600685528183882054168015159081611f4b575b81611f36575b50611f2c578652600584528186205416151592849084611f15575b84611f02575b50505050611efd575090565b905090565b5284206003015416905038808381611ef1565b8094505283826009838820015460a01c1693611eeb565b5050505050905090565b88525085855282872060030154841638611ed0565b8089528787528489206009015460a01c86169150611eca565b600301541690508438611eb0565b67ffffffffffffffff811161046e5760051b60200190565b90604051611f9781611ad9565b82546001600160a01b0390811682526001840154166020820152600283015460408201526003830154606082015260049092015460ff1615156080830152565b8051821015611d1e5760209160051b010190565b6001600160a01b0381811660009081526001602052604090206009015460a01c60ff1661204d576006602052604060002054168015158061202f575b611efd575090565b5080600052600160205260ff60096040600020015460a01c16612027565b5090565b6001600160a01b0390819061206590611feb565b166000526001602052604060002060405161207f81611af5565b61208882611b34565b815261209660018301611b34565b60208201526002820154604082015260ff6003830154161515606082015260048201546080820152600582015460a0820152600682015460c082015261014060ff6007840154948560e0850152600960088601549586610100870152015490811661012085015260a01c16151591015280156121185761211591611df0565b90565b5050600090565b6000546001600160a01b0316330361213357565b60405163118cdaa760e01b8152336004820152602490fd5b600081815260046020526040812054611efd57600354600160401b81101561219857908261218461180c84600160409601600355611d34565b905560035492815260046020522055600190565b634e487b7160e01b82526041600452602482fd5b60009080825260049081602052604083205480151560001461228f576000199080820181811161227c576003549083820191821161226957818103612236575b50505060035480156122235781019061220482611d34565b909182549160031b1b1916905560035582526020526040812055600190565b634e487b7160e01b855260318452602485fd5b61225461224561180c93611d34565b90549060031b1c928392611d34565b905585528360205260408520553880806121ec565b634e487b7160e01b875260118652602487fd5b634e487b7160e01b865260118552602486fd5b5050509056fea26469706673582212200aa0483e3494085e3fe64a7bf6aa97992c105e8bd829920d55f2f96bb9425bdb64736f6c63430008160033","opcodes":"PUSH1 0x80 DUP1 PUSH1 0x40 MSTORE CALLVALUE PUSH3 0x54F JUMPI CALLER ISZERO PUSH3 0x539 JUMPI PUSH1 0x0 DUP1 SLOAD CALLER PUSH1 0x1 PUSH1 0x1 PUSH1 0xA0 SHL SUB NOT DUP3 AND DUP2 OR DUP4 SSTORE SWAP2 PUSH1 0x1 PUSH1 0x1 PUSH1 0xA0 SHL SUB SWAP1 SWAP2 AND SWAP1 PUSH32 0x8BE0079C531659141344CD1FD0A4F28419497F9722A3DAAFE3B4186F6B6457E0 SWAP1 DUP1 LOG3 PUSH1 0x40 MLOAD PUSH2 0x160 DUP2 ADD PUSH1 0x1 PUSH1 0x1 PUSH1 0x40 SHL SUB DUP2 GT DUP3 DUP3 LT OR PUSH3 0x365 JUMPI PUSH1 0x40 MSTORE PUSH3 0x7F PUSH3 0x554 JUMP JUMPDEST PUSH1 0x0 DUP2 MSTORE DUP2 MSTORE PUSH3 0x8F PUSH3 0x554 JUMP JUMPDEST PUSH1 0x0 DUP2 MSTORE PUSH1 0x20 DUP3 ADD MSTORE TIMESTAMP PUSH1 0x40 DUP3 ADD MSTORE PUSH1 0x1 PUSH1 0x60 DUP3 ADD MSTORE PUSH1 0x0 PUSH1 0x80 DUP3 ADD MSTORE PUSH1 0x0 PUSH1 0xA0 DUP3 ADD MSTORE PUSH1 0x0 PUSH1 0xC0 DUP3 ADD MSTORE PUSH1 0x0 PUSH1 0xE0 DUP3 ADD MSTORE PUSH1 0x0 PUSH2 0x100 DUP3 ADD MSTORE CALLER PUSH2 0x120 DUP3 ADD MSTORE PUSH1 0x1 PUSH2 0x140 DUP3 ADD MSTORE CALLER PUSH1 0x0 MSTORE PUSH1 0x1 PUSH1 0x20 MSTORE PUSH1 0x40 PUSH1 0x0 KECCAK256 SWAP1 DUP1 MLOAD SWAP2 DUP3 MLOAD PUSH1 0x1 DUP1 PUSH1 0x40 SHL SUB DUP2 GT PUSH3 0x365 JUMPI DUP2 SLOAD PUSH1 0x1 DUP2 DUP2 SHR SWAP2 AND DUP1 ISZERO PUSH3 0x52E JUMPI JUMPDEST PUSH1 0x20 DUP3 LT EQ PUSH3 0x44B JUMPI PUSH1 0x1F DUP2 GT PUSH3 0x4E5 JUMPI JUMPDEST POP PUSH1 0x20 PUSH1 0x1F DUP3 GT PUSH1 0x1 EQ PUSH3 0x478 JUMPI DUP2 SWAP3 SWAP4 SWAP5 PUSH1 0x0 SWAP3 PUSH3 0x46C JUMPI JUMPDEST POP POP DUP2 PUSH1 0x1 SHL SWAP2 PUSH1 0x0 NOT SWAP1 PUSH1 0x3 SHL SHR NOT AND OR DUP2 SSTORE JUMPDEST PUSH1 0x20 DUP3 ADD MLOAD DUP1 MLOAD SWAP1 PUSH1 0x1 PUSH1 0x1 PUSH1 0x40 SHL SUB DUP3 GT PUSH3 0x365 JUMPI PUSH1 0x1 DUP4 ADD SLOAD PUSH1 0x1 DUP2 DUP2 SHR SWAP2 AND DUP1 ISZERO PUSH3 0x461 JUMPI JUMPDEST PUSH1 0x20 DUP3 LT EQ PUSH3 0x44B JUMPI PUSH1 0x1F DUP2 GT PUSH3 0x3FF JUMPI JUMPDEST POP PUSH1 0x20 SWAP1 PUSH1 0x1F DUP4 GT PUSH1 0x1 EQ PUSH3 0x387 JUMPI PUSH1 0x9 SWAP4 SWAP3 SWAP2 PUSH1 0x0 SWAP2 DUP4 PUSH3 0x37B JUMPI JUMPDEST POP POP DUP2 PUSH1 0x1 SHL SWAP2 PUSH1 0x0 NOT SWAP1 PUSH1 0x3 SHL SHR NOT AND OR PUSH1 0x1 DUP3 ADD SSTORE JUMPDEST PUSH1 0x40 DUP4 ADD MLOAD PUSH1 0x2 DUP3 ADD SSTORE PUSH1 0x3 DUP2 ADD PUSH1 0x60 DUP5 ADD MLOAD ISZERO ISZERO PUSH1 0xFF DUP1 NOT DUP4 SLOAD AND SWAP2 AND OR SWAP1 SSTORE PUSH1 0x80 DUP4 ADD MLOAD PUSH1 0x4 DUP3 ADD SSTORE PUSH1 0xA0 DUP4 ADD MLOAD PUSH1 0x5 DUP3 ADD SSTORE PUSH1 0xC0 DUP4 ADD MLOAD PUSH1 0x6 DUP3 ADD SSTORE PUSH1 0xE0 DUP4 ADD MLOAD PUSH1 0x7 DUP3 ADD SSTORE PUSH2 0x100 DUP4 ADD MLOAD PUSH1 0x8 DUP3 ADD SSTORE ADD SWAP1 PUSH1 0x1 DUP1 PUSH1 0xA0 SHL SUB PUSH2 0x120 DUP3 ADD MLOAD AND DUP3 SLOAD SWAP2 PUSH2 0x140 PUSH1 0xFF PUSH1 0xA0 SHL SWAP2 ADD MLOAD ISZERO ISZERO PUSH1 0xA0 SHL AND SWAP2 PUSH1 0x1 DUP1 PUSH1 0xA8 SHL SUB NOT AND OR OR SWAP1 SSTORE PUSH1 0x1 DUP1 PUSH1 0xA0 SHL SUB PUSH1 0x0 SLOAD AND PUSH1 0x2 SLOAD PUSH9 0x10000000000000000 DUP2 LT ISZERO PUSH3 0x365 JUMPI PUSH1 0x1 DUP2 ADD DUP1 PUSH1 0x2 SSTORE DUP2 LT ISZERO PUSH3 0x34F JUMPI PUSH1 0x2 PUSH1 0x0 SWAP1 DUP2 MSTORE PUSH32 0x405787FA12A823E0F2B7631CC41B3BA8828B3321CA811111FA75CD3AA3BB5ACE SWAP2 SWAP1 SWAP2 ADD DUP1 SLOAD PUSH1 0x1 PUSH1 0x1 PUSH1 0xA0 SHL SUB NOT AND SWAP1 SWAP3 OR SWAP1 SWAP2 SSTORE SLOAD PUSH3 0x2CF SWAP1 PUSH1 0x1 PUSH1 0x1 PUSH1 0xA0 SHL SUB AND PUSH3 0x574 JUMP JUMPDEST POP PUSH1 0x1 DUP1 PUSH1 0xA0 SHL SUB PUSH1 0x0 SLOAD AND DUP1 PUSH32 0x3D5483A93DF0921E07BA2B0050C4D0F5793795035F1DB5AF3FACE517DF5E333B PUSH1 0x60 PUSH1 0x40 MLOAD PUSH1 0x40 DUP2 MSTORE PUSH1 0x0 PUSH1 0x40 DUP3 ADD MSTORE TIMESTAMP PUSH1 0x20 DUP3 ADD MSTORE LOG2 PUSH32 0xB2DB07FB09FFC5844977DAAF0AAE46ED92B7B07810799A6AF9E9D0C80EBA59DE PUSH1 0x20 PUSH1 0x40 MLOAD PUSH1 0x1 DUP2 MSTORE LOG2 PUSH1 0x40 MLOAD PUSH2 0x22CB SWAP1 DUP2 PUSH3 0x615 DUP3 CODECOPY RETURN JUMPDEST PUSH4 0x4E487B71 PUSH1 0xE0 SHL PUSH1 0x0 MSTORE PUSH1 0x32 PUSH1 0x4 MSTORE PUSH1 0x24 PUSH1 0x0 REVERT JUMPDEST PUSH4 0x4E487B71 PUSH1 0xE0 SHL PUSH1 0x0 MSTORE PUSH1 0x41 PUSH1 0x4 MSTORE PUSH1 0x24 PUSH1 0x0 REVERT JUMPDEST ADD MLOAD SWAP1 POP DUP6 DUP1 PUSH3 0x1AE JUMP JUMPDEST SWAP1 PUSH1 0x1 DUP5 ADD PUSH1 0x0 MSTORE PUSH1 0x20 PUSH1 0x0 KECCAK256 SWAP2 PUSH1 0x0 JUMPDEST PUSH1 0x1F NOT DUP6 AND DUP2 LT PUSH3 0x3E6 JUMPI POP SWAP2 DUP4 SWAP2 PUSH1 0x1 SWAP4 PUSH1 0x9 SWAP7 SWAP6 PUSH1 0x1F NOT DUP2 AND LT PUSH3 0x3CC JUMPI JUMPDEST POP POP POP DUP2 SHL ADD PUSH1 0x1 DUP3 ADD SSTORE PUSH3 0x1C6 JUMP JUMPDEST ADD MLOAD PUSH1 0x0 NOT PUSH1 0xF8 DUP5 PUSH1 0x3 SHL AND SHR NOT AND SWAP1 SSTORE DUP6 DUP1 DUP1 PUSH3 0x3BB JUMP JUMPDEST SWAP2 SWAP3 PUSH1 0x20 PUSH1 0x1 DUP2 SWAP3 DUP7 DUP6 ADD MLOAD DUP2 SSTORE ADD SWAP5 ADD SWAP3 ADD PUSH3 0x398 JUMP JUMPDEST PUSH1 0x1 DUP5 ADD PUSH1 0x0 MSTORE PUSH1 0x20 PUSH1 0x0 KECCAK256 PUSH1 0x1F DUP5 ADD PUSH1 0x5 SHR DUP2 ADD PUSH1 0x20 DUP6 LT PUSH3 0x443 JUMPI JUMPDEST PUSH1 0x1F DUP4 ADD PUSH1 0x5 SHR DUP3 ADD DUP2 LT PUSH3 0x436 JUMPI POP POP PUSH3 0x18F JUMP JUMPDEST PUSH1 0x0 DUP2 SSTORE PUSH1 0x1 ADD PUSH3 0x41E JUMP JUMPDEST POP DUP1 PUSH3 0x41E JUMP JUMPDEST PUSH4 0x4E487B71 PUSH1 0xE0 SHL PUSH1 0x0 MSTORE PUSH1 0x22 PUSH1 0x4 MSTORE PUSH1 0x24 PUSH1 0x0 REVERT JUMPDEST SWAP1 PUSH1 0x7F AND SWAP1 PUSH3 0x17B JUMP JUMPDEST ADD MLOAD SWAP1 POP DUP5 DUP1 PUSH3 0x13B JUMP JUMPDEST DUP3 PUSH1 0x0 MSTORE PUSH1 0x20 PUSH1 0x0 KECCAK256 SWAP1 PUSH1 0x0 JUMPDEST PUSH1 0x1F NOT DUP5 AND DUP2 LT PUSH3 0x4CC JUMPI POP PUSH1 0x1 SWAP4 SWAP5 SWAP6 DUP4 PUSH1 0x1F NOT DUP2 AND LT PUSH3 0x4B2 JUMPI JUMPDEST POP POP POP DUP2 SHL ADD DUP2 SSTORE PUSH3 0x150 JUMP JUMPDEST ADD MLOAD PUSH1 0x0 NOT PUSH1 0xF8 DUP5 PUSH1 0x3 SHL AND SHR NOT AND SWAP1 SSTORE DUP5 DUP1 DUP1 PUSH3 0x4A4 JUMP JUMPDEST SWAP1 SWAP2 PUSH1 0x20 PUSH1 0x1 DUP2 SWAP3 DUP6 DUP11 ADD MLOAD DUP2 SSTORE ADD SWAP4 ADD SWAP2 ADD PUSH3 0x485 JUMP JUMPDEST DUP3 PUSH1 0x0 MSTORE PUSH1 0x20 PUSH1 0x0 KECCAK256 PUSH1 0x1F DUP4 ADD PUSH1 0x5 SHR DUP2 ADD PUSH1 0x20 DUP5 LT PUSH3 0x526 JUMPI JUMPDEST PUSH1 0x1F DUP4 ADD PUSH1 0x5 SHR DUP3 ADD DUP2 LT PUSH3 0x519 JUMPI POP POP PUSH3 0x11F JUMP JUMPDEST PUSH1 0x0 DUP2 SSTORE PUSH1 0x1 ADD PUSH3 0x501 JUMP JUMPDEST POP DUP1 PUSH3 0x501 JUMP JUMPDEST SWAP1 PUSH1 0x7F AND SWAP1 PUSH3 0x10B JUMP JUMPDEST PUSH4 0x1E4FBDF7 PUSH1 0xE0 SHL DUP2 MSTORE PUSH1 0x0 PUSH1 0x4 DUP3 ADD MSTORE PUSH1 0x24 SWAP1 REVERT JUMPDEST PUSH1 0x0 DUP1 REVERT JUMPDEST PUSH1 0x40 MLOAD SWAP1 PUSH1 0x20 DUP3 ADD PUSH1 0x1 PUSH1 0x1 PUSH1 0x40 SHL SUB DUP2 GT DUP4 DUP3 LT OR PUSH3 0x365 JUMPI PUSH1 0x40 MSTORE JUMP JUMPDEST PUSH1 0x0 DUP2 DUP2 MSTORE PUSH1 0x4 PUSH1 0x20 MSTORE PUSH1 0x40 DUP2 KECCAK256 SLOAD PUSH3 0x60F JUMPI PUSH1 0x3 SLOAD PUSH9 0x10000000000000000 DUP2 LT ISZERO PUSH3 0x5FB JUMPI PUSH1 0x1 DUP2 ADD DUP1 PUSH1 0x3 SSTORE DUP2 LT ISZERO PUSH3 0x5E7 JUMPI PUSH32 0xC2575A0E9E593C00F959F8C92F12DB2869C3395A3B0502D05E2516446F71F85B ADD DUP3 SWAP1 SSTORE PUSH1 0x3 SLOAD SWAP2 DUP2 MSTORE PUSH1 0x4 PUSH1 0x20 MSTORE PUSH1 0x40 SWAP1 KECCAK256 SSTORE PUSH1 0x1 SWAP1 JUMP JUMPDEST PUSH4 0x4E487B71 PUSH1 0xE0 SHL DUP3 MSTORE PUSH1 0x32 PUSH1 0x4 MSTORE PUSH1 0x24 DUP3 REVERT JUMPDEST PUSH4 0x4E487B71 PUSH1 0xE0 SHL DUP3 MSTORE PUSH1 0x41 PUSH1 0x4 MSTORE PUSH1 0x24 DUP3 REVERT JUMPDEST SWAP1 POP SWAP1 JUMP INVALID PUSH1 0x80 PUSH1 0x40 MSTORE PUSH1 0x4 CALLDATASIZE LT ISZERO PUSH2 0x12 JUMPI PUSH1 0x0 DUP1 REVERT JUMPDEST PUSH1 0x0 CALLDATALOAD PUSH1 0xE0 SHR DUP1 PUSH4 0x544C5B9 EQ PUSH2 0x19AA JUMPI DUP1 PUSH4 0x87DA4A4 EQ PUSH2 0x68A JUMPI DUP1 PUSH4 0x1624939D EQ PUSH2 0x18C6 JUMPI DUP1 PUSH4 0x1BFBA652 EQ PUSH2 0x16B3 JUMPI DUP1 PUSH4 0x1C00CAAB EQ PUSH2 0x1560 JUMPI DUP1 PUSH4 0x2264E8CB EQ PUSH2 0x153D JUMPI DUP1 PUSH4 0x24AF6032 EQ PUSH2 0x1510 JUMPI DUP1 PUSH4 0x317893FF EQ PUSH2 0x14F2 JUMPI DUP1 PUSH4 0x32833F28 EQ PUSH2 0x1461 JUMPI DUP1 PUSH4 0x3612280F EQ PUSH2 0x1330 JUMPI DUP1 PUSH4 0x412A9986 EQ PUSH2 0x1300 JUMPI DUP1 PUSH4 0x4ADAD82D EQ PUSH2 0xB1F JUMPI DUP1 PUSH4 0x4CA6DB39 EQ PUSH2 0xB5E JUMPI DUP1 PUSH4 0x4EC33F6E EQ PUSH2 0x124C JUMPI DUP1 PUSH4 0x5CB75D85 EQ PUSH2 0xCE5 JUMPI DUP1 PUSH4 0x61B0C739 EQ PUSH2 0xBF2 JUMPI DUP1 PUSH4 0x6BB7DE8B EQ PUSH2 0x747 JUMPI DUP1 PUSH4 0x715018A6 EQ PUSH2 0xB99 JUMPI DUP1 PUSH4 0x722ADCEE EQ PUSH2 0xB5E JUMPI DUP1 PUSH4 0x7B8BCE22 EQ PUSH2 0xB1F JUMPI DUP1 PUSH4 0x8DA5CB5B EQ PUSH2 0xAF6 JUMPI DUP1 PUSH4 0x957A632E EQ PUSH2 0xA5C JUMPI DUP1 PUSH4 0x95936448 EQ PUSH2 0xA31 JUMPI DUP1 PUSH4 0x9F6271C3 EQ PUSH2 0x97D JUMPI DUP1 PUSH4 0x9F816BA2 EQ PUSH2 0x897 JUMPI DUP1 PUSH4 0xB085E083 EQ PUSH2 0x7C4 JUMPI DUP1 PUSH4 0xBB26B2AA EQ PUSH2 0x782 JUMPI DUP1 PUSH4 0xD1D83270 EQ PUSH2 0x747 JUMPI DUP1 PUSH4 0xD36B904C EQ PUSH2 0x6E2 JUMPI DUP1 PUSH4 0xD9D4C1C7 EQ PUSH2 0x6C4 JUMPI DUP1 PUSH4 0xE0C322B6 EQ PUSH2 0x68A JUMPI DUP1 PUSH4 0xE4AA47E3 EQ PUSH2 0x632 JUMPI DUP1 PUSH4 0xEADE22F6 EQ PUSH2 0x5C4 JUMPI DUP1 PUSH4 0xEC38D5A0 EQ PUSH2 0x549 JUMPI DUP1 PUSH4 0xF1755BA2 EQ PUSH2 0x236 JUMPI PUSH4 0xF2FDE38B EQ PUSH2 0x1A8 JUMPI PUSH1 0x0 DUP1 REVERT JUMPDEST CALLVALUE PUSH2 0x231 JUMPI PUSH1 0x20 CALLDATASIZE PUSH1 0x3 NOT ADD SLT PUSH2 0x231 JUMPI PUSH2 0x1C1 PUSH2 0x1A89 JUMP JUMPDEST PUSH2 0x1C9 PUSH2 0x211F JUMP JUMPDEST PUSH1 0x1 PUSH1 0x1 PUSH1 0xA0 SHL SUB SWAP1 DUP2 AND SWAP1 DUP2 ISZERO PUSH2 0x218 JUMPI PUSH1 0x0 SLOAD DUP3 PUSH1 0x1 PUSH1 0x1 PUSH1 0x60 SHL SUB PUSH1 0xA0 SHL DUP3 AND OR PUSH1 0x0 SSTORE AND PUSH32 0x8BE0079C531659141344CD1FD0A4F28419497F9722A3DAAFE3B4186F6B6457E0 PUSH1 0x0 DUP1 LOG3 STOP JUMPDEST PUSH1 0x40 MLOAD PUSH4 0x1E4FBDF7 PUSH1 0xE0 SHL DUP2 MSTORE PUSH1 0x0 PUSH1 0x4 DUP3 ADD MSTORE PUSH1 0x24 SWAP1 REVERT JUMPDEST PUSH1 0x0 DUP1 REVERT JUMPDEST CALLVALUE PUSH2 0x231 JUMPI PUSH1 0x40 CALLDATASIZE PUSH1 0x3 NOT ADD SLT PUSH2 0x231 JUMPI PUSH8 0xFFFFFFFFFFFFFFFF PUSH1 0x4 CALLDATALOAD DUP2 DUP2 GT PUSH2 0x231 JUMPI PUSH2 0x268 SWAP1 CALLDATASIZE SWAP1 PUSH1 0x4 ADD PUSH2 0x1C90 JUMP JUMPDEST SWAP1 PUSH1 0x24 CALLDATALOAD DUP2 DUP2 GT PUSH2 0x231 JUMPI PUSH2 0x281 SWAP1 CALLDATASIZE SWAP1 PUSH1 0x4 ADD PUSH2 0x1C90 JUMP JUMPDEST SWAP2 CALLER PUSH1 0x0 MSTORE PUSH1 0x1 SWAP3 PUSH1 0x20 SWAP1 DUP5 DUP3 MSTORE PUSH1 0xFF PUSH1 0x9 PUSH1 0x40 PUSH1 0x0 KECCAK256 ADD SLOAD PUSH1 0xA0 SHR AND ISZERO PUSH2 0x537 JUMPI PUSH1 0x1 PUSH1 0x1 PUSH1 0xA0 SHL SUB PUSH2 0x2B4 CALLER PUSH2 0x1FEB JUMP JUMPDEST AND SWAP4 DUP5 PUSH1 0x0 MSTORE DUP6 DUP4 MSTORE PUSH1 0x40 PUSH1 0x0 KECCAK256 SWAP6 DUP5 MLOAD SWAP7 DUP3 DUP9 GT PUSH2 0x46E JUMPI PUSH2 0x2D7 DUP2 SLOAD PUSH2 0x1A9F JUMP JUMPDEST SWAP8 PUSH1 0x1F SWAP9 DUP10 DUP2 GT PUSH2 0x4F1 JUMPI JUMPDEST POP DUP1 DUP7 DUP11 DUP3 GT PUSH1 0x1 EQ PUSH2 0x48F JUMPI PUSH1 0x0 SWAP2 PUSH2 0x484 JUMPI JUMPDEST POP PUSH1 0x0 NOT PUSH1 0x3 DUP4 SWAP1 SHL SHR NOT AND SWAP1 DUP4 SHL OR SWAP1 SSTORE JUMPDEST DUP6 PUSH1 0x0 MSTORE DUP1 DUP5 MSTORE DUP1 PUSH1 0x40 PUSH1 0x0 KECCAK256 ADD SWAP3 DUP1 MLOAD SWAP3 DUP4 GT PUSH2 0x46E JUMPI PUSH2 0x32D DUP5 SLOAD PUSH2 0x1A9F JUMP JUMPDEST DUP9 DUP2 GT PUSH2 0x428 JUMPI JUMPDEST POP DUP5 SWAP8 DUP4 GT PUSH1 0x1 EQ PUSH2 0x3A6 JUMPI DUP3 SWAP2 PUSH32 0xDD635A4CD84864E37E4479DBFC2EC667ACFA473C83C8422A8AC9D9D07599B01C SWAP8 SWAP9 DUP4 SWAP3 PUSH1 0x0 SWAP5 PUSH2 0x39B JUMPI JUMPDEST POP POP SHL SWAP2 PUSH1 0x0 NOT SWAP1 PUSH1 0x3 SHL SHR NOT AND OR SWAP1 SSTORE JUMPDEST PUSH2 0x396 PUSH1 0x40 MLOAD SWAP3 DUP3 DUP5 SWAP4 DUP5 MSTORE DUP4 ADD SWAP1 PUSH2 0x1BD9 JUMP JUMPDEST SUB SWAP1 LOG2 STOP JUMPDEST ADD MLOAD SWAP3 POP DUP10 DUP1 PUSH2 0x370 JUMP JUMPDEST PUSH1 0x1F SWAP3 SWAP2 SWAP3 NOT DUP3 AND SWAP8 DUP5 PUSH1 0x0 MSTORE DUP6 PUSH1 0x0 KECCAK256 SWAP2 PUSH1 0x0 JUMPDEST DUP11 DUP2 LT PUSH2 0x413 JUMPI POP DUP4 PUSH32 0xDD635A4CD84864E37E4479DBFC2EC667ACFA473C83C8422A8AC9D9D07599B01C SWAP10 SWAP11 LT PUSH2 0x3FA JUMPI JUMPDEST POP POP POP DUP2 SHL ADD SWAP1 SSTORE PUSH2 0x382 JUMP JUMPDEST ADD MLOAD PUSH1 0x0 NOT PUSH1 0xF8 DUP5 PUSH1 0x3 SHL AND SHR NOT AND SWAP1 SSTORE DUP8 DUP1 DUP1 PUSH2 0x3ED JUMP JUMPDEST DUP2 DUP4 ADD MLOAD DUP5 SSTORE SWAP3 DUP6 ADD SWAP3 SWAP2 DUP8 ADD SWAP2 DUP8 ADD PUSH2 0x3BB JUMP JUMPDEST DUP5 PUSH1 0x0 MSTORE DUP6 PUSH1 0x0 KECCAK256 DUP10 DUP1 DUP7 ADD PUSH1 0x5 SHR DUP3 ADD SWAP3 DUP9 DUP8 LT PUSH2 0x465 JUMPI JUMPDEST ADD PUSH1 0x5 SHR ADD SWAP1 DUP4 SWAP1 JUMPDEST DUP3 DUP2 LT PUSH2 0x459 JUMPI POP POP PUSH2 0x335 JUMP JUMPDEST PUSH1 0x0 DUP2 SSTORE ADD DUP4 SWAP1 PUSH2 0x44B JUMP JUMPDEST SWAP3 POP DUP2 SWAP3 PUSH2 0x442 JUMP JUMPDEST PUSH4 0x4E487B71 PUSH1 0xE0 SHL PUSH1 0x0 MSTORE PUSH1 0x41 PUSH1 0x4 MSTORE PUSH1 0x24 PUSH1 0x0 REVERT JUMPDEST SWAP1 POP DUP8 ADD MLOAD DUP11 PUSH2 0x2F8 JUMP JUMPDEST DUP5 SWAP3 POP PUSH1 0x1F NOT DUP3 AND SWAP1 DUP5 PUSH1 0x0 MSTORE DUP9 PUSH1 0x0 KECCAK256 SWAP2 PUSH1 0x0 JUMPDEST DUP11 DUP13 DUP4 DUP4 LT PUSH2 0x4DC JUMPI POP POP POP DUP4 GT PUSH2 0x4C3 JUMPI JUMPDEST POP POP DUP2 SHL ADD SWAP1 SSTORE PUSH2 0x30B JUMP JUMPDEST DUP10 ADD MLOAD PUSH1 0x0 NOT PUSH1 0xF8 DUP5 PUSH1 0x3 SHL AND SHR NOT AND SWAP1 SSTORE DUP11 DUP1 PUSH2 0x4B7 JUMP JUMPDEST DUP5 ADD MLOAD DUP6 SSTORE DUP9 SWAP7 SWAP1 SWAP5 ADD SWAP4 SWAP3 DUP4 ADD SWAP3 ADD PUSH2 0x4A4 JUMP JUMPDEST DUP3 PUSH1 0x0 MSTORE DUP7 PUSH1 0x0 KECCAK256 DUP11 DUP1 DUP5 ADD PUSH1 0x5 SHR DUP3 ADD SWAP3 DUP10 DUP6 LT PUSH2 0x52E JUMPI JUMPDEST ADD PUSH1 0x5 SHR ADD SWAP1 DUP5 SWAP1 JUMPDEST DUP3 DUP2 LT PUSH2 0x522 JUMPI POP POP PUSH2 0x2E3 JUMP JUMPDEST PUSH1 0x0 DUP2 SSTORE ADD DUP5 SWAP1 PUSH2 0x514 JUMP JUMPDEST SWAP3 POP DUP2 SWAP3 PUSH2 0x50B JUMP JUMPDEST PUSH1 0x40 MLOAD PUSH4 0xABA47339 PUSH1 0xE0 SHL DUP2 MSTORE PUSH1 0x4 SWAP1 REVERT JUMPDEST CALLVALUE PUSH2 0x231 JUMPI PUSH1 0x20 CALLDATASIZE PUSH1 0x3 NOT ADD SLT PUSH2 0x231 JUMPI PUSH1 0x4 CALLDATALOAD PUSH1 0x7 SLOAD DUP2 LT ISZERO PUSH2 0x5B2 JUMPI PUSH2 0x57B PUSH2 0x575 PUSH1 0x80 SWAP3 PUSH2 0x1D83 JUMP JUMPDEST POP PUSH2 0x1F8A JUMP JUMPDEST PUSH1 0x1 DUP1 PUSH1 0xA0 SHL SUB SWAP1 DUP2 DUP2 MLOAD AND SWAP2 PUSH1 0x20 DUP3 ADD MLOAD AND SWAP1 DUP4 PUSH1 0x60 DUP3 ADD MLOAD SWAP2 ADD MLOAD ISZERO ISZERO SWAP2 PUSH1 0x40 MLOAD SWAP4 DUP5 MSTORE PUSH1 0x20 DUP5 ADD MSTORE PUSH1 0x40 DUP4 ADD MSTORE PUSH1 0x60 DUP3 ADD MSTORE RETURN JUMPDEST PUSH1 0x40 MLOAD PUSH4 0x5ADD5543 PUSH1 0xE0 SHL DUP2 MSTORE PUSH1 0x4 SWAP1 REVERT JUMPDEST CALLVALUE PUSH2 0x231 JUMPI PUSH1 0x20 CALLDATASIZE PUSH1 0x3 NOT ADD SLT PUSH2 0x231 JUMPI PUSH1 0x4 CALLDATALOAD PUSH1 0x7 SLOAD DUP2 LT ISZERO PUSH2 0x231 JUMPI PUSH2 0x5ED PUSH1 0xA0 SWAP2 PUSH2 0x1D83 JUMP JUMPDEST POP PUSH1 0x1 DUP1 DUP4 SHL SUB SWAP1 DUP2 DUP2 SLOAD AND SWAP2 PUSH1 0x1 DUP3 ADD SLOAD AND SWAP1 PUSH1 0x2 DUP2 ADD SLOAD PUSH1 0xFF PUSH1 0x4 PUSH1 0x3 DUP5 ADD SLOAD SWAP4 ADD SLOAD AND SWAP3 PUSH1 0x40 MLOAD SWAP5 DUP6 MSTORE PUSH1 0x20 DUP6 ADD MSTORE PUSH1 0x40 DUP5 ADD MSTORE PUSH1 0x60 DUP4 ADD MSTORE ISZERO ISZERO PUSH1 0x80 DUP3 ADD MSTORE RETURN JUMPDEST CALLVALUE PUSH2 0x231 JUMPI PUSH1 0x40 CALLDATASIZE PUSH1 0x3 NOT ADD SLT PUSH2 0x231 JUMPI PUSH2 0x64B PUSH2 0x1A89 JUMP JUMPDEST PUSH1 0x1 PUSH1 0x1 PUSH1 0xA0 SHL SUB AND PUSH1 0x0 SWAP1 DUP2 MSTORE PUSH1 0x8 PUSH1 0x20 MSTORE PUSH1 0x40 SWAP1 KECCAK256 DUP1 SLOAD PUSH1 0x24 CALLDATALOAD SWAP2 SWAP1 DUP3 LT ISZERO PUSH2 0x231 JUMPI PUSH1 0x20 SWAP2 PUSH2 0x67C SWAP2 PUSH2 0x1D6B JUMP JUMPDEST SWAP1 SLOAD PUSH1 0x40 MLOAD SWAP2 PUSH1 0x3 SHL SHR DUP2 MSTORE RETURN JUMPDEST CALLVALUE PUSH2 0x231 JUMPI PUSH1 0x20 CALLDATASIZE PUSH1 0x3 NOT ADD SLT PUSH2 0x231 JUMPI PUSH1 0x1 PUSH1 0x1 PUSH1 0xA0 SHL SUB PUSH2 0x6AB PUSH2 0x1A89 JUMP JUMPDEST AND PUSH1 0x0 MSTORE PUSH1 0x9 PUSH1 0x20 MSTORE PUSH1 0x20 PUSH1 0x40 PUSH1 0x0 KECCAK256 SLOAD PUSH1 0x40 MLOAD SWAP1 DUP2 MSTORE RETURN JUMPDEST CALLVALUE PUSH2 0x231 JUMPI PUSH1 0x0 CALLDATASIZE PUSH1 0x3 NOT ADD SLT PUSH2 0x231 JUMPI PUSH1 0x20 PUSH1 0x2 SLOAD PUSH1 0x40 MLOAD SWAP1 DUP2 MSTORE RETURN JUMPDEST CALLVALUE PUSH2 0x231 JUMPI PUSH1 0x20 CALLDATASIZE PUSH1 0x3 NOT ADD SLT PUSH2 0x231 JUMPI PUSH1 0x1 PUSH1 0x1 PUSH1 0xA0 SHL SUB DUP1 PUSH2 0x70C PUSH2 0x707 PUSH2 0x1A89 JUMP JUMPDEST PUSH2 0x1FEB JUMP JUMPDEST AND SWAP1 DUP2 PUSH1 0x0 MSTORE PUSH1 0x1 PUSH1 0x20 MSTORE PUSH1 0xFF PUSH1 0x9 PUSH1 0x40 PUSH1 0x0 KECCAK256 ADD SLOAD PUSH1 0xA0 SHR AND ISZERO PUSH2 0x537 JUMPI PUSH1 0x20 SWAP2 PUSH1 0x0 MSTORE PUSH1 0x1 DUP3 MSTORE PUSH1 0x9 PUSH1 0x40 PUSH1 0x0 KECCAK256 ADD SLOAD AND PUSH1 0x40 MLOAD SWAP1 DUP2 MSTORE RETURN JUMPDEST CALLVALUE PUSH2 0x231 JUMPI PUSH1 0x20 CALLDATASIZE PUSH1 0x3 NOT ADD SLT PUSH2 0x231 JUMPI PUSH1 0x20 PUSH1 0x1 PUSH1 0x1 PUSH1 0xA0 SHL SUB DUP1 PUSH2 0x76B PUSH2 0x1A89 JUMP JUMPDEST AND PUSH1 0x0 MSTORE PUSH1 0x5 DUP3 MSTORE PUSH1 0x40 PUSH1 0x0 KECCAK256 SLOAD AND PUSH1 0x40 MLOAD SWAP1 DUP2 MSTORE RETURN JUMPDEST CALLVALUE PUSH2 0x231 JUMPI PUSH1 0x20 CALLDATASIZE PUSH1 0x3 NOT ADD SLT PUSH2 0x231 JUMPI PUSH1 0x4 CALLDATALOAD PUSH1 0x2 SLOAD DUP2 LT ISZERO PUSH2 0x231 JUMPI PUSH2 0x7AB PUSH1 0x20 SWAP2 PUSH2 0x1CE7 JUMP JUMPDEST SWAP1 SLOAD PUSH1 0x40 MLOAD PUSH1 0x3 SWAP3 SWAP1 SWAP3 SHL SHR PUSH1 0x1 PUSH1 0x1 PUSH1 0xA0 SHL SUB AND DUP2 MSTORE RETURN JUMPDEST CALLVALUE PUSH2 0x231 JUMPI PUSH1 0x40 CALLDATASIZE PUSH1 0x3 NOT ADD SLT PUSH2 0x231 JUMPI PUSH2 0x7DD PUSH2 0x1A89 JUMP JUMPDEST PUSH1 0x24 CALLDATALOAD SWAP1 DUP2 ISZERO ISZERO SWAP1 DUP2 DUP4 SUB PUSH2 0x231 JUMPI PUSH2 0x7F4 PUSH2 0x211F JUMP JUMPDEST PUSH1 0x1 PUSH1 0x1 PUSH1 0xA0 SHL SUB SWAP1 PUSH2 0x806 SWAP1 PUSH2 0x1FEB JUMP JUMPDEST AND SWAP2 DUP3 PUSH1 0x0 MSTORE PUSH1 0x1 PUSH1 0x20 MSTORE PUSH1 0xFF PUSH1 0x9 PUSH1 0x40 PUSH1 0x0 KECCAK256 ADD SLOAD PUSH1 0xA0 SHR AND ISZERO PUSH2 0x537 JUMPI PUSH32 0xB2DB07FB09FFC5844977DAAF0AAE46ED92B7B07810799A6AF9E9D0C80EBA59DE SWAP2 PUSH1 0x20 SWAP2 DUP5 PUSH1 0x0 MSTORE PUSH1 0x1 DUP4 MSTORE PUSH2 0x86F DUP2 PUSH1 0x3 PUSH1 0x40 PUSH1 0x0 KECCAK256 ADD SWAP1 PUSH1 0xFF DUP1 NOT DUP4 SLOAD AND SWAP2 ISZERO ISZERO AND OR SWAP1 SSTORE JUMP JUMPDEST ISZERO PUSH2 0x888 JUMPI PUSH2 0x87D DUP5 PUSH2 0x214B JUMP JUMPDEST POP JUMPDEST PUSH1 0x40 MLOAD SWAP1 DUP2 MSTORE LOG2 STOP JUMPDEST PUSH2 0x891 DUP5 PUSH2 0x21AC JUMP JUMPDEST POP PUSH2 0x87F JUMP JUMPDEST CALLVALUE PUSH2 0x231 JUMPI PUSH1 0x0 CALLDATASIZE PUSH1 0x3 NOT ADD SLT PUSH2 0x231 JUMPI PUSH1 0x3 DUP1 SLOAD PUSH2 0x8B5 DUP2 PUSH2 0x1F72 JUMP JUMPDEST PUSH2 0x8C2 PUSH1 0x40 MLOAD SWAP2 DUP3 PUSH2 0x1B12 JUMP JUMPDEST DUP2 DUP2 MSTORE PUSH2 0x8CE DUP3 PUSH2 0x1F72 JUMP JUMPDEST PUSH1 0x20 SWAP4 DUP3 DUP6 ADD SWAP4 SWAP2 PUSH1 0x1F NOT ADD CALLDATASIZE DUP6 CALLDATACOPY PUSH1 0x0 JUMPDEST DUP3 DUP2 LT PUSH2 0x936 JUMPI POP POP POP SWAP1 PUSH1 0x40 MLOAD SWAP3 DUP4 SWAP3 PUSH1 0x20 DUP5 ADD SWAP1 PUSH1 0x20 DUP6 MSTORE MLOAD DUP1 SWAP2 MSTORE PUSH1 0x40 DUP5 ADD SWAP3 SWAP2 PUSH1 0x0 JUMPDEST DUP3 DUP2 LT PUSH2 0x916 JUMPI POP POP POP POP SUB SWAP1 RETURN JUMPDEST DUP4 MLOAD PUSH1 0x1 PUSH1 0x1 PUSH1 0xA0 SHL SUB AND DUP6 MSTORE DUP7 SWAP6 POP SWAP4 DUP2 ADD SWAP4 SWAP3 DUP2 ADD SWAP3 PUSH1 0x1 ADD PUSH2 0x907 JUMP JUMPDEST PUSH1 0x0 DUP3 SWAP1 MSTORE PUSH32 0xC2575A0E9E593C00F959F8C92F12DB2869C3395A3B0502D05E2516446F71F85B DUP2 ADD SLOAD PUSH1 0x1 SWAP2 SWAP1 PUSH1 0x1 PUSH1 0x1 PUSH1 0xA0 SHL SUB AND PUSH2 0x976 DUP3 DUP8 PUSH2 0x1FD7 JUMP JUMPDEST MSTORE ADD PUSH2 0x8E0 JUMP JUMPDEST CALLVALUE PUSH2 0x231 JUMPI PUSH1 0x20 DUP1 PUSH1 0x3 NOT CALLDATASIZE ADD SLT PUSH2 0x231 JUMPI PUSH1 0x1 PUSH1 0x1 PUSH1 0xA0 SHL SUB PUSH2 0x99F PUSH2 0x1A89 JUMP JUMPDEST AND PUSH1 0x0 MSTORE PUSH1 0x8 DUP2 MSTORE PUSH1 0x40 PUSH1 0x0 KECCAK256 PUSH1 0x40 MLOAD SWAP1 DUP2 DUP4 DUP3 SLOAD SWAP2 DUP3 DUP2 MSTORE ADD SWAP1 DUP2 SWAP3 PUSH1 0x0 MSTORE DUP5 PUSH1 0x0 KECCAK256 SWAP1 PUSH1 0x0 JUMPDEST DUP7 DUP3 DUP3 LT PUSH2 0xA1D JUMPI DUP7 DUP7 PUSH2 0x9DD DUP3 DUP9 SUB DUP4 PUSH2 0x1B12 JUMP JUMPDEST PUSH1 0x40 MLOAD SWAP3 DUP4 SWAP3 DUP2 DUP5 ADD SWAP1 DUP3 DUP6 MSTORE MLOAD DUP1 SWAP2 MSTORE PUSH1 0x40 DUP5 ADD SWAP3 SWAP2 PUSH1 0x0 JUMPDEST DUP3 DUP2 LT PUSH2 0xA06 JUMPI POP POP POP POP SUB SWAP1 RETURN JUMPDEST DUP4 MLOAD DUP6 MSTORE DUP7 SWAP6 POP SWAP4 DUP2 ADD SWAP4 SWAP3 DUP2 ADD SWAP3 PUSH1 0x1 ADD PUSH2 0x9F7 JUMP JUMPDEST DUP4 SLOAD DUP6 MSTORE SWAP1 SWAP4 ADD SWAP3 PUSH1 0x1 SWAP3 DUP4 ADD SWAP3 ADD PUSH2 0x9C7 JUMP JUMPDEST CALLVALUE PUSH2 0x231 JUMPI PUSH1 0x20 CALLDATASIZE PUSH1 0x3 NOT ADD SLT PUSH2 0x231 JUMPI PUSH1 0x20 PUSH2 0xA54 PUSH2 0xA4F PUSH2 0x1A89 JUMP JUMPDEST PUSH2 0x2051 JUMP JUMPDEST PUSH1 0x40 MLOAD SWAP1 DUP2 MSTORE RETURN JUMPDEST CALLVALUE PUSH2 0x231 JUMPI PUSH1 0x20 CALLDATASIZE PUSH1 0x3 NOT ADD SLT PUSH2 0x231 JUMPI PUSH1 0x4 CALLDATALOAD PUSH1 0x7 SLOAD DUP2 LT ISZERO PUSH2 0x5B2 JUMPI PUSH2 0xA83 DUP2 PUSH2 0x1D83 JUMP JUMPDEST POP PUSH1 0x0 SLOAD CALLER PUSH1 0x1 PUSH1 0x1 PUSH1 0xA0 SHL SUB SWAP2 DUP3 AND EQ ISZERO SWAP1 DUP2 PUSH2 0xAE5 JUMPI JUMPDEST POP PUSH2 0xAD3 JUMPI PUSH1 0x4 ADD DUP1 SLOAD PUSH1 0xFF NOT AND SWAP1 SSTORE PUSH32 0x9BEC5B77A290657EDEFC9DEFA075C60A874E90F7CC9496853CA9962D58A4FFDD PUSH1 0x0 DUP1 LOG2 STOP JUMPDEST PUSH1 0x40 MLOAD PUSH4 0xEA8E4EB5 PUSH1 0xE0 SHL DUP2 MSTORE PUSH1 0x4 SWAP1 REVERT JUMPDEST SWAP1 POP PUSH1 0x1 DUP3 ADD SLOAD AND CALLER EQ ISZERO DUP4 PUSH2 0xA9C JUMP JUMPDEST CALLVALUE PUSH2 0x231 JUMPI PUSH1 0x0 CALLDATASIZE PUSH1 0x3 NOT ADD SLT PUSH2 0x231 JUMPI PUSH1 0x0 SLOAD PUSH1 0x40 MLOAD PUSH1 0x1 PUSH1 0x1 PUSH1 0xA0 SHL SUB SWAP1 SWAP2 AND DUP2 MSTORE PUSH1 0x20 SWAP1 RETURN JUMPDEST CALLVALUE PUSH2 0x231 JUMPI PUSH1 0x20 CALLDATASIZE PUSH1 0x3 NOT ADD SLT PUSH2 0x231 JUMPI PUSH1 0x1 PUSH1 0x1 PUSH1 0xA0 SHL SUB PUSH2 0xB40 PUSH2 0x1A89 JUMP JUMPDEST AND PUSH1 0x0 MSTORE PUSH1 0xA PUSH1 0x20 MSTORE PUSH1 0x20 PUSH1 0xFF PUSH1 0x40 PUSH1 0x0 KECCAK256 SLOAD AND PUSH1 0x40 MLOAD SWAP1 ISZERO ISZERO DUP2 MSTORE RETURN JUMPDEST CALLVALUE PUSH2 0x231 JUMPI PUSH1 0x20 CALLDATASIZE PUSH1 0x3 NOT ADD SLT PUSH2 0x231 JUMPI PUSH1 0x20 PUSH1 0x1 PUSH1 0x1 PUSH1 0xA0 SHL SUB DUP1 PUSH2 0xB82 PUSH2 0x1A89 JUMP JUMPDEST AND PUSH1 0x0 MSTORE PUSH1 0x6 DUP3 MSTORE PUSH1 0x40 PUSH1 0x0 KECCAK256 SLOAD AND PUSH1 0x40 MLOAD SWAP1 DUP2 MSTORE RETURN JUMPDEST CALLVALUE PUSH2 0x231 JUMPI PUSH1 0x0 CALLDATASIZE PUSH1 0x3 NOT ADD SLT PUSH2 0x231 JUMPI PUSH2 0xBB2 PUSH2 0x211F JUMP JUMPDEST PUSH1 0x0 DUP1 SLOAD PUSH1 0x1 PUSH1 0x1 PUSH1 0xA0 SHL SUB NOT DUP2 AND DUP3 SSTORE PUSH1 0x1 PUSH1 0x1 PUSH1 0xA0 SHL SUB AND PUSH32 0x8BE0079C531659141344CD1FD0A4F28419497F9722A3DAAFE3B4186F6B6457E0 DUP3 DUP1 LOG3 STOP JUMPDEST CALLVALUE PUSH2 0x231 JUMPI PUSH1 0x60 CALLDATASIZE PUSH1 0x3 NOT ADD SLT PUSH2 0x231 JUMPI PUSH2 0xC0B PUSH2 0x1A89 JUMP JUMPDEST PUSH1 0x0 SLOAD PUSH1 0x44 CALLDATALOAD SWAP2 PUSH1 0x24 CALLDATALOAD SWAP2 PUSH1 0x1 PUSH1 0x1 PUSH1 0xA0 SHL SUB SWAP2 SWAP1 DUP3 AND CALLER SUB PUSH2 0xCBD JUMPI JUMPDEST PUSH2 0xC32 SWAP1 PUSH2 0x1FEB JUMP JUMPDEST AND SWAP2 DUP3 PUSH1 0x0 MSTORE PUSH1 0x1 PUSH1 0x20 MSTORE PUSH1 0xFF PUSH1 0x9 PUSH1 0x40 PUSH1 0x0 KECCAK256 ADD SLOAD PUSH1 0xA0 SHR AND ISZERO PUSH2 0x537 JUMPI PUSH32 0x17E83CFA962D2A1753C58A1D4C41F6262BBF47DD8A24F98D7F883DC0284567C4 SWAP2 PUSH1 0x40 SWAP2 DUP5 PUSH1 0x0 MSTORE PUSH1 0x1 PUSH1 0x20 MSTORE PUSH1 0x5 DUP4 PUSH1 0x0 KECCAK256 ADD PUSH2 0xC91 DUP4 DUP3 SLOAD PUSH2 0x1DBE JUMP JUMPDEST SWAP1 SSTORE DUP5 PUSH1 0x0 MSTORE PUSH1 0x1 PUSH1 0x20 MSTORE PUSH1 0x6 DUP4 PUSH1 0x0 KECCAK256 ADD PUSH2 0xCAE DUP3 DUP3 SLOAD PUSH2 0x1DBE JUMP JUMPDEST SWAP1 SSTORE DUP3 MLOAD SWAP2 DUP3 MSTORE PUSH1 0x20 DUP3 ADD MSTORE LOG2 STOP JUMPDEST CALLER PUSH1 0x0 MSTORE PUSH1 0xA PUSH1 0x20 MSTORE PUSH1 0xFF PUSH1 0x40 PUSH1 0x0 KECCAK256 SLOAD AND PUSH2 0xC29 JUMPI PUSH1 0x40 MLOAD PUSH4 0xEA8E4EB5 PUSH1 0xE0 SHL DUP2 MSTORE PUSH1 0x4 SWAP1 REVERT JUMPDEST CALLVALUE PUSH2 0x231 JUMPI PUSH1 0x60 CALLDATASIZE PUSH1 0x3 NOT ADD SLT PUSH2 0x231 JUMPI PUSH1 0x4 CALLDATALOAD PUSH8 0xFFFFFFFFFFFFFFFF DUP2 GT PUSH2 0x231 JUMPI PUSH2 0xD16 SWAP1 CALLDATASIZE SWAP1 PUSH1 0x4 ADD PUSH2 0x1C90 JUMP JUMPDEST PUSH1 0x24 CALLDATALOAD PUSH8 0xFFFFFFFFFFFFFFFF DUP2 GT PUSH2 0x231 JUMPI PUSH2 0xD36 SWAP1 CALLDATASIZE SWAP1 PUSH1 0x4 ADD PUSH2 0x1C90 JUMP JUMPDEST PUSH1 0x44 CALLDATALOAD SWAP1 PUSH1 0x1 PUSH1 0x1 PUSH1 0xA0 SHL SUB DUP3 AND DUP3 SUB PUSH2 0x231 JUMPI CALLER PUSH1 0x0 MSTORE PUSH1 0x1 PUSH1 0x20 MSTORE PUSH1 0xFF PUSH1 0x9 PUSH1 0x40 PUSH1 0x0 KECCAK256 ADD SLOAD PUSH1 0xA0 SHR AND PUSH2 0x123A JUMPI PUSH1 0x1 PUSH1 0x1 PUSH1 0xA0 SHL SUB DUP3 AND PUSH2 0x1212 JUMPI JUMPDEST PUSH1 0x40 MLOAD SWAP1 PUSH2 0xD82 DUP3 PUSH2 0x1AF5 JUMP JUMPDEST DUP4 DUP3 MSTORE PUSH1 0x20 DUP3 ADD MSTORE TIMESTAMP PUSH1 0x40 DUP3 ADD MSTORE PUSH1 0x1 PUSH1 0x60 DUP3 ADD MSTORE PUSH1 0x0 PUSH1 0x80 DUP3 ADD MSTORE PUSH1 0x0 PUSH1 0xA0 DUP3 ADD MSTORE PUSH1 0x0 PUSH1 0xC0 DUP3 ADD MSTORE PUSH1 0x0 PUSH1 0xE0 DUP3 ADD MSTORE PUSH1 0x0 PUSH2 0x100 DUP3 ADD MSTORE CALLER PUSH2 0x120 DUP3 ADD MSTORE PUSH1 0x1 PUSH2 0x140 DUP3 ADD MSTORE CALLER PUSH1 0x0 MSTORE PUSH1 0x1 PUSH1 0x20 MSTORE PUSH1 0x40 PUSH1 0x0 KECCAK256 DUP2 MLOAD DUP1 MLOAD SWAP1 PUSH8 0xFFFFFFFFFFFFFFFF DUP3 GT PUSH2 0x46E JUMPI DUP2 SWAP1 PUSH2 0xDF8 DUP5 SLOAD PUSH2 0x1A9F JUMP JUMPDEST PUSH1 0x1F DUP2 GT PUSH2 0x11C2 JUMPI JUMPDEST POP PUSH1 0x20 SWAP1 PUSH1 0x1F DUP4 GT PUSH1 0x1 EQ PUSH2 0x1156 JUMPI PUSH1 0x0 SWAP3 PUSH2 0x114B JUMPI JUMPDEST POP POP DUP2 PUSH1 0x1 SHL SWAP2 PUSH1 0x0 NOT SWAP1 PUSH1 0x3 SHL SHR NOT AND OR DUP2 SSTORE JUMPDEST PUSH1 0x20 DUP3 ADD MLOAD DUP1 MLOAD SWAP1 PUSH8 0xFFFFFFFFFFFFFFFF DUP3 GT PUSH2 0x46E JUMPI PUSH2 0xE51 PUSH1 0x1 DUP5 ADD SLOAD PUSH2 0x1A9F JUMP JUMPDEST PUSH1 0x1F DUP2 GT PUSH2 0x1104 JUMPI JUMPDEST POP PUSH1 0x20 SWAP1 PUSH1 0x1F DUP4 GT PUSH1 0x1 EQ PUSH2 0x1091 JUMPI PUSH1 0x9 SWAP4 SWAP3 SWAP2 PUSH1 0x0 SWAP2 DUP4 PUSH2 0x1086 JUMPI JUMPDEST POP POP DUP2 PUSH1 0x1 SHL SWAP2 PUSH1 0x0 NOT SWAP1 PUSH1 0x3 SHL SHR NOT AND OR PUSH1 0x1 DUP3 ADD SSTORE JUMPDEST PUSH1 0x40 DUP4 ADD MLOAD PUSH1 0x2 DUP3 ADD SSTORE PUSH2 0xEB8 PUSH1 0x60 DUP5 ADD MLOAD ISZERO ISZERO PUSH1 0x3 DUP4 ADD SWAP1 PUSH1 0xFF DUP1 NOT DUP4 SLOAD AND SWAP2 ISZERO ISZERO AND OR SWAP1 SSTORE JUMP JUMPDEST PUSH1 0x80 DUP4 ADD MLOAD PUSH1 0x4 DUP3 ADD SSTORE PUSH1 0xA0 DUP4 ADD MLOAD PUSH1 0x5 DUP3 ADD SSTORE PUSH1 0xC0 DUP4 ADD MLOAD PUSH1 0x6 DUP3 ADD SSTORE PUSH1 0xE0 DUP4 ADD MLOAD PUSH1 0x7 DUP3 ADD SSTORE PUSH2 0x100 DUP4 ADD MLOAD PUSH1 0x8 DUP3 ADD SSTORE ADD SWAP1 PUSH1 0x1 DUP1 PUSH1 0xA0 SHL SUB PUSH2 0x120 DUP3 ADD MLOAD AND DUP3 SLOAD SWAP2 PUSH2 0x140 PUSH1 0xFF PUSH1 0xA0 SHL SWAP2 ADD MLOAD ISZERO ISZERO PUSH1 0xA0 SHL AND SWAP2 PUSH11 0xFFFFFFFFFFFFFFFFFFFFFF PUSH1 0xA8 SHL AND OR OR SWAP1 SSTORE PUSH1 0x2 SLOAD PUSH1 0x1 PUSH1 0x40 SHL DUP2 LT ISZERO PUSH2 0x46E JUMPI DUP1 PUSH1 0x1 PUSH2 0xF43 SWAP3 ADD PUSH1 0x2 SSTORE PUSH2 0x1CE7 JUMP JUMPDEST DUP2 SLOAD SWAP1 PUSH1 0x3 SHL SWAP1 CALLER DUP3 SHL SWAP2 PUSH1 0x1 DUP1 PUSH1 0xA0 SHL SUB SWAP1 SHL NOT AND OR SWAP1 SSTORE PUSH2 0xF65 CALLER PUSH2 0x214B JUMP JUMPDEST POP PUSH1 0x1 PUSH1 0x1 PUSH1 0xA0 SHL SUB DUP2 AND ISZERO PUSH2 0x103D JUMPI CALLER PUSH1 0x0 MSTORE PUSH1 0x5 PUSH1 0x20 MSTORE PUSH1 0x40 PUSH1 0x0 KECCAK256 PUSH1 0x1 PUSH1 0x1 PUSH1 0x60 SHL SUB PUSH1 0xA0 SHL SWAP1 PUSH1 0x1 DUP1 PUSH1 0xA0 SHL SUB DUP4 AND DUP3 DUP3 SLOAD AND OR SWAP1 SSTORE PUSH1 0x1 DUP1 PUSH1 0xA0 SHL SUB DUP3 AND PUSH1 0x0 MSTORE PUSH1 0x6 PUSH1 0x20 MSTORE PUSH1 0x40 PUSH1 0x0 KECCAK256 SWAP1 CALLER SWAP1 DUP3 SLOAD AND OR SWAP1 SSTORE PUSH32 0x7F1838E1923F4FCD4770C40162134223BB524AC45A29053099B7DC5CF5845312 PUSH2 0xFF4 PUSH1 0x40 MLOAD SWAP4 PUSH1 0x40 DUP6 MSTORE PUSH1 0x40 DUP6 ADD SWAP1 PUSH2 0x1BD9 JUMP JUMPDEST TIMESTAMP PUSH1 0x20 DUP6 ADD MSTORE PUSH1 0x1 PUSH1 0x1 PUSH1 0xA0 SHL SUB SWAP1 SWAP3 AND SWAP3 CALLER SWAP3 DUP2 SWAP1 SUB SWAP1 LOG3 JUMPDEST PUSH1 0x40 MLOAD PUSH1 0x1 DUP2 MSTORE PUSH32 0xB2DB07FB09FFC5844977DAAF0AAE46ED92B7B07810799A6AF9E9D0C80EBA59DE PUSH1 0x20 CALLER SWAP3 LOG2 STOP JUMPDEST POP PUSH32 0x3D5483A93DF0921E07BA2B0050C4D0F5793795035F1DB5AF3FACE517DF5E333B PUSH2 0x1074 PUSH1 0x40 MLOAD SWAP3 PUSH1 0x40 DUP5 MSTORE PUSH1 0x40 DUP5 ADD SWAP1 PUSH2 0x1BD9 JUMP JUMPDEST SWAP2 TIMESTAMP PUSH1 0x20 DUP3 ADD MSTORE DUP1 CALLER SWAP4 SUB SWAP1 LOG2 PUSH2 0x100E JUMP JUMPDEST ADD MLOAD SWAP1 POP DUP8 DUP1 PUSH2 0xE77 JUMP JUMPDEST SWAP1 PUSH1 0x1 DUP5 ADD PUSH1 0x0 MSTORE PUSH1 0x20 PUSH1 0x0 KECCAK256 SWAP2 PUSH1 0x0 JUMPDEST PUSH1 0x1F NOT DUP6 AND DUP2 LT PUSH2 0x10EC JUMPI POP SWAP2 DUP4 SWAP2 PUSH1 0x1 SWAP4 PUSH1 0x9 SWAP7 SWAP6 PUSH1 0x1F NOT DUP2 AND LT PUSH2 0x10D3 JUMPI JUMPDEST POP POP POP DUP2 SHL ADD PUSH1 0x1 DUP3 ADD SSTORE PUSH2 0xE8F JUMP JUMPDEST ADD MLOAD PUSH1 0x0 NOT PUSH1 0xF8 DUP5 PUSH1 0x3 SHL AND SHR NOT AND SWAP1 SSTORE DUP8 DUP1 DUP1 PUSH2 0x10C3 JUMP JUMPDEST SWAP2 SWAP3 PUSH1 0x20 PUSH1 0x1 DUP2 SWAP3 DUP7 DUP6 ADD MLOAD DUP2 SSTORE ADD SWAP5 ADD SWAP3 ADD PUSH2 0x10A2 JUMP JUMPDEST PUSH1 0x1 DUP5 ADD PUSH1 0x0 MSTORE PUSH1 0x20 PUSH1 0x0 KECCAK256 PUSH1 0x1F DUP5 ADD PUSH1 0x5 SHR DUP2 ADD PUSH1 0x20 DUP6 LT PUSH2 0x1144 JUMPI JUMPDEST PUSH1 0x1F DUP4 ADD PUSH1 0x5 SHR DUP3 ADD DUP2 LT PUSH2 0x1138 JUMPI POP POP PUSH2 0xE5A JUMP JUMPDEST PUSH1 0x0 DUP2 SSTORE PUSH1 0x1 ADD PUSH2 0x1122 JUMP JUMPDEST POP DUP1 PUSH2 0x1122 JUMP JUMPDEST ADD MLOAD SWAP1 POP DUP7 DUP1 PUSH2 0xE18 JUMP JUMPDEST SWAP3 POP DUP4 PUSH1 0x0 MSTORE PUSH1 0x20 PUSH1 0x0 KECCAK256 SWAP1 PUSH1 0x0 SWAP4 JUMPDEST PUSH1 0x1F NOT DUP5 AND DUP6 LT PUSH2 0x11A7 JUMPI PUSH1 0x1 SWAP5 POP DUP4 PUSH1 0x1F NOT DUP2 AND LT PUSH2 0x118E JUMPI JUMPDEST POP POP POP DUP2 SHL ADD DUP2 SSTORE PUSH2 0xE2D JUMP JUMPDEST ADD MLOAD PUSH1 0x0 NOT PUSH1 0xF8 DUP5 PUSH1 0x3 SHL AND SHR NOT AND SWAP1 SSTORE DUP7 DUP1 DUP1 PUSH2 0x1181 JUMP JUMPDEST DUP2 DUP2 ADD MLOAD DUP4 SSTORE PUSH1 0x20 SWAP5 DUP6 ADD SWAP5 PUSH1 0x1 SWAP1 SWAP4 ADD SWAP3 SWAP1 SWAP2 ADD SWAP1 PUSH2 0x1166 JUMP JUMPDEST SWAP1 SWAP2 POP DUP4 PUSH1 0x0 MSTORE PUSH1 0x20 PUSH1 0x0 KECCAK256 PUSH1 0x1F DUP5 ADD PUSH1 0x5 SHR DUP2 ADD PUSH1 0x20 DUP6 LT PUSH2 0x120B JUMPI JUMPDEST SWAP1 DUP5 SWAP4 SWAP3 SWAP2 JUMPDEST PUSH1 0x1F DUP4 ADD PUSH1 0x5 SHR DUP3 ADD DUP2 LT PUSH2 0x11FC JUMPI POP POP PUSH2 0xE01 JUMP JUMPDEST PUSH1 0x0 DUP2 SSTORE DUP6 SWAP5 POP PUSH1 0x1 ADD PUSH2 0x11E6 JUMP JUMPDEST POP DUP1 PUSH2 0x11E0 JUMP JUMPDEST PUSH1 0x1 PUSH1 0x1 PUSH1 0xA0 SHL SUB DUP3 AND PUSH1 0x0 SWAP1 DUP2 MSTORE PUSH1 0x1 PUSH1 0x20 MSTORE PUSH1 0x40 SWAP1 KECCAK256 PUSH1 0x9 ADD SLOAD PUSH1 0xA0 SHR PUSH1 0xFF AND ISZERO PUSH2 0xD75 JUMPI JUMPDEST PUSH1 0x40 MLOAD PUSH4 0xEA075BF PUSH1 0xE2 SHL DUP2 MSTORE PUSH1 0x4 SWAP1 REVERT JUMPDEST CALLVALUE PUSH2 0x231 JUMPI PUSH1 0x20 CALLDATASIZE PUSH1 0x3 NOT ADD SLT PUSH2 0x231 JUMPI PUSH2 0x1265 PUSH2 0x1A89 JUMP JUMPDEST CALLER PUSH1 0x0 MSTORE PUSH1 0x1 PUSH1 0x20 MSTORE PUSH1 0xFF PUSH1 0x9 PUSH1 0x40 PUSH1 0x0 KECCAK256 ADD SLOAD PUSH1 0xA0 SHR AND ISZERO PUSH2 0x537 JUMPI PUSH1 0x1 PUSH1 0x1 PUSH1 0xA0 SHL SUB SWAP1 DUP2 AND SWAP1 DUP2 ISZERO PUSH2 0x12EE JUMPI PUSH1 0x20 PUSH32 0xBA2BE5E898FED1646BC0814DEE1CC9A2AEE98F51FCED7D5FC4699C47D9907753 SWAP2 PUSH2 0x12C1 CALLER PUSH2 0x1FEB JUMP JUMPDEST AND SWAP3 DUP4 PUSH1 0x0 MSTORE PUSH1 0x1 DUP3 MSTORE PUSH1 0x9 PUSH1 0x40 PUSH1 0x0 KECCAK256 ADD DUP2 PUSH1 0x1 PUSH1 0x1 PUSH1 0x60 SHL SUB PUSH1 0xA0 SHL DUP3 SLOAD AND OR SWAP1 SSTORE PUSH1 0x40 MLOAD SWAP1 DUP2 MSTORE LOG2 STOP JUMPDEST PUSH1 0x40 MLOAD PUSH4 0xE6C4247B PUSH1 0xE0 SHL DUP2 MSTORE PUSH1 0x4 SWAP1 REVERT JUMPDEST CALLVALUE PUSH2 0x231 JUMPI PUSH1 0x20 CALLDATASIZE PUSH1 0x3 NOT ADD SLT PUSH2 0x231 JUMPI PUSH1 0x20 PUSH2 0x131E PUSH2 0x707 PUSH2 0x1A89 JUMP JUMPDEST PUSH1 0x40 MLOAD PUSH1 0x1 PUSH1 0x1 PUSH1 0xA0 SHL SUB SWAP1 SWAP2 AND DUP2 MSTORE RETURN JUMPDEST CALLVALUE PUSH2 0x231 JUMPI PUSH1 0x0 CALLDATASIZE PUSH1 0x3 NOT ADD SLT PUSH2 0x231 JUMPI PUSH1 0x0 DUP1 PUSH1 0x7 SLOAD SWAP1 JUMPDEST DUP2 DUP2 LT PUSH2 0x142F JUMPI POP PUSH2 0x135A DUP3 PUSH2 0x1F72 JUMP JUMPDEST SWAP2 PUSH2 0x1368 PUSH1 0x40 MLOAD SWAP4 DUP5 PUSH2 0x1B12 JUMP JUMPDEST DUP1 DUP4 MSTORE PUSH2 0x1377 PUSH1 0x1F NOT SWAP2 PUSH2 0x1F72 JUMP JUMPDEST ADD PUSH1 0x0 JUMPDEST DUP2 DUP2 LT PUSH2 0x13F5 JUMPI POP POP PUSH1 0x0 DUP1 JUMPDEST DUP3 DUP2 LT PUSH2 0x13A1 JUMPI PUSH1 0x40 MLOAD DUP1 PUSH2 0x139D DUP7 DUP3 PUSH2 0x1C19 JUMP JUMPDEST SUB SWAP1 RETURN JUMPDEST PUSH1 0xFF PUSH1 0x4 PUSH2 0x13AE DUP4 PUSH2 0x1D83 JUMP JUMPDEST POP ADD SLOAD AND PUSH2 0x13BF JUMPI JUMPDEST PUSH1 0x1 ADD PUSH2 0x1388 JUMP JUMPDEST SWAP1 PUSH2 0x13ED PUSH1 0x1 SWAP2 PUSH2 0x13D2 PUSH2 0x575 DUP6 PUSH2 0x1D83 JUMP JUMPDEST PUSH2 0x13DC DUP3 DUP9 PUSH2 0x1FD7 JUMP JUMPDEST MSTORE PUSH2 0x13E7 DUP2 DUP8 PUSH2 0x1FD7 JUMP JUMPDEST POP PUSH2 0x1DE1 JUMP JUMPDEST SWAP2 SWAP1 POP PUSH2 0x13B7 JUMP JUMPDEST PUSH1 0x20 SWAP1 PUSH1 0x40 MLOAD PUSH2 0x1404 DUP2 PUSH2 0x1AD9 JUMP JUMPDEST PUSH1 0x0 DUP2 MSTORE DUP3 PUSH1 0x0 DUP2 DUP4 ADD MSTORE PUSH1 0x0 PUSH1 0x40 DUP4 ADD MSTORE PUSH1 0x0 PUSH1 0x60 DUP4 ADD MSTORE PUSH1 0x0 PUSH1 0x80 DUP4 ADD MSTORE DUP3 DUP8 ADD ADD MSTORE ADD PUSH2 0x137B JUMP JUMPDEST PUSH1 0xFF PUSH1 0x4 PUSH2 0x143C DUP4 PUSH2 0x1D83 JUMP JUMPDEST POP ADD SLOAD AND PUSH2 0x144D JUMPI JUMPDEST PUSH1 0x1 ADD PUSH2 0x1349 JUMP JUMPDEST SWAP2 PUSH2 0x1459 PUSH1 0x1 SWAP2 PUSH2 0x1DE1 JUMP JUMPDEST SWAP3 SWAP1 POP PUSH2 0x1445 JUMP JUMPDEST CALLVALUE PUSH2 0x231 JUMPI PUSH1 0x0 CALLDATASIZE PUSH1 0x3 NOT ADD SLT PUSH2 0x231 JUMPI PUSH1 0x7 SLOAD PUSH2 0x147E DUP2 PUSH2 0x1F72 JUMP JUMPDEST PUSH2 0x148B PUSH1 0x40 MLOAD SWAP2 DUP3 PUSH2 0x1B12 JUMP JUMPDEST DUP2 DUP2 MSTORE PUSH1 0x20 SWAP2 PUSH1 0x20 DUP3 ADD PUSH1 0x7 PUSH1 0x0 MSTORE PUSH32 0xA66CC928B5EDB82AF9BD49922954155AB7B0942694BEA4CE44661D9A8736C688 SWAP4 PUSH1 0x0 SWAP2 JUMPDEST DUP4 DUP4 LT PUSH2 0x14D5 JUMPI PUSH1 0x40 MLOAD DUP1 PUSH2 0x139D DUP8 DUP3 PUSH2 0x1C19 JUMP JUMPDEST PUSH1 0x5 DUP3 PUSH1 0x1 SWAP3 PUSH2 0x14E4 DUP10 PUSH2 0x1F8A JUMP JUMPDEST DUP2 MSTORE ADD SWAP7 ADD SWAP3 ADD SWAP2 SWAP5 PUSH2 0x14C0 JUMP JUMPDEST CALLVALUE PUSH2 0x231 JUMPI PUSH1 0x0 CALLDATASIZE PUSH1 0x3 NOT ADD SLT PUSH2 0x231 JUMPI PUSH1 0x20 PUSH1 0x7 SLOAD PUSH1 0x40 MLOAD SWAP1 DUP2 MSTORE RETURN JUMPDEST CALLVALUE PUSH2 0x231 JUMPI PUSH1 0x20 CALLDATASIZE PUSH1 0x3 NOT ADD SLT PUSH2 0x231 JUMPI PUSH1 0x20 PUSH2 0x1533 PUSH2 0x152E PUSH2 0x1A89 JUMP JUMPDEST PUSH2 0x1E7B JUMP JUMPDEST PUSH1 0x40 MLOAD SWAP1 ISZERO ISZERO DUP2 MSTORE RETURN JUMPDEST CALLVALUE PUSH2 0x231 JUMPI PUSH1 0x20 CALLDATASIZE PUSH1 0x3 NOT ADD SLT PUSH2 0x231 JUMPI PUSH1 0x20 PUSH2 0x1533 PUSH2 0x155B PUSH2 0x1A89 JUMP JUMPDEST PUSH2 0x1E10 JUMP JUMPDEST CALLVALUE PUSH2 0x231 JUMPI PUSH1 0x20 CALLDATASIZE PUSH1 0x3 NOT ADD SLT PUSH2 0x231 JUMPI PUSH1 0x1 PUSH1 0x1 PUSH1 0xA0 SHL SUB DUP1 PUSH2 0x1585 PUSH2 0x707 PUSH2 0x1A89 JUMP JUMPDEST AND PUSH1 0x0 MSTORE PUSH1 0x1 PUSH1 0x20 MSTORE PUSH1 0x40 PUSH1 0x0 KECCAK256 PUSH1 0x40 MLOAD SWAP2 PUSH2 0x15A0 DUP4 PUSH2 0x1AF5 JUMP JUMPDEST PUSH2 0x15A9 DUP3 PUSH2 0x1B34 JUMP JUMPDEST DUP4 MSTORE PUSH2 0x15B7 PUSH1 0x1 DUP4 ADD PUSH2 0x1B34 JUMP JUMPDEST SWAP3 PUSH1 0x20 DUP2 ADD SWAP4 DUP5 MSTORE PUSH1 0x2 DUP4 ADD SLOAD PUSH1 0x40 DUP3 ADD SWAP1 DUP2 MSTORE PUSH1 0xFF PUSH1 0x3 DUP6 ADD SLOAD AND SWAP3 PUSH1 0x60 DUP4 ADD SWAP4 ISZERO ISZERO DUP5 MSTORE PUSH1 0x4 DUP6 ADD SLOAD PUSH1 0x80 DUP5 ADD SWAP1 DUP2 MSTORE PUSH1 0x5 DUP7 ADD SLOAD SWAP1 PUSH1 0xA0 DUP6 ADD SWAP2 DUP3 MSTORE PUSH1 0x6 DUP8 ADD SLOAD SWAP3 PUSH1 0xC0 DUP7 ADD SWAP4 DUP5 MSTORE PUSH1 0x7 DUP9 ADD SLOAD DUP1 PUSH1 0xE0 DUP9 ADD MSTORE PUSH1 0xFF PUSH1 0x8 DUP11 ADD SLOAD SWAP3 PUSH1 0x9 PUSH2 0x100 SWAP12 DUP6 DUP14 DUP13 ADD MSTORE ADD SLOAD SWAP1 DUP2 AND PUSH2 0x120 DUP11 ADD MSTORE PUSH1 0xA0 SHR AND ISZERO ISZERO PUSH2 0x140 DUP9 ADD MSTORE DUP2 ISZERO ISZERO PUSH1 0x0 EQ PUSH2 0x16A6 JUMPI PUSH2 0x1683 SWAP2 PUSH2 0x164F SWAP2 PUSH2 0x1DF0 JUMP JUMPDEST SWAP6 JUMPDEST MLOAD SWAP9 MLOAD SWAP5 MLOAD SWAP7 MLOAD ISZERO ISZERO SWAP2 MLOAD SWAP3 MLOAD SWAP4 MLOAD SWAP5 PUSH2 0x1675 PUSH1 0x40 MLOAD SWAP11 DUP11 DUP13 SWAP12 DUP13 MSTORE DUP12 ADD SWAP1 PUSH2 0x1BD9 JUMP JUMPDEST SWAP1 DUP10 DUP3 SUB PUSH1 0x20 DUP12 ADD MSTORE PUSH2 0x1BD9 JUMP JUMPDEST SWAP6 PUSH1 0x40 DUP9 ADD MSTORE PUSH1 0x60 DUP8 ADD MSTORE PUSH1 0x80 DUP7 ADD MSTORE PUSH1 0xA0 DUP6 ADD MSTORE PUSH1 0xC0 DUP5 ADD MSTORE PUSH1 0xE0 DUP4 ADD MSTORE SUB SWAP1 RETURN JUMPDEST POP POP PUSH2 0x1683 PUSH1 0x0 SWAP6 PUSH2 0x1651 JUMP JUMPDEST CALLVALUE PUSH2 0x231 JUMPI PUSH1 0x60 CALLDATASIZE PUSH1 0x3 NOT ADD SLT PUSH2 0x231 JUMPI PUSH2 0x16CC PUSH2 0x1A89 JUMP JUMPDEST PUSH1 0x24 CALLDATALOAD SWAP1 PUSH1 0x1 PUSH1 0x1 PUSH1 0xA0 SHL SUB SWAP1 DUP2 DUP4 AND DUP4 SUB PUSH2 0x231 JUMPI DUP2 SWAP1 DUP2 PUSH1 0x0 SLOAD AND CALLER SUB PUSH2 0x188F JUMPI JUMPDEST AND SWAP2 DUP3 ISZERO PUSH2 0x12EE JUMPI PUSH2 0x1702 DUP3 SWAP2 PUSH2 0x1FEB JUMP JUMPDEST AND DUP1 PUSH1 0x0 MSTORE PUSH1 0x1 SWAP3 PUSH1 0x20 SWAP4 DUP1 DUP6 MSTORE PUSH1 0xFF PUSH1 0x9 PUSH1 0x40 PUSH1 0x0 KECCAK256 ADD SLOAD PUSH1 0xA0 SHR AND ISZERO PUSH2 0x537 JUMPI DUP3 PUSH1 0x0 MSTORE DUP1 DUP6 MSTORE PUSH1 0x4 PUSH1 0x40 PUSH1 0x0 KECCAK256 ADD PUSH2 0x173D DUP2 SLOAD PUSH2 0x1DE1 JUMP JUMPDEST SWAP1 SSTORE PUSH1 0x7 SLOAD SWAP4 PUSH1 0x40 MLOAD SWAP1 PUSH2 0x1750 DUP3 PUSH2 0x1AD9 JUMP JUMPDEST DUP4 DUP3 MSTORE DUP7 DUP3 ADD DUP6 DUP2 MSTORE PUSH1 0x40 DUP4 ADD SWAP3 DUP8 DUP5 MSTORE PUSH1 0x60 DUP2 ADD TIMESTAMP DUP2 MSTORE PUSH1 0x80 DUP3 ADD SWAP1 DUP7 DUP3 MSTORE PUSH1 0x1 PUSH1 0x40 SHL SWAP6 DUP7 DUP12 LT ISZERO PUSH2 0x46E JUMPI DUP8 DUP12 ADD PUSH1 0x7 SSTORE PUSH2 0x178D DUP12 PUSH2 0x1D83 JUMP JUMPDEST SWAP6 SWAP1 SWAP6 PUSH2 0x1879 JUMPI DUP7 PUSH2 0x17E1 SWAP8 PUSH1 0x4 SWAP7 MLOAD AND SWAP1 PUSH1 0x1 PUSH1 0x1 PUSH1 0x60 SHL SUB PUSH1 0xA0 SHL SWAP2 DUP3 DUP10 SLOAD AND OR DUP9 SSTORE DUP11 DUP9 ADD SWAP3 MLOAD AND SWAP1 DUP3 SLOAD AND OR SWAP1 SSTORE MLOAD PUSH1 0x2 DUP6 ADD SSTORE MLOAD PUSH1 0x3 DUP5 ADD SSTORE MLOAD ISZERO ISZERO SWAP2 ADD SWAP1 PUSH1 0xFF DUP1 NOT DUP4 SLOAD AND SWAP2 ISZERO ISZERO AND OR SWAP1 SSTORE JUMP JUMPDEST DUP4 PUSH1 0x0 MSTORE PUSH1 0x8 DUP7 MSTORE PUSH1 0x40 PUSH1 0x0 KECCAK256 SWAP1 DUP2 SLOAD SWAP1 DUP2 LT ISZERO PUSH2 0x46E JUMPI PUSH2 0x180C DUP2 DUP8 SWAP4 DUP6 PUSH2 0x1823 SWAP5 ADD DUP2 SSTORE PUSH2 0x1D6B JUMP JUMPDEST DUP2 SWAP4 SWAP2 SLOAD SWAP1 PUSH1 0x3 SHL SWAP2 DUP3 SHL SWAP2 PUSH1 0x0 NOT SWAP1 SHL NOT AND OR SWAP1 JUMP JUMPDEST SWAP1 SSTORE DUP2 PUSH1 0x0 MSTORE PUSH1 0x9 DUP6 MSTORE DUP4 PUSH1 0x40 PUSH1 0x0 KECCAK256 SSTORE PUSH1 0xA DUP6 MSTORE PUSH1 0x40 PUSH1 0x0 KECCAK256 SWAP1 PUSH1 0xFF NOT DUP3 SLOAD AND OR SWAP1 SSTORE DUP3 PUSH32 0xFF58B66F24FF4EB8CDCBB449F475BB0A38562BCC93747B2789258890A3EC587F DUP6 PUSH1 0x40 MLOAD TIMESTAMP DUP2 MSTORE LOG4 PUSH1 0x40 MLOAD SWAP1 DUP2 MSTORE RETURN JUMPDEST PUSH4 0x4E487B71 PUSH1 0xE0 SHL PUSH1 0x0 MSTORE PUSH1 0x0 PUSH1 0x4 MSTORE PUSH1 0x24 PUSH1 0x0 REVERT JUMPDEST SWAP1 DUP2 AND CALLER SUB PUSH2 0xAD3 JUMPI DUP2 PUSH2 0x18A2 DUP5 PUSH2 0x1FEB JUMP JUMPDEST AND PUSH1 0x0 MSTORE PUSH1 0x1 PUSH1 0x20 MSTORE PUSH1 0xFF PUSH1 0x9 PUSH1 0x40 PUSH1 0x0 KECCAK256 ADD SLOAD PUSH1 0xA0 SHR AND ISZERO PUSH2 0x537 JUMPI DUP2 SWAP1 PUSH2 0x16F0 JUMP JUMPDEST CALLVALUE PUSH2 0x231 JUMPI PUSH1 0x40 CALLDATASIZE PUSH1 0x3 NOT ADD SLT PUSH2 0x231 JUMPI PUSH2 0x18DF PUSH2 0x1A89 JUMP JUMPDEST PUSH1 0x24 CALLDATALOAD SWAP1 PUSH1 0x1 PUSH1 0x1 PUSH1 0xA0 SHL SUB SWAP1 PUSH2 0x18F5 SWAP1 PUSH2 0x1FEB JUMP JUMPDEST AND SWAP1 DUP2 PUSH1 0x0 MSTORE PUSH1 0x1 PUSH1 0x20 MSTORE PUSH1 0xFF PUSH1 0x9 PUSH1 0x40 PUSH1 0x0 KECCAK256 ADD SLOAD PUSH1 0xA0 SHR AND ISZERO PUSH2 0x537 JUMPI PUSH1 0x1 DUP2 LT DUP1 ISZERO PUSH2 0x19A0 JUMPI JUMPDEST PUSH2 0x198E JUMPI PUSH1 0x40 PUSH32 0xBB5DAE0881D92DBBA846442C97B0E16B14BB50C193562DD865EF8FB6693363A SWAP2 DUP4 PUSH1 0x0 MSTORE PUSH1 0x1 PUSH1 0x20 MSTORE PUSH1 0x7 DUP3 PUSH1 0x0 KECCAK256 ADD PUSH2 0x1962 DUP3 DUP3 SLOAD PUSH2 0x1DBE JUMP JUMPDEST SWAP1 SSTORE DUP4 PUSH1 0x0 MSTORE PUSH1 0x1 PUSH1 0x20 MSTORE PUSH1 0x8 DUP3 PUSH1 0x0 KECCAK256 ADD PUSH2 0x197E DUP2 SLOAD PUSH2 0x1DE1 JUMP JUMPDEST SWAP1 SSTORE DUP2 MLOAD SWAP1 DUP2 MSTORE CALLER PUSH1 0x20 DUP3 ADD MSTORE LOG2 STOP JUMPDEST PUSH1 0x40 MLOAD PUSH4 0xD29DF2DD PUSH1 0xE0 SHL DUP2 MSTORE PUSH1 0x4 SWAP1 REVERT JUMPDEST POP PUSH1 0x5 DUP2 GT PUSH2 0x191F JUMP JUMPDEST CALLVALUE PUSH2 0x231 JUMPI PUSH1 0x20 CALLDATASIZE PUSH1 0x3 NOT ADD SLT PUSH2 0x231 JUMPI PUSH2 0x1A3C PUSH1 0x1 PUSH1 0x1 PUSH1 0xA0 SHL SUB DUP1 PUSH2 0x19CF PUSH2 0x1A89 JUMP JUMPDEST AND PUSH1 0x0 MSTORE PUSH1 0x1 PUSH1 0x20 MSTORE PUSH1 0x40 PUSH1 0x0 KECCAK256 PUSH1 0xFF PUSH2 0x19E8 DUP3 PUSH2 0x1B34 JUMP JUMPDEST SWAP3 PUSH2 0x19F5 PUSH1 0x1 DUP5 ADD PUSH2 0x1B34 JUMP JUMPDEST SWAP1 PUSH1 0x2 DUP5 ADD SLOAD SWAP4 DUP4 PUSH1 0x3 DUP3 ADD SLOAD AND PUSH1 0x4 DUP3 ADD SLOAD PUSH1 0x5 DUP4 ADD SLOAD PUSH1 0x6 DUP5 ADD SLOAD SWAP2 PUSH1 0x7 DUP6 ADD SLOAD SWAP4 PUSH2 0x1A4A PUSH1 0x9 PUSH1 0x8 DUP9 ADD SLOAD SWAP8 ADD SLOAD SWAP9 PUSH1 0x40 MLOAD SWAP14 DUP15 SWAP14 DUP15 PUSH2 0x160 SWAP1 DUP2 DUP2 MSTORE ADD SWAP1 PUSH2 0x1BD9 JUMP JUMPDEST DUP14 DUP2 SUB PUSH1 0x20 DUP16 ADD MSTORE SWAP1 PUSH2 0x1BD9 JUMP JUMPDEST SWAP10 PUSH1 0x40 DUP13 ADD MSTORE ISZERO ISZERO PUSH1 0x60 DUP12 ADD MSTORE PUSH1 0x80 DUP11 ADD MSTORE PUSH1 0xA0 DUP10 ADD MSTORE PUSH1 0xC0 DUP9 ADD MSTORE PUSH1 0xE0 DUP8 ADD MSTORE PUSH2 0x100 DUP7 ADD MSTORE DUP2 AND PUSH2 0x120 DUP6 ADD MSTORE PUSH1 0xA0 SHR AND ISZERO ISZERO PUSH2 0x140 DUP4 ADD MSTORE SUB SWAP1 RETURN JUMPDEST PUSH1 0x4 CALLDATALOAD SWAP1 PUSH1 0x1 PUSH1 0x1 PUSH1 0xA0 SHL SUB DUP3 AND DUP3 SUB PUSH2 0x231 JUMPI JUMP JUMPDEST SWAP1 PUSH1 0x1 DUP3 DUP2 SHR SWAP3 AND DUP1 ISZERO PUSH2 0x1ACF JUMPI JUMPDEST PUSH1 0x20 DUP4 LT EQ PUSH2 0x1AB9 JUMPI JUMP JUMPDEST PUSH4 0x4E487B71 PUSH1 0xE0 SHL PUSH1 0x0 MSTORE PUSH1 0x22 PUSH1 0x4 MSTORE PUSH1 0x24 PUSH1 0x0 REVERT JUMPDEST SWAP2 PUSH1 0x7F AND SWAP2 PUSH2 0x1AAE JUMP JUMPDEST PUSH1 0xA0 DUP2 ADD SWAP1 DUP2 LT PUSH8 0xFFFFFFFFFFFFFFFF DUP3 GT OR PUSH2 0x46E JUMPI PUSH1 0x40 MSTORE JUMP JUMPDEST PUSH2 0x160 DUP2 ADD SWAP1 DUP2 LT PUSH8 0xFFFFFFFFFFFFFFFF DUP3 GT OR PUSH2 0x46E JUMPI PUSH1 0x40 MSTORE JUMP JUMPDEST SWAP1 PUSH1 0x1F DUP1 NOT SWAP2 ADD AND DUP2 ADD SWAP1 DUP2 LT PUSH8 0xFFFFFFFFFFFFFFFF DUP3 GT OR PUSH2 0x46E JUMPI PUSH1 0x40 MSTORE JUMP JUMPDEST SWAP1 PUSH1 0x40 MLOAD SWAP2 DUP3 PUSH1 0x0 DUP3 SLOAD PUSH2 0x1B47 DUP2 PUSH2 0x1A9F JUMP JUMPDEST SWAP1 DUP2 DUP5 MSTORE PUSH1 0x20 SWAP5 PUSH1 0x1 SWAP2 PUSH1 0x1 DUP2 AND SWAP1 DUP2 PUSH1 0x0 EQ PUSH2 0x1BB7 JUMPI POP PUSH1 0x1 EQ PUSH2 0x1B78 JUMPI JUMPDEST POP POP POP PUSH2 0x1B76 SWAP3 POP SUB DUP4 PUSH2 0x1B12 JUMP JUMPDEST JUMP JUMPDEST PUSH1 0x0 SWAP1 DUP2 MSTORE DUP6 DUP2 KECCAK256 SWAP6 SWAP4 POP SWAP2 SWAP1 JUMPDEST DUP2 DUP4 LT PUSH2 0x1B9F JUMPI POP POP PUSH2 0x1B76 SWAP4 POP DUP3 ADD ADD CODESIZE DUP1 DUP1 PUSH2 0x1B67 JUMP JUMPDEST DUP6 SLOAD DUP9 DUP5 ADD DUP6 ADD MSTORE SWAP5 DUP6 ADD SWAP5 DUP8 SWAP5 POP SWAP2 DUP4 ADD SWAP2 PUSH2 0x1B86 JUMP JUMPDEST SWAP3 POP POP POP PUSH2 0x1B76 SWAP5 SWAP3 POP PUSH1 0xFF NOT AND DUP3 DUP5 ADD MSTORE ISZERO ISZERO PUSH1 0x5 SHL DUP3 ADD ADD CODESIZE DUP1 DUP1 PUSH2 0x1B67 JUMP JUMPDEST SWAP2 SWAP1 DUP3 MLOAD SWAP3 DUP4 DUP3 MSTORE PUSH1 0x0 JUMPDEST DUP5 DUP2 LT PUSH2 0x1C05 JUMPI POP POP DUP3 PUSH1 0x0 PUSH1 0x20 DUP1 SWAP5 SWAP6 DUP5 ADD ADD MSTORE PUSH1 0x1F DUP1 NOT SWAP2 ADD AND ADD ADD SWAP1 JUMP JUMPDEST PUSH1 0x20 DUP2 DUP4 ADD DUP2 ADD MLOAD DUP5 DUP4 ADD DUP3 ADD MSTORE ADD PUSH2 0x1BE4 JUMP JUMPDEST PUSH1 0x20 DUP1 DUP3 ADD SWAP1 DUP1 DUP4 MSTORE DUP4 MLOAD DUP1 SWAP3 MSTORE DUP1 PUSH1 0x40 DUP1 SWAP5 ADD SWAP5 ADD SWAP3 PUSH1 0x0 SWAP1 JUMPDEST DUP4 DUP3 LT PUSH2 0x1C43 JUMPI POP POP POP POP POP SWAP1 JUMP JUMPDEST DUP5 MLOAD DUP1 MLOAD PUSH1 0x1 PUSH1 0x1 PUSH1 0xA0 SHL SUB SWAP1 DUP2 AND DUP9 MSTORE DUP2 DUP6 ADD MLOAD AND DUP8 DUP6 ADD MSTORE DUP1 DUP3 ADD MLOAD DUP8 DUP4 ADD MSTORE PUSH1 0x60 DUP1 DUP3 ADD MLOAD SWAP1 DUP9 ADD MSTORE PUSH1 0x80 SWAP1 DUP2 ADD MLOAD ISZERO ISZERO SWAP1 DUP8 ADD MSTORE PUSH1 0xA0 SWAP1 SWAP6 ADD SWAP5 SWAP4 DUP3 ADD SWAP4 PUSH1 0x1 SWAP1 SWAP2 ADD SWAP1 PUSH2 0x1C34 JUMP JUMPDEST DUP2 PUSH1 0x1F DUP3 ADD SLT ISZERO PUSH2 0x231 JUMPI DUP1 CALLDATALOAD SWAP1 PUSH8 0xFFFFFFFFFFFFFFFF DUP3 GT PUSH2 0x46E JUMPI PUSH1 0x40 MLOAD SWAP3 PUSH2 0x1CC5 PUSH1 0x1F DUP5 ADD PUSH1 0x1F NOT AND PUSH1 0x20 ADD DUP6 PUSH2 0x1B12 JUMP JUMPDEST DUP3 DUP5 MSTORE PUSH1 0x20 DUP4 DUP4 ADD ADD GT PUSH2 0x231 JUMPI DUP2 PUSH1 0x0 SWAP3 PUSH1 0x20 DUP1 SWAP4 ADD DUP4 DUP7 ADD CALLDATACOPY DUP4 ADD ADD MSTORE SWAP1 JUMP JUMPDEST PUSH1 0x2 SLOAD DUP2 LT ISZERO PUSH2 0x1D1E JUMPI PUSH1 0x2 PUSH1 0x0 MSTORE PUSH32 0x405787FA12A823E0F2B7631CC41B3BA8828B3321CA811111FA75CD3AA3BB5ACE ADD SWAP1 PUSH1 0x0 SWAP1 JUMP JUMPDEST PUSH4 0x4E487B71 PUSH1 0xE0 SHL PUSH1 0x0 MSTORE PUSH1 0x32 PUSH1 0x4 MSTORE PUSH1 0x24 PUSH1 0x0 REVERT JUMPDEST PUSH1 0x3 SLOAD DUP2 LT ISZERO PUSH2 0x1D1E JUMPI PUSH1 0x3 PUSH1 0x0 MSTORE PUSH32 0xC2575A0E9E593C00F959F8C92F12DB2869C3395A3B0502D05E2516446F71F85B ADD SWAP1 PUSH1 0x0 SWAP1 JUMP JUMPDEST DUP1 SLOAD DUP3 LT ISZERO PUSH2 0x1D1E JUMPI PUSH1 0x0 MSTORE PUSH1 0x20 PUSH1 0x0 KECCAK256 ADD SWAP1 PUSH1 0x0 SWAP1 JUMP JUMPDEST PUSH1 0x7 SLOAD DUP2 LT ISZERO PUSH2 0x1D1E JUMPI PUSH1 0x5 SWAP1 PUSH1 0x7 PUSH1 0x0 MSTORE MUL PUSH32 0xA66CC928B5EDB82AF9BD49922954155AB7B0942694BEA4CE44661D9A8736C688 ADD SWAP1 PUSH1 0x0 SWAP1 JUMP JUMPDEST SWAP2 SWAP1 DUP3 ADD DUP1 SWAP3 GT PUSH2 0x1DCB JUMPI JUMP JUMPDEST PUSH4 0x4E487B71 PUSH1 0xE0 SHL PUSH1 0x0 MSTORE PUSH1 0x11 PUSH1 0x4 MSTORE PUSH1 0x24 PUSH1 0x0 REVERT JUMPDEST PUSH1 0x0 NOT DUP2 EQ PUSH2 0x1DCB JUMPI PUSH1 0x1 ADD SWAP1 JUMP JUMPDEST DUP2 ISZERO PUSH2 0x1DFA JUMPI DIV SWAP1 JUMP JUMPDEST PUSH4 0x4E487B71 PUSH1 0xE0 SHL PUSH1 0x0 MSTORE PUSH1 0x12 PUSH1 0x4 MSTORE PUSH1 0x24 PUSH1 0x0 REVERT JUMPDEST PUSH1 0x1 DUP1 PUSH1 0xA0 SHL SUB DUP1 PUSH1 0x0 SWAP3 AND DUP3 MSTORE PUSH1 0x1 PUSH1 0x20 MSTORE PUSH1 0xFF PUSH1 0x9 PUSH1 0x40 DUP5 KECCAK256 ADD SLOAD PUSH1 0xA0 SHR AND PUSH2 0x1E74 JUMPI PUSH1 0x6 PUSH1 0x20 MSTORE PUSH1 0x40 DUP3 KECCAK256 SLOAD AND DUP1 ISZERO ISZERO SWAP1 DUP2 PUSH2 0x1E58 JUMPI JUMPDEST POP PUSH2 0x1E52 JUMPI SWAP1 JUMP JUMPDEST POP PUSH1 0x1 SWAP1 JUMP JUMPDEST DUP3 MSTORE POP PUSH1 0x1 PUSH1 0x20 MSTORE PUSH1 0x40 DUP2 KECCAK256 PUSH1 0x9 ADD SLOAD PUSH1 0xA0 SHR PUSH1 0xFF AND CODESIZE PUSH2 0x1E4A JUMP JUMPDEST POP POP PUSH1 0x1 SWAP1 JUMP JUMPDEST PUSH1 0x1 DUP1 PUSH1 0xA0 SHL SUB DUP1 SWAP2 AND PUSH1 0x0 SWAP2 DUP2 DUP4 MSTORE PUSH1 0x1 SWAP2 PUSH1 0x20 SWAP2 DUP4 DUP4 MSTORE PUSH1 0x40 SWAP1 DUP2 DUP7 KECCAK256 SWAP3 PUSH1 0xFF SWAP4 DUP5 DUP1 PUSH1 0x9 DUP4 ADD SLOAD PUSH1 0xA0 SHR AND SWAP2 DUP3 PUSH2 0x1F64 JUMPI JUMPDEST POP POP PUSH2 0x1F2C JUMPI PUSH1 0x6 DUP6 MSTORE DUP2 DUP4 DUP9 KECCAK256 SLOAD AND DUP1 ISZERO ISZERO SWAP1 DUP2 PUSH2 0x1F4B JUMPI JUMPDEST DUP2 PUSH2 0x1F36 JUMPI JUMPDEST POP PUSH2 0x1F2C JUMPI DUP7 MSTORE PUSH1 0x5 DUP5 MSTORE DUP2 DUP7 KECCAK256 SLOAD AND ISZERO ISZERO SWAP3 DUP5 SWAP1 DUP5 PUSH2 0x1F15 JUMPI JUMPDEST DUP5 PUSH2 0x1F02 JUMPI JUMPDEST POP POP POP POP PUSH2 0x1EFD JUMPI POP SWAP1 JUMP JUMPDEST SWAP1 POP SWAP1 JUMP JUMPDEST MSTORE DUP5 KECCAK256 PUSH1 0x3 ADD SLOAD AND SWAP1 POP CODESIZE DUP1 DUP4 DUP2 PUSH2 0x1EF1 JUMP JUMPDEST DUP1 SWAP5 POP MSTORE DUP4 DUP3 PUSH1 0x9 DUP4 DUP9 KECCAK256 ADD SLOAD PUSH1 0xA0 SHR AND SWAP4 PUSH2 0x1EEB JUMP JUMPDEST POP POP POP POP POP SWAP1 POP SWAP1 JUMP JUMPDEST DUP9 MSTORE POP DUP6 DUP6 MSTORE DUP3 DUP8 KECCAK256 PUSH1 0x3 ADD SLOAD DUP5 AND CODESIZE PUSH2 0x1ED0 JUMP JUMPDEST DUP1 DUP10 MSTORE DUP8 DUP8 MSTORE DUP5 DUP10 KECCAK256 PUSH1 0x9 ADD SLOAD PUSH1 0xA0 SHR DUP7 AND SWAP2 POP PUSH2 0x1ECA JUMP JUMPDEST PUSH1 0x3 ADD SLOAD AND SWAP1 POP DUP5 CODESIZE PUSH2 0x1EB0 JUMP JUMPDEST PUSH8 0xFFFFFFFFFFFFFFFF DUP2 GT PUSH2 0x46E JUMPI PUSH1 0x5 SHL PUSH1 0x20 ADD SWAP1 JUMP JUMPDEST SWAP1 PUSH1 0x40 MLOAD PUSH2 0x1F97 DUP2 PUSH2 0x1AD9 JUMP JUMPDEST DUP3 SLOAD PUSH1 0x1 PUSH1 0x1 PUSH1 0xA0 SHL SUB SWAP1 DUP2 AND DUP3 MSTORE PUSH1 0x1 DUP5 ADD SLOAD AND PUSH1 0x20 DUP3 ADD MSTORE PUSH1 0x2 DUP4 ADD SLOAD PUSH1 0x40 DUP3 ADD MSTORE PUSH1 0x3 DUP4 ADD SLOAD PUSH1 0x60 DUP3 ADD MSTORE PUSH1 0x4 SWAP1 SWAP3 ADD SLOAD PUSH1 0xFF AND ISZERO ISZERO PUSH1 0x80 DUP4 ADD MSTORE JUMP JUMPDEST DUP1 MLOAD DUP3 LT ISZERO PUSH2 0x1D1E JUMPI PUSH1 0x20 SWAP2 PUSH1 0x5 SHL ADD ADD SWAP1 JUMP JUMPDEST PUSH1 0x1 PUSH1 0x1 PUSH1 0xA0 SHL SUB DUP2 DUP2 AND PUSH1 0x0 SWAP1 DUP2 MSTORE PUSH1 0x1 PUSH1 0x20 MSTORE PUSH1 0x40 SWAP1 KECCAK256 PUSH1 0x9 ADD SLOAD PUSH1 0xA0 SHR PUSH1 0xFF AND PUSH2 0x204D JUMPI PUSH1 0x6 PUSH1 0x20 MSTORE PUSH1 0x40 PUSH1 0x0 KECCAK256 SLOAD AND DUP1 ISZERO ISZERO DUP1 PUSH2 0x202F JUMPI JUMPDEST PUSH2 0x1EFD JUMPI POP SWAP1 JUMP JUMPDEST POP DUP1 PUSH1 0x0 MSTORE PUSH1 0x1 PUSH1 0x20 MSTORE PUSH1 0xFF PUSH1 0x9 PUSH1 0x40 PUSH1 0x0 KECCAK256 ADD SLOAD PUSH1 0xA0 SHR AND PUSH2 0x2027 JUMP JUMPDEST POP SWAP1 JUMP JUMPDEST PUSH1 0x1 PUSH1 0x1 PUSH1 0xA0 SHL SUB SWAP1 DUP2 SWAP1 PUSH2 0x2065 SWAP1 PUSH2 0x1FEB JUMP JUMPDEST AND PUSH1 0x0 MSTORE PUSH1 0x1 PUSH1 0x20 MSTORE PUSH1 0x40 PUSH1 0x0 KECCAK256 PUSH1 0x40 MLOAD PUSH2 0x207F DUP2 PUSH2 0x1AF5 JUMP JUMPDEST PUSH2 0x2088 DUP3 PUSH2 0x1B34 JUMP JUMPDEST DUP2 MSTORE PUSH2 0x2096 PUSH1 0x1 DUP4 ADD PUSH2 0x1B34 JUMP JUMPDEST PUSH1 0x20 DUP3 ADD MSTORE PUSH1 0x2 DUP3 ADD SLOAD PUSH1 0x40 DUP3 ADD MSTORE PUSH1 0xFF PUSH1 0x3 DUP4 ADD SLOAD AND ISZERO ISZERO PUSH1 0x60 DUP3 ADD MSTORE PUSH1 0x4 DUP3 ADD SLOAD PUSH1 0x80 DUP3 ADD MSTORE PUSH1 0x5 DUP3 ADD SLOAD PUSH1 0xA0 DUP3 ADD MSTORE PUSH1 0x6 DUP3 ADD SLOAD PUSH1 0xC0 DUP3 ADD MSTORE PUSH2 0x140 PUSH1 0xFF PUSH1 0x7 DUP5 ADD SLOAD SWAP5 DUP6 PUSH1 0xE0 DUP6 ADD MSTORE PUSH1 0x9 PUSH1 0x8 DUP7 ADD SLOAD SWAP6 DUP7 PUSH2 0x100 DUP8 ADD MSTORE ADD SLOAD SWAP1 DUP2 AND PUSH2 0x120 DUP6 ADD MSTORE PUSH1 0xA0 SHR AND ISZERO ISZERO SWAP2 ADD MSTORE DUP1 ISZERO PUSH2 0x2118 JUMPI PUSH2 0x2115 SWAP2 PUSH2 0x1DF0 JUMP JUMPDEST SWAP1 JUMP JUMPDEST POP POP PUSH1 0x0 SWAP1 JUMP JUMPDEST PUSH1 0x0 SLOAD PUSH1 0x1 PUSH1 0x1 PUSH1 0xA0 SHL SUB AND CALLER SUB PUSH2 0x2133 JUMPI JUMP JUMPDEST PUSH1 0x40 MLOAD PUSH4 0x118CDAA7 PUSH1 0xE0 SHL DUP2 MSTORE CALLER PUSH1 0x4 DUP3 ADD MSTORE PUSH1 0x24 SWAP1 REVERT JUMPDEST PUSH1 0x0 DUP2 DUP2 MSTORE PUSH1 0x4 PUSH1 0x20 MSTORE PUSH1 0x40 DUP2 KECCAK256 SLOAD PUSH2 0x1EFD JUMPI PUSH1 0x3 SLOAD PUSH1 0x1 PUSH1 0x40 SHL DUP2 LT ISZERO PUSH2 0x2198 JUMPI SWAP1 DUP3 PUSH2 0x2184 PUSH2 0x180C DUP5 PUSH1 0x1 PUSH1 0x40 SWAP7 ADD PUSH1 0x3 SSTORE PUSH2 0x1D34 JUMP JUMPDEST SWAP1 SSTORE PUSH1 0x3 SLOAD SWAP3 DUP2 MSTORE PUSH1 0x4 PUSH1 0x20 MSTORE KECCAK256 SSTORE PUSH1 0x1 SWAP1 JUMP JUMPDEST PUSH4 0x4E487B71 PUSH1 0xE0 SHL DUP3 MSTORE PUSH1 0x41 PUSH1 0x4 MSTORE PUSH1 0x24 DUP3 REVERT JUMPDEST PUSH1 0x0 SWAP1 DUP1 DUP3 MSTORE PUSH1 0x4 SWAP1 DUP2 PUSH1 0x20 MSTORE PUSH1 0x40 DUP4 KECCAK256 SLOAD DUP1 ISZERO ISZERO PUSH1 0x0 EQ PUSH2 0x228F JUMPI PUSH1 0x0 NOT SWAP1 DUP1 DUP3 ADD DUP2 DUP2 GT PUSH2 0x227C JUMPI PUSH1 0x3 SLOAD SWAP1 DUP4 DUP3 ADD SWAP2 DUP3 GT PUSH2 0x2269 JUMPI DUP2 DUP2 SUB PUSH2 0x2236 JUMPI JUMPDEST POP POP POP PUSH1 0x3 SLOAD DUP1 ISZERO PUSH2 0x2223 JUMPI DUP2 ADD SWAP1 PUSH2 0x2204 DUP3 PUSH2 0x1D34 JUMP JUMPDEST SWAP1 SWAP2 DUP3 SLOAD SWAP2 PUSH1 0x3 SHL SHL NOT AND SWAP1 SSTORE PUSH1 0x3 SSTORE DUP3 MSTORE PUSH1 0x20 MSTORE PUSH1 0x40 DUP2 KECCAK256 SSTORE PUSH1 0x1 SWAP1 JUMP JUMPDEST PUSH4 0x4E487B71 PUSH1 0xE0 SHL DUP6 MSTORE PUSH1 0x31 DUP5 MSTORE PUSH1 0x24 DUP6 REVERT JUMPDEST PUSH2 0x2254 PUSH2 0x2245 PUSH2 0x180C SWAP4 PUSH2 0x1D34 JUMP JUMPDEST SWAP1 SLOAD SWAP1 PUSH1 0x3 SHL SHR SWAP3 DUP4 SWAP3 PUSH2 0x1D34 JUMP JUMPDEST SWAP1 SSTORE DUP6 MSTORE DUP4 PUSH1 0x20 MSTORE PUSH1 0x40 DUP6 KECCAK256 SSTORE CODESIZE DUP1 DUP1 PUSH2 0x21EC JUMP JUMPDEST PUSH4 0x4E487B71 PUSH1 0xE0 SHL DUP8 MSTORE PUSH1 0x11 DUP7 MSTORE PUSH1 0x24 DUP8 REVERT JUMPDEST PUSH4 0x4E487B71 PUSH1 0xE0 SHL DUP7 MSTORE PUSH1 0x11 DUP6 MSTORE PUSH1 0x24 DUP7 REVERT JUMPDEST POP POP POP SWAP1 JUMP INVALID LOG2 PUSH5 0x6970667358 0x22 SLT KECCAK256 EXP LOG0 BASEFEE RETURNDATACOPY CALLVALUE SWAP5 ADDMOD 0x5E EXTCODEHASH 0xE6 0x4A PUSH28 0xF6AA97992C105E8BD829920D55F2F96BB9425BDB64736F6C63430008 AND STOP CALLER "},"methodIdentifiers":{"addOrganizerRating(address,uint256)":"1624939d","authorizedEventContracts(address)":"4adad82d","deactivateEvent(uint256)":"957a632e","deployedEvents(uint256)":"eade22f6","eventContractToId(address)":"087da4a4","getActiveEvents()":"3612280f","getAllDeployedEvents()":"32833f28","getDeployedEventsCount()":"317893ff","getEventDetails(uint256)":"ec38d5a0","getEventIdByContract(address)":"e0c322b6","getEventsByOrganizer(address)":"9f6271c3","getOrganizerCount()":"d9d4c1c7","getOrganizerDetails(address)":"1c00caab","getOrganizerPayoutAddress(address)":"d36b904c","getOrganizerRating(address)":"95936448","getOriginalFromUEA(address)":"6bb7de8b","getPrimaryOrganizerAddress(address)":"412a9986","getUEAFromOriginal(address)":"722adcee","getVerifiedOrganizers()":"9f816ba2","incrementTicketsSold(address,uint256,uint256)":"61b0c739","isAuthorizedEventContract(address)":"7b8bce22","isVerifiedOrganizer(address)":"24af6032","organizerEvents(address,uint256)":"e4aa47e3","organizerExists(address)":"2264e8cb","organizerList(uint256)":"bb26b2aa","organizers(address)":"0544c5b9","originalToUea(address)":"4ca6db39","owner()":"8da5cb5b","recordEventCreation(address,address,uint256)":"1bfba652","registerOrganizer(string,string,address)":"5cb75d85","renounceOwnership()":"715018a6","transferOwnership(address)":"f2fde38b","ueaToOriginal(address)":"d1d83270","updateOrganizerPayoutAddress(address)":"4ec33f6e","updateOrganizerProfile(string,string)":"f1755ba2","verifyOrganizer(address,bool)":"b085e083"}}}}}