{"contracts/V2/EventTicketV2.sol":{"EventTicketV3":{"abi":[{"inputs":[{"internalType":"uint256","name":"_totalSupply","type":"uint256"},{"internalType":"uint256","name":"_ticketPrice","type":"uint256"},{"internalType":"string","name":"_nftName","type":"string"},{"internalType":"string","name":"_nftSymbol","type":"string"},{"internalType":"string","name":"_eventName","type":"string"},{"internalType":"uint256","name":"_eventDate","type":"uint256"},{"internalType":"string","name":"_eventVenue","type":"string"},{"internalType":"string","name":"_venueAddress","type":"string"},{"internalType":"string","name":"_venueCoordinates","type":"string"},{"internalType":"string","name":"_eventImageUri","type":"string"},{"internalType":"string","name":"_metadataUri","type":"string"},{"internalType":"address","name":"_eventOrganizerContract","type":"address"},{"internalType":"string","name":"_eventDescription","type":"string"}],"stateMutability":"nonpayable","type":"constructor"},{"inputs":[],"name":"CannotWithdrawWithPendingRefunds","type":"error"},{"inputs":[],"name":"ERC721EnumerableForbiddenBatchMint","type":"error"},{"inputs":[{"internalType":"address","name":"sender","type":"address"},{"internalType":"uint256","name":"tokenId","type":"uint256"},{"internalType":"address","name":"owner","type":"address"}],"name":"ERC721IncorrectOwner","type":"error"},{"inputs":[{"internalType":"address","name":"operator","type":"address"},{"internalType":"uint256","name":"tokenId","type":"uint256"}],"name":"ERC721InsufficientApproval","type":"error"},{"inputs":[{"internalType":"address","name":"approver","type":"address"}],"name":"ERC721InvalidApprover","type":"error"},{"inputs":[{"internalType":"address","name":"operator","type":"address"}],"name":"ERC721InvalidOperator","type":"error"},{"inputs":[{"internalType":"address","name":"owner","type":"address"}],"name":"ERC721InvalidOwner","type":"error"},{"inputs":[{"internalType":"address","name":"receiver","type":"address"}],"name":"ERC721InvalidReceiver","type":"error"},{"inputs":[{"internalType":"address","name":"sender","type":"address"}],"name":"ERC721InvalidSender","type":"error"},{"inputs":[{"internalType":"uint256","name":"tokenId","type":"uint256"}],"name":"ERC721NonexistentToken","type":"error"},{"inputs":[{"internalType":"address","name":"owner","type":"address"},{"internalType":"uint256","name":"index","type":"uint256"}],"name":"ERC721OutOfBoundsIndex","type":"error"},{"inputs":[],"name":"EventIsCancelled","type":"error"},{"inputs":[],"name":"EventIsPaused","type":"error"},{"inputs":[],"name":"EventNotEnded","type":"error"},{"inputs":[],"name":"FundsAlreadyWithdrawn","type":"error"},{"inputs":[],"name":"InsufficientBalance","type":"error"},{"inputs":[],"name":"InsufficientPayment","type":"error"},{"inputs":[],"name":"NoFundsToWithdraw","type":"error"},{"inputs":[],"name":"NoTicketsOwned","type":"error"},{"inputs":[],"name":"NoUnusedTickets","type":"error"},{"inputs":[],"name":"NotTokenOwner","type":"error"},{"inputs":[{"internalType":"address","name":"owner","type":"address"}],"name":"OwnableInvalidOwner","type":"error"},{"inputs":[{"internalType":"address","name":"account","type":"address"}],"name":"OwnableUnauthorizedAccount","type":"error"},{"inputs":[],"name":"RefundDeadlinePassed","type":"error"},{"inputs":[],"name":"RefundTransferFailed","type":"error"},{"inputs":[],"name":"RefundsAreEnabled","type":"error"},{"inputs":[],"name":"RefundsNotEnabled","type":"error"},{"inputs":[],"name":"SoldOut","type":"error"},{"inputs":[],"name":"TicketAlreadyRefunded","type":"error"},{"inputs":[],"name":"TicketAlreadyUsed","type":"error"},{"inputs":[],"name":"WithdrawalFailed","type":"error"},{"anonymous":false,"inputs":[{"indexed":true,"internalType":"address","name":"owner","type":"address"},{"indexed":true,"internalType":"address","name":"approved","type":"address"},{"indexed":true,"internalType":"uint256","name":"tokenId","type":"uint256"}],"name":"Approval","type":"event"},{"anonymous":false,"inputs":[{"indexed":true,"internalType":"address","name":"owner","type":"address"},{"indexed":true,"internalType":"address","name":"operator","type":"address"},{"indexed":false,"internalType":"bool","name":"approved","type":"bool"}],"name":"ApprovalForAll","type":"event"},{"anonymous":false,"inputs":[{"indexed":false,"internalType":"uint256","name":"timestamp","type":"uint256"}],"name":"EventCancelled","type":"event"},{"anonymous":false,"inputs":[{"indexed":true,"internalType":"address","name":"eventOrganizer","type":"address"}],"name":"EventOrganizerSet","type":"event"},{"anonymous":false,"inputs":[{"indexed":false,"internalType":"uint256","name":"timestamp","type":"uint256"}],"name":"EventPaused","type":"event"},{"anonymous":false,"inputs":[{"indexed":false,"internalType":"uint256","name":"timestamp","type":"uint256"}],"name":"EventResumed","type":"event"},{"anonymous":false,"inputs":[{"indexed":true,"internalType":"address","name":"organizer","type":"address"},{"indexed":false,"internalType":"uint256","name":"amount","type":"uint256"}],"name":"FundsWithdrawn","type":"event"},{"anonymous":false,"inputs":[{"indexed":true,"internalType":"address","name":"previousOwner","type":"address"},{"indexed":true,"internalType":"address","name":"newOwner","type":"address"}],"name":"OwnershipTransferred","type":"event"},{"anonymous":false,"inputs":[{"indexed":true,"internalType":"address","name":"user","type":"address"},{"indexed":false,"internalType":"uint256","name":"amount","type":"uint256"},{"indexed":false,"internalType":"uint256","name":"ticketCount","type":"uint256"},{"indexed":false,"internalType":"uint256[]","name":"tokenIds","type":"uint256[]"}],"name":"PartialRefundClaimed","type":"event"},{"anonymous":false,"inputs":[{"indexed":true,"internalType":"address","name":"user","type":"address"},{"indexed":false,"internalType":"uint256","name":"amount","type":"uint256"},{"indexed":false,"internalType":"uint256[]","name":"tokenIds","type":"uint256[]"}],"name":"RefundClaimed","type":"event"},{"anonymous":false,"inputs":[{"indexed":true,"internalType":"address","name":"buyer","type":"address"},{"indexed":true,"internalType":"uint256","name":"tokenId","type":"uint256"},{"indexed":false,"internalType":"uint256","name":"price","type":"uint256"},{"indexed":false,"internalType":"string","name":"buyerChain","type":"string"}],"name":"TicketMinted","type":"event"},{"anonymous":false,"inputs":[{"indexed":true,"internalType":"address","name":"user","type":"address"},{"indexed":true,"internalType":"uint256","name":"tokenId","type":"uint256"},{"indexed":false,"internalType":"uint256","name":"timestamp","type":"uint256"}],"name":"TicketUsed","type":"event"},{"anonymous":false,"inputs":[{"indexed":true,"internalType":"address","name":"from","type":"address"},{"indexed":true,"internalType":"address","name":"to","type":"address"},{"indexed":true,"internalType":"uint256","name":"tokenId","type":"uint256"}],"name":"Transfer","type":"event"},{"inputs":[{"internalType":"address","name":"to","type":"address"},{"internalType":"uint256","name":"tokenId","type":"uint256"}],"name":"approve","outputs":[],"stateMutability":"nonpayable","type":"function"},{"inputs":[{"internalType":"address","name":"owner","type":"address"}],"name":"balanceOf","outputs":[{"internalType":"uint256","name":"","type":"uint256"}],"stateMutability":"view","type":"function"},{"inputs":[],"name":"cancelEvent","outputs":[],"stateMutability":"nonpayable","type":"function"},{"inputs":[],"name":"claimRefund","outputs":[],"stateMutability":"nonpayable","type":"function"},{"inputs":[],"name":"contentHash","outputs":[{"internalType":"string","name":"","type":"string"}],"stateMutability":"view","type":"function"},{"inputs":[],"name":"eventCancelled","outputs":[{"internalType":"bool","name":"","type":"bool"}],"stateMutability":"view","type":"function"},{"inputs":[],"name":"eventDate","outputs":[{"internalType":"uint256","name":"","type":"uint256"}],"stateMutability":"view","type":"function"},{"inputs":[],"name":"eventDescription","outputs":[{"internalType":"string","name":"","type":"string"}],"stateMutability":"view","type":"function"},{"inputs":[],"name":"eventId","outputs":[{"internalType":"uint256","name":"","type":"uint256"}],"stateMutability":"view","type":"function"},{"inputs":[],"name":"eventImageUri","outputs":[{"internalType":"string","name":"","type":"string"}],"stateMutability":"view","type":"function"},{"inputs":[],"name":"eventName","outputs":[{"internalType":"string","name":"","type":"string"}],"stateMutability":"view","type":"function"},{"inputs":[],"name":"eventOrganizerContract","outputs":[{"internalType":"address","name":"","type":"address"}],"stateMutability":"view","type":"function"},{"inputs":[],"name":"eventPaused","outputs":[{"internalType":"bool","name":"","type":"bool"}],"stateMutability":"view","type":"function"},{"inputs":[],"name":"eventVenue","outputs":[{"internalType":"string","name":"","type":"string"}],"stateMutability":"view","type":"function"},{"inputs":[],"name":"fundsWithdrawn","outputs":[{"internalType":"bool","name":"","type":"bool"}],"stateMutability":"view","type":"function"},{"inputs":[{"internalType":"uint256","name":"tokenId","type":"uint256"}],"name":"getApproved","outputs":[{"internalType":"address","name":"","type":"address"}],"stateMutability":"view","type":"function"},{"inputs":[],"name":"getEventDetails","outputs":[{"internalType":"string","name":"name","type":"string"},{"internalType":"uint256","name":"date","type":"uint256"},{"internalType":"string","name":"venue","type":"string"},{"internalType":"string","name":"vAddress","type":"string"},{"internalType":"string","name":"coordinates","type":"string"},{"internalType":"string","name":"imageUri","type":"string"},{"internalType":"uint256","name":"supply","type":"uint256"},{"internalType":"uint256","name":"price","type":"uint256"},{"internalType":"uint256","name":"sold","type":"uint256"},{"internalType":"uint256","name":"remaining","type":"uint256"},{"internalType":"bool","name":"cancelled","type":"bool"},{"internalType":"bool","name":"paused","type":"bool"},{"internalType":"uint8","name":"status","type":"uint8"},{"internalType":"address","name":"org","type":"address"},{"internalType":"string","name":"description","type":"string"}],"stateMutability":"view","type":"function"},{"inputs":[],"name":"getEventInfo","outputs":[{"internalType":"string","name":"name","type":"string"},{"internalType":"uint256","name":"date","type":"uint256"},{"internalType":"string","name":"venue","type":"string"},{"internalType":"uint256","name":"price","type":"uint256"},{"internalType":"uint256","name":"remaining","type":"uint256"},{"internalType":"bool","name":"cancelled","type":"bool"},{"internalType":"bool","name":"paused","type":"bool"}],"stateMutability":"view","type":"function"},{"inputs":[{"internalType":"address","name":"owner","type":"address"}],"name":"getOwnerTicketsDetails","outputs":[{"internalType":"uint256[]","name":"tokenIds","type":"uint256[]"},{"internalType":"bool[]","name":"isUsed","type":"bool[]"}],"stateMutability":"view","type":"function"},{"inputs":[{"internalType":"address","name":"user","type":"address"}],"name":"getRefundInfo","outputs":[{"internalType":"bool","name":"canClaim","type":"bool"},{"internalType":"uint256","name":"unusedTicketCount","type":"uint256"},{"internalType":"uint256","name":"usedTicketCount","type":"uint256"},{"internalType":"uint256","name":"refundAmount","type":"uint256"}],"stateMutability":"view","type":"function"},{"inputs":[{"internalType":"uint256","name":"tokenId","type":"uint256"}],"name":"getTicketDetails","outputs":[{"internalType":"address","name":"owner","type":"address"},{"internalType":"bool","name":"isUsed","type":"bool"},{"internalType":"string","name":"eName","type":"string"},{"internalType":"uint256","name":"eDate","type":"uint256"},{"internalType":"string","name":"eVenue","type":"string"},{"internalType":"string","name":"eImage","type":"string"},{"internalType":"uint8","name":"status","type":"uint8"}],"stateMutability":"view","type":"function"},{"inputs":[{"internalType":"uint256","name":"tokenId","type":"uint256"}],"name":"getTicketMetadata","outputs":[{"internalType":"address","name":"owner","type":"address"},{"internalType":"address","name":"originalBuyer","type":"address"},{"internalType":"uint256","name":"purchasePrice","type":"uint256"},{"internalType":"string","name":"buyerChain","type":"string"},{"internalType":"bool","name":"isUsed","type":"bool"}],"stateMutability":"view","type":"function"},{"inputs":[],"name":"getTicketsRemaining","outputs":[{"internalType":"uint256","name":"","type":"uint256"}],"stateMutability":"view","type":"function"},{"inputs":[{"internalType":"address","name":"owner","type":"address"}],"name":"getTokensByOwner","outputs":[{"internalType":"uint256[]","name":"","type":"uint256[]"}],"stateMutability":"view","type":"function"},{"inputs":[{"internalType":"address","name":"owner","type":"address"},{"internalType":"address","name":"operator","type":"address"}],"name":"isApprovedForAll","outputs":[{"internalType":"bool","name":"","type":"bool"}],"stateMutability":"view","type":"function"},{"inputs":[{"internalType":"uint256","name":"","type":"uint256"}],"name":"isRefunded","outputs":[{"internalType":"bool","name":"","type":"bool"}],"stateMutability":"view","type":"function"},{"inputs":[{"internalType":"uint256","name":"tokenId","type":"uint256"}],"name":"isTicketUsed","outputs":[{"internalType":"bool","name":"","type":"bool"}],"stateMutability":"view","type":"function"},{"inputs":[],"name":"maxSupply","outputs":[{"internalType":"uint256","name":"","type":"uint256"}],"stateMutability":"view","type":"function"},{"inputs":[],"name":"metadataUri","outputs":[{"internalType":"string","name":"","type":"string"}],"stateMutability":"view","type":"function"},{"inputs":[],"name":"mintTicket","outputs":[{"internalType":"uint256","name":"","type":"uint256"}],"stateMutability":"payable","type":"function"},{"inputs":[],"name":"name","outputs":[{"internalType":"string","name":"","type":"string"}],"stateMutability":"view","type":"function"},{"inputs":[],"name":"organizer","outputs":[{"internalType":"address","name":"","type":"address"}],"stateMutability":"view","type":"function"},{"inputs":[],"name":"owner","outputs":[{"internalType":"address","name":"","type":"address"}],"stateMutability":"view","type":"function"},{"inputs":[{"internalType":"uint256","name":"tokenId","type":"uint256"}],"name":"ownerOf","outputs":[{"internalType":"address","name":"","type":"address"}],"stateMutability":"view","type":"function"},{"inputs":[],"name":"pauseEvent","outputs":[],"stateMutability":"nonpayable","type":"function"},{"inputs":[],"name":"refundDeadline","outputs":[{"internalType":"uint256","name":"","type":"uint256"}],"stateMutability":"view","type":"function"},{"inputs":[{"internalType":"address","name":"","type":"address"}],"name":"refundedTicketCount","outputs":[{"internalType":"uint256","name":"","type":"uint256"}],"stateMutability":"view","type":"function"},{"inputs":[],"name":"refundsEnabled","outputs":[{"internalType":"bool","name":"","type":"bool"}],"stateMutability":"view","type":"function"},{"inputs":[],"name":"renounceOwnership","outputs":[],"stateMutability":"nonpayable","type":"function"},{"inputs":[],"name":"resumeEvent","outputs":[],"stateMutability":"nonpayable","type":"function"},{"inputs":[{"internalType":"uint256","name":"","type":"uint256"},{"internalType":"uint256","name":"salePrice","type":"uint256"}],"name":"royaltyInfo","outputs":[{"internalType":"address","name":"receiver","type":"address"},{"internalType":"uint256","name":"royaltyAmount","type":"uint256"}],"stateMutability":"view","type":"function"},{"inputs":[],"name":"royaltyPercent","outputs":[{"internalType":"uint96","name":"","type":"uint96"}],"stateMutability":"view","type":"function"},{"inputs":[{"internalType":"address","name":"from","type":"address"},{"internalType":"address","name":"to","type":"address"},{"internalType":"uint256","name":"tokenId","type":"uint256"}],"name":"safeTransferFrom","outputs":[],"stateMutability":"nonpayable","type":"function"},{"inputs":[{"internalType":"address","name":"from","type":"address"},{"internalType":"address","name":"to","type":"address"},{"internalType":"uint256","name":"tokenId","type":"uint256"},{"internalType":"bytes","name":"data","type":"bytes"}],"name":"safeTransferFrom","outputs":[],"stateMutability":"nonpayable","type":"function"},{"inputs":[{"internalType":"address","name":"operator","type":"address"},{"internalType":"bool","name":"approved","type":"bool"}],"name":"setApprovalForAll","outputs":[],"stateMutability":"nonpayable","type":"function"},{"inputs":[{"internalType":"address","name":"_eventOrganizer","type":"address"}],"name":"setEventOrganizerContract","outputs":[],"stateMutability":"nonpayable","type":"function"},{"inputs":[{"internalType":"uint96","name":"newPercent","type":"uint96"}],"name":"setRoyaltyPercent","outputs":[],"stateMutability":"nonpayable","type":"function"},{"inputs":[{"internalType":"bytes4","name":"interfaceId","type":"bytes4"}],"name":"supportsInterface","outputs":[{"internalType":"bool","name":"","type":"bool"}],"stateMutability":"view","type":"function"},{"inputs":[],"name":"symbol","outputs":[{"internalType":"string","name":"","type":"string"}],"stateMutability":"view","type":"function"},{"inputs":[],"name":"ticketPrice","outputs":[{"internalType":"uint256","name":"","type":"uint256"}],"stateMutability":"view","type":"function"},{"inputs":[{"internalType":"uint256","name":"","type":"uint256"}],"name":"tokenBuyerChain","outputs":[{"internalType":"string","name":"","type":"string"}],"stateMutability":"view","type":"function"},{"inputs":[{"internalType":"uint256","name":"index","type":"uint256"}],"name":"tokenByIndex","outputs":[{"internalType":"uint256","name":"","type":"uint256"}],"stateMutability":"view","type":"function"},{"inputs":[{"internalType":"address","name":"owner","type":"address"},{"internalType":"uint256","name":"index","type":"uint256"}],"name":"tokenOfOwnerByIndex","outputs":[{"internalType":"uint256","name":"","type":"uint256"}],"stateMutability":"view","type":"function"},{"inputs":[{"internalType":"uint256","name":"","type":"uint256"}],"name":"tokenOriginalBuyer","outputs":[{"internalType":"address","name":"","type":"address"}],"stateMutability":"view","type":"function"},{"inputs":[{"internalType":"uint256","name":"","type":"uint256"}],"name":"tokenPurchasePrice","outputs":[{"internalType":"uint256","name":"","type":"uint256"}],"stateMutability":"view","type":"function"},{"inputs":[{"internalType":"uint256","name":"tokenId","type":"uint256"}],"name":"tokenURI","outputs":[{"internalType":"string","name":"","type":"string"}],"stateMutability":"view","type":"function"},{"inputs":[],"name":"totalRefundsClaimed","outputs":[{"internalType":"uint256","name":"","type":"uint256"}],"stateMutability":"view","type":"function"},{"inputs":[],"name":"totalSupply","outputs":[{"internalType":"uint256","name":"","type":"uint256"}],"stateMutability":"view","type":"function"},{"inputs":[{"internalType":"address","name":"from","type":"address"},{"internalType":"address","name":"to","type":"address"},{"internalType":"uint256","name":"tokenId","type":"uint256"}],"name":"transferFrom","outputs":[],"stateMutability":"nonpayable","type":"function"},{"inputs":[{"internalType":"address","name":"newOwner","type":"address"}],"name":"transferOwnership","outputs":[],"stateMutability":"nonpayable","type":"function"},{"inputs":[{"internalType":"string","name":"newDescription","type":"string"}],"name":"updateEventDescription","outputs":[],"stateMutability":"nonpayable","type":"function"},{"inputs":[{"internalType":"string","name":"newImageUri","type":"string"}],"name":"updateEventImage","outputs":[],"stateMutability":"nonpayable","type":"function"},{"inputs":[{"internalType":"string","name":"newName","type":"string"}],"name":"updateEventName","outputs":[],"stateMutability":"nonpayable","type":"function"},{"inputs":[{"internalType":"string","name":"newUri","type":"string"}],"name":"updateMetadataUri","outputs":[],"stateMutability":"nonpayable","type":"function"},{"inputs":[{"internalType":"uint256","name":"tokenId","type":"uint256"}],"name":"useTicket","outputs":[],"stateMutability":"nonpayable","type":"function"},{"inputs":[{"internalType":"uint256","name":"","type":"uint256"}],"name":"used","outputs":[{"internalType":"bool","name":"","type":"bool"}],"stateMutability":"view","type":"function"},{"inputs":[],"name":"venueAddress","outputs":[{"internalType":"string","name":"","type":"string"}],"stateMutability":"view","type":"function"},{"inputs":[],"name":"venueCoordinates","outputs":[{"internalType":"string","name":"","type":"string"}],"stateMutability":"view","type":"function"},{"inputs":[],"name":"withdrawFunds","outputs":[],"stateMutability":"nonpayable","type":"function"}],"evm":{"bytecode":{"linkReferences":{},"object":"6080604081815234620006b15762005b48803803809162000021828662001180565b84398201916101a081840312620006b15780516020820151838301516001600160401b038111620006b157856200005a918501620011c9565b60608401519092906001600160401b038111620006b157866200007f918601620011c9565b60808501519092906001600160401b038111620006b15787620000a4918701620011c9565b60a086015160c08701519095906001600160401b038111620006b15789620000ce918901620011c9565b60e08801519092906001600160401b038111620006b1578a620000f3918a01620011c9565b6101008901519094906001600160401b038111620006b1578b62000119918b01620011c9565b6101208a01519096906001600160401b038111620006b1578c6200013f918c01620011c9565b6101408b01519098906001600160401b038111620006b1578d62000165918d01620011c9565b6101608c01519d909b906001600160a01b038f168f9003620006b1576101808201516001600160401b038111620006b157620001a29201620011c9565b855190956001600160401b038211620008885760005490600182811c9216801562001175575b6020831014620008675781601f84931162001115575b50602090601f831160011462001099576000926200108d575b50508160011b916000199060031b1c1916176000555b8051906001600160401b038211620008885760015490600182811c9216801562001082575b6020831014620008675781601f84931162001021575b50602090601f831160011462000fa75760009262000f9b575b50508160011b916000199060031b1c1916176001555b331562000f8357600a8054336001600160a01b0319821681179092556001600160a01b03167f8be0079c531659141344cd1fd0a4f28419497f9722a3daafe3b4186f6b6457e0600080a36015556016558051906001600160401b0382116200088857600f5490600182811c9216801562000f78575b6020831014620008675781601f84931162000f17575b50602090601f831160011462000e995760009262000e8d575b50508160011b916000199060031b1c191617600f555b8051906001600160401b038211620008885760195490600182811c9216801562000e82575b6020831014620008675781601f84931162000e10575b50602090601f831160011462000d815760009262000d75575b50508160011b916000199060031b1c1916176019555b60108590558051906001600160401b038211620008885760115490600182811c9216801562000d6a575b6020831014620008675781601f84931162000d09575b50602090601f831160011462000c8b5760009262000c7f575b50508160011b916000199060031b1c1916176011555b8051906001600160401b038211620008885760125490600182811c9216801562000c74575b6020831014620008675781601f84931162000c10575b50602090601f831160011462000b925760009262000b86575b50508160011b916000199060031b1c1916176012555b8051906001600160401b038211620008885760135490600182811c9216801562000b7b575b6020831014620008675781601f84931162000b17575b50602090601f831160011462000a9d5760009262000a91575b50508160011b916000199060031b1c1916176013555b8051906001600160401b038211620008885760145490600182811c9216801562000a86575b6020831014620008675781601f84931162000a22575b50602090601f8311600114620009a8576000926200099c575b50508160011b916000199060031b1c1916176014555b81516001600160401b0381116200088857601a54600181811c9116801562000991575b60208210146200086757601f811162000938575b50806020601f8211600114620008c057600091620008b4575b508160011b916000199060031b1c191617601a555b6000600c55600d80546001600160a01b03199081163317909155600b80549091166001600160a01b038616179055601c80546001600160601b03191660fa17905562278d0081019081106200089e5760185580519081620006bf575b50909190506001600160a01b0381166200062d575b50516148039081620012258239f35b8151630dfdd32960e11b81523060048201523360248201526000604482018190529091602091839160649183916001600160a01b03165af16000918162000680575b50156200061e57600c55386200061e565b9091506020813d602011620006b6575b816200069f6020938362001180565b81010312620006b1575190386200066f565b600080fd5b3d915062000690565b90620006ed6020809383620006df875195869385850198899101620011a4565b810103808452018262001180565b5190208151602080820192909252908152918282016001600160401b038111848210176200088857825282516001600160401b0381116200088857601b54600181811c911680156200087d575b60208210146200086757601f81116200080e575b506020601f821160011462000795578192939460009262000789575b50508160011b916000199060031b1c191617601b555b90388062000609565b0151905038806200076a565b601b600090815260008051602062005a888339815191529190601f198416905b818110620007f557509583600195969710620007db575b505050811b01601b5562000780565b015160001960f88460031b161c19169055388080620007cc565b9192602060018192868b015181550194019201620007b5565b601b60005260008051602062005a88833981519152601f830160051c810191602084106200085c575b601f0160051c01905b8181106200084f57506200074e565b6000815560010162000840565b909150819062000837565b634e487b7160e01b600052602260045260246000fd5b90607f16906200073a565b634e487b7160e01b600052604160045260246000fd5b634e487b7160e01b600052601160045260246000fd5b90508301513862000598565b601a600090815260008051602062005ac88339815191529250601f198416905b8181106200091f5750908360019493921062000905575b5050811b01601a55620005ad565b85015160001960f88460031b161c191690553880620008f7565b9192602060018192868a015181550194019201620008e0565b601a60005260008051602062005ac8833981519152601f830160051c8101916020841062000986575b601f0160051c01905b8181106200097957506200057f565b600081556001016200096a565b909150819062000961565b90607f16906200056b565b01519050388062000532565b6014600090815260008051602062005b088339815191529350601f198516905b81811062000a095750908460019594939210620009ef575b505050811b0160145562000548565b015160001960f88460031b161c19169055388080620009e0565b92936020600181928786015181550195019301620009c8565b601460005290915060008051602062005b08833981519152601f840160051c8101916020851062000a7b575b90601f859493920160051c01905b81811062000a6b575062000519565b6000815584935060010162000a5c565b909150819062000a4e565b91607f169162000503565b015190503880620004c8565b6013600090815260008051602062005aa88339815191529350601f198516905b81811062000afe575090846001959493921062000ae4575b505050811b01601355620004de565b015160001960f88460031b161c1916905538808062000ad5565b9293602060018192878601518155019501930162000abd565b601360005290915060008051602062005aa8833981519152601f840160051c8101916020851062000b70575b90601f859493920160051c01905b81811062000b605750620004af565b6000815584935060010162000b51565b909150819062000b43565b91607f169162000499565b0151905038806200045e565b60126000908152935060008051602062005a2883398151915291905b601f198416851062000bf4576001945083601f1981161062000bda575b505050811b0160125562000474565b015160001960f88460031b161c1916905538808062000bcb565b8181015183556020948501946001909301929091019062000bae565b601260005290915060008051602062005a28833981519152601f840160051c8101916020851062000c69575b90601f859493920160051c01905b81811062000c59575062000445565b6000815584935060010162000c4a565b909150819062000c3c565b91607f16916200042f565b015190503880620003f4565b60116000908152935060008051602062005a4883398151915291905b601f198416851062000ced576001945083601f1981161062000cd3575b505050811b016011556200040a565b015160001960f88460031b161c1916905538808062000cc4565b8181015183556020948501946001909301929091019062000ca7565b601160005290915060008051602062005a48833981519152601f840160051c81016020851062000d62575b90849392915b601f830160051c8201811062000d52575050620003db565b6000815585945060010162000d3a565b508062000d34565b91607f1691620003c5565b01519050388062000385565b6019600090815293507f944998273e477b495144fb8794c914197f3ccb46be2900f4698fd0ef743c969591905b601f198416851062000df4576001945083601f1981161062000dda575b505050811b016019556200039b565b015160001960f88460031b161c1916905538808062000dcb565b8181015183556020948501946001909301929091019062000dae565b60196000529091507f944998273e477b495144fb8794c914197f3ccb46be2900f4698fd0ef743c9695601f840160051c81016020851062000e7a575b90849392915b601f830160051c8201811062000e6a5750506200036c565b6000815585945060010162000e52565b508062000e4c565b91607f169162000356565b0151905038806200031b565b600f6000908152935060008051602062005b2883398151915291905b601f198416851062000efb576001945083601f1981161062000ee1575b505050811b01600f5562000331565b015160001960f88460031b161c1916905538808062000ed2565b8181015183556020948501946001909301929091019062000eb5565b600f60005290915060008051602062005b28833981519152601f840160051c81016020851062000f70575b90849392915b601f830160051c8201811062000f6057505062000302565b6000815585945060010162000f48565b508062000f42565b91607f1691620002ec565b8a51631e4fbdf760e01b815260006004820152602490fd5b01519050388062000261565b6001600090815260008051602062005ae88339815191529350601f198516905b81811062001008575090846001959493921062000fee575b505050811b0160015562000277565b015160001960f88460031b161c1916905538808062000fdf565b9293602060018192878601518155019501930162000fc7565b600160005290915060008051602062005ae8833981519152601f840160051c8101602085106200107a575b90849392915b601f830160051c820181106200106a57505062000248565b6000815585945060010162001052565b50806200104c565b91607f169162000232565b015190503880620001f7565b6000808052935060008051602062005a6883398151915291905b601f1984168510620010f9576001945083601f19811610620010df575b505050811b016000556200020d565b015160001960f88460031b161c19169055388080620010d0565b81810151835560209485019460019093019290910190620010b3565b6000805290915060008051602062005a68833981519152601f840160051c8101602085106200116d575b90849392915b601f830160051c820181106200115d575050620001de565b6000815585945060010162001145565b50806200113f565b91607f1691620001c8565b601f909101601f19168101906001600160401b038211908210176200088857604052565b60005b838110620011b85750506000910152565b8181015183820152602001620011a7565b81601f82011215620006b15780516001600160401b03811162000888576040519262001200601f8301601f19166020018562001180565b81845260208284010111620006b157620012219160208085019101620011a4565b9056fe6080604052600436101561001257600080fd5b60003560e01c806301ffc9a714610467578063020fe6e51461046257806305ccfd331461045d57806306fdde0314610458578063081812fc14610453578063089cdd0c1461044e578063095ea7b3146104495780630beb11b71461044457806310409cb21461043f5780631209b1f61461043a57806318160ddd146104355780631feeaf741461043057806323b872dd1461042b57806324600fc31461042657806324c141601461042157806325ff167e1461041c57806326606448146104175780632a55205a146104125780632c8cc6f71461040d5780632cd1d35c146104085780632f745c591461040357806340398d67146103fe57806342842e0e146103f95780634bc46a82146103f45780634bfbe5df146103ef5780634f6ccce7146103ea578063532f1179146103e557806355866c8d146103e057806355c85457146103db578063573c80fa146103d65780635e7bfd12146103d157806361203265146103cc5780636352211e146103c7578063646c2e33146103c2578063684e78dd146103bd57806369ba4f68146103b85780636d00fa68146103b357806370a08231146103ae578063715018a6146103a957806377a4d559146103a45780638043c9c01461039f578063870c8f261461039a5780638da5cb5b1461039557806393d28635146103905780639434571b1461038b57806395d89b41146103865780639e408d4c146103815780639f67756d1461037c578063a22cb46514610377578063ac307fcf14610372578063b40f29891461036d578063b5545a3c14610368578063b5e5f51b14610363578063b88d4fde1461035e578063b963f8ca14610359578063ba0ae43c14610354578063c0af23461461034f578063c87b56dd1461034a578063d5abeb0114610345578063da649e6b14610340578063def3ad671461033b578063e1a494d114610336578063e1aa1bcc14610331578063e22bda351461032c578063e2bb3ccf14610327578063e985e9c514610322578063eb7b70061461031d578063f2fde38b146103185763fb6c95371461031357600080fd5b612d07565b612c7e565b612c41565b612be4565b612b1e565b612a24565b612a06565b6129e3565b6129af565b612984565b612966565b612947565b612849565b6127ba565b61275f565b6126fa565b612646565b6123ec565b6123c6565b6123a3565b6122e6565b6122bf565b612294565b6121ed565b6121c9565b61211b565b6120f2565b611f90565b611f6c565b611ed0565b611e72565b611e4f565b611d34565b611cc4565b611ca0565b611bbb565b611b8b565b611b62565b611b3e565b611971565b611920565b611458565b611435565b6113c5565b6113a7565b61130a565b6112d6565b61126c565b61123d565b6111e9565b6111af565b61115c565b61106e565b610feb565b610f08565b610d47565b610d30565b610bfd565b610bdf565b610bc1565b610b02565b610a56565b610957565b61090d565b6108cf565b6107e8565b61066b565b610525565b610483565b6001600160e01b031981160361047e57565b600080fd5b3461047e57602036600319011261047e5760206004356104a28161046c565b63ffffffff60e01b1663152a902d60e11b81149081156104c8575b506040519015158152f35b63780e9d6360e01b8114915081156104e2575b50386104bd565b6380ac58cd60e01b811491508115610514575b8115610503575b50386104db565b6301ffc9a760e01b149050386104fc565b635b5e139f60e01b811491506104f5565b3461047e57602036600319011261047e57600435600052601d602052602060ff604060002054166040519015158152f35b634e487b7160e01b600052604160045260246000fd5b6001600160401b03811161057f57604052565b610556565b602081019081106001600160401b0382111761057f57604052565b604081019081106001600160401b0382111761057f57604052565b90601f801991011681019081106001600160401b0382111761057f57604052565b6001600160401b03811161057f57601f01601f191660200190565b929192610602826105db565b9161061060405193846105ba565b82948184528183011161047e578281602093846000960137010152565b602060031982011261047e57600435906001600160401b03821161047e578060238301121561047e57816024610668936004013591016105f6565b90565b3461047e576106793661062d565b600d5461069b90336001600160a01b0391821614908115610776575b50612dcc565b80516001600160401b03811161057f576106bf816106ba600f54611489565b612e18565b602080601f8311600114610701575081906106f1936000926106f6575b50508160011b916000199060031b1c19161790565b600f55005b0151905038806106dc565b90601f19831693610722600f60005260008051602061478e83398151915290565b926000905b86821061075e5750508360019510610745575b505050811b01600f55005b015160001960f88460031b161c1916905538808061073a565b80600185968294968601518155019501930190610727565b9050600a5416331438610695565b600091031261047e57565b60005b8381106107a25750506000910152565b8181015183820152602001610792565b906020916107cb8151809281855285808601910161078f565b601f01601f1916010190565b9060206106689281815201906107b2565b3461047e576000806003193601126108cc57604051908080549061080b82611489565b8085529160209160019182811690811561089f5750600114610848575b61084486610838818803826105ba565b604051918291826107d7565b0390f35b80809550527f290decd9548b62a8d60345a988386fc84ba6bc95484008f6362f93160ef3e5635b83851061088c575050505081016020016108388261084438610828565b805486860184015293820193810161086f565b90508695506108449693506020925061083894915060ff191682840152151560051b820101929338610828565b80fd5b3461047e57602036600319011261047e576004356108ec81613cd1565b506000526004602052602060018060a01b0360406000205416604051908152f35b3461047e57600036600319011261047e576020600c54604051908152f35b600435906001600160a01b038216820361047e57565b602435906001600160a01b038216820361047e57565b3461047e57604036600319011261047e5761097061092b565b6024359061097d82613cd1565b33151580610a43575b80610a15575b6109fd576109fb926109dc9181906001600160a01b0385811691167f8c5be1e5ebec7d5bd14f71427d1e84f3dd0314c0f7b2291e5b200ac8c7c3b925600080a46000526004602052604060002090565b80546001600160a01b0319166001600160a01b03909216919091179055565b005b60405163a9fbf51f60e01b8152336004820152602490fd5b506001600160a01b038116600090815260056020908152604080832033845290915290205460ff161561098c565b506001600160a01b038116331415610986565b3461047e57600036600319011261047e57600b546040516001600160a01b039091168152602090f35b90815180825260208080930193019160005b828110610a9f575050505090565b835185529381019392810192600101610a91565b90610ac690604083526040830190610a7f565b81810360209283015282518082529082019282019160005b828110610aec575050505090565b8351151585529381019392810192600101610ade565b3461047e5760208060031936011261047e57610b1c61092b565b90610b268261358a565b610b2f81613224565b91610b398261320d565b93604091610b4a60405196876105ba565b838652601f19610b598561320d565b0136602088013760009160005b858110610b7c57604051806108448a8a83610ab3565b80610b89600192846134f7565b610b93828a61326c565b52610b9e818961326c565b518552601d845260ff8686205416610bb6828b61326c565b901515905201610b66565b3461047e57600036600319011261047e576020601654604051908152f35b3461047e57600036600319011261047e576020600854604051908152f35b3461047e57610c0b3661062d565b600d54610c2c90336001600160a01b03918216149081156107765750612dcc565b80516001600160401b03811161057f57610c5081610c4b601454611489565b612e78565b602080601f8311600114610c8657508190610c81936000926106f65750508160011b916000199060031b1c19161790565b601455005b90601f19831693610ca7601460005260008051602061476e83398151915290565b926000905b868210610ce35750508360019510610cca575b505050811b01601455005b015160001960f88460031b161c19169055388080610cbf565b80600185968294968601518155019501930190610cac565b606090600319011261047e576001600160a01b0390600435828116810361047e5791602435908116810361047e579060443590565b3461047e576109fb610d4136610cfb565b91613285565b3461047e576000806003193601126108cc57600d54610d7a90336001600160a01b03918216149081156107765750612dcc565b60255460ff16610e9557601054421115610e835760215460ff1680610e77575b610e6557478015610e5357610db7600160ff196025541617602555565b8180808084610ddf610dd3610dd3600d5460018060a01b031690565b6001600160a01b031690565b5af1610de961340a565b5015610e4157600d547feaff4b37086828766ad3268786972c0cd24259d4c87a80f9d3963a3c3d999b0d90610e3b90610e2a906001600160a01b0316610dd3565b604051938452929081906020820190565b0390a280f35b6040516327fcd9d160e01b8152600490fd5b6040516367e3990d60e01b8152600490fd5b604051630c8470bd60e41b8152600490fd5b50601854421115610d9a565b60405163fb141a0d60e01b8152600490fd5b604051633f72752760e21b8152600490fd5b95919360c095610ee0610f019560ff97610ef3959c9b9c60018060a01b03168b52151560208b015260e060408b015260e08a01906107b2565b91606089015287820360808901526107b2565b9085820360a08701526107b2565b9416910152565b3461047e57602036600319011261047e576004356000818152600260205260409020610f51906001600160a01b0390610f49905b546001600160a01b031690565b16151561343a565b6000610f5f60175460ff1690565b15610fbe57506003905b610844610f93610f8c610f7b84613cd1565b93600052601d602052604060002090565b5460ff1690565b92601054610f9f61189d565b90610fa86118b7565b90610fb16118c8565b9260405197889788610ea7565b600e5460155411610fd25750600190610f69565b601054421115610fe55750600290610f69565b90610f69565b3461047e57602036600319011261047e5761100461092b565b600d546001600160a01b039190821633148015611061575b61102590612dcc565b16806001600160601b0360a01b600b541617600b557ffc6a300fd572a7ad998e6f2e11421513f73c2e920602d23090ae226909308908600080a2005b50600a548216331461101c565b3461047e57602036600319011261047e5760043561108b81613cd1565b336001600160a01b039091160361114a576110b3610f8c82600052601d602052604060002090565b611138576110c2601054613493565b4211610e835760175460ff16611126576110f66110e982600052601d602052604060002090565b805460ff19166001179055565b60405142815233907faa5eb4d6707e5715467e6d9ceb94a60d0ddfadff0bb1d854a226f3459485dc9090602090a3005b60405163349bd75960e21b8152600490fd5b604051630869773360e41b8152600490fd5b6040516359dc379f60e01b8152600490fd5b3461047e57604036600319011261047e5760018060a01b03600d54166127106111926001600160601b03601c54166024356134e4565b604080516001600160a01b03949094168452919004602083015290f35b3461047e57602036600319011261047e576001600160a01b036111d061092b565b1660005260226020526020604060002054604051908152f35b3461047e57602036600319011261047e57600435600081815260026020526040902054611220906001600160a01b0316151561343a565b600052601d602052602060ff604060002054166040519015158152f35b3461047e57604036600319011261047e57602061126461125b61092b565b602435906134f7565b604051908152f35b3461047e57602036600319011261047e5761128561092b565b61128e8161358a565b61129781613224565b9160005b8281106112b8576040516020808252819061084490820187610a7f565b806112c5600192846134f7565b6112cf828761326c565b520161129b565b3461047e576109fb6112e736610cfb565b90604051926112f584610584565b60008452611304838383613285565b336140fa565b3461047e57602036600319011261047e576004356001600160601b03811680910361047e57600d5461135090336001600160a01b03918216149081156107765750612dcc565b6103e8811161136f576001600160601b0319601c541617601c55600080f35b60405162461bcd60e51b815260206004820152601060248201526f0a4def2c2d8e8f240e8dede40d0d2ced60831b6044820152606490fd5b3461047e57600036600319011261047e576020601054604051908152f35b3461047e57602036600319011261047e576004356008548110156114165760209060086000527ff3f7a9fe364faab93b216da50a3214154f22a0a2b415b23a84c8169e8b636ee30154604051908152f35b6044906040519063295f44f760e21b8252600060048301526024820152fd5b3461047e57600036600319011261047e57602060ff602154166040519015158152f35b3461047e57602036600319011261047e576004356000526023602052602060ff604060002054166040519015158152f35b90600182811c921680156114b9575b60208310146114a357565b634e487b7160e01b600052602260045260246000fd5b91607f1691611498565b601154600092916114d382611489565b8082529160209060019081811690811561155257506001146114f6575b50505050565b9293945060116000527f31ecc21a745e3968a04e9570e4425bc18fa8019c68028196b546d1669c200c68926000935b85851061153f5750505060209250010190388080806114f0565b8054858501840152938201938101611525565b92505050602093945060ff929192191683830152151560051b010190388080806114f0565b600f546000929161158782611489565b8082529160209060019081811690811561155257506001146115a95750505050565b92939450600f60005260008051602061478e833981519152926000935b8585106115e05750505060209250010190388080806114f0565b80548585018401529382019381016115c6565b6014546000929161160382611489565b8082529160209060019081811690811561155257506001146116255750505050565b92939450601460005260008051602061476e833981519152926000935b85851061165c5750505060209250010190388080806114f0565b8054858501840152938201938101611642565b6012546000929161167f82611489565b8082529160209060019081811690811561155257506001146116a15750505050565b9293945060126000527fbb8a6a4669ba250d26cd7a459eca9d215f8307e33aebe50379bc5a3617ec3444926000935b8585106116ea5750505060209250010190388080806114f0565b80548585018401529382019381016116d0565b6013546000929161170d82611489565b80825291602090600190818116908115611552575060011461172f5750505050565b9293945060136000527f66de8ffda797e3de9c05e8fc57b3bf0ec28a930d40b0d285d93c06501cf6a090926000935b8585106117785750505060209250010190388080806114f0565b805485850184015293820193810161175e565b6019546000929161179b82611489565b8082529160209060019081811690811561155257506001146117bd5750505050565b9293945060196000526000805160206147ae833981519152926000935b8585106117f45750505060209250010190388080806114f0565b80548585018401529382019381016117da565b80546000939261181682611489565b9182825260209360019160018116908160001461187e575060011461183d575b5050505050565b90939495506000929192528360002092846000945b83861061186a57505050500101903880808080611836565b805485870183015294019385908201611852565b60ff19168685015250505090151560051b010191503880808080611836565b604051906118b5826118ae81611577565b03836105ba565b565b604051906118b5826118ae816114c3565b604051906118b5826118ae816115f3565b604051906118b5826118ae8161166f565b604051906118b5826118ae816116fd565b604051906118b5826118ae8161178b565b906118b56118ae9260405193848092611807565b3461047e57602036600319011261047e57600435600052601e60205261084461195661195d604060002060405192838092611807565b03826105ba565b6040519182916020835260208301906107b2565b6000806003193601126108cc5760175460ff81166111265760081c60ff16611b2c57600e54601554811015611b1a576016543410611b08576119ba6119b582613557565b600e55565b333b15611af9576119cb8133613e13565b6119ef6119d6613f3f565b6119ea83600052601e602052604060002090565b613144565b611a07336109dc83600052601f602052604060002090565b34611a1b8260005260208052604060002090565b5580611a3181600052601e602052604060002090565b7fb89988e1d3e88c0f1c82060eacd83b1eeff9d84e2dceb882de0781fbb7c04fc560405180611a6233943483613566565b0390a3600b546001600160a01b031680611a82575b604051828152602090f35b600d546001600160a01b03169060165491813b15611af5576040516361b0c73960e01b81526001600160a01b0391909116600482015260016024820152604481019290925261084493908290606490829084905af115611a775780611ae9611aef9261056c565b80610784565b38611a77565b8480fd5b611b038133613d0c565b6119cb565b60405163cd1c886760e01b8152600490fd5b6040516352df9fe560e01b8152600490fd5b604051630e15836160e31b8152600490fd5b3461047e57600036600319011261047e5761084460405161195d81611956816116fd565b3461047e57600036600319011261047e57600d546040516001600160a01b039091168152602090f35b3461047e57602036600319011261047e576020611ba9600435613cd1565b6040516001600160a01b039091168152f35b3461047e576000806003193601126108cc57604051908082601b5491611be083611489565b9283835260209460019186600182169182600014611c7e575050600114611c24575b5050611c10925003836105ba565b6108446040519282849384528301906107b2565b90859250601b82527f3ad8aa4f87544323a9d1e5dd902f40c356527a7955687113db5f9a85ad579dc15b858310611c66575050611c1093508201013880611c02565b80548389018501528794508693909201918101611c4e565b9250935050611c1094915060ff191682840152151560051b8201013880611c02565b3461047e57600036600319011261047e5761084460405161195d81611956816115f3565b3461047e57600036600319011261047e5761084460405161195d816119568161166f565b95929160c09592611d08611d1b939a99969a60e08a5260e08a01906107b2565b91602089015287820360408901526107b2565b9660608601526080850152151560a08401521515910152565b3461047e576000806003193601126108cc5760105460165490601554600e548103908111611e4a57601754906040519085600f5490611d7282611489565b80855291602091600191828116908115611e1b5750600114611dd3575b50505050611da48261084495969703836105ba565b60405195611dbc87611db5816114c3565b03886105ba565b60405196879660ff808760081c1696169488611ce8565b9850600f895260008051602061478e8339815191525b838a10611e08575050505094810160200194611da48261084438611d8f565b8054868b01840152988201988101611de9565b60ff191660208089019190915294151560051b87019094019950611da493508592506108449150389050611d8f565b61347d565b3461047e57602036600319011261047e576020611264611e6d61092b565b61358a565b3461047e576000806003193601126108cc57611e8c613f84565b600a80546001600160a01b0319811690915581906001600160a01b03167f8be0079c531659141344cd1fd0a4f28419497f9722a3daafe3b4186f6b6457e08280a380f35b3461047e576000806003193601126108cc57604051908082601a5491611ef583611489565b9283835260209460019186600182169182600014611c7e575050600114611f24575050611c10925003836105ba565b90859250601a825260008051602061474e8339815191525b858310611f54575050611c1093508201013880611c02565b80548389018501528794508693909201918101611f3c565b3461047e57600036600319011261047e5761084460405161195d8161195681611577565b3461047e57611f9e3661062d565b600d54611fbf90336001600160a01b03918216149081156107765750612dcc565b80516001600160401b03811161057f57611fe381611fde601a54611489565b612ed8565b6020601f821160011461208157908061201292600091612076575b508160011b916000199060031b1c19161790565b601a555b805161201e57005b6120656120716109fb92604051908161203b6020820180936135c3565b039161204f601f19938481018352826105ba565b5190206040519384916020830160209181520190565b039081018352826105ba565b613060565b905083015138611ffe565b601a600052601f1982169060008051602061474e8339815191529160005b8181106120da575090836001949392106120c1575b5050811b01601a55612016565b84015160001960f88460031b161c1916905538806120b4565b9192602060018192868901518155019401920161209f565b3461047e57600036600319011261047e57600a546040516001600160a01b039091168152602090f35b3461047e57600036600319011261047e57600d5461214d90336001600160a01b03918216149081156107765750612dcc565b60175460ff8160081c16156121975761ff0019166017556040514281527f153e62e8cbf370987f79cde37897d15d96049c5da8601cc119746169febed1c99080602081015b0390a1005b60405162461bcd60e51b815260206004820152600a602482015269139bdd081c185d5cd95960b21b6044820152606490fd5b3461047e57600036600319011261047e5761084460405161195d816119568161178b565b3461047e576000806003193601126108cc576040519080600180549061221282611489565b808652926020926001811690811561089f575060011461223c5761084486610838818803826105ba565b9350600184527fb10e2d527612073b26eecdfd717e6a320cf44b4afac2b0732d9fcbe2b7fa0cf65b838510612281575050505081016020016108388261084438610828565b8054868601840152938201938101612264565b3461047e57602036600319011261047e57600435600052602080526020604060002054604051908152f35b3461047e57600036600319011261047e5760206001600160601b03601c5416604051908152f35b3461047e57604036600319011261047e576122ff61092b565b6024358015159081810361047e576001600160a01b03831692831561238a579061234b61235c9233600052600560205260406000209060018060a01b0316600052602052604060002090565b9060ff801983541691151516179055565b6040519081527f17307eab39ab6107e8899845ad3d59bd9653f200f220920489ca2b5937696c3160203392a3005b604051630b61174360e31b815260048101859052602490fd5b3461047e57600036600319011261047e57602060ff602554166040519015158152f35b3461047e57600036600319011261047e57602060ff60175460081c166040519015158152f35b3461047e576000806003193601126108cc5761241161240d60215460ff1690565b1590565b612634576018544211612622576124273361358a565b80156126105761243681613224565b82835b8381106125995750801561258757612453601654826134e4565b928347106125755761246482613224565b92855b83811061253657505033600090815260226020526040902061248a8382546134bf565b90556124a061249b856024546134bf565b602455565b8480808087335af16124b061340a565b50156125245781036124f05750610e3b7f4ab127485e25b893b831478744ce27218f38f11abcf85cab4bfe1454decaac6f916040519182913395836135f6565b907f0c7f7bd90e47f42337993bf872ab3fec1d437a69b7edc259f426f3dcbe8f430791610e3b6040519283923396846135da565b60405163cbe4e8c360e01b8152600490fd5b8061256f6125466001938561326c565b5161255e6110e9826000526023602052604060002090565b80612569848a61326c565b52613fb0565b01612467565b604051631e9acf1760e31b8152600490fd5b60405163a53c6c4f60e01b8152600490fd5b6125a381336134f7565b6125bd61240d610f8c83600052601d602052604060002090565b806125f0575b6125d1575b50600101612439565b826125e9916125e3600194958761326c565b52613557565b91906125c8565b5061260b61240d610f8c836000526023602052604060002090565b6125c3565b60405163a39a279f60e01b8152600490fd5b6040516336ad388960e11b8152600490fd5b6040516364547e6960e01b8152600490fd5b3461047e57600036600319011261047e57600d5461267890336001600160a01b03918216149081156107765750612dcc565b60175460ff8160081c166126c45761ff001916610100176017556040514281527ffdb456e665aa5cdbe3bd91babd696c20184ff9664fb5544c37869f078c2cd71c908060208101612192565b60405162461bcd60e51b815260206004820152600e60248201526d105b1c9958591e481c185d5cd95960921b6044820152606490fd5b3461047e57608036600319011261047e5761271361092b565b61271b610941565b90604435606435926001600160401b03841161047e573660238501121561047e576127536109fb9436906024816004013591016105f6565b92611304838383613285565b3461047e57600036600319011261047e576020602454604051908152f35b9390926080936127b29397969760018060a01b038092168752166020860152604085015260a0606085015260a08401906107b2565b931515910152565b3461047e5760208060031936011261047e57600435906108446000928084526002835260018060a01b03926127f684604087205416151561343a565b61283c60ff612834604061280986613cd1565b97868a52601f8652818a20541698858052601e8282205496522094600052601d602052604060002090565b54169261190c565b906040519586958661277d565b3461047e576128573661062d565b600d5461287890336001600160a01b03918216149081156107765750612dcc565b80516001600160401b03811161057f5761289c81612897601954611489565b612f38565b602080601f83116001146128d2575081906128cd936000926106f65750508160011b916000199060031b1c19161790565b601955005b90601f198316936128f360196000526000805160206147ae83398151915290565b926000905b86821061292f5750508360019510612916575b505050811b01601955005b015160001960f88460031b161c1916905538808061290b565b806001859682949686015181550195019301906128f8565b3461047e57602036600319011261047e5761084461195d600435613904565b3461047e57600036600319011261047e576020601554604051908152f35b3461047e57600036600319011261047e57601554600e548103908111611e4a57602090604051908152f35b3461047e57602036600319011261047e57600435600052601f602052602060018060a01b0360406000205416604051908152f35b3461047e57600036600319011261047e57602060ff601754166040519015158152f35b3461047e57600036600319011261047e576020601854604051908152f35b3461047e57600036600319011261047e5761084460405161195d81611956816114c3565b9b956106689f9d9891612af4989f9b9491612ab98f9298612b109f98612aab90612aff9f98612a9d90612ac798612a8a612aea9f6101e0808c528b01906107b2565b9160208a015288820360408a01526107b2565b9086820360608801526107b2565b9084820360808601526107b2565b9160a08184039101526107b2565b9d60c08d015260e08c01526101008b01526101208a015261014089019015159052565b1515610160870152565b60ff16610180850152565b6001600160a01b03166101a0830152565b6101c08184039101526107b2565b3461047e57600036600319011261047e5760175460ff811660008115612bb757506003915b601054916015549060165494600e54612b5c818561357d565b600d546001600160a01b03169390612b7261189d565b92612b7b6118b7565b99612b846118d9565b97612b8d6118ea565b612b956118c8565b90612b9e6118fb565b9a6040519e8f9e8f9e60081c60ff169a6108449f612a48565b600e5460155411612bcb5750600191612b43565b601054421115612bde5750600291612b43565b91612b43565b3461047e57604036600319011261047e57602060ff612c35612c0461092b565b612c0c610941565b6001600160a01b0391821660009081526005865260408082209290931681526020919091522090565b54166040519015158152f35b3461047e57602036600319011261047e576080612c64612c5f61092b565b613bc7565b916040519315158452602084015260408301526060820152f35b3461047e57602036600319011261047e57612c9761092b565b612c9f613f84565b6001600160a01b03908116908115612cee57600a54826001600160601b0360a01b821617600a55167f8be0079c531659141344cd1fd0a4f28419497f9722a3daafe3b4186f6b6457e0600080a3005b604051631e4fbdf760e01b815260006004820152602490fd5b3461047e57600036600319011261047e57600d54612d3990336001600160a01b03918216149081156107765750612dcc565b60175460ff8116612d935760019060ff191617601755612d61600160ff196021541617602155565b6040514281527fdc3cb569b066460f4a22dffa05317bdcce5d3826382ed49a21f13e5fa2063d39908060208101612192565b60405162461bcd60e51b8152602060048201526011602482015270105b1c9958591e4818d85b98d95b1b1959607a1b6044820152606490fd5b15612dd357565b60405162461bcd60e51b815260206004820152601760248201527f4f6e6c79206f7267616e697a6572206f72206f776e65720000000000000000006044820152606490fd5b601f8111612e24575050565b600090600f60005260008051602061478e833981519152906020601f850160051c83019410612e6e575b601f0160051c01915b828110612e6357505050565b818155600101612e57565b9092508290612e4e565b601f8111612e84575050565b600090601460005260008051602061476e833981519152906020601f850160051c83019410612ece575b601f0160051c01915b828110612ec357505050565b818155600101612eb7565b9092508290612eae565b601f8111612ee4575050565b600090601a60005260008051602061474e833981519152906020601f850160051c83019410612f2e575b601f0160051c01915b828110612f2357505050565b818155600101612f17565b9092508290612f0e565b601f8111612f44575050565b60009060196000526000805160206147ae833981519152906020601f850160051c83019410612f8e575b601f0160051c01915b828110612f8357505050565b818155600101612f77565b9092508290612f6e565b601f8111612fa4575050565b600090601b6000527f3ad8aa4f87544323a9d1e5dd902f40c356527a7955687113db5f9a85ad579dc1906020601f850160051c83019410613000575b601f0160051c01915b828110612ff557505050565b818155600101612fe9565b9092508290612fe0565b90601f811161301857505050565b6000916000526020600020906020601f850160051c83019410613056575b601f0160051c01915b82811061304b57505050565b81815560010161303f565b9092508290613036565b9081516001600160401b03811161057f5761308581613080601b54611489565b612f98565b602080601f83116001146130bc575081906130b793946000926106f65750508160011b916000199060031b1c19161790565b601b55565b90601f198316946130ef601b6000527f3ad8aa4f87544323a9d1e5dd902f40c356527a7955687113db5f9a85ad579dc190565b926000905b87821061312c575050836001959610613113575b505050811b01601b55565b015160001960f88460031b161c19169055388080613108565b806001859682949686015181550195019301906130f4565b91909182516001600160401b03811161057f5761316b816131658454611489565b8461300a565b602080601f83116001146131a25750819061319e9394956000926106f65750508160011b916000199060031b1c19161790565b9055565b90601f198316956131b885600052602060002090565b926000905b8882106131f5575050836001959697106131dc575b505050811b019055565b015160001960f88460031b161c191690553880806131d2565b806001859682949686015181550195019301906131bd565b6001600160401b03811161057f5760051b60200190565b9061322e8261320d565b61323b60405191826105ba565b828152809261324c601f199161320d565b0190602036910137565b634e487b7160e01b600052603260045260246000fd5b80518210156132805760209160051b010190565b613256565b6001600160a01b038281169290919083156133de5760008581526002602052604090205485906001600160a01b031694336133ce575b84861695861580156133a0575b6001600160a01b0385166000908152600360205260409020600181540190556132ff856109dc866000526002602052604060002090565b8383897fddf252ad1be2c89b69c2b068fc378daa952ba7f163c4a11628f55a4df523b3ef600080a4156133805750613336826144f2565b8503613370575b5050169182820361334d57505050565b60649350604051926364283d7b60e01b8452600484015260248301526044820152fd5b6133799161454f565b388461333d565b82828803613390575b5050613336565b61339991614482565b3882613389565b6133a98461445e565b6001600160a01b038216600090815260036020526040902080546000190190556132c8565b6133d9823388614674565b6132bb565b604051633250574960e11b815260006004820152602490fd5b6040519061340482610584565b60008252565b3d15613435573d9061341b826105db565b9161342960405193846105ba565b82523d6000602084013e565b606090565b1561344157565b60405162461bcd60e51b8152602060048201526014602482015273151bdad95b88191bd95cc81b9bdd08195e1a5cdd60621b6044820152606490fd5b634e487b7160e01b600052601160045260246000fd5b90620151808201809211611e4a57565b9060028201809211611e4a57565b9060208201809211611e4a57565b91908201809211611e4a57565b600281901b91906001600160fe1b03811603611e4a57565b81810292918115918404141715611e4a57565b6135008161358a565b82101561352c5760018060a01b0316600052600660205260406000209060005260205260406000205490565b60405163295f44f760e21b81526001600160a01b039190911660048201526024810191909152604490fd5b6000198114611e4a5760010190565b604090610668939281528160208201520190611807565b91908203918211611e4a57565b6001600160a01b031680156135aa57600052600360205260406000205490565b6040516322718ad960e21b815260006004820152602490fd5b906135d66020928281519485920161078f565b0190565b6106689392606092825260208201528160408201520190610a7f565b604090610668939281528160208201520190610a7f565b601a546000929161361d82611489565b91600190818116908115613677575060011461363857505050565b9091929350601a60005260008051602061474e833981519152906000915b848310613664575050500190565b8181602092548587015201920191613656565b60ff191683525050811515909102019150565b600f546000929161369a82611489565b9160019081811690811561367757506001146136b557505050565b9091929350600f60005260008051602061478e833981519152906000915b8483106136e1575050500190565b81816020925485870152019201916136d3565b6019546000929161370482611489565b91600190818116908115613677575060011461371f57505050565b909192935060196000526000805160206147ae833981519152906000915b84831061374b575050500190565b818160209254858701520192019161373d565b6014546000929161376e82611489565b91600190818116908115613677575060011461378957505050565b9091929350601460005260008051602061476e833981519152906000915b8483106137b5575050500190565b81816020925485870152019201916137a7565b601154600092916137d882611489565b9160019081811690811561367757506001146137f357505050565b909192935060116000527f31ecc21a745e3968a04e9570e4425bc18fa8019c68028196b546d1669c200c68906000915b848310613831575050500190565b8181602092548587015201920191613823565b60009291815461385381611489565b926001918083169081156138ac575060011461386f5750505050565b9091929394506000526020906020600020906000915b85831061389b57505050500190388080806114f0565b805485840152918301918101613885565b60ff19168452505050811515909102019150388080806114f0565b604051906138d48261059f565b60028252614e6f60f01b6020830152565b604051906138f28261059f565b600382526259657360e81b6020830152565b6000818152600260205260409020613928906001600160a01b0390610f4990610f3c565b613933601a54611489565b613b7e57613940816141b8565b613957610f8c83600052601d602052604060002090565b15613b73576139786139676138e5565b92600052601e602052604060002090565b604051683d913730b6b2911d1160b91b602082015292839261399c6029850161368a565b68205469636b6574202360b81b81526009016139b7916135c3565b701116113232b9b1b934b83a34b7b7111d1160791b81526011016139da906136f4565b6a11161134b6b0b3b2911d1160a91b8152600b016139f79061375e565b6f222c2261747472696275746573223a5b60801b81526010017f7b2274726169745f74797065223a224576656e74222c2276616c7565223a22008152601f01613a3f9061368a565b62089f4b60ea1b81526003017f7b2274726169745f74797065223a2256656e7565222c2276616c7565223a22008152601f01613a7a906137c8565b62089f4b60ea1b81526003017f7b2274726169745f74797065223a2255736564222c2276616c7565223a2200008152601e01613ab5916135c3565b62089f4b60ea1b81526003017f7b2274726169745f74797065223a22427579657220436861696e222c2276616c8152643ab2911d1160d91b6020820152602501613afe91613844565b63227d5d7d60e01b81526004010390601f19918281018252613b2090826105ba565b613b299061436b565b6040517f646174613a6170706c69636174696f6e2f6a736f6e3b6261736536342c000000602082015291908290603d8201613b63916135c3565b03908101825261066890826105ba565b6139786139676138c7565b610668613b8d613ba8926141b8565b613bb9604051938492613ba26020850161360d565b906135c3565b64173539b7b760d91b815260050190565b03601f1981018352826105ba565b613bd661240d60215460ff1690565b8015613cc6575b613cb757613bea8161358a565b918215613caa576000928392845b828110613c36575050508215159081613c1f575b613c18601654856134e4565b9193929190565b905047613c2e601654856134e4565b111590613c0c565b613c4081836134f7565b613c57610f8c826000526023602052604060002090565b15613c6757506001905b01613bf8565b610f8c613c8191969296600052601d602052604060002090565b15613c9757613c91600191613557565b94613c61565b9394613ca4600191613557565b95613c61565b6000925082915081908190565b50600090600090600090600090565b506018544211613bdd565b6000818152600260205260409020546001600160a01b0316908115613cf4575090565b60249060405190637e27328960e01b82526004820152fd5b90604051613d1981610584565b60008152613d278284613e13565b823b613d3257505050565b6020613d559160405180938192630a85bd0160e11b96878452336004850161409e565b038160006001600160a01b0388165af160009181613de2575b50613dad5782613d7c61340a565b8051919082613da657604051633250574960e11b81526001600160a01b0383166004820152602490fd5b6020915001fd5b6001600160e01b03191603613dbf5750565b604051633250574960e11b81526001600160a01b03919091166004820152602490fd5b613e0591925060203d602011613e0c575b613dfd81836105ba565b810190614089565b9038613d6e565b503d613df3565b6001600160a01b039181831680156133de576000828152600260205260409020546001600160a01b031693841680159485159586613f11575b6001600160a01b038616600090815260036020526040902060018154019055613e83866109dc876000526002602052604060002090565b8484847fddf252ad1be2c89b69c2b068fc378daa952ba7f163c4a11628f55a4df523b3ef600080a415613ef15750613eba836144f2565b03613ee1575b5050613ec857565b6040516339e3563760e11b815260006004820152602490fd5b613eea9161454f565b3880613ec0565b83838303613f01575b5050613eba565b613f0a91614482565b3883613efa565b613f1a8561445e565b6001600160a01b03821660009081526003602052604090208054600019019055613e4c565b613f48466141b8565b610668602660405180936531b430b4b71d60d11b6020830152613f74815180926020868601910161078f565b81010360068101845201826105ba565b600a546001600160a01b03163303613f9857565b60405163118cdaa760e01b8152336004820152602490fd5b6000818152600260205260409020546001600160a01b03168015908282158061405b575b613fe8826000526002602052604060002090565b80546001600160a01b0319169055816000847fddf252ad1be2c89b69c2b068fc378daa952ba7f163c4a11628f55a4df523b3ef8280a4831561403f575061402f91506144f2565b61403882614596565b613cf45750565b61404b575b505061402f565b61405491614482565b3882614044565b6140648261445e565b6001600160a01b03831660009081526003602052604090208054600019019055613fd4565b9081602091031261047e57516106688161046c565b610668939260809260018060a01b0316825260006020830152604082015281606082015201906107b2565b6001600160a01b039182168152911660208201526040810191909152608060608201819052610668929101906107b2565b92939193843b61410b575050505050565b60209161412e6040519485938493630a85bd0160e11b98898652600486016140c9565b038160006001600160a01b0388165af16000918161416f575b506141555782613d7c61340a565b6001600160e01b03191603613dbf57503880808080611836565b61418991925060203d602011613e0c57613dfd81836105ba565b9038614147565b9061419a826105db565b6141a760405191826105ba565b828152809261324c601f19916105db565b806000917a184f03e93ff9f4daa797ed6e38ed64bf6a1f010000000000000000808210156142ee575b506d04ee2d6d415b85acef8100000000808310156142df575b50662386f26fc10000808310156142d0575b506305f5e100808310156142c1575b50612710808310156142b2575b5060648210156142a2575b600a80921015614298575b60019081602161425060018701614190565b95860101905b614262575b5050505090565b600019019083906f181899199a1a9b1b9c1cb0b131b232b360811b8282061a83530491821561429357919082614256565b61425b565b916001019161423e565b9190606460029104910191614233565b60049193920491019138614228565b6008919392049101913861421b565b6010919392049101913861420c565b602091939204910191386141fa565b6040935081049150386141e1565b60405190606082018281106001600160401b0382111761057f57604052604082527f6768696a6b6c6d6e6f707172737475767778797a303132333435363738392b2f6040837f4142434445464748494a4b4c4d4e4f505152535455565758595a61626364656660208201520152565b8051156144555761437a6142fc565b61439661439161438a84516134a3565b6003900490565b6134cc565b916143a86143a3846134b1565b614190565b92835280815182019060208501935b8282106143f9575050506003905106806001146143e8576002146143d9575090565b603d60f81b6000199091015290565b50613d3d60f01b6001199091015290565b90919360049060038094019384516001603f81818460121c16880101519260f893841b8652828282600c1c1689010151841b8387015282828260061c1689010151841b60028701521686010151901b90820152019391906143b7565b506106686133f7565b614472906000526004602052604060002090565b80546001600160a01b0319169055565b9061448c8261358a565b9160009282845260209060078252604093848620549360018060a01b0316865260068352848620938281036144d0575b508552600782528484812055845252812055565b82875284845285872054818852808789205587526007845285872055386144bc565b600854816000526009602052806040600020556801000000000000000081101561057f5760018101806008558110156132805760086000527ff3f7a9fe364faab93b216da50a3214154f22a0a2b415b23a84c8169e8b636ee30155565b906145598261358a565b600019810192908311611e4a576001600160a01b031660009081526006602090815260408083208584528252808320849055928252600790522055565b6008805460001992838201828111611e4a576000928284526009602052806040852054921015613280578484527ff3f7a9fe364faab93b216da50a3214154f22a0a2b415b23a84c8169e8b636ee29283820154918310156132805784926146326146439388865280837ff3f7a9fe364faab93b216da50a3214154f22a0a2b415b23a84c8169e8b636ee301556000526009602052604060002090565b556000526009602052604060002090565b558254938415614660578401938085101561328057838352015555565b634e487b7160e01b83526031600452602483fd5b6001600160a01b039082821680151590816146df575b50156146965750505050565b166146b457604051637e27328960e01b815260048101839052602490fd5b60405163177e802f60e01b81526001600160a01b039190911660048201526024810191909152604490fd5b82841680821492508215614717575b5081156146fd575b503861468a565b9050846000526004602052826040600020541614386146f6565b909150600052600560205260ff6147448560406000209060018060a01b0316600052602052604060002090565b541690386146ee56fe057c384a7d1c54f3a1b2e5e67b2617b8224fdfd1ea7234eea573a6ff665ff63ece6d7b5282bd9a3661ae061feed1dbda4e52ab073b1f9285be6e155d9c38d4ec8d1108e10bcb7c27dddfc02ed9d693a074039d026cf4ea4240b40f7d581ac802944998273e477b495144fb8794c914197f3ccb46be2900f4698fd0ef743c9695a2646970667358221220a3b4ca29b66289b589239413cc10dc596b46cab0a14411b17c0735197d15a39f64736f6c63430008160033bb8a6a4669ba250d26cd7a459eca9d215f8307e33aebe50379bc5a3617ec344431ecc21a745e3968a04e9570e4425bc18fa8019c68028196b546d1669c200c68290decd9548b62a8d60345a988386fc84ba6bc95484008f6362f93160ef3e5633ad8aa4f87544323a9d1e5dd902f40c356527a7955687113db5f9a85ad579dc166de8ffda797e3de9c05e8fc57b3bf0ec28a930d40b0d285d93c06501cf6a090057c384a7d1c54f3a1b2e5e67b2617b8224fdfd1ea7234eea573a6ff665ff63eb10e2d527612073b26eecdfd717e6a320cf44b4afac2b0732d9fcbe2b7fa0cf6ce6d7b5282bd9a3661ae061feed1dbda4e52ab073b1f9285be6e155d9c38d4ec8d1108e10bcb7c27dddfc02ed9d693a074039d026cf4ea4240b40f7d581ac802","opcodes":"PUSH1 0x80 PUSH1 0x40 DUP2 DUP2 MSTORE CALLVALUE PUSH3 0x6B1 JUMPI PUSH3 0x5B48 DUP1 CODESIZE SUB DUP1 SWAP2 PUSH3 0x21 DUP3 DUP7 PUSH3 0x1180 JUMP JUMPDEST DUP5 CODECOPY DUP3 ADD SWAP2 PUSH2 0x1A0 DUP2 DUP5 SUB SLT PUSH3 0x6B1 JUMPI DUP1 MLOAD PUSH1 0x20 DUP3 ADD MLOAD DUP4 DUP4 ADD MLOAD PUSH1 0x1 PUSH1 0x1 PUSH1 0x40 SHL SUB DUP2 GT PUSH3 0x6B1 JUMPI DUP6 PUSH3 0x5A SWAP2 DUP6 ADD PUSH3 0x11C9 JUMP JUMPDEST PUSH1 0x60 DUP5 ADD MLOAD SWAP1 SWAP3 SWAP1 PUSH1 0x1 PUSH1 0x1 PUSH1 0x40 SHL SUB DUP2 GT PUSH3 0x6B1 JUMPI DUP7 PUSH3 0x7F SWAP2 DUP7 ADD PUSH3 0x11C9 JUMP JUMPDEST PUSH1 0x80 DUP6 ADD MLOAD SWAP1 SWAP3 SWAP1 PUSH1 0x1 PUSH1 0x1 PUSH1 0x40 SHL SUB DUP2 GT PUSH3 0x6B1 JUMPI DUP8 PUSH3 0xA4 SWAP2 DUP8 ADD PUSH3 0x11C9 JUMP JUMPDEST PUSH1 0xA0 DUP7 ADD MLOAD PUSH1 0xC0 DUP8 ADD MLOAD SWAP1 SWAP6 SWAP1 PUSH1 0x1 PUSH1 0x1 PUSH1 0x40 SHL SUB DUP2 GT PUSH3 0x6B1 JUMPI DUP10 PUSH3 0xCE SWAP2 DUP10 ADD PUSH3 0x11C9 JUMP JUMPDEST PUSH1 0xE0 DUP9 ADD MLOAD SWAP1 SWAP3 SWAP1 PUSH1 0x1 PUSH1 0x1 PUSH1 0x40 SHL SUB DUP2 GT PUSH3 0x6B1 JUMPI DUP11 PUSH3 0xF3 SWAP2 DUP11 ADD PUSH3 0x11C9 JUMP JUMPDEST PUSH2 0x100 DUP10 ADD MLOAD SWAP1 SWAP5 SWAP1 PUSH1 0x1 PUSH1 0x1 PUSH1 0x40 SHL SUB DUP2 GT PUSH3 0x6B1 JUMPI DUP12 PUSH3 0x119 SWAP2 DUP12 ADD PUSH3 0x11C9 JUMP JUMPDEST PUSH2 0x120 DUP11 ADD MLOAD SWAP1 SWAP7 SWAP1 PUSH1 0x1 PUSH1 0x1 PUSH1 0x40 SHL SUB DUP2 GT PUSH3 0x6B1 JUMPI DUP13 PUSH3 0x13F SWAP2 DUP13 ADD PUSH3 0x11C9 JUMP JUMPDEST PUSH2 0x140 DUP12 ADD MLOAD SWAP1 SWAP9 SWAP1 PUSH1 0x1 PUSH1 0x1 PUSH1 0x40 SHL SUB DUP2 GT PUSH3 0x6B1 JUMPI DUP14 PUSH3 0x165 SWAP2 DUP14 ADD PUSH3 0x11C9 JUMP JUMPDEST PUSH2 0x160 DUP13 ADD MLOAD SWAP14 SWAP1 SWAP12 SWAP1 PUSH1 0x1 PUSH1 0x1 PUSH1 0xA0 SHL SUB DUP16 AND DUP16 SWAP1 SUB PUSH3 0x6B1 JUMPI PUSH2 0x180 DUP3 ADD MLOAD PUSH1 0x1 PUSH1 0x1 PUSH1 0x40 SHL SUB DUP2 GT PUSH3 0x6B1 JUMPI PUSH3 0x1A2 SWAP3 ADD PUSH3 0x11C9 JUMP JUMPDEST DUP6 MLOAD SWAP1 SWAP6 PUSH1 0x1 PUSH1 0x1 PUSH1 0x40 SHL SUB DUP3 GT PUSH3 0x888 JUMPI PUSH1 0x0 SLOAD SWAP1 PUSH1 0x1 DUP3 DUP2 SHR SWAP3 AND DUP1 ISZERO PUSH3 0x1175 JUMPI JUMPDEST PUSH1 0x20 DUP4 LT EQ PUSH3 0x867 JUMPI DUP2 PUSH1 0x1F DUP5 SWAP4 GT PUSH3 0x1115 JUMPI JUMPDEST POP PUSH1 0x20 SWAP1 PUSH1 0x1F DUP4 GT PUSH1 0x1 EQ PUSH3 0x1099 JUMPI PUSH1 0x0 SWAP3 PUSH3 0x108D JUMPI JUMPDEST POP POP DUP2 PUSH1 0x1 SHL SWAP2 PUSH1 0x0 NOT SWAP1 PUSH1 0x3 SHL SHR NOT AND OR PUSH1 0x0 SSTORE JUMPDEST DUP1 MLOAD SWAP1 PUSH1 0x1 PUSH1 0x1 PUSH1 0x40 SHL SUB DUP3 GT PUSH3 0x888 JUMPI PUSH1 0x1 SLOAD SWAP1 PUSH1 0x1 DUP3 DUP2 SHR SWAP3 AND DUP1 ISZERO PUSH3 0x1082 JUMPI JUMPDEST PUSH1 0x20 DUP4 LT EQ PUSH3 0x867 JUMPI DUP2 PUSH1 0x1F DUP5 SWAP4 GT PUSH3 0x1021 JUMPI JUMPDEST POP PUSH1 0x20 SWAP1 PUSH1 0x1F DUP4 GT PUSH1 0x1 EQ PUSH3 0xFA7 JUMPI PUSH1 0x0 SWAP3 PUSH3 0xF9B JUMPI JUMPDEST POP POP DUP2 PUSH1 0x1 SHL SWAP2 PUSH1 0x0 NOT SWAP1 PUSH1 0x3 SHL SHR NOT AND OR PUSH1 0x1 SSTORE JUMPDEST CALLER ISZERO PUSH3 0xF83 JUMPI PUSH1 0xA DUP1 SLOAD CALLER PUSH1 0x1 PUSH1 0x1 PUSH1 0xA0 SHL SUB NOT DUP3 AND DUP2 OR SWAP1 SWAP3 SSTORE PUSH1 0x1 PUSH1 0x1 PUSH1 0xA0 SHL SUB AND PUSH32 0x8BE0079C531659141344CD1FD0A4F28419497F9722A3DAAFE3B4186F6B6457E0 PUSH1 0x0 DUP1 LOG3 PUSH1 0x15 SSTORE PUSH1 0x16 SSTORE DUP1 MLOAD SWAP1 PUSH1 0x1 PUSH1 0x1 PUSH1 0x40 SHL SUB DUP3 GT PUSH3 0x888 JUMPI PUSH1 0xF SLOAD SWAP1 PUSH1 0x1 DUP3 DUP2 SHR SWAP3 AND DUP1 ISZERO PUSH3 0xF78 JUMPI JUMPDEST PUSH1 0x20 DUP4 LT EQ PUSH3 0x867 JUMPI DUP2 PUSH1 0x1F DUP5 SWAP4 GT PUSH3 0xF17 JUMPI JUMPDEST POP PUSH1 0x20 SWAP1 PUSH1 0x1F DUP4 GT PUSH1 0x1 EQ PUSH3 0xE99 JUMPI PUSH1 0x0 SWAP3 PUSH3 0xE8D JUMPI JUMPDEST POP POP DUP2 PUSH1 0x1 SHL SWAP2 PUSH1 0x0 NOT SWAP1 PUSH1 0x3 SHL SHR NOT AND OR PUSH1 0xF SSTORE JUMPDEST DUP1 MLOAD SWAP1 PUSH1 0x1 PUSH1 0x1 PUSH1 0x40 SHL SUB DUP3 GT PUSH3 0x888 JUMPI PUSH1 0x19 SLOAD SWAP1 PUSH1 0x1 DUP3 DUP2 SHR SWAP3 AND DUP1 ISZERO PUSH3 0xE82 JUMPI JUMPDEST PUSH1 0x20 DUP4 LT EQ PUSH3 0x867 JUMPI DUP2 PUSH1 0x1F DUP5 SWAP4 GT PUSH3 0xE10 JUMPI JUMPDEST POP PUSH1 0x20 SWAP1 PUSH1 0x1F DUP4 GT PUSH1 0x1 EQ PUSH3 0xD81 JUMPI PUSH1 0x0 SWAP3 PUSH3 0xD75 JUMPI JUMPDEST POP POP DUP2 PUSH1 0x1 SHL SWAP2 PUSH1 0x0 NOT SWAP1 PUSH1 0x3 SHL SHR NOT AND OR PUSH1 0x19 SSTORE JUMPDEST PUSH1 0x10 DUP6 SWAP1 SSTORE DUP1 MLOAD SWAP1 PUSH1 0x1 PUSH1 0x1 PUSH1 0x40 SHL SUB DUP3 GT PUSH3 0x888 JUMPI PUSH1 0x11 SLOAD SWAP1 PUSH1 0x1 DUP3 DUP2 SHR SWAP3 AND DUP1 ISZERO PUSH3 0xD6A JUMPI JUMPDEST PUSH1 0x20 DUP4 LT EQ PUSH3 0x867 JUMPI DUP2 PUSH1 0x1F DUP5 SWAP4 GT PUSH3 0xD09 JUMPI JUMPDEST POP PUSH1 0x20 SWAP1 PUSH1 0x1F DUP4 GT PUSH1 0x1 EQ PUSH3 0xC8B JUMPI PUSH1 0x0 SWAP3 PUSH3 0xC7F JUMPI JUMPDEST POP POP DUP2 PUSH1 0x1 SHL SWAP2 PUSH1 0x0 NOT SWAP1 PUSH1 0x3 SHL SHR NOT AND OR PUSH1 0x11 SSTORE JUMPDEST DUP1 MLOAD SWAP1 PUSH1 0x1 PUSH1 0x1 PUSH1 0x40 SHL SUB DUP3 GT PUSH3 0x888 JUMPI PUSH1 0x12 SLOAD SWAP1 PUSH1 0x1 DUP3 DUP2 SHR SWAP3 AND DUP1 ISZERO PUSH3 0xC74 JUMPI JUMPDEST PUSH1 0x20 DUP4 LT EQ PUSH3 0x867 JUMPI DUP2 PUSH1 0x1F DUP5 SWAP4 GT PUSH3 0xC10 JUMPI JUMPDEST POP PUSH1 0x20 SWAP1 PUSH1 0x1F DUP4 GT PUSH1 0x1 EQ PUSH3 0xB92 JUMPI PUSH1 0x0 SWAP3 PUSH3 0xB86 JUMPI JUMPDEST POP POP DUP2 PUSH1 0x1 SHL SWAP2 PUSH1 0x0 NOT SWAP1 PUSH1 0x3 SHL SHR NOT AND OR PUSH1 0x12 SSTORE JUMPDEST DUP1 MLOAD SWAP1 PUSH1 0x1 PUSH1 0x1 PUSH1 0x40 SHL SUB DUP3 GT PUSH3 0x888 JUMPI PUSH1 0x13 SLOAD SWAP1 PUSH1 0x1 DUP3 DUP2 SHR SWAP3 AND DUP1 ISZERO PUSH3 0xB7B JUMPI JUMPDEST PUSH1 0x20 DUP4 LT EQ PUSH3 0x867 JUMPI DUP2 PUSH1 0x1F DUP5 SWAP4 GT PUSH3 0xB17 JUMPI JUMPDEST POP PUSH1 0x20 SWAP1 PUSH1 0x1F DUP4 GT PUSH1 0x1 EQ PUSH3 0xA9D JUMPI PUSH1 0x0 SWAP3 PUSH3 0xA91 JUMPI JUMPDEST POP POP DUP2 PUSH1 0x1 SHL SWAP2 PUSH1 0x0 NOT SWAP1 PUSH1 0x3 SHL SHR NOT AND OR PUSH1 0x13 SSTORE JUMPDEST DUP1 MLOAD SWAP1 PUSH1 0x1 PUSH1 0x1 PUSH1 0x40 SHL SUB DUP3 GT PUSH3 0x888 JUMPI PUSH1 0x14 SLOAD SWAP1 PUSH1 0x1 DUP3 DUP2 SHR SWAP3 AND DUP1 ISZERO PUSH3 0xA86 JUMPI JUMPDEST PUSH1 0x20 DUP4 LT EQ PUSH3 0x867 JUMPI DUP2 PUSH1 0x1F DUP5 SWAP4 GT PUSH3 0xA22 JUMPI JUMPDEST POP PUSH1 0x20 SWAP1 PUSH1 0x1F DUP4 GT PUSH1 0x1 EQ PUSH3 0x9A8 JUMPI PUSH1 0x0 SWAP3 PUSH3 0x99C JUMPI JUMPDEST POP POP DUP2 PUSH1 0x1 SHL SWAP2 PUSH1 0x0 NOT SWAP1 PUSH1 0x3 SHL SHR NOT AND OR PUSH1 0x14 SSTORE JUMPDEST DUP2 MLOAD PUSH1 0x1 PUSH1 0x1 PUSH1 0x40 SHL SUB DUP2 GT PUSH3 0x888 JUMPI PUSH1 0x1A SLOAD PUSH1 0x1 DUP2 DUP2 SHR SWAP2 AND DUP1 ISZERO PUSH3 0x991 JUMPI JUMPDEST PUSH1 0x20 DUP3 LT EQ PUSH3 0x867 JUMPI PUSH1 0x1F DUP2 GT PUSH3 0x938 JUMPI JUMPDEST POP DUP1 PUSH1 0x20 PUSH1 0x1F DUP3 GT PUSH1 0x1 EQ PUSH3 0x8C0 JUMPI PUSH1 0x0 SWAP2 PUSH3 0x8B4 JUMPI JUMPDEST POP DUP2 PUSH1 0x1 SHL SWAP2 PUSH1 0x0 NOT SWAP1 PUSH1 0x3 SHL SHR NOT AND OR PUSH1 0x1A SSTORE JUMPDEST PUSH1 0x0 PUSH1 0xC SSTORE PUSH1 0xD DUP1 SLOAD PUSH1 0x1 PUSH1 0x1 PUSH1 0xA0 SHL SUB NOT SWAP1 DUP2 AND CALLER OR SWAP1 SWAP2 SSTORE PUSH1 0xB DUP1 SLOAD SWAP1 SWAP2 AND PUSH1 0x1 PUSH1 0x1 PUSH1 0xA0 SHL SUB DUP7 AND OR SWAP1 SSTORE PUSH1 0x1C DUP1 SLOAD PUSH1 0x1 PUSH1 0x1 PUSH1 0x60 SHL SUB NOT AND PUSH1 0xFA OR SWAP1 SSTORE PUSH3 0x278D00 DUP2 ADD SWAP1 DUP2 LT PUSH3 0x89E JUMPI PUSH1 0x18 SSTORE DUP1 MLOAD SWAP1 DUP2 PUSH3 0x6BF JUMPI JUMPDEST POP SWAP1 SWAP2 SWAP1 POP PUSH1 0x1 PUSH1 0x1 PUSH1 0xA0 SHL SUB DUP2 AND PUSH3 0x62D JUMPI JUMPDEST POP MLOAD PUSH2 0x4803 SWAP1 DUP2 PUSH3 0x1225 DUP3 CODECOPY RETURN JUMPDEST DUP2 MLOAD PUSH4 0xDFDD329 PUSH1 0xE1 SHL DUP2 MSTORE ADDRESS PUSH1 0x4 DUP3 ADD MSTORE CALLER PUSH1 0x24 DUP3 ADD MSTORE PUSH1 0x0 PUSH1 0x44 DUP3 ADD DUP2 SWAP1 MSTORE SWAP1 SWAP2 PUSH1 0x20 SWAP2 DUP4 SWAP2 PUSH1 0x64 SWAP2 DUP4 SWAP2 PUSH1 0x1 PUSH1 0x1 PUSH1 0xA0 SHL SUB AND GAS CALL PUSH1 0x0 SWAP2 DUP2 PUSH3 0x680 JUMPI JUMPDEST POP ISZERO PUSH3 0x61E JUMPI PUSH1 0xC SSTORE CODESIZE PUSH3 0x61E JUMP JUMPDEST SWAP1 SWAP2 POP PUSH1 0x20 DUP2 RETURNDATASIZE PUSH1 0x20 GT PUSH3 0x6B6 JUMPI JUMPDEST DUP2 PUSH3 0x69F PUSH1 0x20 SWAP4 DUP4 PUSH3 0x1180 JUMP JUMPDEST DUP2 ADD SUB SLT PUSH3 0x6B1 JUMPI MLOAD SWAP1 CODESIZE PUSH3 0x66F JUMP JUMPDEST PUSH1 0x0 DUP1 REVERT JUMPDEST RETURNDATASIZE SWAP2 POP PUSH3 0x690 JUMP JUMPDEST SWAP1 PUSH3 0x6ED PUSH1 0x20 DUP1 SWAP4 DUP4 PUSH3 0x6DF DUP8 MLOAD SWAP6 DUP7 SWAP4 DUP6 DUP6 ADD SWAP9 DUP10 SWAP2 ADD PUSH3 0x11A4 JUMP JUMPDEST DUP2 ADD SUB DUP1 DUP5 MSTORE ADD DUP3 PUSH3 0x1180 JUMP JUMPDEST MLOAD SWAP1 KECCAK256 DUP2 MLOAD PUSH1 0x20 DUP1 DUP3 ADD SWAP3 SWAP1 SWAP3 MSTORE SWAP1 DUP2 MSTORE SWAP2 DUP3 DUP3 ADD PUSH1 0x1 PUSH1 0x1 PUSH1 0x40 SHL SUB DUP2 GT DUP5 DUP3 LT OR PUSH3 0x888 JUMPI DUP3 MSTORE DUP3 MLOAD PUSH1 0x1 PUSH1 0x1 PUSH1 0x40 SHL SUB DUP2 GT PUSH3 0x888 JUMPI PUSH1 0x1B SLOAD PUSH1 0x1 DUP2 DUP2 SHR SWAP2 AND DUP1 ISZERO PUSH3 0x87D JUMPI JUMPDEST PUSH1 0x20 DUP3 LT EQ PUSH3 0x867 JUMPI PUSH1 0x1F DUP2 GT PUSH3 0x80E JUMPI JUMPDEST POP PUSH1 0x20 PUSH1 0x1F DUP3 GT PUSH1 0x1 EQ PUSH3 0x795 JUMPI DUP2 SWAP3 SWAP4 SWAP5 PUSH1 0x0 SWAP3 PUSH3 0x789 JUMPI JUMPDEST POP POP DUP2 PUSH1 0x1 SHL SWAP2 PUSH1 0x0 NOT SWAP1 PUSH1 0x3 SHL SHR NOT AND OR PUSH1 0x1B SSTORE JUMPDEST SWAP1 CODESIZE DUP1 PUSH3 0x609 JUMP JUMPDEST ADD MLOAD SWAP1 POP CODESIZE DUP1 PUSH3 0x76A JUMP JUMPDEST PUSH1 0x1B PUSH1 0x0 SWAP1 DUP2 MSTORE PUSH1 0x0 DUP1 MLOAD PUSH1 0x20 PUSH3 0x5A88 DUP4 CODECOPY DUP2 MLOAD SWAP2 MSTORE SWAP2 SWAP1 PUSH1 0x1F NOT DUP5 AND SWAP1 JUMPDEST DUP2 DUP2 LT PUSH3 0x7F5 JUMPI POP SWAP6 DUP4 PUSH1 0x1 SWAP6 SWAP7 SWAP8 LT PUSH3 0x7DB JUMPI JUMPDEST POP POP POP DUP2 SHL ADD PUSH1 0x1B SSTORE PUSH3 0x780 JUMP JUMPDEST ADD MLOAD PUSH1 0x0 NOT PUSH1 0xF8 DUP5 PUSH1 0x3 SHL AND SHR NOT AND SWAP1 SSTORE CODESIZE DUP1 DUP1 PUSH3 0x7CC JUMP JUMPDEST SWAP2 SWAP3 PUSH1 0x20 PUSH1 0x1 DUP2 SWAP3 DUP7 DUP12 ADD MLOAD DUP2 SSTORE ADD SWAP5 ADD SWAP3 ADD PUSH3 0x7B5 JUMP JUMPDEST PUSH1 0x1B PUSH1 0x0 MSTORE PUSH1 0x0 DUP1 MLOAD PUSH1 0x20 PUSH3 0x5A88 DUP4 CODECOPY DUP2 MLOAD SWAP2 MSTORE PUSH1 0x1F DUP4 ADD PUSH1 0x5 SHR DUP2 ADD SWAP2 PUSH1 0x20 DUP5 LT PUSH3 0x85C JUMPI JUMPDEST PUSH1 0x1F ADD PUSH1 0x5 SHR ADD SWAP1 JUMPDEST DUP2 DUP2 LT PUSH3 0x84F JUMPI POP PUSH3 0x74E JUMP JUMPDEST PUSH1 0x0 DUP2 SSTORE PUSH1 0x1 ADD PUSH3 0x840 JUMP JUMPDEST SWAP1 SWAP2 POP DUP2 SWAP1 PUSH3 0x837 JUMP JUMPDEST PUSH4 0x4E487B71 PUSH1 0xE0 SHL PUSH1 0x0 MSTORE PUSH1 0x22 PUSH1 0x4 MSTORE PUSH1 0x24 PUSH1 0x0 REVERT JUMPDEST SWAP1 PUSH1 0x7F AND SWAP1 PUSH3 0x73A JUMP JUMPDEST PUSH4 0x4E487B71 PUSH1 0xE0 SHL PUSH1 0x0 MSTORE PUSH1 0x41 PUSH1 0x4 MSTORE PUSH1 0x24 PUSH1 0x0 REVERT JUMPDEST PUSH4 0x4E487B71 PUSH1 0xE0 SHL PUSH1 0x0 MSTORE PUSH1 0x11 PUSH1 0x4 MSTORE PUSH1 0x24 PUSH1 0x0 REVERT JUMPDEST SWAP1 POP DUP4 ADD MLOAD CODESIZE PUSH3 0x598 JUMP JUMPDEST PUSH1 0x1A PUSH1 0x0 SWAP1 DUP2 MSTORE PUSH1 0x0 DUP1 MLOAD PUSH1 0x20 PUSH3 0x5AC8 DUP4 CODECOPY DUP2 MLOAD SWAP2 MSTORE SWAP3 POP PUSH1 0x1F NOT DUP5 AND SWAP1 JUMPDEST DUP2 DUP2 LT PUSH3 0x91F JUMPI POP SWAP1 DUP4 PUSH1 0x1 SWAP5 SWAP4 SWAP3 LT PUSH3 0x905 JUMPI JUMPDEST POP POP DUP2 SHL ADD PUSH1 0x1A SSTORE PUSH3 0x5AD JUMP JUMPDEST DUP6 ADD MLOAD PUSH1 0x0 NOT PUSH1 0xF8 DUP5 PUSH1 0x3 SHL AND SHR NOT AND SWAP1 SSTORE CODESIZE DUP1 PUSH3 0x8F7 JUMP JUMPDEST SWAP2 SWAP3 PUSH1 0x20 PUSH1 0x1 DUP2 SWAP3 DUP7 DUP11 ADD MLOAD DUP2 SSTORE ADD SWAP5 ADD SWAP3 ADD PUSH3 0x8E0 JUMP JUMPDEST PUSH1 0x1A PUSH1 0x0 MSTORE PUSH1 0x0 DUP1 MLOAD PUSH1 0x20 PUSH3 0x5AC8 DUP4 CODECOPY DUP2 MLOAD SWAP2 MSTORE PUSH1 0x1F DUP4 ADD PUSH1 0x5 SHR DUP2 ADD SWAP2 PUSH1 0x20 DUP5 LT PUSH3 0x986 JUMPI JUMPDEST PUSH1 0x1F ADD PUSH1 0x5 SHR ADD SWAP1 JUMPDEST DUP2 DUP2 LT PUSH3 0x979 JUMPI POP PUSH3 0x57F JUMP JUMPDEST PUSH1 0x0 DUP2 SSTORE PUSH1 0x1 ADD PUSH3 0x96A JUMP JUMPDEST SWAP1 SWAP2 POP DUP2 SWAP1 PUSH3 0x961 JUMP JUMPDEST SWAP1 PUSH1 0x7F AND SWAP1 PUSH3 0x56B JUMP JUMPDEST ADD MLOAD SWAP1 POP CODESIZE DUP1 PUSH3 0x532 JUMP JUMPDEST PUSH1 0x14 PUSH1 0x0 SWAP1 DUP2 MSTORE PUSH1 0x0 DUP1 MLOAD PUSH1 0x20 PUSH3 0x5B08 DUP4 CODECOPY DUP2 MLOAD SWAP2 MSTORE SWAP4 POP PUSH1 0x1F NOT DUP6 AND SWAP1 JUMPDEST DUP2 DUP2 LT PUSH3 0xA09 JUMPI POP SWAP1 DUP5 PUSH1 0x1 SWAP6 SWAP5 SWAP4 SWAP3 LT PUSH3 0x9EF JUMPI JUMPDEST POP POP POP DUP2 SHL ADD PUSH1 0x14 SSTORE PUSH3 0x548 JUMP JUMPDEST ADD MLOAD PUSH1 0x0 NOT PUSH1 0xF8 DUP5 PUSH1 0x3 SHL AND SHR NOT AND SWAP1 SSTORE CODESIZE DUP1 DUP1 PUSH3 0x9E0 JUMP JUMPDEST SWAP3 SWAP4 PUSH1 0x20 PUSH1 0x1 DUP2 SWAP3 DUP8 DUP7 ADD MLOAD DUP2 SSTORE ADD SWAP6 ADD SWAP4 ADD PUSH3 0x9C8 JUMP JUMPDEST PUSH1 0x14 PUSH1 0x0 MSTORE SWAP1 SWAP2 POP PUSH1 0x0 DUP1 MLOAD PUSH1 0x20 PUSH3 0x5B08 DUP4 CODECOPY DUP2 MLOAD SWAP2 MSTORE PUSH1 0x1F DUP5 ADD PUSH1 0x5 SHR DUP2 ADD SWAP2 PUSH1 0x20 DUP6 LT PUSH3 0xA7B JUMPI JUMPDEST SWAP1 PUSH1 0x1F DUP6 SWAP5 SWAP4 SWAP3 ADD PUSH1 0x5 SHR ADD SWAP1 JUMPDEST DUP2 DUP2 LT PUSH3 0xA6B JUMPI POP PUSH3 0x519 JUMP JUMPDEST PUSH1 0x0 DUP2 SSTORE DUP5 SWAP4 POP PUSH1 0x1 ADD PUSH3 0xA5C JUMP JUMPDEST SWAP1 SWAP2 POP DUP2 SWAP1 PUSH3 0xA4E JUMP JUMPDEST SWAP2 PUSH1 0x7F AND SWAP2 PUSH3 0x503 JUMP JUMPDEST ADD MLOAD SWAP1 POP CODESIZE DUP1 PUSH3 0x4C8 JUMP JUMPDEST PUSH1 0x13 PUSH1 0x0 SWAP1 DUP2 MSTORE PUSH1 0x0 DUP1 MLOAD PUSH1 0x20 PUSH3 0x5AA8 DUP4 CODECOPY DUP2 MLOAD SWAP2 MSTORE SWAP4 POP PUSH1 0x1F NOT DUP6 AND SWAP1 JUMPDEST DUP2 DUP2 LT PUSH3 0xAFE JUMPI POP SWAP1 DUP5 PUSH1 0x1 SWAP6 SWAP5 SWAP4 SWAP3 LT PUSH3 0xAE4 JUMPI JUMPDEST POP POP POP DUP2 SHL ADD PUSH1 0x13 SSTORE PUSH3 0x4DE JUMP JUMPDEST ADD MLOAD PUSH1 0x0 NOT PUSH1 0xF8 DUP5 PUSH1 0x3 SHL AND SHR NOT AND SWAP1 SSTORE CODESIZE DUP1 DUP1 PUSH3 0xAD5 JUMP JUMPDEST SWAP3 SWAP4 PUSH1 0x20 PUSH1 0x1 DUP2 SWAP3 DUP8 DUP7 ADD MLOAD DUP2 SSTORE ADD SWAP6 ADD SWAP4 ADD PUSH3 0xABD JUMP JUMPDEST PUSH1 0x13 PUSH1 0x0 MSTORE SWAP1 SWAP2 POP PUSH1 0x0 DUP1 MLOAD PUSH1 0x20 PUSH3 0x5AA8 DUP4 CODECOPY DUP2 MLOAD SWAP2 MSTORE PUSH1 0x1F DUP5 ADD PUSH1 0x5 SHR DUP2 ADD SWAP2 PUSH1 0x20 DUP6 LT PUSH3 0xB70 JUMPI JUMPDEST SWAP1 PUSH1 0x1F DUP6 SWAP5 SWAP4 SWAP3 ADD PUSH1 0x5 SHR ADD SWAP1 JUMPDEST DUP2 DUP2 LT PUSH3 0xB60 JUMPI POP PUSH3 0x4AF JUMP JUMPDEST PUSH1 0x0 DUP2 SSTORE DUP5 SWAP4 POP PUSH1 0x1 ADD PUSH3 0xB51 JUMP JUMPDEST SWAP1 SWAP2 POP DUP2 SWAP1 PUSH3 0xB43 JUMP JUMPDEST SWAP2 PUSH1 0x7F AND SWAP2 PUSH3 0x499 JUMP JUMPDEST ADD MLOAD SWAP1 POP CODESIZE DUP1 PUSH3 0x45E JUMP JUMPDEST PUSH1 0x12 PUSH1 0x0 SWAP1 DUP2 MSTORE SWAP4 POP PUSH1 0x0 DUP1 MLOAD PUSH1 0x20 PUSH3 0x5A28 DUP4 CODECOPY DUP2 MLOAD SWAP2 MSTORE SWAP2 SWAP1 JUMPDEST PUSH1 0x1F NOT DUP5 AND DUP6 LT PUSH3 0xBF4 JUMPI PUSH1 0x1 SWAP5 POP DUP4 PUSH1 0x1F NOT DUP2 AND LT PUSH3 0xBDA JUMPI JUMPDEST POP POP POP DUP2 SHL ADD PUSH1 0x12 SSTORE PUSH3 0x474 JUMP JUMPDEST ADD MLOAD PUSH1 0x0 NOT PUSH1 0xF8 DUP5 PUSH1 0x3 SHL AND SHR NOT AND SWAP1 SSTORE CODESIZE DUP1 DUP1 PUSH3 0xBCB JUMP JUMPDEST DUP2 DUP2 ADD MLOAD DUP4 SSTORE PUSH1 0x20 SWAP5 DUP6 ADD SWAP5 PUSH1 0x1 SWAP1 SWAP4 ADD SWAP3 SWAP1 SWAP2 ADD SWAP1 PUSH3 0xBAE JUMP JUMPDEST PUSH1 0x12 PUSH1 0x0 MSTORE SWAP1 SWAP2 POP PUSH1 0x0 DUP1 MLOAD PUSH1 0x20 PUSH3 0x5A28 DUP4 CODECOPY DUP2 MLOAD SWAP2 MSTORE PUSH1 0x1F DUP5 ADD PUSH1 0x5 SHR DUP2 ADD SWAP2 PUSH1 0x20 DUP6 LT PUSH3 0xC69 JUMPI JUMPDEST SWAP1 PUSH1 0x1F DUP6 SWAP5 SWAP4 SWAP3 ADD PUSH1 0x5 SHR ADD SWAP1 JUMPDEST DUP2 DUP2 LT PUSH3 0xC59 JUMPI POP PUSH3 0x445 JUMP JUMPDEST PUSH1 0x0 DUP2 SSTORE DUP5 SWAP4 POP PUSH1 0x1 ADD PUSH3 0xC4A JUMP JUMPDEST SWAP1 SWAP2 POP DUP2 SWAP1 PUSH3 0xC3C JUMP JUMPDEST SWAP2 PUSH1 0x7F AND SWAP2 PUSH3 0x42F JUMP JUMPDEST ADD MLOAD SWAP1 POP CODESIZE DUP1 PUSH3 0x3F4 JUMP JUMPDEST PUSH1 0x11 PUSH1 0x0 SWAP1 DUP2 MSTORE SWAP4 POP PUSH1 0x0 DUP1 MLOAD PUSH1 0x20 PUSH3 0x5A48 DUP4 CODECOPY DUP2 MLOAD SWAP2 MSTORE SWAP2 SWAP1 JUMPDEST PUSH1 0x1F NOT DUP5 AND DUP6 LT PUSH3 0xCED JUMPI PUSH1 0x1 SWAP5 POP DUP4 PUSH1 0x1F NOT DUP2 AND LT PUSH3 0xCD3 JUMPI JUMPDEST POP POP POP DUP2 SHL ADD PUSH1 0x11 SSTORE PUSH3 0x40A JUMP JUMPDEST ADD MLOAD PUSH1 0x0 NOT PUSH1 0xF8 DUP5 PUSH1 0x3 SHL AND SHR NOT AND SWAP1 SSTORE CODESIZE DUP1 DUP1 PUSH3 0xCC4 JUMP JUMPDEST DUP2 DUP2 ADD MLOAD DUP4 SSTORE PUSH1 0x20 SWAP5 DUP6 ADD SWAP5 PUSH1 0x1 SWAP1 SWAP4 ADD SWAP3 SWAP1 SWAP2 ADD SWAP1 PUSH3 0xCA7 JUMP JUMPDEST PUSH1 0x11 PUSH1 0x0 MSTORE SWAP1 SWAP2 POP PUSH1 0x0 DUP1 MLOAD PUSH1 0x20 PUSH3 0x5A48 DUP4 CODECOPY DUP2 MLOAD SWAP2 MSTORE PUSH1 0x1F DUP5 ADD PUSH1 0x5 SHR DUP2 ADD PUSH1 0x20 DUP6 LT PUSH3 0xD62 JUMPI JUMPDEST SWAP1 DUP5 SWAP4 SWAP3 SWAP2 JUMPDEST PUSH1 0x1F DUP4 ADD PUSH1 0x5 SHR DUP3 ADD DUP2 LT PUSH3 0xD52 JUMPI POP POP PUSH3 0x3DB JUMP JUMPDEST PUSH1 0x0 DUP2 SSTORE DUP6 SWAP5 POP PUSH1 0x1 ADD PUSH3 0xD3A JUMP JUMPDEST POP DUP1 PUSH3 0xD34 JUMP JUMPDEST SWAP2 PUSH1 0x7F AND SWAP2 PUSH3 0x3C5 JUMP JUMPDEST ADD MLOAD SWAP1 POP CODESIZE DUP1 PUSH3 0x385 JUMP JUMPDEST PUSH1 0x19 PUSH1 0x0 SWAP1 DUP2 MSTORE SWAP4 POP PUSH32 0x944998273E477B495144FB8794C914197F3CCB46BE2900F4698FD0EF743C9695 SWAP2 SWAP1 JUMPDEST PUSH1 0x1F NOT DUP5 AND DUP6 LT PUSH3 0xDF4 JUMPI PUSH1 0x1 SWAP5 POP DUP4 PUSH1 0x1F NOT DUP2 AND LT PUSH3 0xDDA JUMPI JUMPDEST POP POP POP DUP2 SHL ADD PUSH1 0x19 SSTORE PUSH3 0x39B JUMP JUMPDEST ADD MLOAD PUSH1 0x0 NOT PUSH1 0xF8 DUP5 PUSH1 0x3 SHL AND SHR NOT AND SWAP1 SSTORE CODESIZE DUP1 DUP1 PUSH3 0xDCB JUMP JUMPDEST DUP2 DUP2 ADD MLOAD DUP4 SSTORE PUSH1 0x20 SWAP5 DUP6 ADD SWAP5 PUSH1 0x1 SWAP1 SWAP4 ADD SWAP3 SWAP1 SWAP2 ADD SWAP1 PUSH3 0xDAE JUMP JUMPDEST PUSH1 0x19 PUSH1 0x0 MSTORE SWAP1 SWAP2 POP PUSH32 0x944998273E477B495144FB8794C914197F3CCB46BE2900F4698FD0EF743C9695 PUSH1 0x1F DUP5 ADD PUSH1 0x5 SHR DUP2 ADD PUSH1 0x20 DUP6 LT PUSH3 0xE7A JUMPI JUMPDEST SWAP1 DUP5 SWAP4 SWAP3 SWAP2 JUMPDEST PUSH1 0x1F DUP4 ADD PUSH1 0x5 SHR DUP3 ADD DUP2 LT PUSH3 0xE6A JUMPI POP POP PUSH3 0x36C JUMP JUMPDEST PUSH1 0x0 DUP2 SSTORE DUP6 SWAP5 POP PUSH1 0x1 ADD PUSH3 0xE52 JUMP JUMPDEST POP DUP1 PUSH3 0xE4C JUMP JUMPDEST SWAP2 PUSH1 0x7F AND SWAP2 PUSH3 0x356 JUMP JUMPDEST ADD MLOAD SWAP1 POP CODESIZE DUP1 PUSH3 0x31B JUMP JUMPDEST PUSH1 0xF PUSH1 0x0 SWAP1 DUP2 MSTORE SWAP4 POP PUSH1 0x0 DUP1 MLOAD PUSH1 0x20 PUSH3 0x5B28 DUP4 CODECOPY DUP2 MLOAD SWAP2 MSTORE SWAP2 SWAP1 JUMPDEST PUSH1 0x1F NOT DUP5 AND DUP6 LT PUSH3 0xEFB JUMPI PUSH1 0x1 SWAP5 POP DUP4 PUSH1 0x1F NOT DUP2 AND LT PUSH3 0xEE1 JUMPI JUMPDEST POP POP POP DUP2 SHL ADD PUSH1 0xF SSTORE PUSH3 0x331 JUMP JUMPDEST ADD MLOAD PUSH1 0x0 NOT PUSH1 0xF8 DUP5 PUSH1 0x3 SHL AND SHR NOT AND SWAP1 SSTORE CODESIZE DUP1 DUP1 PUSH3 0xED2 JUMP JUMPDEST DUP2 DUP2 ADD MLOAD DUP4 SSTORE PUSH1 0x20 SWAP5 DUP6 ADD SWAP5 PUSH1 0x1 SWAP1 SWAP4 ADD SWAP3 SWAP1 SWAP2 ADD SWAP1 PUSH3 0xEB5 JUMP JUMPDEST PUSH1 0xF PUSH1 0x0 MSTORE SWAP1 SWAP2 POP PUSH1 0x0 DUP1 MLOAD PUSH1 0x20 PUSH3 0x5B28 DUP4 CODECOPY DUP2 MLOAD SWAP2 MSTORE PUSH1 0x1F DUP5 ADD PUSH1 0x5 SHR DUP2 ADD PUSH1 0x20 DUP6 LT PUSH3 0xF70 JUMPI JUMPDEST SWAP1 DUP5 SWAP4 SWAP3 SWAP2 JUMPDEST PUSH1 0x1F DUP4 ADD PUSH1 0x5 SHR DUP3 ADD DUP2 LT PUSH3 0xF60 JUMPI POP POP PUSH3 0x302 JUMP JUMPDEST PUSH1 0x0 DUP2 SSTORE DUP6 SWAP5 POP PUSH1 0x1 ADD PUSH3 0xF48 JUMP JUMPDEST POP DUP1 PUSH3 0xF42 JUMP JUMPDEST SWAP2 PUSH1 0x7F AND SWAP2 PUSH3 0x2EC JUMP JUMPDEST DUP11 MLOAD PUSH4 0x1E4FBDF7 PUSH1 0xE0 SHL DUP2 MSTORE PUSH1 0x0 PUSH1 0x4 DUP3 ADD MSTORE PUSH1 0x24 SWAP1 REVERT JUMPDEST ADD MLOAD SWAP1 POP CODESIZE DUP1 PUSH3 0x261 JUMP JUMPDEST PUSH1 0x1 PUSH1 0x0 SWAP1 DUP2 MSTORE PUSH1 0x0 DUP1 MLOAD PUSH1 0x20 PUSH3 0x5AE8 DUP4 CODECOPY DUP2 MLOAD SWAP2 MSTORE SWAP4 POP PUSH1 0x1F NOT DUP6 AND SWAP1 JUMPDEST DUP2 DUP2 LT PUSH3 0x1008 JUMPI POP SWAP1 DUP5 PUSH1 0x1 SWAP6 SWAP5 SWAP4 SWAP3 LT PUSH3 0xFEE JUMPI JUMPDEST POP POP POP DUP2 SHL ADD PUSH1 0x1 SSTORE PUSH3 0x277 JUMP JUMPDEST ADD MLOAD PUSH1 0x0 NOT PUSH1 0xF8 DUP5 PUSH1 0x3 SHL AND SHR NOT AND SWAP1 SSTORE CODESIZE DUP1 DUP1 PUSH3 0xFDF JUMP JUMPDEST SWAP3 SWAP4 PUSH1 0x20 PUSH1 0x1 DUP2 SWAP3 DUP8 DUP7 ADD MLOAD DUP2 SSTORE ADD SWAP6 ADD SWAP4 ADD PUSH3 0xFC7 JUMP JUMPDEST PUSH1 0x1 PUSH1 0x0 MSTORE SWAP1 SWAP2 POP PUSH1 0x0 DUP1 MLOAD PUSH1 0x20 PUSH3 0x5AE8 DUP4 CODECOPY DUP2 MLOAD SWAP2 MSTORE PUSH1 0x1F DUP5 ADD PUSH1 0x5 SHR DUP2 ADD PUSH1 0x20 DUP6 LT PUSH3 0x107A JUMPI JUMPDEST SWAP1 DUP5 SWAP4 SWAP3 SWAP2 JUMPDEST PUSH1 0x1F DUP4 ADD PUSH1 0x5 SHR DUP3 ADD DUP2 LT PUSH3 0x106A JUMPI POP POP PUSH3 0x248 JUMP JUMPDEST PUSH1 0x0 DUP2 SSTORE DUP6 SWAP5 POP PUSH1 0x1 ADD PUSH3 0x1052 JUMP JUMPDEST POP DUP1 PUSH3 0x104C JUMP JUMPDEST SWAP2 PUSH1 0x7F AND SWAP2 PUSH3 0x232 JUMP JUMPDEST ADD MLOAD SWAP1 POP CODESIZE DUP1 PUSH3 0x1F7 JUMP JUMPDEST PUSH1 0x0 DUP1 DUP1 MSTORE SWAP4 POP PUSH1 0x0 DUP1 MLOAD PUSH1 0x20 PUSH3 0x5A68 DUP4 CODECOPY DUP2 MLOAD SWAP2 MSTORE SWAP2 SWAP1 JUMPDEST PUSH1 0x1F NOT DUP5 AND DUP6 LT PUSH3 0x10F9 JUMPI PUSH1 0x1 SWAP5 POP DUP4 PUSH1 0x1F NOT DUP2 AND LT PUSH3 0x10DF JUMPI JUMPDEST POP POP POP DUP2 SHL ADD PUSH1 0x0 SSTORE PUSH3 0x20D JUMP JUMPDEST ADD MLOAD PUSH1 0x0 NOT PUSH1 0xF8 DUP5 PUSH1 0x3 SHL AND SHR NOT AND SWAP1 SSTORE CODESIZE DUP1 DUP1 PUSH3 0x10D0 JUMP JUMPDEST DUP2 DUP2 ADD MLOAD DUP4 SSTORE PUSH1 0x20 SWAP5 DUP6 ADD SWAP5 PUSH1 0x1 SWAP1 SWAP4 ADD SWAP3 SWAP1 SWAP2 ADD SWAP1 PUSH3 0x10B3 JUMP JUMPDEST PUSH1 0x0 DUP1 MSTORE SWAP1 SWAP2 POP PUSH1 0x0 DUP1 MLOAD PUSH1 0x20 PUSH3 0x5A68 DUP4 CODECOPY DUP2 MLOAD SWAP2 MSTORE PUSH1 0x1F DUP5 ADD PUSH1 0x5 SHR DUP2 ADD PUSH1 0x20 DUP6 LT PUSH3 0x116D JUMPI JUMPDEST SWAP1 DUP5 SWAP4 SWAP3 SWAP2 JUMPDEST PUSH1 0x1F DUP4 ADD PUSH1 0x5 SHR DUP3 ADD DUP2 LT PUSH3 0x115D JUMPI POP POP PUSH3 0x1DE JUMP JUMPDEST PUSH1 0x0 DUP2 SSTORE DUP6 SWAP5 POP PUSH1 0x1 ADD PUSH3 0x1145 JUMP JUMPDEST POP DUP1 PUSH3 0x113F JUMP JUMPDEST SWAP2 PUSH1 0x7F AND SWAP2 PUSH3 0x1C8 JUMP JUMPDEST PUSH1 0x1F SWAP1 SWAP2 ADD PUSH1 0x1F NOT AND DUP2 ADD SWAP1 PUSH1 0x1 PUSH1 0x1 PUSH1 0x40 SHL SUB DUP3 GT SWAP1 DUP3 LT OR PUSH3 0x888 JUMPI PUSH1 0x40 MSTORE JUMP JUMPDEST PUSH1 0x0 JUMPDEST DUP4 DUP2 LT PUSH3 0x11B8 JUMPI POP POP PUSH1 0x0 SWAP2 ADD MSTORE JUMP JUMPDEST DUP2 DUP2 ADD MLOAD DUP4 DUP3 ADD MSTORE PUSH1 0x20 ADD PUSH3 0x11A7 JUMP JUMPDEST DUP2 PUSH1 0x1F DUP3 ADD SLT ISZERO PUSH3 0x6B1 JUMPI DUP1 MLOAD PUSH1 0x1 PUSH1 0x1 PUSH1 0x40 SHL SUB DUP2 GT PUSH3 0x888 JUMPI PUSH1 0x40 MLOAD SWAP3 PUSH3 0x1200 PUSH1 0x1F DUP4 ADD PUSH1 0x1F NOT AND PUSH1 0x20 ADD DUP6 PUSH3 0x1180 JUMP JUMPDEST DUP2 DUP5 MSTORE PUSH1 0x20 DUP3 DUP5 ADD ADD GT PUSH3 0x6B1 JUMPI PUSH3 0x1221 SWAP2 PUSH1 0x20 DUP1 DUP6 ADD SWAP2 ADD PUSH3 0x11A4 JUMP JUMPDEST SWAP1 JUMP INVALID PUSH1 0x80 PUSH1 0x40 MSTORE PUSH1 0x4 CALLDATASIZE LT ISZERO PUSH2 0x12 JUMPI PUSH1 0x0 DUP1 REVERT JUMPDEST PUSH1 0x0 CALLDATALOAD PUSH1 0xE0 SHR DUP1 PUSH4 0x1FFC9A7 EQ PUSH2 0x467 JUMPI DUP1 PUSH4 0x20FE6E5 EQ PUSH2 0x462 JUMPI DUP1 PUSH4 0x5CCFD33 EQ PUSH2 0x45D JUMPI DUP1 PUSH4 0x6FDDE03 EQ PUSH2 0x458 JUMPI DUP1 PUSH4 0x81812FC EQ PUSH2 0x453 JUMPI DUP1 PUSH4 0x89CDD0C EQ PUSH2 0x44E JUMPI DUP1 PUSH4 0x95EA7B3 EQ PUSH2 0x449 JUMPI DUP1 PUSH4 0xBEB11B7 EQ PUSH2 0x444 JUMPI DUP1 PUSH4 0x10409CB2 EQ PUSH2 0x43F JUMPI DUP1 PUSH4 0x1209B1F6 EQ PUSH2 0x43A JUMPI DUP1 PUSH4 0x18160DDD EQ PUSH2 0x435 JUMPI DUP1 PUSH4 0x1FEEAF74 EQ PUSH2 0x430 JUMPI DUP1 PUSH4 0x23B872DD EQ PUSH2 0x42B JUMPI DUP1 PUSH4 0x24600FC3 EQ PUSH2 0x426 JUMPI DUP1 PUSH4 0x24C14160 EQ PUSH2 0x421 JUMPI DUP1 PUSH4 0x25FF167E EQ PUSH2 0x41C JUMPI DUP1 PUSH4 0x26606448 EQ PUSH2 0x417 JUMPI DUP1 PUSH4 0x2A55205A EQ PUSH2 0x412 JUMPI DUP1 PUSH4 0x2C8CC6F7 EQ PUSH2 0x40D JUMPI DUP1 PUSH4 0x2CD1D35C EQ PUSH2 0x408 JUMPI DUP1 PUSH4 0x2F745C59 EQ PUSH2 0x403 JUMPI DUP1 PUSH4 0x40398D67 EQ PUSH2 0x3FE JUMPI DUP1 PUSH4 0x42842E0E EQ PUSH2 0x3F9 JUMPI DUP1 PUSH4 0x4BC46A82 EQ PUSH2 0x3F4 JUMPI DUP1 PUSH4 0x4BFBE5DF EQ PUSH2 0x3EF JUMPI DUP1 PUSH4 0x4F6CCCE7 EQ PUSH2 0x3EA JUMPI DUP1 PUSH4 0x532F1179 EQ PUSH2 0x3E5 JUMPI DUP1 PUSH4 0x55866C8D EQ PUSH2 0x3E0 JUMPI DUP1 PUSH4 0x55C85457 EQ PUSH2 0x3DB JUMPI DUP1 PUSH4 0x573C80FA EQ PUSH2 0x3D6 JUMPI DUP1 PUSH4 0x5E7BFD12 EQ PUSH2 0x3D1 JUMPI DUP1 PUSH4 0x61203265 EQ PUSH2 0x3CC JUMPI DUP1 PUSH4 0x6352211E EQ PUSH2 0x3C7 JUMPI DUP1 PUSH4 0x646C2E33 EQ PUSH2 0x3C2 JUMPI DUP1 PUSH4 0x684E78DD EQ PUSH2 0x3BD JUMPI DUP1 PUSH4 0x69BA4F68 EQ PUSH2 0x3B8 JUMPI DUP1 PUSH4 0x6D00FA68 EQ PUSH2 0x3B3 JUMPI DUP1 PUSH4 0x70A08231 EQ PUSH2 0x3AE JUMPI DUP1 PUSH4 0x715018A6 EQ PUSH2 0x3A9 JUMPI DUP1 PUSH4 0x77A4D559 EQ PUSH2 0x3A4 JUMPI DUP1 PUSH4 0x8043C9C0 EQ PUSH2 0x39F JUMPI DUP1 PUSH4 0x870C8F26 EQ PUSH2 0x39A JUMPI DUP1 PUSH4 0x8DA5CB5B EQ PUSH2 0x395 JUMPI DUP1 PUSH4 0x93D28635 EQ PUSH2 0x390 JUMPI DUP1 PUSH4 0x9434571B EQ PUSH2 0x38B JUMPI DUP1 PUSH4 0x95D89B41 EQ PUSH2 0x386 JUMPI DUP1 PUSH4 0x9E408D4C EQ PUSH2 0x381 JUMPI DUP1 PUSH4 0x9F67756D EQ PUSH2 0x37C JUMPI DUP1 PUSH4 0xA22CB465 EQ PUSH2 0x377 JUMPI DUP1 PUSH4 0xAC307FCF EQ PUSH2 0x372 JUMPI DUP1 PUSH4 0xB40F2989 EQ PUSH2 0x36D JUMPI DUP1 PUSH4 0xB5545A3C EQ PUSH2 0x368 JUMPI DUP1 PUSH4 0xB5E5F51B EQ PUSH2 0x363 JUMPI DUP1 PUSH4 0xB88D4FDE EQ PUSH2 0x35E JUMPI DUP1 PUSH4 0xB963F8CA EQ PUSH2 0x359 JUMPI DUP1 PUSH4 0xBA0AE43C EQ PUSH2 0x354 JUMPI DUP1 PUSH4 0xC0AF2346 EQ PUSH2 0x34F JUMPI DUP1 PUSH4 0xC87B56DD EQ PUSH2 0x34A JUMPI DUP1 PUSH4 0xD5ABEB01 EQ PUSH2 0x345 JUMPI DUP1 PUSH4 0xDA649E6B EQ PUSH2 0x340 JUMPI DUP1 PUSH4 0xDEF3AD67 EQ PUSH2 0x33B JUMPI DUP1 PUSH4 0xE1A494D1 EQ PUSH2 0x336 JUMPI DUP1 PUSH4 0xE1AA1BCC EQ PUSH2 0x331 JUMPI DUP1 PUSH4 0xE22BDA35 EQ PUSH2 0x32C JUMPI DUP1 PUSH4 0xE2BB3CCF EQ PUSH2 0x327 JUMPI DUP1 PUSH4 0xE985E9C5 EQ PUSH2 0x322 JUMPI DUP1 PUSH4 0xEB7B7006 EQ PUSH2 0x31D JUMPI DUP1 PUSH4 0xF2FDE38B EQ PUSH2 0x318 JUMPI PUSH4 0xFB6C9537 EQ PUSH2 0x313 JUMPI PUSH1 0x0 DUP1 REVERT JUMPDEST PUSH2 0x2D07 JUMP JUMPDEST PUSH2 0x2C7E JUMP JUMPDEST PUSH2 0x2C41 JUMP JUMPDEST PUSH2 0x2BE4 JUMP JUMPDEST PUSH2 0x2B1E JUMP JUMPDEST PUSH2 0x2A24 JUMP JUMPDEST PUSH2 0x2A06 JUMP JUMPDEST PUSH2 0x29E3 JUMP JUMPDEST PUSH2 0x29AF JUMP JUMPDEST PUSH2 0x2984 JUMP JUMPDEST PUSH2 0x2966 JUMP JUMPDEST PUSH2 0x2947 JUMP JUMPDEST PUSH2 0x2849 JUMP JUMPDEST PUSH2 0x27BA JUMP JUMPDEST PUSH2 0x275F JUMP JUMPDEST PUSH2 0x26FA JUMP JUMPDEST PUSH2 0x2646 JUMP JUMPDEST PUSH2 0x23EC JUMP JUMPDEST PUSH2 0x23C6 JUMP JUMPDEST PUSH2 0x23A3 JUMP JUMPDEST PUSH2 0x22E6 JUMP JUMPDEST PUSH2 0x22BF JUMP JUMPDEST PUSH2 0x2294 JUMP JUMPDEST PUSH2 0x21ED JUMP JUMPDEST PUSH2 0x21C9 JUMP JUMPDEST PUSH2 0x211B JUMP JUMPDEST PUSH2 0x20F2 JUMP JUMPDEST PUSH2 0x1F90 JUMP JUMPDEST PUSH2 0x1F6C JUMP JUMPDEST PUSH2 0x1ED0 JUMP JUMPDEST PUSH2 0x1E72 JUMP JUMPDEST PUSH2 0x1E4F JUMP JUMPDEST PUSH2 0x1D34 JUMP JUMPDEST PUSH2 0x1CC4 JUMP JUMPDEST PUSH2 0x1CA0 JUMP JUMPDEST PUSH2 0x1BBB JUMP JUMPDEST PUSH2 0x1B8B JUMP JUMPDEST PUSH2 0x1B62 JUMP JUMPDEST PUSH2 0x1B3E JUMP JUMPDEST PUSH2 0x1971 JUMP JUMPDEST PUSH2 0x1920 JUMP JUMPDEST PUSH2 0x1458 JUMP JUMPDEST PUSH2 0x1435 JUMP JUMPDEST PUSH2 0x13C5 JUMP JUMPDEST PUSH2 0x13A7 JUMP JUMPDEST PUSH2 0x130A JUMP JUMPDEST PUSH2 0x12D6 JUMP JUMPDEST PUSH2 0x126C JUMP JUMPDEST PUSH2 0x123D JUMP JUMPDEST PUSH2 0x11E9 JUMP JUMPDEST PUSH2 0x11AF JUMP JUMPDEST PUSH2 0x115C JUMP JUMPDEST PUSH2 0x106E JUMP JUMPDEST PUSH2 0xFEB JUMP JUMPDEST PUSH2 0xF08 JUMP JUMPDEST PUSH2 0xD47 JUMP JUMPDEST PUSH2 0xD30 JUMP JUMPDEST PUSH2 0xBFD JUMP JUMPDEST PUSH2 0xBDF JUMP JUMPDEST PUSH2 0xBC1 JUMP JUMPDEST PUSH2 0xB02 JUMP JUMPDEST PUSH2 0xA56 JUMP JUMPDEST PUSH2 0x957 JUMP JUMPDEST PUSH2 0x90D JUMP JUMPDEST PUSH2 0x8CF JUMP JUMPDEST PUSH2 0x7E8 JUMP JUMPDEST PUSH2 0x66B JUMP JUMPDEST PUSH2 0x525 JUMP JUMPDEST PUSH2 0x483 JUMP JUMPDEST PUSH1 0x1 PUSH1 0x1 PUSH1 0xE0 SHL SUB NOT DUP2 AND SUB PUSH2 0x47E JUMPI JUMP JUMPDEST PUSH1 0x0 DUP1 REVERT JUMPDEST CALLVALUE PUSH2 0x47E JUMPI PUSH1 0x20 CALLDATASIZE PUSH1 0x3 NOT ADD SLT PUSH2 0x47E JUMPI PUSH1 0x20 PUSH1 0x4 CALLDATALOAD PUSH2 0x4A2 DUP2 PUSH2 0x46C JUMP JUMPDEST PUSH4 0xFFFFFFFF PUSH1 0xE0 SHL AND PUSH4 0x152A902D PUSH1 0xE1 SHL DUP2 EQ SWAP1 DUP2 ISZERO PUSH2 0x4C8 JUMPI JUMPDEST POP PUSH1 0x40 MLOAD SWAP1 ISZERO ISZERO DUP2 MSTORE RETURN JUMPDEST PUSH4 0x780E9D63 PUSH1 0xE0 SHL DUP2 EQ SWAP2 POP DUP2 ISZERO PUSH2 0x4E2 JUMPI JUMPDEST POP CODESIZE PUSH2 0x4BD JUMP JUMPDEST PUSH4 0x80AC58CD PUSH1 0xE0 SHL DUP2 EQ SWAP2 POP DUP2 ISZERO PUSH2 0x514 JUMPI JUMPDEST DUP2 ISZERO PUSH2 0x503 JUMPI JUMPDEST POP CODESIZE PUSH2 0x4DB JUMP JUMPDEST PUSH4 0x1FFC9A7 PUSH1 0xE0 SHL EQ SWAP1 POP CODESIZE PUSH2 0x4FC JUMP JUMPDEST PUSH4 0x5B5E139F PUSH1 0xE0 SHL DUP2 EQ SWAP2 POP PUSH2 0x4F5 JUMP JUMPDEST CALLVALUE PUSH2 0x47E JUMPI PUSH1 0x20 CALLDATASIZE PUSH1 0x3 NOT ADD SLT PUSH2 0x47E JUMPI PUSH1 0x4 CALLDATALOAD PUSH1 0x0 MSTORE PUSH1 0x1D PUSH1 0x20 MSTORE PUSH1 0x20 PUSH1 0xFF PUSH1 0x40 PUSH1 0x0 KECCAK256 SLOAD AND PUSH1 0x40 MLOAD SWAP1 ISZERO ISZERO DUP2 MSTORE RETURN JUMPDEST PUSH4 0x4E487B71 PUSH1 0xE0 SHL PUSH1 0x0 MSTORE PUSH1 0x41 PUSH1 0x4 MSTORE PUSH1 0x24 PUSH1 0x0 REVERT JUMPDEST PUSH1 0x1 PUSH1 0x1 PUSH1 0x40 SHL SUB DUP2 GT PUSH2 0x57F JUMPI PUSH1 0x40 MSTORE JUMP JUMPDEST PUSH2 0x556 JUMP JUMPDEST PUSH1 0x20 DUP2 ADD SWAP1 DUP2 LT PUSH1 0x1 PUSH1 0x1 PUSH1 0x40 SHL SUB DUP3 GT OR PUSH2 0x57F JUMPI PUSH1 0x40 MSTORE JUMP JUMPDEST PUSH1 0x40 DUP2 ADD SWAP1 DUP2 LT PUSH1 0x1 PUSH1 0x1 PUSH1 0x40 SHL SUB DUP3 GT OR PUSH2 0x57F JUMPI PUSH1 0x40 MSTORE JUMP JUMPDEST SWAP1 PUSH1 0x1F DUP1 NOT SWAP2 ADD AND DUP2 ADD SWAP1 DUP2 LT PUSH1 0x1 PUSH1 0x1 PUSH1 0x40 SHL SUB DUP3 GT OR PUSH2 0x57F JUMPI PUSH1 0x40 MSTORE JUMP JUMPDEST PUSH1 0x1 PUSH1 0x1 PUSH1 0x40 SHL SUB DUP2 GT PUSH2 0x57F JUMPI PUSH1 0x1F ADD PUSH1 0x1F NOT AND PUSH1 0x20 ADD SWAP1 JUMP JUMPDEST SWAP3 SWAP2 SWAP3 PUSH2 0x602 DUP3 PUSH2 0x5DB JUMP JUMPDEST SWAP2 PUSH2 0x610 PUSH1 0x40 MLOAD SWAP4 DUP5 PUSH2 0x5BA JUMP JUMPDEST DUP3 SWAP5 DUP2 DUP5 MSTORE DUP2 DUP4 ADD GT PUSH2 0x47E JUMPI DUP3 DUP2 PUSH1 0x20 SWAP4 DUP5 PUSH1 0x0 SWAP7 ADD CALLDATACOPY ADD ADD MSTORE JUMP JUMPDEST PUSH1 0x20 PUSH1 0x3 NOT DUP3 ADD SLT PUSH2 0x47E JUMPI PUSH1 0x4 CALLDATALOAD SWAP1 PUSH1 0x1 PUSH1 0x1 PUSH1 0x40 SHL SUB DUP3 GT PUSH2 0x47E JUMPI DUP1 PUSH1 0x23 DUP4 ADD SLT ISZERO PUSH2 0x47E JUMPI DUP2 PUSH1 0x24 PUSH2 0x668 SWAP4 PUSH1 0x4 ADD CALLDATALOAD SWAP2 ADD PUSH2 0x5F6 JUMP JUMPDEST SWAP1 JUMP JUMPDEST CALLVALUE PUSH2 0x47E JUMPI PUSH2 0x679 CALLDATASIZE PUSH2 0x62D JUMP JUMPDEST PUSH1 0xD SLOAD PUSH2 0x69B SWAP1 CALLER PUSH1 0x1 PUSH1 0x1 PUSH1 0xA0 SHL SUB SWAP2 DUP3 AND EQ SWAP1 DUP2 ISZERO PUSH2 0x776 JUMPI JUMPDEST POP PUSH2 0x2DCC JUMP JUMPDEST DUP1 MLOAD PUSH1 0x1 PUSH1 0x1 PUSH1 0x40 SHL SUB DUP2 GT PUSH2 0x57F JUMPI PUSH2 0x6BF DUP2 PUSH2 0x6BA PUSH1 0xF SLOAD PUSH2 0x1489 JUMP JUMPDEST PUSH2 0x2E18 JUMP JUMPDEST PUSH1 0x20 DUP1 PUSH1 0x1F DUP4 GT PUSH1 0x1 EQ PUSH2 0x701 JUMPI POP DUP2 SWAP1 PUSH2 0x6F1 SWAP4 PUSH1 0x0 SWAP3 PUSH2 0x6F6 JUMPI JUMPDEST POP POP DUP2 PUSH1 0x1 SHL SWAP2 PUSH1 0x0 NOT SWAP1 PUSH1 0x3 SHL SHR NOT AND OR SWAP1 JUMP JUMPDEST PUSH1 0xF SSTORE STOP JUMPDEST ADD MLOAD SWAP1 POP CODESIZE DUP1 PUSH2 0x6DC JUMP JUMPDEST SWAP1 PUSH1 0x1F NOT DUP4 AND SWAP4 PUSH2 0x722 PUSH1 0xF PUSH1 0x0 MSTORE PUSH1 0x0 DUP1 MLOAD PUSH1 0x20 PUSH2 0x478E DUP4 CODECOPY DUP2 MLOAD SWAP2 MSTORE SWAP1 JUMP JUMPDEST SWAP3 PUSH1 0x0 SWAP1 JUMPDEST DUP7 DUP3 LT PUSH2 0x75E JUMPI POP POP DUP4 PUSH1 0x1 SWAP6 LT PUSH2 0x745 JUMPI JUMPDEST POP POP POP DUP2 SHL ADD PUSH1 0xF SSTORE STOP JUMPDEST ADD MLOAD PUSH1 0x0 NOT PUSH1 0xF8 DUP5 PUSH1 0x3 SHL AND SHR NOT AND SWAP1 SSTORE CODESIZE DUP1 DUP1 PUSH2 0x73A JUMP JUMPDEST DUP1 PUSH1 0x1 DUP6 SWAP7 DUP3 SWAP5 SWAP7 DUP7 ADD MLOAD DUP2 SSTORE ADD SWAP6 ADD SWAP4 ADD SWAP1 PUSH2 0x727 JUMP JUMPDEST SWAP1 POP PUSH1 0xA SLOAD AND CALLER EQ CODESIZE PUSH2 0x695 JUMP JUMPDEST PUSH1 0x0 SWAP2 SUB SLT PUSH2 0x47E JUMPI JUMP JUMPDEST PUSH1 0x0 JUMPDEST DUP4 DUP2 LT PUSH2 0x7A2 JUMPI POP POP PUSH1 0x0 SWAP2 ADD MSTORE JUMP JUMPDEST DUP2 DUP2 ADD MLOAD DUP4 DUP3 ADD MSTORE PUSH1 0x20 ADD PUSH2 0x792 JUMP JUMPDEST SWAP1 PUSH1 0x20 SWAP2 PUSH2 0x7CB DUP2 MLOAD DUP1 SWAP3 DUP2 DUP6 MSTORE DUP6 DUP1 DUP7 ADD SWAP2 ADD PUSH2 0x78F JUMP JUMPDEST PUSH1 0x1F ADD PUSH1 0x1F NOT AND ADD ADD SWAP1 JUMP JUMPDEST SWAP1 PUSH1 0x20 PUSH2 0x668 SWAP3 DUP2 DUP2 MSTORE ADD SWAP1 PUSH2 0x7B2 JUMP JUMPDEST CALLVALUE PUSH2 0x47E JUMPI PUSH1 0x0 DUP1 PUSH1 0x3 NOT CALLDATASIZE ADD SLT PUSH2 0x8CC JUMPI PUSH1 0x40 MLOAD SWAP1 DUP1 DUP1 SLOAD SWAP1 PUSH2 0x80B DUP3 PUSH2 0x1489 JUMP JUMPDEST DUP1 DUP6 MSTORE SWAP2 PUSH1 0x20 SWAP2 PUSH1 0x1 SWAP2 DUP3 DUP2 AND SWAP1 DUP2 ISZERO PUSH2 0x89F JUMPI POP PUSH1 0x1 EQ PUSH2 0x848 JUMPI JUMPDEST PUSH2 0x844 DUP7 PUSH2 0x838 DUP2 DUP9 SUB DUP3 PUSH2 0x5BA JUMP JUMPDEST PUSH1 0x40 MLOAD SWAP2 DUP3 SWAP2 DUP3 PUSH2 0x7D7 JUMP JUMPDEST SUB SWAP1 RETURN JUMPDEST DUP1 DUP1 SWAP6 POP MSTORE PUSH32 0x290DECD9548B62A8D60345A988386FC84BA6BC95484008F6362F93160EF3E563 JUMPDEST DUP4 DUP6 LT PUSH2 0x88C JUMPI POP POP POP POP DUP2 ADD PUSH1 0x20 ADD PUSH2 0x838 DUP3 PUSH2 0x844 CODESIZE PUSH2 0x828 JUMP JUMPDEST DUP1 SLOAD DUP7 DUP7 ADD DUP5 ADD MSTORE SWAP4 DUP3 ADD SWAP4 DUP2 ADD PUSH2 0x86F JUMP JUMPDEST SWAP1 POP DUP7 SWAP6 POP PUSH2 0x844 SWAP7 SWAP4 POP PUSH1 0x20 SWAP3 POP PUSH2 0x838 SWAP5 SWAP2 POP PUSH1 0xFF NOT AND DUP3 DUP5 ADD MSTORE ISZERO ISZERO PUSH1 0x5 SHL DUP3 ADD ADD SWAP3 SWAP4 CODESIZE PUSH2 0x828 JUMP JUMPDEST DUP1 REVERT JUMPDEST CALLVALUE PUSH2 0x47E JUMPI PUSH1 0x20 CALLDATASIZE PUSH1 0x3 NOT ADD SLT PUSH2 0x47E JUMPI PUSH1 0x4 CALLDATALOAD PUSH2 0x8EC DUP2 PUSH2 0x3CD1 JUMP JUMPDEST POP PUSH1 0x0 MSTORE PUSH1 0x4 PUSH1 0x20 MSTORE PUSH1 0x20 PUSH1 0x1 DUP1 PUSH1 0xA0 SHL SUB PUSH1 0x40 PUSH1 0x0 KECCAK256 SLOAD AND PUSH1 0x40 MLOAD SWAP1 DUP2 MSTORE RETURN JUMPDEST CALLVALUE PUSH2 0x47E JUMPI PUSH1 0x0 CALLDATASIZE PUSH1 0x3 NOT ADD SLT PUSH2 0x47E JUMPI PUSH1 0x20 PUSH1 0xC SLOAD PUSH1 0x40 MLOAD SWAP1 DUP2 MSTORE RETURN JUMPDEST PUSH1 0x4 CALLDATALOAD SWAP1 PUSH1 0x1 PUSH1 0x1 PUSH1 0xA0 SHL SUB DUP3 AND DUP3 SUB PUSH2 0x47E JUMPI JUMP JUMPDEST PUSH1 0x24 CALLDATALOAD SWAP1 PUSH1 0x1 PUSH1 0x1 PUSH1 0xA0 SHL SUB DUP3 AND DUP3 SUB PUSH2 0x47E JUMPI JUMP JUMPDEST CALLVALUE PUSH2 0x47E JUMPI PUSH1 0x40 CALLDATASIZE PUSH1 0x3 NOT ADD SLT PUSH2 0x47E JUMPI PUSH2 0x970 PUSH2 0x92B JUMP JUMPDEST PUSH1 0x24 CALLDATALOAD SWAP1 PUSH2 0x97D DUP3 PUSH2 0x3CD1 JUMP JUMPDEST CALLER ISZERO ISZERO DUP1 PUSH2 0xA43 JUMPI JUMPDEST DUP1 PUSH2 0xA15 JUMPI JUMPDEST PUSH2 0x9FD JUMPI PUSH2 0x9FB SWAP3 PUSH2 0x9DC SWAP2 DUP2 SWAP1 PUSH1 0x1 PUSH1 0x1 PUSH1 0xA0 SHL SUB DUP6 DUP2 AND SWAP2 AND PUSH32 0x8C5BE1E5EBEC7D5BD14F71427D1E84F3DD0314C0F7B2291E5B200AC8C7C3B925 PUSH1 0x0 DUP1 LOG4 PUSH1 0x0 MSTORE PUSH1 0x4 PUSH1 0x20 MSTORE PUSH1 0x40 PUSH1 0x0 KECCAK256 SWAP1 JUMP JUMPDEST DUP1 SLOAD PUSH1 0x1 PUSH1 0x1 PUSH1 0xA0 SHL SUB NOT AND PUSH1 0x1 PUSH1 0x1 PUSH1 0xA0 SHL SUB SWAP1 SWAP3 AND SWAP2 SWAP1 SWAP2 OR SWAP1 SSTORE JUMP JUMPDEST STOP JUMPDEST PUSH1 0x40 MLOAD PUSH4 0xA9FBF51F PUSH1 0xE0 SHL DUP2 MSTORE CALLER PUSH1 0x4 DUP3 ADD MSTORE PUSH1 0x24 SWAP1 REVERT JUMPDEST POP PUSH1 0x1 PUSH1 0x1 PUSH1 0xA0 SHL SUB DUP2 AND PUSH1 0x0 SWAP1 DUP2 MSTORE PUSH1 0x5 PUSH1 0x20 SWAP1 DUP2 MSTORE PUSH1 0x40 DUP1 DUP4 KECCAK256 CALLER DUP5 MSTORE SWAP1 SWAP2 MSTORE SWAP1 KECCAK256 SLOAD PUSH1 0xFF AND ISZERO PUSH2 0x98C JUMP JUMPDEST POP PUSH1 0x1 PUSH1 0x1 PUSH1 0xA0 SHL SUB DUP2 AND CALLER EQ ISZERO PUSH2 0x986 JUMP JUMPDEST CALLVALUE PUSH2 0x47E JUMPI PUSH1 0x0 CALLDATASIZE PUSH1 0x3 NOT ADD SLT PUSH2 0x47E JUMPI PUSH1 0xB SLOAD PUSH1 0x40 MLOAD PUSH1 0x1 PUSH1 0x1 PUSH1 0xA0 SHL SUB SWAP1 SWAP2 AND DUP2 MSTORE PUSH1 0x20 SWAP1 RETURN JUMPDEST SWAP1 DUP2 MLOAD DUP1 DUP3 MSTORE PUSH1 0x20 DUP1 DUP1 SWAP4 ADD SWAP4 ADD SWAP2 PUSH1 0x0 JUMPDEST DUP3 DUP2 LT PUSH2 0xA9F JUMPI POP POP POP POP SWAP1 JUMP JUMPDEST DUP4 MLOAD DUP6 MSTORE SWAP4 DUP2 ADD SWAP4 SWAP3 DUP2 ADD SWAP3 PUSH1 0x1 ADD PUSH2 0xA91 JUMP JUMPDEST SWAP1 PUSH2 0xAC6 SWAP1 PUSH1 0x40 DUP4 MSTORE PUSH1 0x40 DUP4 ADD SWAP1 PUSH2 0xA7F JUMP JUMPDEST DUP2 DUP2 SUB PUSH1 0x20 SWAP3 DUP4 ADD MSTORE DUP3 MLOAD DUP1 DUP3 MSTORE SWAP1 DUP3 ADD SWAP3 DUP3 ADD SWAP2 PUSH1 0x0 JUMPDEST DUP3 DUP2 LT PUSH2 0xAEC JUMPI POP POP POP POP SWAP1 JUMP JUMPDEST DUP4 MLOAD ISZERO ISZERO DUP6 MSTORE SWAP4 DUP2 ADD SWAP4 SWAP3 DUP2 ADD SWAP3 PUSH1 0x1 ADD PUSH2 0xADE JUMP JUMPDEST CALLVALUE PUSH2 0x47E JUMPI PUSH1 0x20 DUP1 PUSH1 0x3 NOT CALLDATASIZE ADD SLT PUSH2 0x47E JUMPI PUSH2 0xB1C PUSH2 0x92B JUMP JUMPDEST SWAP1 PUSH2 0xB26 DUP3 PUSH2 0x358A JUMP JUMPDEST PUSH2 0xB2F DUP2 PUSH2 0x3224 JUMP JUMPDEST SWAP2 PUSH2 0xB39 DUP3 PUSH2 0x320D JUMP JUMPDEST SWAP4 PUSH1 0x40 SWAP2 PUSH2 0xB4A PUSH1 0x40 MLOAD SWAP7 DUP8 PUSH2 0x5BA JUMP JUMPDEST DUP4 DUP7 MSTORE PUSH1 0x1F NOT PUSH2 0xB59 DUP6 PUSH2 0x320D JUMP JUMPDEST ADD CALLDATASIZE PUSH1 0x20 DUP9 ADD CALLDATACOPY PUSH1 0x0 SWAP2 PUSH1 0x0 JUMPDEST DUP6 DUP2 LT PUSH2 0xB7C JUMPI PUSH1 0x40 MLOAD DUP1 PUSH2 0x844 DUP11 DUP11 DUP4 PUSH2 0xAB3 JUMP JUMPDEST DUP1 PUSH2 0xB89 PUSH1 0x1 SWAP3 DUP5 PUSH2 0x34F7 JUMP JUMPDEST PUSH2 0xB93 DUP3 DUP11 PUSH2 0x326C JUMP JUMPDEST MSTORE PUSH2 0xB9E DUP2 DUP10 PUSH2 0x326C JUMP JUMPDEST MLOAD DUP6 MSTORE PUSH1 0x1D DUP5 MSTORE PUSH1 0xFF DUP7 DUP7 KECCAK256 SLOAD AND PUSH2 0xBB6 DUP3 DUP12 PUSH2 0x326C JUMP JUMPDEST SWAP1 ISZERO ISZERO SWAP1 MSTORE ADD PUSH2 0xB66 JUMP JUMPDEST CALLVALUE PUSH2 0x47E JUMPI PUSH1 0x0 CALLDATASIZE PUSH1 0x3 NOT ADD SLT PUSH2 0x47E JUMPI PUSH1 0x20 PUSH1 0x16 SLOAD PUSH1 0x40 MLOAD SWAP1 DUP2 MSTORE RETURN JUMPDEST CALLVALUE PUSH2 0x47E JUMPI PUSH1 0x0 CALLDATASIZE PUSH1 0x3 NOT ADD SLT PUSH2 0x47E JUMPI PUSH1 0x20 PUSH1 0x8 SLOAD PUSH1 0x40 MLOAD SWAP1 DUP2 MSTORE RETURN JUMPDEST CALLVALUE PUSH2 0x47E JUMPI PUSH2 0xC0B CALLDATASIZE PUSH2 0x62D JUMP JUMPDEST PUSH1 0xD SLOAD PUSH2 0xC2C SWAP1 CALLER PUSH1 0x1 PUSH1 0x1 PUSH1 0xA0 SHL SUB SWAP2 DUP3 AND EQ SWAP1 DUP2 ISZERO PUSH2 0x776 JUMPI POP PUSH2 0x2DCC JUMP JUMPDEST DUP1 MLOAD PUSH1 0x1 PUSH1 0x1 PUSH1 0x40 SHL SUB DUP2 GT PUSH2 0x57F JUMPI PUSH2 0xC50 DUP2 PUSH2 0xC4B PUSH1 0x14 SLOAD PUSH2 0x1489 JUMP JUMPDEST PUSH2 0x2E78 JUMP JUMPDEST PUSH1 0x20 DUP1 PUSH1 0x1F DUP4 GT PUSH1 0x1 EQ PUSH2 0xC86 JUMPI POP DUP2 SWAP1 PUSH2 0xC81 SWAP4 PUSH1 0x0 SWAP3 PUSH2 0x6F6 JUMPI POP POP DUP2 PUSH1 0x1 SHL SWAP2 PUSH1 0x0 NOT SWAP1 PUSH1 0x3 SHL SHR NOT AND OR SWAP1 JUMP JUMPDEST PUSH1 0x14 SSTORE STOP JUMPDEST SWAP1 PUSH1 0x1F NOT DUP4 AND SWAP4 PUSH2 0xCA7 PUSH1 0x14 PUSH1 0x0 MSTORE PUSH1 0x0 DUP1 MLOAD PUSH1 0x20 PUSH2 0x476E DUP4 CODECOPY DUP2 MLOAD SWAP2 MSTORE SWAP1 JUMP JUMPDEST SWAP3 PUSH1 0x0 SWAP1 JUMPDEST DUP7 DUP3 LT PUSH2 0xCE3 JUMPI POP POP DUP4 PUSH1 0x1 SWAP6 LT PUSH2 0xCCA JUMPI JUMPDEST POP POP POP DUP2 SHL ADD PUSH1 0x14 SSTORE STOP JUMPDEST ADD MLOAD PUSH1 0x0 NOT PUSH1 0xF8 DUP5 PUSH1 0x3 SHL AND SHR NOT AND SWAP1 SSTORE CODESIZE DUP1 DUP1 PUSH2 0xCBF JUMP JUMPDEST DUP1 PUSH1 0x1 DUP6 SWAP7 DUP3 SWAP5 SWAP7 DUP7 ADD MLOAD DUP2 SSTORE ADD SWAP6 ADD SWAP4 ADD SWAP1 PUSH2 0xCAC JUMP JUMPDEST PUSH1 0x60 SWAP1 PUSH1 0x3 NOT ADD SLT PUSH2 0x47E JUMPI PUSH1 0x1 PUSH1 0x1 PUSH1 0xA0 SHL SUB SWAP1 PUSH1 0x4 CALLDATALOAD DUP3 DUP2 AND DUP2 SUB PUSH2 0x47E JUMPI SWAP2 PUSH1 0x24 CALLDATALOAD SWAP1 DUP2 AND DUP2 SUB PUSH2 0x47E JUMPI SWAP1 PUSH1 0x44 CALLDATALOAD SWAP1 JUMP JUMPDEST CALLVALUE PUSH2 0x47E JUMPI PUSH2 0x9FB PUSH2 0xD41 CALLDATASIZE PUSH2 0xCFB JUMP JUMPDEST SWAP2 PUSH2 0x3285 JUMP JUMPDEST CALLVALUE PUSH2 0x47E JUMPI PUSH1 0x0 DUP1 PUSH1 0x3 NOT CALLDATASIZE ADD SLT PUSH2 0x8CC JUMPI PUSH1 0xD SLOAD PUSH2 0xD7A SWAP1 CALLER PUSH1 0x1 PUSH1 0x1 PUSH1 0xA0 SHL SUB SWAP2 DUP3 AND EQ SWAP1 DUP2 ISZERO PUSH2 0x776 JUMPI POP PUSH2 0x2DCC JUMP JUMPDEST PUSH1 0x25 SLOAD PUSH1 0xFF AND PUSH2 0xE95 JUMPI PUSH1 0x10 SLOAD TIMESTAMP GT ISZERO PUSH2 0xE83 JUMPI PUSH1 0x21 SLOAD PUSH1 0xFF AND DUP1 PUSH2 0xE77 JUMPI JUMPDEST PUSH2 0xE65 JUMPI SELFBALANCE DUP1 ISZERO PUSH2 0xE53 JUMPI PUSH2 0xDB7 PUSH1 0x1 PUSH1 0xFF NOT PUSH1 0x25 SLOAD AND OR PUSH1 0x25 SSTORE JUMP JUMPDEST DUP2 DUP1 DUP1 DUP1 DUP5 PUSH2 0xDDF PUSH2 0xDD3 PUSH2 0xDD3 PUSH1 0xD SLOAD PUSH1 0x1 DUP1 PUSH1 0xA0 SHL SUB AND SWAP1 JUMP JUMPDEST PUSH1 0x1 PUSH1 0x1 PUSH1 0xA0 SHL SUB AND SWAP1 JUMP JUMPDEST GAS CALL PUSH2 0xDE9 PUSH2 0x340A JUMP JUMPDEST POP ISZERO PUSH2 0xE41 JUMPI PUSH1 0xD SLOAD PUSH32 0xEAFF4B37086828766AD3268786972C0CD24259D4C87A80F9D3963A3C3D999B0D SWAP1 PUSH2 0xE3B SWAP1 PUSH2 0xE2A SWAP1 PUSH1 0x1 PUSH1 0x1 PUSH1 0xA0 SHL SUB AND PUSH2 0xDD3 JUMP JUMPDEST PUSH1 0x40 MLOAD SWAP4 DUP5 MSTORE SWAP3 SWAP1 DUP2 SWAP1 PUSH1 0x20 DUP3 ADD SWAP1 JUMP JUMPDEST SUB SWAP1 LOG2 DUP1 RETURN JUMPDEST PUSH1 0x40 MLOAD PUSH4 0x27FCD9D1 PUSH1 0xE0 SHL DUP2 MSTORE PUSH1 0x4 SWAP1 REVERT JUMPDEST PUSH1 0x40 MLOAD PUSH4 0x67E3990D PUSH1 0xE0 SHL DUP2 MSTORE PUSH1 0x4 SWAP1 REVERT JUMPDEST PUSH1 0x40 MLOAD PUSH4 0xC8470BD PUSH1 0xE4 SHL DUP2 MSTORE PUSH1 0x4 SWAP1 REVERT JUMPDEST POP PUSH1 0x18 SLOAD TIMESTAMP GT ISZERO PUSH2 0xD9A JUMP JUMPDEST PUSH1 0x40 MLOAD PUSH4 0xFB141A0D PUSH1 0xE0 SHL DUP2 MSTORE PUSH1 0x4 SWAP1 REVERT JUMPDEST PUSH1 0x40 MLOAD PUSH4 0x3F727527 PUSH1 0xE2 SHL DUP2 MSTORE PUSH1 0x4 SWAP1 REVERT JUMPDEST SWAP6 SWAP2 SWAP4 PUSH1 0xC0 SWAP6 PUSH2 0xEE0 PUSH2 0xF01 SWAP6 PUSH1 0xFF SWAP8 PUSH2 0xEF3 SWAP6 SWAP13 SWAP12 SWAP13 PUSH1 0x1 DUP1 PUSH1 0xA0 SHL SUB AND DUP12 MSTORE ISZERO ISZERO PUSH1 0x20 DUP12 ADD MSTORE PUSH1 0xE0 PUSH1 0x40 DUP12 ADD MSTORE PUSH1 0xE0 DUP11 ADD SWAP1 PUSH2 0x7B2 JUMP JUMPDEST SWAP2 PUSH1 0x60 DUP10 ADD MSTORE DUP8 DUP3 SUB PUSH1 0x80 DUP10 ADD MSTORE PUSH2 0x7B2 JUMP JUMPDEST SWAP1 DUP6 DUP3 SUB PUSH1 0xA0 DUP8 ADD MSTORE PUSH2 0x7B2 JUMP JUMPDEST SWAP5 AND SWAP2 ADD MSTORE JUMP JUMPDEST CALLVALUE PUSH2 0x47E JUMPI PUSH1 0x20 CALLDATASIZE PUSH1 0x3 NOT ADD SLT PUSH2 0x47E JUMPI PUSH1 0x4 CALLDATALOAD PUSH1 0x0 DUP2 DUP2 MSTORE PUSH1 0x2 PUSH1 0x20 MSTORE PUSH1 0x40 SWAP1 KECCAK256 PUSH2 0xF51 SWAP1 PUSH1 0x1 PUSH1 0x1 PUSH1 0xA0 SHL SUB SWAP1 PUSH2 0xF49 SWAP1 JUMPDEST SLOAD PUSH1 0x1 PUSH1 0x1 PUSH1 0xA0 SHL SUB AND SWAP1 JUMP JUMPDEST AND ISZERO ISZERO PUSH2 0x343A JUMP JUMPDEST PUSH1 0x0 PUSH2 0xF5F PUSH1 0x17 SLOAD PUSH1 0xFF AND SWAP1 JUMP JUMPDEST ISZERO PUSH2 0xFBE JUMPI POP PUSH1 0x3 SWAP1 JUMPDEST PUSH2 0x844 PUSH2 0xF93 PUSH2 0xF8C PUSH2 0xF7B DUP5 PUSH2 0x3CD1 JUMP JUMPDEST SWAP4 PUSH1 0x0 MSTORE PUSH1 0x1D PUSH1 0x20 MSTORE PUSH1 0x40 PUSH1 0x0 KECCAK256 SWAP1 JUMP JUMPDEST SLOAD PUSH1 0xFF AND SWAP1 JUMP JUMPDEST SWAP3 PUSH1 0x10 SLOAD PUSH2 0xF9F PUSH2 0x189D JUMP JUMPDEST SWAP1 PUSH2 0xFA8 PUSH2 0x18B7 JUMP JUMPDEST SWAP1 PUSH2 0xFB1 PUSH2 0x18C8 JUMP JUMPDEST SWAP3 PUSH1 0x40 MLOAD SWAP8 DUP9 SWAP8 DUP9 PUSH2 0xEA7 JUMP JUMPDEST PUSH1 0xE SLOAD PUSH1 0x15 SLOAD GT PUSH2 0xFD2 JUMPI POP PUSH1 0x1 SWAP1 PUSH2 0xF69 JUMP JUMPDEST PUSH1 0x10 SLOAD TIMESTAMP GT ISZERO PUSH2 0xFE5 JUMPI POP PUSH1 0x2 SWAP1 PUSH2 0xF69 JUMP JUMPDEST SWAP1 PUSH2 0xF69 JUMP JUMPDEST CALLVALUE PUSH2 0x47E JUMPI PUSH1 0x20 CALLDATASIZE PUSH1 0x3 NOT ADD SLT PUSH2 0x47E JUMPI PUSH2 0x1004 PUSH2 0x92B JUMP JUMPDEST PUSH1 0xD SLOAD PUSH1 0x1 PUSH1 0x1 PUSH1 0xA0 SHL SUB SWAP2 SWAP1 DUP3 AND CALLER EQ DUP1 ISZERO PUSH2 0x1061 JUMPI JUMPDEST PUSH2 0x1025 SWAP1 PUSH2 0x2DCC JUMP JUMPDEST AND DUP1 PUSH1 0x1 PUSH1 0x1 PUSH1 0x60 SHL SUB PUSH1 0xA0 SHL PUSH1 0xB SLOAD AND OR PUSH1 0xB SSTORE PUSH32 0xFC6A300FD572A7AD998E6F2E11421513F73C2E920602D23090AE226909308908 PUSH1 0x0 DUP1 LOG2 STOP JUMPDEST POP PUSH1 0xA SLOAD DUP3 AND CALLER EQ PUSH2 0x101C JUMP JUMPDEST CALLVALUE PUSH2 0x47E JUMPI PUSH1 0x20 CALLDATASIZE PUSH1 0x3 NOT ADD SLT PUSH2 0x47E JUMPI PUSH1 0x4 CALLDATALOAD PUSH2 0x108B DUP2 PUSH2 0x3CD1 JUMP JUMPDEST CALLER PUSH1 0x1 PUSH1 0x1 PUSH1 0xA0 SHL SUB SWAP1 SWAP2 AND SUB PUSH2 0x114A JUMPI PUSH2 0x10B3 PUSH2 0xF8C DUP3 PUSH1 0x0 MSTORE PUSH1 0x1D PUSH1 0x20 MSTORE PUSH1 0x40 PUSH1 0x0 KECCAK256 SWAP1 JUMP JUMPDEST PUSH2 0x1138 JUMPI PUSH2 0x10C2 PUSH1 0x10 SLOAD PUSH2 0x3493 JUMP JUMPDEST TIMESTAMP GT PUSH2 0xE83 JUMPI PUSH1 0x17 SLOAD PUSH1 0xFF AND PUSH2 0x1126 JUMPI PUSH2 0x10F6 PUSH2 0x10E9 DUP3 PUSH1 0x0 MSTORE PUSH1 0x1D PUSH1 0x20 MSTORE PUSH1 0x40 PUSH1 0x0 KECCAK256 SWAP1 JUMP JUMPDEST DUP1 SLOAD PUSH1 0xFF NOT AND PUSH1 0x1 OR SWAP1 SSTORE JUMP JUMPDEST PUSH1 0x40 MLOAD TIMESTAMP DUP2 MSTORE CALLER SWAP1 PUSH32 0xAA5EB4D6707E5715467E6D9CEB94A60D0DDFADFF0BB1D854A226F3459485DC90 SWAP1 PUSH1 0x20 SWAP1 LOG3 STOP JUMPDEST PUSH1 0x40 MLOAD PUSH4 0x349BD759 PUSH1 0xE2 SHL DUP2 MSTORE PUSH1 0x4 SWAP1 REVERT JUMPDEST PUSH1 0x40 MLOAD PUSH4 0x8697733 PUSH1 0xE4 SHL DUP2 MSTORE PUSH1 0x4 SWAP1 REVERT JUMPDEST PUSH1 0x40 MLOAD PUSH4 0x59DC379F PUSH1 0xE0 SHL DUP2 MSTORE PUSH1 0x4 SWAP1 REVERT JUMPDEST CALLVALUE PUSH2 0x47E JUMPI PUSH1 0x40 CALLDATASIZE PUSH1 0x3 NOT ADD SLT PUSH2 0x47E JUMPI PUSH1 0x1 DUP1 PUSH1 0xA0 SHL SUB PUSH1 0xD SLOAD AND PUSH2 0x2710 PUSH2 0x1192 PUSH1 0x1 PUSH1 0x1 PUSH1 0x60 SHL SUB PUSH1 0x1C SLOAD AND PUSH1 0x24 CALLDATALOAD PUSH2 0x34E4 JUMP JUMPDEST PUSH1 0x40 DUP1 MLOAD PUSH1 0x1 PUSH1 0x1 PUSH1 0xA0 SHL SUB SWAP5 SWAP1 SWAP5 AND DUP5 MSTORE SWAP2 SWAP1 DIV PUSH1 0x20 DUP4 ADD MSTORE SWAP1 RETURN JUMPDEST CALLVALUE PUSH2 0x47E JUMPI PUSH1 0x20 CALLDATASIZE PUSH1 0x3 NOT ADD SLT PUSH2 0x47E JUMPI PUSH1 0x1 PUSH1 0x1 PUSH1 0xA0 SHL SUB PUSH2 0x11D0 PUSH2 0x92B JUMP JUMPDEST AND PUSH1 0x0 MSTORE PUSH1 0x22 PUSH1 0x20 MSTORE PUSH1 0x20 PUSH1 0x40 PUSH1 0x0 KECCAK256 SLOAD PUSH1 0x40 MLOAD SWAP1 DUP2 MSTORE RETURN JUMPDEST CALLVALUE PUSH2 0x47E JUMPI PUSH1 0x20 CALLDATASIZE PUSH1 0x3 NOT ADD SLT PUSH2 0x47E JUMPI PUSH1 0x4 CALLDATALOAD PUSH1 0x0 DUP2 DUP2 MSTORE PUSH1 0x2 PUSH1 0x20 MSTORE PUSH1 0x40 SWAP1 KECCAK256 SLOAD PUSH2 0x1220 SWAP1 PUSH1 0x1 PUSH1 0x1 PUSH1 0xA0 SHL SUB AND ISZERO ISZERO PUSH2 0x343A JUMP JUMPDEST PUSH1 0x0 MSTORE PUSH1 0x1D PUSH1 0x20 MSTORE PUSH1 0x20 PUSH1 0xFF PUSH1 0x40 PUSH1 0x0 KECCAK256 SLOAD AND PUSH1 0x40 MLOAD SWAP1 ISZERO ISZERO DUP2 MSTORE RETURN JUMPDEST CALLVALUE PUSH2 0x47E JUMPI PUSH1 0x40 CALLDATASIZE PUSH1 0x3 NOT ADD SLT PUSH2 0x47E JUMPI PUSH1 0x20 PUSH2 0x1264 PUSH2 0x125B PUSH2 0x92B JUMP JUMPDEST PUSH1 0x24 CALLDATALOAD SWAP1 PUSH2 0x34F7 JUMP JUMPDEST PUSH1 0x40 MLOAD SWAP1 DUP2 MSTORE RETURN JUMPDEST CALLVALUE PUSH2 0x47E JUMPI PUSH1 0x20 CALLDATASIZE PUSH1 0x3 NOT ADD SLT PUSH2 0x47E JUMPI PUSH2 0x1285 PUSH2 0x92B JUMP JUMPDEST PUSH2 0x128E DUP2 PUSH2 0x358A JUMP JUMPDEST PUSH2 0x1297 DUP2 PUSH2 0x3224 JUMP JUMPDEST SWAP2 PUSH1 0x0 JUMPDEST DUP3 DUP2 LT PUSH2 0x12B8 JUMPI PUSH1 0x40 MLOAD PUSH1 0x20 DUP1 DUP3 MSTORE DUP2 SWAP1 PUSH2 0x844 SWAP1 DUP3 ADD DUP8 PUSH2 0xA7F JUMP JUMPDEST DUP1 PUSH2 0x12C5 PUSH1 0x1 SWAP3 DUP5 PUSH2 0x34F7 JUMP JUMPDEST PUSH2 0x12CF DUP3 DUP8 PUSH2 0x326C JUMP JUMPDEST MSTORE ADD PUSH2 0x129B JUMP JUMPDEST CALLVALUE PUSH2 0x47E JUMPI PUSH2 0x9FB PUSH2 0x12E7 CALLDATASIZE PUSH2 0xCFB JUMP JUMPDEST SWAP1 PUSH1 0x40 MLOAD SWAP3 PUSH2 0x12F5 DUP5 PUSH2 0x584 JUMP JUMPDEST PUSH1 0x0 DUP5 MSTORE PUSH2 0x1304 DUP4 DUP4 DUP4 PUSH2 0x3285 JUMP JUMPDEST CALLER PUSH2 0x40FA JUMP JUMPDEST CALLVALUE PUSH2 0x47E JUMPI PUSH1 0x20 CALLDATASIZE PUSH1 0x3 NOT ADD SLT PUSH2 0x47E JUMPI PUSH1 0x4 CALLDATALOAD PUSH1 0x1 PUSH1 0x1 PUSH1 0x60 SHL SUB DUP2 AND DUP1 SWAP2 SUB PUSH2 0x47E JUMPI PUSH1 0xD SLOAD PUSH2 0x1350 SWAP1 CALLER PUSH1 0x1 PUSH1 0x1 PUSH1 0xA0 SHL SUB SWAP2 DUP3 AND EQ SWAP1 DUP2 ISZERO PUSH2 0x776 JUMPI POP PUSH2 0x2DCC JUMP JUMPDEST PUSH2 0x3E8 DUP2 GT PUSH2 0x136F JUMPI PUSH1 0x1 PUSH1 0x1 PUSH1 0x60 SHL SUB NOT PUSH1 0x1C SLOAD AND OR PUSH1 0x1C SSTORE PUSH1 0x0 DUP1 RETURN JUMPDEST PUSH1 0x40 MLOAD PUSH3 0x461BCD PUSH1 0xE5 SHL DUP2 MSTORE PUSH1 0x20 PUSH1 0x4 DUP3 ADD MSTORE PUSH1 0x10 PUSH1 0x24 DUP3 ADD MSTORE PUSH16 0xA4DEF2C2D8E8F240E8DEDE40D0D2CED PUSH1 0x83 SHL PUSH1 0x44 DUP3 ADD MSTORE PUSH1 0x64 SWAP1 REVERT JUMPDEST CALLVALUE PUSH2 0x47E JUMPI PUSH1 0x0 CALLDATASIZE PUSH1 0x3 NOT ADD SLT PUSH2 0x47E JUMPI PUSH1 0x20 PUSH1 0x10 SLOAD PUSH1 0x40 MLOAD SWAP1 DUP2 MSTORE RETURN JUMPDEST CALLVALUE PUSH2 0x47E JUMPI PUSH1 0x20 CALLDATASIZE PUSH1 0x3 NOT ADD SLT PUSH2 0x47E JUMPI PUSH1 0x4 CALLDATALOAD PUSH1 0x8 SLOAD DUP2 LT ISZERO PUSH2 0x1416 JUMPI PUSH1 0x20 SWAP1 PUSH1 0x8 PUSH1 0x0 MSTORE PUSH32 0xF3F7A9FE364FAAB93B216DA50A3214154F22A0A2B415B23A84C8169E8B636EE3 ADD SLOAD PUSH1 0x40 MLOAD SWAP1 DUP2 MSTORE RETURN JUMPDEST PUSH1 0x44 SWAP1 PUSH1 0x40 MLOAD SWAP1 PUSH4 0x295F44F7 PUSH1 0xE2 SHL DUP3 MSTORE PUSH1 0x0 PUSH1 0x4 DUP4 ADD MSTORE PUSH1 0x24 DUP3 ADD MSTORE REVERT JUMPDEST CALLVALUE PUSH2 0x47E JUMPI PUSH1 0x0 CALLDATASIZE PUSH1 0x3 NOT ADD SLT PUSH2 0x47E JUMPI PUSH1 0x20 PUSH1 0xFF PUSH1 0x21 SLOAD AND PUSH1 0x40 MLOAD SWAP1 ISZERO ISZERO DUP2 MSTORE RETURN JUMPDEST CALLVALUE PUSH2 0x47E JUMPI PUSH1 0x20 CALLDATASIZE PUSH1 0x3 NOT ADD SLT PUSH2 0x47E JUMPI PUSH1 0x4 CALLDATALOAD PUSH1 0x0 MSTORE PUSH1 0x23 PUSH1 0x20 MSTORE PUSH1 0x20 PUSH1 0xFF PUSH1 0x40 PUSH1 0x0 KECCAK256 SLOAD AND PUSH1 0x40 MLOAD SWAP1 ISZERO ISZERO DUP2 MSTORE RETURN JUMPDEST SWAP1 PUSH1 0x1 DUP3 DUP2 SHR SWAP3 AND DUP1 ISZERO PUSH2 0x14B9 JUMPI JUMPDEST PUSH1 0x20 DUP4 LT EQ PUSH2 0x14A3 JUMPI JUMP JUMPDEST PUSH4 0x4E487B71 PUSH1 0xE0 SHL PUSH1 0x0 MSTORE PUSH1 0x22 PUSH1 0x4 MSTORE PUSH1 0x24 PUSH1 0x0 REVERT JUMPDEST SWAP2 PUSH1 0x7F AND SWAP2 PUSH2 0x1498 JUMP JUMPDEST PUSH1 0x11 SLOAD PUSH1 0x0 SWAP3 SWAP2 PUSH2 0x14D3 DUP3 PUSH2 0x1489 JUMP JUMPDEST DUP1 DUP3 MSTORE SWAP2 PUSH1 0x20 SWAP1 PUSH1 0x1 SWAP1 DUP2 DUP2 AND SWAP1 DUP2 ISZERO PUSH2 0x1552 JUMPI POP PUSH1 0x1 EQ PUSH2 0x14F6 JUMPI JUMPDEST POP POP POP POP JUMP JUMPDEST SWAP3 SWAP4 SWAP5 POP PUSH1 0x11 PUSH1 0x0 MSTORE PUSH32 0x31ECC21A745E3968A04E9570E4425BC18FA8019C68028196B546D1669C200C68 SWAP3 PUSH1 0x0 SWAP4 JUMPDEST DUP6 DUP6 LT PUSH2 0x153F JUMPI POP POP POP PUSH1 0x20 SWAP3 POP ADD ADD SWAP1 CODESIZE DUP1 DUP1 DUP1 PUSH2 0x14F0 JUMP JUMPDEST DUP1 SLOAD DUP6 DUP6 ADD DUP5 ADD MSTORE SWAP4 DUP3 ADD SWAP4 DUP2 ADD PUSH2 0x1525 JUMP JUMPDEST SWAP3 POP POP POP PUSH1 0x20 SWAP4 SWAP5 POP PUSH1 0xFF SWAP3 SWAP2 SWAP3 NOT AND DUP4 DUP4 ADD MSTORE ISZERO ISZERO PUSH1 0x5 SHL ADD ADD SWAP1 CODESIZE DUP1 DUP1 DUP1 PUSH2 0x14F0 JUMP JUMPDEST PUSH1 0xF SLOAD PUSH1 0x0 SWAP3 SWAP2 PUSH2 0x1587 DUP3 PUSH2 0x1489 JUMP JUMPDEST DUP1 DUP3 MSTORE SWAP2 PUSH1 0x20 SWAP1 PUSH1 0x1 SWAP1 DUP2 DUP2 AND SWAP1 DUP2 ISZERO PUSH2 0x1552 JUMPI POP PUSH1 0x1 EQ PUSH2 0x15A9 JUMPI POP POP POP POP JUMP JUMPDEST SWAP3 SWAP4 SWAP5 POP PUSH1 0xF PUSH1 0x0 MSTORE PUSH1 0x0 DUP1 MLOAD PUSH1 0x20 PUSH2 0x478E DUP4 CODECOPY DUP2 MLOAD SWAP2 MSTORE SWAP3 PUSH1 0x0 SWAP4 JUMPDEST DUP6 DUP6 LT PUSH2 0x15E0 JUMPI POP POP POP PUSH1 0x20 SWAP3 POP ADD ADD SWAP1 CODESIZE DUP1 DUP1 DUP1 PUSH2 0x14F0 JUMP JUMPDEST DUP1 SLOAD DUP6 DUP6 ADD DUP5 ADD MSTORE SWAP4 DUP3 ADD SWAP4 DUP2 ADD PUSH2 0x15C6 JUMP JUMPDEST PUSH1 0x14 SLOAD PUSH1 0x0 SWAP3 SWAP2 PUSH2 0x1603 DUP3 PUSH2 0x1489 JUMP JUMPDEST DUP1 DUP3 MSTORE SWAP2 PUSH1 0x20 SWAP1 PUSH1 0x1 SWAP1 DUP2 DUP2 AND SWAP1 DUP2 ISZERO PUSH2 0x1552 JUMPI POP PUSH1 0x1 EQ PUSH2 0x1625 JUMPI POP POP POP POP JUMP JUMPDEST SWAP3 SWAP4 SWAP5 POP PUSH1 0x14 PUSH1 0x0 MSTORE PUSH1 0x0 DUP1 MLOAD PUSH1 0x20 PUSH2 0x476E DUP4 CODECOPY DUP2 MLOAD SWAP2 MSTORE SWAP3 PUSH1 0x0 SWAP4 JUMPDEST DUP6 DUP6 LT PUSH2 0x165C JUMPI POP POP POP PUSH1 0x20 SWAP3 POP ADD ADD SWAP1 CODESIZE DUP1 DUP1 DUP1 PUSH2 0x14F0 JUMP JUMPDEST DUP1 SLOAD DUP6 DUP6 ADD DUP5 ADD MSTORE SWAP4 DUP3 ADD SWAP4 DUP2 ADD PUSH2 0x1642 JUMP JUMPDEST PUSH1 0x12 SLOAD PUSH1 0x0 SWAP3 SWAP2 PUSH2 0x167F DUP3 PUSH2 0x1489 JUMP JUMPDEST DUP1 DUP3 MSTORE SWAP2 PUSH1 0x20 SWAP1 PUSH1 0x1 SWAP1 DUP2 DUP2 AND SWAP1 DUP2 ISZERO PUSH2 0x1552 JUMPI POP PUSH1 0x1 EQ PUSH2 0x16A1 JUMPI POP POP POP POP JUMP JUMPDEST SWAP3 SWAP4 SWAP5 POP PUSH1 0x12 PUSH1 0x0 MSTORE PUSH32 0xBB8A6A4669BA250D26CD7A459ECA9D215F8307E33AEBE50379BC5A3617EC3444 SWAP3 PUSH1 0x0 SWAP4 JUMPDEST DUP6 DUP6 LT PUSH2 0x16EA JUMPI POP POP POP PUSH1 0x20 SWAP3 POP ADD ADD SWAP1 CODESIZE DUP1 DUP1 DUP1 PUSH2 0x14F0 JUMP JUMPDEST DUP1 SLOAD DUP6 DUP6 ADD DUP5 ADD MSTORE SWAP4 DUP3 ADD SWAP4 DUP2 ADD PUSH2 0x16D0 JUMP JUMPDEST PUSH1 0x13 SLOAD PUSH1 0x0 SWAP3 SWAP2 PUSH2 0x170D DUP3 PUSH2 0x1489 JUMP JUMPDEST DUP1 DUP3 MSTORE SWAP2 PUSH1 0x20 SWAP1 PUSH1 0x1 SWAP1 DUP2 DUP2 AND SWAP1 DUP2 ISZERO PUSH2 0x1552 JUMPI POP PUSH1 0x1 EQ PUSH2 0x172F JUMPI POP POP POP POP JUMP JUMPDEST SWAP3 SWAP4 SWAP5 POP PUSH1 0x13 PUSH1 0x0 MSTORE PUSH32 0x66DE8FFDA797E3DE9C05E8FC57B3BF0EC28A930D40B0D285D93C06501CF6A090 SWAP3 PUSH1 0x0 SWAP4 JUMPDEST DUP6 DUP6 LT PUSH2 0x1778 JUMPI POP POP POP PUSH1 0x20 SWAP3 POP ADD ADD SWAP1 CODESIZE DUP1 DUP1 DUP1 PUSH2 0x14F0 JUMP JUMPDEST DUP1 SLOAD DUP6 DUP6 ADD DUP5 ADD MSTORE SWAP4 DUP3 ADD SWAP4 DUP2 ADD PUSH2 0x175E JUMP JUMPDEST PUSH1 0x19 SLOAD PUSH1 0x0 SWAP3 SWAP2 PUSH2 0x179B DUP3 PUSH2 0x1489 JUMP JUMPDEST DUP1 DUP3 MSTORE SWAP2 PUSH1 0x20 SWAP1 PUSH1 0x1 SWAP1 DUP2 DUP2 AND SWAP1 DUP2 ISZERO PUSH2 0x1552 JUMPI POP PUSH1 0x1 EQ PUSH2 0x17BD JUMPI POP POP POP POP JUMP JUMPDEST SWAP3 SWAP4 SWAP5 POP PUSH1 0x19 PUSH1 0x0 MSTORE PUSH1 0x0 DUP1 MLOAD PUSH1 0x20 PUSH2 0x47AE DUP4 CODECOPY DUP2 MLOAD SWAP2 MSTORE SWAP3 PUSH1 0x0 SWAP4 JUMPDEST DUP6 DUP6 LT PUSH2 0x17F4 JUMPI POP POP POP PUSH1 0x20 SWAP3 POP ADD ADD SWAP1 CODESIZE DUP1 DUP1 DUP1 PUSH2 0x14F0 JUMP JUMPDEST DUP1 SLOAD DUP6 DUP6 ADD DUP5 ADD MSTORE SWAP4 DUP3 ADD SWAP4 DUP2 ADD PUSH2 0x17DA JUMP JUMPDEST DUP1 SLOAD PUSH1 0x0 SWAP4 SWAP3 PUSH2 0x1816 DUP3 PUSH2 0x1489 JUMP JUMPDEST SWAP2 DUP3 DUP3 MSTORE PUSH1 0x20 SWAP4 PUSH1 0x1 SWAP2 PUSH1 0x1 DUP2 AND SWAP1 DUP2 PUSH1 0x0 EQ PUSH2 0x187E JUMPI POP PUSH1 0x1 EQ PUSH2 0x183D JUMPI JUMPDEST POP POP POP POP POP JUMP JUMPDEST SWAP1 SWAP4 SWAP5 SWAP6 POP PUSH1 0x0 SWAP3 SWAP2 SWAP3 MSTORE DUP4 PUSH1 0x0 KECCAK256 SWAP3 DUP5 PUSH1 0x0 SWAP5 JUMPDEST DUP4 DUP7 LT PUSH2 0x186A JUMPI POP POP POP POP ADD ADD SWAP1 CODESIZE DUP1 DUP1 DUP1 DUP1 PUSH2 0x1836 JUMP JUMPDEST DUP1 SLOAD DUP6 DUP8 ADD DUP4 ADD MSTORE SWAP5 ADD SWAP4 DUP6 SWAP1 DUP3 ADD PUSH2 0x1852 JUMP JUMPDEST PUSH1 0xFF NOT AND DUP7 DUP6 ADD MSTORE POP POP POP SWAP1 ISZERO ISZERO PUSH1 0x5 SHL ADD ADD SWAP2 POP CODESIZE DUP1 DUP1 DUP1 DUP1 PUSH2 0x1836 JUMP JUMPDEST PUSH1 0x40 MLOAD SWAP1 PUSH2 0x18B5 DUP3 PUSH2 0x18AE DUP2 PUSH2 0x1577 JUMP JUMPDEST SUB DUP4 PUSH2 0x5BA JUMP JUMPDEST JUMP JUMPDEST PUSH1 0x40 MLOAD SWAP1 PUSH2 0x18B5 DUP3 PUSH2 0x18AE DUP2 PUSH2 0x14C3 JUMP JUMPDEST PUSH1 0x40 MLOAD SWAP1 PUSH2 0x18B5 DUP3 PUSH2 0x18AE DUP2 PUSH2 0x15F3 JUMP JUMPDEST PUSH1 0x40 MLOAD SWAP1 PUSH2 0x18B5 DUP3 PUSH2 0x18AE DUP2 PUSH2 0x166F JUMP JUMPDEST PUSH1 0x40 MLOAD SWAP1 PUSH2 0x18B5 DUP3 PUSH2 0x18AE DUP2 PUSH2 0x16FD JUMP JUMPDEST PUSH1 0x40 MLOAD SWAP1 PUSH2 0x18B5 DUP3 PUSH2 0x18AE DUP2 PUSH2 0x178B JUMP JUMPDEST SWAP1 PUSH2 0x18B5 PUSH2 0x18AE SWAP3 PUSH1 0x40 MLOAD SWAP4 DUP5 DUP1 SWAP3 PUSH2 0x1807 JUMP JUMPDEST CALLVALUE PUSH2 0x47E JUMPI PUSH1 0x20 CALLDATASIZE PUSH1 0x3 NOT ADD SLT PUSH2 0x47E JUMPI PUSH1 0x4 CALLDATALOAD PUSH1 0x0 MSTORE PUSH1 0x1E PUSH1 0x20 MSTORE PUSH2 0x844 PUSH2 0x1956 PUSH2 0x195D PUSH1 0x40 PUSH1 0x0 KECCAK256 PUSH1 0x40 MLOAD SWAP3 DUP4 DUP1 SWAP3 PUSH2 0x1807 JUMP JUMPDEST SUB DUP3 PUSH2 0x5BA JUMP JUMPDEST PUSH1 0x40 MLOAD SWAP2 DUP3 SWAP2 PUSH1 0x20 DUP4 MSTORE PUSH1 0x20 DUP4 ADD SWAP1 PUSH2 0x7B2 JUMP JUMPDEST PUSH1 0x0 DUP1 PUSH1 0x3 NOT CALLDATASIZE ADD SLT PUSH2 0x8CC JUMPI PUSH1 0x17 SLOAD PUSH1 0xFF DUP2 AND PUSH2 0x1126 JUMPI PUSH1 0x8 SHR PUSH1 0xFF AND PUSH2 0x1B2C JUMPI PUSH1 0xE SLOAD PUSH1 0x15 SLOAD DUP2 LT ISZERO PUSH2 0x1B1A JUMPI PUSH1 0x16 SLOAD CALLVALUE LT PUSH2 0x1B08 JUMPI PUSH2 0x19BA PUSH2 0x19B5 DUP3 PUSH2 0x3557 JUMP JUMPDEST PUSH1 0xE SSTORE JUMP JUMPDEST CALLER EXTCODESIZE ISZERO PUSH2 0x1AF9 JUMPI PUSH2 0x19CB DUP2 CALLER PUSH2 0x3E13 JUMP JUMPDEST PUSH2 0x19EF PUSH2 0x19D6 PUSH2 0x3F3F JUMP JUMPDEST PUSH2 0x19EA DUP4 PUSH1 0x0 MSTORE PUSH1 0x1E PUSH1 0x20 MSTORE PUSH1 0x40 PUSH1 0x0 KECCAK256 SWAP1 JUMP JUMPDEST PUSH2 0x3144 JUMP JUMPDEST PUSH2 0x1A07 CALLER PUSH2 0x9DC DUP4 PUSH1 0x0 MSTORE PUSH1 0x1F PUSH1 0x20 MSTORE PUSH1 0x40 PUSH1 0x0 KECCAK256 SWAP1 JUMP JUMPDEST CALLVALUE PUSH2 0x1A1B DUP3 PUSH1 0x0 MSTORE PUSH1 0x20 DUP1 MSTORE PUSH1 0x40 PUSH1 0x0 KECCAK256 SWAP1 JUMP JUMPDEST SSTORE DUP1 PUSH2 0x1A31 DUP2 PUSH1 0x0 MSTORE PUSH1 0x1E PUSH1 0x20 MSTORE PUSH1 0x40 PUSH1 0x0 KECCAK256 SWAP1 JUMP JUMPDEST PUSH32 0xB89988E1D3E88C0F1C82060EACD83B1EEFF9D84E2DCEB882DE0781FBB7C04FC5 PUSH1 0x40 MLOAD DUP1 PUSH2 0x1A62 CALLER SWAP5 CALLVALUE DUP4 PUSH2 0x3566 JUMP JUMPDEST SUB SWAP1 LOG3 PUSH1 0xB SLOAD PUSH1 0x1 PUSH1 0x1 PUSH1 0xA0 SHL SUB AND DUP1 PUSH2 0x1A82 JUMPI JUMPDEST PUSH1 0x40 MLOAD DUP3 DUP2 MSTORE PUSH1 0x20 SWAP1 RETURN JUMPDEST PUSH1 0xD SLOAD PUSH1 0x1 PUSH1 0x1 PUSH1 0xA0 SHL SUB AND SWAP1 PUSH1 0x16 SLOAD SWAP2 DUP2 EXTCODESIZE ISZERO PUSH2 0x1AF5 JUMPI PUSH1 0x40 MLOAD PUSH4 0x61B0C739 PUSH1 0xE0 SHL DUP2 MSTORE PUSH1 0x1 PUSH1 0x1 PUSH1 0xA0 SHL SUB SWAP2 SWAP1 SWAP2 AND PUSH1 0x4 DUP3 ADD MSTORE PUSH1 0x1 PUSH1 0x24 DUP3 ADD MSTORE PUSH1 0x44 DUP2 ADD SWAP3 SWAP1 SWAP3 MSTORE PUSH2 0x844 SWAP4 SWAP1 DUP3 SWAP1 PUSH1 0x64 SWAP1 DUP3 SWAP1 DUP5 SWAP1 GAS CALL ISZERO PUSH2 0x1A77 JUMPI DUP1 PUSH2 0x1AE9 PUSH2 0x1AEF SWAP3 PUSH2 0x56C JUMP JUMPDEST DUP1 PUSH2 0x784 JUMP JUMPDEST CODESIZE PUSH2 0x1A77 JUMP JUMPDEST DUP5 DUP1 REVERT JUMPDEST PUSH2 0x1B03 DUP2 CALLER PUSH2 0x3D0C JUMP JUMPDEST PUSH2 0x19CB JUMP JUMPDEST PUSH1 0x40 MLOAD PUSH4 0xCD1C8867 PUSH1 0xE0 SHL DUP2 MSTORE PUSH1 0x4 SWAP1 REVERT JUMPDEST PUSH1 0x40 MLOAD PUSH4 0x52DF9FE5 PUSH1 0xE0 SHL DUP2 MSTORE PUSH1 0x4 SWAP1 REVERT JUMPDEST PUSH1 0x40 MLOAD PUSH4 0xE158361 PUSH1 0xE3 SHL DUP2 MSTORE PUSH1 0x4 SWAP1 REVERT JUMPDEST CALLVALUE PUSH2 0x47E JUMPI PUSH1 0x0 CALLDATASIZE PUSH1 0x3 NOT ADD SLT PUSH2 0x47E JUMPI PUSH2 0x844 PUSH1 0x40 MLOAD PUSH2 0x195D DUP2 PUSH2 0x1956 DUP2 PUSH2 0x16FD JUMP JUMPDEST CALLVALUE PUSH2 0x47E JUMPI PUSH1 0x0 CALLDATASIZE PUSH1 0x3 NOT ADD SLT PUSH2 0x47E JUMPI PUSH1 0xD SLOAD PUSH1 0x40 MLOAD PUSH1 0x1 PUSH1 0x1 PUSH1 0xA0 SHL SUB SWAP1 SWAP2 AND DUP2 MSTORE PUSH1 0x20 SWAP1 RETURN JUMPDEST CALLVALUE PUSH2 0x47E JUMPI PUSH1 0x20 CALLDATASIZE PUSH1 0x3 NOT ADD SLT PUSH2 0x47E JUMPI PUSH1 0x20 PUSH2 0x1BA9 PUSH1 0x4 CALLDATALOAD PUSH2 0x3CD1 JUMP JUMPDEST PUSH1 0x40 MLOAD PUSH1 0x1 PUSH1 0x1 PUSH1 0xA0 SHL SUB SWAP1 SWAP2 AND DUP2 MSTORE RETURN JUMPDEST CALLVALUE PUSH2 0x47E JUMPI PUSH1 0x0 DUP1 PUSH1 0x3 NOT CALLDATASIZE ADD SLT PUSH2 0x8CC JUMPI PUSH1 0x40 MLOAD SWAP1 DUP1 DUP3 PUSH1 0x1B SLOAD SWAP2 PUSH2 0x1BE0 DUP4 PUSH2 0x1489 JUMP JUMPDEST SWAP3 DUP4 DUP4 MSTORE PUSH1 0x20 SWAP5 PUSH1 0x1 SWAP2 DUP7 PUSH1 0x1 DUP3 AND SWAP2 DUP3 PUSH1 0x0 EQ PUSH2 0x1C7E JUMPI POP POP PUSH1 0x1 EQ PUSH2 0x1C24 JUMPI JUMPDEST POP POP PUSH2 0x1C10 SWAP3 POP SUB DUP4 PUSH2 0x5BA JUMP JUMPDEST PUSH2 0x844 PUSH1 0x40 MLOAD SWAP3 DUP3 DUP5 SWAP4 DUP5 MSTORE DUP4 ADD SWAP1 PUSH2 0x7B2 JUMP JUMPDEST SWAP1 DUP6 SWAP3 POP PUSH1 0x1B DUP3 MSTORE PUSH32 0x3AD8AA4F87544323A9D1E5DD902F40C356527A7955687113DB5F9A85AD579DC1 JUMPDEST DUP6 DUP4 LT PUSH2 0x1C66 JUMPI POP POP PUSH2 0x1C10 SWAP4 POP DUP3 ADD ADD CODESIZE DUP1 PUSH2 0x1C02 JUMP JUMPDEST DUP1 SLOAD DUP4 DUP10 ADD DUP6 ADD MSTORE DUP8 SWAP5 POP DUP7 SWAP4 SWAP1 SWAP3 ADD SWAP2 DUP2 ADD PUSH2 0x1C4E JUMP JUMPDEST SWAP3 POP SWAP4 POP POP PUSH2 0x1C10 SWAP5 SWAP2 POP PUSH1 0xFF NOT AND DUP3 DUP5 ADD MSTORE ISZERO ISZERO PUSH1 0x5 SHL DUP3 ADD ADD CODESIZE DUP1 PUSH2 0x1C02 JUMP JUMPDEST CALLVALUE PUSH2 0x47E JUMPI PUSH1 0x0 CALLDATASIZE PUSH1 0x3 NOT ADD SLT PUSH2 0x47E JUMPI PUSH2 0x844 PUSH1 0x40 MLOAD PUSH2 0x195D DUP2 PUSH2 0x1956 DUP2 PUSH2 0x15F3 JUMP JUMPDEST CALLVALUE PUSH2 0x47E JUMPI PUSH1 0x0 CALLDATASIZE PUSH1 0x3 NOT ADD SLT PUSH2 0x47E JUMPI PUSH2 0x844 PUSH1 0x40 MLOAD PUSH2 0x195D DUP2 PUSH2 0x1956 DUP2 PUSH2 0x166F JUMP JUMPDEST SWAP6 SWAP3 SWAP2 PUSH1 0xC0 SWAP6 SWAP3 PUSH2 0x1D08 PUSH2 0x1D1B SWAP4 SWAP11 SWAP10 SWAP7 SWAP11 PUSH1 0xE0 DUP11 MSTORE PUSH1 0xE0 DUP11 ADD SWAP1 PUSH2 0x7B2 JUMP JUMPDEST SWAP2 PUSH1 0x20 DUP10 ADD MSTORE DUP8 DUP3 SUB PUSH1 0x40 DUP10 ADD MSTORE PUSH2 0x7B2 JUMP JUMPDEST SWAP7 PUSH1 0x60 DUP7 ADD MSTORE PUSH1 0x80 DUP6 ADD MSTORE ISZERO ISZERO PUSH1 0xA0 DUP5 ADD MSTORE ISZERO ISZERO SWAP2 ADD MSTORE JUMP JUMPDEST CALLVALUE PUSH2 0x47E JUMPI PUSH1 0x0 DUP1 PUSH1 0x3 NOT CALLDATASIZE ADD SLT PUSH2 0x8CC JUMPI PUSH1 0x10 SLOAD PUSH1 0x16 SLOAD SWAP1 PUSH1 0x15 SLOAD PUSH1 0xE SLOAD DUP2 SUB SWAP1 DUP2 GT PUSH2 0x1E4A JUMPI PUSH1 0x17 SLOAD SWAP1 PUSH1 0x40 MLOAD SWAP1 DUP6 PUSH1 0xF SLOAD SWAP1 PUSH2 0x1D72 DUP3 PUSH2 0x1489 JUMP JUMPDEST DUP1 DUP6 MSTORE SWAP2 PUSH1 0x20 SWAP2 PUSH1 0x1 SWAP2 DUP3 DUP2 AND SWAP1 DUP2 ISZERO PUSH2 0x1E1B JUMPI POP PUSH1 0x1 EQ PUSH2 0x1DD3 JUMPI JUMPDEST POP POP POP POP PUSH2 0x1DA4 DUP3 PUSH2 0x844 SWAP6 SWAP7 SWAP8 SUB DUP4 PUSH2 0x5BA JUMP JUMPDEST PUSH1 0x40 MLOAD SWAP6 PUSH2 0x1DBC DUP8 PUSH2 0x1DB5 DUP2 PUSH2 0x14C3 JUMP JUMPDEST SUB DUP9 PUSH2 0x5BA JUMP JUMPDEST PUSH1 0x40 MLOAD SWAP7 DUP8 SWAP7 PUSH1 0xFF DUP1 DUP8 PUSH1 0x8 SHR AND SWAP7 AND SWAP5 DUP9 PUSH2 0x1CE8 JUMP JUMPDEST SWAP9 POP PUSH1 0xF DUP10 MSTORE PUSH1 0x0 DUP1 MLOAD PUSH1 0x20 PUSH2 0x478E DUP4 CODECOPY DUP2 MLOAD SWAP2 MSTORE JUMPDEST DUP4 DUP11 LT PUSH2 0x1E08 JUMPI POP POP POP POP SWAP5 DUP2 ADD PUSH1 0x20 ADD SWAP5 PUSH2 0x1DA4 DUP3 PUSH2 0x844 CODESIZE PUSH2 0x1D8F JUMP JUMPDEST DUP1 SLOAD DUP7 DUP12 ADD DUP5 ADD MSTORE SWAP9 DUP3 ADD SWAP9 DUP2 ADD PUSH2 0x1DE9 JUMP JUMPDEST PUSH1 0xFF NOT AND PUSH1 0x20 DUP1 DUP10 ADD SWAP2 SWAP1 SWAP2 MSTORE SWAP5 ISZERO ISZERO PUSH1 0x5 SHL DUP8 ADD SWAP1 SWAP5 ADD SWAP10 POP PUSH2 0x1DA4 SWAP4 POP DUP6 SWAP3 POP PUSH2 0x844 SWAP2 POP CODESIZE SWAP1 POP PUSH2 0x1D8F JUMP JUMPDEST PUSH2 0x347D JUMP JUMPDEST CALLVALUE PUSH2 0x47E JUMPI PUSH1 0x20 CALLDATASIZE PUSH1 0x3 NOT ADD SLT PUSH2 0x47E JUMPI PUSH1 0x20 PUSH2 0x1264 PUSH2 0x1E6D PUSH2 0x92B JUMP JUMPDEST PUSH2 0x358A JUMP JUMPDEST CALLVALUE PUSH2 0x47E JUMPI PUSH1 0x0 DUP1 PUSH1 0x3 NOT CALLDATASIZE ADD SLT PUSH2 0x8CC JUMPI PUSH2 0x1E8C PUSH2 0x3F84 JUMP JUMPDEST PUSH1 0xA DUP1 SLOAD PUSH1 0x1 PUSH1 0x1 PUSH1 0xA0 SHL SUB NOT DUP2 AND SWAP1 SWAP2 SSTORE DUP2 SWAP1 PUSH1 0x1 PUSH1 0x1 PUSH1 0xA0 SHL SUB AND PUSH32 0x8BE0079C531659141344CD1FD0A4F28419497F9722A3DAAFE3B4186F6B6457E0 DUP3 DUP1 LOG3 DUP1 RETURN JUMPDEST CALLVALUE PUSH2 0x47E JUMPI PUSH1 0x0 DUP1 PUSH1 0x3 NOT CALLDATASIZE ADD SLT PUSH2 0x8CC JUMPI PUSH1 0x40 MLOAD SWAP1 DUP1 DUP3 PUSH1 0x1A SLOAD SWAP2 PUSH2 0x1EF5 DUP4 PUSH2 0x1489 JUMP JUMPDEST SWAP3 DUP4 DUP4 MSTORE PUSH1 0x20 SWAP5 PUSH1 0x1 SWAP2 DUP7 PUSH1 0x1 DUP3 AND SWAP2 DUP3 PUSH1 0x0 EQ PUSH2 0x1C7E JUMPI POP POP PUSH1 0x1 EQ PUSH2 0x1F24 JUMPI POP POP PUSH2 0x1C10 SWAP3 POP SUB DUP4 PUSH2 0x5BA JUMP JUMPDEST SWAP1 DUP6 SWAP3 POP PUSH1 0x1A DUP3 MSTORE PUSH1 0x0 DUP1 MLOAD PUSH1 0x20 PUSH2 0x474E DUP4 CODECOPY DUP2 MLOAD SWAP2 MSTORE JUMPDEST DUP6 DUP4 LT PUSH2 0x1F54 JUMPI POP POP PUSH2 0x1C10 SWAP4 POP DUP3 ADD ADD CODESIZE DUP1 PUSH2 0x1C02 JUMP JUMPDEST DUP1 SLOAD DUP4 DUP10 ADD DUP6 ADD MSTORE DUP8 SWAP5 POP DUP7 SWAP4 SWAP1 SWAP3 ADD SWAP2 DUP2 ADD PUSH2 0x1F3C JUMP JUMPDEST CALLVALUE PUSH2 0x47E JUMPI PUSH1 0x0 CALLDATASIZE PUSH1 0x3 NOT ADD SLT PUSH2 0x47E JUMPI PUSH2 0x844 PUSH1 0x40 MLOAD PUSH2 0x195D DUP2 PUSH2 0x1956 DUP2 PUSH2 0x1577 JUMP JUMPDEST CALLVALUE PUSH2 0x47E JUMPI PUSH2 0x1F9E CALLDATASIZE PUSH2 0x62D JUMP JUMPDEST PUSH1 0xD SLOAD PUSH2 0x1FBF SWAP1 CALLER PUSH1 0x1 PUSH1 0x1 PUSH1 0xA0 SHL SUB SWAP2 DUP3 AND EQ SWAP1 DUP2 ISZERO PUSH2 0x776 JUMPI POP PUSH2 0x2DCC JUMP JUMPDEST DUP1 MLOAD PUSH1 0x1 PUSH1 0x1 PUSH1 0x40 SHL SUB DUP2 GT PUSH2 0x57F JUMPI PUSH2 0x1FE3 DUP2 PUSH2 0x1FDE PUSH1 0x1A SLOAD PUSH2 0x1489 JUMP JUMPDEST PUSH2 0x2ED8 JUMP JUMPDEST PUSH1 0x20 PUSH1 0x1F DUP3 GT PUSH1 0x1 EQ PUSH2 0x2081 JUMPI SWAP1 DUP1 PUSH2 0x2012 SWAP3 PUSH1 0x0 SWAP2 PUSH2 0x2076 JUMPI JUMPDEST POP DUP2 PUSH1 0x1 SHL SWAP2 PUSH1 0x0 NOT SWAP1 PUSH1 0x3 SHL SHR NOT AND OR SWAP1 JUMP JUMPDEST PUSH1 0x1A SSTORE JUMPDEST DUP1 MLOAD PUSH2 0x201E JUMPI STOP JUMPDEST PUSH2 0x2065 PUSH2 0x2071 PUSH2 0x9FB SWAP3 PUSH1 0x40 MLOAD SWAP1 DUP2 PUSH2 0x203B PUSH1 0x20 DUP3 ADD DUP1 SWAP4 PUSH2 0x35C3 JUMP JUMPDEST SUB SWAP2 PUSH2 0x204F PUSH1 0x1F NOT SWAP4 DUP5 DUP2 ADD DUP4 MSTORE DUP3 PUSH2 0x5BA JUMP JUMPDEST MLOAD SWAP1 KECCAK256 PUSH1 0x40 MLOAD SWAP4 DUP5 SWAP2 PUSH1 0x20 DUP4 ADD PUSH1 0x20 SWAP2 DUP2 MSTORE ADD SWAP1 JUMP JUMPDEST SUB SWAP1 DUP2 ADD DUP4 MSTORE DUP3 PUSH2 0x5BA JUMP JUMPDEST PUSH2 0x3060 JUMP JUMPDEST SWAP1 POP DUP4 ADD MLOAD CODESIZE PUSH2 0x1FFE JUMP JUMPDEST PUSH1 0x1A PUSH1 0x0 MSTORE PUSH1 0x1F NOT DUP3 AND SWAP1 PUSH1 0x0 DUP1 MLOAD PUSH1 0x20 PUSH2 0x474E DUP4 CODECOPY DUP2 MLOAD SWAP2 MSTORE SWAP2 PUSH1 0x0 JUMPDEST DUP2 DUP2 LT PUSH2 0x20DA JUMPI POP SWAP1 DUP4 PUSH1 0x1 SWAP5 SWAP4 SWAP3 LT PUSH2 0x20C1 JUMPI JUMPDEST POP POP DUP2 SHL ADD PUSH1 0x1A SSTORE PUSH2 0x2016 JUMP JUMPDEST DUP5 ADD MLOAD PUSH1 0x0 NOT PUSH1 0xF8 DUP5 PUSH1 0x3 SHL AND SHR NOT AND SWAP1 SSTORE CODESIZE DUP1 PUSH2 0x20B4 JUMP JUMPDEST SWAP2 SWAP3 PUSH1 0x20 PUSH1 0x1 DUP2 SWAP3 DUP7 DUP10 ADD MLOAD DUP2 SSTORE ADD SWAP5 ADD SWAP3 ADD PUSH2 0x209F JUMP JUMPDEST CALLVALUE PUSH2 0x47E JUMPI PUSH1 0x0 CALLDATASIZE PUSH1 0x3 NOT ADD SLT PUSH2 0x47E JUMPI PUSH1 0xA SLOAD PUSH1 0x40 MLOAD PUSH1 0x1 PUSH1 0x1 PUSH1 0xA0 SHL SUB SWAP1 SWAP2 AND DUP2 MSTORE PUSH1 0x20 SWAP1 RETURN JUMPDEST CALLVALUE PUSH2 0x47E JUMPI PUSH1 0x0 CALLDATASIZE PUSH1 0x3 NOT ADD SLT PUSH2 0x47E JUMPI PUSH1 0xD SLOAD PUSH2 0x214D SWAP1 CALLER PUSH1 0x1 PUSH1 0x1 PUSH1 0xA0 SHL SUB SWAP2 DUP3 AND EQ SWAP1 DUP2 ISZERO PUSH2 0x776 JUMPI POP PUSH2 0x2DCC JUMP JUMPDEST PUSH1 0x17 SLOAD PUSH1 0xFF DUP2 PUSH1 0x8 SHR AND ISZERO PUSH2 0x2197 JUMPI PUSH2 0xFF00 NOT AND PUSH1 0x17 SSTORE PUSH1 0x40 MLOAD TIMESTAMP DUP2 MSTORE PUSH32 0x153E62E8CBF370987F79CDE37897D15D96049C5DA8601CC119746169FEBED1C9 SWAP1 DUP1 PUSH1 0x20 DUP2 ADD JUMPDEST SUB SWAP1 LOG1 STOP JUMPDEST PUSH1 0x40 MLOAD PUSH3 0x461BCD PUSH1 0xE5 SHL DUP2 MSTORE PUSH1 0x20 PUSH1 0x4 DUP3 ADD MSTORE PUSH1 0xA PUSH1 0x24 DUP3 ADD MSTORE PUSH10 0x139BDD081C185D5CD959 PUSH1 0xB2 SHL PUSH1 0x44 DUP3 ADD MSTORE PUSH1 0x64 SWAP1 REVERT JUMPDEST CALLVALUE PUSH2 0x47E JUMPI PUSH1 0x0 CALLDATASIZE PUSH1 0x3 NOT ADD SLT PUSH2 0x47E JUMPI PUSH2 0x844 PUSH1 0x40 MLOAD PUSH2 0x195D DUP2 PUSH2 0x1956 DUP2 PUSH2 0x178B JUMP JUMPDEST CALLVALUE PUSH2 0x47E JUMPI PUSH1 0x0 DUP1 PUSH1 0x3 NOT CALLDATASIZE ADD SLT PUSH2 0x8CC JUMPI PUSH1 0x40 MLOAD SWAP1 DUP1 PUSH1 0x1 DUP1 SLOAD SWAP1 PUSH2 0x2212 DUP3 PUSH2 0x1489 JUMP JUMPDEST DUP1 DUP7 MSTORE SWAP3 PUSH1 0x20 SWAP3 PUSH1 0x1 DUP2 AND SWAP1 DUP2 ISZERO PUSH2 0x89F JUMPI POP PUSH1 0x1 EQ PUSH2 0x223C JUMPI PUSH2 0x844 DUP7 PUSH2 0x838 DUP2 DUP9 SUB DUP3 PUSH2 0x5BA JUMP JUMPDEST SWAP4 POP PUSH1 0x1 DUP5 MSTORE PUSH32 0xB10E2D527612073B26EECDFD717E6A320CF44B4AFAC2B0732D9FCBE2B7FA0CF6 JUMPDEST DUP4 DUP6 LT PUSH2 0x2281 JUMPI POP POP POP POP DUP2 ADD PUSH1 0x20 ADD PUSH2 0x838 DUP3 PUSH2 0x844 CODESIZE PUSH2 0x828 JUMP JUMPDEST DUP1 SLOAD DUP7 DUP7 ADD DUP5 ADD MSTORE SWAP4 DUP3 ADD SWAP4 DUP2 ADD PUSH2 0x2264 JUMP JUMPDEST CALLVALUE PUSH2 0x47E JUMPI PUSH1 0x20 CALLDATASIZE PUSH1 0x3 NOT ADD SLT PUSH2 0x47E JUMPI PUSH1 0x4 CALLDATALOAD PUSH1 0x0 MSTORE PUSH1 0x20 DUP1 MSTORE PUSH1 0x20 PUSH1 0x40 PUSH1 0x0 KECCAK256 SLOAD PUSH1 0x40 MLOAD SWAP1 DUP2 MSTORE RETURN JUMPDEST CALLVALUE PUSH2 0x47E JUMPI PUSH1 0x0 CALLDATASIZE PUSH1 0x3 NOT ADD SLT PUSH2 0x47E JUMPI PUSH1 0x20 PUSH1 0x1 PUSH1 0x1 PUSH1 0x60 SHL SUB PUSH1 0x1C SLOAD AND PUSH1 0x40 MLOAD SWAP1 DUP2 MSTORE RETURN JUMPDEST CALLVALUE PUSH2 0x47E JUMPI PUSH1 0x40 CALLDATASIZE PUSH1 0x3 NOT ADD SLT PUSH2 0x47E JUMPI PUSH2 0x22FF PUSH2 0x92B JUMP JUMPDEST PUSH1 0x24 CALLDATALOAD DUP1 ISZERO ISZERO SWAP1 DUP2 DUP2 SUB PUSH2 0x47E JUMPI PUSH1 0x1 PUSH1 0x1 PUSH1 0xA0 SHL SUB DUP4 AND SWAP3 DUP4 ISZERO PUSH2 0x238A JUMPI SWAP1 PUSH2 0x234B PUSH2 0x235C SWAP3 CALLER PUSH1 0x0 MSTORE PUSH1 0x5 PUSH1 0x20 MSTORE PUSH1 0x40 PUSH1 0x0 KECCAK256 SWAP1 PUSH1 0x1 DUP1 PUSH1 0xA0 SHL SUB AND PUSH1 0x0 MSTORE PUSH1 0x20 MSTORE PUSH1 0x40 PUSH1 0x0 KECCAK256 SWAP1 JUMP JUMPDEST SWAP1 PUSH1 0xFF DUP1 NOT DUP4 SLOAD AND SWAP2 ISZERO ISZERO AND OR SWAP1 SSTORE JUMP JUMPDEST PUSH1 0x40 MLOAD SWAP1 DUP2 MSTORE PUSH32 0x17307EAB39AB6107E8899845AD3D59BD9653F200F220920489CA2B5937696C31 PUSH1 0x20 CALLER SWAP3 LOG3 STOP JUMPDEST PUSH1 0x40 MLOAD PUSH4 0xB611743 PUSH1 0xE3 SHL DUP2 MSTORE PUSH1 0x4 DUP2 ADD DUP6 SWAP1 MSTORE PUSH1 0x24 SWAP1 REVERT JUMPDEST CALLVALUE PUSH2 0x47E JUMPI PUSH1 0x0 CALLDATASIZE PUSH1 0x3 NOT ADD SLT PUSH2 0x47E JUMPI PUSH1 0x20 PUSH1 0xFF PUSH1 0x25 SLOAD AND PUSH1 0x40 MLOAD SWAP1 ISZERO ISZERO DUP2 MSTORE RETURN JUMPDEST CALLVALUE PUSH2 0x47E JUMPI PUSH1 0x0 CALLDATASIZE PUSH1 0x3 NOT ADD SLT PUSH2 0x47E JUMPI PUSH1 0x20 PUSH1 0xFF PUSH1 0x17 SLOAD PUSH1 0x8 SHR AND PUSH1 0x40 MLOAD SWAP1 ISZERO ISZERO DUP2 MSTORE RETURN JUMPDEST CALLVALUE PUSH2 0x47E JUMPI PUSH1 0x0 DUP1 PUSH1 0x3 NOT CALLDATASIZE ADD SLT PUSH2 0x8CC JUMPI PUSH2 0x2411 PUSH2 0x240D PUSH1 0x21 SLOAD PUSH1 0xFF AND SWAP1 JUMP JUMPDEST ISZERO SWAP1 JUMP JUMPDEST PUSH2 0x2634 JUMPI PUSH1 0x18 SLOAD TIMESTAMP GT PUSH2 0x2622 JUMPI PUSH2 0x2427 CALLER PUSH2 0x358A JUMP JUMPDEST DUP1 ISZERO PUSH2 0x2610 JUMPI PUSH2 0x2436 DUP2 PUSH2 0x3224 JUMP JUMPDEST DUP3 DUP4 JUMPDEST DUP4 DUP2 LT PUSH2 0x2599 JUMPI POP DUP1 ISZERO PUSH2 0x2587 JUMPI PUSH2 0x2453 PUSH1 0x16 SLOAD DUP3 PUSH2 0x34E4 JUMP JUMPDEST SWAP3 DUP4 SELFBALANCE LT PUSH2 0x2575 JUMPI PUSH2 0x2464 DUP3 PUSH2 0x3224 JUMP JUMPDEST SWAP3 DUP6 JUMPDEST DUP4 DUP2 LT PUSH2 0x2536 JUMPI POP POP CALLER PUSH1 0x0 SWAP1 DUP2 MSTORE PUSH1 0x22 PUSH1 0x20 MSTORE PUSH1 0x40 SWAP1 KECCAK256 PUSH2 0x248A DUP4 DUP3 SLOAD PUSH2 0x34BF JUMP JUMPDEST SWAP1 SSTORE PUSH2 0x24A0 PUSH2 0x249B DUP6 PUSH1 0x24 SLOAD PUSH2 0x34BF JUMP JUMPDEST PUSH1 0x24 SSTORE JUMP JUMPDEST DUP5 DUP1 DUP1 DUP1 DUP8 CALLER GAS CALL PUSH2 0x24B0 PUSH2 0x340A JUMP JUMPDEST POP ISZERO PUSH2 0x2524 JUMPI DUP2 SUB PUSH2 0x24F0 JUMPI POP PUSH2 0xE3B PUSH32 0x4AB127485E25B893B831478744CE27218F38F11ABCF85CAB4BFE1454DECAAC6F SWAP2 PUSH1 0x40 MLOAD SWAP2 DUP3 SWAP2 CALLER SWAP6 DUP4 PUSH2 0x35F6 JUMP JUMPDEST SWAP1 PUSH32 0xC7F7BD90E47F42337993BF872AB3FEC1D437A69B7EDC259F426F3DCBE8F4307 SWAP2 PUSH2 0xE3B PUSH1 0x40 MLOAD SWAP3 DUP4 SWAP3 CALLER SWAP7 DUP5 PUSH2 0x35DA JUMP JUMPDEST PUSH1 0x40 MLOAD PUSH4 0xCBE4E8C3 PUSH1 0xE0 SHL DUP2 MSTORE PUSH1 0x4 SWAP1 REVERT JUMPDEST DUP1 PUSH2 0x256F PUSH2 0x2546 PUSH1 0x1 SWAP4 DUP6 PUSH2 0x326C JUMP JUMPDEST MLOAD PUSH2 0x255E PUSH2 0x10E9 DUP3 PUSH1 0x0 MSTORE PUSH1 0x23 PUSH1 0x20 MSTORE PUSH1 0x40 PUSH1 0x0 KECCAK256 SWAP1 JUMP JUMPDEST DUP1 PUSH2 0x2569 DUP5 DUP11 PUSH2 0x326C JUMP JUMPDEST MSTORE PUSH2 0x3FB0 JUMP JUMPDEST ADD PUSH2 0x2467 JUMP JUMPDEST PUSH1 0x40 MLOAD PUSH4 0x1E9ACF17 PUSH1 0xE3 SHL DUP2 MSTORE PUSH1 0x4 SWAP1 REVERT JUMPDEST PUSH1 0x40 MLOAD PUSH4 0xA53C6C4F PUSH1 0xE0 SHL DUP2 MSTORE PUSH1 0x4 SWAP1 REVERT JUMPDEST PUSH2 0x25A3 DUP2 CALLER PUSH2 0x34F7 JUMP JUMPDEST PUSH2 0x25BD PUSH2 0x240D PUSH2 0xF8C DUP4 PUSH1 0x0 MSTORE PUSH1 0x1D PUSH1 0x20 MSTORE PUSH1 0x40 PUSH1 0x0 KECCAK256 SWAP1 JUMP JUMPDEST DUP1 PUSH2 0x25F0 JUMPI JUMPDEST PUSH2 0x25D1 JUMPI JUMPDEST POP PUSH1 0x1 ADD PUSH2 0x2439 JUMP JUMPDEST DUP3 PUSH2 0x25E9 SWAP2 PUSH2 0x25E3 PUSH1 0x1 SWAP5 SWAP6 DUP8 PUSH2 0x326C JUMP JUMPDEST MSTORE PUSH2 0x3557 JUMP JUMPDEST SWAP2 SWAP1 PUSH2 0x25C8 JUMP JUMPDEST POP PUSH2 0x260B PUSH2 0x240D PUSH2 0xF8C DUP4 PUSH1 0x0 MSTORE PUSH1 0x23 PUSH1 0x20 MSTORE PUSH1 0x40 PUSH1 0x0 KECCAK256 SWAP1 JUMP JUMPDEST PUSH2 0x25C3 JUMP JUMPDEST PUSH1 0x40 MLOAD PUSH4 0xA39A279F PUSH1 0xE0 SHL DUP2 MSTORE PUSH1 0x4 SWAP1 REVERT JUMPDEST PUSH1 0x40 MLOAD PUSH4 0x36AD3889 PUSH1 0xE1 SHL DUP2 MSTORE PUSH1 0x4 SWAP1 REVERT JUMPDEST PUSH1 0x40 MLOAD PUSH4 0x64547E69 PUSH1 0xE0 SHL DUP2 MSTORE PUSH1 0x4 SWAP1 REVERT JUMPDEST CALLVALUE PUSH2 0x47E JUMPI PUSH1 0x0 CALLDATASIZE PUSH1 0x3 NOT ADD SLT PUSH2 0x47E JUMPI PUSH1 0xD SLOAD PUSH2 0x2678 SWAP1 CALLER PUSH1 0x1 PUSH1 0x1 PUSH1 0xA0 SHL SUB SWAP2 DUP3 AND EQ SWAP1 DUP2 ISZERO PUSH2 0x776 JUMPI POP PUSH2 0x2DCC JUMP JUMPDEST PUSH1 0x17 SLOAD PUSH1 0xFF DUP2 PUSH1 0x8 SHR AND PUSH2 0x26C4 JUMPI PUSH2 0xFF00 NOT AND PUSH2 0x100 OR PUSH1 0x17 SSTORE PUSH1 0x40 MLOAD TIMESTAMP DUP2 MSTORE PUSH32 0xFDB456E665AA5CDBE3BD91BABD696C20184FF9664FB5544C37869F078C2CD71C SWAP1 DUP1 PUSH1 0x20 DUP2 ADD PUSH2 0x2192 JUMP JUMPDEST PUSH1 0x40 MLOAD PUSH3 0x461BCD PUSH1 0xE5 SHL DUP2 MSTORE PUSH1 0x20 PUSH1 0x4 DUP3 ADD MSTORE PUSH1 0xE PUSH1 0x24 DUP3 ADD MSTORE PUSH14 0x105B1C9958591E481C185D5CD959 PUSH1 0x92 SHL PUSH1 0x44 DUP3 ADD MSTORE PUSH1 0x64 SWAP1 REVERT JUMPDEST CALLVALUE PUSH2 0x47E JUMPI PUSH1 0x80 CALLDATASIZE PUSH1 0x3 NOT ADD SLT PUSH2 0x47E JUMPI PUSH2 0x2713 PUSH2 0x92B JUMP JUMPDEST PUSH2 0x271B PUSH2 0x941 JUMP JUMPDEST SWAP1 PUSH1 0x44 CALLDATALOAD PUSH1 0x64 CALLDATALOAD SWAP3 PUSH1 0x1 PUSH1 0x1 PUSH1 0x40 SHL SUB DUP5 GT PUSH2 0x47E JUMPI CALLDATASIZE PUSH1 0x23 DUP6 ADD SLT ISZERO PUSH2 0x47E JUMPI PUSH2 0x2753 PUSH2 0x9FB SWAP5 CALLDATASIZE SWAP1 PUSH1 0x24 DUP2 PUSH1 0x4 ADD CALLDATALOAD SWAP2 ADD PUSH2 0x5F6 JUMP JUMPDEST SWAP3 PUSH2 0x1304 DUP4 DUP4 DUP4 PUSH2 0x3285 JUMP JUMPDEST CALLVALUE PUSH2 0x47E JUMPI PUSH1 0x0 CALLDATASIZE PUSH1 0x3 NOT ADD SLT PUSH2 0x47E JUMPI PUSH1 0x20 PUSH1 0x24 SLOAD PUSH1 0x40 MLOAD SWAP1 DUP2 MSTORE RETURN JUMPDEST SWAP4 SWAP1 SWAP3 PUSH1 0x80 SWAP4 PUSH2 0x27B2 SWAP4 SWAP8 SWAP7 SWAP8 PUSH1 0x1 DUP1 PUSH1 0xA0 SHL SUB DUP1 SWAP3 AND DUP8 MSTORE AND PUSH1 0x20 DUP7 ADD MSTORE PUSH1 0x40 DUP6 ADD MSTORE PUSH1 0xA0 PUSH1 0x60 DUP6 ADD MSTORE PUSH1 0xA0 DUP5 ADD SWAP1 PUSH2 0x7B2 JUMP JUMPDEST SWAP4 ISZERO ISZERO SWAP2 ADD MSTORE JUMP JUMPDEST CALLVALUE PUSH2 0x47E JUMPI PUSH1 0x20 DUP1 PUSH1 0x3 NOT CALLDATASIZE ADD SLT PUSH2 0x47E JUMPI PUSH1 0x4 CALLDATALOAD SWAP1 PUSH2 0x844 PUSH1 0x0 SWAP3 DUP1 DUP5 MSTORE PUSH1 0x2 DUP4 MSTORE PUSH1 0x1 DUP1 PUSH1 0xA0 SHL SUB SWAP3 PUSH2 0x27F6 DUP5 PUSH1 0x40 DUP8 KECCAK256 SLOAD AND ISZERO ISZERO PUSH2 0x343A JUMP JUMPDEST PUSH2 0x283C PUSH1 0xFF PUSH2 0x2834 PUSH1 0x40 PUSH2 0x2809 DUP7 PUSH2 0x3CD1 JUMP JUMPDEST SWAP8 DUP7 DUP11 MSTORE PUSH1 0x1F DUP7 MSTORE DUP2 DUP11 KECCAK256 SLOAD AND SWAP9 DUP6 DUP1 MSTORE PUSH1 0x1E DUP3 DUP3 KECCAK256 SLOAD SWAP7 MSTORE KECCAK256 SWAP5 PUSH1 0x0 MSTORE PUSH1 0x1D PUSH1 0x20 MSTORE PUSH1 0x40 PUSH1 0x0 KECCAK256 SWAP1 JUMP JUMPDEST SLOAD AND SWAP3 PUSH2 0x190C JUMP JUMPDEST SWAP1 PUSH1 0x40 MLOAD SWAP6 DUP7 SWAP6 DUP7 PUSH2 0x277D JUMP JUMPDEST CALLVALUE PUSH2 0x47E JUMPI PUSH2 0x2857 CALLDATASIZE PUSH2 0x62D JUMP JUMPDEST PUSH1 0xD SLOAD PUSH2 0x2878 SWAP1 CALLER PUSH1 0x1 PUSH1 0x1 PUSH1 0xA0 SHL SUB SWAP2 DUP3 AND EQ SWAP1 DUP2 ISZERO PUSH2 0x776 JUMPI POP PUSH2 0x2DCC JUMP JUMPDEST DUP1 MLOAD PUSH1 0x1 PUSH1 0x1 PUSH1 0x40 SHL SUB DUP2 GT PUSH2 0x57F JUMPI PUSH2 0x289C DUP2 PUSH2 0x2897 PUSH1 0x19 SLOAD PUSH2 0x1489 JUMP JUMPDEST PUSH2 0x2F38 JUMP JUMPDEST PUSH1 0x20 DUP1 PUSH1 0x1F DUP4 GT PUSH1 0x1 EQ PUSH2 0x28D2 JUMPI POP DUP2 SWAP1 PUSH2 0x28CD SWAP4 PUSH1 0x0 SWAP3 PUSH2 0x6F6 JUMPI POP POP DUP2 PUSH1 0x1 SHL SWAP2 PUSH1 0x0 NOT SWAP1 PUSH1 0x3 SHL SHR NOT AND OR SWAP1 JUMP JUMPDEST PUSH1 0x19 SSTORE STOP JUMPDEST SWAP1 PUSH1 0x1F NOT DUP4 AND SWAP4 PUSH2 0x28F3 PUSH1 0x19 PUSH1 0x0 MSTORE PUSH1 0x0 DUP1 MLOAD PUSH1 0x20 PUSH2 0x47AE DUP4 CODECOPY DUP2 MLOAD SWAP2 MSTORE SWAP1 JUMP JUMPDEST SWAP3 PUSH1 0x0 SWAP1 JUMPDEST DUP7 DUP3 LT PUSH2 0x292F JUMPI POP POP DUP4 PUSH1 0x1 SWAP6 LT PUSH2 0x2916 JUMPI JUMPDEST POP POP POP DUP2 SHL ADD PUSH1 0x19 SSTORE STOP JUMPDEST ADD MLOAD PUSH1 0x0 NOT PUSH1 0xF8 DUP5 PUSH1 0x3 SHL AND SHR NOT AND SWAP1 SSTORE CODESIZE DUP1 DUP1 PUSH2 0x290B JUMP JUMPDEST DUP1 PUSH1 0x1 DUP6 SWAP7 DUP3 SWAP5 SWAP7 DUP7 ADD MLOAD DUP2 SSTORE ADD SWAP6 ADD SWAP4 ADD SWAP1 PUSH2 0x28F8 JUMP JUMPDEST CALLVALUE PUSH2 0x47E JUMPI PUSH1 0x20 CALLDATASIZE PUSH1 0x3 NOT ADD SLT PUSH2 0x47E JUMPI PUSH2 0x844 PUSH2 0x195D PUSH1 0x4 CALLDATALOAD PUSH2 0x3904 JUMP JUMPDEST CALLVALUE PUSH2 0x47E JUMPI PUSH1 0x0 CALLDATASIZE PUSH1 0x3 NOT ADD SLT PUSH2 0x47E JUMPI PUSH1 0x20 PUSH1 0x15 SLOAD PUSH1 0x40 MLOAD SWAP1 DUP2 MSTORE RETURN JUMPDEST CALLVALUE PUSH2 0x47E JUMPI PUSH1 0x0 CALLDATASIZE PUSH1 0x3 NOT ADD SLT PUSH2 0x47E JUMPI PUSH1 0x15 SLOAD PUSH1 0xE SLOAD DUP2 SUB SWAP1 DUP2 GT PUSH2 0x1E4A JUMPI PUSH1 0x20 SWAP1 PUSH1 0x40 MLOAD SWAP1 DUP2 MSTORE RETURN JUMPDEST CALLVALUE PUSH2 0x47E JUMPI PUSH1 0x20 CALLDATASIZE PUSH1 0x3 NOT ADD SLT PUSH2 0x47E JUMPI PUSH1 0x4 CALLDATALOAD PUSH1 0x0 MSTORE PUSH1 0x1F PUSH1 0x20 MSTORE PUSH1 0x20 PUSH1 0x1 DUP1 PUSH1 0xA0 SHL SUB PUSH1 0x40 PUSH1 0x0 KECCAK256 SLOAD AND PUSH1 0x40 MLOAD SWAP1 DUP2 MSTORE RETURN JUMPDEST CALLVALUE PUSH2 0x47E JUMPI PUSH1 0x0 CALLDATASIZE PUSH1 0x3 NOT ADD SLT PUSH2 0x47E JUMPI PUSH1 0x20 PUSH1 0xFF PUSH1 0x17 SLOAD AND PUSH1 0x40 MLOAD SWAP1 ISZERO ISZERO DUP2 MSTORE RETURN JUMPDEST CALLVALUE PUSH2 0x47E JUMPI PUSH1 0x0 CALLDATASIZE PUSH1 0x3 NOT ADD SLT PUSH2 0x47E JUMPI PUSH1 0x20 PUSH1 0x18 SLOAD PUSH1 0x40 MLOAD SWAP1 DUP2 MSTORE RETURN JUMPDEST CALLVALUE PUSH2 0x47E JUMPI PUSH1 0x0 CALLDATASIZE PUSH1 0x3 NOT ADD SLT PUSH2 0x47E JUMPI PUSH2 0x844 PUSH1 0x40 MLOAD PUSH2 0x195D DUP2 PUSH2 0x1956 DUP2 PUSH2 0x14C3 JUMP JUMPDEST SWAP12 SWAP6 PUSH2 0x668 SWAP16 SWAP14 SWAP9 SWAP2 PUSH2 0x2AF4 SWAP9 SWAP16 SWAP12 SWAP5 SWAP2 PUSH2 0x2AB9 DUP16 SWAP3 SWAP9 PUSH2 0x2B10 SWAP16 SWAP9 PUSH2 0x2AAB SWAP1 PUSH2 0x2AFF SWAP16 SWAP9 PUSH2 0x2A9D SWAP1 PUSH2 0x2AC7 SWAP9 PUSH2 0x2A8A PUSH2 0x2AEA SWAP16 PUSH2 0x1E0 DUP1 DUP13 MSTORE DUP12 ADD SWAP1 PUSH2 0x7B2 JUMP JUMPDEST SWAP2 PUSH1 0x20 DUP11 ADD MSTORE DUP9 DUP3 SUB PUSH1 0x40 DUP11 ADD MSTORE PUSH2 0x7B2 JUMP JUMPDEST SWAP1 DUP7 DUP3 SUB PUSH1 0x60 DUP9 ADD MSTORE PUSH2 0x7B2 JUMP JUMPDEST SWAP1 DUP5 DUP3 SUB PUSH1 0x80 DUP7 ADD MSTORE PUSH2 0x7B2 JUMP JUMPDEST SWAP2 PUSH1 0xA0 DUP2 DUP5 SUB SWAP2 ADD MSTORE PUSH2 0x7B2 JUMP JUMPDEST SWAP14 PUSH1 0xC0 DUP14 ADD MSTORE PUSH1 0xE0 DUP13 ADD MSTORE PUSH2 0x100 DUP12 ADD MSTORE PUSH2 0x120 DUP11 ADD MSTORE PUSH2 0x140 DUP10 ADD SWAP1 ISZERO ISZERO SWAP1 MSTORE JUMP JUMPDEST ISZERO ISZERO PUSH2 0x160 DUP8 ADD MSTORE JUMP JUMPDEST PUSH1 0xFF AND PUSH2 0x180 DUP6 ADD MSTORE JUMP JUMPDEST PUSH1 0x1 PUSH1 0x1 PUSH1 0xA0 SHL SUB AND PUSH2 0x1A0 DUP4 ADD MSTORE JUMP JUMPDEST PUSH2 0x1C0 DUP2 DUP5 SUB SWAP2 ADD MSTORE PUSH2 0x7B2 JUMP JUMPDEST CALLVALUE PUSH2 0x47E JUMPI PUSH1 0x0 CALLDATASIZE PUSH1 0x3 NOT ADD SLT PUSH2 0x47E JUMPI PUSH1 0x17 SLOAD PUSH1 0xFF DUP2 AND PUSH1 0x0 DUP2 ISZERO PUSH2 0x2BB7 JUMPI POP PUSH1 0x3 SWAP2 JUMPDEST PUSH1 0x10 SLOAD SWAP2 PUSH1 0x15 SLOAD SWAP1 PUSH1 0x16 SLOAD SWAP5 PUSH1 0xE SLOAD PUSH2 0x2B5C DUP2 DUP6 PUSH2 0x357D JUMP JUMPDEST PUSH1 0xD SLOAD PUSH1 0x1 PUSH1 0x1 PUSH1 0xA0 SHL SUB AND SWAP4 SWAP1 PUSH2 0x2B72 PUSH2 0x189D JUMP JUMPDEST SWAP3 PUSH2 0x2B7B PUSH2 0x18B7 JUMP JUMPDEST SWAP10 PUSH2 0x2B84 PUSH2 0x18D9 JUMP JUMPDEST SWAP8 PUSH2 0x2B8D PUSH2 0x18EA JUMP JUMPDEST PUSH2 0x2B95 PUSH2 0x18C8 JUMP JUMPDEST SWAP1 PUSH2 0x2B9E PUSH2 0x18FB JUMP JUMPDEST SWAP11 PUSH1 0x40 MLOAD SWAP15 DUP16 SWAP15 DUP16 SWAP15 PUSH1 0x8 SHR PUSH1 0xFF AND SWAP11 PUSH2 0x844 SWAP16 PUSH2 0x2A48 JUMP JUMPDEST PUSH1 0xE SLOAD PUSH1 0x15 SLOAD GT PUSH2 0x2BCB JUMPI POP PUSH1 0x1 SWAP2 PUSH2 0x2B43 JUMP JUMPDEST PUSH1 0x10 SLOAD TIMESTAMP GT ISZERO PUSH2 0x2BDE JUMPI POP PUSH1 0x2 SWAP2 PUSH2 0x2B43 JUMP JUMPDEST SWAP2 PUSH2 0x2B43 JUMP JUMPDEST CALLVALUE PUSH2 0x47E JUMPI PUSH1 0x40 CALLDATASIZE PUSH1 0x3 NOT ADD SLT PUSH2 0x47E JUMPI PUSH1 0x20 PUSH1 0xFF PUSH2 0x2C35 PUSH2 0x2C04 PUSH2 0x92B JUMP JUMPDEST PUSH2 0x2C0C PUSH2 0x941 JUMP JUMPDEST PUSH1 0x1 PUSH1 0x1 PUSH1 0xA0 SHL SUB SWAP2 DUP3 AND PUSH1 0x0 SWAP1 DUP2 MSTORE PUSH1 0x5 DUP7 MSTORE PUSH1 0x40 DUP1 DUP3 KECCAK256 SWAP3 SWAP1 SWAP4 AND DUP2 MSTORE PUSH1 0x20 SWAP2 SWAP1 SWAP2 MSTORE KECCAK256 SWAP1 JUMP JUMPDEST SLOAD AND PUSH1 0x40 MLOAD SWAP1 ISZERO ISZERO DUP2 MSTORE RETURN JUMPDEST CALLVALUE PUSH2 0x47E JUMPI PUSH1 0x20 CALLDATASIZE PUSH1 0x3 NOT ADD SLT PUSH2 0x47E JUMPI PUSH1 0x80 PUSH2 0x2C64 PUSH2 0x2C5F PUSH2 0x92B JUMP JUMPDEST PUSH2 0x3BC7 JUMP JUMPDEST SWAP2 PUSH1 0x40 MLOAD SWAP4 ISZERO ISZERO DUP5 MSTORE PUSH1 0x20 DUP5 ADD MSTORE PUSH1 0x40 DUP4 ADD MSTORE PUSH1 0x60 DUP3 ADD MSTORE RETURN JUMPDEST CALLVALUE PUSH2 0x47E JUMPI PUSH1 0x20 CALLDATASIZE PUSH1 0x3 NOT ADD SLT PUSH2 0x47E JUMPI PUSH2 0x2C97 PUSH2 0x92B JUMP JUMPDEST PUSH2 0x2C9F PUSH2 0x3F84 JUMP JUMPDEST PUSH1 0x1 PUSH1 0x1 PUSH1 0xA0 SHL SUB SWAP1 DUP2 AND SWAP1 DUP2 ISZERO PUSH2 0x2CEE JUMPI PUSH1 0xA SLOAD DUP3 PUSH1 0x1 PUSH1 0x1 PUSH1 0x60 SHL SUB PUSH1 0xA0 SHL DUP3 AND OR PUSH1 0xA SSTORE AND PUSH32 0x8BE0079C531659141344CD1FD0A4F28419497F9722A3DAAFE3B4186F6B6457E0 PUSH1 0x0 DUP1 LOG3 STOP JUMPDEST PUSH1 0x40 MLOAD PUSH4 0x1E4FBDF7 PUSH1 0xE0 SHL DUP2 MSTORE PUSH1 0x0 PUSH1 0x4 DUP3 ADD MSTORE PUSH1 0x24 SWAP1 REVERT JUMPDEST CALLVALUE PUSH2 0x47E JUMPI PUSH1 0x0 CALLDATASIZE PUSH1 0x3 NOT ADD SLT PUSH2 0x47E JUMPI PUSH1 0xD SLOAD PUSH2 0x2D39 SWAP1 CALLER PUSH1 0x1 PUSH1 0x1 PUSH1 0xA0 SHL SUB SWAP2 DUP3 AND EQ SWAP1 DUP2 ISZERO PUSH2 0x776 JUMPI POP PUSH2 0x2DCC JUMP JUMPDEST PUSH1 0x17 SLOAD PUSH1 0xFF DUP2 AND PUSH2 0x2D93 JUMPI PUSH1 0x1 SWAP1 PUSH1 0xFF NOT AND OR PUSH1 0x17 SSTORE PUSH2 0x2D61 PUSH1 0x1 PUSH1 0xFF NOT PUSH1 0x21 SLOAD AND OR PUSH1 0x21 SSTORE JUMP JUMPDEST PUSH1 0x40 MLOAD TIMESTAMP DUP2 MSTORE PUSH32 0xDC3CB569B066460F4A22DFFA05317BDCCE5D3826382ED49A21F13E5FA2063D39 SWAP1 DUP1 PUSH1 0x20 DUP2 ADD PUSH2 0x2192 JUMP JUMPDEST PUSH1 0x40 MLOAD PUSH3 0x461BCD PUSH1 0xE5 SHL DUP2 MSTORE PUSH1 0x20 PUSH1 0x4 DUP3 ADD MSTORE PUSH1 0x11 PUSH1 0x24 DUP3 ADD MSTORE PUSH17 0x105B1C9958591E4818D85B98D95B1B1959 PUSH1 0x7A SHL PUSH1 0x44 DUP3 ADD MSTORE PUSH1 0x64 SWAP1 REVERT JUMPDEST ISZERO PUSH2 0x2DD3 JUMPI JUMP JUMPDEST PUSH1 0x40 MLOAD PUSH3 0x461BCD PUSH1 0xE5 SHL DUP2 MSTORE PUSH1 0x20 PUSH1 0x4 DUP3 ADD MSTORE PUSH1 0x17 PUSH1 0x24 DUP3 ADD MSTORE PUSH32 0x4F6E6C79206F7267616E697A6572206F72206F776E6572000000000000000000 PUSH1 0x44 DUP3 ADD MSTORE PUSH1 0x64 SWAP1 REVERT JUMPDEST PUSH1 0x1F DUP2 GT PUSH2 0x2E24 JUMPI POP POP JUMP JUMPDEST PUSH1 0x0 SWAP1 PUSH1 0xF PUSH1 0x0 MSTORE PUSH1 0x0 DUP1 MLOAD PUSH1 0x20 PUSH2 0x478E DUP4 CODECOPY DUP2 MLOAD SWAP2 MSTORE SWAP1 PUSH1 0x20 PUSH1 0x1F DUP6 ADD PUSH1 0x5 SHR DUP4 ADD SWAP5 LT PUSH2 0x2E6E JUMPI JUMPDEST PUSH1 0x1F ADD PUSH1 0x5 SHR ADD SWAP2 JUMPDEST DUP3 DUP2 LT PUSH2 0x2E63 JUMPI POP POP POP JUMP JUMPDEST DUP2 DUP2 SSTORE PUSH1 0x1 ADD PUSH2 0x2E57 JUMP JUMPDEST SWAP1 SWAP3 POP DUP3 SWAP1 PUSH2 0x2E4E JUMP JUMPDEST PUSH1 0x1F DUP2 GT PUSH2 0x2E84 JUMPI POP POP JUMP JUMPDEST PUSH1 0x0 SWAP1 PUSH1 0x14 PUSH1 0x0 MSTORE PUSH1 0x0 DUP1 MLOAD PUSH1 0x20 PUSH2 0x476E DUP4 CODECOPY DUP2 MLOAD SWAP2 MSTORE SWAP1 PUSH1 0x20 PUSH1 0x1F DUP6 ADD PUSH1 0x5 SHR DUP4 ADD SWAP5 LT PUSH2 0x2ECE JUMPI JUMPDEST PUSH1 0x1F ADD PUSH1 0x5 SHR ADD SWAP2 JUMPDEST DUP3 DUP2 LT PUSH2 0x2EC3 JUMPI POP POP POP JUMP JUMPDEST DUP2 DUP2 SSTORE PUSH1 0x1 ADD PUSH2 0x2EB7 JUMP JUMPDEST SWAP1 SWAP3 POP DUP3 SWAP1 PUSH2 0x2EAE JUMP JUMPDEST PUSH1 0x1F DUP2 GT PUSH2 0x2EE4 JUMPI POP POP JUMP JUMPDEST PUSH1 0x0 SWAP1 PUSH1 0x1A PUSH1 0x0 MSTORE PUSH1 0x0 DUP1 MLOAD PUSH1 0x20 PUSH2 0x474E DUP4 CODECOPY DUP2 MLOAD SWAP2 MSTORE SWAP1 PUSH1 0x20 PUSH1 0x1F DUP6 ADD PUSH1 0x5 SHR DUP4 ADD SWAP5 LT PUSH2 0x2F2E JUMPI JUMPDEST PUSH1 0x1F ADD PUSH1 0x5 SHR ADD SWAP2 JUMPDEST DUP3 DUP2 LT PUSH2 0x2F23 JUMPI POP POP POP JUMP JUMPDEST DUP2 DUP2 SSTORE PUSH1 0x1 ADD PUSH2 0x2F17 JUMP JUMPDEST SWAP1 SWAP3 POP DUP3 SWAP1 PUSH2 0x2F0E JUMP JUMPDEST PUSH1 0x1F DUP2 GT PUSH2 0x2F44 JUMPI POP POP JUMP JUMPDEST PUSH1 0x0 SWAP1 PUSH1 0x19 PUSH1 0x0 MSTORE PUSH1 0x0 DUP1 MLOAD PUSH1 0x20 PUSH2 0x47AE DUP4 CODECOPY DUP2 MLOAD SWAP2 MSTORE SWAP1 PUSH1 0x20 PUSH1 0x1F DUP6 ADD PUSH1 0x5 SHR DUP4 ADD SWAP5 LT PUSH2 0x2F8E JUMPI JUMPDEST PUSH1 0x1F ADD PUSH1 0x5 SHR ADD SWAP2 JUMPDEST DUP3 DUP2 LT PUSH2 0x2F83 JUMPI POP POP POP JUMP JUMPDEST DUP2 DUP2 SSTORE PUSH1 0x1 ADD PUSH2 0x2F77 JUMP JUMPDEST SWAP1 SWAP3 POP DUP3 SWAP1 PUSH2 0x2F6E JUMP JUMPDEST PUSH1 0x1F DUP2 GT PUSH2 0x2FA4 JUMPI POP POP JUMP JUMPDEST PUSH1 0x0 SWAP1 PUSH1 0x1B PUSH1 0x0 MSTORE PUSH32 0x3AD8AA4F87544323A9D1E5DD902F40C356527A7955687113DB5F9A85AD579DC1 SWAP1 PUSH1 0x20 PUSH1 0x1F DUP6 ADD PUSH1 0x5 SHR DUP4 ADD SWAP5 LT PUSH2 0x3000 JUMPI JUMPDEST PUSH1 0x1F ADD PUSH1 0x5 SHR ADD SWAP2 JUMPDEST DUP3 DUP2 LT PUSH2 0x2FF5 JUMPI POP POP POP JUMP JUMPDEST DUP2 DUP2 SSTORE PUSH1 0x1 ADD PUSH2 0x2FE9 JUMP JUMPDEST SWAP1 SWAP3 POP DUP3 SWAP1 PUSH2 0x2FE0 JUMP JUMPDEST SWAP1 PUSH1 0x1F DUP2 GT PUSH2 0x3018 JUMPI POP POP POP JUMP JUMPDEST PUSH1 0x0 SWAP2 PUSH1 0x0 MSTORE PUSH1 0x20 PUSH1 0x0 KECCAK256 SWAP1 PUSH1 0x20 PUSH1 0x1F DUP6 ADD PUSH1 0x5 SHR DUP4 ADD SWAP5 LT PUSH2 0x3056 JUMPI JUMPDEST PUSH1 0x1F ADD PUSH1 0x5 SHR ADD SWAP2 JUMPDEST DUP3 DUP2 LT PUSH2 0x304B JUMPI POP POP POP JUMP JUMPDEST DUP2 DUP2 SSTORE PUSH1 0x1 ADD PUSH2 0x303F JUMP JUMPDEST SWAP1 SWAP3 POP DUP3 SWAP1 PUSH2 0x3036 JUMP JUMPDEST SWAP1 DUP2 MLOAD PUSH1 0x1 PUSH1 0x1 PUSH1 0x40 SHL SUB DUP2 GT PUSH2 0x57F JUMPI PUSH2 0x3085 DUP2 PUSH2 0x3080 PUSH1 0x1B SLOAD PUSH2 0x1489 JUMP JUMPDEST PUSH2 0x2F98 JUMP JUMPDEST PUSH1 0x20 DUP1 PUSH1 0x1F DUP4 GT PUSH1 0x1 EQ PUSH2 0x30BC JUMPI POP DUP2 SWAP1 PUSH2 0x30B7 SWAP4 SWAP5 PUSH1 0x0 SWAP3 PUSH2 0x6F6 JUMPI POP POP DUP2 PUSH1 0x1 SHL SWAP2 PUSH1 0x0 NOT SWAP1 PUSH1 0x3 SHL SHR NOT AND OR SWAP1 JUMP JUMPDEST PUSH1 0x1B SSTORE JUMP JUMPDEST SWAP1 PUSH1 0x1F NOT DUP4 AND SWAP5 PUSH2 0x30EF PUSH1 0x1B PUSH1 0x0 MSTORE PUSH32 0x3AD8AA4F87544323A9D1E5DD902F40C356527A7955687113DB5F9A85AD579DC1 SWAP1 JUMP JUMPDEST SWAP3 PUSH1 0x0 SWAP1 JUMPDEST DUP8 DUP3 LT PUSH2 0x312C JUMPI POP POP DUP4 PUSH1 0x1 SWAP6 SWAP7 LT PUSH2 0x3113 JUMPI JUMPDEST POP POP POP DUP2 SHL ADD PUSH1 0x1B SSTORE JUMP JUMPDEST ADD MLOAD PUSH1 0x0 NOT PUSH1 0xF8 DUP5 PUSH1 0x3 SHL AND SHR NOT AND SWAP1 SSTORE CODESIZE DUP1 DUP1 PUSH2 0x3108 JUMP JUMPDEST DUP1 PUSH1 0x1 DUP6 SWAP7 DUP3 SWAP5 SWAP7 DUP7 ADD MLOAD DUP2 SSTORE ADD SWAP6 ADD SWAP4 ADD SWAP1 PUSH2 0x30F4 JUMP JUMPDEST SWAP2 SWAP1 SWAP2 DUP3 MLOAD PUSH1 0x1 PUSH1 0x1 PUSH1 0x40 SHL SUB DUP2 GT PUSH2 0x57F JUMPI PUSH2 0x316B DUP2 PUSH2 0x3165 DUP5 SLOAD PUSH2 0x1489 JUMP JUMPDEST DUP5 PUSH2 0x300A JUMP JUMPDEST PUSH1 0x20 DUP1 PUSH1 0x1F DUP4 GT PUSH1 0x1 EQ PUSH2 0x31A2 JUMPI POP DUP2 SWAP1 PUSH2 0x319E SWAP4 SWAP5 SWAP6 PUSH1 0x0 SWAP3 PUSH2 0x6F6 JUMPI POP POP DUP2 PUSH1 0x1 SHL SWAP2 PUSH1 0x0 NOT SWAP1 PUSH1 0x3 SHL SHR NOT AND OR SWAP1 JUMP JUMPDEST SWAP1 SSTORE JUMP JUMPDEST SWAP1 PUSH1 0x1F NOT DUP4 AND SWAP6 PUSH2 0x31B8 DUP6 PUSH1 0x0 MSTORE PUSH1 0x20 PUSH1 0x0 KECCAK256 SWAP1 JUMP JUMPDEST SWAP3 PUSH1 0x0 SWAP1 JUMPDEST DUP9 DUP3 LT PUSH2 0x31F5 JUMPI POP POP DUP4 PUSH1 0x1 SWAP6 SWAP7 SWAP8 LT PUSH2 0x31DC JUMPI JUMPDEST POP POP POP DUP2 SHL ADD SWAP1 SSTORE JUMP JUMPDEST ADD MLOAD PUSH1 0x0 NOT PUSH1 0xF8 DUP5 PUSH1 0x3 SHL AND SHR NOT AND SWAP1 SSTORE CODESIZE DUP1 DUP1 PUSH2 0x31D2 JUMP JUMPDEST DUP1 PUSH1 0x1 DUP6 SWAP7 DUP3 SWAP5 SWAP7 DUP7 ADD MLOAD DUP2 SSTORE ADD SWAP6 ADD SWAP4 ADD SWAP1 PUSH2 0x31BD JUMP JUMPDEST PUSH1 0x1 PUSH1 0x1 PUSH1 0x40 SHL SUB DUP2 GT PUSH2 0x57F JUMPI PUSH1 0x5 SHL PUSH1 0x20 ADD SWAP1 JUMP JUMPDEST SWAP1 PUSH2 0x322E DUP3 PUSH2 0x320D JUMP JUMPDEST PUSH2 0x323B PUSH1 0x40 MLOAD SWAP2 DUP3 PUSH2 0x5BA JUMP JUMPDEST DUP3 DUP2 MSTORE DUP1 SWAP3 PUSH2 0x324C PUSH1 0x1F NOT SWAP2 PUSH2 0x320D JUMP JUMPDEST ADD SWAP1 PUSH1 0x20 CALLDATASIZE SWAP2 ADD CALLDATACOPY JUMP JUMPDEST PUSH4 0x4E487B71 PUSH1 0xE0 SHL PUSH1 0x0 MSTORE PUSH1 0x32 PUSH1 0x4 MSTORE PUSH1 0x24 PUSH1 0x0 REVERT JUMPDEST DUP1 MLOAD DUP3 LT ISZERO PUSH2 0x3280 JUMPI PUSH1 0x20 SWAP2 PUSH1 0x5 SHL ADD ADD SWAP1 JUMP JUMPDEST PUSH2 0x3256 JUMP JUMPDEST PUSH1 0x1 PUSH1 0x1 PUSH1 0xA0 SHL SUB DUP3 DUP2 AND SWAP3 SWAP1 SWAP2 SWAP1 DUP4 ISZERO PUSH2 0x33DE JUMPI PUSH1 0x0 DUP6 DUP2 MSTORE PUSH1 0x2 PUSH1 0x20 MSTORE PUSH1 0x40 SWAP1 KECCAK256 SLOAD DUP6 SWAP1 PUSH1 0x1 PUSH1 0x1 PUSH1 0xA0 SHL SUB AND SWAP5 CALLER PUSH2 0x33CE JUMPI JUMPDEST DUP5 DUP7 AND SWAP6 DUP7 ISZERO DUP1 ISZERO PUSH2 0x33A0 JUMPI JUMPDEST PUSH1 0x1 PUSH1 0x1 PUSH1 0xA0 SHL SUB DUP6 AND PUSH1 0x0 SWAP1 DUP2 MSTORE PUSH1 0x3 PUSH1 0x20 MSTORE PUSH1 0x40 SWAP1 KECCAK256 PUSH1 0x1 DUP2 SLOAD ADD SWAP1 SSTORE PUSH2 0x32FF DUP6 PUSH2 0x9DC DUP7 PUSH1 0x0 MSTORE PUSH1 0x2 PUSH1 0x20 MSTORE PUSH1 0x40 PUSH1 0x0 KECCAK256 SWAP1 JUMP JUMPDEST DUP4 DUP4 DUP10 PUSH32 0xDDF252AD1BE2C89B69C2B068FC378DAA952BA7F163C4A11628F55A4DF523B3EF PUSH1 0x0 DUP1 LOG4 ISZERO PUSH2 0x3380 JUMPI POP PUSH2 0x3336 DUP3 PUSH2 0x44F2 JUMP JUMPDEST DUP6 SUB PUSH2 0x3370 JUMPI JUMPDEST POP POP AND SWAP2 DUP3 DUP3 SUB PUSH2 0x334D JUMPI POP POP POP JUMP JUMPDEST PUSH1 0x64 SWAP4 POP PUSH1 0x40 MLOAD SWAP3 PUSH4 0x64283D7B PUSH1 0xE0 SHL DUP5 MSTORE PUSH1 0x4 DUP5 ADD MSTORE PUSH1 0x24 DUP4 ADD MSTORE PUSH1 0x44 DUP3 ADD MSTORE REVERT JUMPDEST PUSH2 0x3379 SWAP2 PUSH2 0x454F JUMP JUMPDEST CODESIZE DUP5 PUSH2 0x333D JUMP JUMPDEST DUP3 DUP3 DUP9 SUB PUSH2 0x3390 JUMPI JUMPDEST POP POP PUSH2 0x3336 JUMP JUMPDEST PUSH2 0x3399 SWAP2 PUSH2 0x4482 JUMP JUMPDEST CODESIZE DUP3 PUSH2 0x3389 JUMP JUMPDEST PUSH2 0x33A9 DUP5 PUSH2 0x445E JUMP JUMPDEST PUSH1 0x1 PUSH1 0x1 PUSH1 0xA0 SHL SUB DUP3 AND PUSH1 0x0 SWAP1 DUP2 MSTORE PUSH1 0x3 PUSH1 0x20 MSTORE PUSH1 0x40 SWAP1 KECCAK256 DUP1 SLOAD PUSH1 0x0 NOT ADD SWAP1 SSTORE PUSH2 0x32C8 JUMP JUMPDEST PUSH2 0x33D9 DUP3 CALLER DUP9 PUSH2 0x4674 JUMP JUMPDEST PUSH2 0x32BB JUMP JUMPDEST PUSH1 0x40 MLOAD PUSH4 0x32505749 PUSH1 0xE1 SHL DUP2 MSTORE PUSH1 0x0 PUSH1 0x4 DUP3 ADD MSTORE PUSH1 0x24 SWAP1 REVERT JUMPDEST PUSH1 0x40 MLOAD SWAP1 PUSH2 0x3404 DUP3 PUSH2 0x584 JUMP JUMPDEST PUSH1 0x0 DUP3 MSTORE JUMP JUMPDEST RETURNDATASIZE ISZERO PUSH2 0x3435 JUMPI RETURNDATASIZE SWAP1 PUSH2 0x341B DUP3 PUSH2 0x5DB JUMP JUMPDEST SWAP2 PUSH2 0x3429 PUSH1 0x40 MLOAD SWAP4 DUP5 PUSH2 0x5BA JUMP JUMPDEST DUP3 MSTORE RETURNDATASIZE PUSH1 0x0 PUSH1 0x20 DUP5 ADD RETURNDATACOPY JUMP JUMPDEST PUSH1 0x60 SWAP1 JUMP JUMPDEST ISZERO PUSH2 0x3441 JUMPI JUMP JUMPDEST PUSH1 0x40 MLOAD PUSH3 0x461BCD PUSH1 0xE5 SHL DUP2 MSTORE PUSH1 0x20 PUSH1 0x4 DUP3 ADD MSTORE PUSH1 0x14 PUSH1 0x24 DUP3 ADD MSTORE PUSH20 0x151BDAD95B88191BD95CC81B9BDD08195E1A5CDD PUSH1 0x62 SHL PUSH1 0x44 DUP3 ADD MSTORE PUSH1 0x64 SWAP1 REVERT JUMPDEST PUSH4 0x4E487B71 PUSH1 0xE0 SHL PUSH1 0x0 MSTORE PUSH1 0x11 PUSH1 0x4 MSTORE PUSH1 0x24 PUSH1 0x0 REVERT JUMPDEST SWAP1 PUSH3 0x15180 DUP3 ADD DUP1 SWAP3 GT PUSH2 0x1E4A JUMPI JUMP JUMPDEST SWAP1 PUSH1 0x2 DUP3 ADD DUP1 SWAP3 GT PUSH2 0x1E4A JUMPI JUMP JUMPDEST SWAP1 PUSH1 0x20 DUP3 ADD DUP1 SWAP3 GT PUSH2 0x1E4A JUMPI JUMP JUMPDEST SWAP2 SWAP1 DUP3 ADD DUP1 SWAP3 GT PUSH2 0x1E4A JUMPI JUMP JUMPDEST PUSH1 0x2 DUP2 SWAP1 SHL SWAP2 SWAP1 PUSH1 0x1 PUSH1 0x1 PUSH1 0xFE SHL SUB DUP2 AND SUB PUSH2 0x1E4A JUMPI JUMP JUMPDEST DUP2 DUP2 MUL SWAP3 SWAP2 DUP2 ISZERO SWAP2 DUP5 DIV EQ OR ISZERO PUSH2 0x1E4A JUMPI JUMP JUMPDEST PUSH2 0x3500 DUP2 PUSH2 0x358A JUMP JUMPDEST DUP3 LT ISZERO PUSH2 0x352C JUMPI PUSH1 0x1 DUP1 PUSH1 0xA0 SHL SUB AND PUSH1 0x0 MSTORE PUSH1 0x6 PUSH1 0x20 MSTORE PUSH1 0x40 PUSH1 0x0 KECCAK256 SWAP1 PUSH1 0x0 MSTORE PUSH1 0x20 MSTORE PUSH1 0x40 PUSH1 0x0 KECCAK256 SLOAD SWAP1 JUMP JUMPDEST PUSH1 0x40 MLOAD PUSH4 0x295F44F7 PUSH1 0xE2 SHL DUP2 MSTORE PUSH1 0x1 PUSH1 0x1 PUSH1 0xA0 SHL SUB SWAP2 SWAP1 SWAP2 AND PUSH1 0x4 DUP3 ADD MSTORE PUSH1 0x24 DUP2 ADD SWAP2 SWAP1 SWAP2 MSTORE PUSH1 0x44 SWAP1 REVERT JUMPDEST PUSH1 0x0 NOT DUP2 EQ PUSH2 0x1E4A JUMPI PUSH1 0x1 ADD SWAP1 JUMP JUMPDEST PUSH1 0x40 SWAP1 PUSH2 0x668 SWAP4 SWAP3 DUP2 MSTORE DUP2 PUSH1 0x20 DUP3 ADD MSTORE ADD SWAP1 PUSH2 0x1807 JUMP JUMPDEST SWAP2 SWAP1 DUP3 SUB SWAP2 DUP3 GT PUSH2 0x1E4A JUMPI JUMP JUMPDEST PUSH1 0x1 PUSH1 0x1 PUSH1 0xA0 SHL SUB AND DUP1 ISZERO PUSH2 0x35AA JUMPI PUSH1 0x0 MSTORE PUSH1 0x3 PUSH1 0x20 MSTORE PUSH1 0x40 PUSH1 0x0 KECCAK256 SLOAD SWAP1 JUMP JUMPDEST PUSH1 0x40 MLOAD PUSH4 0x22718AD9 PUSH1 0xE2 SHL DUP2 MSTORE PUSH1 0x0 PUSH1 0x4 DUP3 ADD MSTORE PUSH1 0x24 SWAP1 REVERT JUMPDEST SWAP1 PUSH2 0x35D6 PUSH1 0x20 SWAP3 DUP3 DUP2 MLOAD SWAP5 DUP6 SWAP3 ADD PUSH2 0x78F JUMP JUMPDEST ADD SWAP1 JUMP JUMPDEST PUSH2 0x668 SWAP4 SWAP3 PUSH1 0x60 SWAP3 DUP3 MSTORE PUSH1 0x20 DUP3 ADD MSTORE DUP2 PUSH1 0x40 DUP3 ADD MSTORE ADD SWAP1 PUSH2 0xA7F JUMP JUMPDEST PUSH1 0x40 SWAP1 PUSH2 0x668 SWAP4 SWAP3 DUP2 MSTORE DUP2 PUSH1 0x20 DUP3 ADD MSTORE ADD SWAP1 PUSH2 0xA7F JUMP JUMPDEST PUSH1 0x1A SLOAD PUSH1 0x0 SWAP3 SWAP2 PUSH2 0x361D DUP3 PUSH2 0x1489 JUMP JUMPDEST SWAP2 PUSH1 0x1 SWAP1 DUP2 DUP2 AND SWAP1 DUP2 ISZERO PUSH2 0x3677 JUMPI POP PUSH1 0x1 EQ PUSH2 0x3638 JUMPI POP POP POP JUMP JUMPDEST SWAP1 SWAP2 SWAP3 SWAP4 POP PUSH1 0x1A PUSH1 0x0 MSTORE PUSH1 0x0 DUP1 MLOAD PUSH1 0x20 PUSH2 0x474E DUP4 CODECOPY DUP2 MLOAD SWAP2 MSTORE SWAP1 PUSH1 0x0 SWAP2 JUMPDEST DUP5 DUP4 LT PUSH2 0x3664 JUMPI POP POP POP ADD SWAP1 JUMP JUMPDEST DUP2 DUP2 PUSH1 0x20 SWAP3 SLOAD DUP6 DUP8 ADD MSTORE ADD SWAP3 ADD SWAP2 PUSH2 0x3656 JUMP JUMPDEST PUSH1 0xFF NOT AND DUP4 MSTORE POP POP DUP2 ISZERO ISZERO SWAP1 SWAP2 MUL ADD SWAP2 POP JUMP JUMPDEST PUSH1 0xF SLOAD PUSH1 0x0 SWAP3 SWAP2 PUSH2 0x369A DUP3 PUSH2 0x1489 JUMP JUMPDEST SWAP2 PUSH1 0x1 SWAP1 DUP2 DUP2 AND SWAP1 DUP2 ISZERO PUSH2 0x3677 JUMPI POP PUSH1 0x1 EQ PUSH2 0x36B5 JUMPI POP POP POP JUMP JUMPDEST SWAP1 SWAP2 SWAP3 SWAP4 POP PUSH1 0xF PUSH1 0x0 MSTORE PUSH1 0x0 DUP1 MLOAD PUSH1 0x20 PUSH2 0x478E DUP4 CODECOPY DUP2 MLOAD SWAP2 MSTORE SWAP1 PUSH1 0x0 SWAP2 JUMPDEST DUP5 DUP4 LT PUSH2 0x36E1 JUMPI POP POP POP ADD SWAP1 JUMP JUMPDEST DUP2 DUP2 PUSH1 0x20 SWAP3 SLOAD DUP6 DUP8 ADD MSTORE ADD SWAP3 ADD SWAP2 PUSH2 0x36D3 JUMP JUMPDEST PUSH1 0x19 SLOAD PUSH1 0x0 SWAP3 SWAP2 PUSH2 0x3704 DUP3 PUSH2 0x1489 JUMP JUMPDEST SWAP2 PUSH1 0x1 SWAP1 DUP2 DUP2 AND SWAP1 DUP2 ISZERO PUSH2 0x3677 JUMPI POP PUSH1 0x1 EQ PUSH2 0x371F JUMPI POP POP POP JUMP JUMPDEST SWAP1 SWAP2 SWAP3 SWAP4 POP PUSH1 0x19 PUSH1 0x0 MSTORE PUSH1 0x0 DUP1 MLOAD PUSH1 0x20 PUSH2 0x47AE DUP4 CODECOPY DUP2 MLOAD SWAP2 MSTORE SWAP1 PUSH1 0x0 SWAP2 JUMPDEST DUP5 DUP4 LT PUSH2 0x374B JUMPI POP POP POP ADD SWAP1 JUMP JUMPDEST DUP2 DUP2 PUSH1 0x20 SWAP3 SLOAD DUP6 DUP8 ADD MSTORE ADD SWAP3 ADD SWAP2 PUSH2 0x373D JUMP JUMPDEST PUSH1 0x14 SLOAD PUSH1 0x0 SWAP3 SWAP2 PUSH2 0x376E DUP3 PUSH2 0x1489 JUMP JUMPDEST SWAP2 PUSH1 0x1 SWAP1 DUP2 DUP2 AND SWAP1 DUP2 ISZERO PUSH2 0x3677 JUMPI POP PUSH1 0x1 EQ PUSH2 0x3789 JUMPI POP POP POP JUMP JUMPDEST SWAP1 SWAP2 SWAP3 SWAP4 POP PUSH1 0x14 PUSH1 0x0 MSTORE PUSH1 0x0 DUP1 MLOAD PUSH1 0x20 PUSH2 0x476E DUP4 CODECOPY DUP2 MLOAD SWAP2 MSTORE SWAP1 PUSH1 0x0 SWAP2 JUMPDEST DUP5 DUP4 LT PUSH2 0x37B5 JUMPI POP POP POP ADD SWAP1 JUMP JUMPDEST DUP2 DUP2 PUSH1 0x20 SWAP3 SLOAD DUP6 DUP8 ADD MSTORE ADD SWAP3 ADD SWAP2 PUSH2 0x37A7 JUMP JUMPDEST PUSH1 0x11 SLOAD PUSH1 0x0 SWAP3 SWAP2 PUSH2 0x37D8 DUP3 PUSH2 0x1489 JUMP JUMPDEST SWAP2 PUSH1 0x1 SWAP1 DUP2 DUP2 AND SWAP1 DUP2 ISZERO PUSH2 0x3677 JUMPI POP PUSH1 0x1 EQ PUSH2 0x37F3 JUMPI POP POP POP JUMP JUMPDEST SWAP1 SWAP2 SWAP3 SWAP4 POP PUSH1 0x11 PUSH1 0x0 MSTORE PUSH32 0x31ECC21A745E3968A04E9570E4425BC18FA8019C68028196B546D1669C200C68 SWAP1 PUSH1 0x0 SWAP2 JUMPDEST DUP5 DUP4 LT PUSH2 0x3831 JUMPI POP POP POP ADD SWAP1 JUMP JUMPDEST DUP2 DUP2 PUSH1 0x20 SWAP3 SLOAD DUP6 DUP8 ADD MSTORE ADD SWAP3 ADD SWAP2 PUSH2 0x3823 JUMP JUMPDEST PUSH1 0x0 SWAP3 SWAP2 DUP2 SLOAD PUSH2 0x3853 DUP2 PUSH2 0x1489 JUMP JUMPDEST SWAP3 PUSH1 0x1 SWAP2 DUP1 DUP4 AND SWAP1 DUP2 ISZERO PUSH2 0x38AC JUMPI POP PUSH1 0x1 EQ PUSH2 0x386F JUMPI POP POP POP POP JUMP JUMPDEST SWAP1 SWAP2 SWAP3 SWAP4 SWAP5 POP PUSH1 0x0 MSTORE PUSH1 0x20 SWAP1 PUSH1 0x20 PUSH1 0x0 KECCAK256 SWAP1 PUSH1 0x0 SWAP2 JUMPDEST DUP6 DUP4 LT PUSH2 0x389B JUMPI POP POP POP POP ADD SWAP1 CODESIZE DUP1 DUP1 DUP1 PUSH2 0x14F0 JUMP JUMPDEST DUP1 SLOAD DUP6 DUP5 ADD MSTORE SWAP2 DUP4 ADD SWAP2 DUP2 ADD PUSH2 0x3885 JUMP JUMPDEST PUSH1 0xFF NOT AND DUP5 MSTORE POP POP POP DUP2 ISZERO ISZERO SWAP1 SWAP2 MUL ADD SWAP2 POP CODESIZE DUP1 DUP1 DUP1 PUSH2 0x14F0 JUMP JUMPDEST PUSH1 0x40 MLOAD SWAP1 PUSH2 0x38D4 DUP3 PUSH2 0x59F JUMP JUMPDEST PUSH1 0x2 DUP3 MSTORE PUSH2 0x4E6F PUSH1 0xF0 SHL PUSH1 0x20 DUP4 ADD MSTORE JUMP JUMPDEST PUSH1 0x40 MLOAD SWAP1 PUSH2 0x38F2 DUP3 PUSH2 0x59F JUMP JUMPDEST PUSH1 0x3 DUP3 MSTORE PUSH3 0x596573 PUSH1 0xE8 SHL PUSH1 0x20 DUP4 ADD MSTORE JUMP JUMPDEST PUSH1 0x0 DUP2 DUP2 MSTORE PUSH1 0x2 PUSH1 0x20 MSTORE PUSH1 0x40 SWAP1 KECCAK256 PUSH2 0x3928 SWAP1 PUSH1 0x1 PUSH1 0x1 PUSH1 0xA0 SHL SUB SWAP1 PUSH2 0xF49 SWAP1 PUSH2 0xF3C JUMP JUMPDEST PUSH2 0x3933 PUSH1 0x1A SLOAD PUSH2 0x1489 JUMP JUMPDEST PUSH2 0x3B7E JUMPI PUSH2 0x3940 DUP2 PUSH2 0x41B8 JUMP JUMPDEST PUSH2 0x3957 PUSH2 0xF8C DUP4 PUSH1 0x0 MSTORE PUSH1 0x1D PUSH1 0x20 MSTORE PUSH1 0x40 PUSH1 0x0 KECCAK256 SWAP1 JUMP JUMPDEST ISZERO PUSH2 0x3B73 JUMPI PUSH2 0x3978 PUSH2 0x3967 PUSH2 0x38E5 JUMP JUMPDEST SWAP3 PUSH1 0x0 MSTORE PUSH1 0x1E PUSH1 0x20 MSTORE PUSH1 0x40 PUSH1 0x0 KECCAK256 SWAP1 JUMP JUMPDEST PUSH1 0x40 MLOAD PUSH9 0x3D913730B6B2911D11 PUSH1 0xB9 SHL PUSH1 0x20 DUP3 ADD MSTORE SWAP3 DUP4 SWAP3 PUSH2 0x399C PUSH1 0x29 DUP6 ADD PUSH2 0x368A JUMP JUMPDEST PUSH9 0x205469636B65742023 PUSH1 0xB8 SHL DUP2 MSTORE PUSH1 0x9 ADD PUSH2 0x39B7 SWAP2 PUSH2 0x35C3 JUMP JUMPDEST PUSH17 0x1116113232B9B1B934B83A34B7B7111D11 PUSH1 0x79 SHL DUP2 MSTORE PUSH1 0x11 ADD PUSH2 0x39DA SWAP1 PUSH2 0x36F4 JUMP JUMPDEST PUSH11 0x11161134B6B0B3B2911D11 PUSH1 0xA9 SHL DUP2 MSTORE PUSH1 0xB ADD PUSH2 0x39F7 SWAP1 PUSH2 0x375E JUMP JUMPDEST PUSH16 0x222C2261747472696275746573223A5B PUSH1 0x80 SHL DUP2 MSTORE PUSH1 0x10 ADD PUSH32 0x7B2274726169745F74797065223A224576656E74222C2276616C7565223A2200 DUP2 MSTORE PUSH1 0x1F ADD PUSH2 0x3A3F SWAP1 PUSH2 0x368A JUMP JUMPDEST PUSH3 0x89F4B PUSH1 0xEA SHL DUP2 MSTORE PUSH1 0x3 ADD PUSH32 0x7B2274726169745F74797065223A2256656E7565222C2276616C7565223A2200 DUP2 MSTORE PUSH1 0x1F ADD PUSH2 0x3A7A SWAP1 PUSH2 0x37C8 JUMP JUMPDEST PUSH3 0x89F4B PUSH1 0xEA SHL DUP2 MSTORE PUSH1 0x3 ADD PUSH32 0x7B2274726169745F74797065223A2255736564222C2276616C7565223A220000 DUP2 MSTORE PUSH1 0x1E ADD PUSH2 0x3AB5 SWAP2 PUSH2 0x35C3 JUMP JUMPDEST PUSH3 0x89F4B PUSH1 0xEA SHL DUP2 MSTORE PUSH1 0x3 ADD PUSH32 0x7B2274726169745F74797065223A22427579657220436861696E222C2276616C DUP2 MSTORE PUSH5 0x3AB2911D11 PUSH1 0xD9 SHL PUSH1 0x20 DUP3 ADD MSTORE PUSH1 0x25 ADD PUSH2 0x3AFE SWAP2 PUSH2 0x3844 JUMP JUMPDEST PUSH4 0x227D5D7D PUSH1 0xE0 SHL DUP2 MSTORE PUSH1 0x4 ADD SUB SWAP1 PUSH1 0x1F NOT SWAP2 DUP3 DUP2 ADD DUP3 MSTORE PUSH2 0x3B20 SWAP1 DUP3 PUSH2 0x5BA JUMP JUMPDEST PUSH2 0x3B29 SWAP1 PUSH2 0x436B JUMP JUMPDEST PUSH1 0x40 MLOAD PUSH32 0x646174613A6170706C69636174696F6E2F6A736F6E3B6261736536342C000000 PUSH1 0x20 DUP3 ADD MSTORE SWAP2 SWAP1 DUP3 SWAP1 PUSH1 0x3D DUP3 ADD PUSH2 0x3B63 SWAP2 PUSH2 0x35C3 JUMP JUMPDEST SUB SWAP1 DUP2 ADD DUP3 MSTORE PUSH2 0x668 SWAP1 DUP3 PUSH2 0x5BA JUMP JUMPDEST PUSH2 0x3978 PUSH2 0x3967 PUSH2 0x38C7 JUMP JUMPDEST PUSH2 0x668 PUSH2 0x3B8D PUSH2 0x3BA8 SWAP3 PUSH2 0x41B8 JUMP JUMPDEST PUSH2 0x3BB9 PUSH1 0x40 MLOAD SWAP4 DUP5 SWAP3 PUSH2 0x3BA2 PUSH1 0x20 DUP6 ADD PUSH2 0x360D JUMP JUMPDEST SWAP1 PUSH2 0x35C3 JUMP JUMPDEST PUSH5 0x173539B7B7 PUSH1 0xD9 SHL DUP2 MSTORE PUSH1 0x5 ADD SWAP1 JUMP JUMPDEST SUB PUSH1 0x1F NOT DUP2 ADD DUP4 MSTORE DUP3 PUSH2 0x5BA JUMP JUMPDEST PUSH2 0x3BD6 PUSH2 0x240D PUSH1 0x21 SLOAD PUSH1 0xFF AND SWAP1 JUMP JUMPDEST DUP1 ISZERO PUSH2 0x3CC6 JUMPI JUMPDEST PUSH2 0x3CB7 JUMPI PUSH2 0x3BEA DUP2 PUSH2 0x358A JUMP JUMPDEST SWAP2 DUP3 ISZERO PUSH2 0x3CAA JUMPI PUSH1 0x0 SWAP3 DUP4 SWAP3 DUP5 JUMPDEST DUP3 DUP2 LT PUSH2 0x3C36 JUMPI POP POP POP DUP3 ISZERO ISZERO SWAP1 DUP2 PUSH2 0x3C1F JUMPI JUMPDEST PUSH2 0x3C18 PUSH1 0x16 SLOAD DUP6 PUSH2 0x34E4 JUMP JUMPDEST SWAP2 SWAP4 SWAP3 SWAP2 SWAP1 JUMP JUMPDEST SWAP1 POP SELFBALANCE PUSH2 0x3C2E PUSH1 0x16 SLOAD DUP6 PUSH2 0x34E4 JUMP JUMPDEST GT ISZERO SWAP1 PUSH2 0x3C0C JUMP JUMPDEST PUSH2 0x3C40 DUP2 DUP4 PUSH2 0x34F7 JUMP JUMPDEST PUSH2 0x3C57 PUSH2 0xF8C DUP3 PUSH1 0x0 MSTORE PUSH1 0x23 PUSH1 0x20 MSTORE PUSH1 0x40 PUSH1 0x0 KECCAK256 SWAP1 JUMP JUMPDEST ISZERO PUSH2 0x3C67 JUMPI POP PUSH1 0x1 SWAP1 JUMPDEST ADD PUSH2 0x3BF8 JUMP JUMPDEST PUSH2 0xF8C PUSH2 0x3C81 SWAP2 SWAP7 SWAP3 SWAP7 PUSH1 0x0 MSTORE PUSH1 0x1D PUSH1 0x20 MSTORE PUSH1 0x40 PUSH1 0x0 KECCAK256 SWAP1 JUMP JUMPDEST ISZERO PUSH2 0x3C97 JUMPI PUSH2 0x3C91 PUSH1 0x1 SWAP2 PUSH2 0x3557 JUMP JUMPDEST SWAP5 PUSH2 0x3C61 JUMP JUMPDEST SWAP4 SWAP5 PUSH2 0x3CA4 PUSH1 0x1 SWAP2 PUSH2 0x3557 JUMP JUMPDEST SWAP6 PUSH2 0x3C61 JUMP JUMPDEST PUSH1 0x0 SWAP3 POP DUP3 SWAP2 POP DUP2 SWAP1 DUP2 SWAP1 JUMP JUMPDEST POP PUSH1 0x0 SWAP1 PUSH1 0x0 SWAP1 PUSH1 0x0 SWAP1 PUSH1 0x0 SWAP1 JUMP JUMPDEST POP PUSH1 0x18 SLOAD TIMESTAMP GT PUSH2 0x3BDD JUMP JUMPDEST PUSH1 0x0 DUP2 DUP2 MSTORE PUSH1 0x2 PUSH1 0x20 MSTORE PUSH1 0x40 SWAP1 KECCAK256 SLOAD PUSH1 0x1 PUSH1 0x1 PUSH1 0xA0 SHL SUB AND SWAP1 DUP2 ISZERO PUSH2 0x3CF4 JUMPI POP SWAP1 JUMP JUMPDEST PUSH1 0x24 SWAP1 PUSH1 0x40 MLOAD SWAP1 PUSH4 0x7E273289 PUSH1 0xE0 SHL DUP3 MSTORE PUSH1 0x4 DUP3 ADD MSTORE REVERT JUMPDEST SWAP1 PUSH1 0x40 MLOAD PUSH2 0x3D19 DUP2 PUSH2 0x584 JUMP JUMPDEST PUSH1 0x0 DUP2 MSTORE PUSH2 0x3D27 DUP3 DUP5 PUSH2 0x3E13 JUMP JUMPDEST DUP3 EXTCODESIZE PUSH2 0x3D32 JUMPI POP POP POP JUMP JUMPDEST PUSH1 0x20 PUSH2 0x3D55 SWAP2 PUSH1 0x40 MLOAD DUP1 SWAP4 DUP2 SWAP3 PUSH4 0xA85BD01 PUSH1 0xE1 SHL SWAP7 DUP8 DUP5 MSTORE CALLER PUSH1 0x4 DUP6 ADD PUSH2 0x409E JUMP JUMPDEST SUB DUP2 PUSH1 0x0 PUSH1 0x1 PUSH1 0x1 PUSH1 0xA0 SHL SUB DUP9 AND GAS CALL PUSH1 0x0 SWAP2 DUP2 PUSH2 0x3DE2 JUMPI JUMPDEST POP PUSH2 0x3DAD JUMPI DUP3 PUSH2 0x3D7C PUSH2 0x340A JUMP JUMPDEST DUP1 MLOAD SWAP2 SWAP1 DUP3 PUSH2 0x3DA6 JUMPI PUSH1 0x40 MLOAD PUSH4 0x32505749 PUSH1 0xE1 SHL DUP2 MSTORE PUSH1 0x1 PUSH1 0x1 PUSH1 0xA0 SHL SUB DUP4 AND PUSH1 0x4 DUP3 ADD MSTORE PUSH1 0x24 SWAP1 REVERT JUMPDEST PUSH1 0x20 SWAP2 POP ADD REVERT JUMPDEST PUSH1 0x1 PUSH1 0x1 PUSH1 0xE0 SHL SUB NOT AND SUB PUSH2 0x3DBF JUMPI POP JUMP JUMPDEST PUSH1 0x40 MLOAD PUSH4 0x32505749 PUSH1 0xE1 SHL DUP2 MSTORE PUSH1 0x1 PUSH1 0x1 PUSH1 0xA0 SHL SUB SWAP2 SWAP1 SWAP2 AND PUSH1 0x4 DUP3 ADD MSTORE PUSH1 0x24 SWAP1 REVERT JUMPDEST PUSH2 0x3E05 SWAP2 SWAP3 POP PUSH1 0x20 RETURNDATASIZE PUSH1 0x20 GT PUSH2 0x3E0C JUMPI JUMPDEST PUSH2 0x3DFD DUP2 DUP4 PUSH2 0x5BA JUMP JUMPDEST DUP2 ADD SWAP1 PUSH2 0x4089 JUMP JUMPDEST SWAP1 CODESIZE PUSH2 0x3D6E JUMP JUMPDEST POP RETURNDATASIZE PUSH2 0x3DF3 JUMP JUMPDEST PUSH1 0x1 PUSH1 0x1 PUSH1 0xA0 SHL SUB SWAP2 DUP2 DUP4 AND DUP1 ISZERO PUSH2 0x33DE JUMPI PUSH1 0x0 DUP3 DUP2 MSTORE PUSH1 0x2 PUSH1 0x20 MSTORE PUSH1 0x40 SWAP1 KECCAK256 SLOAD PUSH1 0x1 PUSH1 0x1 PUSH1 0xA0 SHL SUB AND SWAP4 DUP5 AND DUP1 ISZERO SWAP5 DUP6 ISZERO SWAP6 DUP7 PUSH2 0x3F11 JUMPI JUMPDEST PUSH1 0x1 PUSH1 0x1 PUSH1 0xA0 SHL SUB DUP7 AND PUSH1 0x0 SWAP1 DUP2 MSTORE PUSH1 0x3 PUSH1 0x20 MSTORE PUSH1 0x40 SWAP1 KECCAK256 PUSH1 0x1 DUP2 SLOAD ADD SWAP1 SSTORE PUSH2 0x3E83 DUP7 PUSH2 0x9DC DUP8 PUSH1 0x0 MSTORE PUSH1 0x2 PUSH1 0x20 MSTORE PUSH1 0x40 PUSH1 0x0 KECCAK256 SWAP1 JUMP JUMPDEST DUP5 DUP5 DUP5 PUSH32 0xDDF252AD1BE2C89B69C2B068FC378DAA952BA7F163C4A11628F55A4DF523B3EF PUSH1 0x0 DUP1 LOG4 ISZERO PUSH2 0x3EF1 JUMPI POP PUSH2 0x3EBA DUP4 PUSH2 0x44F2 JUMP JUMPDEST SUB PUSH2 0x3EE1 JUMPI JUMPDEST POP POP PUSH2 0x3EC8 JUMPI JUMP JUMPDEST PUSH1 0x40 MLOAD PUSH4 0x39E35637 PUSH1 0xE1 SHL DUP2 MSTORE PUSH1 0x0 PUSH1 0x4 DUP3 ADD MSTORE PUSH1 0x24 SWAP1 REVERT JUMPDEST PUSH2 0x3EEA SWAP2 PUSH2 0x454F JUMP JUMPDEST CODESIZE DUP1 PUSH2 0x3EC0 JUMP JUMPDEST DUP4 DUP4 DUP4 SUB PUSH2 0x3F01 JUMPI JUMPDEST POP POP PUSH2 0x3EBA JUMP JUMPDEST PUSH2 0x3F0A SWAP2 PUSH2 0x4482 JUMP JUMPDEST CODESIZE DUP4 PUSH2 0x3EFA JUMP JUMPDEST PUSH2 0x3F1A DUP6 PUSH2 0x445E JUMP JUMPDEST PUSH1 0x1 PUSH1 0x1 PUSH1 0xA0 SHL SUB DUP3 AND PUSH1 0x0 SWAP1 DUP2 MSTORE PUSH1 0x3 PUSH1 0x20 MSTORE PUSH1 0x40 SWAP1 KECCAK256 DUP1 SLOAD PUSH1 0x0 NOT ADD SWAP1 SSTORE PUSH2 0x3E4C JUMP JUMPDEST PUSH2 0x3F48 CHAINID PUSH2 0x41B8 JUMP JUMPDEST PUSH2 0x668 PUSH1 0x26 PUSH1 0x40 MLOAD DUP1 SWAP4 PUSH6 0x31B430B4B71D PUSH1 0xD1 SHL PUSH1 0x20 DUP4 ADD MSTORE PUSH2 0x3F74 DUP2 MLOAD DUP1 SWAP3 PUSH1 0x20 DUP7 DUP7 ADD SWAP2 ADD PUSH2 0x78F JUMP JUMPDEST DUP2 ADD SUB PUSH1 0x6 DUP2 ADD DUP5 MSTORE ADD DUP3 PUSH2 0x5BA JUMP JUMPDEST PUSH1 0xA SLOAD PUSH1 0x1 PUSH1 0x1 PUSH1 0xA0 SHL SUB AND CALLER SUB PUSH2 0x3F98 JUMPI JUMP JUMPDEST PUSH1 0x40 MLOAD PUSH4 0x118CDAA7 PUSH1 0xE0 SHL DUP2 MSTORE CALLER PUSH1 0x4 DUP3 ADD MSTORE PUSH1 0x24 SWAP1 REVERT JUMPDEST PUSH1 0x0 DUP2 DUP2 MSTORE PUSH1 0x2 PUSH1 0x20 MSTORE PUSH1 0x40 SWAP1 KECCAK256 SLOAD PUSH1 0x1 PUSH1 0x1 PUSH1 0xA0 SHL SUB AND DUP1 ISZERO SWAP1 DUP3 DUP3 ISZERO DUP1 PUSH2 0x405B JUMPI JUMPDEST PUSH2 0x3FE8 DUP3 PUSH1 0x0 MSTORE PUSH1 0x2 PUSH1 0x20 MSTORE PUSH1 0x40 PUSH1 0x0 KECCAK256 SWAP1 JUMP JUMPDEST DUP1 SLOAD PUSH1 0x1 PUSH1 0x1 PUSH1 0xA0 SHL SUB NOT AND SWAP1 SSTORE DUP2 PUSH1 0x0 DUP5 PUSH32 0xDDF252AD1BE2C89B69C2B068FC378DAA952BA7F163C4A11628F55A4DF523B3EF DUP3 DUP1 LOG4 DUP4 ISZERO PUSH2 0x403F JUMPI POP PUSH2 0x402F SWAP2 POP PUSH2 0x44F2 JUMP JUMPDEST PUSH2 0x4038 DUP3 PUSH2 0x4596 JUMP JUMPDEST PUSH2 0x3CF4 JUMPI POP JUMP JUMPDEST PUSH2 0x404B JUMPI JUMPDEST POP POP PUSH2 0x402F JUMP JUMPDEST PUSH2 0x4054 SWAP2 PUSH2 0x4482 JUMP JUMPDEST CODESIZE DUP3 PUSH2 0x4044 JUMP JUMPDEST PUSH2 0x4064 DUP3 PUSH2 0x445E JUMP JUMPDEST PUSH1 0x1 PUSH1 0x1 PUSH1 0xA0 SHL SUB DUP4 AND PUSH1 0x0 SWAP1 DUP2 MSTORE PUSH1 0x3 PUSH1 0x20 MSTORE PUSH1 0x40 SWAP1 KECCAK256 DUP1 SLOAD PUSH1 0x0 NOT ADD SWAP1 SSTORE PUSH2 0x3FD4 JUMP JUMPDEST SWAP1 DUP2 PUSH1 0x20 SWAP2 SUB SLT PUSH2 0x47E JUMPI MLOAD PUSH2 0x668 DUP2 PUSH2 0x46C JUMP JUMPDEST PUSH2 0x668 SWAP4 SWAP3 PUSH1 0x80 SWAP3 PUSH1 0x1 DUP1 PUSH1 0xA0 SHL SUB AND DUP3 MSTORE PUSH1 0x0 PUSH1 0x20 DUP4 ADD MSTORE PUSH1 0x40 DUP3 ADD MSTORE DUP2 PUSH1 0x60 DUP3 ADD MSTORE ADD SWAP1 PUSH2 0x7B2 JUMP JUMPDEST PUSH1 0x1 PUSH1 0x1 PUSH1 0xA0 SHL SUB SWAP2 DUP3 AND DUP2 MSTORE SWAP2 AND PUSH1 0x20 DUP3 ADD MSTORE PUSH1 0x40 DUP2 ADD SWAP2 SWAP1 SWAP2 MSTORE PUSH1 0x80 PUSH1 0x60 DUP3 ADD DUP2 SWAP1 MSTORE PUSH2 0x668 SWAP3 SWAP2 ADD SWAP1 PUSH2 0x7B2 JUMP JUMPDEST SWAP3 SWAP4 SWAP2 SWAP4 DUP5 EXTCODESIZE PUSH2 0x410B JUMPI POP POP POP POP POP JUMP JUMPDEST PUSH1 0x20 SWAP2 PUSH2 0x412E PUSH1 0x40 MLOAD SWAP5 DUP6 SWAP4 DUP5 SWAP4 PUSH4 0xA85BD01 PUSH1 0xE1 SHL SWAP9 DUP10 DUP7 MSTORE PUSH1 0x4 DUP7 ADD PUSH2 0x40C9 JUMP JUMPDEST SUB DUP2 PUSH1 0x0 PUSH1 0x1 PUSH1 0x1 PUSH1 0xA0 SHL SUB DUP9 AND GAS CALL PUSH1 0x0 SWAP2 DUP2 PUSH2 0x416F JUMPI JUMPDEST POP PUSH2 0x4155 JUMPI DUP3 PUSH2 0x3D7C PUSH2 0x340A JUMP JUMPDEST PUSH1 0x1 PUSH1 0x1 PUSH1 0xE0 SHL SUB NOT AND SUB PUSH2 0x3DBF JUMPI POP CODESIZE DUP1 DUP1 DUP1 DUP1 PUSH2 0x1836 JUMP JUMPDEST PUSH2 0x4189 SWAP2 SWAP3 POP PUSH1 0x20 RETURNDATASIZE PUSH1 0x20 GT PUSH2 0x3E0C JUMPI PUSH2 0x3DFD DUP2 DUP4 PUSH2 0x5BA JUMP JUMPDEST SWAP1 CODESIZE PUSH2 0x4147 JUMP JUMPDEST SWAP1 PUSH2 0x419A DUP3 PUSH2 0x5DB JUMP JUMPDEST PUSH2 0x41A7 PUSH1 0x40 MLOAD SWAP2 DUP3 PUSH2 0x5BA JUMP JUMPDEST DUP3 DUP2 MSTORE DUP1 SWAP3 PUSH2 0x324C PUSH1 0x1F NOT SWAP2 PUSH2 0x5DB JUMP JUMPDEST DUP1 PUSH1 0x0 SWAP2 PUSH27 0x184F03E93FF9F4DAA797ED6E38ED64BF6A1F010000000000000000 DUP1 DUP3 LT ISZERO PUSH2 0x42EE JUMPI JUMPDEST POP PUSH14 0x4EE2D6D415B85ACEF8100000000 DUP1 DUP4 LT ISZERO PUSH2 0x42DF JUMPI JUMPDEST POP PUSH7 0x2386F26FC10000 DUP1 DUP4 LT ISZERO PUSH2 0x42D0 JUMPI JUMPDEST POP PUSH4 0x5F5E100 DUP1 DUP4 LT ISZERO PUSH2 0x42C1 JUMPI JUMPDEST POP PUSH2 0x2710 DUP1 DUP4 LT ISZERO PUSH2 0x42B2 JUMPI JUMPDEST POP PUSH1 0x64 DUP3 LT ISZERO PUSH2 0x42A2 JUMPI JUMPDEST PUSH1 0xA DUP1 SWAP3 LT ISZERO PUSH2 0x4298 JUMPI JUMPDEST PUSH1 0x1 SWAP1 DUP2 PUSH1 0x21 PUSH2 0x4250 PUSH1 0x1 DUP8 ADD PUSH2 0x4190 JUMP JUMPDEST SWAP6 DUP7 ADD ADD SWAP1 JUMPDEST PUSH2 0x4262 JUMPI JUMPDEST POP POP POP POP SWAP1 JUMP JUMPDEST PUSH1 0x0 NOT ADD SWAP1 DUP4 SWAP1 PUSH16 0x181899199A1A9B1B9C1CB0B131B232B3 PUSH1 0x81 SHL DUP3 DUP3 MOD BYTE DUP4 MSTORE8 DIV SWAP2 DUP3 ISZERO PUSH2 0x4293 JUMPI SWAP2 SWAP1 DUP3 PUSH2 0x4256 JUMP JUMPDEST PUSH2 0x425B JUMP JUMPDEST SWAP2 PUSH1 0x1 ADD SWAP2 PUSH2 0x423E JUMP JUMPDEST SWAP2 SWAP1 PUSH1 0x64 PUSH1 0x2 SWAP2 DIV SWAP2 ADD SWAP2 PUSH2 0x4233 JUMP JUMPDEST PUSH1 0x4 SWAP2 SWAP4 SWAP3 DIV SWAP2 ADD SWAP2 CODESIZE PUSH2 0x4228 JUMP JUMPDEST PUSH1 0x8 SWAP2 SWAP4 SWAP3 DIV SWAP2 ADD SWAP2 CODESIZE PUSH2 0x421B JUMP JUMPDEST PUSH1 0x10 SWAP2 SWAP4 SWAP3 DIV SWAP2 ADD SWAP2 CODESIZE PUSH2 0x420C JUMP JUMPDEST PUSH1 0x20 SWAP2 SWAP4 SWAP3 DIV SWAP2 ADD SWAP2 CODESIZE PUSH2 0x41FA JUMP JUMPDEST PUSH1 0x40 SWAP4 POP DUP2 DIV SWAP2 POP CODESIZE PUSH2 0x41E1 JUMP JUMPDEST PUSH1 0x40 MLOAD SWAP1 PUSH1 0x60 DUP3 ADD DUP3 DUP2 LT PUSH1 0x1 PUSH1 0x1 PUSH1 0x40 SHL SUB DUP3 GT OR PUSH2 0x57F JUMPI PUSH1 0x40 MSTORE PUSH1 0x40 DUP3 MSTORE PUSH32 0x6768696A6B6C6D6E6F707172737475767778797A303132333435363738392B2F PUSH1 0x40 DUP4 PUSH32 0x4142434445464748494A4B4C4D4E4F505152535455565758595A616263646566 PUSH1 0x20 DUP3 ADD MSTORE ADD MSTORE JUMP JUMPDEST DUP1 MLOAD ISZERO PUSH2 0x4455 JUMPI PUSH2 0x437A PUSH2 0x42FC JUMP JUMPDEST PUSH2 0x4396 PUSH2 0x4391 PUSH2 0x438A DUP5 MLOAD PUSH2 0x34A3 JUMP JUMPDEST PUSH1 0x3 SWAP1 DIV SWAP1 JUMP JUMPDEST PUSH2 0x34CC JUMP JUMPDEST SWAP2 PUSH2 0x43A8 PUSH2 0x43A3 DUP5 PUSH2 0x34B1 JUMP JUMPDEST PUSH2 0x4190 JUMP JUMPDEST SWAP3 DUP4 MSTORE DUP1 DUP2 MLOAD DUP3 ADD SWAP1 PUSH1 0x20 DUP6 ADD SWAP4 JUMPDEST DUP3 DUP3 LT PUSH2 0x43F9 JUMPI POP POP POP PUSH1 0x3 SWAP1 MLOAD MOD DUP1 PUSH1 0x1 EQ PUSH2 0x43E8 JUMPI PUSH1 0x2 EQ PUSH2 0x43D9 JUMPI POP SWAP1 JUMP JUMPDEST PUSH1 0x3D PUSH1 0xF8 SHL PUSH1 0x0 NOT SWAP1 SWAP2 ADD MSTORE SWAP1 JUMP JUMPDEST POP PUSH2 0x3D3D PUSH1 0xF0 SHL PUSH1 0x1 NOT SWAP1 SWAP2 ADD MSTORE SWAP1 JUMP JUMPDEST SWAP1 SWAP2 SWAP4 PUSH1 0x4 SWAP1 PUSH1 0x3 DUP1 SWAP5 ADD SWAP4 DUP5 MLOAD PUSH1 0x1 PUSH1 0x3F DUP2 DUP2 DUP5 PUSH1 0x12 SHR AND DUP9 ADD ADD MLOAD SWAP3 PUSH1 0xF8 SWAP4 DUP5 SHL DUP7 MSTORE DUP3 DUP3 DUP3 PUSH1 0xC SHR AND DUP10 ADD ADD MLOAD DUP5 SHL DUP4 DUP8 ADD MSTORE DUP3 DUP3 DUP3 PUSH1 0x6 SHR AND DUP10 ADD ADD MLOAD DUP5 SHL PUSH1 0x2 DUP8 ADD MSTORE AND DUP7 ADD ADD MLOAD SWAP1 SHL SWAP1 DUP3 ADD MSTORE ADD SWAP4 SWAP2 SWAP1 PUSH2 0x43B7 JUMP JUMPDEST POP PUSH2 0x668 PUSH2 0x33F7 JUMP JUMPDEST PUSH2 0x4472 SWAP1 PUSH1 0x0 MSTORE PUSH1 0x4 PUSH1 0x20 MSTORE PUSH1 0x40 PUSH1 0x0 KECCAK256 SWAP1 JUMP JUMPDEST DUP1 SLOAD PUSH1 0x1 PUSH1 0x1 PUSH1 0xA0 SHL SUB NOT AND SWAP1 SSTORE JUMP JUMPDEST SWAP1 PUSH2 0x448C DUP3 PUSH2 0x358A JUMP JUMPDEST SWAP2 PUSH1 0x0 SWAP3 DUP3 DUP5 MSTORE PUSH1 0x20 SWAP1 PUSH1 0x7 DUP3 MSTORE PUSH1 0x40 SWAP4 DUP5 DUP7 KECCAK256 SLOAD SWAP4 PUSH1 0x1 DUP1 PUSH1 0xA0 SHL SUB AND DUP7 MSTORE PUSH1 0x6 DUP4 MSTORE DUP5 DUP7 KECCAK256 SWAP4 DUP3 DUP2 SUB PUSH2 0x44D0 JUMPI JUMPDEST POP DUP6 MSTORE PUSH1 0x7 DUP3 MSTORE DUP5 DUP5 DUP2 KECCAK256 SSTORE DUP5 MSTORE MSTORE DUP2 KECCAK256 SSTORE JUMP JUMPDEST DUP3 DUP8 MSTORE DUP5 DUP5 MSTORE DUP6 DUP8 KECCAK256 SLOAD DUP2 DUP9 MSTORE DUP1 DUP8 DUP10 KECCAK256 SSTORE DUP8 MSTORE PUSH1 0x7 DUP5 MSTORE DUP6 DUP8 KECCAK256 SSTORE CODESIZE PUSH2 0x44BC JUMP JUMPDEST PUSH1 0x8 SLOAD DUP2 PUSH1 0x0 MSTORE PUSH1 0x9 PUSH1 0x20 MSTORE DUP1 PUSH1 0x40 PUSH1 0x0 KECCAK256 SSTORE PUSH9 0x10000000000000000 DUP2 LT ISZERO PUSH2 0x57F JUMPI PUSH1 0x1 DUP2 ADD DUP1 PUSH1 0x8 SSTORE DUP2 LT ISZERO PUSH2 0x3280 JUMPI PUSH1 0x8 PUSH1 0x0 MSTORE PUSH32 0xF3F7A9FE364FAAB93B216DA50A3214154F22A0A2B415B23A84C8169E8B636EE3 ADD SSTORE JUMP JUMPDEST SWAP1 PUSH2 0x4559 DUP3 PUSH2 0x358A JUMP JUMPDEST PUSH1 0x0 NOT DUP2 ADD SWAP3 SWAP1 DUP4 GT PUSH2 0x1E4A JUMPI PUSH1 0x1 PUSH1 0x1 PUSH1 0xA0 SHL SUB AND PUSH1 0x0 SWAP1 DUP2 MSTORE PUSH1 0x6 PUSH1 0x20 SWAP1 DUP2 MSTORE PUSH1 0x40 DUP1 DUP4 KECCAK256 DUP6 DUP5 MSTORE DUP3 MSTORE DUP1 DUP4 KECCAK256 DUP5 SWAP1 SSTORE SWAP3 DUP3 MSTORE PUSH1 0x7 SWAP1 MSTORE KECCAK256 SSTORE JUMP JUMPDEST PUSH1 0x8 DUP1 SLOAD PUSH1 0x0 NOT SWAP3 DUP4 DUP3 ADD DUP3 DUP2 GT PUSH2 0x1E4A JUMPI PUSH1 0x0 SWAP3 DUP3 DUP5 MSTORE PUSH1 0x9 PUSH1 0x20 MSTORE DUP1 PUSH1 0x40 DUP6 KECCAK256 SLOAD SWAP3 LT ISZERO PUSH2 0x3280 JUMPI DUP5 DUP5 MSTORE PUSH32 0xF3F7A9FE364FAAB93B216DA50A3214154F22A0A2B415B23A84C8169E8B636EE2 SWAP3 DUP4 DUP3 ADD SLOAD SWAP2 DUP4 LT ISZERO PUSH2 0x3280 JUMPI DUP5 SWAP3 PUSH2 0x4632 PUSH2 0x4643 SWAP4 DUP9 DUP7 MSTORE DUP1 DUP4 PUSH32 0xF3F7A9FE364FAAB93B216DA50A3214154F22A0A2B415B23A84C8169E8B636EE3 ADD SSTORE PUSH1 0x0 MSTORE PUSH1 0x9 PUSH1 0x20 MSTORE PUSH1 0x40 PUSH1 0x0 KECCAK256 SWAP1 JUMP JUMPDEST SSTORE PUSH1 0x0 MSTORE PUSH1 0x9 PUSH1 0x20 MSTORE PUSH1 0x40 PUSH1 0x0 KECCAK256 SWAP1 JUMP JUMPDEST SSTORE DUP3 SLOAD SWAP4 DUP5 ISZERO PUSH2 0x4660 JUMPI DUP5 ADD SWAP4 DUP1 DUP6 LT ISZERO PUSH2 0x3280 JUMPI DUP4 DUP4 MSTORE ADD SSTORE SSTORE JUMP JUMPDEST PUSH4 0x4E487B71 PUSH1 0xE0 SHL DUP4 MSTORE PUSH1 0x31 PUSH1 0x4 MSTORE PUSH1 0x24 DUP4 REVERT JUMPDEST PUSH1 0x1 PUSH1 0x1 PUSH1 0xA0 SHL SUB SWAP1 DUP3 DUP3 AND DUP1 ISZERO ISZERO SWAP1 DUP2 PUSH2 0x46DF JUMPI JUMPDEST POP ISZERO PUSH2 0x4696 JUMPI POP POP POP POP JUMP JUMPDEST AND PUSH2 0x46B4 JUMPI PUSH1 0x40 MLOAD PUSH4 0x7E273289 PUSH1 0xE0 SHL DUP2 MSTORE PUSH1 0x4 DUP2 ADD DUP4 SWAP1 MSTORE PUSH1 0x24 SWAP1 REVERT JUMPDEST PUSH1 0x40 MLOAD PUSH4 0x177E802F PUSH1 0xE0 SHL DUP2 MSTORE PUSH1 0x1 PUSH1 0x1 PUSH1 0xA0 SHL SUB SWAP2 SWAP1 SWAP2 AND PUSH1 0x4 DUP3 ADD MSTORE PUSH1 0x24 DUP2 ADD SWAP2 SWAP1 SWAP2 MSTORE PUSH1 0x44 SWAP1 REVERT JUMPDEST DUP3 DUP5 AND DUP1 DUP3 EQ SWAP3 POP DUP3 ISZERO PUSH2 0x4717 JUMPI JUMPDEST POP DUP2 ISZERO PUSH2 0x46FD JUMPI JUMPDEST POP CODESIZE PUSH2 0x468A JUMP JUMPDEST SWAP1 POP DUP5 PUSH1 0x0 MSTORE PUSH1 0x4 PUSH1 0x20 MSTORE DUP3 PUSH1 0x40 PUSH1 0x0 KECCAK256 SLOAD AND EQ CODESIZE PUSH2 0x46F6 JUMP JUMPDEST SWAP1 SWAP2 POP PUSH1 0x0 MSTORE PUSH1 0x5 PUSH1 0x20 MSTORE PUSH1 0xFF PUSH2 0x4744 DUP6 PUSH1 0x40 PUSH1 0x0 KECCAK256 SWAP1 PUSH1 0x1 DUP1 PUSH1 0xA0 SHL SUB AND PUSH1 0x0 MSTORE PUSH1 0x20 MSTORE PUSH1 0x40 PUSH1 0x0 KECCAK256 SWAP1 JUMP JUMPDEST SLOAD AND SWAP1 CODESIZE PUSH2 0x46EE JUMP INVALID SDIV PUSH29 0x384A7D1C54F3A1B2E5E67B2617B8224FDFD1EA7234EEA573A6FF665FF6 RETURNDATACOPY 0xCE PUSH14 0x7B5282BD9A3661AE061FEED1DBDA 0x4E MSTORE 0xAB SMOD EXTCODESIZE 0x1F SWAP3 DUP6 0xBE PUSH15 0x155D9C38D4EC8D1108E10BCB7C27DD 0xDF 0xC0 0x2E 0xD9 0xD6 SWAP4 LOG0 PUSH21 0x39D026CF4EA4240B40F7D581AC802944998273E47 PUSH28 0x495144FB8794C914197F3CCB46BE2900F4698FD0EF743C9695A26469 PUSH17 0x667358221220A3B4CA29B66289B5892394 SGT 0xCC LT 0xDC MSIZE PUSH12 0x46CAB0A14411B17C0735197D ISZERO LOG3 SWAP16 PUSH5 0x736F6C6343 STOP ADDMOD AND STOP CALLER 0xBB DUP11 PUSH11 0x4669BA250D26CD7A459ECA SWAP14 0x21 PUSH0 DUP4 SMOD 0xE3 GASPRICE 0xEB 0xE5 SUB PUSH26 0xBC5A3617EC344431ECC21A745E3968A04E9570E4425BC18FA801 SWAP13 PUSH9 0x28196B546D1669C20 0xC PUSH9 0x290DECD9548B62A8D6 SUB GASLIMIT 0xA9 DUP9 CODESIZE PUSH16 0xC84BA6BC95484008F6362F93160EF3E5 PUSH4 0x3AD8AA4F DUP8 SLOAD NUMBER 0x23 0xA9 0xD1 0xE5 0xDD SWAP1 0x2F BLOCKHASH 0xC3 JUMP MSTORE PUSH27 0x7955687113DB5F9A85AD579DC166DE8FFDA797E3DE9C05E8FC57B3 0xBF 0xE 0xC2 DUP11 SWAP4 0xD BLOCKHASH 0xB0 0xD2 DUP6 0xD9 EXTCODECOPY MOD POP SHR 0xF6 LOG0 SWAP1 SDIV PUSH29 0x384A7D1C54F3A1B2E5E67B2617B8224FDFD1EA7234EEA573A6FF665FF6 RETURNDATACOPY 0xB1 0xE 0x2D MSTORE PUSH23 0x12073B26EECDFD717E6A320CF44B4AFAC2B0732D9FCBE2 0xB7 STATICCALL 0xC 0xF6 0xCE PUSH14 0x7B5282BD9A3661AE061FEED1DBDA 0x4E MSTORE 0xAB SMOD EXTCODESIZE 0x1F SWAP3 DUP6 0xBE PUSH15 0x155D9C38D4EC8D1108E10BCB7C27DD 0xDF 0xC0 0x2E 0xD9 0xD6 SWAP4 LOG0 PUSH21 0x39D026CF4EA4240B40F7D581AC802000000000000 "},"methodIdentifiers":{"approve(address,uint256)":"095ea7b3","balanceOf(address)":"70a08231","cancelEvent()":"fb6c9537","claimRefund()":"b5545a3c","contentHash()":"646c2e33","eventCancelled()":"e1a494d1","eventDate()":"4bfbe5df","eventDescription()":"9434571b","eventId()":"089cdd0c","eventImageUri()":"684e78dd","eventName()":"8043c9c0","eventOrganizerContract()":"0beb11b7","eventPaused()":"b40f2989","eventVenue()":"e22bda35","fundsWithdrawn()":"ac307fcf","getApproved(uint256)":"081812fc","getEventDetails()":"e2bb3ccf","getEventInfo()":"6d00fa68","getOwnerTicketsDetails(address)":"10409cb2","getRefundInfo(address)":"eb7b7006","getTicketDetails(uint256)":"24c14160","getTicketMetadata(uint256)":"ba0ae43c","getTicketsRemaining()":"da649e6b","getTokensByOwner(address)":"40398d67","isApprovedForAll(address,address)":"e985e9c5","isRefunded(uint256)":"55866c8d","isTicketUsed(uint256)":"2cd1d35c","maxSupply()":"d5abeb01","metadataUri()":"77a4d559","mintTicket()":"573c80fa","name()":"06fdde03","organizer()":"61203265","owner()":"8da5cb5b","ownerOf(uint256)":"6352211e","pauseEvent()":"b5e5f51b","refundDeadline()":"e1aa1bcc","refundedTicketCount(address)":"2c8cc6f7","refundsEnabled()":"532f1179","renounceOwnership()":"715018a6","resumeEvent()":"93d28635","royaltyInfo(uint256,uint256)":"2a55205a","royaltyPercent()":"9f67756d","safeTransferFrom(address,address,uint256)":"42842e0e","safeTransferFrom(address,address,uint256,bytes)":"b88d4fde","setApprovalForAll(address,bool)":"a22cb465","setEventOrganizerContract(address)":"25ff167e","setRoyaltyPercent(uint96)":"4bc46a82","supportsInterface(bytes4)":"01ffc9a7","symbol()":"95d89b41","ticketPrice()":"1209b1f6","tokenBuyerChain(uint256)":"55c85457","tokenByIndex(uint256)":"4f6ccce7","tokenOfOwnerByIndex(address,uint256)":"2f745c59","tokenOriginalBuyer(uint256)":"def3ad67","tokenPurchasePrice(uint256)":"9e408d4c","tokenURI(uint256)":"c87b56dd","totalRefundsClaimed()":"b963f8ca","totalSupply()":"18160ddd","transferFrom(address,address,uint256)":"23b872dd","transferOwnership(address)":"f2fde38b","updateEventDescription(string)":"c0af2346","updateEventImage(string)":"1feeaf74","updateEventName(string)":"05ccfd33","updateMetadataUri(string)":"870c8f26","useTicket(uint256)":"26606448","used(uint256)":"020fe6e5","venueAddress()":"69ba4f68","venueCoordinates()":"5e7bfd12","withdrawFunds()":"24600fc3"}}}}}