{"contracts/V2/EventTicketV2.sol":{"EventTicketV3":{"abi":[{"inputs":[{"internalType":"uint256","name":"_totalSupply","type":"uint256"},{"internalType":"uint256","name":"_ticketPrice","type":"uint256"},{"internalType":"string","name":"_nftName","type":"string"},{"internalType":"string","name":"_nftSymbol","type":"string"},{"internalType":"string","name":"_eventName","type":"string"},{"internalType":"uint256","name":"_eventDate","type":"uint256"},{"internalType":"string","name":"_eventVenue","type":"string"},{"internalType":"string","name":"_venueAddress","type":"string"},{"internalType":"string","name":"_venueCoordinates","type":"string"},{"internalType":"string","name":"_eventImageUri","type":"string"},{"internalType":"string","name":"_metadataUri","type":"string"},{"internalType":"address","name":"_eventOrganizerContract","type":"address"},{"internalType":"string","name":"_eventDescription","type":"string"}],"stateMutability":"nonpayable","type":"constructor"},{"inputs":[],"name":"AlreadyReportedFraud","type":"error"},{"inputs":[],"name":"CannotWithdrawWithPendingRefunds","type":"error"},{"inputs":[],"name":"ERC721EnumerableForbiddenBatchMint","type":"error"},{"inputs":[{"internalType":"address","name":"sender","type":"address"},{"internalType":"uint256","name":"tokenId","type":"uint256"},{"internalType":"address","name":"owner","type":"address"}],"name":"ERC721IncorrectOwner","type":"error"},{"inputs":[{"internalType":"address","name":"operator","type":"address"},{"internalType":"uint256","name":"tokenId","type":"uint256"}],"name":"ERC721InsufficientApproval","type":"error"},{"inputs":[{"internalType":"address","name":"approver","type":"address"}],"name":"ERC721InvalidApprover","type":"error"},{"inputs":[{"internalType":"address","name":"operator","type":"address"}],"name":"ERC721InvalidOperator","type":"error"},{"inputs":[{"internalType":"address","name":"owner","type":"address"}],"name":"ERC721InvalidOwner","type":"error"},{"inputs":[{"internalType":"address","name":"receiver","type":"address"}],"name":"ERC721InvalidReceiver","type":"error"},{"inputs":[{"internalType":"address","name":"sender","type":"address"}],"name":"ERC721InvalidSender","type":"error"},{"inputs":[{"internalType":"uint256","name":"tokenId","type":"uint256"}],"name":"ERC721NonexistentToken","type":"error"},{"inputs":[{"internalType":"address","name":"owner","type":"address"},{"internalType":"uint256","name":"index","type":"uint256"}],"name":"ERC721OutOfBoundsIndex","type":"error"},{"inputs":[],"name":"EmergencyRefundNotEnabled","type":"error"},{"inputs":[],"name":"EventIsCancelled","type":"error"},{"inputs":[],"name":"EventIsPaused","type":"error"},{"inputs":[],"name":"EventNotEnded","type":"error"},{"inputs":[],"name":"FundsAlreadyWithdrawn","type":"error"},{"inputs":[],"name":"FundsStillLocked","type":"error"},{"inputs":[],"name":"InsufficientBalance","type":"error"},{"inputs":[],"name":"InsufficientPayment","type":"error"},{"inputs":[],"name":"NoFundsToWithdraw","type":"error"},{"inputs":[],"name":"NoTicketsOwned","type":"error"},{"inputs":[],"name":"NoUnusedTickets","type":"error"},{"inputs":[],"name":"NotTokenOwner","type":"error"},{"inputs":[{"internalType":"address","name":"owner","type":"address"}],"name":"OwnableInvalidOwner","type":"error"},{"inputs":[{"internalType":"address","name":"account","type":"address"}],"name":"OwnableUnauthorizedAccount","type":"error"},{"inputs":[],"name":"RefundDeadlinePassed","type":"error"},{"inputs":[],"name":"RefundTransferFailed","type":"error"},{"inputs":[],"name":"RefundsAreEnabled","type":"error"},{"inputs":[],"name":"RefundsNotEnabled","type":"error"},{"inputs":[],"name":"SoldOut","type":"error"},{"inputs":[],"name":"TicketAlreadyRefunded","type":"error"},{"inputs":[],"name":"TicketAlreadyUsed","type":"error"},{"inputs":[],"name":"WithdrawalFailed","type":"error"},{"anonymous":false,"inputs":[{"indexed":true,"internalType":"address","name":"owner","type":"address"},{"indexed":true,"internalType":"address","name":"approved","type":"address"},{"indexed":true,"internalType":"uint256","name":"tokenId","type":"uint256"}],"name":"Approval","type":"event"},{"anonymous":false,"inputs":[{"indexed":true,"internalType":"address","name":"owner","type":"address"},{"indexed":true,"internalType":"address","name":"operator","type":"address"},{"indexed":false,"internalType":"bool","name":"approved","type":"bool"}],"name":"ApprovalForAll","type":"event"},{"anonymous":false,"inputs":[{"indexed":false,"internalType":"uint256","name":"timestamp","type":"uint256"},{"indexed":false,"internalType":"uint256","name":"reportCount","type":"uint256"}],"name":"EmergencyRefundActivated","type":"event"},{"anonymous":false,"inputs":[{"indexed":true,"internalType":"address","name":"user","type":"address"},{"indexed":false,"internalType":"uint256","name":"amount","type":"uint256"},{"indexed":false,"internalType":"uint256[]","name":"tokenIds","type":"uint256[]"}],"name":"EmergencyRefundClaimed","type":"event"},{"anonymous":false,"inputs":[{"indexed":false,"internalType":"uint256","name":"timestamp","type":"uint256"}],"name":"EventCancelled","type":"event"},{"anonymous":false,"inputs":[{"indexed":true,"internalType":"address","name":"eventOrganizer","type":"address"}],"name":"EventOrganizerSet","type":"event"},{"anonymous":false,"inputs":[{"indexed":false,"internalType":"uint256","name":"timestamp","type":"uint256"}],"name":"EventPaused","type":"event"},{"anonymous":false,"inputs":[{"indexed":false,"internalType":"uint256","name":"timestamp","type":"uint256"}],"name":"EventResumed","type":"event"},{"anonymous":false,"inputs":[{"indexed":true,"internalType":"address","name":"reporter","type":"address"},{"indexed":false,"internalType":"uint256","name":"reportCount","type":"uint256"},{"indexed":false,"internalType":"uint256","name":"threshold","type":"uint256"}],"name":"FraudReported","type":"event"},{"anonymous":false,"inputs":[{"indexed":true,"internalType":"address","name":"organizer","type":"address"},{"indexed":false,"internalType":"uint256","name":"amount","type":"uint256"}],"name":"FundsWithdrawn","type":"event"},{"anonymous":false,"inputs":[{"indexed":true,"internalType":"address","name":"previousOwner","type":"address"},{"indexed":true,"internalType":"address","name":"newOwner","type":"address"}],"name":"OwnershipTransferred","type":"event"},{"anonymous":false,"inputs":[{"indexed":true,"internalType":"address","name":"user","type":"address"},{"indexed":false,"internalType":"uint256","name":"amount","type":"uint256"},{"indexed":false,"internalType":"uint256","name":"ticketCount","type":"uint256"},{"indexed":false,"internalType":"uint256[]","name":"tokenIds","type":"uint256[]"}],"name":"PartialRefundClaimed","type":"event"},{"anonymous":false,"inputs":[{"indexed":true,"internalType":"address","name":"user","type":"address"},{"indexed":false,"internalType":"uint256","name":"amount","type":"uint256"},{"indexed":false,"internalType":"uint256[]","name":"tokenIds","type":"uint256[]"}],"name":"RefundClaimed","type":"event"},{"anonymous":false,"inputs":[{"indexed":true,"internalType":"address","name":"buyer","type":"address"},{"indexed":true,"internalType":"uint256","name":"tokenId","type":"uint256"},{"indexed":false,"internalType":"uint256","name":"price","type":"uint256"},{"indexed":false,"internalType":"string","name":"buyerChain","type":"string"}],"name":"TicketMinted","type":"event"},{"anonymous":false,"inputs":[{"indexed":true,"internalType":"address","name":"user","type":"address"},{"indexed":true,"internalType":"uint256","name":"tokenId","type":"uint256"},{"indexed":false,"internalType":"uint256","name":"timestamp","type":"uint256"}],"name":"TicketUsed","type":"event"},{"anonymous":false,"inputs":[{"indexed":true,"internalType":"address","name":"from","type":"address"},{"indexed":true,"internalType":"address","name":"to","type":"address"},{"indexed":true,"internalType":"uint256","name":"tokenId","type":"uint256"}],"name":"Transfer","type":"event"},{"inputs":[],"name":"FRAUD_THRESHOLD_PERCENT","outputs":[{"internalType":"uint256","name":"","type":"uint256"}],"stateMutability":"view","type":"function"},{"inputs":[],"name":"WITHDRAWAL_LOCK_PERIOD","outputs":[{"internalType":"uint256","name":"","type":"uint256"}],"stateMutability":"view","type":"function"},{"inputs":[{"internalType":"address","name":"to","type":"address"},{"internalType":"uint256","name":"tokenId","type":"uint256"}],"name":"approve","outputs":[],"stateMutability":"nonpayable","type":"function"},{"inputs":[{"internalType":"address","name":"owner","type":"address"}],"name":"balanceOf","outputs":[{"internalType":"uint256","name":"","type":"uint256"}],"stateMutability":"view","type":"function"},{"inputs":[],"name":"cancelEvent","outputs":[],"stateMutability":"nonpayable","type":"function"},{"inputs":[],"name":"claimEmergencyRefund","outputs":[],"stateMutability":"nonpayable","type":"function"},{"inputs":[],"name":"claimRefund","outputs":[],"stateMutability":"nonpayable","type":"function"},{"inputs":[],"name":"contentHash","outputs":[{"internalType":"string","name":"","type":"string"}],"stateMutability":"view","type":"function"},{"inputs":[],"name":"emergencyRefundEnabled","outputs":[{"internalType":"bool","name":"","type":"bool"}],"stateMutability":"view","type":"function"},{"inputs":[],"name":"eventCancelled","outputs":[{"internalType":"bool","name":"","type":"bool"}],"stateMutability":"view","type":"function"},{"inputs":[],"name":"eventDate","outputs":[{"internalType":"uint256","name":"","type":"uint256"}],"stateMutability":"view","type":"function"},{"inputs":[],"name":"eventDescription","outputs":[{"internalType":"string","name":"","type":"string"}],"stateMutability":"view","type":"function"},{"inputs":[],"name":"eventId","outputs":[{"internalType":"uint256","name":"","type":"uint256"}],"stateMutability":"view","type":"function"},{"inputs":[],"name":"eventImageUri","outputs":[{"internalType":"string","name":"","type":"string"}],"stateMutability":"view","type":"function"},{"inputs":[],"name":"eventName","outputs":[{"internalType":"string","name":"","type":"string"}],"stateMutability":"view","type":"function"},{"inputs":[],"name":"eventOrganizerContract","outputs":[{"internalType":"address","name":"","type":"address"}],"stateMutability":"view","type":"function"},{"inputs":[],"name":"eventPaused","outputs":[{"internalType":"bool","name":"","type":"bool"}],"stateMutability":"view","type":"function"},{"inputs":[],"name":"eventVenue","outputs":[{"internalType":"string","name":"","type":"string"}],"stateMutability":"view","type":"function"},{"inputs":[],"name":"fraudReportCount","outputs":[{"internalType":"uint256","name":"","type":"uint256"}],"stateMutability":"view","type":"function"},{"inputs":[],"name":"fundsUnlockTime","outputs":[{"internalType":"uint256","name":"","type":"uint256"}],"stateMutability":"view","type":"function"},{"inputs":[],"name":"fundsWithdrawn","outputs":[{"internalType":"bool","name":"","type":"bool"}],"stateMutability":"view","type":"function"},{"inputs":[{"internalType":"uint256","name":"tokenId","type":"uint256"}],"name":"getApproved","outputs":[{"internalType":"address","name":"","type":"address"}],"stateMutability":"view","type":"function"},{"inputs":[],"name":"getEventDetails","outputs":[{"internalType":"string","name":"name","type":"string"},{"internalType":"uint256","name":"date","type":"uint256"},{"internalType":"string","name":"venue","type":"string"},{"internalType":"string","name":"vAddress","type":"string"},{"internalType":"string","name":"coordinates","type":"string"},{"internalType":"string","name":"imageUri","type":"string"},{"internalType":"uint256","name":"supply","type":"uint256"},{"internalType":"uint256","name":"price","type":"uint256"},{"internalType":"uint256","name":"sold","type":"uint256"},{"internalType":"uint256","name":"remaining","type":"uint256"},{"internalType":"bool","name":"cancelled","type":"bool"},{"internalType":"bool","name":"paused","type":"bool"},{"internalType":"uint8","name":"status","type":"uint8"},{"internalType":"address","name":"org","type":"address"},{"internalType":"string","name":"description","type":"string"}],"stateMutability":"view","type":"function"},{"inputs":[],"name":"getEventInfo","outputs":[{"internalType":"string","name":"name","type":"string"},{"internalType":"uint256","name":"date","type":"uint256"},{"internalType":"string","name":"venue","type":"string"},{"internalType":"uint256","name":"price","type":"uint256"},{"internalType":"uint256","name":"remaining","type":"uint256"},{"internalType":"bool","name":"cancelled","type":"bool"},{"internalType":"bool","name":"paused","type":"bool"}],"stateMutability":"view","type":"function"},{"inputs":[],"name":"getFraudProtectionInfo","outputs":[{"internalType":"uint256","name":"reportCount","type":"uint256"},{"internalType":"uint256","name":"threshold","type":"uint256"},{"internalType":"bool","name":"emergencyActive","type":"bool"},{"internalType":"uint256","name":"fundsUnlock","type":"uint256"},{"internalType":"bool","name":"canWithdraw","type":"bool"}],"stateMutability":"view","type":"function"},{"inputs":[{"internalType":"address","name":"owner","type":"address"}],"name":"getOwnerTicketsDetails","outputs":[{"internalType":"uint256[]","name":"tokenIds","type":"uint256[]"},{"internalType":"bool[]","name":"isUsed","type":"bool[]"}],"stateMutability":"view","type":"function"},{"inputs":[{"internalType":"address","name":"user","type":"address"}],"name":"getRefundInfo","outputs":[{"internalType":"bool","name":"canClaim","type":"bool"},{"internalType":"uint256","name":"unusedTicketCount","type":"uint256"},{"internalType":"uint256","name":"usedTicketCount","type":"uint256"},{"internalType":"uint256","name":"refundAmount","type":"uint256"}],"stateMutability":"view","type":"function"},{"inputs":[{"internalType":"uint256","name":"tokenId","type":"uint256"}],"name":"getTicketDetails","outputs":[{"internalType":"address","name":"owner","type":"address"},{"internalType":"bool","name":"isUsed","type":"bool"},{"internalType":"string","name":"eName","type":"string"},{"internalType":"uint256","name":"eDate","type":"uint256"},{"internalType":"string","name":"eVenue","type":"string"},{"internalType":"string","name":"eImage","type":"string"},{"internalType":"uint8","name":"status","type":"uint8"}],"stateMutability":"view","type":"function"},{"inputs":[{"internalType":"uint256","name":"tokenId","type":"uint256"}],"name":"getTicketMetadata","outputs":[{"internalType":"address","name":"owner","type":"address"},{"internalType":"address","name":"originalBuyer","type":"address"},{"internalType":"uint256","name":"purchasePrice","type":"uint256"},{"internalType":"string","name":"buyerChain","type":"string"},{"internalType":"bool","name":"isUsed","type":"bool"}],"stateMutability":"view","type":"function"},{"inputs":[],"name":"getTicketsRemaining","outputs":[{"internalType":"uint256","name":"","type":"uint256"}],"stateMutability":"view","type":"function"},{"inputs":[{"internalType":"address","name":"owner","type":"address"}],"name":"getTokensByOwner","outputs":[{"internalType":"uint256[]","name":"","type":"uint256[]"}],"stateMutability":"view","type":"function"},{"inputs":[{"internalType":"address","name":"","type":"address"}],"name":"hasReportedFraud","outputs":[{"internalType":"bool","name":"","type":"bool"}],"stateMutability":"view","type":"function"},{"inputs":[{"internalType":"address","name":"owner","type":"address"},{"internalType":"address","name":"operator","type":"address"}],"name":"isApprovedForAll","outputs":[{"internalType":"bool","name":"","type":"bool"}],"stateMutability":"view","type":"function"},{"inputs":[{"internalType":"uint256","name":"","type":"uint256"}],"name":"isRefunded","outputs":[{"internalType":"bool","name":"","type":"bool"}],"stateMutability":"view","type":"function"},{"inputs":[{"internalType":"uint256","name":"tokenId","type":"uint256"}],"name":"isTicketUsed","outputs":[{"internalType":"bool","name":"","type":"bool"}],"stateMutability":"view","type":"function"},{"inputs":[],"name":"maxSupply","outputs":[{"internalType":"uint256","name":"","type":"uint256"}],"stateMutability":"view","type":"function"},{"inputs":[],"name":"metadataUri","outputs":[{"internalType":"string","name":"","type":"string"}],"stateMutability":"view","type":"function"},{"inputs":[],"name":"mintTicket","outputs":[{"internalType":"uint256","name":"","type":"uint256"}],"stateMutability":"payable","type":"function"},{"inputs":[],"name":"name","outputs":[{"internalType":"string","name":"","type":"string"}],"stateMutability":"view","type":"function"},{"inputs":[],"name":"organizer","outputs":[{"internalType":"address","name":"","type":"address"}],"stateMutability":"view","type":"function"},{"inputs":[],"name":"owner","outputs":[{"internalType":"address","name":"","type":"address"}],"stateMutability":"view","type":"function"},{"inputs":[{"internalType":"uint256","name":"tokenId","type":"uint256"}],"name":"ownerOf","outputs":[{"internalType":"address","name":"","type":"address"}],"stateMutability":"view","type":"function"},{"inputs":[],"name":"pauseEvent","outputs":[],"stateMutability":"nonpayable","type":"function"},{"inputs":[],"name":"refundDeadline","outputs":[{"internalType":"uint256","name":"","type":"uint256"}],"stateMutability":"view","type":"function"},{"inputs":[{"internalType":"address","name":"","type":"address"}],"name":"refundedTicketCount","outputs":[{"internalType":"uint256","name":"","type":"uint256"}],"stateMutability":"view","type":"function"},{"inputs":[],"name":"refundsEnabled","outputs":[{"internalType":"bool","name":"","type":"bool"}],"stateMutability":"view","type":"function"},{"inputs":[],"name":"renounceOwnership","outputs":[],"stateMutability":"nonpayable","type":"function"},{"inputs":[],"name":"reportFraud","outputs":[],"stateMutability":"nonpayable","type":"function"},{"inputs":[],"name":"resumeEvent","outputs":[],"stateMutability":"nonpayable","type":"function"},{"inputs":[{"internalType":"uint256","name":"","type":"uint256"},{"internalType":"uint256","name":"salePrice","type":"uint256"}],"name":"royaltyInfo","outputs":[{"internalType":"address","name":"receiver","type":"address"},{"internalType":"uint256","name":"royaltyAmount","type":"uint256"}],"stateMutability":"view","type":"function"},{"inputs":[],"name":"royaltyPercent","outputs":[{"internalType":"uint96","name":"","type":"uint96"}],"stateMutability":"view","type":"function"},{"inputs":[{"internalType":"address","name":"from","type":"address"},{"internalType":"address","name":"to","type":"address"},{"internalType":"uint256","name":"tokenId","type":"uint256"}],"name":"safeTransferFrom","outputs":[],"stateMutability":"nonpayable","type":"function"},{"inputs":[{"internalType":"address","name":"from","type":"address"},{"internalType":"address","name":"to","type":"address"},{"internalType":"uint256","name":"tokenId","type":"uint256"},{"internalType":"bytes","name":"data","type":"bytes"}],"name":"safeTransferFrom","outputs":[],"stateMutability":"nonpayable","type":"function"},{"inputs":[{"internalType":"address","name":"operator","type":"address"},{"internalType":"bool","name":"approved","type":"bool"}],"name":"setApprovalForAll","outputs":[],"stateMutability":"nonpayable","type":"function"},{"inputs":[{"internalType":"address","name":"_eventOrganizer","type":"address"}],"name":"setEventOrganizerContract","outputs":[],"stateMutability":"nonpayable","type":"function"},{"inputs":[{"internalType":"uint96","name":"newPercent","type":"uint96"}],"name":"setRoyaltyPercent","outputs":[],"stateMutability":"nonpayable","type":"function"},{"inputs":[{"internalType":"bytes4","name":"interfaceId","type":"bytes4"}],"name":"supportsInterface","outputs":[{"internalType":"bool","name":"","type":"bool"}],"stateMutability":"view","type":"function"},{"inputs":[],"name":"symbol","outputs":[{"internalType":"string","name":"","type":"string"}],"stateMutability":"view","type":"function"},{"inputs":[],"name":"ticketPrice","outputs":[{"internalType":"uint256","name":"","type":"uint256"}],"stateMutability":"view","type":"function"},{"inputs":[{"internalType":"uint256","name":"","type":"uint256"}],"name":"tokenBuyerChain","outputs":[{"internalType":"string","name":"","type":"string"}],"stateMutability":"view","type":"function"},{"inputs":[{"internalType":"uint256","name":"index","type":"uint256"}],"name":"tokenByIndex","outputs":[{"internalType":"uint256","name":"","type":"uint256"}],"stateMutability":"view","type":"function"},{"inputs":[{"internalType":"address","name":"owner","type":"address"},{"internalType":"uint256","name":"index","type":"uint256"}],"name":"tokenOfOwnerByIndex","outputs":[{"internalType":"uint256","name":"","type":"uint256"}],"stateMutability":"view","type":"function"},{"inputs":[{"internalType":"uint256","name":"","type":"uint256"}],"name":"tokenOriginalBuyer","outputs":[{"internalType":"address","name":"","type":"address"}],"stateMutability":"view","type":"function"},{"inputs":[{"internalType":"uint256","name":"","type":"uint256"}],"name":"tokenPurchasePrice","outputs":[{"internalType":"uint256","name":"","type":"uint256"}],"stateMutability":"view","type":"function"},{"inputs":[{"internalType":"uint256","name":"tokenId","type":"uint256"}],"name":"tokenURI","outputs":[{"internalType":"string","name":"","type":"string"}],"stateMutability":"view","type":"function"},{"inputs":[],"name":"totalRefundsClaimed","outputs":[{"internalType":"uint256","name":"","type":"uint256"}],"stateMutability":"view","type":"function"},{"inputs":[],"name":"totalSupply","outputs":[{"internalType":"uint256","name":"","type":"uint256"}],"stateMutability":"view","type":"function"},{"inputs":[{"internalType":"address","name":"from","type":"address"},{"internalType":"address","name":"to","type":"address"},{"internalType":"uint256","name":"tokenId","type":"uint256"}],"name":"transferFrom","outputs":[],"stateMutability":"nonpayable","type":"function"},{"inputs":[{"internalType":"address","name":"newOwner","type":"address"}],"name":"transferOwnership","outputs":[],"stateMutability":"nonpayable","type":"function"},{"inputs":[{"internalType":"string","name":"newDescription","type":"string"}],"name":"updateEventDescription","outputs":[],"stateMutability":"nonpayable","type":"function"},{"inputs":[{"internalType":"string","name":"newImageUri","type":"string"}],"name":"updateEventImage","outputs":[],"stateMutability":"nonpayable","type":"function"},{"inputs":[{"internalType":"string","name":"newName","type":"string"}],"name":"updateEventName","outputs":[],"stateMutability":"nonpayable","type":"function"},{"inputs":[{"internalType":"string","name":"newUri","type":"string"}],"name":"updateMetadataUri","outputs":[],"stateMutability":"nonpayable","type":"function"},{"inputs":[{"internalType":"uint256","name":"tokenId","type":"uint256"}],"name":"useTicket","outputs":[],"stateMutability":"nonpayable","type":"function"},{"inputs":[{"internalType":"uint256","name":"","type":"uint256"}],"name":"used","outputs":[{"internalType":"bool","name":"","type":"bool"}],"stateMutability":"view","type":"function"},{"inputs":[],"name":"venueAddress","outputs":[{"internalType":"string","name":"","type":"string"}],"stateMutability":"view","type":"function"},{"inputs":[],"name":"venueCoordinates","outputs":[{"internalType":"string","name":"","type":"string"}],"stateMutability":"view","type":"function"},{"inputs":[],"name":"withdrawFunds","outputs":[],"stateMutability":"nonpayable","type":"function"}],"evm":{"bytecode":{"linkReferences":{},"object":"6080604081815234620006c2576200625b803803809162000021828662001191565b84398201916101a081840312620006c25780516020820151838301516001600160401b038111620006c257856200005a918501620011da565b60608401519092906001600160401b038111620006c257866200007f918601620011da565b60808501519092906001600160401b038111620006c25787620000a4918701620011da565b60a086015160c08701519095906001600160401b038111620006c25789620000ce918901620011da565b60e08801519092906001600160401b038111620006c2578a620000f3918a01620011da565b6101008901519094906001600160401b038111620006c2578b62000119918b01620011da565b6101208a01519096906001600160401b038111620006c2578c6200013f918c01620011da565b6101408b01519098906001600160401b038111620006c2578d62000165918d01620011da565b6101608c01519d909b906001600160a01b038f168f9003620006c2576101808201516001600160401b038111620006c257620001a29201620011da565b855190956001600160401b038211620008995760005490600182811c9216801562001186575b6020831014620008785781601f84931162001126575b50602090601f8311600114620010aa576000926200109e575b50508160011b916000199060031b1c1916176000555b8051906001600160401b038211620008995760015490600182811c9216801562001093575b6020831014620008785781601f84931162001032575b50602090601f831160011462000fb85760009262000fac575b50508160011b916000199060031b1c1916176001555b331562000f9457600a8054336001600160a01b0319821681179092556001600160a01b03167f8be0079c531659141344cd1fd0a4f28419497f9722a3daafe3b4186f6b6457e0600080a36015556016558051906001600160401b0382116200089957600f5490600182811c9216801562000f89575b6020831014620008785781601f84931162000f28575b50602090601f831160011462000eaa5760009262000e9e575b50508160011b916000199060031b1c191617600f555b8051906001600160401b038211620008995760195490600182811c9216801562000e93575b6020831014620008785781601f84931162000e21575b50602090601f831160011462000d925760009262000d86575b50508160011b916000199060031b1c1916176019555b60108590558051906001600160401b038211620008995760115490600182811c9216801562000d7b575b6020831014620008785781601f84931162000d1a575b50602090601f831160011462000c9c5760009262000c90575b50508160011b916000199060031b1c1916176011555b8051906001600160401b038211620008995760125490600182811c9216801562000c85575b6020831014620008785781601f84931162000c21575b50602090601f831160011462000ba35760009262000b97575b50508160011b916000199060031b1c1916176012555b8051906001600160401b038211620008995760135490600182811c9216801562000b8c575b6020831014620008785781601f84931162000b28575b50602090601f831160011462000aae5760009262000aa2575b50508160011b916000199060031b1c1916176013555b8051906001600160401b038211620008995760145490600182811c9216801562000a97575b6020831014620008785781601f84931162000a33575b50602090601f8311600114620009b957600092620009ad575b50508160011b916000199060031b1c1916176014555b81516001600160401b0381116200089957601a54600181811c91168015620009a2575b60208210146200087857601f811162000949575b50806020601f8211600114620008d157600091620008c5575b508160011b916000199060031b1c191617601a555b6000600c55600d80546001600160a01b03199081163317909155600b80549091166001600160a01b038616179055601c80546001600160601b03191660fa17905562278d008101808211620008af576018556203f4808101809111620008af5760265580519081620006d0575b50909190506001600160a01b0381166200063e575b5051614f059081620012368239f35b8151630dfdd32960e11b81523060048201523360248201526000604482018190529091602091839160649183916001600160a01b03165af16000918162000691575b50156200062f57600c55386200062f565b9091506020813d602011620006c7575b81620006b06020938362001191565b81010312620006c25751903862000680565b600080fd5b3d9150620006a1565b90620006fe6020809383620006f0875195869385850198899101620011b5565b810103808452018262001191565b5190208151602080820192909252908152918282016001600160401b038111848210176200089957825282516001600160401b0381116200089957601b54600181811c911680156200088e575b60208210146200087857601f81116200081f575b506020601f8211600114620007a657819293946000926200079a575b50508160011b916000199060031b1c191617601b555b9038806200061a565b0151905038806200077b565b601b60009081526000805160206200619b8339815191529190601f198416905b8181106200080657509583600195969710620007ec575b505050811b01601b5562000791565b015160001960f88460031b161c19169055388080620007dd565b9192602060018192868b015181550194019201620007c6565b601b6000526000805160206200619b833981519152601f830160051c810191602084106200086d575b601f0160051c01905b8181106200086057506200075f565b6000815560010162000851565b909150819062000848565b634e487b7160e01b600052602260045260246000fd5b90607f16906200074b565b634e487b7160e01b600052604160045260246000fd5b634e487b7160e01b600052601160045260246000fd5b90508301513862000598565b601a6000908152600080516020620061db8339815191529250601f198416905b818110620009305750908360019493921062000916575b5050811b01601a55620005ad565b85015160001960f88460031b161c19169055388062000908565b9192602060018192868a015181550194019201620008f1565b601a600052600080516020620061db833981519152601f830160051c8101916020841062000997575b601f0160051c01905b8181106200098a57506200057f565b600081556001016200097b565b909150819062000972565b90607f16906200056b565b01519050388062000532565b601460009081526000805160206200621b8339815191529350601f198516905b81811062000a1a575090846001959493921062000a00575b505050811b0160145562000548565b015160001960f88460031b161c19169055388080620009f1565b92936020600181928786015181550195019301620009d9565b60146000529091506000805160206200621b833981519152601f840160051c8101916020851062000a8c575b90601f859493920160051c01905b81811062000a7c575062000519565b6000815584935060010162000a6d565b909150819062000a5f565b91607f169162000503565b015190503880620004c8565b60136000908152600080516020620061bb8339815191529350601f198516905b81811062000b0f575090846001959493921062000af5575b505050811b01601355620004de565b015160001960f88460031b161c1916905538808062000ae6565b9293602060018192878601518155019501930162000ace565b6013600052909150600080516020620061bb833981519152601f840160051c8101916020851062000b81575b90601f859493920160051c01905b81811062000b715750620004af565b6000815584935060010162000b62565b909150819062000b54565b91607f169162000499565b0151905038806200045e565b6012600090815293506000805160206200613b83398151915291905b601f198416851062000c05576001945083601f1981161062000beb575b505050811b0160125562000474565b015160001960f88460031b161c1916905538808062000bdc565b8181015183556020948501946001909301929091019062000bbf565b60126000529091506000805160206200613b833981519152601f840160051c8101916020851062000c7a575b90601f859493920160051c01905b81811062000c6a575062000445565b6000815584935060010162000c5b565b909150819062000c4d565b91607f16916200042f565b015190503880620003f4565b6011600090815293506000805160206200615b83398151915291905b601f198416851062000cfe576001945083601f1981161062000ce4575b505050811b016011556200040a565b015160001960f88460031b161c1916905538808062000cd5565b8181015183556020948501946001909301929091019062000cb8565b60116000529091506000805160206200615b833981519152601f840160051c81016020851062000d73575b90849392915b601f830160051c8201811062000d63575050620003db565b6000815585945060010162000d4b565b508062000d45565b91607f1691620003c5565b01519050388062000385565b6019600090815293507f944998273e477b495144fb8794c914197f3ccb46be2900f4698fd0ef743c969591905b601f198416851062000e05576001945083601f1981161062000deb575b505050811b016019556200039b565b015160001960f88460031b161c1916905538808062000ddc565b8181015183556020948501946001909301929091019062000dbf565b60196000529091507f944998273e477b495144fb8794c914197f3ccb46be2900f4698fd0ef743c9695601f840160051c81016020851062000e8b575b90849392915b601f830160051c8201811062000e7b5750506200036c565b6000815585945060010162000e63565b508062000e5d565b91607f169162000356565b0151905038806200031b565b600f600090815293506000805160206200623b83398151915291905b601f198416851062000f0c576001945083601f1981161062000ef2575b505050811b01600f5562000331565b015160001960f88460031b161c1916905538808062000ee3565b8181015183556020948501946001909301929091019062000ec6565b600f6000529091506000805160206200623b833981519152601f840160051c81016020851062000f81575b90849392915b601f830160051c8201811062000f7157505062000302565b6000815585945060010162000f59565b508062000f53565b91607f1691620002ec565b8a51631e4fbdf760e01b815260006004820152602490fd5b01519050388062000261565b60016000908152600080516020620061fb8339815191529350601f198516905b81811062001019575090846001959493921062000fff575b505050811b0160015562000277565b015160001960f88460031b161c1916905538808062000ff0565b9293602060018192878601518155019501930162000fd8565b6001600052909150600080516020620061fb833981519152601f840160051c8101602085106200108b575b90849392915b601f830160051c820181106200107b57505062000248565b6000815585945060010162001063565b50806200105d565b91607f169162000232565b015190503880620001f7565b600080805293506000805160206200617b83398151915291905b601f19841685106200110a576001945083601f19811610620010f0575b505050811b016000556200020d565b015160001960f88460031b161c19169055388080620010e1565b81810151835560209485019460019093019290910190620010c4565b600080529091506000805160206200617b833981519152601f840160051c8101602085106200117e575b90849392915b601f830160051c820181106200116e575050620001de565b6000815585945060010162001156565b508062001150565b91607f1691620001c8565b601f909101601f19168101906001600160401b038211908210176200089957604052565b60005b838110620011c95750506000910152565b8181015183820152602001620011b8565b81601f82011215620006c25780516001600160401b03811162000899576040519262001211601f8301601f19166020018562001191565b81845260208284010111620006c257620012329160208085019101620011b5565b9056fe6080604052600436101561001257600080fd5b60003560e01c806301ffc9a7146104f7578063020fe6e5146104f257806305ccfd33146104ed57806306fdde03146104e8578063081812fc146104e3578063089cdd0c146104de578063095ea7b3146104d95780630beb11b7146104d457806310409cb2146104cf578063105fd61f146104ca5780631209b1f6146104c557806318160ddd146104c05780631feeaf74146104bb57806323b872dd146104b657806324600fc3146104b157806324c14160146104ac57806325ff167e146104a757806326606448146104a25780632a55205a1461049d5780632c8cc6f7146104985780632cd1d35c146104935780632f745c591461048e57806340398d671461048957806342842e0e146104845780634bc46a821461047f5780634bfbe5df1461047a5780634f6ccce714610475578063532f11791461047057806355866c8d1461046b57806355c8545714610466578063573c80fa146104615780635e7bfd121461045c578063612032651461045757806361d73adb146104525780636352211e1461044d578063646c2e3314610448578063649fa01f14610443578063684e78dd1461043e57806369ae3dfa1461043957806369ba4f68146104345780636c1557691461042f5780636d00fa681461042a57806370a0823114610425578063715018a61461042057806377a4d5591461041b5780638043c9c014610416578063870c8f26146104115780638da5cb5b1461040c5780638e61f85f1461040757806393d28635146104025780639434571b146103fd57806395d89b41146103f85780639c378d80146103f35780639e408d4c146103ee5780639f67756d146103e9578063a22cb465146103e4578063a73abbc2146103df578063ac307fcf146103da578063b40f2989146103d5578063b5545a3c146103d0578063b5e5f51b146103cb578063b88d4fde146103c6578063b963f8ca146103c1578063ba0ae43c146103bc578063c0af2346146103b7578063c87b56dd146103b2578063d5abeb01146103ad578063da649e6b146103a8578063def3ad67146103a3578063e18b057d1461039e578063e1a494d114610399578063e1aa1bcc14610394578063e22bda351461038f578063e2bb3ccf1461038a578063e985e9c514610385578063eb7b700614610380578063f2fde38b1461037b5763fb6c95371461037657600080fd5b6133f3565b61336a565b61332d565b6132d0565b61320a565b613110565b6130f2565b6130cf565b613090565b61305c565b613031565b613013565b612ff4565b612ef6565b612e67565b612e0c565b612da7565b612cf3565b612ae4565b612abe565b612a9b565b612a7d565b6129c0565b612999565b61296e565b612804565b61275d565b6126c1565b612613565b6125f5565b6125cc565b61246a565b612446565b6123aa565b61234c565b612329565b612213565b6121a4565b6120f6565b6120d8565b6120b4565b612098565b611fb3565b611f83565b611ed4565b611eab565b611e87565b611cba565b611c69565b6116ee565b6116cb565b61165b565b61163d565b6115a0565b61156c565b611502565b6114d3565b61147f565b611445565b6113f2565b611311565b61128e565b6111b2565b610fd2565b610fbb565b610e88565b610e6a565b610e4c565b610c51565b610b92565b610ae6565b6109e7565b61099d565b61095f565b610878565b6106fb565b6105b5565b610513565b6001600160e01b031981160361050e57565b600080fd5b3461050e57602036600319011261050e576020600435610532816104fc565b63ffffffff60e01b1663152a902d60e11b8114908115610558575b506040519015158152f35b63780e9d6360e01b811491508115610572575b503861054d565b6380ac58cd60e01b8114915081156105a4575b8115610593575b503861056b565b6301ffc9a760e01b1490503861058c565b635b5e139f60e01b81149150610585565b3461050e57602036600319011261050e57600435600052601d602052602060ff604060002054166040519015158152f35b634e487b7160e01b600052604160045260246000fd5b6001600160401b03811161060f57604052565b6105e6565b602081019081106001600160401b0382111761060f57604052565b604081019081106001600160401b0382111761060f57604052565b90601f801991011681019081106001600160401b0382111761060f57604052565b6001600160401b03811161060f57601f01601f191660200190565b9291926106928261066b565b916106a0604051938461064a565b82948184528183011161050e578281602093846000960137010152565b602060031982011261050e57600435906001600160401b03821161050e578060238301121561050e578160246106f893600401359101610686565b90565b3461050e57610709366106bd565b600d5461072b90336001600160a01b0391821614908115610806575b506134b8565b80516001600160401b03811161060f5761074f8161074a600f5461171f565b613504565b602080601f83116001146107915750819061078193600092610786575b50508160011b916000199060031b1c19161790565b600f55005b01519050388061076c565b90601f198316936107b2600f600052600080516020614e9083398151915290565b926000905b8682106107ee57505083600195106107d5575b505050811b01600f55005b015160001960f88460031b161c191690553880806107ca565b806001859682949686015181550195019301906107b7565b9050600a5416331438610725565b600091031261050e57565b60005b8381106108325750506000910152565b8181015183820152602001610822565b9060209161085b8151809281855285808601910161081f565b601f01601f1916010190565b9060206106f8928181520190610842565b3461050e5760008060031936011261095c57604051908080549061089b8261171f565b8085529160209160019182811690811561092f57506001146108d8575b6108d4866108c88188038261064a565b60405191829182610867565b0390f35b80809550527f290decd9548b62a8d60345a988386fc84ba6bc95484008f6362f93160ef3e5635b83851061091c575050505081016020016108c8826108d4386108b8565b80548686018401529382019381016108ff565b90508695506108d4969350602092506108c894915060ff191682840152151560051b8201019293386108b8565b80fd5b3461050e57602036600319011261050e5760043561097c816143d3565b506000526004602052602060018060a01b0360406000205416604051908152f35b3461050e57600036600319011261050e576020600c54604051908152f35b600435906001600160a01b038216820361050e57565b602435906001600160a01b038216820361050e57565b3461050e57604036600319011261050e57610a006109bb565b60243590610a0d826143d3565b33151580610ad3575b80610aa5575b610a8d57610a8b92610a6c9181906001600160a01b0385811691167f8c5be1e5ebec7d5bd14f71427d1e84f3dd0314c0f7b2291e5b200ac8c7c3b925600080a46000526004602052604060002090565b80546001600160a01b0319166001600160a01b03909216919091179055565b005b60405163a9fbf51f60e01b8152336004820152602490fd5b506001600160a01b038116600090815260056020908152604080832033845290915290205460ff1615610a1c565b506001600160a01b038116331415610a16565b3461050e57600036600319011261050e57600b546040516001600160a01b039091168152602090f35b90815180825260208080930193019160005b828110610b2f575050505090565b835185529381019392810192600101610b21565b90610b5690604083526040830190610b0f565b81810360209283015282518082529082019282019160005b828110610b7c575050505090565b8351151585529381019392810192600101610b6e565b3461050e5760208060031936011261050e57610bac6109bb565b90610bb682613ca3565b610bbf81613910565b91610bc9826138f9565b93604091610bda604051968761064a565b838652601f19610be9856138f9565b0136602088013760009160005b858110610c0c57604051806108d48a8a83610b43565b80610c1960019284613c1f565b610c23828a613958565b52610c2e8189613958565b518552601d845260ff8686205416610c46828b613958565b901515905201610bf6565b3461050e5760008060031936011261095c57610c76610c7260275460ff1690565b1590565b610e3a57610c8333613ca3565b8015610e2857610c9281613910565b8291835b818110610dd05750508115610dbe57610cb1601654836139c4565b91824710610dac57610cc281613910565b91845b828110610d60575050336000908152602260205260409020610ce990918254613a03565b9055610cff610cfa83602454613a03565b602455565b8280808085335af1610d0f613a23565b5015610d4e57610d487fe81669fa6bec5188de8d647e0a936a79ec4eb1456eaf01e8d7f7929a7b51951991604051918291339583613a53565b0390a280f35b60405163cbe4e8c360e01b8152600490fd5b80610da6610d7060019385613958565b51610d95610d88826000526023602052604060002090565b805460ff19166001179055565b80610da08489613958565b5261440e565b01610cc5565b604051631e9acf1760e31b8152600490fd5b604051637dc40a7960e11b8152600490fd5b610dda8133613c1f565b610dfb610c72610df4836000526023602052604060002090565b5460ff1690565b610e09575b50600101610c96565b84610e2191610e1b6001949787613958565b52613987565b9390610e00565b60405163a39a279f60e01b8152600490fd5b60405163c1c379b160e01b8152600490fd5b3461050e57600036600319011261050e576020601654604051908152f35b3461050e57600036600319011261050e576020600854604051908152f35b3461050e57610e96366106bd565b600d54610eb790336001600160a01b039182161490811561080657506134b8565b80516001600160401b03811161060f57610edb81610ed660145461171f565b613564565b602080601f8311600114610f1157508190610f0c936000926107865750508160011b916000199060031b1c19161790565b601455005b90601f19831693610f326014600052600080516020614e7083398151915290565b926000905b868210610f6e5750508360019510610f55575b505050811b01601455005b015160001960f88460031b161c19169055388080610f4a565b80600185968294968601518155019501930190610f37565b606090600319011261050e576001600160a01b0390600435828116810361050e5791602435908116810361050e579060443590565b3461050e57610a8b610fcc36610f86565b91613a6a565b3461050e5760008060031936011261095c57600d5461100590336001600160a01b039182161490811561080657506134b8565b60255460ff1661113f5760105442111561112d57602654421061111b5760275460ff166110fd5760215460ff168061110f575b6110fd574780156110eb57611055600160ff196025541617602555565b818080808461107d611071611071600d5460018060a01b031690565b6001600160a01b031690565b5af1611087613a23565b50156110d957600d547feaff4b37086828766ad3268786972c0cd24259d4c87a80f9d3963a3c3d999b0d90610d48906110c8906001600160a01b0316611071565b604051938452929081906020820190565b6040516327fcd9d160e01b8152600490fd5b6040516367e3990d60e01b8152600490fd5b604051630c8470bd60e41b8152600490fd5b50601854421115611038565b604051636fc48ba160e11b8152600490fd5b60405163fb141a0d60e01b8152600490fd5b604051633f72752760e21b8152600490fd5b95919360c09561118a6111ab9560ff9761119d959c9b9c60018060a01b03168b52151560208b015260e060408b015260e08a0190610842565b9160608901528782036080890152610842565b9085820360a0870152610842565b9416910152565b3461050e57602036600319011261050e5760043560008181526002602052604090206111fb906001600160a01b03906111f3905b546001600160a01b031690565b161515613bdc565b600061120960175460ff1690565b1561126157506003905b6108d4611236610df4611225846143d3565b93600052601d602052604060002090565b92601054611242611ab7565b9061124b611ad1565b90611254611ae2565b9260405197889788611151565b600e54601554116112755750600190611213565b6010544211156112885750600290611213565b90611213565b3461050e57602036600319011261050e576112a76109bb565b600d546001600160a01b039190821633148015611304575b6112c8906134b8565b16806001600160601b0360a01b600b541617600b557ffc6a300fd572a7ad998e6f2e11421513f73c2e920602d23090ae226909308908600080a2005b50600a54821633146112bf565b3461050e57602036600319011261050e5760043561132e816143d3565b336001600160a01b03909116036113e057611356610df482600052601d602052604060002090565b6113ce576113656010546139d7565b421161112d5760175460ff166113bc5761138c610d8882600052601d602052604060002090565b60405142815233907faa5eb4d6707e5715467e6d9ceb94a60d0ddfadff0bb1d854a226f3459485dc9090602090a3005b60405163349bd75960e21b8152600490fd5b604051630869773360e41b8152600490fd5b6040516359dc379f60e01b8152600490fd5b3461050e57604036600319011261050e5760018060a01b03600d54166127106114286001600160601b03601c54166024356139c4565b604080516001600160a01b03949094168452919004602083015290f35b3461050e57602036600319011261050e576001600160a01b036114666109bb565b1660005260226020526020604060002054604051908152f35b3461050e57602036600319011261050e576004356000818152600260205260409020546114b6906001600160a01b03161515613bdc565b600052601d602052602060ff604060002054166040519015158152f35b3461050e57604036600319011261050e5760206114fa6114f16109bb565b60243590613c1f565b604051908152f35b3461050e57602036600319011261050e5761151b6109bb565b61152481613ca3565b61152d81613910565b9160005b82811061154e57604051602080825281906108d490820187610b0f565b8061155b60019284613c1f565b6115658287613958565b5201611531565b3461050e57610a8b61157d36610f86565b906040519261158b84610614565b6000845261159a838383613a6a565b336147fc565b3461050e57602036600319011261050e576004356001600160601b03811680910361050e57600d546115e690336001600160a01b039182161490811561080657506134b8565b6103e88111611605576001600160601b0319601c541617601c55600080f35b60405162461bcd60e51b815260206004820152601060248201526f0a4def2c2d8e8f240e8dede40d0d2ced60831b6044820152606490fd5b3461050e57600036600319011261050e576020601054604051908152f35b3461050e57602036600319011261050e576004356008548110156116ac5760209060086000527ff3f7a9fe364faab93b216da50a3214154f22a0a2b415b23a84c8169e8b636ee30154604051908152f35b6044906040519063295f44f760e21b8252600060048301526024820152fd5b3461050e57600036600319011261050e57602060ff602154166040519015158152f35b3461050e57602036600319011261050e576004356000526023602052602060ff604060002054166040519015158152f35b90600182811c9216801561174f575b602083101461173957565b634e487b7160e01b600052602260045260246000fd5b91607f169161172e565b601154600092916117698261171f565b808252916020906001908181169081156117e8575060011461178c575b50505050565b9293945060116000527f31ecc21a745e3968a04e9570e4425bc18fa8019c68028196b546d1669c200c68926000935b8585106117d5575050506020925001019038808080611786565b80548585018401529382019381016117bb565b92505050602093945060ff929192191683830152151560051b01019038808080611786565b600f546000929161181d8261171f565b808252916020906001908181169081156117e8575060011461183f5750505050565b92939450600f600052600080516020614e90833981519152926000935b858510611876575050506020925001019038808080611786565b805485850184015293820193810161185c565b601154600092916118998261171f565b808252916020906001908181169081156117e857506001146118bb5750505050565b9293945060116000527f31ecc21a745e3968a04e9570e4425bc18fa8019c68028196b546d1669c200c68926000935b858510611904575050506020925001019038808080611786565b80548585018401529382019381016118ea565b601454600092916119278261171f565b808252916020906001908181169081156117e857506001146119495750505050565b929394506014600052600080516020614e70833981519152926000935b858510611980575050506020925001019038808080611786565b8054858501840152938201938101611966565b601354600092916119a38261171f565b808252916020906001908181169081156117e857506001146119c55750505050565b9293945060136000527f66de8ffda797e3de9c05e8fc57b3bf0ec28a930d40b0d285d93c06501cf6a090926000935b858510611a0e575050506020925001019038808080611786565b80548585018401529382019381016119f4565b805460009392611a308261171f565b91828252602093600191600181169081600014611a985750600114611a57575b5050505050565b90939495506000929192528360002092846000945b838610611a8457505050500101903880808080611a50565b805485870183015294019385908201611a6c565b60ff19168685015250505090151560051b010191503880808080611a50565b60405190611acf82611ac88161180d565b038361064a565b565b60405190611acf82611ac881611889565b60405190611acf82611ac881611917565b6040519060008260125491611b078361171f565b80835292602090600190818116908115611b935750600114611b32575b5050611acf9250038361064a565b91509260126000527fbb8a6a4669ba250d26cd7a459eca9d215f8307e33aebe50379bc5a3617ec3444936000925b828410611b7b5750611acf9450505081016020013880611b24565b85548885018301529485019487945092810192611b60565b91505060209250611acf94915060ff191682840152151560051b8201013880611b24565b60405190611acf82611ac881611993565b6040519060008260195491611bdc8361171f565b80835292602090600190818116908115611b935750600114611c06575050611acf9250038361064a565b9150926019600052600080516020614eb0833981519152936000925b828410611c3d5750611acf9450505081016020013880611b24565b85548885018301529485019487945092810192611c22565b90611acf611ac89260405193848092611a21565b3461050e57602036600319011261050e57600435600052601e6020526108d4611c9f611ca6604060002060405192838092611a21565b038261064a565b604051918291602083526020830190610842565b60008060031936011261095c5760175460ff81166113bc5760081c60ff16611e7557600e54601554811015611e63576016543410611e5157611d03611cfe82613987565b600e55565b333b15611e4257611d1481336145ee565b611d38611d1f61471a565b611d3383600052601e602052604060002090565b613830565b611d5033610a6c83600052601f602052604060002090565b34611d648260005260208052604060002090565b5580611d7a81600052601e602052604060002090565b7fb89988e1d3e88c0f1c82060eacd83b1eeff9d84e2dceb882de0781fbb7c04fc560405180611dab33943483613c7f565b0390a3600b546001600160a01b031680611dcb575b604051828152602090f35b600d546001600160a01b03169060165491813b15611e3e576040516361b0c73960e01b81526001600160a01b039190911660048201526001602482015260448101929092526108d493908290606490829084905af115611dc05780611e32611e38926105fc565b80610814565b38611dc0565b8480fd5b611e4c81336144e7565b611d14565b60405163cd1c886760e01b8152600490fd5b6040516352df9fe560e01b8152600490fd5b604051630e15836160e31b8152600490fd5b3461050e57600036600319011261050e576108d4604051611ca681611c9f81611993565b3461050e57600036600319011261050e57600d546040516001600160a01b039091168152602090f35b3461050e57600036600319011261050e57600e54601e810290808204601e1490151715611f7e576064906108d4602654804210159081611f67575b81611f50575b60295460275460ff169060405196879604908693909594919260809360a0860197865260208601521515604085015260608401521515910152565b9050611f61610c7260255460ff1690565b90611f15565b9050611f78610c7260275460ff1690565b90611f0f565b613971565b3461050e57602036600319011261050e576020611fa16004356143d3565b6040516001600160a01b039091168152f35b3461050e5760008060031936011261095c57604051908082601b5491611fd88361171f565b928383526020946001918660018216918260001461207657505060011461201c575b50506120089250038361064a565b6108d4604051928284938452830190610842565b90859250601b82527f3ad8aa4f87544323a9d1e5dd902f40c356527a7955687113db5f9a85ad579dc15b85831061205e57505061200893508201013880611ffa565b80548389018501528794508693909201918101612046565b925093505061200894915060ff191682840152151560051b8201013880611ffa565b3461050e57600036600319011261050e576020604051601e8152f35b3461050e57600036600319011261050e576108d4604051611ca681611c9f81611917565b3461050e57600036600319011261050e576020602654604051908152f35b3461050e5760008060031936011261095c576040519080826012549161211b8361171f565b928383526020946001918660018216918260001461207657505060011461214a5750506120089250038361064a565b90859250601282527fbb8a6a4669ba250d26cd7a459eca9d215f8307e33aebe50379bc5a3617ec34445b85831061218c57505061200893508201013880611ffa565b80548389018501528794508693909201918101612174565b3461050e57600036600319011261050e57602060ff602754166040519015158152f35b95929160c095926121e76121fa939a99969a60e08a5260e08a0190610842565b9160208901528782036040890152610842565b9660608601526080850152151560a08401521515910152565b3461050e5760008060031936011261095c5760105460165490601554600e548103908111611f7e57601754906040519085600f54906122518261171f565b808552916020916001918281169081156122fa57506001146122b2575b50505050612283826108d4959697038361064a565b6040519561229b8761229481611759565b038861064a565b60405196879660ff808760081c16961694886121c7565b9850600f8952600080516020614e908339815191525b838a106122e7575050505094810160200194612283826108d43861226e565b8054868b018401529882019881016122c8565b60ff191660208089019190915294151560051b8701909401995061228393508592506108d4915038905061226e565b3461050e57602036600319011261050e5760206114fa6123476109bb565b613ca3565b3461050e5760008060031936011261095c5761236661475f565b600a80546001600160a01b0319811690915581906001600160a01b03167f8be0079c531659141344cd1fd0a4f28419497f9722a3daafe3b4186f6b6457e08280a380f35b3461050e5760008060031936011261095c57604051908082601a54916123cf8361171f565b92838352602094600191866001821691826000146120765750506001146123fe5750506120089250038361064a565b90859250601a8252600080516020614e508339815191525b85831061242e57505061200893508201013880611ffa565b80548389018501528794508693909201918101612416565b3461050e57600036600319011261050e576108d4604051611ca681611c9f8161180d565b3461050e57612478366106bd565b600d5461249990336001600160a01b039182161490811561080657506134b8565b80516001600160401b03811161060f576124bd816124b8601a5461171f565b6135c4565b6020601f821160011461255b5790806124ec92600091612550575b508160011b916000199060031b1c19161790565b601a555b80516124f857005b61253f61254b610a8b926040519081612515602082018093613cdc565b0391612529601f199384810183528261064a565b5190206040519384916020830160209181520190565b0390810183528261064a565b61374c565b9050830151386124d8565b601a600052601f19821690600080516020614e508339815191529160005b8181106125b45750908360019493921061259b575b5050811b01601a556124f0565b84015160001960f88460031b161c19169055388061258e565b91926020600181928689015181550194019201612579565b3461050e57600036600319011261050e57600a546040516001600160a01b039091168152602090f35b3461050e57600036600319011261050e5760206040516203f4808152f35b3461050e57600036600319011261050e57600d5461264590336001600160a01b039182161490811561080657506134b8565b60175460ff8160081c161561268f5761ff0019166017556040514281527f153e62e8cbf370987f79cde37897d15d96049c5da8601cc119746169febed1c99080602081015b0390a1005b60405162461bcd60e51b815260206004820152600a602482015269139bdd081c185d5cd95960b21b6044820152606490fd5b3461050e5760008060031936011261095c57604051908082601954916126e68361171f565b92838352602094600191866001821691826000146120765750506001146127155750506120089250038361064a565b9085925060198252600080516020614eb08339815191525b85831061274557505061200893508201013880611ffa565b8054838901850152879450869390920191810161272d565b3461050e5760008060031936011261095c57604051908060018054906127828261171f565b808652926020926001811690811561092f57506001146127ac576108d4866108c88188038261064a565b9350600184527fb10e2d527612073b26eecdfd717e6a320cf44b4afac2b0732d9fcbe2b7fa0cf65b8385106127f1575050505081016020016108c8826108d4386108b8565b80548686018401529382019381016127d4565b3461050e57600036600319011261050e5761281e33613ca3565b336000908152602260205260409020541590159081612966575b50610e285733600090815260286020526040902061285590610df4565b6129545733600090815260286020526040902061287190610d88565b61288461287f602954613987565b602955565b612899612892600e54613996565b6064900490565b602954604080518281526020810184905233917f963553e4c1aa776a576b2a0f3ff27eb7870bd13a5ec6b0bb266c3113a26a298791a210158061293f575b6128dd57005b6128ef600160ff196027541617602755565b612901600160ff196021541617602155565b6029546040805142815260208101929092527fc62bec035d80f84213952b377ca5c7e4663e52e2564beba8436b893449f7fe7c91908190810161268a565b5061294f610c7260275460ff1690565b6128d7565b6040516370cc686b60e11b8152600490fd5b905038612838565b3461050e57602036600319011261050e57600435600052602080526020604060002054604051908152f35b3461050e57600036600319011261050e5760206001600160601b03601c5416604051908152f35b3461050e57604036600319011261050e576129d96109bb565b6024358015159081810361050e576001600160a01b038316928315612a645790612a25612a369233600052600560205260406000209060018060a01b0316600052602052604060002090565b9060ff801983541691151516179055565b6040519081527f17307eab39ab6107e8899845ad3d59bd9653f200f220920489ca2b5937696c3160203392a3005b604051630b61174360e31b815260048101859052602490fd5b3461050e57600036600319011261050e576020602954604051908152f35b3461050e57600036600319011261050e57602060ff602554166040519015158152f35b3461050e57600036600319011261050e57602060ff60175460081c166040519015158152f35b3461050e5760008060031936011261095c57612b05610c7260215460ff1690565b612ce1576018544211612ccf57612b1b33613ca3565b8015610e2857612b2a81613910565b82835b838110612c5e57508015612c4c57612b47601654826139c4565b92834710610dac57612b5882613910565b92855b838110612c13575050336000908152602260205260409020612b7e838254613a03565b9055612b8f610cfa85602454613a03565b8480808087335af1612b9f613a23565b5015610d4e578103612bdf5750610d487f4ab127485e25b893b831478744ce27218f38f11abcf85cab4bfe1454decaac6f91604051918291339583613a53565b907f0c7f7bd90e47f42337993bf872ab3fec1d437a69b7edc259f426f3dcbe8f430791610d48604051928392339684613cf3565b80612c46612c2360019385613958565b51612c3b610d88826000526023602052604060002090565b80610da0848a613958565b01612b5b565b60405163a53c6c4f60e01b8152600490fd5b612c688133613c1f565b612c82610c72610df483600052601d602052604060002090565b80612caf575b612c96575b50600101612b2d565b82612ca891610e1b6001949587613958565b9190612c8d565b50612cca610c72610df4836000526023602052604060002090565b612c88565b6040516336ad388960e11b8152600490fd5b6040516364547e6960e01b8152600490fd5b3461050e57600036600319011261050e57600d54612d2590336001600160a01b039182161490811561080657506134b8565b60175460ff8160081c16612d715761ff001916610100176017556040514281527ffdb456e665aa5cdbe3bd91babd696c20184ff9664fb5544c37869f078c2cd71c90806020810161268a565b60405162461bcd60e51b815260206004820152600e60248201526d105b1c9958591e481c185d5cd95960921b6044820152606490fd5b3461050e57608036600319011261050e57612dc06109bb565b612dc86109d1565b90604435606435926001600160401b03841161050e573660238501121561050e57612e00610a8b943690602481600401359101610686565b9261159a838383613a6a565b3461050e57600036600319011261050e576020602454604051908152f35b939092608093612e5f9397969760018060a01b038092168752166020860152604085015260a0606085015260a0840190610842565b931515910152565b3461050e5760208060031936011261050e57600435906108d46000928084526002835260018060a01b0392612ea3846040872054161515613bdc565b612ee960ff612ee16040612eb6866143d3565b97868a52601f8652818a20541698858052601e8282205496522094600052601d602052604060002090565b541692611c55565b9060405195869586612e2a565b3461050e57612f04366106bd565b600d54612f2590336001600160a01b039182161490811561080657506134b8565b80516001600160401b03811161060f57612f4981612f4460195461171f565b613624565b602080601f8311600114612f7f57508190612f7a936000926107865750508160011b916000199060031b1c19161790565b601955005b90601f19831693612fa06019600052600080516020614eb083398151915290565b926000905b868210612fdc5750508360019510612fc3575b505050811b01601955005b015160001960f88460031b161c19169055388080612fb8565b80600185968294968601518155019501930190612fa5565b3461050e57602036600319011261050e576108d4611ca6600435614006565b3461050e57600036600319011261050e576020601554604051908152f35b3461050e57600036600319011261050e57601554600e548103908111611f7e57602090604051908152f35b3461050e57602036600319011261050e57600435600052601f602052602060018060a01b0360406000205416604051908152f35b3461050e57602036600319011261050e576001600160a01b036130b16109bb565b166000526028602052602060ff604060002054166040519015158152f35b3461050e57600036600319011261050e57602060ff601754166040519015158152f35b3461050e57600036600319011261050e576020601854604051908152f35b3461050e57600036600319011261050e576108d4604051611ca681611c9f81611889565b9b956106f89f9d98916131e0989f9b94916131a58f92986131fc9f98613197906131eb9f98613189906131b3986131766131d69f6101e0808c528b0190610842565b9160208a015288820360408a0152610842565b908682036060880152610842565b908482036080860152610842565b9160a0818403910152610842565b9d60c08d015260e08c01526101008b01526101208a015261014089019015159052565b1515610160870152565b60ff16610180850152565b6001600160a01b03166101a0830152565b6101c0818403910152610842565b3461050e57600036600319011261050e5760175460ff8116600081156132a357506003915b601054916015549060165494600e546132488185613c96565b600d546001600160a01b0316939061325e611ab7565b92613267611ad1565b99613270611af3565b97613279611bb7565b613281611ae2565b9061328a611bc8565b9a6040519e8f9e8f9e60081c60ff169a6108d49f613134565b600e54601554116132b7575060019161322f565b6010544211156132ca575060029161322f565b9161322f565b3461050e57604036600319011261050e57602060ff6133216132f06109bb565b6132f86109d1565b6001600160a01b0391821660009081526005865260408082209290931681526020919091522090565b54166040519015158152f35b3461050e57602036600319011261050e57608061335061334b6109bb565b6142c9565b916040519315158452602084015260408301526060820152f35b3461050e57602036600319011261050e576133836109bb565b61338b61475f565b6001600160a01b039081169081156133da57600a54826001600160601b0360a01b821617600a55167f8be0079c531659141344cd1fd0a4f28419497f9722a3daafe3b4186f6b6457e0600080a3005b604051631e4fbdf760e01b815260006004820152602490fd5b3461050e57600036600319011261050e57600d5461342590336001600160a01b039182161490811561080657506134b8565b60175460ff811661347f5760019060ff19161760175561344d600160ff196021541617602155565b6040514281527fdc3cb569b066460f4a22dffa05317bdcce5d3826382ed49a21f13e5fa2063d3990806020810161268a565b60405162461bcd60e51b8152602060048201526011602482015270105b1c9958591e4818d85b98d95b1b1959607a1b6044820152606490fd5b156134bf57565b60405162461bcd60e51b815260206004820152601760248201527f4f6e6c79206f7267616e697a6572206f72206f776e65720000000000000000006044820152606490fd5b601f8111613510575050565b600090600f600052600080516020614e90833981519152906020601f850160051c8301941061355a575b601f0160051c01915b82811061354f57505050565b818155600101613543565b909250829061353a565b601f8111613570575050565b6000906014600052600080516020614e70833981519152906020601f850160051c830194106135ba575b601f0160051c01915b8281106135af57505050565b8181556001016135a3565b909250829061359a565b601f81116135d0575050565b600090601a600052600080516020614e50833981519152906020601f850160051c8301941061361a575b601f0160051c01915b82811061360f57505050565b818155600101613603565b90925082906135fa565b601f8111613630575050565b6000906019600052600080516020614eb0833981519152906020601f850160051c8301941061367a575b601f0160051c01915b82811061366f57505050565b818155600101613663565b909250829061365a565b601f8111613690575050565b600090601b6000527f3ad8aa4f87544323a9d1e5dd902f40c356527a7955687113db5f9a85ad579dc1906020601f850160051c830194106136ec575b601f0160051c01915b8281106136e157505050565b8181556001016136d5565b90925082906136cc565b90601f811161370457505050565b6000916000526020600020906020601f850160051c83019410613742575b601f0160051c01915b82811061373757505050565b81815560010161372b565b9092508290613722565b9081516001600160401b03811161060f576137718161376c601b5461171f565b613684565b602080601f83116001146137a8575081906137a393946000926107865750508160011b916000199060031b1c19161790565b601b55565b90601f198316946137db601b6000527f3ad8aa4f87544323a9d1e5dd902f40c356527a7955687113db5f9a85ad579dc190565b926000905b8782106138185750508360019596106137ff575b505050811b01601b55565b015160001960f88460031b161c191690553880806137f4565b806001859682949686015181550195019301906137e0565b91909182516001600160401b03811161060f5761385781613851845461171f565b846136f6565b602080601f831160011461388e5750819061388a9394956000926107865750508160011b916000199060031b1c19161790565b9055565b90601f198316956138a485600052602060002090565b926000905b8882106138e1575050836001959697106138c8575b505050811b019055565b015160001960f88460031b161c191690553880806138be565b806001859682949686015181550195019301906138a9565b6001600160401b03811161060f5760051b60200190565b9061391a826138f9565b613927604051918261064a565b8281528092613938601f19916138f9565b0190602036910137565b634e487b7160e01b600052603260045260246000fd5b805182101561396c5760209160051b010190565b613942565b634e487b7160e01b600052601160045260246000fd5b6000198114611f7e5760010190565b90601e820291808304601e1490151715611f7e57565b600281901b91906001600160fe1b03811603611f7e57565b81810292918115918404141715611f7e57565b90620151808201809211611f7e57565b9060028201809211611f7e57565b9060208201809211611f7e57565b91908201809211611f7e57565b60405190613a1d82610614565b60008252565b3d15613a4e573d90613a348261066b565b91613a42604051938461064a565b82523d6000602084013e565b606090565b6040906106f8939281528160208201520190610b0f565b6001600160a01b03828116929091908315613bc35760008581526002602052604090205485906001600160a01b03169433613bb3575b8486169586158015613b85575b6001600160a01b038516600090815260036020526040902060018154019055613ae485610a6c866000526002602052604060002090565b8383897fddf252ad1be2c89b69c2b068fc378daa952ba7f163c4a11628f55a4df523b3ef600080a415613b655750613b1b82614bf4565b8503613b55575b50501691828203613b3257505050565b60649350604051926364283d7b60e01b8452600484015260248301526044820152fd5b613b5e91614c51565b3884613b22565b82828803613b75575b5050613b1b565b613b7e91614b84565b3882613b6e565b613b8e84614b60565b6001600160a01b03821660009081526003602052604090208054600019019055613aad565b613bbe823388614d76565b613aa0565b604051633250574960e11b815260006004820152602490fd5b15613be357565b60405162461bcd60e51b8152602060048201526014602482015273151bdad95b88191bd95cc81b9bdd08195e1a5cdd60621b6044820152606490fd5b613c2881613ca3565b821015613c545760018060a01b0316600052600660205260406000209060005260205260406000205490565b60405163295f44f760e21b81526001600160a01b039190911660048201526024810191909152604490fd5b6040906106f8939281528160208201520190611a21565b91908203918211611f7e57565b6001600160a01b03168015613cc357600052600360205260406000205490565b6040516322718ad960e21b815260006004820152602490fd5b90613cef6020928281519485920161081f565b0190565b6106f89392606092825260208201528160408201520190610b0f565b601a5460009291613d1f8261171f565b91600190818116908115613d795750600114613d3a57505050565b9091929350601a600052600080516020614e50833981519152906000915b848310613d66575050500190565b8181602092548587015201920191613d58565b60ff191683525050811515909102019150565b600f5460009291613d9c8261171f565b91600190818116908115613d795750600114613db757505050565b9091929350600f600052600080516020614e90833981519152906000915b848310613de3575050500190565b8181602092548587015201920191613dd5565b60195460009291613e068261171f565b91600190818116908115613d795750600114613e2157505050565b90919293506019600052600080516020614eb0833981519152906000915b848310613e4d575050500190565b8181602092548587015201920191613e3f565b60145460009291613e708261171f565b91600190818116908115613d795750600114613e8b57505050565b90919293506014600052600080516020614e70833981519152906000915b848310613eb7575050500190565b8181602092548587015201920191613ea9565b60115460009291613eda8261171f565b91600190818116908115613d795750600114613ef557505050565b909192935060116000527f31ecc21a745e3968a04e9570e4425bc18fa8019c68028196b546d1669c200c68906000915b848310613f33575050500190565b8181602092548587015201920191613f25565b600092918154613f558161171f565b92600191808316908115613fae5750600114613f715750505050565b9091929394506000526020906020600020906000915b858310613f9d5750505050019038808080611786565b805485840152918301918101613f87565b60ff1916845250505081151590910201915038808080611786565b60405190613fd68261062f565b60028252614e6f60f01b6020830152565b60405190613ff48261062f565b600382526259657360e81b6020830152565b600081815260026020526040902061402a906001600160a01b03906111f3906111e6565b614035601a5461171f565b61428057614042816148ba565b614059610df483600052601d602052604060002090565b156142755761407a614069613fe7565b92600052601e602052604060002090565b604051683d913730b6b2911d1160b91b602082015292839261409e60298501613d8c565b68205469636b6574202360b81b81526009016140b991613cdc565b701116113232b9b1b934b83a34b7b7111d1160791b81526011016140dc90613df6565b6a11161134b6b0b3b2911d1160a91b8152600b016140f990613e60565b6f222c2261747472696275746573223a5b60801b81526010017f7b2274726169745f74797065223a224576656e74222c2276616c7565223a22008152601f0161414190613d8c565b62089f4b60ea1b81526003017f7b2274726169745f74797065223a2256656e7565222c2276616c7565223a22008152601f0161417c90613eca565b62089f4b60ea1b81526003017f7b2274726169745f74797065223a2255736564222c2276616c7565223a2200008152601e016141b791613cdc565b62089f4b60ea1b81526003017f7b2274726169745f74797065223a22427579657220436861696e222c2276616c8152643ab2911d1160d91b602082015260250161420091613f46565b63227d5d7d60e01b81526004010390601f19918281018252614222908261064a565b61422b90614a6d565b6040517f646174613a6170706c69636174696f6e2f6a736f6e3b6261736536342c000000602082015291908290603d820161426591613cdc565b0390810182526106f8908261064a565b61407a614069613fc9565b6106f861428f6142aa926148ba565b6142bb6040519384926142a460208501613d0f565b90613cdc565b64173539b7b760d91b815260050190565b03601f19810183528261064a565b6142d8610c7260215460ff1690565b80156143c8575b6143b9576142ec81613ca3565b9182156143ac576000928392845b828110614338575050508215159081614321575b61431a601654856139c4565b9193929190565b905047614330601654856139c4565b11159061430e565b6143428183613c1f565b614359610df4826000526023602052604060002090565b1561436957506001905b016142fa565b610df461438391969296600052601d602052604060002090565b1561439957614393600191613987565b94614363565b93946143a6600191613987565b95614363565b6000925082915081908190565b50600090600090600090600090565b5060185442116142df565b6000818152600260205260409020546001600160a01b03169081156143f6575090565b60249060405190637e27328960e01b82526004820152fd5b6000818152600260205260409020546001600160a01b0316801590828215806144b9575b614446826000526002602052604060002090565b80546001600160a01b0319169055816000847fddf252ad1be2c89b69c2b068fc378daa952ba7f163c4a11628f55a4df523b3ef8280a4831561449d575061448d9150614bf4565b61449682614c98565b6143f65750565b6144a9575b505061448d565b6144b291614b84565b38826144a2565b6144c282614b60565b6001600160a01b03831660009081526003602052604090208054600019019055614432565b906040516144f481610614565b6000815261450282846145ee565b823b61450d57505050565b60206145309160405180938192630a85bd0160e11b9687845233600485016147a0565b038160006001600160a01b0388165af1600091816145bd575b506145885782614557613a23565b805191908261458157604051633250574960e11b81526001600160a01b0383166004820152602490fd5b6020915001fd5b6001600160e01b0319160361459a5750565b604051633250574960e11b81526001600160a01b03919091166004820152602490fd5b6145e091925060203d6020116145e7575b6145d8818361064a565b81019061478b565b9038614549565b503d6145ce565b6001600160a01b03918183168015613bc3576000828152600260205260409020546001600160a01b0316938416801594851595866146ec575b6001600160a01b03861660009081526003602052604090206001815401905561465e86610a6c876000526002602052604060002090565b8484847fddf252ad1be2c89b69c2b068fc378daa952ba7f163c4a11628f55a4df523b3ef600080a4156146cc575061469583614bf4565b036146bc575b50506146a357565b6040516339e3563760e11b815260006004820152602490fd5b6146c591614c51565b388061469b565b838383036146dc575b5050614695565b6146e591614b84565b38836146d5565b6146f585614b60565b6001600160a01b03821660009081526003602052604090208054600019019055614627565b614723466148ba565b6106f8602660405180936531b430b4b71d60d11b602083015261474f815180926020868601910161081f565b810103600681018452018261064a565b600a546001600160a01b0316330361477357565b60405163118cdaa760e01b8152336004820152602490fd5b9081602091031261050e57516106f8816104fc565b6106f8939260809260018060a01b031682526000602083015260408201528160608201520190610842565b6001600160a01b0391821681529116602082015260408101919091526080606082018190526106f892910190610842565b92939193843b61480d575050505050565b6020916148306040519485938493630a85bd0160e11b98898652600486016147cb565b038160006001600160a01b0388165af160009181614871575b506148575782614557613a23565b6001600160e01b0319160361459a57503880808080611a50565b61488b91925060203d6020116145e7576145d8818361064a565b9038614849565b9061489c8261066b565b6148a9604051918261064a565b8281528092613938601f199161066b565b806000917a184f03e93ff9f4daa797ed6e38ed64bf6a1f010000000000000000808210156149f0575b506d04ee2d6d415b85acef8100000000808310156149e1575b50662386f26fc10000808310156149d2575b506305f5e100808310156149c3575b50612710808310156149b4575b5060648210156149a4575b600a8092101561499a575b60019081602161495260018701614892565b95860101905b614964575b5050505090565b600019019083906f181899199a1a9b1b9c1cb0b131b232b360811b8282061a83530491821561499557919082614958565b61495d565b9160010191614940565b9190606460029104910191614935565b6004919392049101913861492a565b6008919392049101913861491d565b6010919392049101913861490e565b602091939204910191386148fc565b6040935081049150386148e3565b60405190606082018281106001600160401b0382111761060f57604052604082527f6768696a6b6c6d6e6f707172737475767778797a303132333435363738392b2f6040837f4142434445464748494a4b4c4d4e4f505152535455565758595a61626364656660208201520152565b805115614b5757614a7c6149fe565b614a98614a93614a8c84516139e7565b6003900490565b6139ac565b91614aaa614aa5846139f5565b614892565b92835280815182019060208501935b828210614afb57505050600390510680600114614aea57600214614adb575090565b603d60f81b6000199091015290565b50613d3d60f01b6001199091015290565b90919360049060038094019384516001603f81818460121c16880101519260f893841b8652828282600c1c1689010151841b8387015282828260061c1689010151841b60028701521686010151901b9082015201939190614ab9565b506106f8613a10565b614b74906000526004602052604060002090565b80546001600160a01b0319169055565b90614b8e82613ca3565b9160009282845260209060078252604093848620549360018060a01b031686526006835284862093828103614bd2575b508552600782528484812055845252812055565b8287528484528587205481885280878920558752600784528587205538614bbe565b600854816000526009602052806040600020556801000000000000000081101561060f57600181018060085581101561396c5760086000527ff3f7a9fe364faab93b216da50a3214154f22a0a2b415b23a84c8169e8b636ee30155565b90614c5b82613ca3565b600019810192908311611f7e576001600160a01b031660009081526006602090815260408083208584528252808320849055928252600790522055565b6008805460001992838201828111611f7e57600092828452600960205280604085205492101561396c578484527ff3f7a9fe364faab93b216da50a3214154f22a0a2b415b23a84c8169e8b636ee292838201549183101561396c578492614d34614d459388865280837ff3f7a9fe364faab93b216da50a3214154f22a0a2b415b23a84c8169e8b636ee301556000526009602052604060002090565b556000526009602052604060002090565b558254938415614d62578401938085101561396c57838352015555565b634e487b7160e01b83526031600452602483fd5b6001600160a01b03908282168015159081614de1575b5015614d985750505050565b16614db657604051637e27328960e01b815260048101839052602490fd5b60405163177e802f60e01b81526001600160a01b039190911660048201526024810191909152604490fd5b82841680821492508215614e19575b508115614dff575b5038614d8c565b905084600052600460205282604060002054161438614df8565b909150600052600560205260ff614e468560406000209060018060a01b0316600052602052604060002090565b54169038614df056fe057c384a7d1c54f3a1b2e5e67b2617b8224fdfd1ea7234eea573a6ff665ff63ece6d7b5282bd9a3661ae061feed1dbda4e52ab073b1f9285be6e155d9c38d4ec8d1108e10bcb7c27dddfc02ed9d693a074039d026cf4ea4240b40f7d581ac802944998273e477b495144fb8794c914197f3ccb46be2900f4698fd0ef743c9695a2646970667358221220a19ca9af19984d2f3174c4d4202bca2fd3e79a796e9228acacc744cd9d0347ca64736f6c63430008160033bb8a6a4669ba250d26cd7a459eca9d215f8307e33aebe50379bc5a3617ec344431ecc21a745e3968a04e9570e4425bc18fa8019c68028196b546d1669c200c68290decd9548b62a8d60345a988386fc84ba6bc95484008f6362f93160ef3e5633ad8aa4f87544323a9d1e5dd902f40c356527a7955687113db5f9a85ad579dc166de8ffda797e3de9c05e8fc57b3bf0ec28a930d40b0d285d93c06501cf6a090057c384a7d1c54f3a1b2e5e67b2617b8224fdfd1ea7234eea573a6ff665ff63eb10e2d527612073b26eecdfd717e6a320cf44b4afac2b0732d9fcbe2b7fa0cf6ce6d7b5282bd9a3661ae061feed1dbda4e52ab073b1f9285be6e155d9c38d4ec8d1108e10bcb7c27dddfc02ed9d693a074039d026cf4ea4240b40f7d581ac802","opcodes":"PUSH1 0x80 PUSH1 0x40 DUP2 DUP2 MSTORE CALLVALUE PUSH3 0x6C2 JUMPI PUSH3 0x625B DUP1 CODESIZE SUB DUP1 SWAP2 PUSH3 0x21 DUP3 DUP7 PUSH3 0x1191 JUMP JUMPDEST DUP5 CODECOPY DUP3 ADD SWAP2 PUSH2 0x1A0 DUP2 DUP5 SUB SLT PUSH3 0x6C2 JUMPI DUP1 MLOAD PUSH1 0x20 DUP3 ADD MLOAD DUP4 DUP4 ADD MLOAD PUSH1 0x1 PUSH1 0x1 PUSH1 0x40 SHL SUB DUP2 GT PUSH3 0x6C2 JUMPI DUP6 PUSH3 0x5A SWAP2 DUP6 ADD PUSH3 0x11DA JUMP JUMPDEST PUSH1 0x60 DUP5 ADD MLOAD SWAP1 SWAP3 SWAP1 PUSH1 0x1 PUSH1 0x1 PUSH1 0x40 SHL SUB DUP2 GT PUSH3 0x6C2 JUMPI DUP7 PUSH3 0x7F SWAP2 DUP7 ADD PUSH3 0x11DA JUMP JUMPDEST PUSH1 0x80 DUP6 ADD MLOAD SWAP1 SWAP3 SWAP1 PUSH1 0x1 PUSH1 0x1 PUSH1 0x40 SHL SUB DUP2 GT PUSH3 0x6C2 JUMPI DUP8 PUSH3 0xA4 SWAP2 DUP8 ADD PUSH3 0x11DA JUMP JUMPDEST PUSH1 0xA0 DUP7 ADD MLOAD PUSH1 0xC0 DUP8 ADD MLOAD SWAP1 SWAP6 SWAP1 PUSH1 0x1 PUSH1 0x1 PUSH1 0x40 SHL SUB DUP2 GT PUSH3 0x6C2 JUMPI DUP10 PUSH3 0xCE SWAP2 DUP10 ADD PUSH3 0x11DA JUMP JUMPDEST PUSH1 0xE0 DUP9 ADD MLOAD SWAP1 SWAP3 SWAP1 PUSH1 0x1 PUSH1 0x1 PUSH1 0x40 SHL SUB DUP2 GT PUSH3 0x6C2 JUMPI DUP11 PUSH3 0xF3 SWAP2 DUP11 ADD PUSH3 0x11DA JUMP JUMPDEST PUSH2 0x100 DUP10 ADD MLOAD SWAP1 SWAP5 SWAP1 PUSH1 0x1 PUSH1 0x1 PUSH1 0x40 SHL SUB DUP2 GT PUSH3 0x6C2 JUMPI DUP12 PUSH3 0x119 SWAP2 DUP12 ADD PUSH3 0x11DA JUMP JUMPDEST PUSH2 0x120 DUP11 ADD MLOAD SWAP1 SWAP7 SWAP1 PUSH1 0x1 PUSH1 0x1 PUSH1 0x40 SHL SUB DUP2 GT PUSH3 0x6C2 JUMPI DUP13 PUSH3 0x13F SWAP2 DUP13 ADD PUSH3 0x11DA JUMP JUMPDEST PUSH2 0x140 DUP12 ADD MLOAD SWAP1 SWAP9 SWAP1 PUSH1 0x1 PUSH1 0x1 PUSH1 0x40 SHL SUB DUP2 GT PUSH3 0x6C2 JUMPI DUP14 PUSH3 0x165 SWAP2 DUP14 ADD PUSH3 0x11DA JUMP JUMPDEST PUSH2 0x160 DUP13 ADD MLOAD SWAP14 SWAP1 SWAP12 SWAP1 PUSH1 0x1 PUSH1 0x1 PUSH1 0xA0 SHL SUB DUP16 AND DUP16 SWAP1 SUB PUSH3 0x6C2 JUMPI PUSH2 0x180 DUP3 ADD MLOAD PUSH1 0x1 PUSH1 0x1 PUSH1 0x40 SHL SUB DUP2 GT PUSH3 0x6C2 JUMPI PUSH3 0x1A2 SWAP3 ADD PUSH3 0x11DA JUMP JUMPDEST DUP6 MLOAD SWAP1 SWAP6 PUSH1 0x1 PUSH1 0x1 PUSH1 0x40 SHL SUB DUP3 GT PUSH3 0x899 JUMPI PUSH1 0x0 SLOAD SWAP1 PUSH1 0x1 DUP3 DUP2 SHR SWAP3 AND DUP1 ISZERO PUSH3 0x1186 JUMPI JUMPDEST PUSH1 0x20 DUP4 LT EQ PUSH3 0x878 JUMPI DUP2 PUSH1 0x1F DUP5 SWAP4 GT PUSH3 0x1126 JUMPI JUMPDEST POP PUSH1 0x20 SWAP1 PUSH1 0x1F DUP4 GT PUSH1 0x1 EQ PUSH3 0x10AA JUMPI PUSH1 0x0 SWAP3 PUSH3 0x109E JUMPI JUMPDEST POP POP DUP2 PUSH1 0x1 SHL SWAP2 PUSH1 0x0 NOT SWAP1 PUSH1 0x3 SHL SHR NOT AND OR PUSH1 0x0 SSTORE JUMPDEST DUP1 MLOAD SWAP1 PUSH1 0x1 PUSH1 0x1 PUSH1 0x40 SHL SUB DUP3 GT PUSH3 0x899 JUMPI PUSH1 0x1 SLOAD SWAP1 PUSH1 0x1 DUP3 DUP2 SHR SWAP3 AND DUP1 ISZERO PUSH3 0x1093 JUMPI JUMPDEST PUSH1 0x20 DUP4 LT EQ PUSH3 0x878 JUMPI DUP2 PUSH1 0x1F DUP5 SWAP4 GT PUSH3 0x1032 JUMPI JUMPDEST POP PUSH1 0x20 SWAP1 PUSH1 0x1F DUP4 GT PUSH1 0x1 EQ PUSH3 0xFB8 JUMPI PUSH1 0x0 SWAP3 PUSH3 0xFAC JUMPI JUMPDEST POP POP DUP2 PUSH1 0x1 SHL SWAP2 PUSH1 0x0 NOT SWAP1 PUSH1 0x3 SHL SHR NOT AND OR PUSH1 0x1 SSTORE JUMPDEST CALLER ISZERO PUSH3 0xF94 JUMPI PUSH1 0xA DUP1 SLOAD CALLER PUSH1 0x1 PUSH1 0x1 PUSH1 0xA0 SHL SUB NOT DUP3 AND DUP2 OR SWAP1 SWAP3 SSTORE PUSH1 0x1 PUSH1 0x1 PUSH1 0xA0 SHL SUB AND PUSH32 0x8BE0079C531659141344CD1FD0A4F28419497F9722A3DAAFE3B4186F6B6457E0 PUSH1 0x0 DUP1 LOG3 PUSH1 0x15 SSTORE PUSH1 0x16 SSTORE DUP1 MLOAD SWAP1 PUSH1 0x1 PUSH1 0x1 PUSH1 0x40 SHL SUB DUP3 GT PUSH3 0x899 JUMPI PUSH1 0xF SLOAD SWAP1 PUSH1 0x1 DUP3 DUP2 SHR SWAP3 AND DUP1 ISZERO PUSH3 0xF89 JUMPI JUMPDEST PUSH1 0x20 DUP4 LT EQ PUSH3 0x878 JUMPI DUP2 PUSH1 0x1F DUP5 SWAP4 GT PUSH3 0xF28 JUMPI JUMPDEST POP PUSH1 0x20 SWAP1 PUSH1 0x1F DUP4 GT PUSH1 0x1 EQ PUSH3 0xEAA JUMPI PUSH1 0x0 SWAP3 PUSH3 0xE9E JUMPI JUMPDEST POP POP DUP2 PUSH1 0x1 SHL SWAP2 PUSH1 0x0 NOT SWAP1 PUSH1 0x3 SHL SHR NOT AND OR PUSH1 0xF SSTORE JUMPDEST DUP1 MLOAD SWAP1 PUSH1 0x1 PUSH1 0x1 PUSH1 0x40 SHL SUB DUP3 GT PUSH3 0x899 JUMPI PUSH1 0x19 SLOAD SWAP1 PUSH1 0x1 DUP3 DUP2 SHR SWAP3 AND DUP1 ISZERO PUSH3 0xE93 JUMPI JUMPDEST PUSH1 0x20 DUP4 LT EQ PUSH3 0x878 JUMPI DUP2 PUSH1 0x1F DUP5 SWAP4 GT PUSH3 0xE21 JUMPI JUMPDEST POP PUSH1 0x20 SWAP1 PUSH1 0x1F DUP4 GT PUSH1 0x1 EQ PUSH3 0xD92 JUMPI PUSH1 0x0 SWAP3 PUSH3 0xD86 JUMPI JUMPDEST POP POP DUP2 PUSH1 0x1 SHL SWAP2 PUSH1 0x0 NOT SWAP1 PUSH1 0x3 SHL SHR NOT AND OR PUSH1 0x19 SSTORE JUMPDEST PUSH1 0x10 DUP6 SWAP1 SSTORE DUP1 MLOAD SWAP1 PUSH1 0x1 PUSH1 0x1 PUSH1 0x40 SHL SUB DUP3 GT PUSH3 0x899 JUMPI PUSH1 0x11 SLOAD SWAP1 PUSH1 0x1 DUP3 DUP2 SHR SWAP3 AND DUP1 ISZERO PUSH3 0xD7B JUMPI JUMPDEST PUSH1 0x20 DUP4 LT EQ PUSH3 0x878 JUMPI DUP2 PUSH1 0x1F DUP5 SWAP4 GT PUSH3 0xD1A JUMPI JUMPDEST POP PUSH1 0x20 SWAP1 PUSH1 0x1F DUP4 GT PUSH1 0x1 EQ PUSH3 0xC9C JUMPI PUSH1 0x0 SWAP3 PUSH3 0xC90 JUMPI JUMPDEST POP POP DUP2 PUSH1 0x1 SHL SWAP2 PUSH1 0x0 NOT SWAP1 PUSH1 0x3 SHL SHR NOT AND OR PUSH1 0x11 SSTORE JUMPDEST DUP1 MLOAD SWAP1 PUSH1 0x1 PUSH1 0x1 PUSH1 0x40 SHL SUB DUP3 GT PUSH3 0x899 JUMPI PUSH1 0x12 SLOAD SWAP1 PUSH1 0x1 DUP3 DUP2 SHR SWAP3 AND DUP1 ISZERO PUSH3 0xC85 JUMPI JUMPDEST PUSH1 0x20 DUP4 LT EQ PUSH3 0x878 JUMPI DUP2 PUSH1 0x1F DUP5 SWAP4 GT PUSH3 0xC21 JUMPI JUMPDEST POP PUSH1 0x20 SWAP1 PUSH1 0x1F DUP4 GT PUSH1 0x1 EQ PUSH3 0xBA3 JUMPI PUSH1 0x0 SWAP3 PUSH3 0xB97 JUMPI JUMPDEST POP POP DUP2 PUSH1 0x1 SHL SWAP2 PUSH1 0x0 NOT SWAP1 PUSH1 0x3 SHL SHR NOT AND OR PUSH1 0x12 SSTORE JUMPDEST DUP1 MLOAD SWAP1 PUSH1 0x1 PUSH1 0x1 PUSH1 0x40 SHL SUB DUP3 GT PUSH3 0x899 JUMPI PUSH1 0x13 SLOAD SWAP1 PUSH1 0x1 DUP3 DUP2 SHR SWAP3 AND DUP1 ISZERO PUSH3 0xB8C JUMPI JUMPDEST PUSH1 0x20 DUP4 LT EQ PUSH3 0x878 JUMPI DUP2 PUSH1 0x1F DUP5 SWAP4 GT PUSH3 0xB28 JUMPI JUMPDEST POP PUSH1 0x20 SWAP1 PUSH1 0x1F DUP4 GT PUSH1 0x1 EQ PUSH3 0xAAE JUMPI PUSH1 0x0 SWAP3 PUSH3 0xAA2 JUMPI JUMPDEST POP POP DUP2 PUSH1 0x1 SHL SWAP2 PUSH1 0x0 NOT SWAP1 PUSH1 0x3 SHL SHR NOT AND OR PUSH1 0x13 SSTORE JUMPDEST DUP1 MLOAD SWAP1 PUSH1 0x1 PUSH1 0x1 PUSH1 0x40 SHL SUB DUP3 GT PUSH3 0x899 JUMPI PUSH1 0x14 SLOAD SWAP1 PUSH1 0x1 DUP3 DUP2 SHR SWAP3 AND DUP1 ISZERO PUSH3 0xA97 JUMPI JUMPDEST PUSH1 0x20 DUP4 LT EQ PUSH3 0x878 JUMPI DUP2 PUSH1 0x1F DUP5 SWAP4 GT PUSH3 0xA33 JUMPI JUMPDEST POP PUSH1 0x20 SWAP1 PUSH1 0x1F DUP4 GT PUSH1 0x1 EQ PUSH3 0x9B9 JUMPI PUSH1 0x0 SWAP3 PUSH3 0x9AD JUMPI JUMPDEST POP POP DUP2 PUSH1 0x1 SHL SWAP2 PUSH1 0x0 NOT SWAP1 PUSH1 0x3 SHL SHR NOT AND OR PUSH1 0x14 SSTORE JUMPDEST DUP2 MLOAD PUSH1 0x1 PUSH1 0x1 PUSH1 0x40 SHL SUB DUP2 GT PUSH3 0x899 JUMPI PUSH1 0x1A SLOAD PUSH1 0x1 DUP2 DUP2 SHR SWAP2 AND DUP1 ISZERO PUSH3 0x9A2 JUMPI JUMPDEST PUSH1 0x20 DUP3 LT EQ PUSH3 0x878 JUMPI PUSH1 0x1F DUP2 GT PUSH3 0x949 JUMPI JUMPDEST POP DUP1 PUSH1 0x20 PUSH1 0x1F DUP3 GT PUSH1 0x1 EQ PUSH3 0x8D1 JUMPI PUSH1 0x0 SWAP2 PUSH3 0x8C5 JUMPI JUMPDEST POP DUP2 PUSH1 0x1 SHL SWAP2 PUSH1 0x0 NOT SWAP1 PUSH1 0x3 SHL SHR NOT AND OR PUSH1 0x1A SSTORE JUMPDEST PUSH1 0x0 PUSH1 0xC SSTORE PUSH1 0xD DUP1 SLOAD PUSH1 0x1 PUSH1 0x1 PUSH1 0xA0 SHL SUB NOT SWAP1 DUP2 AND CALLER OR SWAP1 SWAP2 SSTORE PUSH1 0xB DUP1 SLOAD SWAP1 SWAP2 AND PUSH1 0x1 PUSH1 0x1 PUSH1 0xA0 SHL SUB DUP7 AND OR SWAP1 SSTORE PUSH1 0x1C DUP1 SLOAD PUSH1 0x1 PUSH1 0x1 PUSH1 0x60 SHL SUB NOT AND PUSH1 0xFA OR SWAP1 SSTORE PUSH3 0x278D00 DUP2 ADD DUP1 DUP3 GT PUSH3 0x8AF JUMPI PUSH1 0x18 SSTORE PUSH3 0x3F480 DUP2 ADD DUP1 SWAP2 GT PUSH3 0x8AF JUMPI PUSH1 0x26 SSTORE DUP1 MLOAD SWAP1 DUP2 PUSH3 0x6D0 JUMPI JUMPDEST POP SWAP1 SWAP2 SWAP1 POP PUSH1 0x1 PUSH1 0x1 PUSH1 0xA0 SHL SUB DUP2 AND PUSH3 0x63E JUMPI JUMPDEST POP MLOAD PUSH2 0x4F05 SWAP1 DUP2 PUSH3 0x1236 DUP3 CODECOPY RETURN JUMPDEST DUP2 MLOAD PUSH4 0xDFDD329 PUSH1 0xE1 SHL DUP2 MSTORE ADDRESS PUSH1 0x4 DUP3 ADD MSTORE CALLER PUSH1 0x24 DUP3 ADD MSTORE PUSH1 0x0 PUSH1 0x44 DUP3 ADD DUP2 SWAP1 MSTORE SWAP1 SWAP2 PUSH1 0x20 SWAP2 DUP4 SWAP2 PUSH1 0x64 SWAP2 DUP4 SWAP2 PUSH1 0x1 PUSH1 0x1 PUSH1 0xA0 SHL SUB AND GAS CALL PUSH1 0x0 SWAP2 DUP2 PUSH3 0x691 JUMPI JUMPDEST POP ISZERO PUSH3 0x62F JUMPI PUSH1 0xC SSTORE CODESIZE PUSH3 0x62F JUMP JUMPDEST SWAP1 SWAP2 POP PUSH1 0x20 DUP2 RETURNDATASIZE PUSH1 0x20 GT PUSH3 0x6C7 JUMPI JUMPDEST DUP2 PUSH3 0x6B0 PUSH1 0x20 SWAP4 DUP4 PUSH3 0x1191 JUMP JUMPDEST DUP2 ADD SUB SLT PUSH3 0x6C2 JUMPI MLOAD SWAP1 CODESIZE PUSH3 0x680 JUMP JUMPDEST PUSH1 0x0 DUP1 REVERT JUMPDEST RETURNDATASIZE SWAP2 POP PUSH3 0x6A1 JUMP JUMPDEST SWAP1 PUSH3 0x6FE PUSH1 0x20 DUP1 SWAP4 DUP4 PUSH3 0x6F0 DUP8 MLOAD SWAP6 DUP7 SWAP4 DUP6 DUP6 ADD SWAP9 DUP10 SWAP2 ADD PUSH3 0x11B5 JUMP JUMPDEST DUP2 ADD SUB DUP1 DUP5 MSTORE ADD DUP3 PUSH3 0x1191 JUMP JUMPDEST MLOAD SWAP1 KECCAK256 DUP2 MLOAD PUSH1 0x20 DUP1 DUP3 ADD SWAP3 SWAP1 SWAP3 MSTORE SWAP1 DUP2 MSTORE SWAP2 DUP3 DUP3 ADD PUSH1 0x1 PUSH1 0x1 PUSH1 0x40 SHL SUB DUP2 GT DUP5 DUP3 LT OR PUSH3 0x899 JUMPI DUP3 MSTORE DUP3 MLOAD PUSH1 0x1 PUSH1 0x1 PUSH1 0x40 SHL SUB DUP2 GT PUSH3 0x899 JUMPI PUSH1 0x1B SLOAD PUSH1 0x1 DUP2 DUP2 SHR SWAP2 AND DUP1 ISZERO PUSH3 0x88E JUMPI JUMPDEST PUSH1 0x20 DUP3 LT EQ PUSH3 0x878 JUMPI PUSH1 0x1F DUP2 GT PUSH3 0x81F JUMPI JUMPDEST POP PUSH1 0x20 PUSH1 0x1F DUP3 GT PUSH1 0x1 EQ PUSH3 0x7A6 JUMPI DUP2 SWAP3 SWAP4 SWAP5 PUSH1 0x0 SWAP3 PUSH3 0x79A JUMPI JUMPDEST POP POP DUP2 PUSH1 0x1 SHL SWAP2 PUSH1 0x0 NOT SWAP1 PUSH1 0x3 SHL SHR NOT AND OR PUSH1 0x1B SSTORE JUMPDEST SWAP1 CODESIZE DUP1 PUSH3 0x61A JUMP JUMPDEST ADD MLOAD SWAP1 POP CODESIZE DUP1 PUSH3 0x77B JUMP JUMPDEST PUSH1 0x1B PUSH1 0x0 SWAP1 DUP2 MSTORE PUSH1 0x0 DUP1 MLOAD PUSH1 0x20 PUSH3 0x619B DUP4 CODECOPY DUP2 MLOAD SWAP2 MSTORE SWAP2 SWAP1 PUSH1 0x1F NOT DUP5 AND SWAP1 JUMPDEST DUP2 DUP2 LT PUSH3 0x806 JUMPI POP SWAP6 DUP4 PUSH1 0x1 SWAP6 SWAP7 SWAP8 LT PUSH3 0x7EC JUMPI JUMPDEST POP POP POP DUP2 SHL ADD PUSH1 0x1B SSTORE PUSH3 0x791 JUMP JUMPDEST ADD MLOAD PUSH1 0x0 NOT PUSH1 0xF8 DUP5 PUSH1 0x3 SHL AND SHR NOT AND SWAP1 SSTORE CODESIZE DUP1 DUP1 PUSH3 0x7DD JUMP JUMPDEST SWAP2 SWAP3 PUSH1 0x20 PUSH1 0x1 DUP2 SWAP3 DUP7 DUP12 ADD MLOAD DUP2 SSTORE ADD SWAP5 ADD SWAP3 ADD PUSH3 0x7C6 JUMP JUMPDEST PUSH1 0x1B PUSH1 0x0 MSTORE PUSH1 0x0 DUP1 MLOAD PUSH1 0x20 PUSH3 0x619B DUP4 CODECOPY DUP2 MLOAD SWAP2 MSTORE PUSH1 0x1F DUP4 ADD PUSH1 0x5 SHR DUP2 ADD SWAP2 PUSH1 0x20 DUP5 LT PUSH3 0x86D JUMPI JUMPDEST PUSH1 0x1F ADD PUSH1 0x5 SHR ADD SWAP1 JUMPDEST DUP2 DUP2 LT PUSH3 0x860 JUMPI POP PUSH3 0x75F JUMP JUMPDEST PUSH1 0x0 DUP2 SSTORE PUSH1 0x1 ADD PUSH3 0x851 JUMP JUMPDEST SWAP1 SWAP2 POP DUP2 SWAP1 PUSH3 0x848 JUMP JUMPDEST PUSH4 0x4E487B71 PUSH1 0xE0 SHL PUSH1 0x0 MSTORE PUSH1 0x22 PUSH1 0x4 MSTORE PUSH1 0x24 PUSH1 0x0 REVERT JUMPDEST SWAP1 PUSH1 0x7F AND SWAP1 PUSH3 0x74B JUMP JUMPDEST PUSH4 0x4E487B71 PUSH1 0xE0 SHL PUSH1 0x0 MSTORE PUSH1 0x41 PUSH1 0x4 MSTORE PUSH1 0x24 PUSH1 0x0 REVERT JUMPDEST PUSH4 0x4E487B71 PUSH1 0xE0 SHL PUSH1 0x0 MSTORE PUSH1 0x11 PUSH1 0x4 MSTORE PUSH1 0x24 PUSH1 0x0 REVERT JUMPDEST SWAP1 POP DUP4 ADD MLOAD CODESIZE PUSH3 0x598 JUMP JUMPDEST PUSH1 0x1A PUSH1 0x0 SWAP1 DUP2 MSTORE PUSH1 0x0 DUP1 MLOAD PUSH1 0x20 PUSH3 0x61DB DUP4 CODECOPY DUP2 MLOAD SWAP2 MSTORE SWAP3 POP PUSH1 0x1F NOT DUP5 AND SWAP1 JUMPDEST DUP2 DUP2 LT PUSH3 0x930 JUMPI POP SWAP1 DUP4 PUSH1 0x1 SWAP5 SWAP4 SWAP3 LT PUSH3 0x916 JUMPI JUMPDEST POP POP DUP2 SHL ADD PUSH1 0x1A SSTORE PUSH3 0x5AD JUMP JUMPDEST DUP6 ADD MLOAD PUSH1 0x0 NOT PUSH1 0xF8 DUP5 PUSH1 0x3 SHL AND SHR NOT AND SWAP1 SSTORE CODESIZE DUP1 PUSH3 0x908 JUMP JUMPDEST SWAP2 SWAP3 PUSH1 0x20 PUSH1 0x1 DUP2 SWAP3 DUP7 DUP11 ADD MLOAD DUP2 SSTORE ADD SWAP5 ADD SWAP3 ADD PUSH3 0x8F1 JUMP JUMPDEST PUSH1 0x1A PUSH1 0x0 MSTORE PUSH1 0x0 DUP1 MLOAD PUSH1 0x20 PUSH3 0x61DB DUP4 CODECOPY DUP2 MLOAD SWAP2 MSTORE PUSH1 0x1F DUP4 ADD PUSH1 0x5 SHR DUP2 ADD SWAP2 PUSH1 0x20 DUP5 LT PUSH3 0x997 JUMPI JUMPDEST PUSH1 0x1F ADD PUSH1 0x5 SHR ADD SWAP1 JUMPDEST DUP2 DUP2 LT PUSH3 0x98A JUMPI POP PUSH3 0x57F JUMP JUMPDEST PUSH1 0x0 DUP2 SSTORE PUSH1 0x1 ADD PUSH3 0x97B JUMP JUMPDEST SWAP1 SWAP2 POP DUP2 SWAP1 PUSH3 0x972 JUMP JUMPDEST SWAP1 PUSH1 0x7F AND SWAP1 PUSH3 0x56B JUMP JUMPDEST ADD MLOAD SWAP1 POP CODESIZE DUP1 PUSH3 0x532 JUMP JUMPDEST PUSH1 0x14 PUSH1 0x0 SWAP1 DUP2 MSTORE PUSH1 0x0 DUP1 MLOAD PUSH1 0x20 PUSH3 0x621B DUP4 CODECOPY DUP2 MLOAD SWAP2 MSTORE SWAP4 POP PUSH1 0x1F NOT DUP6 AND SWAP1 JUMPDEST DUP2 DUP2 LT PUSH3 0xA1A JUMPI POP SWAP1 DUP5 PUSH1 0x1 SWAP6 SWAP5 SWAP4 SWAP3 LT PUSH3 0xA00 JUMPI JUMPDEST POP POP POP DUP2 SHL ADD PUSH1 0x14 SSTORE PUSH3 0x548 JUMP JUMPDEST ADD MLOAD PUSH1 0x0 NOT PUSH1 0xF8 DUP5 PUSH1 0x3 SHL AND SHR NOT AND SWAP1 SSTORE CODESIZE DUP1 DUP1 PUSH3 0x9F1 JUMP JUMPDEST SWAP3 SWAP4 PUSH1 0x20 PUSH1 0x1 DUP2 SWAP3 DUP8 DUP7 ADD MLOAD DUP2 SSTORE ADD SWAP6 ADD SWAP4 ADD PUSH3 0x9D9 JUMP JUMPDEST PUSH1 0x14 PUSH1 0x0 MSTORE SWAP1 SWAP2 POP PUSH1 0x0 DUP1 MLOAD PUSH1 0x20 PUSH3 0x621B DUP4 CODECOPY DUP2 MLOAD SWAP2 MSTORE PUSH1 0x1F DUP5 ADD PUSH1 0x5 SHR DUP2 ADD SWAP2 PUSH1 0x20 DUP6 LT PUSH3 0xA8C JUMPI JUMPDEST SWAP1 PUSH1 0x1F DUP6 SWAP5 SWAP4 SWAP3 ADD PUSH1 0x5 SHR ADD SWAP1 JUMPDEST DUP2 DUP2 LT PUSH3 0xA7C JUMPI POP PUSH3 0x519 JUMP JUMPDEST PUSH1 0x0 DUP2 SSTORE DUP5 SWAP4 POP PUSH1 0x1 ADD PUSH3 0xA6D JUMP JUMPDEST SWAP1 SWAP2 POP DUP2 SWAP1 PUSH3 0xA5F JUMP JUMPDEST SWAP2 PUSH1 0x7F AND SWAP2 PUSH3 0x503 JUMP JUMPDEST ADD MLOAD SWAP1 POP CODESIZE DUP1 PUSH3 0x4C8 JUMP JUMPDEST PUSH1 0x13 PUSH1 0x0 SWAP1 DUP2 MSTORE PUSH1 0x0 DUP1 MLOAD PUSH1 0x20 PUSH3 0x61BB DUP4 CODECOPY DUP2 MLOAD SWAP2 MSTORE SWAP4 POP PUSH1 0x1F NOT DUP6 AND SWAP1 JUMPDEST DUP2 DUP2 LT PUSH3 0xB0F JUMPI POP SWAP1 DUP5 PUSH1 0x1 SWAP6 SWAP5 SWAP4 SWAP3 LT PUSH3 0xAF5 JUMPI JUMPDEST POP POP POP DUP2 SHL ADD PUSH1 0x13 SSTORE PUSH3 0x4DE JUMP JUMPDEST ADD MLOAD PUSH1 0x0 NOT PUSH1 0xF8 DUP5 PUSH1 0x3 SHL AND SHR NOT AND SWAP1 SSTORE CODESIZE DUP1 DUP1 PUSH3 0xAE6 JUMP JUMPDEST SWAP3 SWAP4 PUSH1 0x20 PUSH1 0x1 DUP2 SWAP3 DUP8 DUP7 ADD MLOAD DUP2 SSTORE ADD SWAP6 ADD SWAP4 ADD PUSH3 0xACE JUMP JUMPDEST PUSH1 0x13 PUSH1 0x0 MSTORE SWAP1 SWAP2 POP PUSH1 0x0 DUP1 MLOAD PUSH1 0x20 PUSH3 0x61BB DUP4 CODECOPY DUP2 MLOAD SWAP2 MSTORE PUSH1 0x1F DUP5 ADD PUSH1 0x5 SHR DUP2 ADD SWAP2 PUSH1 0x20 DUP6 LT PUSH3 0xB81 JUMPI JUMPDEST SWAP1 PUSH1 0x1F DUP6 SWAP5 SWAP4 SWAP3 ADD PUSH1 0x5 SHR ADD SWAP1 JUMPDEST DUP2 DUP2 LT PUSH3 0xB71 JUMPI POP PUSH3 0x4AF JUMP JUMPDEST PUSH1 0x0 DUP2 SSTORE DUP5 SWAP4 POP PUSH1 0x1 ADD PUSH3 0xB62 JUMP JUMPDEST SWAP1 SWAP2 POP DUP2 SWAP1 PUSH3 0xB54 JUMP JUMPDEST SWAP2 PUSH1 0x7F AND SWAP2 PUSH3 0x499 JUMP JUMPDEST ADD MLOAD SWAP1 POP CODESIZE DUP1 PUSH3 0x45E JUMP JUMPDEST PUSH1 0x12 PUSH1 0x0 SWAP1 DUP2 MSTORE SWAP4 POP PUSH1 0x0 DUP1 MLOAD PUSH1 0x20 PUSH3 0x613B DUP4 CODECOPY DUP2 MLOAD SWAP2 MSTORE SWAP2 SWAP1 JUMPDEST PUSH1 0x1F NOT DUP5 AND DUP6 LT PUSH3 0xC05 JUMPI PUSH1 0x1 SWAP5 POP DUP4 PUSH1 0x1F NOT DUP2 AND LT PUSH3 0xBEB JUMPI JUMPDEST POP POP POP DUP2 SHL ADD PUSH1 0x12 SSTORE PUSH3 0x474 JUMP JUMPDEST ADD MLOAD PUSH1 0x0 NOT PUSH1 0xF8 DUP5 PUSH1 0x3 SHL AND SHR NOT AND SWAP1 SSTORE CODESIZE DUP1 DUP1 PUSH3 0xBDC JUMP JUMPDEST DUP2 DUP2 ADD MLOAD DUP4 SSTORE PUSH1 0x20 SWAP5 DUP6 ADD SWAP5 PUSH1 0x1 SWAP1 SWAP4 ADD SWAP3 SWAP1 SWAP2 ADD SWAP1 PUSH3 0xBBF JUMP JUMPDEST PUSH1 0x12 PUSH1 0x0 MSTORE SWAP1 SWAP2 POP PUSH1 0x0 DUP1 MLOAD PUSH1 0x20 PUSH3 0x613B DUP4 CODECOPY DUP2 MLOAD SWAP2 MSTORE PUSH1 0x1F DUP5 ADD PUSH1 0x5 SHR DUP2 ADD SWAP2 PUSH1 0x20 DUP6 LT PUSH3 0xC7A JUMPI JUMPDEST SWAP1 PUSH1 0x1F DUP6 SWAP5 SWAP4 SWAP3 ADD PUSH1 0x5 SHR ADD SWAP1 JUMPDEST DUP2 DUP2 LT PUSH3 0xC6A JUMPI POP PUSH3 0x445 JUMP JUMPDEST PUSH1 0x0 DUP2 SSTORE DUP5 SWAP4 POP PUSH1 0x1 ADD PUSH3 0xC5B JUMP JUMPDEST SWAP1 SWAP2 POP DUP2 SWAP1 PUSH3 0xC4D JUMP JUMPDEST SWAP2 PUSH1 0x7F AND SWAP2 PUSH3 0x42F JUMP JUMPDEST ADD MLOAD SWAP1 POP CODESIZE DUP1 PUSH3 0x3F4 JUMP JUMPDEST PUSH1 0x11 PUSH1 0x0 SWAP1 DUP2 MSTORE SWAP4 POP PUSH1 0x0 DUP1 MLOAD PUSH1 0x20 PUSH3 0x615B DUP4 CODECOPY DUP2 MLOAD SWAP2 MSTORE SWAP2 SWAP1 JUMPDEST PUSH1 0x1F NOT DUP5 AND DUP6 LT PUSH3 0xCFE JUMPI PUSH1 0x1 SWAP5 POP DUP4 PUSH1 0x1F NOT DUP2 AND LT PUSH3 0xCE4 JUMPI JUMPDEST POP POP POP DUP2 SHL ADD PUSH1 0x11 SSTORE PUSH3 0x40A JUMP JUMPDEST ADD MLOAD PUSH1 0x0 NOT PUSH1 0xF8 DUP5 PUSH1 0x3 SHL AND SHR NOT AND SWAP1 SSTORE CODESIZE DUP1 DUP1 PUSH3 0xCD5 JUMP JUMPDEST DUP2 DUP2 ADD MLOAD DUP4 SSTORE PUSH1 0x20 SWAP5 DUP6 ADD SWAP5 PUSH1 0x1 SWAP1 SWAP4 ADD SWAP3 SWAP1 SWAP2 ADD SWAP1 PUSH3 0xCB8 JUMP JUMPDEST PUSH1 0x11 PUSH1 0x0 MSTORE SWAP1 SWAP2 POP PUSH1 0x0 DUP1 MLOAD PUSH1 0x20 PUSH3 0x615B DUP4 CODECOPY DUP2 MLOAD SWAP2 MSTORE PUSH1 0x1F DUP5 ADD PUSH1 0x5 SHR DUP2 ADD PUSH1 0x20 DUP6 LT PUSH3 0xD73 JUMPI JUMPDEST SWAP1 DUP5 SWAP4 SWAP3 SWAP2 JUMPDEST PUSH1 0x1F DUP4 ADD PUSH1 0x5 SHR DUP3 ADD DUP2 LT PUSH3 0xD63 JUMPI POP POP PUSH3 0x3DB JUMP JUMPDEST PUSH1 0x0 DUP2 SSTORE DUP6 SWAP5 POP PUSH1 0x1 ADD PUSH3 0xD4B JUMP JUMPDEST POP DUP1 PUSH3 0xD45 JUMP JUMPDEST SWAP2 PUSH1 0x7F AND SWAP2 PUSH3 0x3C5 JUMP JUMPDEST ADD MLOAD SWAP1 POP CODESIZE DUP1 PUSH3 0x385 JUMP JUMPDEST PUSH1 0x19 PUSH1 0x0 SWAP1 DUP2 MSTORE SWAP4 POP PUSH32 0x944998273E477B495144FB8794C914197F3CCB46BE2900F4698FD0EF743C9695 SWAP2 SWAP1 JUMPDEST PUSH1 0x1F NOT DUP5 AND DUP6 LT PUSH3 0xE05 JUMPI PUSH1 0x1 SWAP5 POP DUP4 PUSH1 0x1F NOT DUP2 AND LT PUSH3 0xDEB JUMPI JUMPDEST POP POP POP DUP2 SHL ADD PUSH1 0x19 SSTORE PUSH3 0x39B JUMP JUMPDEST ADD MLOAD PUSH1 0x0 NOT PUSH1 0xF8 DUP5 PUSH1 0x3 SHL AND SHR NOT AND SWAP1 SSTORE CODESIZE DUP1 DUP1 PUSH3 0xDDC JUMP JUMPDEST DUP2 DUP2 ADD MLOAD DUP4 SSTORE PUSH1 0x20 SWAP5 DUP6 ADD SWAP5 PUSH1 0x1 SWAP1 SWAP4 ADD SWAP3 SWAP1 SWAP2 ADD SWAP1 PUSH3 0xDBF JUMP JUMPDEST PUSH1 0x19 PUSH1 0x0 MSTORE SWAP1 SWAP2 POP PUSH32 0x944998273E477B495144FB8794C914197F3CCB46BE2900F4698FD0EF743C9695 PUSH1 0x1F DUP5 ADD PUSH1 0x5 SHR DUP2 ADD PUSH1 0x20 DUP6 LT PUSH3 0xE8B JUMPI JUMPDEST SWAP1 DUP5 SWAP4 SWAP3 SWAP2 JUMPDEST PUSH1 0x1F DUP4 ADD PUSH1 0x5 SHR DUP3 ADD DUP2 LT PUSH3 0xE7B JUMPI POP POP PUSH3 0x36C JUMP JUMPDEST PUSH1 0x0 DUP2 SSTORE DUP6 SWAP5 POP PUSH1 0x1 ADD PUSH3 0xE63 JUMP JUMPDEST POP DUP1 PUSH3 0xE5D JUMP JUMPDEST SWAP2 PUSH1 0x7F AND SWAP2 PUSH3 0x356 JUMP JUMPDEST ADD MLOAD SWAP1 POP CODESIZE DUP1 PUSH3 0x31B JUMP JUMPDEST PUSH1 0xF PUSH1 0x0 SWAP1 DUP2 MSTORE SWAP4 POP PUSH1 0x0 DUP1 MLOAD PUSH1 0x20 PUSH3 0x623B DUP4 CODECOPY DUP2 MLOAD SWAP2 MSTORE SWAP2 SWAP1 JUMPDEST PUSH1 0x1F NOT DUP5 AND DUP6 LT PUSH3 0xF0C JUMPI PUSH1 0x1 SWAP5 POP DUP4 PUSH1 0x1F NOT DUP2 AND LT PUSH3 0xEF2 JUMPI JUMPDEST POP POP POP DUP2 SHL ADD PUSH1 0xF SSTORE PUSH3 0x331 JUMP JUMPDEST ADD MLOAD PUSH1 0x0 NOT PUSH1 0xF8 DUP5 PUSH1 0x3 SHL AND SHR NOT AND SWAP1 SSTORE CODESIZE DUP1 DUP1 PUSH3 0xEE3 JUMP JUMPDEST DUP2 DUP2 ADD MLOAD DUP4 SSTORE PUSH1 0x20 SWAP5 DUP6 ADD SWAP5 PUSH1 0x1 SWAP1 SWAP4 ADD SWAP3 SWAP1 SWAP2 ADD SWAP1 PUSH3 0xEC6 JUMP JUMPDEST PUSH1 0xF PUSH1 0x0 MSTORE SWAP1 SWAP2 POP PUSH1 0x0 DUP1 MLOAD PUSH1 0x20 PUSH3 0x623B DUP4 CODECOPY DUP2 MLOAD SWAP2 MSTORE PUSH1 0x1F DUP5 ADD PUSH1 0x5 SHR DUP2 ADD PUSH1 0x20 DUP6 LT PUSH3 0xF81 JUMPI JUMPDEST SWAP1 DUP5 SWAP4 SWAP3 SWAP2 JUMPDEST PUSH1 0x1F DUP4 ADD PUSH1 0x5 SHR DUP3 ADD DUP2 LT PUSH3 0xF71 JUMPI POP POP PUSH3 0x302 JUMP JUMPDEST PUSH1 0x0 DUP2 SSTORE DUP6 SWAP5 POP PUSH1 0x1 ADD PUSH3 0xF59 JUMP JUMPDEST POP DUP1 PUSH3 0xF53 JUMP JUMPDEST SWAP2 PUSH1 0x7F AND SWAP2 PUSH3 0x2EC JUMP JUMPDEST DUP11 MLOAD PUSH4 0x1E4FBDF7 PUSH1 0xE0 SHL DUP2 MSTORE PUSH1 0x0 PUSH1 0x4 DUP3 ADD MSTORE PUSH1 0x24 SWAP1 REVERT JUMPDEST ADD MLOAD SWAP1 POP CODESIZE DUP1 PUSH3 0x261 JUMP JUMPDEST PUSH1 0x1 PUSH1 0x0 SWAP1 DUP2 MSTORE PUSH1 0x0 DUP1 MLOAD PUSH1 0x20 PUSH3 0x61FB DUP4 CODECOPY DUP2 MLOAD SWAP2 MSTORE SWAP4 POP PUSH1 0x1F NOT DUP6 AND SWAP1 JUMPDEST DUP2 DUP2 LT PUSH3 0x1019 JUMPI POP SWAP1 DUP5 PUSH1 0x1 SWAP6 SWAP5 SWAP4 SWAP3 LT PUSH3 0xFFF JUMPI JUMPDEST POP POP POP DUP2 SHL ADD PUSH1 0x1 SSTORE PUSH3 0x277 JUMP JUMPDEST ADD MLOAD PUSH1 0x0 NOT PUSH1 0xF8 DUP5 PUSH1 0x3 SHL AND SHR NOT AND SWAP1 SSTORE CODESIZE DUP1 DUP1 PUSH3 0xFF0 JUMP JUMPDEST SWAP3 SWAP4 PUSH1 0x20 PUSH1 0x1 DUP2 SWAP3 DUP8 DUP7 ADD MLOAD DUP2 SSTORE ADD SWAP6 ADD SWAP4 ADD PUSH3 0xFD8 JUMP JUMPDEST PUSH1 0x1 PUSH1 0x0 MSTORE SWAP1 SWAP2 POP PUSH1 0x0 DUP1 MLOAD PUSH1 0x20 PUSH3 0x61FB DUP4 CODECOPY DUP2 MLOAD SWAP2 MSTORE PUSH1 0x1F DUP5 ADD PUSH1 0x5 SHR DUP2 ADD PUSH1 0x20 DUP6 LT PUSH3 0x108B JUMPI JUMPDEST SWAP1 DUP5 SWAP4 SWAP3 SWAP2 JUMPDEST PUSH1 0x1F DUP4 ADD PUSH1 0x5 SHR DUP3 ADD DUP2 LT PUSH3 0x107B JUMPI POP POP PUSH3 0x248 JUMP JUMPDEST PUSH1 0x0 DUP2 SSTORE DUP6 SWAP5 POP PUSH1 0x1 ADD PUSH3 0x1063 JUMP JUMPDEST POP DUP1 PUSH3 0x105D JUMP JUMPDEST SWAP2 PUSH1 0x7F AND SWAP2 PUSH3 0x232 JUMP JUMPDEST ADD MLOAD SWAP1 POP CODESIZE DUP1 PUSH3 0x1F7 JUMP JUMPDEST PUSH1 0x0 DUP1 DUP1 MSTORE SWAP4 POP PUSH1 0x0 DUP1 MLOAD PUSH1 0x20 PUSH3 0x617B DUP4 CODECOPY DUP2 MLOAD SWAP2 MSTORE SWAP2 SWAP1 JUMPDEST PUSH1 0x1F NOT DUP5 AND DUP6 LT PUSH3 0x110A JUMPI PUSH1 0x1 SWAP5 POP DUP4 PUSH1 0x1F NOT DUP2 AND LT PUSH3 0x10F0 JUMPI JUMPDEST POP POP POP DUP2 SHL ADD PUSH1 0x0 SSTORE PUSH3 0x20D JUMP JUMPDEST ADD MLOAD PUSH1 0x0 NOT PUSH1 0xF8 DUP5 PUSH1 0x3 SHL AND SHR NOT AND SWAP1 SSTORE CODESIZE DUP1 DUP1 PUSH3 0x10E1 JUMP JUMPDEST DUP2 DUP2 ADD MLOAD DUP4 SSTORE PUSH1 0x20 SWAP5 DUP6 ADD SWAP5 PUSH1 0x1 SWAP1 SWAP4 ADD SWAP3 SWAP1 SWAP2 ADD SWAP1 PUSH3 0x10C4 JUMP JUMPDEST PUSH1 0x0 DUP1 MSTORE SWAP1 SWAP2 POP PUSH1 0x0 DUP1 MLOAD PUSH1 0x20 PUSH3 0x617B DUP4 CODECOPY DUP2 MLOAD SWAP2 MSTORE PUSH1 0x1F DUP5 ADD PUSH1 0x5 SHR DUP2 ADD PUSH1 0x20 DUP6 LT PUSH3 0x117E JUMPI JUMPDEST SWAP1 DUP5 SWAP4 SWAP3 SWAP2 JUMPDEST PUSH1 0x1F DUP4 ADD PUSH1 0x5 SHR DUP3 ADD DUP2 LT PUSH3 0x116E JUMPI POP POP PUSH3 0x1DE JUMP JUMPDEST PUSH1 0x0 DUP2 SSTORE DUP6 SWAP5 POP PUSH1 0x1 ADD PUSH3 0x1156 JUMP JUMPDEST POP DUP1 PUSH3 0x1150 JUMP JUMPDEST SWAP2 PUSH1 0x7F AND SWAP2 PUSH3 0x1C8 JUMP JUMPDEST PUSH1 0x1F SWAP1 SWAP2 ADD PUSH1 0x1F NOT AND DUP2 ADD SWAP1 PUSH1 0x1 PUSH1 0x1 PUSH1 0x40 SHL SUB DUP3 GT SWAP1 DUP3 LT OR PUSH3 0x899 JUMPI PUSH1 0x40 MSTORE JUMP JUMPDEST PUSH1 0x0 JUMPDEST DUP4 DUP2 LT PUSH3 0x11C9 JUMPI POP POP PUSH1 0x0 SWAP2 ADD MSTORE JUMP JUMPDEST DUP2 DUP2 ADD MLOAD DUP4 DUP3 ADD MSTORE PUSH1 0x20 ADD PUSH3 0x11B8 JUMP JUMPDEST DUP2 PUSH1 0x1F DUP3 ADD SLT ISZERO PUSH3 0x6C2 JUMPI DUP1 MLOAD PUSH1 0x1 PUSH1 0x1 PUSH1 0x40 SHL SUB DUP2 GT PUSH3 0x899 JUMPI PUSH1 0x40 MLOAD SWAP3 PUSH3 0x1211 PUSH1 0x1F DUP4 ADD PUSH1 0x1F NOT AND PUSH1 0x20 ADD DUP6 PUSH3 0x1191 JUMP JUMPDEST DUP2 DUP5 MSTORE PUSH1 0x20 DUP3 DUP5 ADD ADD GT PUSH3 0x6C2 JUMPI PUSH3 0x1232 SWAP2 PUSH1 0x20 DUP1 DUP6 ADD SWAP2 ADD PUSH3 0x11B5 JUMP JUMPDEST SWAP1 JUMP INVALID PUSH1 0x80 PUSH1 0x40 MSTORE PUSH1 0x4 CALLDATASIZE LT ISZERO PUSH2 0x12 JUMPI PUSH1 0x0 DUP1 REVERT JUMPDEST PUSH1 0x0 CALLDATALOAD PUSH1 0xE0 SHR DUP1 PUSH4 0x1FFC9A7 EQ PUSH2 0x4F7 JUMPI DUP1 PUSH4 0x20FE6E5 EQ PUSH2 0x4F2 JUMPI DUP1 PUSH4 0x5CCFD33 EQ PUSH2 0x4ED JUMPI DUP1 PUSH4 0x6FDDE03 EQ PUSH2 0x4E8 JUMPI DUP1 PUSH4 0x81812FC EQ PUSH2 0x4E3 JUMPI DUP1 PUSH4 0x89CDD0C EQ PUSH2 0x4DE JUMPI DUP1 PUSH4 0x95EA7B3 EQ PUSH2 0x4D9 JUMPI DUP1 PUSH4 0xBEB11B7 EQ PUSH2 0x4D4 JUMPI DUP1 PUSH4 0x10409CB2 EQ PUSH2 0x4CF JUMPI DUP1 PUSH4 0x105FD61F EQ PUSH2 0x4CA JUMPI DUP1 PUSH4 0x1209B1F6 EQ PUSH2 0x4C5 JUMPI DUP1 PUSH4 0x18160DDD EQ PUSH2 0x4C0 JUMPI DUP1 PUSH4 0x1FEEAF74 EQ PUSH2 0x4BB JUMPI DUP1 PUSH4 0x23B872DD EQ PUSH2 0x4B6 JUMPI DUP1 PUSH4 0x24600FC3 EQ PUSH2 0x4B1 JUMPI DUP1 PUSH4 0x24C14160 EQ PUSH2 0x4AC JUMPI DUP1 PUSH4 0x25FF167E EQ PUSH2 0x4A7 JUMPI DUP1 PUSH4 0x26606448 EQ PUSH2 0x4A2 JUMPI DUP1 PUSH4 0x2A55205A EQ PUSH2 0x49D JUMPI DUP1 PUSH4 0x2C8CC6F7 EQ PUSH2 0x498 JUMPI DUP1 PUSH4 0x2CD1D35C EQ PUSH2 0x493 JUMPI DUP1 PUSH4 0x2F745C59 EQ PUSH2 0x48E JUMPI DUP1 PUSH4 0x40398D67 EQ PUSH2 0x489 JUMPI DUP1 PUSH4 0x42842E0E EQ PUSH2 0x484 JUMPI DUP1 PUSH4 0x4BC46A82 EQ PUSH2 0x47F JUMPI DUP1 PUSH4 0x4BFBE5DF EQ PUSH2 0x47A JUMPI DUP1 PUSH4 0x4F6CCCE7 EQ PUSH2 0x475 JUMPI DUP1 PUSH4 0x532F1179 EQ PUSH2 0x470 JUMPI DUP1 PUSH4 0x55866C8D EQ PUSH2 0x46B JUMPI DUP1 PUSH4 0x55C85457 EQ PUSH2 0x466 JUMPI DUP1 PUSH4 0x573C80FA EQ PUSH2 0x461 JUMPI DUP1 PUSH4 0x5E7BFD12 EQ PUSH2 0x45C JUMPI DUP1 PUSH4 0x61203265 EQ PUSH2 0x457 JUMPI DUP1 PUSH4 0x61D73ADB EQ PUSH2 0x452 JUMPI DUP1 PUSH4 0x6352211E EQ PUSH2 0x44D JUMPI DUP1 PUSH4 0x646C2E33 EQ PUSH2 0x448 JUMPI DUP1 PUSH4 0x649FA01F EQ PUSH2 0x443 JUMPI DUP1 PUSH4 0x684E78DD EQ PUSH2 0x43E JUMPI DUP1 PUSH4 0x69AE3DFA EQ PUSH2 0x439 JUMPI DUP1 PUSH4 0x69BA4F68 EQ PUSH2 0x434 JUMPI DUP1 PUSH4 0x6C155769 EQ PUSH2 0x42F JUMPI DUP1 PUSH4 0x6D00FA68 EQ PUSH2 0x42A JUMPI DUP1 PUSH4 0x70A08231 EQ PUSH2 0x425 JUMPI DUP1 PUSH4 0x715018A6 EQ PUSH2 0x420 JUMPI DUP1 PUSH4 0x77A4D559 EQ PUSH2 0x41B JUMPI DUP1 PUSH4 0x8043C9C0 EQ PUSH2 0x416 JUMPI DUP1 PUSH4 0x870C8F26 EQ PUSH2 0x411 JUMPI DUP1 PUSH4 0x8DA5CB5B EQ PUSH2 0x40C JUMPI DUP1 PUSH4 0x8E61F85F EQ PUSH2 0x407 JUMPI DUP1 PUSH4 0x93D28635 EQ PUSH2 0x402 JUMPI DUP1 PUSH4 0x9434571B EQ PUSH2 0x3FD JUMPI DUP1 PUSH4 0x95D89B41 EQ PUSH2 0x3F8 JUMPI DUP1 PUSH4 0x9C378D80 EQ PUSH2 0x3F3 JUMPI DUP1 PUSH4 0x9E408D4C EQ PUSH2 0x3EE JUMPI DUP1 PUSH4 0x9F67756D EQ PUSH2 0x3E9 JUMPI DUP1 PUSH4 0xA22CB465 EQ PUSH2 0x3E4 JUMPI DUP1 PUSH4 0xA73ABBC2 EQ PUSH2 0x3DF JUMPI DUP1 PUSH4 0xAC307FCF EQ PUSH2 0x3DA JUMPI DUP1 PUSH4 0xB40F2989 EQ PUSH2 0x3D5 JUMPI DUP1 PUSH4 0xB5545A3C EQ PUSH2 0x3D0 JUMPI DUP1 PUSH4 0xB5E5F51B EQ PUSH2 0x3CB JUMPI DUP1 PUSH4 0xB88D4FDE EQ PUSH2 0x3C6 JUMPI DUP1 PUSH4 0xB963F8CA EQ PUSH2 0x3C1 JUMPI DUP1 PUSH4 0xBA0AE43C EQ PUSH2 0x3BC JUMPI DUP1 PUSH4 0xC0AF2346 EQ PUSH2 0x3B7 JUMPI DUP1 PUSH4 0xC87B56DD EQ PUSH2 0x3B2 JUMPI DUP1 PUSH4 0xD5ABEB01 EQ PUSH2 0x3AD JUMPI DUP1 PUSH4 0xDA649E6B EQ PUSH2 0x3A8 JUMPI DUP1 PUSH4 0xDEF3AD67 EQ PUSH2 0x3A3 JUMPI DUP1 PUSH4 0xE18B057D EQ PUSH2 0x39E JUMPI DUP1 PUSH4 0xE1A494D1 EQ PUSH2 0x399 JUMPI DUP1 PUSH4 0xE1AA1BCC EQ PUSH2 0x394 JUMPI DUP1 PUSH4 0xE22BDA35 EQ PUSH2 0x38F JUMPI DUP1 PUSH4 0xE2BB3CCF EQ PUSH2 0x38A JUMPI DUP1 PUSH4 0xE985E9C5 EQ PUSH2 0x385 JUMPI DUP1 PUSH4 0xEB7B7006 EQ PUSH2 0x380 JUMPI DUP1 PUSH4 0xF2FDE38B EQ PUSH2 0x37B JUMPI PUSH4 0xFB6C9537 EQ PUSH2 0x376 JUMPI PUSH1 0x0 DUP1 REVERT JUMPDEST PUSH2 0x33F3 JUMP JUMPDEST PUSH2 0x336A JUMP JUMPDEST PUSH2 0x332D JUMP JUMPDEST PUSH2 0x32D0 JUMP JUMPDEST PUSH2 0x320A JUMP JUMPDEST PUSH2 0x3110 JUMP JUMPDEST PUSH2 0x30F2 JUMP JUMPDEST PUSH2 0x30CF JUMP JUMPDEST PUSH2 0x3090 JUMP JUMPDEST PUSH2 0x305C JUMP JUMPDEST PUSH2 0x3031 JUMP JUMPDEST PUSH2 0x3013 JUMP JUMPDEST PUSH2 0x2FF4 JUMP JUMPDEST PUSH2 0x2EF6 JUMP JUMPDEST PUSH2 0x2E67 JUMP JUMPDEST PUSH2 0x2E0C JUMP JUMPDEST PUSH2 0x2DA7 JUMP JUMPDEST PUSH2 0x2CF3 JUMP JUMPDEST PUSH2 0x2AE4 JUMP JUMPDEST PUSH2 0x2ABE JUMP JUMPDEST PUSH2 0x2A9B JUMP JUMPDEST PUSH2 0x2A7D JUMP JUMPDEST PUSH2 0x29C0 JUMP JUMPDEST PUSH2 0x2999 JUMP JUMPDEST PUSH2 0x296E JUMP JUMPDEST PUSH2 0x2804 JUMP JUMPDEST PUSH2 0x275D JUMP JUMPDEST PUSH2 0x26C1 JUMP JUMPDEST PUSH2 0x2613 JUMP JUMPDEST PUSH2 0x25F5 JUMP JUMPDEST PUSH2 0x25CC JUMP JUMPDEST PUSH2 0x246A JUMP JUMPDEST PUSH2 0x2446 JUMP JUMPDEST PUSH2 0x23AA JUMP JUMPDEST PUSH2 0x234C JUMP JUMPDEST PUSH2 0x2329 JUMP JUMPDEST PUSH2 0x2213 JUMP JUMPDEST PUSH2 0x21A4 JUMP JUMPDEST PUSH2 0x20F6 JUMP JUMPDEST PUSH2 0x20D8 JUMP JUMPDEST PUSH2 0x20B4 JUMP JUMPDEST PUSH2 0x2098 JUMP JUMPDEST PUSH2 0x1FB3 JUMP JUMPDEST PUSH2 0x1F83 JUMP JUMPDEST PUSH2 0x1ED4 JUMP JUMPDEST PUSH2 0x1EAB JUMP JUMPDEST PUSH2 0x1E87 JUMP JUMPDEST PUSH2 0x1CBA JUMP JUMPDEST PUSH2 0x1C69 JUMP JUMPDEST PUSH2 0x16EE JUMP JUMPDEST PUSH2 0x16CB JUMP JUMPDEST PUSH2 0x165B JUMP JUMPDEST PUSH2 0x163D JUMP JUMPDEST PUSH2 0x15A0 JUMP JUMPDEST PUSH2 0x156C JUMP JUMPDEST PUSH2 0x1502 JUMP JUMPDEST PUSH2 0x14D3 JUMP JUMPDEST PUSH2 0x147F JUMP JUMPDEST PUSH2 0x1445 JUMP JUMPDEST PUSH2 0x13F2 JUMP JUMPDEST PUSH2 0x1311 JUMP JUMPDEST PUSH2 0x128E JUMP JUMPDEST PUSH2 0x11B2 JUMP JUMPDEST PUSH2 0xFD2 JUMP JUMPDEST PUSH2 0xFBB JUMP JUMPDEST PUSH2 0xE88 JUMP JUMPDEST PUSH2 0xE6A JUMP JUMPDEST PUSH2 0xE4C JUMP JUMPDEST PUSH2 0xC51 JUMP JUMPDEST PUSH2 0xB92 JUMP JUMPDEST PUSH2 0xAE6 JUMP JUMPDEST PUSH2 0x9E7 JUMP JUMPDEST PUSH2 0x99D JUMP JUMPDEST PUSH2 0x95F JUMP JUMPDEST PUSH2 0x878 JUMP JUMPDEST PUSH2 0x6FB JUMP JUMPDEST PUSH2 0x5B5 JUMP JUMPDEST PUSH2 0x513 JUMP JUMPDEST PUSH1 0x1 PUSH1 0x1 PUSH1 0xE0 SHL SUB NOT DUP2 AND SUB PUSH2 0x50E JUMPI JUMP JUMPDEST PUSH1 0x0 DUP1 REVERT JUMPDEST CALLVALUE PUSH2 0x50E JUMPI PUSH1 0x20 CALLDATASIZE PUSH1 0x3 NOT ADD SLT PUSH2 0x50E JUMPI PUSH1 0x20 PUSH1 0x4 CALLDATALOAD PUSH2 0x532 DUP2 PUSH2 0x4FC JUMP JUMPDEST PUSH4 0xFFFFFFFF PUSH1 0xE0 SHL AND PUSH4 0x152A902D PUSH1 0xE1 SHL DUP2 EQ SWAP1 DUP2 ISZERO PUSH2 0x558 JUMPI JUMPDEST POP PUSH1 0x40 MLOAD SWAP1 ISZERO ISZERO DUP2 MSTORE RETURN JUMPDEST PUSH4 0x780E9D63 PUSH1 0xE0 SHL DUP2 EQ SWAP2 POP DUP2 ISZERO PUSH2 0x572 JUMPI JUMPDEST POP CODESIZE PUSH2 0x54D JUMP JUMPDEST PUSH4 0x80AC58CD PUSH1 0xE0 SHL DUP2 EQ SWAP2 POP DUP2 ISZERO PUSH2 0x5A4 JUMPI JUMPDEST DUP2 ISZERO PUSH2 0x593 JUMPI JUMPDEST POP CODESIZE PUSH2 0x56B JUMP JUMPDEST PUSH4 0x1FFC9A7 PUSH1 0xE0 SHL EQ SWAP1 POP CODESIZE PUSH2 0x58C JUMP JUMPDEST PUSH4 0x5B5E139F PUSH1 0xE0 SHL DUP2 EQ SWAP2 POP PUSH2 0x585 JUMP JUMPDEST CALLVALUE PUSH2 0x50E JUMPI PUSH1 0x20 CALLDATASIZE PUSH1 0x3 NOT ADD SLT PUSH2 0x50E JUMPI PUSH1 0x4 CALLDATALOAD PUSH1 0x0 MSTORE PUSH1 0x1D PUSH1 0x20 MSTORE PUSH1 0x20 PUSH1 0xFF PUSH1 0x40 PUSH1 0x0 KECCAK256 SLOAD AND PUSH1 0x40 MLOAD SWAP1 ISZERO ISZERO DUP2 MSTORE RETURN JUMPDEST PUSH4 0x4E487B71 PUSH1 0xE0 SHL PUSH1 0x0 MSTORE PUSH1 0x41 PUSH1 0x4 MSTORE PUSH1 0x24 PUSH1 0x0 REVERT JUMPDEST PUSH1 0x1 PUSH1 0x1 PUSH1 0x40 SHL SUB DUP2 GT PUSH2 0x60F JUMPI PUSH1 0x40 MSTORE JUMP JUMPDEST PUSH2 0x5E6 JUMP JUMPDEST PUSH1 0x20 DUP2 ADD SWAP1 DUP2 LT PUSH1 0x1 PUSH1 0x1 PUSH1 0x40 SHL SUB DUP3 GT OR PUSH2 0x60F JUMPI PUSH1 0x40 MSTORE JUMP JUMPDEST PUSH1 0x40 DUP2 ADD SWAP1 DUP2 LT PUSH1 0x1 PUSH1 0x1 PUSH1 0x40 SHL SUB DUP3 GT OR PUSH2 0x60F JUMPI PUSH1 0x40 MSTORE JUMP JUMPDEST SWAP1 PUSH1 0x1F DUP1 NOT SWAP2 ADD AND DUP2 ADD SWAP1 DUP2 LT PUSH1 0x1 PUSH1 0x1 PUSH1 0x40 SHL SUB DUP3 GT OR PUSH2 0x60F JUMPI PUSH1 0x40 MSTORE JUMP JUMPDEST PUSH1 0x1 PUSH1 0x1 PUSH1 0x40 SHL SUB DUP2 GT PUSH2 0x60F JUMPI PUSH1 0x1F ADD PUSH1 0x1F NOT AND PUSH1 0x20 ADD SWAP1 JUMP JUMPDEST SWAP3 SWAP2 SWAP3 PUSH2 0x692 DUP3 PUSH2 0x66B JUMP JUMPDEST SWAP2 PUSH2 0x6A0 PUSH1 0x40 MLOAD SWAP4 DUP5 PUSH2 0x64A JUMP JUMPDEST DUP3 SWAP5 DUP2 DUP5 MSTORE DUP2 DUP4 ADD GT PUSH2 0x50E JUMPI DUP3 DUP2 PUSH1 0x20 SWAP4 DUP5 PUSH1 0x0 SWAP7 ADD CALLDATACOPY ADD ADD MSTORE JUMP JUMPDEST PUSH1 0x20 PUSH1 0x3 NOT DUP3 ADD SLT PUSH2 0x50E JUMPI PUSH1 0x4 CALLDATALOAD SWAP1 PUSH1 0x1 PUSH1 0x1 PUSH1 0x40 SHL SUB DUP3 GT PUSH2 0x50E JUMPI DUP1 PUSH1 0x23 DUP4 ADD SLT ISZERO PUSH2 0x50E JUMPI DUP2 PUSH1 0x24 PUSH2 0x6F8 SWAP4 PUSH1 0x4 ADD CALLDATALOAD SWAP2 ADD PUSH2 0x686 JUMP JUMPDEST SWAP1 JUMP JUMPDEST CALLVALUE PUSH2 0x50E JUMPI PUSH2 0x709 CALLDATASIZE PUSH2 0x6BD JUMP JUMPDEST PUSH1 0xD SLOAD PUSH2 0x72B SWAP1 CALLER PUSH1 0x1 PUSH1 0x1 PUSH1 0xA0 SHL SUB SWAP2 DUP3 AND EQ SWAP1 DUP2 ISZERO PUSH2 0x806 JUMPI JUMPDEST POP PUSH2 0x34B8 JUMP JUMPDEST DUP1 MLOAD PUSH1 0x1 PUSH1 0x1 PUSH1 0x40 SHL SUB DUP2 GT PUSH2 0x60F JUMPI PUSH2 0x74F DUP2 PUSH2 0x74A PUSH1 0xF SLOAD PUSH2 0x171F JUMP JUMPDEST PUSH2 0x3504 JUMP JUMPDEST PUSH1 0x20 DUP1 PUSH1 0x1F DUP4 GT PUSH1 0x1 EQ PUSH2 0x791 JUMPI POP DUP2 SWAP1 PUSH2 0x781 SWAP4 PUSH1 0x0 SWAP3 PUSH2 0x786 JUMPI JUMPDEST POP POP DUP2 PUSH1 0x1 SHL SWAP2 PUSH1 0x0 NOT SWAP1 PUSH1 0x3 SHL SHR NOT AND OR SWAP1 JUMP JUMPDEST PUSH1 0xF SSTORE STOP JUMPDEST ADD MLOAD SWAP1 POP CODESIZE DUP1 PUSH2 0x76C JUMP JUMPDEST SWAP1 PUSH1 0x1F NOT DUP4 AND SWAP4 PUSH2 0x7B2 PUSH1 0xF PUSH1 0x0 MSTORE PUSH1 0x0 DUP1 MLOAD PUSH1 0x20 PUSH2 0x4E90 DUP4 CODECOPY DUP2 MLOAD SWAP2 MSTORE SWAP1 JUMP JUMPDEST SWAP3 PUSH1 0x0 SWAP1 JUMPDEST DUP7 DUP3 LT PUSH2 0x7EE JUMPI POP POP DUP4 PUSH1 0x1 SWAP6 LT PUSH2 0x7D5 JUMPI JUMPDEST POP POP POP DUP2 SHL ADD PUSH1 0xF SSTORE STOP JUMPDEST ADD MLOAD PUSH1 0x0 NOT PUSH1 0xF8 DUP5 PUSH1 0x3 SHL AND SHR NOT AND SWAP1 SSTORE CODESIZE DUP1 DUP1 PUSH2 0x7CA JUMP JUMPDEST DUP1 PUSH1 0x1 DUP6 SWAP7 DUP3 SWAP5 SWAP7 DUP7 ADD MLOAD DUP2 SSTORE ADD SWAP6 ADD SWAP4 ADD SWAP1 PUSH2 0x7B7 JUMP JUMPDEST SWAP1 POP PUSH1 0xA SLOAD AND CALLER EQ CODESIZE PUSH2 0x725 JUMP JUMPDEST PUSH1 0x0 SWAP2 SUB SLT PUSH2 0x50E JUMPI JUMP JUMPDEST PUSH1 0x0 JUMPDEST DUP4 DUP2 LT PUSH2 0x832 JUMPI POP POP PUSH1 0x0 SWAP2 ADD MSTORE JUMP JUMPDEST DUP2 DUP2 ADD MLOAD DUP4 DUP3 ADD MSTORE PUSH1 0x20 ADD PUSH2 0x822 JUMP JUMPDEST SWAP1 PUSH1 0x20 SWAP2 PUSH2 0x85B DUP2 MLOAD DUP1 SWAP3 DUP2 DUP6 MSTORE DUP6 DUP1 DUP7 ADD SWAP2 ADD PUSH2 0x81F JUMP JUMPDEST PUSH1 0x1F ADD PUSH1 0x1F NOT AND ADD ADD SWAP1 JUMP JUMPDEST SWAP1 PUSH1 0x20 PUSH2 0x6F8 SWAP3 DUP2 DUP2 MSTORE ADD SWAP1 PUSH2 0x842 JUMP JUMPDEST CALLVALUE PUSH2 0x50E JUMPI PUSH1 0x0 DUP1 PUSH1 0x3 NOT CALLDATASIZE ADD SLT PUSH2 0x95C JUMPI PUSH1 0x40 MLOAD SWAP1 DUP1 DUP1 SLOAD SWAP1 PUSH2 0x89B DUP3 PUSH2 0x171F JUMP JUMPDEST DUP1 DUP6 MSTORE SWAP2 PUSH1 0x20 SWAP2 PUSH1 0x1 SWAP2 DUP3 DUP2 AND SWAP1 DUP2 ISZERO PUSH2 0x92F JUMPI POP PUSH1 0x1 EQ PUSH2 0x8D8 JUMPI JUMPDEST PUSH2 0x8D4 DUP7 PUSH2 0x8C8 DUP2 DUP9 SUB DUP3 PUSH2 0x64A JUMP JUMPDEST PUSH1 0x40 MLOAD SWAP2 DUP3 SWAP2 DUP3 PUSH2 0x867 JUMP JUMPDEST SUB SWAP1 RETURN JUMPDEST DUP1 DUP1 SWAP6 POP MSTORE PUSH32 0x290DECD9548B62A8D60345A988386FC84BA6BC95484008F6362F93160EF3E563 JUMPDEST DUP4 DUP6 LT PUSH2 0x91C JUMPI POP POP POP POP DUP2 ADD PUSH1 0x20 ADD PUSH2 0x8C8 DUP3 PUSH2 0x8D4 CODESIZE PUSH2 0x8B8 JUMP JUMPDEST DUP1 SLOAD DUP7 DUP7 ADD DUP5 ADD MSTORE SWAP4 DUP3 ADD SWAP4 DUP2 ADD PUSH2 0x8FF JUMP JUMPDEST SWAP1 POP DUP7 SWAP6 POP PUSH2 0x8D4 SWAP7 SWAP4 POP PUSH1 0x20 SWAP3 POP PUSH2 0x8C8 SWAP5 SWAP2 POP PUSH1 0xFF NOT AND DUP3 DUP5 ADD MSTORE ISZERO ISZERO PUSH1 0x5 SHL DUP3 ADD ADD SWAP3 SWAP4 CODESIZE PUSH2 0x8B8 JUMP JUMPDEST DUP1 REVERT JUMPDEST CALLVALUE PUSH2 0x50E JUMPI PUSH1 0x20 CALLDATASIZE PUSH1 0x3 NOT ADD SLT PUSH2 0x50E JUMPI PUSH1 0x4 CALLDATALOAD PUSH2 0x97C DUP2 PUSH2 0x43D3 JUMP JUMPDEST POP PUSH1 0x0 MSTORE PUSH1 0x4 PUSH1 0x20 MSTORE PUSH1 0x20 PUSH1 0x1 DUP1 PUSH1 0xA0 SHL SUB PUSH1 0x40 PUSH1 0x0 KECCAK256 SLOAD AND PUSH1 0x40 MLOAD SWAP1 DUP2 MSTORE RETURN JUMPDEST CALLVALUE PUSH2 0x50E JUMPI PUSH1 0x0 CALLDATASIZE PUSH1 0x3 NOT ADD SLT PUSH2 0x50E JUMPI PUSH1 0x20 PUSH1 0xC SLOAD PUSH1 0x40 MLOAD SWAP1 DUP2 MSTORE RETURN JUMPDEST PUSH1 0x4 CALLDATALOAD SWAP1 PUSH1 0x1 PUSH1 0x1 PUSH1 0xA0 SHL SUB DUP3 AND DUP3 SUB PUSH2 0x50E JUMPI JUMP JUMPDEST PUSH1 0x24 CALLDATALOAD SWAP1 PUSH1 0x1 PUSH1 0x1 PUSH1 0xA0 SHL SUB DUP3 AND DUP3 SUB PUSH2 0x50E JUMPI JUMP JUMPDEST CALLVALUE PUSH2 0x50E JUMPI PUSH1 0x40 CALLDATASIZE PUSH1 0x3 NOT ADD SLT PUSH2 0x50E JUMPI PUSH2 0xA00 PUSH2 0x9BB JUMP JUMPDEST PUSH1 0x24 CALLDATALOAD SWAP1 PUSH2 0xA0D DUP3 PUSH2 0x43D3 JUMP JUMPDEST CALLER ISZERO ISZERO DUP1 PUSH2 0xAD3 JUMPI JUMPDEST DUP1 PUSH2 0xAA5 JUMPI JUMPDEST PUSH2 0xA8D JUMPI PUSH2 0xA8B SWAP3 PUSH2 0xA6C SWAP2 DUP2 SWAP1 PUSH1 0x1 PUSH1 0x1 PUSH1 0xA0 SHL SUB DUP6 DUP2 AND SWAP2 AND PUSH32 0x8C5BE1E5EBEC7D5BD14F71427D1E84F3DD0314C0F7B2291E5B200AC8C7C3B925 PUSH1 0x0 DUP1 LOG4 PUSH1 0x0 MSTORE PUSH1 0x4 PUSH1 0x20 MSTORE PUSH1 0x40 PUSH1 0x0 KECCAK256 SWAP1 JUMP JUMPDEST DUP1 SLOAD PUSH1 0x1 PUSH1 0x1 PUSH1 0xA0 SHL SUB NOT AND PUSH1 0x1 PUSH1 0x1 PUSH1 0xA0 SHL SUB SWAP1 SWAP3 AND SWAP2 SWAP1 SWAP2 OR SWAP1 SSTORE JUMP JUMPDEST STOP JUMPDEST PUSH1 0x40 MLOAD PUSH4 0xA9FBF51F PUSH1 0xE0 SHL DUP2 MSTORE CALLER PUSH1 0x4 DUP3 ADD MSTORE PUSH1 0x24 SWAP1 REVERT JUMPDEST POP PUSH1 0x1 PUSH1 0x1 PUSH1 0xA0 SHL SUB DUP2 AND PUSH1 0x0 SWAP1 DUP2 MSTORE PUSH1 0x5 PUSH1 0x20 SWAP1 DUP2 MSTORE PUSH1 0x40 DUP1 DUP4 KECCAK256 CALLER DUP5 MSTORE SWAP1 SWAP2 MSTORE SWAP1 KECCAK256 SLOAD PUSH1 0xFF AND ISZERO PUSH2 0xA1C JUMP JUMPDEST POP PUSH1 0x1 PUSH1 0x1 PUSH1 0xA0 SHL SUB DUP2 AND CALLER EQ ISZERO PUSH2 0xA16 JUMP JUMPDEST CALLVALUE PUSH2 0x50E JUMPI PUSH1 0x0 CALLDATASIZE PUSH1 0x3 NOT ADD SLT PUSH2 0x50E JUMPI PUSH1 0xB SLOAD PUSH1 0x40 MLOAD PUSH1 0x1 PUSH1 0x1 PUSH1 0xA0 SHL SUB SWAP1 SWAP2 AND DUP2 MSTORE PUSH1 0x20 SWAP1 RETURN JUMPDEST SWAP1 DUP2 MLOAD DUP1 DUP3 MSTORE PUSH1 0x20 DUP1 DUP1 SWAP4 ADD SWAP4 ADD SWAP2 PUSH1 0x0 JUMPDEST DUP3 DUP2 LT PUSH2 0xB2F JUMPI POP POP POP POP SWAP1 JUMP JUMPDEST DUP4 MLOAD DUP6 MSTORE SWAP4 DUP2 ADD SWAP4 SWAP3 DUP2 ADD SWAP3 PUSH1 0x1 ADD PUSH2 0xB21 JUMP JUMPDEST SWAP1 PUSH2 0xB56 SWAP1 PUSH1 0x40 DUP4 MSTORE PUSH1 0x40 DUP4 ADD SWAP1 PUSH2 0xB0F JUMP JUMPDEST DUP2 DUP2 SUB PUSH1 0x20 SWAP3 DUP4 ADD MSTORE DUP3 MLOAD DUP1 DUP3 MSTORE SWAP1 DUP3 ADD SWAP3 DUP3 ADD SWAP2 PUSH1 0x0 JUMPDEST DUP3 DUP2 LT PUSH2 0xB7C JUMPI POP POP POP POP SWAP1 JUMP JUMPDEST DUP4 MLOAD ISZERO ISZERO DUP6 MSTORE SWAP4 DUP2 ADD SWAP4 SWAP3 DUP2 ADD SWAP3 PUSH1 0x1 ADD PUSH2 0xB6E JUMP JUMPDEST CALLVALUE PUSH2 0x50E JUMPI PUSH1 0x20 DUP1 PUSH1 0x3 NOT CALLDATASIZE ADD SLT PUSH2 0x50E JUMPI PUSH2 0xBAC PUSH2 0x9BB JUMP JUMPDEST SWAP1 PUSH2 0xBB6 DUP3 PUSH2 0x3CA3 JUMP JUMPDEST PUSH2 0xBBF DUP2 PUSH2 0x3910 JUMP JUMPDEST SWAP2 PUSH2 0xBC9 DUP3 PUSH2 0x38F9 JUMP JUMPDEST SWAP4 PUSH1 0x40 SWAP2 PUSH2 0xBDA PUSH1 0x40 MLOAD SWAP7 DUP8 PUSH2 0x64A JUMP JUMPDEST DUP4 DUP7 MSTORE PUSH1 0x1F NOT PUSH2 0xBE9 DUP6 PUSH2 0x38F9 JUMP JUMPDEST ADD CALLDATASIZE PUSH1 0x20 DUP9 ADD CALLDATACOPY PUSH1 0x0 SWAP2 PUSH1 0x0 JUMPDEST DUP6 DUP2 LT PUSH2 0xC0C JUMPI PUSH1 0x40 MLOAD DUP1 PUSH2 0x8D4 DUP11 DUP11 DUP4 PUSH2 0xB43 JUMP JUMPDEST DUP1 PUSH2 0xC19 PUSH1 0x1 SWAP3 DUP5 PUSH2 0x3C1F JUMP JUMPDEST PUSH2 0xC23 DUP3 DUP11 PUSH2 0x3958 JUMP JUMPDEST MSTORE PUSH2 0xC2E DUP2 DUP10 PUSH2 0x3958 JUMP JUMPDEST MLOAD DUP6 MSTORE PUSH1 0x1D DUP5 MSTORE PUSH1 0xFF DUP7 DUP7 KECCAK256 SLOAD AND PUSH2 0xC46 DUP3 DUP12 PUSH2 0x3958 JUMP JUMPDEST SWAP1 ISZERO ISZERO SWAP1 MSTORE ADD PUSH2 0xBF6 JUMP JUMPDEST CALLVALUE PUSH2 0x50E JUMPI PUSH1 0x0 DUP1 PUSH1 0x3 NOT CALLDATASIZE ADD SLT PUSH2 0x95C JUMPI PUSH2 0xC76 PUSH2 0xC72 PUSH1 0x27 SLOAD PUSH1 0xFF AND SWAP1 JUMP JUMPDEST ISZERO SWAP1 JUMP JUMPDEST PUSH2 0xE3A JUMPI PUSH2 0xC83 CALLER PUSH2 0x3CA3 JUMP JUMPDEST DUP1 ISZERO PUSH2 0xE28 JUMPI PUSH2 0xC92 DUP2 PUSH2 0x3910 JUMP JUMPDEST DUP3 SWAP2 DUP4 JUMPDEST DUP2 DUP2 LT PUSH2 0xDD0 JUMPI POP POP DUP2 ISZERO PUSH2 0xDBE JUMPI PUSH2 0xCB1 PUSH1 0x16 SLOAD DUP4 PUSH2 0x39C4 JUMP JUMPDEST SWAP2 DUP3 SELFBALANCE LT PUSH2 0xDAC JUMPI PUSH2 0xCC2 DUP2 PUSH2 0x3910 JUMP JUMPDEST SWAP2 DUP5 JUMPDEST DUP3 DUP2 LT PUSH2 0xD60 JUMPI POP POP CALLER PUSH1 0x0 SWAP1 DUP2 MSTORE PUSH1 0x22 PUSH1 0x20 MSTORE PUSH1 0x40 SWAP1 KECCAK256 PUSH2 0xCE9 SWAP1 SWAP2 DUP3 SLOAD PUSH2 0x3A03 JUMP JUMPDEST SWAP1 SSTORE PUSH2 0xCFF PUSH2 0xCFA DUP4 PUSH1 0x24 SLOAD PUSH2 0x3A03 JUMP JUMPDEST PUSH1 0x24 SSTORE JUMP JUMPDEST DUP3 DUP1 DUP1 DUP1 DUP6 CALLER GAS CALL PUSH2 0xD0F PUSH2 0x3A23 JUMP JUMPDEST POP ISZERO PUSH2 0xD4E JUMPI PUSH2 0xD48 PUSH32 0xE81669FA6BEC5188DE8D647E0A936A79EC4EB1456EAF01E8D7F7929A7B519519 SWAP2 PUSH1 0x40 MLOAD SWAP2 DUP3 SWAP2 CALLER SWAP6 DUP4 PUSH2 0x3A53 JUMP JUMPDEST SUB SWAP1 LOG2 DUP1 RETURN JUMPDEST PUSH1 0x40 MLOAD PUSH4 0xCBE4E8C3 PUSH1 0xE0 SHL DUP2 MSTORE PUSH1 0x4 SWAP1 REVERT JUMPDEST DUP1 PUSH2 0xDA6 PUSH2 0xD70 PUSH1 0x1 SWAP4 DUP6 PUSH2 0x3958 JUMP JUMPDEST MLOAD PUSH2 0xD95 PUSH2 0xD88 DUP3 PUSH1 0x0 MSTORE PUSH1 0x23 PUSH1 0x20 MSTORE PUSH1 0x40 PUSH1 0x0 KECCAK256 SWAP1 JUMP JUMPDEST DUP1 SLOAD PUSH1 0xFF NOT AND PUSH1 0x1 OR SWAP1 SSTORE JUMP JUMPDEST DUP1 PUSH2 0xDA0 DUP5 DUP10 PUSH2 0x3958 JUMP JUMPDEST MSTORE PUSH2 0x440E JUMP JUMPDEST ADD PUSH2 0xCC5 JUMP JUMPDEST PUSH1 0x40 MLOAD PUSH4 0x1E9ACF17 PUSH1 0xE3 SHL DUP2 MSTORE PUSH1 0x4 SWAP1 REVERT JUMPDEST PUSH1 0x40 MLOAD PUSH4 0x7DC40A79 PUSH1 0xE1 SHL DUP2 MSTORE PUSH1 0x4 SWAP1 REVERT JUMPDEST PUSH2 0xDDA DUP2 CALLER PUSH2 0x3C1F JUMP JUMPDEST PUSH2 0xDFB PUSH2 0xC72 PUSH2 0xDF4 DUP4 PUSH1 0x0 MSTORE PUSH1 0x23 PUSH1 0x20 MSTORE PUSH1 0x40 PUSH1 0x0 KECCAK256 SWAP1 JUMP JUMPDEST SLOAD PUSH1 0xFF AND SWAP1 JUMP JUMPDEST PUSH2 0xE09 JUMPI JUMPDEST POP PUSH1 0x1 ADD PUSH2 0xC96 JUMP JUMPDEST DUP5 PUSH2 0xE21 SWAP2 PUSH2 0xE1B PUSH1 0x1 SWAP5 SWAP8 DUP8 PUSH2 0x3958 JUMP JUMPDEST MSTORE PUSH2 0x3987 JUMP JUMPDEST SWAP4 SWAP1 PUSH2 0xE00 JUMP JUMPDEST PUSH1 0x40 MLOAD PUSH4 0xA39A279F PUSH1 0xE0 SHL DUP2 MSTORE PUSH1 0x4 SWAP1 REVERT JUMPDEST PUSH1 0x40 MLOAD PUSH4 0xC1C379B1 PUSH1 0xE0 SHL DUP2 MSTORE PUSH1 0x4 SWAP1 REVERT JUMPDEST CALLVALUE PUSH2 0x50E JUMPI PUSH1 0x0 CALLDATASIZE PUSH1 0x3 NOT ADD SLT PUSH2 0x50E JUMPI PUSH1 0x20 PUSH1 0x16 SLOAD PUSH1 0x40 MLOAD SWAP1 DUP2 MSTORE RETURN JUMPDEST CALLVALUE PUSH2 0x50E JUMPI PUSH1 0x0 CALLDATASIZE PUSH1 0x3 NOT ADD SLT PUSH2 0x50E JUMPI PUSH1 0x20 PUSH1 0x8 SLOAD PUSH1 0x40 MLOAD SWAP1 DUP2 MSTORE RETURN JUMPDEST CALLVALUE PUSH2 0x50E JUMPI PUSH2 0xE96 CALLDATASIZE PUSH2 0x6BD JUMP JUMPDEST PUSH1 0xD SLOAD PUSH2 0xEB7 SWAP1 CALLER PUSH1 0x1 PUSH1 0x1 PUSH1 0xA0 SHL SUB SWAP2 DUP3 AND EQ SWAP1 DUP2 ISZERO PUSH2 0x806 JUMPI POP PUSH2 0x34B8 JUMP JUMPDEST DUP1 MLOAD PUSH1 0x1 PUSH1 0x1 PUSH1 0x40 SHL SUB DUP2 GT PUSH2 0x60F JUMPI PUSH2 0xEDB DUP2 PUSH2 0xED6 PUSH1 0x14 SLOAD PUSH2 0x171F JUMP JUMPDEST PUSH2 0x3564 JUMP JUMPDEST PUSH1 0x20 DUP1 PUSH1 0x1F DUP4 GT PUSH1 0x1 EQ PUSH2 0xF11 JUMPI POP DUP2 SWAP1 PUSH2 0xF0C SWAP4 PUSH1 0x0 SWAP3 PUSH2 0x786 JUMPI POP POP DUP2 PUSH1 0x1 SHL SWAP2 PUSH1 0x0 NOT SWAP1 PUSH1 0x3 SHL SHR NOT AND OR SWAP1 JUMP JUMPDEST PUSH1 0x14 SSTORE STOP JUMPDEST SWAP1 PUSH1 0x1F NOT DUP4 AND SWAP4 PUSH2 0xF32 PUSH1 0x14 PUSH1 0x0 MSTORE PUSH1 0x0 DUP1 MLOAD PUSH1 0x20 PUSH2 0x4E70 DUP4 CODECOPY DUP2 MLOAD SWAP2 MSTORE SWAP1 JUMP JUMPDEST SWAP3 PUSH1 0x0 SWAP1 JUMPDEST DUP7 DUP3 LT PUSH2 0xF6E JUMPI POP POP DUP4 PUSH1 0x1 SWAP6 LT PUSH2 0xF55 JUMPI JUMPDEST POP POP POP DUP2 SHL ADD PUSH1 0x14 SSTORE STOP JUMPDEST ADD MLOAD PUSH1 0x0 NOT PUSH1 0xF8 DUP5 PUSH1 0x3 SHL AND SHR NOT AND SWAP1 SSTORE CODESIZE DUP1 DUP1 PUSH2 0xF4A JUMP JUMPDEST DUP1 PUSH1 0x1 DUP6 SWAP7 DUP3 SWAP5 SWAP7 DUP7 ADD MLOAD DUP2 SSTORE ADD SWAP6 ADD SWAP4 ADD SWAP1 PUSH2 0xF37 JUMP JUMPDEST PUSH1 0x60 SWAP1 PUSH1 0x3 NOT ADD SLT PUSH2 0x50E JUMPI PUSH1 0x1 PUSH1 0x1 PUSH1 0xA0 SHL SUB SWAP1 PUSH1 0x4 CALLDATALOAD DUP3 DUP2 AND DUP2 SUB PUSH2 0x50E JUMPI SWAP2 PUSH1 0x24 CALLDATALOAD SWAP1 DUP2 AND DUP2 SUB PUSH2 0x50E JUMPI SWAP1 PUSH1 0x44 CALLDATALOAD SWAP1 JUMP JUMPDEST CALLVALUE PUSH2 0x50E JUMPI PUSH2 0xA8B PUSH2 0xFCC CALLDATASIZE PUSH2 0xF86 JUMP JUMPDEST SWAP2 PUSH2 0x3A6A JUMP JUMPDEST CALLVALUE PUSH2 0x50E JUMPI PUSH1 0x0 DUP1 PUSH1 0x3 NOT CALLDATASIZE ADD SLT PUSH2 0x95C JUMPI PUSH1 0xD SLOAD PUSH2 0x1005 SWAP1 CALLER PUSH1 0x1 PUSH1 0x1 PUSH1 0xA0 SHL SUB SWAP2 DUP3 AND EQ SWAP1 DUP2 ISZERO PUSH2 0x806 JUMPI POP PUSH2 0x34B8 JUMP JUMPDEST PUSH1 0x25 SLOAD PUSH1 0xFF AND PUSH2 0x113F JUMPI PUSH1 0x10 SLOAD TIMESTAMP GT ISZERO PUSH2 0x112D JUMPI PUSH1 0x26 SLOAD TIMESTAMP LT PUSH2 0x111B JUMPI PUSH1 0x27 SLOAD PUSH1 0xFF AND PUSH2 0x10FD JUMPI PUSH1 0x21 SLOAD PUSH1 0xFF AND DUP1 PUSH2 0x110F JUMPI JUMPDEST PUSH2 0x10FD JUMPI SELFBALANCE DUP1 ISZERO PUSH2 0x10EB JUMPI PUSH2 0x1055 PUSH1 0x1 PUSH1 0xFF NOT PUSH1 0x25 SLOAD AND OR PUSH1 0x25 SSTORE JUMP JUMPDEST DUP2 DUP1 DUP1 DUP1 DUP5 PUSH2 0x107D PUSH2 0x1071 PUSH2 0x1071 PUSH1 0xD SLOAD PUSH1 0x1 DUP1 PUSH1 0xA0 SHL SUB AND SWAP1 JUMP JUMPDEST PUSH1 0x1 PUSH1 0x1 PUSH1 0xA0 SHL SUB AND SWAP1 JUMP JUMPDEST GAS CALL PUSH2 0x1087 PUSH2 0x3A23 JUMP JUMPDEST POP ISZERO PUSH2 0x10D9 JUMPI PUSH1 0xD SLOAD PUSH32 0xEAFF4B37086828766AD3268786972C0CD24259D4C87A80F9D3963A3C3D999B0D SWAP1 PUSH2 0xD48 SWAP1 PUSH2 0x10C8 SWAP1 PUSH1 0x1 PUSH1 0x1 PUSH1 0xA0 SHL SUB AND PUSH2 0x1071 JUMP JUMPDEST PUSH1 0x40 MLOAD SWAP4 DUP5 MSTORE SWAP3 SWAP1 DUP2 SWAP1 PUSH1 0x20 DUP3 ADD SWAP1 JUMP JUMPDEST PUSH1 0x40 MLOAD PUSH4 0x27FCD9D1 PUSH1 0xE0 SHL DUP2 MSTORE PUSH1 0x4 SWAP1 REVERT JUMPDEST PUSH1 0x40 MLOAD PUSH4 0x67E3990D PUSH1 0xE0 SHL DUP2 MSTORE PUSH1 0x4 SWAP1 REVERT JUMPDEST PUSH1 0x40 MLOAD PUSH4 0xC8470BD PUSH1 0xE4 SHL DUP2 MSTORE PUSH1 0x4 SWAP1 REVERT JUMPDEST POP PUSH1 0x18 SLOAD TIMESTAMP GT ISZERO PUSH2 0x1038 JUMP JUMPDEST PUSH1 0x40 MLOAD PUSH4 0x6FC48BA1 PUSH1 0xE1 SHL DUP2 MSTORE PUSH1 0x4 SWAP1 REVERT JUMPDEST PUSH1 0x40 MLOAD PUSH4 0xFB141A0D PUSH1 0xE0 SHL DUP2 MSTORE PUSH1 0x4 SWAP1 REVERT JUMPDEST PUSH1 0x40 MLOAD PUSH4 0x3F727527 PUSH1 0xE2 SHL DUP2 MSTORE PUSH1 0x4 SWAP1 REVERT JUMPDEST SWAP6 SWAP2 SWAP4 PUSH1 0xC0 SWAP6 PUSH2 0x118A PUSH2 0x11AB SWAP6 PUSH1 0xFF SWAP8 PUSH2 0x119D SWAP6 SWAP13 SWAP12 SWAP13 PUSH1 0x1 DUP1 PUSH1 0xA0 SHL SUB AND DUP12 MSTORE ISZERO ISZERO PUSH1 0x20 DUP12 ADD MSTORE PUSH1 0xE0 PUSH1 0x40 DUP12 ADD MSTORE PUSH1 0xE0 DUP11 ADD SWAP1 PUSH2 0x842 JUMP JUMPDEST SWAP2 PUSH1 0x60 DUP10 ADD MSTORE DUP8 DUP3 SUB PUSH1 0x80 DUP10 ADD MSTORE PUSH2 0x842 JUMP JUMPDEST SWAP1 DUP6 DUP3 SUB PUSH1 0xA0 DUP8 ADD MSTORE PUSH2 0x842 JUMP JUMPDEST SWAP5 AND SWAP2 ADD MSTORE JUMP JUMPDEST CALLVALUE PUSH2 0x50E JUMPI PUSH1 0x20 CALLDATASIZE PUSH1 0x3 NOT ADD SLT PUSH2 0x50E JUMPI PUSH1 0x4 CALLDATALOAD PUSH1 0x0 DUP2 DUP2 MSTORE PUSH1 0x2 PUSH1 0x20 MSTORE PUSH1 0x40 SWAP1 KECCAK256 PUSH2 0x11FB SWAP1 PUSH1 0x1 PUSH1 0x1 PUSH1 0xA0 SHL SUB SWAP1 PUSH2 0x11F3 SWAP1 JUMPDEST SLOAD PUSH1 0x1 PUSH1 0x1 PUSH1 0xA0 SHL SUB AND SWAP1 JUMP JUMPDEST AND ISZERO ISZERO PUSH2 0x3BDC JUMP JUMPDEST PUSH1 0x0 PUSH2 0x1209 PUSH1 0x17 SLOAD PUSH1 0xFF AND SWAP1 JUMP JUMPDEST ISZERO PUSH2 0x1261 JUMPI POP PUSH1 0x3 SWAP1 JUMPDEST PUSH2 0x8D4 PUSH2 0x1236 PUSH2 0xDF4 PUSH2 0x1225 DUP5 PUSH2 0x43D3 JUMP JUMPDEST SWAP4 PUSH1 0x0 MSTORE PUSH1 0x1D PUSH1 0x20 MSTORE PUSH1 0x40 PUSH1 0x0 KECCAK256 SWAP1 JUMP JUMPDEST SWAP3 PUSH1 0x10 SLOAD PUSH2 0x1242 PUSH2 0x1AB7 JUMP JUMPDEST SWAP1 PUSH2 0x124B PUSH2 0x1AD1 JUMP JUMPDEST SWAP1 PUSH2 0x1254 PUSH2 0x1AE2 JUMP JUMPDEST SWAP3 PUSH1 0x40 MLOAD SWAP8 DUP9 SWAP8 DUP9 PUSH2 0x1151 JUMP JUMPDEST PUSH1 0xE SLOAD PUSH1 0x15 SLOAD GT PUSH2 0x1275 JUMPI POP PUSH1 0x1 SWAP1 PUSH2 0x1213 JUMP JUMPDEST PUSH1 0x10 SLOAD TIMESTAMP GT ISZERO PUSH2 0x1288 JUMPI POP PUSH1 0x2 SWAP1 PUSH2 0x1213 JUMP JUMPDEST SWAP1 PUSH2 0x1213 JUMP JUMPDEST CALLVALUE PUSH2 0x50E JUMPI PUSH1 0x20 CALLDATASIZE PUSH1 0x3 NOT ADD SLT PUSH2 0x50E JUMPI PUSH2 0x12A7 PUSH2 0x9BB JUMP JUMPDEST PUSH1 0xD SLOAD PUSH1 0x1 PUSH1 0x1 PUSH1 0xA0 SHL SUB SWAP2 SWAP1 DUP3 AND CALLER EQ DUP1 ISZERO PUSH2 0x1304 JUMPI JUMPDEST PUSH2 0x12C8 SWAP1 PUSH2 0x34B8 JUMP JUMPDEST AND DUP1 PUSH1 0x1 PUSH1 0x1 PUSH1 0x60 SHL SUB PUSH1 0xA0 SHL PUSH1 0xB SLOAD AND OR PUSH1 0xB SSTORE PUSH32 0xFC6A300FD572A7AD998E6F2E11421513F73C2E920602D23090AE226909308908 PUSH1 0x0 DUP1 LOG2 STOP JUMPDEST POP PUSH1 0xA SLOAD DUP3 AND CALLER EQ PUSH2 0x12BF JUMP JUMPDEST CALLVALUE PUSH2 0x50E JUMPI PUSH1 0x20 CALLDATASIZE PUSH1 0x3 NOT ADD SLT PUSH2 0x50E JUMPI PUSH1 0x4 CALLDATALOAD PUSH2 0x132E DUP2 PUSH2 0x43D3 JUMP JUMPDEST CALLER PUSH1 0x1 PUSH1 0x1 PUSH1 0xA0 SHL SUB SWAP1 SWAP2 AND SUB PUSH2 0x13E0 JUMPI PUSH2 0x1356 PUSH2 0xDF4 DUP3 PUSH1 0x0 MSTORE PUSH1 0x1D PUSH1 0x20 MSTORE PUSH1 0x40 PUSH1 0x0 KECCAK256 SWAP1 JUMP JUMPDEST PUSH2 0x13CE JUMPI PUSH2 0x1365 PUSH1 0x10 SLOAD PUSH2 0x39D7 JUMP JUMPDEST TIMESTAMP GT PUSH2 0x112D JUMPI PUSH1 0x17 SLOAD PUSH1 0xFF AND PUSH2 0x13BC JUMPI PUSH2 0x138C PUSH2 0xD88 DUP3 PUSH1 0x0 MSTORE PUSH1 0x1D PUSH1 0x20 MSTORE PUSH1 0x40 PUSH1 0x0 KECCAK256 SWAP1 JUMP JUMPDEST PUSH1 0x40 MLOAD TIMESTAMP DUP2 MSTORE CALLER SWAP1 PUSH32 0xAA5EB4D6707E5715467E6D9CEB94A60D0DDFADFF0BB1D854A226F3459485DC90 SWAP1 PUSH1 0x20 SWAP1 LOG3 STOP JUMPDEST PUSH1 0x40 MLOAD PUSH4 0x349BD759 PUSH1 0xE2 SHL DUP2 MSTORE PUSH1 0x4 SWAP1 REVERT JUMPDEST PUSH1 0x40 MLOAD PUSH4 0x8697733 PUSH1 0xE4 SHL DUP2 MSTORE PUSH1 0x4 SWAP1 REVERT JUMPDEST PUSH1 0x40 MLOAD PUSH4 0x59DC379F PUSH1 0xE0 SHL DUP2 MSTORE PUSH1 0x4 SWAP1 REVERT JUMPDEST CALLVALUE PUSH2 0x50E JUMPI PUSH1 0x40 CALLDATASIZE PUSH1 0x3 NOT ADD SLT PUSH2 0x50E JUMPI PUSH1 0x1 DUP1 PUSH1 0xA0 SHL SUB PUSH1 0xD SLOAD AND PUSH2 0x2710 PUSH2 0x1428 PUSH1 0x1 PUSH1 0x1 PUSH1 0x60 SHL SUB PUSH1 0x1C SLOAD AND PUSH1 0x24 CALLDATALOAD PUSH2 0x39C4 JUMP JUMPDEST PUSH1 0x40 DUP1 MLOAD PUSH1 0x1 PUSH1 0x1 PUSH1 0xA0 SHL SUB SWAP5 SWAP1 SWAP5 AND DUP5 MSTORE SWAP2 SWAP1 DIV PUSH1 0x20 DUP4 ADD MSTORE SWAP1 RETURN JUMPDEST CALLVALUE PUSH2 0x50E JUMPI PUSH1 0x20 CALLDATASIZE PUSH1 0x3 NOT ADD SLT PUSH2 0x50E JUMPI PUSH1 0x1 PUSH1 0x1 PUSH1 0xA0 SHL SUB PUSH2 0x1466 PUSH2 0x9BB JUMP JUMPDEST AND PUSH1 0x0 MSTORE PUSH1 0x22 PUSH1 0x20 MSTORE PUSH1 0x20 PUSH1 0x40 PUSH1 0x0 KECCAK256 SLOAD PUSH1 0x40 MLOAD SWAP1 DUP2 MSTORE RETURN JUMPDEST CALLVALUE PUSH2 0x50E JUMPI PUSH1 0x20 CALLDATASIZE PUSH1 0x3 NOT ADD SLT PUSH2 0x50E JUMPI PUSH1 0x4 CALLDATALOAD PUSH1 0x0 DUP2 DUP2 MSTORE PUSH1 0x2 PUSH1 0x20 MSTORE PUSH1 0x40 SWAP1 KECCAK256 SLOAD PUSH2 0x14B6 SWAP1 PUSH1 0x1 PUSH1 0x1 PUSH1 0xA0 SHL SUB AND ISZERO ISZERO PUSH2 0x3BDC JUMP JUMPDEST PUSH1 0x0 MSTORE PUSH1 0x1D PUSH1 0x20 MSTORE PUSH1 0x20 PUSH1 0xFF PUSH1 0x40 PUSH1 0x0 KECCAK256 SLOAD AND PUSH1 0x40 MLOAD SWAP1 ISZERO ISZERO DUP2 MSTORE RETURN JUMPDEST CALLVALUE PUSH2 0x50E JUMPI PUSH1 0x40 CALLDATASIZE PUSH1 0x3 NOT ADD SLT PUSH2 0x50E JUMPI PUSH1 0x20 PUSH2 0x14FA PUSH2 0x14F1 PUSH2 0x9BB JUMP JUMPDEST PUSH1 0x24 CALLDATALOAD SWAP1 PUSH2 0x3C1F JUMP JUMPDEST PUSH1 0x40 MLOAD SWAP1 DUP2 MSTORE RETURN JUMPDEST CALLVALUE PUSH2 0x50E JUMPI PUSH1 0x20 CALLDATASIZE PUSH1 0x3 NOT ADD SLT PUSH2 0x50E JUMPI PUSH2 0x151B PUSH2 0x9BB JUMP JUMPDEST PUSH2 0x1524 DUP2 PUSH2 0x3CA3 JUMP JUMPDEST PUSH2 0x152D DUP2 PUSH2 0x3910 JUMP JUMPDEST SWAP2 PUSH1 0x0 JUMPDEST DUP3 DUP2 LT PUSH2 0x154E JUMPI PUSH1 0x40 MLOAD PUSH1 0x20 DUP1 DUP3 MSTORE DUP2 SWAP1 PUSH2 0x8D4 SWAP1 DUP3 ADD DUP8 PUSH2 0xB0F JUMP JUMPDEST DUP1 PUSH2 0x155B PUSH1 0x1 SWAP3 DUP5 PUSH2 0x3C1F JUMP JUMPDEST PUSH2 0x1565 DUP3 DUP8 PUSH2 0x3958 JUMP JUMPDEST MSTORE ADD PUSH2 0x1531 JUMP JUMPDEST CALLVALUE PUSH2 0x50E JUMPI PUSH2 0xA8B PUSH2 0x157D CALLDATASIZE PUSH2 0xF86 JUMP JUMPDEST SWAP1 PUSH1 0x40 MLOAD SWAP3 PUSH2 0x158B DUP5 PUSH2 0x614 JUMP JUMPDEST PUSH1 0x0 DUP5 MSTORE PUSH2 0x159A DUP4 DUP4 DUP4 PUSH2 0x3A6A JUMP JUMPDEST CALLER PUSH2 0x47FC JUMP JUMPDEST CALLVALUE PUSH2 0x50E JUMPI PUSH1 0x20 CALLDATASIZE PUSH1 0x3 NOT ADD SLT PUSH2 0x50E JUMPI PUSH1 0x4 CALLDATALOAD PUSH1 0x1 PUSH1 0x1 PUSH1 0x60 SHL SUB DUP2 AND DUP1 SWAP2 SUB PUSH2 0x50E JUMPI PUSH1 0xD SLOAD PUSH2 0x15E6 SWAP1 CALLER PUSH1 0x1 PUSH1 0x1 PUSH1 0xA0 SHL SUB SWAP2 DUP3 AND EQ SWAP1 DUP2 ISZERO PUSH2 0x806 JUMPI POP PUSH2 0x34B8 JUMP JUMPDEST PUSH2 0x3E8 DUP2 GT PUSH2 0x1605 JUMPI PUSH1 0x1 PUSH1 0x1 PUSH1 0x60 SHL SUB NOT PUSH1 0x1C SLOAD AND OR PUSH1 0x1C SSTORE PUSH1 0x0 DUP1 RETURN JUMPDEST PUSH1 0x40 MLOAD PUSH3 0x461BCD PUSH1 0xE5 SHL DUP2 MSTORE PUSH1 0x20 PUSH1 0x4 DUP3 ADD MSTORE PUSH1 0x10 PUSH1 0x24 DUP3 ADD MSTORE PUSH16 0xA4DEF2C2D8E8F240E8DEDE40D0D2CED PUSH1 0x83 SHL PUSH1 0x44 DUP3 ADD MSTORE PUSH1 0x64 SWAP1 REVERT JUMPDEST CALLVALUE PUSH2 0x50E JUMPI PUSH1 0x0 CALLDATASIZE PUSH1 0x3 NOT ADD SLT PUSH2 0x50E JUMPI PUSH1 0x20 PUSH1 0x10 SLOAD PUSH1 0x40 MLOAD SWAP1 DUP2 MSTORE RETURN JUMPDEST CALLVALUE PUSH2 0x50E JUMPI PUSH1 0x20 CALLDATASIZE PUSH1 0x3 NOT ADD SLT PUSH2 0x50E JUMPI PUSH1 0x4 CALLDATALOAD PUSH1 0x8 SLOAD DUP2 LT ISZERO PUSH2 0x16AC JUMPI PUSH1 0x20 SWAP1 PUSH1 0x8 PUSH1 0x0 MSTORE PUSH32 0xF3F7A9FE364FAAB93B216DA50A3214154F22A0A2B415B23A84C8169E8B636EE3 ADD SLOAD PUSH1 0x40 MLOAD SWAP1 DUP2 MSTORE RETURN JUMPDEST PUSH1 0x44 SWAP1 PUSH1 0x40 MLOAD SWAP1 PUSH4 0x295F44F7 PUSH1 0xE2 SHL DUP3 MSTORE PUSH1 0x0 PUSH1 0x4 DUP4 ADD MSTORE PUSH1 0x24 DUP3 ADD MSTORE REVERT JUMPDEST CALLVALUE PUSH2 0x50E JUMPI PUSH1 0x0 CALLDATASIZE PUSH1 0x3 NOT ADD SLT PUSH2 0x50E JUMPI PUSH1 0x20 PUSH1 0xFF PUSH1 0x21 SLOAD AND PUSH1 0x40 MLOAD SWAP1 ISZERO ISZERO DUP2 MSTORE RETURN JUMPDEST CALLVALUE PUSH2 0x50E JUMPI PUSH1 0x20 CALLDATASIZE PUSH1 0x3 NOT ADD SLT PUSH2 0x50E JUMPI PUSH1 0x4 CALLDATALOAD PUSH1 0x0 MSTORE PUSH1 0x23 PUSH1 0x20 MSTORE PUSH1 0x20 PUSH1 0xFF PUSH1 0x40 PUSH1 0x0 KECCAK256 SLOAD AND PUSH1 0x40 MLOAD SWAP1 ISZERO ISZERO DUP2 MSTORE RETURN JUMPDEST SWAP1 PUSH1 0x1 DUP3 DUP2 SHR SWAP3 AND DUP1 ISZERO PUSH2 0x174F JUMPI JUMPDEST PUSH1 0x20 DUP4 LT EQ PUSH2 0x1739 JUMPI JUMP JUMPDEST PUSH4 0x4E487B71 PUSH1 0xE0 SHL PUSH1 0x0 MSTORE PUSH1 0x22 PUSH1 0x4 MSTORE PUSH1 0x24 PUSH1 0x0 REVERT JUMPDEST SWAP2 PUSH1 0x7F AND SWAP2 PUSH2 0x172E JUMP JUMPDEST PUSH1 0x11 SLOAD PUSH1 0x0 SWAP3 SWAP2 PUSH2 0x1769 DUP3 PUSH2 0x171F JUMP JUMPDEST DUP1 DUP3 MSTORE SWAP2 PUSH1 0x20 SWAP1 PUSH1 0x1 SWAP1 DUP2 DUP2 AND SWAP1 DUP2 ISZERO PUSH2 0x17E8 JUMPI POP PUSH1 0x1 EQ PUSH2 0x178C JUMPI JUMPDEST POP POP POP POP JUMP JUMPDEST SWAP3 SWAP4 SWAP5 POP PUSH1 0x11 PUSH1 0x0 MSTORE PUSH32 0x31ECC21A745E3968A04E9570E4425BC18FA8019C68028196B546D1669C200C68 SWAP3 PUSH1 0x0 SWAP4 JUMPDEST DUP6 DUP6 LT PUSH2 0x17D5 JUMPI POP POP POP PUSH1 0x20 SWAP3 POP ADD ADD SWAP1 CODESIZE DUP1 DUP1 DUP1 PUSH2 0x1786 JUMP JUMPDEST DUP1 SLOAD DUP6 DUP6 ADD DUP5 ADD MSTORE SWAP4 DUP3 ADD SWAP4 DUP2 ADD PUSH2 0x17BB JUMP JUMPDEST SWAP3 POP POP POP PUSH1 0x20 SWAP4 SWAP5 POP PUSH1 0xFF SWAP3 SWAP2 SWAP3 NOT AND DUP4 DUP4 ADD MSTORE ISZERO ISZERO PUSH1 0x5 SHL ADD ADD SWAP1 CODESIZE DUP1 DUP1 DUP1 PUSH2 0x1786 JUMP JUMPDEST PUSH1 0xF SLOAD PUSH1 0x0 SWAP3 SWAP2 PUSH2 0x181D DUP3 PUSH2 0x171F JUMP JUMPDEST DUP1 DUP3 MSTORE SWAP2 PUSH1 0x20 SWAP1 PUSH1 0x1 SWAP1 DUP2 DUP2 AND SWAP1 DUP2 ISZERO PUSH2 0x17E8 JUMPI POP PUSH1 0x1 EQ PUSH2 0x183F JUMPI POP POP POP POP JUMP JUMPDEST SWAP3 SWAP4 SWAP5 POP PUSH1 0xF PUSH1 0x0 MSTORE PUSH1 0x0 DUP1 MLOAD PUSH1 0x20 PUSH2 0x4E90 DUP4 CODECOPY DUP2 MLOAD SWAP2 MSTORE SWAP3 PUSH1 0x0 SWAP4 JUMPDEST DUP6 DUP6 LT PUSH2 0x1876 JUMPI POP POP POP PUSH1 0x20 SWAP3 POP ADD ADD SWAP1 CODESIZE DUP1 DUP1 DUP1 PUSH2 0x1786 JUMP JUMPDEST DUP1 SLOAD DUP6 DUP6 ADD DUP5 ADD MSTORE SWAP4 DUP3 ADD SWAP4 DUP2 ADD PUSH2 0x185C JUMP JUMPDEST PUSH1 0x11 SLOAD PUSH1 0x0 SWAP3 SWAP2 PUSH2 0x1899 DUP3 PUSH2 0x171F JUMP JUMPDEST DUP1 DUP3 MSTORE SWAP2 PUSH1 0x20 SWAP1 PUSH1 0x1 SWAP1 DUP2 DUP2 AND SWAP1 DUP2 ISZERO PUSH2 0x17E8 JUMPI POP PUSH1 0x1 EQ PUSH2 0x18BB JUMPI POP POP POP POP JUMP JUMPDEST SWAP3 SWAP4 SWAP5 POP PUSH1 0x11 PUSH1 0x0 MSTORE PUSH32 0x31ECC21A745E3968A04E9570E4425BC18FA8019C68028196B546D1669C200C68 SWAP3 PUSH1 0x0 SWAP4 JUMPDEST DUP6 DUP6 LT PUSH2 0x1904 JUMPI POP POP POP PUSH1 0x20 SWAP3 POP ADD ADD SWAP1 CODESIZE DUP1 DUP1 DUP1 PUSH2 0x1786 JUMP JUMPDEST DUP1 SLOAD DUP6 DUP6 ADD DUP5 ADD MSTORE SWAP4 DUP3 ADD SWAP4 DUP2 ADD PUSH2 0x18EA JUMP JUMPDEST PUSH1 0x14 SLOAD PUSH1 0x0 SWAP3 SWAP2 PUSH2 0x1927 DUP3 PUSH2 0x171F JUMP JUMPDEST DUP1 DUP3 MSTORE SWAP2 PUSH1 0x20 SWAP1 PUSH1 0x1 SWAP1 DUP2 DUP2 AND SWAP1 DUP2 ISZERO PUSH2 0x17E8 JUMPI POP PUSH1 0x1 EQ PUSH2 0x1949 JUMPI POP POP POP POP JUMP JUMPDEST SWAP3 SWAP4 SWAP5 POP PUSH1 0x14 PUSH1 0x0 MSTORE PUSH1 0x0 DUP1 MLOAD PUSH1 0x20 PUSH2 0x4E70 DUP4 CODECOPY DUP2 MLOAD SWAP2 MSTORE SWAP3 PUSH1 0x0 SWAP4 JUMPDEST DUP6 DUP6 LT PUSH2 0x1980 JUMPI POP POP POP PUSH1 0x20 SWAP3 POP ADD ADD SWAP1 CODESIZE DUP1 DUP1 DUP1 PUSH2 0x1786 JUMP JUMPDEST DUP1 SLOAD DUP6 DUP6 ADD DUP5 ADD MSTORE SWAP4 DUP3 ADD SWAP4 DUP2 ADD PUSH2 0x1966 JUMP JUMPDEST PUSH1 0x13 SLOAD PUSH1 0x0 SWAP3 SWAP2 PUSH2 0x19A3 DUP3 PUSH2 0x171F JUMP JUMPDEST DUP1 DUP3 MSTORE SWAP2 PUSH1 0x20 SWAP1 PUSH1 0x1 SWAP1 DUP2 DUP2 AND SWAP1 DUP2 ISZERO PUSH2 0x17E8 JUMPI POP PUSH1 0x1 EQ PUSH2 0x19C5 JUMPI POP POP POP POP JUMP JUMPDEST SWAP3 SWAP4 SWAP5 POP PUSH1 0x13 PUSH1 0x0 MSTORE PUSH32 0x66DE8FFDA797E3DE9C05E8FC57B3BF0EC28A930D40B0D285D93C06501CF6A090 SWAP3 PUSH1 0x0 SWAP4 JUMPDEST DUP6 DUP6 LT PUSH2 0x1A0E JUMPI POP POP POP PUSH1 0x20 SWAP3 POP ADD ADD SWAP1 CODESIZE DUP1 DUP1 DUP1 PUSH2 0x1786 JUMP JUMPDEST DUP1 SLOAD DUP6 DUP6 ADD DUP5 ADD MSTORE SWAP4 DUP3 ADD SWAP4 DUP2 ADD PUSH2 0x19F4 JUMP JUMPDEST DUP1 SLOAD PUSH1 0x0 SWAP4 SWAP3 PUSH2 0x1A30 DUP3 PUSH2 0x171F JUMP JUMPDEST SWAP2 DUP3 DUP3 MSTORE PUSH1 0x20 SWAP4 PUSH1 0x1 SWAP2 PUSH1 0x1 DUP2 AND SWAP1 DUP2 PUSH1 0x0 EQ PUSH2 0x1A98 JUMPI POP PUSH1 0x1 EQ PUSH2 0x1A57 JUMPI JUMPDEST POP POP POP POP POP JUMP JUMPDEST SWAP1 SWAP4 SWAP5 SWAP6 POP PUSH1 0x0 SWAP3 SWAP2 SWAP3 MSTORE DUP4 PUSH1 0x0 KECCAK256 SWAP3 DUP5 PUSH1 0x0 SWAP5 JUMPDEST DUP4 DUP7 LT PUSH2 0x1A84 JUMPI POP POP POP POP ADD ADD SWAP1 CODESIZE DUP1 DUP1 DUP1 DUP1 PUSH2 0x1A50 JUMP JUMPDEST DUP1 SLOAD DUP6 DUP8 ADD DUP4 ADD MSTORE SWAP5 ADD SWAP4 DUP6 SWAP1 DUP3 ADD PUSH2 0x1A6C JUMP JUMPDEST PUSH1 0xFF NOT AND DUP7 DUP6 ADD MSTORE POP POP POP SWAP1 ISZERO ISZERO PUSH1 0x5 SHL ADD ADD SWAP2 POP CODESIZE DUP1 DUP1 DUP1 DUP1 PUSH2 0x1A50 JUMP JUMPDEST PUSH1 0x40 MLOAD SWAP1 PUSH2 0x1ACF DUP3 PUSH2 0x1AC8 DUP2 PUSH2 0x180D JUMP JUMPDEST SUB DUP4 PUSH2 0x64A JUMP JUMPDEST JUMP JUMPDEST PUSH1 0x40 MLOAD SWAP1 PUSH2 0x1ACF DUP3 PUSH2 0x1AC8 DUP2 PUSH2 0x1889 JUMP JUMPDEST PUSH1 0x40 MLOAD SWAP1 PUSH2 0x1ACF DUP3 PUSH2 0x1AC8 DUP2 PUSH2 0x1917 JUMP JUMPDEST PUSH1 0x40 MLOAD SWAP1 PUSH1 0x0 DUP3 PUSH1 0x12 SLOAD SWAP2 PUSH2 0x1B07 DUP4 PUSH2 0x171F JUMP JUMPDEST DUP1 DUP4 MSTORE SWAP3 PUSH1 0x20 SWAP1 PUSH1 0x1 SWAP1 DUP2 DUP2 AND SWAP1 DUP2 ISZERO PUSH2 0x1B93 JUMPI POP PUSH1 0x1 EQ PUSH2 0x1B32 JUMPI JUMPDEST POP POP PUSH2 0x1ACF SWAP3 POP SUB DUP4 PUSH2 0x64A JUMP JUMPDEST SWAP2 POP SWAP3 PUSH1 0x12 PUSH1 0x0 MSTORE PUSH32 0xBB8A6A4669BA250D26CD7A459ECA9D215F8307E33AEBE50379BC5A3617EC3444 SWAP4 PUSH1 0x0 SWAP3 JUMPDEST DUP3 DUP5 LT PUSH2 0x1B7B JUMPI POP PUSH2 0x1ACF SWAP5 POP POP POP DUP2 ADD PUSH1 0x20 ADD CODESIZE DUP1 PUSH2 0x1B24 JUMP JUMPDEST DUP6 SLOAD DUP9 DUP6 ADD DUP4 ADD MSTORE SWAP5 DUP6 ADD SWAP5 DUP8 SWAP5 POP SWAP3 DUP2 ADD SWAP3 PUSH2 0x1B60 JUMP JUMPDEST SWAP2 POP POP PUSH1 0x20 SWAP3 POP PUSH2 0x1ACF SWAP5 SWAP2 POP PUSH1 0xFF NOT AND DUP3 DUP5 ADD MSTORE ISZERO ISZERO PUSH1 0x5 SHL DUP3 ADD ADD CODESIZE DUP1 PUSH2 0x1B24 JUMP JUMPDEST PUSH1 0x40 MLOAD SWAP1 PUSH2 0x1ACF DUP3 PUSH2 0x1AC8 DUP2 PUSH2 0x1993 JUMP JUMPDEST PUSH1 0x40 MLOAD SWAP1 PUSH1 0x0 DUP3 PUSH1 0x19 SLOAD SWAP2 PUSH2 0x1BDC DUP4 PUSH2 0x171F JUMP JUMPDEST DUP1 DUP4 MSTORE SWAP3 PUSH1 0x20 SWAP1 PUSH1 0x1 SWAP1 DUP2 DUP2 AND SWAP1 DUP2 ISZERO PUSH2 0x1B93 JUMPI POP PUSH1 0x1 EQ PUSH2 0x1C06 JUMPI POP POP PUSH2 0x1ACF SWAP3 POP SUB DUP4 PUSH2 0x64A JUMP JUMPDEST SWAP2 POP SWAP3 PUSH1 0x19 PUSH1 0x0 MSTORE PUSH1 0x0 DUP1 MLOAD PUSH1 0x20 PUSH2 0x4EB0 DUP4 CODECOPY DUP2 MLOAD SWAP2 MSTORE SWAP4 PUSH1 0x0 SWAP3 JUMPDEST DUP3 DUP5 LT PUSH2 0x1C3D JUMPI POP PUSH2 0x1ACF SWAP5 POP POP POP DUP2 ADD PUSH1 0x20 ADD CODESIZE DUP1 PUSH2 0x1B24 JUMP JUMPDEST DUP6 SLOAD DUP9 DUP6 ADD DUP4 ADD MSTORE SWAP5 DUP6 ADD SWAP5 DUP8 SWAP5 POP SWAP3 DUP2 ADD SWAP3 PUSH2 0x1C22 JUMP JUMPDEST SWAP1 PUSH2 0x1ACF PUSH2 0x1AC8 SWAP3 PUSH1 0x40 MLOAD SWAP4 DUP5 DUP1 SWAP3 PUSH2 0x1A21 JUMP JUMPDEST CALLVALUE PUSH2 0x50E JUMPI PUSH1 0x20 CALLDATASIZE PUSH1 0x3 NOT ADD SLT PUSH2 0x50E JUMPI PUSH1 0x4 CALLDATALOAD PUSH1 0x0 MSTORE PUSH1 0x1E PUSH1 0x20 MSTORE PUSH2 0x8D4 PUSH2 0x1C9F PUSH2 0x1CA6 PUSH1 0x40 PUSH1 0x0 KECCAK256 PUSH1 0x40 MLOAD SWAP3 DUP4 DUP1 SWAP3 PUSH2 0x1A21 JUMP JUMPDEST SUB DUP3 PUSH2 0x64A JUMP JUMPDEST PUSH1 0x40 MLOAD SWAP2 DUP3 SWAP2 PUSH1 0x20 DUP4 MSTORE PUSH1 0x20 DUP4 ADD SWAP1 PUSH2 0x842 JUMP JUMPDEST PUSH1 0x0 DUP1 PUSH1 0x3 NOT CALLDATASIZE ADD SLT PUSH2 0x95C JUMPI PUSH1 0x17 SLOAD PUSH1 0xFF DUP2 AND PUSH2 0x13BC JUMPI PUSH1 0x8 SHR PUSH1 0xFF AND PUSH2 0x1E75 JUMPI PUSH1 0xE SLOAD PUSH1 0x15 SLOAD DUP2 LT ISZERO PUSH2 0x1E63 JUMPI PUSH1 0x16 SLOAD CALLVALUE LT PUSH2 0x1E51 JUMPI PUSH2 0x1D03 PUSH2 0x1CFE DUP3 PUSH2 0x3987 JUMP JUMPDEST PUSH1 0xE SSTORE JUMP JUMPDEST CALLER EXTCODESIZE ISZERO PUSH2 0x1E42 JUMPI PUSH2 0x1D14 DUP2 CALLER PUSH2 0x45EE JUMP JUMPDEST PUSH2 0x1D38 PUSH2 0x1D1F PUSH2 0x471A JUMP JUMPDEST PUSH2 0x1D33 DUP4 PUSH1 0x0 MSTORE PUSH1 0x1E PUSH1 0x20 MSTORE PUSH1 0x40 PUSH1 0x0 KECCAK256 SWAP1 JUMP JUMPDEST PUSH2 0x3830 JUMP JUMPDEST PUSH2 0x1D50 CALLER PUSH2 0xA6C DUP4 PUSH1 0x0 MSTORE PUSH1 0x1F PUSH1 0x20 MSTORE PUSH1 0x40 PUSH1 0x0 KECCAK256 SWAP1 JUMP JUMPDEST CALLVALUE PUSH2 0x1D64 DUP3 PUSH1 0x0 MSTORE PUSH1 0x20 DUP1 MSTORE PUSH1 0x40 PUSH1 0x0 KECCAK256 SWAP1 JUMP JUMPDEST SSTORE DUP1 PUSH2 0x1D7A DUP2 PUSH1 0x0 MSTORE PUSH1 0x1E PUSH1 0x20 MSTORE PUSH1 0x40 PUSH1 0x0 KECCAK256 SWAP1 JUMP JUMPDEST PUSH32 0xB89988E1D3E88C0F1C82060EACD83B1EEFF9D84E2DCEB882DE0781FBB7C04FC5 PUSH1 0x40 MLOAD DUP1 PUSH2 0x1DAB CALLER SWAP5 CALLVALUE DUP4 PUSH2 0x3C7F JUMP JUMPDEST SUB SWAP1 LOG3 PUSH1 0xB SLOAD PUSH1 0x1 PUSH1 0x1 PUSH1 0xA0 SHL SUB AND DUP1 PUSH2 0x1DCB JUMPI JUMPDEST PUSH1 0x40 MLOAD DUP3 DUP2 MSTORE PUSH1 0x20 SWAP1 RETURN JUMPDEST PUSH1 0xD SLOAD PUSH1 0x1 PUSH1 0x1 PUSH1 0xA0 SHL SUB AND SWAP1 PUSH1 0x16 SLOAD SWAP2 DUP2 EXTCODESIZE ISZERO PUSH2 0x1E3E JUMPI PUSH1 0x40 MLOAD PUSH4 0x61B0C739 PUSH1 0xE0 SHL DUP2 MSTORE PUSH1 0x1 PUSH1 0x1 PUSH1 0xA0 SHL SUB SWAP2 SWAP1 SWAP2 AND PUSH1 0x4 DUP3 ADD MSTORE PUSH1 0x1 PUSH1 0x24 DUP3 ADD MSTORE PUSH1 0x44 DUP2 ADD SWAP3 SWAP1 SWAP3 MSTORE PUSH2 0x8D4 SWAP4 SWAP1 DUP3 SWAP1 PUSH1 0x64 SWAP1 DUP3 SWAP1 DUP5 SWAP1 GAS CALL ISZERO PUSH2 0x1DC0 JUMPI DUP1 PUSH2 0x1E32 PUSH2 0x1E38 SWAP3 PUSH2 0x5FC JUMP JUMPDEST DUP1 PUSH2 0x814 JUMP JUMPDEST CODESIZE PUSH2 0x1DC0 JUMP JUMPDEST DUP5 DUP1 REVERT JUMPDEST PUSH2 0x1E4C DUP2 CALLER PUSH2 0x44E7 JUMP JUMPDEST PUSH2 0x1D14 JUMP JUMPDEST PUSH1 0x40 MLOAD PUSH4 0xCD1C8867 PUSH1 0xE0 SHL DUP2 MSTORE PUSH1 0x4 SWAP1 REVERT JUMPDEST PUSH1 0x40 MLOAD PUSH4 0x52DF9FE5 PUSH1 0xE0 SHL DUP2 MSTORE PUSH1 0x4 SWAP1 REVERT JUMPDEST PUSH1 0x40 MLOAD PUSH4 0xE158361 PUSH1 0xE3 SHL DUP2 MSTORE PUSH1 0x4 SWAP1 REVERT JUMPDEST CALLVALUE PUSH2 0x50E JUMPI PUSH1 0x0 CALLDATASIZE PUSH1 0x3 NOT ADD SLT PUSH2 0x50E JUMPI PUSH2 0x8D4 PUSH1 0x40 MLOAD PUSH2 0x1CA6 DUP2 PUSH2 0x1C9F DUP2 PUSH2 0x1993 JUMP JUMPDEST CALLVALUE PUSH2 0x50E JUMPI PUSH1 0x0 CALLDATASIZE PUSH1 0x3 NOT ADD SLT PUSH2 0x50E JUMPI PUSH1 0xD SLOAD PUSH1 0x40 MLOAD PUSH1 0x1 PUSH1 0x1 PUSH1 0xA0 SHL SUB SWAP1 SWAP2 AND DUP2 MSTORE PUSH1 0x20 SWAP1 RETURN JUMPDEST CALLVALUE PUSH2 0x50E JUMPI PUSH1 0x0 CALLDATASIZE PUSH1 0x3 NOT ADD SLT PUSH2 0x50E JUMPI PUSH1 0xE SLOAD PUSH1 0x1E DUP2 MUL SWAP1 DUP1 DUP3 DIV PUSH1 0x1E EQ SWAP1 ISZERO OR ISZERO PUSH2 0x1F7E JUMPI PUSH1 0x64 SWAP1 PUSH2 0x8D4 PUSH1 0x26 SLOAD DUP1 TIMESTAMP LT ISZERO SWAP1 DUP2 PUSH2 0x1F67 JUMPI JUMPDEST DUP2 PUSH2 0x1F50 JUMPI JUMPDEST PUSH1 0x29 SLOAD PUSH1 0x27 SLOAD PUSH1 0xFF AND SWAP1 PUSH1 0x40 MLOAD SWAP7 DUP8 SWAP7 DIV SWAP1 DUP7 SWAP4 SWAP1 SWAP6 SWAP5 SWAP2 SWAP3 PUSH1 0x80 SWAP4 PUSH1 0xA0 DUP7 ADD SWAP8 DUP7 MSTORE PUSH1 0x20 DUP7 ADD MSTORE ISZERO ISZERO PUSH1 0x40 DUP6 ADD MSTORE PUSH1 0x60 DUP5 ADD MSTORE ISZERO ISZERO SWAP2 ADD MSTORE JUMP JUMPDEST SWAP1 POP PUSH2 0x1F61 PUSH2 0xC72 PUSH1 0x25 SLOAD PUSH1 0xFF AND SWAP1 JUMP JUMPDEST SWAP1 PUSH2 0x1F15 JUMP JUMPDEST SWAP1 POP PUSH2 0x1F78 PUSH2 0xC72 PUSH1 0x27 SLOAD PUSH1 0xFF AND SWAP1 JUMP JUMPDEST SWAP1 PUSH2 0x1F0F JUMP JUMPDEST PUSH2 0x3971 JUMP JUMPDEST CALLVALUE PUSH2 0x50E JUMPI PUSH1 0x20 CALLDATASIZE PUSH1 0x3 NOT ADD SLT PUSH2 0x50E JUMPI PUSH1 0x20 PUSH2 0x1FA1 PUSH1 0x4 CALLDATALOAD PUSH2 0x43D3 JUMP JUMPDEST PUSH1 0x40 MLOAD PUSH1 0x1 PUSH1 0x1 PUSH1 0xA0 SHL SUB SWAP1 SWAP2 AND DUP2 MSTORE RETURN JUMPDEST CALLVALUE PUSH2 0x50E JUMPI PUSH1 0x0 DUP1 PUSH1 0x3 NOT CALLDATASIZE ADD SLT PUSH2 0x95C JUMPI PUSH1 0x40 MLOAD SWAP1 DUP1 DUP3 PUSH1 0x1B SLOAD SWAP2 PUSH2 0x1FD8 DUP4 PUSH2 0x171F JUMP JUMPDEST SWAP3 DUP4 DUP4 MSTORE PUSH1 0x20 SWAP5 PUSH1 0x1 SWAP2 DUP7 PUSH1 0x1 DUP3 AND SWAP2 DUP3 PUSH1 0x0 EQ PUSH2 0x2076 JUMPI POP POP PUSH1 0x1 EQ PUSH2 0x201C JUMPI JUMPDEST POP POP PUSH2 0x2008 SWAP3 POP SUB DUP4 PUSH2 0x64A JUMP JUMPDEST PUSH2 0x8D4 PUSH1 0x40 MLOAD SWAP3 DUP3 DUP5 SWAP4 DUP5 MSTORE DUP4 ADD SWAP1 PUSH2 0x842 JUMP JUMPDEST SWAP1 DUP6 SWAP3 POP PUSH1 0x1B DUP3 MSTORE PUSH32 0x3AD8AA4F87544323A9D1E5DD902F40C356527A7955687113DB5F9A85AD579DC1 JUMPDEST DUP6 DUP4 LT PUSH2 0x205E JUMPI POP POP PUSH2 0x2008 SWAP4 POP DUP3 ADD ADD CODESIZE DUP1 PUSH2 0x1FFA JUMP JUMPDEST DUP1 SLOAD DUP4 DUP10 ADD DUP6 ADD MSTORE DUP8 SWAP5 POP DUP7 SWAP4 SWAP1 SWAP3 ADD SWAP2 DUP2 ADD PUSH2 0x2046 JUMP JUMPDEST SWAP3 POP SWAP4 POP POP PUSH2 0x2008 SWAP5 SWAP2 POP PUSH1 0xFF NOT AND DUP3 DUP5 ADD MSTORE ISZERO ISZERO PUSH1 0x5 SHL DUP3 ADD ADD CODESIZE DUP1 PUSH2 0x1FFA JUMP JUMPDEST CALLVALUE PUSH2 0x50E JUMPI PUSH1 0x0 CALLDATASIZE PUSH1 0x3 NOT ADD SLT PUSH2 0x50E JUMPI PUSH1 0x20 PUSH1 0x40 MLOAD PUSH1 0x1E DUP2 MSTORE RETURN JUMPDEST CALLVALUE PUSH2 0x50E JUMPI PUSH1 0x0 CALLDATASIZE PUSH1 0x3 NOT ADD SLT PUSH2 0x50E JUMPI PUSH2 0x8D4 PUSH1 0x40 MLOAD PUSH2 0x1CA6 DUP2 PUSH2 0x1C9F DUP2 PUSH2 0x1917 JUMP JUMPDEST CALLVALUE PUSH2 0x50E JUMPI PUSH1 0x0 CALLDATASIZE PUSH1 0x3 NOT ADD SLT PUSH2 0x50E JUMPI PUSH1 0x20 PUSH1 0x26 SLOAD PUSH1 0x40 MLOAD SWAP1 DUP2 MSTORE RETURN JUMPDEST CALLVALUE PUSH2 0x50E JUMPI PUSH1 0x0 DUP1 PUSH1 0x3 NOT CALLDATASIZE ADD SLT PUSH2 0x95C JUMPI PUSH1 0x40 MLOAD SWAP1 DUP1 DUP3 PUSH1 0x12 SLOAD SWAP2 PUSH2 0x211B DUP4 PUSH2 0x171F JUMP JUMPDEST SWAP3 DUP4 DUP4 MSTORE PUSH1 0x20 SWAP5 PUSH1 0x1 SWAP2 DUP7 PUSH1 0x1 DUP3 AND SWAP2 DUP3 PUSH1 0x0 EQ PUSH2 0x2076 JUMPI POP POP PUSH1 0x1 EQ PUSH2 0x214A JUMPI POP POP PUSH2 0x2008 SWAP3 POP SUB DUP4 PUSH2 0x64A JUMP JUMPDEST SWAP1 DUP6 SWAP3 POP PUSH1 0x12 DUP3 MSTORE PUSH32 0xBB8A6A4669BA250D26CD7A459ECA9D215F8307E33AEBE50379BC5A3617EC3444 JUMPDEST DUP6 DUP4 LT PUSH2 0x218C JUMPI POP POP PUSH2 0x2008 SWAP4 POP DUP3 ADD ADD CODESIZE DUP1 PUSH2 0x1FFA JUMP JUMPDEST DUP1 SLOAD DUP4 DUP10 ADD DUP6 ADD MSTORE DUP8 SWAP5 POP DUP7 SWAP4 SWAP1 SWAP3 ADD SWAP2 DUP2 ADD PUSH2 0x2174 JUMP JUMPDEST CALLVALUE PUSH2 0x50E JUMPI PUSH1 0x0 CALLDATASIZE PUSH1 0x3 NOT ADD SLT PUSH2 0x50E JUMPI PUSH1 0x20 PUSH1 0xFF PUSH1 0x27 SLOAD AND PUSH1 0x40 MLOAD SWAP1 ISZERO ISZERO DUP2 MSTORE RETURN JUMPDEST SWAP6 SWAP3 SWAP2 PUSH1 0xC0 SWAP6 SWAP3 PUSH2 0x21E7 PUSH2 0x21FA SWAP4 SWAP11 SWAP10 SWAP7 SWAP11 PUSH1 0xE0 DUP11 MSTORE PUSH1 0xE0 DUP11 ADD SWAP1 PUSH2 0x842 JUMP JUMPDEST SWAP2 PUSH1 0x20 DUP10 ADD MSTORE DUP8 DUP3 SUB PUSH1 0x40 DUP10 ADD MSTORE PUSH2 0x842 JUMP JUMPDEST SWAP7 PUSH1 0x60 DUP7 ADD MSTORE PUSH1 0x80 DUP6 ADD MSTORE ISZERO ISZERO PUSH1 0xA0 DUP5 ADD MSTORE ISZERO ISZERO SWAP2 ADD MSTORE JUMP JUMPDEST CALLVALUE PUSH2 0x50E JUMPI PUSH1 0x0 DUP1 PUSH1 0x3 NOT CALLDATASIZE ADD SLT PUSH2 0x95C JUMPI PUSH1 0x10 SLOAD PUSH1 0x16 SLOAD SWAP1 PUSH1 0x15 SLOAD PUSH1 0xE SLOAD DUP2 SUB SWAP1 DUP2 GT PUSH2 0x1F7E JUMPI PUSH1 0x17 SLOAD SWAP1 PUSH1 0x40 MLOAD SWAP1 DUP6 PUSH1 0xF SLOAD SWAP1 PUSH2 0x2251 DUP3 PUSH2 0x171F JUMP JUMPDEST DUP1 DUP6 MSTORE SWAP2 PUSH1 0x20 SWAP2 PUSH1 0x1 SWAP2 DUP3 DUP2 AND SWAP1 DUP2 ISZERO PUSH2 0x22FA JUMPI POP PUSH1 0x1 EQ PUSH2 0x22B2 JUMPI JUMPDEST POP POP POP POP PUSH2 0x2283 DUP3 PUSH2 0x8D4 SWAP6 SWAP7 SWAP8 SUB DUP4 PUSH2 0x64A JUMP JUMPDEST PUSH1 0x40 MLOAD SWAP6 PUSH2 0x229B DUP8 PUSH2 0x2294 DUP2 PUSH2 0x1759 JUMP JUMPDEST SUB DUP9 PUSH2 0x64A JUMP JUMPDEST PUSH1 0x40 MLOAD SWAP7 DUP8 SWAP7 PUSH1 0xFF DUP1 DUP8 PUSH1 0x8 SHR AND SWAP7 AND SWAP5 DUP9 PUSH2 0x21C7 JUMP JUMPDEST SWAP9 POP PUSH1 0xF DUP10 MSTORE PUSH1 0x0 DUP1 MLOAD PUSH1 0x20 PUSH2 0x4E90 DUP4 CODECOPY DUP2 MLOAD SWAP2 MSTORE JUMPDEST DUP4 DUP11 LT PUSH2 0x22E7 JUMPI POP POP POP POP SWAP5 DUP2 ADD PUSH1 0x20 ADD SWAP5 PUSH2 0x2283 DUP3 PUSH2 0x8D4 CODESIZE PUSH2 0x226E JUMP JUMPDEST DUP1 SLOAD DUP7 DUP12 ADD DUP5 ADD MSTORE SWAP9 DUP3 ADD SWAP9 DUP2 ADD PUSH2 0x22C8 JUMP JUMPDEST PUSH1 0xFF NOT AND PUSH1 0x20 DUP1 DUP10 ADD SWAP2 SWAP1 SWAP2 MSTORE SWAP5 ISZERO ISZERO PUSH1 0x5 SHL DUP8 ADD SWAP1 SWAP5 ADD SWAP10 POP PUSH2 0x2283 SWAP4 POP DUP6 SWAP3 POP PUSH2 0x8D4 SWAP2 POP CODESIZE SWAP1 POP PUSH2 0x226E JUMP JUMPDEST CALLVALUE PUSH2 0x50E JUMPI PUSH1 0x20 CALLDATASIZE PUSH1 0x3 NOT ADD SLT PUSH2 0x50E JUMPI PUSH1 0x20 PUSH2 0x14FA PUSH2 0x2347 PUSH2 0x9BB JUMP JUMPDEST PUSH2 0x3CA3 JUMP JUMPDEST CALLVALUE PUSH2 0x50E JUMPI PUSH1 0x0 DUP1 PUSH1 0x3 NOT CALLDATASIZE ADD SLT PUSH2 0x95C JUMPI PUSH2 0x2366 PUSH2 0x475F JUMP JUMPDEST PUSH1 0xA DUP1 SLOAD PUSH1 0x1 PUSH1 0x1 PUSH1 0xA0 SHL SUB NOT DUP2 AND SWAP1 SWAP2 SSTORE DUP2 SWAP1 PUSH1 0x1 PUSH1 0x1 PUSH1 0xA0 SHL SUB AND PUSH32 0x8BE0079C531659141344CD1FD0A4F28419497F9722A3DAAFE3B4186F6B6457E0 DUP3 DUP1 LOG3 DUP1 RETURN JUMPDEST CALLVALUE PUSH2 0x50E JUMPI PUSH1 0x0 DUP1 PUSH1 0x3 NOT CALLDATASIZE ADD SLT PUSH2 0x95C JUMPI PUSH1 0x40 MLOAD SWAP1 DUP1 DUP3 PUSH1 0x1A SLOAD SWAP2 PUSH2 0x23CF DUP4 PUSH2 0x171F JUMP JUMPDEST SWAP3 DUP4 DUP4 MSTORE PUSH1 0x20 SWAP5 PUSH1 0x1 SWAP2 DUP7 PUSH1 0x1 DUP3 AND SWAP2 DUP3 PUSH1 0x0 EQ PUSH2 0x2076 JUMPI POP POP PUSH1 0x1 EQ PUSH2 0x23FE JUMPI POP POP PUSH2 0x2008 SWAP3 POP SUB DUP4 PUSH2 0x64A JUMP JUMPDEST SWAP1 DUP6 SWAP3 POP PUSH1 0x1A DUP3 MSTORE PUSH1 0x0 DUP1 MLOAD PUSH1 0x20 PUSH2 0x4E50 DUP4 CODECOPY DUP2 MLOAD SWAP2 MSTORE JUMPDEST DUP6 DUP4 LT PUSH2 0x242E JUMPI POP POP PUSH2 0x2008 SWAP4 POP DUP3 ADD ADD CODESIZE DUP1 PUSH2 0x1FFA JUMP JUMPDEST DUP1 SLOAD DUP4 DUP10 ADD DUP6 ADD MSTORE DUP8 SWAP5 POP DUP7 SWAP4 SWAP1 SWAP3 ADD SWAP2 DUP2 ADD PUSH2 0x2416 JUMP JUMPDEST CALLVALUE PUSH2 0x50E JUMPI PUSH1 0x0 CALLDATASIZE PUSH1 0x3 NOT ADD SLT PUSH2 0x50E JUMPI PUSH2 0x8D4 PUSH1 0x40 MLOAD PUSH2 0x1CA6 DUP2 PUSH2 0x1C9F DUP2 PUSH2 0x180D JUMP JUMPDEST CALLVALUE PUSH2 0x50E JUMPI PUSH2 0x2478 CALLDATASIZE PUSH2 0x6BD JUMP JUMPDEST PUSH1 0xD SLOAD PUSH2 0x2499 SWAP1 CALLER PUSH1 0x1 PUSH1 0x1 PUSH1 0xA0 SHL SUB SWAP2 DUP3 AND EQ SWAP1 DUP2 ISZERO PUSH2 0x806 JUMPI POP PUSH2 0x34B8 JUMP JUMPDEST DUP1 MLOAD PUSH1 0x1 PUSH1 0x1 PUSH1 0x40 SHL SUB DUP2 GT PUSH2 0x60F JUMPI PUSH2 0x24BD DUP2 PUSH2 0x24B8 PUSH1 0x1A SLOAD PUSH2 0x171F JUMP JUMPDEST PUSH2 0x35C4 JUMP JUMPDEST PUSH1 0x20 PUSH1 0x1F DUP3 GT PUSH1 0x1 EQ PUSH2 0x255B JUMPI SWAP1 DUP1 PUSH2 0x24EC SWAP3 PUSH1 0x0 SWAP2 PUSH2 0x2550 JUMPI JUMPDEST POP DUP2 PUSH1 0x1 SHL SWAP2 PUSH1 0x0 NOT SWAP1 PUSH1 0x3 SHL SHR NOT AND OR SWAP1 JUMP JUMPDEST PUSH1 0x1A SSTORE JUMPDEST DUP1 MLOAD PUSH2 0x24F8 JUMPI STOP JUMPDEST PUSH2 0x253F PUSH2 0x254B PUSH2 0xA8B SWAP3 PUSH1 0x40 MLOAD SWAP1 DUP2 PUSH2 0x2515 PUSH1 0x20 DUP3 ADD DUP1 SWAP4 PUSH2 0x3CDC JUMP JUMPDEST SUB SWAP2 PUSH2 0x2529 PUSH1 0x1F NOT SWAP4 DUP5 DUP2 ADD DUP4 MSTORE DUP3 PUSH2 0x64A JUMP JUMPDEST MLOAD SWAP1 KECCAK256 PUSH1 0x40 MLOAD SWAP4 DUP5 SWAP2 PUSH1 0x20 DUP4 ADD PUSH1 0x20 SWAP2 DUP2 MSTORE ADD SWAP1 JUMP JUMPDEST SUB SWAP1 DUP2 ADD DUP4 MSTORE DUP3 PUSH2 0x64A JUMP JUMPDEST PUSH2 0x374C JUMP JUMPDEST SWAP1 POP DUP4 ADD MLOAD CODESIZE PUSH2 0x24D8 JUMP JUMPDEST PUSH1 0x1A PUSH1 0x0 MSTORE PUSH1 0x1F NOT DUP3 AND SWAP1 PUSH1 0x0 DUP1 MLOAD PUSH1 0x20 PUSH2 0x4E50 DUP4 CODECOPY DUP2 MLOAD SWAP2 MSTORE SWAP2 PUSH1 0x0 JUMPDEST DUP2 DUP2 LT PUSH2 0x25B4 JUMPI POP SWAP1 DUP4 PUSH1 0x1 SWAP5 SWAP4 SWAP3 LT PUSH2 0x259B JUMPI JUMPDEST POP POP DUP2 SHL ADD PUSH1 0x1A SSTORE PUSH2 0x24F0 JUMP JUMPDEST DUP5 ADD MLOAD PUSH1 0x0 NOT PUSH1 0xF8 DUP5 PUSH1 0x3 SHL AND SHR NOT AND SWAP1 SSTORE CODESIZE DUP1 PUSH2 0x258E JUMP JUMPDEST SWAP2 SWAP3 PUSH1 0x20 PUSH1 0x1 DUP2 SWAP3 DUP7 DUP10 ADD MLOAD DUP2 SSTORE ADD SWAP5 ADD SWAP3 ADD PUSH2 0x2579 JUMP JUMPDEST CALLVALUE PUSH2 0x50E JUMPI PUSH1 0x0 CALLDATASIZE PUSH1 0x3 NOT ADD SLT PUSH2 0x50E JUMPI PUSH1 0xA SLOAD PUSH1 0x40 MLOAD PUSH1 0x1 PUSH1 0x1 PUSH1 0xA0 SHL SUB SWAP1 SWAP2 AND DUP2 MSTORE PUSH1 0x20 SWAP1 RETURN JUMPDEST CALLVALUE PUSH2 0x50E JUMPI PUSH1 0x0 CALLDATASIZE PUSH1 0x3 NOT ADD SLT PUSH2 0x50E JUMPI PUSH1 0x20 PUSH1 0x40 MLOAD PUSH3 0x3F480 DUP2 MSTORE RETURN JUMPDEST CALLVALUE PUSH2 0x50E JUMPI PUSH1 0x0 CALLDATASIZE PUSH1 0x3 NOT ADD SLT PUSH2 0x50E JUMPI PUSH1 0xD SLOAD PUSH2 0x2645 SWAP1 CALLER PUSH1 0x1 PUSH1 0x1 PUSH1 0xA0 SHL SUB SWAP2 DUP3 AND EQ SWAP1 DUP2 ISZERO PUSH2 0x806 JUMPI POP PUSH2 0x34B8 JUMP JUMPDEST PUSH1 0x17 SLOAD PUSH1 0xFF DUP2 PUSH1 0x8 SHR AND ISZERO PUSH2 0x268F JUMPI PUSH2 0xFF00 NOT AND PUSH1 0x17 SSTORE PUSH1 0x40 MLOAD TIMESTAMP DUP2 MSTORE PUSH32 0x153E62E8CBF370987F79CDE37897D15D96049C5DA8601CC119746169FEBED1C9 SWAP1 DUP1 PUSH1 0x20 DUP2 ADD JUMPDEST SUB SWAP1 LOG1 STOP JUMPDEST PUSH1 0x40 MLOAD PUSH3 0x461BCD PUSH1 0xE5 SHL DUP2 MSTORE PUSH1 0x20 PUSH1 0x4 DUP3 ADD MSTORE PUSH1 0xA PUSH1 0x24 DUP3 ADD MSTORE PUSH10 0x139BDD081C185D5CD959 PUSH1 0xB2 SHL PUSH1 0x44 DUP3 ADD MSTORE PUSH1 0x64 SWAP1 REVERT JUMPDEST CALLVALUE PUSH2 0x50E JUMPI PUSH1 0x0 DUP1 PUSH1 0x3 NOT CALLDATASIZE ADD SLT PUSH2 0x95C JUMPI PUSH1 0x40 MLOAD SWAP1 DUP1 DUP3 PUSH1 0x19 SLOAD SWAP2 PUSH2 0x26E6 DUP4 PUSH2 0x171F JUMP JUMPDEST SWAP3 DUP4 DUP4 MSTORE PUSH1 0x20 SWAP5 PUSH1 0x1 SWAP2 DUP7 PUSH1 0x1 DUP3 AND SWAP2 DUP3 PUSH1 0x0 EQ PUSH2 0x2076 JUMPI POP POP PUSH1 0x1 EQ PUSH2 0x2715 JUMPI POP POP PUSH2 0x2008 SWAP3 POP SUB DUP4 PUSH2 0x64A JUMP JUMPDEST SWAP1 DUP6 SWAP3 POP PUSH1 0x19 DUP3 MSTORE PUSH1 0x0 DUP1 MLOAD PUSH1 0x20 PUSH2 0x4EB0 DUP4 CODECOPY DUP2 MLOAD SWAP2 MSTORE JUMPDEST DUP6 DUP4 LT PUSH2 0x2745 JUMPI POP POP PUSH2 0x2008 SWAP4 POP DUP3 ADD ADD CODESIZE DUP1 PUSH2 0x1FFA JUMP JUMPDEST DUP1 SLOAD DUP4 DUP10 ADD DUP6 ADD MSTORE DUP8 SWAP5 POP DUP7 SWAP4 SWAP1 SWAP3 ADD SWAP2 DUP2 ADD PUSH2 0x272D JUMP JUMPDEST CALLVALUE PUSH2 0x50E JUMPI PUSH1 0x0 DUP1 PUSH1 0x3 NOT CALLDATASIZE ADD SLT PUSH2 0x95C JUMPI PUSH1 0x40 MLOAD SWAP1 DUP1 PUSH1 0x1 DUP1 SLOAD SWAP1 PUSH2 0x2782 DUP3 PUSH2 0x171F JUMP JUMPDEST DUP1 DUP7 MSTORE SWAP3 PUSH1 0x20 SWAP3 PUSH1 0x1 DUP2 AND SWAP1 DUP2 ISZERO PUSH2 0x92F JUMPI POP PUSH1 0x1 EQ PUSH2 0x27AC JUMPI PUSH2 0x8D4 DUP7 PUSH2 0x8C8 DUP2 DUP9 SUB DUP3 PUSH2 0x64A JUMP JUMPDEST SWAP4 POP PUSH1 0x1 DUP5 MSTORE PUSH32 0xB10E2D527612073B26EECDFD717E6A320CF44B4AFAC2B0732D9FCBE2B7FA0CF6 JUMPDEST DUP4 DUP6 LT PUSH2 0x27F1 JUMPI POP POP POP POP DUP2 ADD PUSH1 0x20 ADD PUSH2 0x8C8 DUP3 PUSH2 0x8D4 CODESIZE PUSH2 0x8B8 JUMP JUMPDEST DUP1 SLOAD DUP7 DUP7 ADD DUP5 ADD MSTORE SWAP4 DUP3 ADD SWAP4 DUP2 ADD PUSH2 0x27D4 JUMP JUMPDEST CALLVALUE PUSH2 0x50E JUMPI PUSH1 0x0 CALLDATASIZE PUSH1 0x3 NOT ADD SLT PUSH2 0x50E JUMPI PUSH2 0x281E CALLER PUSH2 0x3CA3 JUMP JUMPDEST CALLER PUSH1 0x0 SWAP1 DUP2 MSTORE PUSH1 0x22 PUSH1 0x20 MSTORE PUSH1 0x40 SWAP1 KECCAK256 SLOAD ISZERO SWAP1 ISZERO SWAP1 DUP2 PUSH2 0x2966 JUMPI JUMPDEST POP PUSH2 0xE28 JUMPI CALLER PUSH1 0x0 SWAP1 DUP2 MSTORE PUSH1 0x28 PUSH1 0x20 MSTORE PUSH1 0x40 SWAP1 KECCAK256 PUSH2 0x2855 SWAP1 PUSH2 0xDF4 JUMP JUMPDEST PUSH2 0x2954 JUMPI CALLER PUSH1 0x0 SWAP1 DUP2 MSTORE PUSH1 0x28 PUSH1 0x20 MSTORE PUSH1 0x40 SWAP1 KECCAK256 PUSH2 0x2871 SWAP1 PUSH2 0xD88 JUMP JUMPDEST PUSH2 0x2884 PUSH2 0x287F PUSH1 0x29 SLOAD PUSH2 0x3987 JUMP JUMPDEST PUSH1 0x29 SSTORE JUMP JUMPDEST PUSH2 0x2899 PUSH2 0x2892 PUSH1 0xE SLOAD PUSH2 0x3996 JUMP JUMPDEST PUSH1 0x64 SWAP1 DIV SWAP1 JUMP JUMPDEST PUSH1 0x29 SLOAD PUSH1 0x40 DUP1 MLOAD DUP3 DUP2 MSTORE PUSH1 0x20 DUP2 ADD DUP5 SWAP1 MSTORE CALLER SWAP2 PUSH32 0x963553E4C1AA776A576B2A0F3FF27EB7870BD13A5EC6B0BB266C3113A26A2987 SWAP2 LOG2 LT ISZERO DUP1 PUSH2 0x293F JUMPI JUMPDEST PUSH2 0x28DD JUMPI STOP JUMPDEST PUSH2 0x28EF PUSH1 0x1 PUSH1 0xFF NOT PUSH1 0x27 SLOAD AND OR PUSH1 0x27 SSTORE JUMP JUMPDEST PUSH2 0x2901 PUSH1 0x1 PUSH1 0xFF NOT PUSH1 0x21 SLOAD AND OR PUSH1 0x21 SSTORE JUMP JUMPDEST PUSH1 0x29 SLOAD PUSH1 0x40 DUP1 MLOAD TIMESTAMP DUP2 MSTORE PUSH1 0x20 DUP2 ADD SWAP3 SWAP1 SWAP3 MSTORE PUSH32 0xC62BEC035D80F84213952B377CA5C7E4663E52E2564BEBA8436B893449F7FE7C SWAP2 SWAP1 DUP2 SWAP1 DUP2 ADD PUSH2 0x268A JUMP JUMPDEST POP PUSH2 0x294F PUSH2 0xC72 PUSH1 0x27 SLOAD PUSH1 0xFF AND SWAP1 JUMP JUMPDEST PUSH2 0x28D7 JUMP JUMPDEST PUSH1 0x40 MLOAD PUSH4 0x70CC686B PUSH1 0xE1 SHL DUP2 MSTORE PUSH1 0x4 SWAP1 REVERT JUMPDEST SWAP1 POP CODESIZE PUSH2 0x2838 JUMP JUMPDEST CALLVALUE PUSH2 0x50E JUMPI PUSH1 0x20 CALLDATASIZE PUSH1 0x3 NOT ADD SLT PUSH2 0x50E JUMPI PUSH1 0x4 CALLDATALOAD PUSH1 0x0 MSTORE PUSH1 0x20 DUP1 MSTORE PUSH1 0x20 PUSH1 0x40 PUSH1 0x0 KECCAK256 SLOAD PUSH1 0x40 MLOAD SWAP1 DUP2 MSTORE RETURN JUMPDEST CALLVALUE PUSH2 0x50E JUMPI PUSH1 0x0 CALLDATASIZE PUSH1 0x3 NOT ADD SLT PUSH2 0x50E JUMPI PUSH1 0x20 PUSH1 0x1 PUSH1 0x1 PUSH1 0x60 SHL SUB PUSH1 0x1C SLOAD AND PUSH1 0x40 MLOAD SWAP1 DUP2 MSTORE RETURN JUMPDEST CALLVALUE PUSH2 0x50E JUMPI PUSH1 0x40 CALLDATASIZE PUSH1 0x3 NOT ADD SLT PUSH2 0x50E JUMPI PUSH2 0x29D9 PUSH2 0x9BB JUMP JUMPDEST PUSH1 0x24 CALLDATALOAD DUP1 ISZERO ISZERO SWAP1 DUP2 DUP2 SUB PUSH2 0x50E JUMPI PUSH1 0x1 PUSH1 0x1 PUSH1 0xA0 SHL SUB DUP4 AND SWAP3 DUP4 ISZERO PUSH2 0x2A64 JUMPI SWAP1 PUSH2 0x2A25 PUSH2 0x2A36 SWAP3 CALLER PUSH1 0x0 MSTORE PUSH1 0x5 PUSH1 0x20 MSTORE PUSH1 0x40 PUSH1 0x0 KECCAK256 SWAP1 PUSH1 0x1 DUP1 PUSH1 0xA0 SHL SUB AND PUSH1 0x0 MSTORE PUSH1 0x20 MSTORE PUSH1 0x40 PUSH1 0x0 KECCAK256 SWAP1 JUMP JUMPDEST SWAP1 PUSH1 0xFF DUP1 NOT DUP4 SLOAD AND SWAP2 ISZERO ISZERO AND OR SWAP1 SSTORE JUMP JUMPDEST PUSH1 0x40 MLOAD SWAP1 DUP2 MSTORE PUSH32 0x17307EAB39AB6107E8899845AD3D59BD9653F200F220920489CA2B5937696C31 PUSH1 0x20 CALLER SWAP3 LOG3 STOP JUMPDEST PUSH1 0x40 MLOAD PUSH4 0xB611743 PUSH1 0xE3 SHL DUP2 MSTORE PUSH1 0x4 DUP2 ADD DUP6 SWAP1 MSTORE PUSH1 0x24 SWAP1 REVERT JUMPDEST CALLVALUE PUSH2 0x50E JUMPI PUSH1 0x0 CALLDATASIZE PUSH1 0x3 NOT ADD SLT PUSH2 0x50E JUMPI PUSH1 0x20 PUSH1 0x29 SLOAD PUSH1 0x40 MLOAD SWAP1 DUP2 MSTORE RETURN JUMPDEST CALLVALUE PUSH2 0x50E JUMPI PUSH1 0x0 CALLDATASIZE PUSH1 0x3 NOT ADD SLT PUSH2 0x50E JUMPI PUSH1 0x20 PUSH1 0xFF PUSH1 0x25 SLOAD AND PUSH1 0x40 MLOAD SWAP1 ISZERO ISZERO DUP2 MSTORE RETURN JUMPDEST CALLVALUE PUSH2 0x50E JUMPI PUSH1 0x0 CALLDATASIZE PUSH1 0x3 NOT ADD SLT PUSH2 0x50E JUMPI PUSH1 0x20 PUSH1 0xFF PUSH1 0x17 SLOAD PUSH1 0x8 SHR AND PUSH1 0x40 MLOAD SWAP1 ISZERO ISZERO DUP2 MSTORE RETURN JUMPDEST CALLVALUE PUSH2 0x50E JUMPI PUSH1 0x0 DUP1 PUSH1 0x3 NOT CALLDATASIZE ADD SLT PUSH2 0x95C JUMPI PUSH2 0x2B05 PUSH2 0xC72 PUSH1 0x21 SLOAD PUSH1 0xFF AND SWAP1 JUMP JUMPDEST PUSH2 0x2CE1 JUMPI PUSH1 0x18 SLOAD TIMESTAMP GT PUSH2 0x2CCF JUMPI PUSH2 0x2B1B CALLER PUSH2 0x3CA3 JUMP JUMPDEST DUP1 ISZERO PUSH2 0xE28 JUMPI PUSH2 0x2B2A DUP2 PUSH2 0x3910 JUMP JUMPDEST DUP3 DUP4 JUMPDEST DUP4 DUP2 LT PUSH2 0x2C5E JUMPI POP DUP1 ISZERO PUSH2 0x2C4C JUMPI PUSH2 0x2B47 PUSH1 0x16 SLOAD DUP3 PUSH2 0x39C4 JUMP JUMPDEST SWAP3 DUP4 SELFBALANCE LT PUSH2 0xDAC JUMPI PUSH2 0x2B58 DUP3 PUSH2 0x3910 JUMP JUMPDEST SWAP3 DUP6 JUMPDEST DUP4 DUP2 LT PUSH2 0x2C13 JUMPI POP POP CALLER PUSH1 0x0 SWAP1 DUP2 MSTORE PUSH1 0x22 PUSH1 0x20 MSTORE PUSH1 0x40 SWAP1 KECCAK256 PUSH2 0x2B7E DUP4 DUP3 SLOAD PUSH2 0x3A03 JUMP JUMPDEST SWAP1 SSTORE PUSH2 0x2B8F PUSH2 0xCFA DUP6 PUSH1 0x24 SLOAD PUSH2 0x3A03 JUMP JUMPDEST DUP5 DUP1 DUP1 DUP1 DUP8 CALLER GAS CALL PUSH2 0x2B9F PUSH2 0x3A23 JUMP JUMPDEST POP ISZERO PUSH2 0xD4E JUMPI DUP2 SUB PUSH2 0x2BDF JUMPI POP PUSH2 0xD48 PUSH32 0x4AB127485E25B893B831478744CE27218F38F11ABCF85CAB4BFE1454DECAAC6F SWAP2 PUSH1 0x40 MLOAD SWAP2 DUP3 SWAP2 CALLER SWAP6 DUP4 PUSH2 0x3A53 JUMP JUMPDEST SWAP1 PUSH32 0xC7F7BD90E47F42337993BF872AB3FEC1D437A69B7EDC259F426F3DCBE8F4307 SWAP2 PUSH2 0xD48 PUSH1 0x40 MLOAD SWAP3 DUP4 SWAP3 CALLER SWAP7 DUP5 PUSH2 0x3CF3 JUMP JUMPDEST DUP1 PUSH2 0x2C46 PUSH2 0x2C23 PUSH1 0x1 SWAP4 DUP6 PUSH2 0x3958 JUMP JUMPDEST MLOAD PUSH2 0x2C3B PUSH2 0xD88 DUP3 PUSH1 0x0 MSTORE PUSH1 0x23 PUSH1 0x20 MSTORE PUSH1 0x40 PUSH1 0x0 KECCAK256 SWAP1 JUMP JUMPDEST DUP1 PUSH2 0xDA0 DUP5 DUP11 PUSH2 0x3958 JUMP JUMPDEST ADD PUSH2 0x2B5B JUMP JUMPDEST PUSH1 0x40 MLOAD PUSH4 0xA53C6C4F PUSH1 0xE0 SHL DUP2 MSTORE PUSH1 0x4 SWAP1 REVERT JUMPDEST PUSH2 0x2C68 DUP2 CALLER PUSH2 0x3C1F JUMP JUMPDEST PUSH2 0x2C82 PUSH2 0xC72 PUSH2 0xDF4 DUP4 PUSH1 0x0 MSTORE PUSH1 0x1D PUSH1 0x20 MSTORE PUSH1 0x40 PUSH1 0x0 KECCAK256 SWAP1 JUMP JUMPDEST DUP1 PUSH2 0x2CAF JUMPI JUMPDEST PUSH2 0x2C96 JUMPI JUMPDEST POP PUSH1 0x1 ADD PUSH2 0x2B2D JUMP JUMPDEST DUP3 PUSH2 0x2CA8 SWAP2 PUSH2 0xE1B PUSH1 0x1 SWAP5 SWAP6 DUP8 PUSH2 0x3958 JUMP JUMPDEST SWAP2 SWAP1 PUSH2 0x2C8D JUMP JUMPDEST POP PUSH2 0x2CCA PUSH2 0xC72 PUSH2 0xDF4 DUP4 PUSH1 0x0 MSTORE PUSH1 0x23 PUSH1 0x20 MSTORE PUSH1 0x40 PUSH1 0x0 KECCAK256 SWAP1 JUMP JUMPDEST PUSH2 0x2C88 JUMP JUMPDEST PUSH1 0x40 MLOAD PUSH4 0x36AD3889 PUSH1 0xE1 SHL DUP2 MSTORE PUSH1 0x4 SWAP1 REVERT JUMPDEST PUSH1 0x40 MLOAD PUSH4 0x64547E69 PUSH1 0xE0 SHL DUP2 MSTORE PUSH1 0x4 SWAP1 REVERT JUMPDEST CALLVALUE PUSH2 0x50E JUMPI PUSH1 0x0 CALLDATASIZE PUSH1 0x3 NOT ADD SLT PUSH2 0x50E JUMPI PUSH1 0xD SLOAD PUSH2 0x2D25 SWAP1 CALLER PUSH1 0x1 PUSH1 0x1 PUSH1 0xA0 SHL SUB SWAP2 DUP3 AND EQ SWAP1 DUP2 ISZERO PUSH2 0x806 JUMPI POP PUSH2 0x34B8 JUMP JUMPDEST PUSH1 0x17 SLOAD PUSH1 0xFF DUP2 PUSH1 0x8 SHR AND PUSH2 0x2D71 JUMPI PUSH2 0xFF00 NOT AND PUSH2 0x100 OR PUSH1 0x17 SSTORE PUSH1 0x40 MLOAD TIMESTAMP DUP2 MSTORE PUSH32 0xFDB456E665AA5CDBE3BD91BABD696C20184FF9664FB5544C37869F078C2CD71C SWAP1 DUP1 PUSH1 0x20 DUP2 ADD PUSH2 0x268A JUMP JUMPDEST PUSH1 0x40 MLOAD PUSH3 0x461BCD PUSH1 0xE5 SHL DUP2 MSTORE PUSH1 0x20 PUSH1 0x4 DUP3 ADD MSTORE PUSH1 0xE PUSH1 0x24 DUP3 ADD MSTORE PUSH14 0x105B1C9958591E481C185D5CD959 PUSH1 0x92 SHL PUSH1 0x44 DUP3 ADD MSTORE PUSH1 0x64 SWAP1 REVERT JUMPDEST CALLVALUE PUSH2 0x50E JUMPI PUSH1 0x80 CALLDATASIZE PUSH1 0x3 NOT ADD SLT PUSH2 0x50E JUMPI PUSH2 0x2DC0 PUSH2 0x9BB JUMP JUMPDEST PUSH2 0x2DC8 PUSH2 0x9D1 JUMP JUMPDEST SWAP1 PUSH1 0x44 CALLDATALOAD PUSH1 0x64 CALLDATALOAD SWAP3 PUSH1 0x1 PUSH1 0x1 PUSH1 0x40 SHL SUB DUP5 GT PUSH2 0x50E JUMPI CALLDATASIZE PUSH1 0x23 DUP6 ADD SLT ISZERO PUSH2 0x50E JUMPI PUSH2 0x2E00 PUSH2 0xA8B SWAP5 CALLDATASIZE SWAP1 PUSH1 0x24 DUP2 PUSH1 0x4 ADD CALLDATALOAD SWAP2 ADD PUSH2 0x686 JUMP JUMPDEST SWAP3 PUSH2 0x159A DUP4 DUP4 DUP4 PUSH2 0x3A6A JUMP JUMPDEST CALLVALUE PUSH2 0x50E JUMPI PUSH1 0x0 CALLDATASIZE PUSH1 0x3 NOT ADD SLT PUSH2 0x50E JUMPI PUSH1 0x20 PUSH1 0x24 SLOAD PUSH1 0x40 MLOAD SWAP1 DUP2 MSTORE RETURN JUMPDEST SWAP4 SWAP1 SWAP3 PUSH1 0x80 SWAP4 PUSH2 0x2E5F SWAP4 SWAP8 SWAP7 SWAP8 PUSH1 0x1 DUP1 PUSH1 0xA0 SHL SUB DUP1 SWAP3 AND DUP8 MSTORE AND PUSH1 0x20 DUP7 ADD MSTORE PUSH1 0x40 DUP6 ADD MSTORE PUSH1 0xA0 PUSH1 0x60 DUP6 ADD MSTORE PUSH1 0xA0 DUP5 ADD SWAP1 PUSH2 0x842 JUMP JUMPDEST SWAP4 ISZERO ISZERO SWAP2 ADD MSTORE JUMP JUMPDEST CALLVALUE PUSH2 0x50E JUMPI PUSH1 0x20 DUP1 PUSH1 0x3 NOT CALLDATASIZE ADD SLT PUSH2 0x50E JUMPI PUSH1 0x4 CALLDATALOAD SWAP1 PUSH2 0x8D4 PUSH1 0x0 SWAP3 DUP1 DUP5 MSTORE PUSH1 0x2 DUP4 MSTORE PUSH1 0x1 DUP1 PUSH1 0xA0 SHL SUB SWAP3 PUSH2 0x2EA3 DUP5 PUSH1 0x40 DUP8 KECCAK256 SLOAD AND ISZERO ISZERO PUSH2 0x3BDC JUMP JUMPDEST PUSH2 0x2EE9 PUSH1 0xFF PUSH2 0x2EE1 PUSH1 0x40 PUSH2 0x2EB6 DUP7 PUSH2 0x43D3 JUMP JUMPDEST SWAP8 DUP7 DUP11 MSTORE PUSH1 0x1F DUP7 MSTORE DUP2 DUP11 KECCAK256 SLOAD AND SWAP9 DUP6 DUP1 MSTORE PUSH1 0x1E DUP3 DUP3 KECCAK256 SLOAD SWAP7 MSTORE KECCAK256 SWAP5 PUSH1 0x0 MSTORE PUSH1 0x1D PUSH1 0x20 MSTORE PUSH1 0x40 PUSH1 0x0 KECCAK256 SWAP1 JUMP JUMPDEST SLOAD AND SWAP3 PUSH2 0x1C55 JUMP JUMPDEST SWAP1 PUSH1 0x40 MLOAD SWAP6 DUP7 SWAP6 DUP7 PUSH2 0x2E2A JUMP JUMPDEST CALLVALUE PUSH2 0x50E JUMPI PUSH2 0x2F04 CALLDATASIZE PUSH2 0x6BD JUMP JUMPDEST PUSH1 0xD SLOAD PUSH2 0x2F25 SWAP1 CALLER PUSH1 0x1 PUSH1 0x1 PUSH1 0xA0 SHL SUB SWAP2 DUP3 AND EQ SWAP1 DUP2 ISZERO PUSH2 0x806 JUMPI POP PUSH2 0x34B8 JUMP JUMPDEST DUP1 MLOAD PUSH1 0x1 PUSH1 0x1 PUSH1 0x40 SHL SUB DUP2 GT PUSH2 0x60F JUMPI PUSH2 0x2F49 DUP2 PUSH2 0x2F44 PUSH1 0x19 SLOAD PUSH2 0x171F JUMP JUMPDEST PUSH2 0x3624 JUMP JUMPDEST PUSH1 0x20 DUP1 PUSH1 0x1F DUP4 GT PUSH1 0x1 EQ PUSH2 0x2F7F JUMPI POP DUP2 SWAP1 PUSH2 0x2F7A SWAP4 PUSH1 0x0 SWAP3 PUSH2 0x786 JUMPI POP POP DUP2 PUSH1 0x1 SHL SWAP2 PUSH1 0x0 NOT SWAP1 PUSH1 0x3 SHL SHR NOT AND OR SWAP1 JUMP JUMPDEST PUSH1 0x19 SSTORE STOP JUMPDEST SWAP1 PUSH1 0x1F NOT DUP4 AND SWAP4 PUSH2 0x2FA0 PUSH1 0x19 PUSH1 0x0 MSTORE PUSH1 0x0 DUP1 MLOAD PUSH1 0x20 PUSH2 0x4EB0 DUP4 CODECOPY DUP2 MLOAD SWAP2 MSTORE SWAP1 JUMP JUMPDEST SWAP3 PUSH1 0x0 SWAP1 JUMPDEST DUP7 DUP3 LT PUSH2 0x2FDC JUMPI POP POP DUP4 PUSH1 0x1 SWAP6 LT PUSH2 0x2FC3 JUMPI JUMPDEST POP POP POP DUP2 SHL ADD PUSH1 0x19 SSTORE STOP JUMPDEST ADD MLOAD PUSH1 0x0 NOT PUSH1 0xF8 DUP5 PUSH1 0x3 SHL AND SHR NOT AND SWAP1 SSTORE CODESIZE DUP1 DUP1 PUSH2 0x2FB8 JUMP JUMPDEST DUP1 PUSH1 0x1 DUP6 SWAP7 DUP3 SWAP5 SWAP7 DUP7 ADD MLOAD DUP2 SSTORE ADD SWAP6 ADD SWAP4 ADD SWAP1 PUSH2 0x2FA5 JUMP JUMPDEST CALLVALUE PUSH2 0x50E JUMPI PUSH1 0x20 CALLDATASIZE PUSH1 0x3 NOT ADD SLT PUSH2 0x50E JUMPI PUSH2 0x8D4 PUSH2 0x1CA6 PUSH1 0x4 CALLDATALOAD PUSH2 0x4006 JUMP JUMPDEST CALLVALUE PUSH2 0x50E JUMPI PUSH1 0x0 CALLDATASIZE PUSH1 0x3 NOT ADD SLT PUSH2 0x50E JUMPI PUSH1 0x20 PUSH1 0x15 SLOAD PUSH1 0x40 MLOAD SWAP1 DUP2 MSTORE RETURN JUMPDEST CALLVALUE PUSH2 0x50E JUMPI PUSH1 0x0 CALLDATASIZE PUSH1 0x3 NOT ADD SLT PUSH2 0x50E JUMPI PUSH1 0x15 SLOAD PUSH1 0xE SLOAD DUP2 SUB SWAP1 DUP2 GT PUSH2 0x1F7E JUMPI PUSH1 0x20 SWAP1 PUSH1 0x40 MLOAD SWAP1 DUP2 MSTORE RETURN JUMPDEST CALLVALUE PUSH2 0x50E JUMPI PUSH1 0x20 CALLDATASIZE PUSH1 0x3 NOT ADD SLT PUSH2 0x50E JUMPI PUSH1 0x4 CALLDATALOAD PUSH1 0x0 MSTORE PUSH1 0x1F PUSH1 0x20 MSTORE PUSH1 0x20 PUSH1 0x1 DUP1 PUSH1 0xA0 SHL SUB PUSH1 0x40 PUSH1 0x0 KECCAK256 SLOAD AND PUSH1 0x40 MLOAD SWAP1 DUP2 MSTORE RETURN JUMPDEST CALLVALUE PUSH2 0x50E JUMPI PUSH1 0x20 CALLDATASIZE PUSH1 0x3 NOT ADD SLT PUSH2 0x50E JUMPI PUSH1 0x1 PUSH1 0x1 PUSH1 0xA0 SHL SUB PUSH2 0x30B1 PUSH2 0x9BB JUMP JUMPDEST AND PUSH1 0x0 MSTORE PUSH1 0x28 PUSH1 0x20 MSTORE PUSH1 0x20 PUSH1 0xFF PUSH1 0x40 PUSH1 0x0 KECCAK256 SLOAD AND PUSH1 0x40 MLOAD SWAP1 ISZERO ISZERO DUP2 MSTORE RETURN JUMPDEST CALLVALUE PUSH2 0x50E JUMPI PUSH1 0x0 CALLDATASIZE PUSH1 0x3 NOT ADD SLT PUSH2 0x50E JUMPI PUSH1 0x20 PUSH1 0xFF PUSH1 0x17 SLOAD AND PUSH1 0x40 MLOAD SWAP1 ISZERO ISZERO DUP2 MSTORE RETURN JUMPDEST CALLVALUE PUSH2 0x50E JUMPI PUSH1 0x0 CALLDATASIZE PUSH1 0x3 NOT ADD SLT PUSH2 0x50E JUMPI PUSH1 0x20 PUSH1 0x18 SLOAD PUSH1 0x40 MLOAD SWAP1 DUP2 MSTORE RETURN JUMPDEST CALLVALUE PUSH2 0x50E JUMPI PUSH1 0x0 CALLDATASIZE PUSH1 0x3 NOT ADD SLT PUSH2 0x50E JUMPI PUSH2 0x8D4 PUSH1 0x40 MLOAD PUSH2 0x1CA6 DUP2 PUSH2 0x1C9F DUP2 PUSH2 0x1889 JUMP JUMPDEST SWAP12 SWAP6 PUSH2 0x6F8 SWAP16 SWAP14 SWAP9 SWAP2 PUSH2 0x31E0 SWAP9 SWAP16 SWAP12 SWAP5 SWAP2 PUSH2 0x31A5 DUP16 SWAP3 SWAP9 PUSH2 0x31FC SWAP16 SWAP9 PUSH2 0x3197 SWAP1 PUSH2 0x31EB SWAP16 SWAP9 PUSH2 0x3189 SWAP1 PUSH2 0x31B3 SWAP9 PUSH2 0x3176 PUSH2 0x31D6 SWAP16 PUSH2 0x1E0 DUP1 DUP13 MSTORE DUP12 ADD SWAP1 PUSH2 0x842 JUMP JUMPDEST SWAP2 PUSH1 0x20 DUP11 ADD MSTORE DUP9 DUP3 SUB PUSH1 0x40 DUP11 ADD MSTORE PUSH2 0x842 JUMP JUMPDEST SWAP1 DUP7 DUP3 SUB PUSH1 0x60 DUP9 ADD MSTORE PUSH2 0x842 JUMP JUMPDEST SWAP1 DUP5 DUP3 SUB PUSH1 0x80 DUP7 ADD MSTORE PUSH2 0x842 JUMP JUMPDEST SWAP2 PUSH1 0xA0 DUP2 DUP5 SUB SWAP2 ADD MSTORE PUSH2 0x842 JUMP JUMPDEST SWAP14 PUSH1 0xC0 DUP14 ADD MSTORE PUSH1 0xE0 DUP13 ADD MSTORE PUSH2 0x100 DUP12 ADD MSTORE PUSH2 0x120 DUP11 ADD MSTORE PUSH2 0x140 DUP10 ADD SWAP1 ISZERO ISZERO SWAP1 MSTORE JUMP JUMPDEST ISZERO ISZERO PUSH2 0x160 DUP8 ADD MSTORE JUMP JUMPDEST PUSH1 0xFF AND PUSH2 0x180 DUP6 ADD MSTORE JUMP JUMPDEST PUSH1 0x1 PUSH1 0x1 PUSH1 0xA0 SHL SUB AND PUSH2 0x1A0 DUP4 ADD MSTORE JUMP JUMPDEST PUSH2 0x1C0 DUP2 DUP5 SUB SWAP2 ADD MSTORE PUSH2 0x842 JUMP JUMPDEST CALLVALUE PUSH2 0x50E JUMPI PUSH1 0x0 CALLDATASIZE PUSH1 0x3 NOT ADD SLT PUSH2 0x50E JUMPI PUSH1 0x17 SLOAD PUSH1 0xFF DUP2 AND PUSH1 0x0 DUP2 ISZERO PUSH2 0x32A3 JUMPI POP PUSH1 0x3 SWAP2 JUMPDEST PUSH1 0x10 SLOAD SWAP2 PUSH1 0x15 SLOAD SWAP1 PUSH1 0x16 SLOAD SWAP5 PUSH1 0xE SLOAD PUSH2 0x3248 DUP2 DUP6 PUSH2 0x3C96 JUMP JUMPDEST PUSH1 0xD SLOAD PUSH1 0x1 PUSH1 0x1 PUSH1 0xA0 SHL SUB AND SWAP4 SWAP1 PUSH2 0x325E PUSH2 0x1AB7 JUMP JUMPDEST SWAP3 PUSH2 0x3267 PUSH2 0x1AD1 JUMP JUMPDEST SWAP10 PUSH2 0x3270 PUSH2 0x1AF3 JUMP JUMPDEST SWAP8 PUSH2 0x3279 PUSH2 0x1BB7 JUMP JUMPDEST PUSH2 0x3281 PUSH2 0x1AE2 JUMP JUMPDEST SWAP1 PUSH2 0x328A PUSH2 0x1BC8 JUMP JUMPDEST SWAP11 PUSH1 0x40 MLOAD SWAP15 DUP16 SWAP15 DUP16 SWAP15 PUSH1 0x8 SHR PUSH1 0xFF AND SWAP11 PUSH2 0x8D4 SWAP16 PUSH2 0x3134 JUMP JUMPDEST PUSH1 0xE SLOAD PUSH1 0x15 SLOAD GT PUSH2 0x32B7 JUMPI POP PUSH1 0x1 SWAP2 PUSH2 0x322F JUMP JUMPDEST PUSH1 0x10 SLOAD TIMESTAMP GT ISZERO PUSH2 0x32CA JUMPI POP PUSH1 0x2 SWAP2 PUSH2 0x322F JUMP JUMPDEST SWAP2 PUSH2 0x322F JUMP JUMPDEST CALLVALUE PUSH2 0x50E JUMPI PUSH1 0x40 CALLDATASIZE PUSH1 0x3 NOT ADD SLT PUSH2 0x50E JUMPI PUSH1 0x20 PUSH1 0xFF PUSH2 0x3321 PUSH2 0x32F0 PUSH2 0x9BB JUMP JUMPDEST PUSH2 0x32F8 PUSH2 0x9D1 JUMP JUMPDEST PUSH1 0x1 PUSH1 0x1 PUSH1 0xA0 SHL SUB SWAP2 DUP3 AND PUSH1 0x0 SWAP1 DUP2 MSTORE PUSH1 0x5 DUP7 MSTORE PUSH1 0x40 DUP1 DUP3 KECCAK256 SWAP3 SWAP1 SWAP4 AND DUP2 MSTORE PUSH1 0x20 SWAP2 SWAP1 SWAP2 MSTORE KECCAK256 SWAP1 JUMP JUMPDEST SLOAD AND PUSH1 0x40 MLOAD SWAP1 ISZERO ISZERO DUP2 MSTORE RETURN JUMPDEST CALLVALUE PUSH2 0x50E JUMPI PUSH1 0x20 CALLDATASIZE PUSH1 0x3 NOT ADD SLT PUSH2 0x50E JUMPI PUSH1 0x80 PUSH2 0x3350 PUSH2 0x334B PUSH2 0x9BB JUMP JUMPDEST PUSH2 0x42C9 JUMP JUMPDEST SWAP2 PUSH1 0x40 MLOAD SWAP4 ISZERO ISZERO DUP5 MSTORE PUSH1 0x20 DUP5 ADD MSTORE PUSH1 0x40 DUP4 ADD MSTORE PUSH1 0x60 DUP3 ADD MSTORE RETURN JUMPDEST CALLVALUE PUSH2 0x50E JUMPI PUSH1 0x20 CALLDATASIZE PUSH1 0x3 NOT ADD SLT PUSH2 0x50E JUMPI PUSH2 0x3383 PUSH2 0x9BB JUMP JUMPDEST PUSH2 0x338B PUSH2 0x475F JUMP JUMPDEST PUSH1 0x1 PUSH1 0x1 PUSH1 0xA0 SHL SUB SWAP1 DUP2 AND SWAP1 DUP2 ISZERO PUSH2 0x33DA JUMPI PUSH1 0xA SLOAD DUP3 PUSH1 0x1 PUSH1 0x1 PUSH1 0x60 SHL SUB PUSH1 0xA0 SHL DUP3 AND OR PUSH1 0xA SSTORE AND PUSH32 0x8BE0079C531659141344CD1FD0A4F28419497F9722A3DAAFE3B4186F6B6457E0 PUSH1 0x0 DUP1 LOG3 STOP JUMPDEST PUSH1 0x40 MLOAD PUSH4 0x1E4FBDF7 PUSH1 0xE0 SHL DUP2 MSTORE PUSH1 0x0 PUSH1 0x4 DUP3 ADD MSTORE PUSH1 0x24 SWAP1 REVERT JUMPDEST CALLVALUE PUSH2 0x50E JUMPI PUSH1 0x0 CALLDATASIZE PUSH1 0x3 NOT ADD SLT PUSH2 0x50E JUMPI PUSH1 0xD SLOAD PUSH2 0x3425 SWAP1 CALLER PUSH1 0x1 PUSH1 0x1 PUSH1 0xA0 SHL SUB SWAP2 DUP3 AND EQ SWAP1 DUP2 ISZERO PUSH2 0x806 JUMPI POP PUSH2 0x34B8 JUMP JUMPDEST PUSH1 0x17 SLOAD PUSH1 0xFF DUP2 AND PUSH2 0x347F JUMPI PUSH1 0x1 SWAP1 PUSH1 0xFF NOT AND OR PUSH1 0x17 SSTORE PUSH2 0x344D PUSH1 0x1 PUSH1 0xFF NOT PUSH1 0x21 SLOAD AND OR PUSH1 0x21 SSTORE JUMP JUMPDEST PUSH1 0x40 MLOAD TIMESTAMP DUP2 MSTORE PUSH32 0xDC3CB569B066460F4A22DFFA05317BDCCE5D3826382ED49A21F13E5FA2063D39 SWAP1 DUP1 PUSH1 0x20 DUP2 ADD PUSH2 0x268A JUMP JUMPDEST PUSH1 0x40 MLOAD PUSH3 0x461BCD PUSH1 0xE5 SHL DUP2 MSTORE PUSH1 0x20 PUSH1 0x4 DUP3 ADD MSTORE PUSH1 0x11 PUSH1 0x24 DUP3 ADD MSTORE PUSH17 0x105B1C9958591E4818D85B98D95B1B1959 PUSH1 0x7A SHL PUSH1 0x44 DUP3 ADD MSTORE PUSH1 0x64 SWAP1 REVERT JUMPDEST ISZERO PUSH2 0x34BF JUMPI JUMP JUMPDEST PUSH1 0x40 MLOAD PUSH3 0x461BCD PUSH1 0xE5 SHL DUP2 MSTORE PUSH1 0x20 PUSH1 0x4 DUP3 ADD MSTORE PUSH1 0x17 PUSH1 0x24 DUP3 ADD MSTORE PUSH32 0x4F6E6C79206F7267616E697A6572206F72206F776E6572000000000000000000 PUSH1 0x44 DUP3 ADD MSTORE PUSH1 0x64 SWAP1 REVERT JUMPDEST PUSH1 0x1F DUP2 GT PUSH2 0x3510 JUMPI POP POP JUMP JUMPDEST PUSH1 0x0 SWAP1 PUSH1 0xF PUSH1 0x0 MSTORE PUSH1 0x0 DUP1 MLOAD PUSH1 0x20 PUSH2 0x4E90 DUP4 CODECOPY DUP2 MLOAD SWAP2 MSTORE SWAP1 PUSH1 0x20 PUSH1 0x1F DUP6 ADD PUSH1 0x5 SHR DUP4 ADD SWAP5 LT PUSH2 0x355A JUMPI JUMPDEST PUSH1 0x1F ADD PUSH1 0x5 SHR ADD SWAP2 JUMPDEST DUP3 DUP2 LT PUSH2 0x354F JUMPI POP POP POP JUMP JUMPDEST DUP2 DUP2 SSTORE PUSH1 0x1 ADD PUSH2 0x3543 JUMP JUMPDEST SWAP1 SWAP3 POP DUP3 SWAP1 PUSH2 0x353A JUMP JUMPDEST PUSH1 0x1F DUP2 GT PUSH2 0x3570 JUMPI POP POP JUMP JUMPDEST PUSH1 0x0 SWAP1 PUSH1 0x14 PUSH1 0x0 MSTORE PUSH1 0x0 DUP1 MLOAD PUSH1 0x20 PUSH2 0x4E70 DUP4 CODECOPY DUP2 MLOAD SWAP2 MSTORE SWAP1 PUSH1 0x20 PUSH1 0x1F DUP6 ADD PUSH1 0x5 SHR DUP4 ADD SWAP5 LT PUSH2 0x35BA JUMPI JUMPDEST PUSH1 0x1F ADD PUSH1 0x5 SHR ADD SWAP2 JUMPDEST DUP3 DUP2 LT PUSH2 0x35AF JUMPI POP POP POP JUMP JUMPDEST DUP2 DUP2 SSTORE PUSH1 0x1 ADD PUSH2 0x35A3 JUMP JUMPDEST SWAP1 SWAP3 POP DUP3 SWAP1 PUSH2 0x359A JUMP JUMPDEST PUSH1 0x1F DUP2 GT PUSH2 0x35D0 JUMPI POP POP JUMP JUMPDEST PUSH1 0x0 SWAP1 PUSH1 0x1A PUSH1 0x0 MSTORE PUSH1 0x0 DUP1 MLOAD PUSH1 0x20 PUSH2 0x4E50 DUP4 CODECOPY DUP2 MLOAD SWAP2 MSTORE SWAP1 PUSH1 0x20 PUSH1 0x1F DUP6 ADD PUSH1 0x5 SHR DUP4 ADD SWAP5 LT PUSH2 0x361A JUMPI JUMPDEST PUSH1 0x1F ADD PUSH1 0x5 SHR ADD SWAP2 JUMPDEST DUP3 DUP2 LT PUSH2 0x360F JUMPI POP POP POP JUMP JUMPDEST DUP2 DUP2 SSTORE PUSH1 0x1 ADD PUSH2 0x3603 JUMP JUMPDEST SWAP1 SWAP3 POP DUP3 SWAP1 PUSH2 0x35FA JUMP JUMPDEST PUSH1 0x1F DUP2 GT PUSH2 0x3630 JUMPI POP POP JUMP JUMPDEST PUSH1 0x0 SWAP1 PUSH1 0x19 PUSH1 0x0 MSTORE PUSH1 0x0 DUP1 MLOAD PUSH1 0x20 PUSH2 0x4EB0 DUP4 CODECOPY DUP2 MLOAD SWAP2 MSTORE SWAP1 PUSH1 0x20 PUSH1 0x1F DUP6 ADD PUSH1 0x5 SHR DUP4 ADD SWAP5 LT PUSH2 0x367A JUMPI JUMPDEST PUSH1 0x1F ADD PUSH1 0x5 SHR ADD SWAP2 JUMPDEST DUP3 DUP2 LT PUSH2 0x366F JUMPI POP POP POP JUMP JUMPDEST DUP2 DUP2 SSTORE PUSH1 0x1 ADD PUSH2 0x3663 JUMP JUMPDEST SWAP1 SWAP3 POP DUP3 SWAP1 PUSH2 0x365A JUMP JUMPDEST PUSH1 0x1F DUP2 GT PUSH2 0x3690 JUMPI POP POP JUMP JUMPDEST PUSH1 0x0 SWAP1 PUSH1 0x1B PUSH1 0x0 MSTORE PUSH32 0x3AD8AA4F87544323A9D1E5DD902F40C356527A7955687113DB5F9A85AD579DC1 SWAP1 PUSH1 0x20 PUSH1 0x1F DUP6 ADD PUSH1 0x5 SHR DUP4 ADD SWAP5 LT PUSH2 0x36EC JUMPI JUMPDEST PUSH1 0x1F ADD PUSH1 0x5 SHR ADD SWAP2 JUMPDEST DUP3 DUP2 LT PUSH2 0x36E1 JUMPI POP POP POP JUMP JUMPDEST DUP2 DUP2 SSTORE PUSH1 0x1 ADD PUSH2 0x36D5 JUMP JUMPDEST SWAP1 SWAP3 POP DUP3 SWAP1 PUSH2 0x36CC JUMP JUMPDEST SWAP1 PUSH1 0x1F DUP2 GT PUSH2 0x3704 JUMPI POP POP POP JUMP JUMPDEST PUSH1 0x0 SWAP2 PUSH1 0x0 MSTORE PUSH1 0x20 PUSH1 0x0 KECCAK256 SWAP1 PUSH1 0x20 PUSH1 0x1F DUP6 ADD PUSH1 0x5 SHR DUP4 ADD SWAP5 LT PUSH2 0x3742 JUMPI JUMPDEST PUSH1 0x1F ADD PUSH1 0x5 SHR ADD SWAP2 JUMPDEST DUP3 DUP2 LT PUSH2 0x3737 JUMPI POP POP POP JUMP JUMPDEST DUP2 DUP2 SSTORE PUSH1 0x1 ADD PUSH2 0x372B JUMP JUMPDEST SWAP1 SWAP3 POP DUP3 SWAP1 PUSH2 0x3722 JUMP JUMPDEST SWAP1 DUP2 MLOAD PUSH1 0x1 PUSH1 0x1 PUSH1 0x40 SHL SUB DUP2 GT PUSH2 0x60F JUMPI PUSH2 0x3771 DUP2 PUSH2 0x376C PUSH1 0x1B SLOAD PUSH2 0x171F JUMP JUMPDEST PUSH2 0x3684 JUMP JUMPDEST PUSH1 0x20 DUP1 PUSH1 0x1F DUP4 GT PUSH1 0x1 EQ PUSH2 0x37A8 JUMPI POP DUP2 SWAP1 PUSH2 0x37A3 SWAP4 SWAP5 PUSH1 0x0 SWAP3 PUSH2 0x786 JUMPI POP POP DUP2 PUSH1 0x1 SHL SWAP2 PUSH1 0x0 NOT SWAP1 PUSH1 0x3 SHL SHR NOT AND OR SWAP1 JUMP JUMPDEST PUSH1 0x1B SSTORE JUMP JUMPDEST SWAP1 PUSH1 0x1F NOT DUP4 AND SWAP5 PUSH2 0x37DB PUSH1 0x1B PUSH1 0x0 MSTORE PUSH32 0x3AD8AA4F87544323A9D1E5DD902F40C356527A7955687113DB5F9A85AD579DC1 SWAP1 JUMP JUMPDEST SWAP3 PUSH1 0x0 SWAP1 JUMPDEST DUP8 DUP3 LT PUSH2 0x3818 JUMPI POP POP DUP4 PUSH1 0x1 SWAP6 SWAP7 LT PUSH2 0x37FF JUMPI JUMPDEST POP POP POP DUP2 SHL ADD PUSH1 0x1B SSTORE JUMP JUMPDEST ADD MLOAD PUSH1 0x0 NOT PUSH1 0xF8 DUP5 PUSH1 0x3 SHL AND SHR NOT AND SWAP1 SSTORE CODESIZE DUP1 DUP1 PUSH2 0x37F4 JUMP JUMPDEST DUP1 PUSH1 0x1 DUP6 SWAP7 DUP3 SWAP5 SWAP7 DUP7 ADD MLOAD DUP2 SSTORE ADD SWAP6 ADD SWAP4 ADD SWAP1 PUSH2 0x37E0 JUMP JUMPDEST SWAP2 SWAP1 SWAP2 DUP3 MLOAD PUSH1 0x1 PUSH1 0x1 PUSH1 0x40 SHL SUB DUP2 GT PUSH2 0x60F JUMPI PUSH2 0x3857 DUP2 PUSH2 0x3851 DUP5 SLOAD PUSH2 0x171F JUMP JUMPDEST DUP5 PUSH2 0x36F6 JUMP JUMPDEST PUSH1 0x20 DUP1 PUSH1 0x1F DUP4 GT PUSH1 0x1 EQ PUSH2 0x388E JUMPI POP DUP2 SWAP1 PUSH2 0x388A SWAP4 SWAP5 SWAP6 PUSH1 0x0 SWAP3 PUSH2 0x786 JUMPI POP POP DUP2 PUSH1 0x1 SHL SWAP2 PUSH1 0x0 NOT SWAP1 PUSH1 0x3 SHL SHR NOT AND OR SWAP1 JUMP JUMPDEST SWAP1 SSTORE JUMP JUMPDEST SWAP1 PUSH1 0x1F NOT DUP4 AND SWAP6 PUSH2 0x38A4 DUP6 PUSH1 0x0 MSTORE PUSH1 0x20 PUSH1 0x0 KECCAK256 SWAP1 JUMP JUMPDEST SWAP3 PUSH1 0x0 SWAP1 JUMPDEST DUP9 DUP3 LT PUSH2 0x38E1 JUMPI POP POP DUP4 PUSH1 0x1 SWAP6 SWAP7 SWAP8 LT PUSH2 0x38C8 JUMPI JUMPDEST POP POP POP DUP2 SHL ADD SWAP1 SSTORE JUMP JUMPDEST ADD MLOAD PUSH1 0x0 NOT PUSH1 0xF8 DUP5 PUSH1 0x3 SHL AND SHR NOT AND SWAP1 SSTORE CODESIZE DUP1 DUP1 PUSH2 0x38BE JUMP JUMPDEST DUP1 PUSH1 0x1 DUP6 SWAP7 DUP3 SWAP5 SWAP7 DUP7 ADD MLOAD DUP2 SSTORE ADD SWAP6 ADD SWAP4 ADD SWAP1 PUSH2 0x38A9 JUMP JUMPDEST PUSH1 0x1 PUSH1 0x1 PUSH1 0x40 SHL SUB DUP2 GT PUSH2 0x60F JUMPI PUSH1 0x5 SHL PUSH1 0x20 ADD SWAP1 JUMP JUMPDEST SWAP1 PUSH2 0x391A DUP3 PUSH2 0x38F9 JUMP JUMPDEST PUSH2 0x3927 PUSH1 0x40 MLOAD SWAP2 DUP3 PUSH2 0x64A JUMP JUMPDEST DUP3 DUP2 MSTORE DUP1 SWAP3 PUSH2 0x3938 PUSH1 0x1F NOT SWAP2 PUSH2 0x38F9 JUMP JUMPDEST ADD SWAP1 PUSH1 0x20 CALLDATASIZE SWAP2 ADD CALLDATACOPY JUMP JUMPDEST PUSH4 0x4E487B71 PUSH1 0xE0 SHL PUSH1 0x0 MSTORE PUSH1 0x32 PUSH1 0x4 MSTORE PUSH1 0x24 PUSH1 0x0 REVERT JUMPDEST DUP1 MLOAD DUP3 LT ISZERO PUSH2 0x396C JUMPI PUSH1 0x20 SWAP2 PUSH1 0x5 SHL ADD ADD SWAP1 JUMP JUMPDEST PUSH2 0x3942 JUMP JUMPDEST PUSH4 0x4E487B71 PUSH1 0xE0 SHL PUSH1 0x0 MSTORE PUSH1 0x11 PUSH1 0x4 MSTORE PUSH1 0x24 PUSH1 0x0 REVERT JUMPDEST PUSH1 0x0 NOT DUP2 EQ PUSH2 0x1F7E JUMPI PUSH1 0x1 ADD SWAP1 JUMP JUMPDEST SWAP1 PUSH1 0x1E DUP3 MUL SWAP2 DUP1 DUP4 DIV PUSH1 0x1E EQ SWAP1 ISZERO OR ISZERO PUSH2 0x1F7E JUMPI JUMP JUMPDEST PUSH1 0x2 DUP2 SWAP1 SHL SWAP2 SWAP1 PUSH1 0x1 PUSH1 0x1 PUSH1 0xFE SHL SUB DUP2 AND SUB PUSH2 0x1F7E JUMPI JUMP JUMPDEST DUP2 DUP2 MUL SWAP3 SWAP2 DUP2 ISZERO SWAP2 DUP5 DIV EQ OR ISZERO PUSH2 0x1F7E JUMPI JUMP JUMPDEST SWAP1 PUSH3 0x15180 DUP3 ADD DUP1 SWAP3 GT PUSH2 0x1F7E JUMPI JUMP JUMPDEST SWAP1 PUSH1 0x2 DUP3 ADD DUP1 SWAP3 GT PUSH2 0x1F7E JUMPI JUMP JUMPDEST SWAP1 PUSH1 0x20 DUP3 ADD DUP1 SWAP3 GT PUSH2 0x1F7E JUMPI JUMP JUMPDEST SWAP2 SWAP1 DUP3 ADD DUP1 SWAP3 GT PUSH2 0x1F7E JUMPI JUMP JUMPDEST PUSH1 0x40 MLOAD SWAP1 PUSH2 0x3A1D DUP3 PUSH2 0x614 JUMP JUMPDEST PUSH1 0x0 DUP3 MSTORE JUMP JUMPDEST RETURNDATASIZE ISZERO PUSH2 0x3A4E JUMPI RETURNDATASIZE SWAP1 PUSH2 0x3A34 DUP3 PUSH2 0x66B JUMP JUMPDEST SWAP2 PUSH2 0x3A42 PUSH1 0x40 MLOAD SWAP4 DUP5 PUSH2 0x64A JUMP JUMPDEST DUP3 MSTORE RETURNDATASIZE PUSH1 0x0 PUSH1 0x20 DUP5 ADD RETURNDATACOPY JUMP JUMPDEST PUSH1 0x60 SWAP1 JUMP JUMPDEST PUSH1 0x40 SWAP1 PUSH2 0x6F8 SWAP4 SWAP3 DUP2 MSTORE DUP2 PUSH1 0x20 DUP3 ADD MSTORE ADD SWAP1 PUSH2 0xB0F JUMP JUMPDEST PUSH1 0x1 PUSH1 0x1 PUSH1 0xA0 SHL SUB DUP3 DUP2 AND SWAP3 SWAP1 SWAP2 SWAP1 DUP4 ISZERO PUSH2 0x3BC3 JUMPI PUSH1 0x0 DUP6 DUP2 MSTORE PUSH1 0x2 PUSH1 0x20 MSTORE PUSH1 0x40 SWAP1 KECCAK256 SLOAD DUP6 SWAP1 PUSH1 0x1 PUSH1 0x1 PUSH1 0xA0 SHL SUB AND SWAP5 CALLER PUSH2 0x3BB3 JUMPI JUMPDEST DUP5 DUP7 AND SWAP6 DUP7 ISZERO DUP1 ISZERO PUSH2 0x3B85 JUMPI JUMPDEST PUSH1 0x1 PUSH1 0x1 PUSH1 0xA0 SHL SUB DUP6 AND PUSH1 0x0 SWAP1 DUP2 MSTORE PUSH1 0x3 PUSH1 0x20 MSTORE PUSH1 0x40 SWAP1 KECCAK256 PUSH1 0x1 DUP2 SLOAD ADD SWAP1 SSTORE PUSH2 0x3AE4 DUP6 PUSH2 0xA6C DUP7 PUSH1 0x0 MSTORE PUSH1 0x2 PUSH1 0x20 MSTORE PUSH1 0x40 PUSH1 0x0 KECCAK256 SWAP1 JUMP JUMPDEST DUP4 DUP4 DUP10 PUSH32 0xDDF252AD1BE2C89B69C2B068FC378DAA952BA7F163C4A11628F55A4DF523B3EF PUSH1 0x0 DUP1 LOG4 ISZERO PUSH2 0x3B65 JUMPI POP PUSH2 0x3B1B DUP3 PUSH2 0x4BF4 JUMP JUMPDEST DUP6 SUB PUSH2 0x3B55 JUMPI JUMPDEST POP POP AND SWAP2 DUP3 DUP3 SUB PUSH2 0x3B32 JUMPI POP POP POP JUMP JUMPDEST PUSH1 0x64 SWAP4 POP PUSH1 0x40 MLOAD SWAP3 PUSH4 0x64283D7B PUSH1 0xE0 SHL DUP5 MSTORE PUSH1 0x4 DUP5 ADD MSTORE PUSH1 0x24 DUP4 ADD MSTORE PUSH1 0x44 DUP3 ADD MSTORE REVERT JUMPDEST PUSH2 0x3B5E SWAP2 PUSH2 0x4C51 JUMP JUMPDEST CODESIZE DUP5 PUSH2 0x3B22 JUMP JUMPDEST DUP3 DUP3 DUP9 SUB PUSH2 0x3B75 JUMPI JUMPDEST POP POP PUSH2 0x3B1B JUMP JUMPDEST PUSH2 0x3B7E SWAP2 PUSH2 0x4B84 JUMP JUMPDEST CODESIZE DUP3 PUSH2 0x3B6E JUMP JUMPDEST PUSH2 0x3B8E DUP5 PUSH2 0x4B60 JUMP JUMPDEST PUSH1 0x1 PUSH1 0x1 PUSH1 0xA0 SHL SUB DUP3 AND PUSH1 0x0 SWAP1 DUP2 MSTORE PUSH1 0x3 PUSH1 0x20 MSTORE PUSH1 0x40 SWAP1 KECCAK256 DUP1 SLOAD PUSH1 0x0 NOT ADD SWAP1 SSTORE PUSH2 0x3AAD JUMP JUMPDEST PUSH2 0x3BBE DUP3 CALLER DUP9 PUSH2 0x4D76 JUMP JUMPDEST PUSH2 0x3AA0 JUMP JUMPDEST PUSH1 0x40 MLOAD PUSH4 0x32505749 PUSH1 0xE1 SHL DUP2 MSTORE PUSH1 0x0 PUSH1 0x4 DUP3 ADD MSTORE PUSH1 0x24 SWAP1 REVERT JUMPDEST ISZERO PUSH2 0x3BE3 JUMPI JUMP JUMPDEST PUSH1 0x40 MLOAD PUSH3 0x461BCD PUSH1 0xE5 SHL DUP2 MSTORE PUSH1 0x20 PUSH1 0x4 DUP3 ADD MSTORE PUSH1 0x14 PUSH1 0x24 DUP3 ADD MSTORE PUSH20 0x151BDAD95B88191BD95CC81B9BDD08195E1A5CDD PUSH1 0x62 SHL PUSH1 0x44 DUP3 ADD MSTORE PUSH1 0x64 SWAP1 REVERT JUMPDEST PUSH2 0x3C28 DUP2 PUSH2 0x3CA3 JUMP JUMPDEST DUP3 LT ISZERO PUSH2 0x3C54 JUMPI PUSH1 0x1 DUP1 PUSH1 0xA0 SHL SUB AND PUSH1 0x0 MSTORE PUSH1 0x6 PUSH1 0x20 MSTORE PUSH1 0x40 PUSH1 0x0 KECCAK256 SWAP1 PUSH1 0x0 MSTORE PUSH1 0x20 MSTORE PUSH1 0x40 PUSH1 0x0 KECCAK256 SLOAD SWAP1 JUMP JUMPDEST PUSH1 0x40 MLOAD PUSH4 0x295F44F7 PUSH1 0xE2 SHL DUP2 MSTORE PUSH1 0x1 PUSH1 0x1 PUSH1 0xA0 SHL SUB SWAP2 SWAP1 SWAP2 AND PUSH1 0x4 DUP3 ADD MSTORE PUSH1 0x24 DUP2 ADD SWAP2 SWAP1 SWAP2 MSTORE PUSH1 0x44 SWAP1 REVERT JUMPDEST PUSH1 0x40 SWAP1 PUSH2 0x6F8 SWAP4 SWAP3 DUP2 MSTORE DUP2 PUSH1 0x20 DUP3 ADD MSTORE ADD SWAP1 PUSH2 0x1A21 JUMP JUMPDEST SWAP2 SWAP1 DUP3 SUB SWAP2 DUP3 GT PUSH2 0x1F7E JUMPI JUMP JUMPDEST PUSH1 0x1 PUSH1 0x1 PUSH1 0xA0 SHL SUB AND DUP1 ISZERO PUSH2 0x3CC3 JUMPI PUSH1 0x0 MSTORE PUSH1 0x3 PUSH1 0x20 MSTORE PUSH1 0x40 PUSH1 0x0 KECCAK256 SLOAD SWAP1 JUMP JUMPDEST PUSH1 0x40 MLOAD PUSH4 0x22718AD9 PUSH1 0xE2 SHL DUP2 MSTORE PUSH1 0x0 PUSH1 0x4 DUP3 ADD MSTORE PUSH1 0x24 SWAP1 REVERT JUMPDEST SWAP1 PUSH2 0x3CEF PUSH1 0x20 SWAP3 DUP3 DUP2 MLOAD SWAP5 DUP6 SWAP3 ADD PUSH2 0x81F JUMP JUMPDEST ADD SWAP1 JUMP JUMPDEST PUSH2 0x6F8 SWAP4 SWAP3 PUSH1 0x60 SWAP3 DUP3 MSTORE PUSH1 0x20 DUP3 ADD MSTORE DUP2 PUSH1 0x40 DUP3 ADD MSTORE ADD SWAP1 PUSH2 0xB0F JUMP JUMPDEST PUSH1 0x1A SLOAD PUSH1 0x0 SWAP3 SWAP2 PUSH2 0x3D1F DUP3 PUSH2 0x171F JUMP JUMPDEST SWAP2 PUSH1 0x1 SWAP1 DUP2 DUP2 AND SWAP1 DUP2 ISZERO PUSH2 0x3D79 JUMPI POP PUSH1 0x1 EQ PUSH2 0x3D3A JUMPI POP POP POP JUMP JUMPDEST SWAP1 SWAP2 SWAP3 SWAP4 POP PUSH1 0x1A PUSH1 0x0 MSTORE PUSH1 0x0 DUP1 MLOAD PUSH1 0x20 PUSH2 0x4E50 DUP4 CODECOPY DUP2 MLOAD SWAP2 MSTORE SWAP1 PUSH1 0x0 SWAP2 JUMPDEST DUP5 DUP4 LT PUSH2 0x3D66 JUMPI POP POP POP ADD SWAP1 JUMP JUMPDEST DUP2 DUP2 PUSH1 0x20 SWAP3 SLOAD DUP6 DUP8 ADD MSTORE ADD SWAP3 ADD SWAP2 PUSH2 0x3D58 JUMP JUMPDEST PUSH1 0xFF NOT AND DUP4 MSTORE POP POP DUP2 ISZERO ISZERO SWAP1 SWAP2 MUL ADD SWAP2 POP JUMP JUMPDEST PUSH1 0xF SLOAD PUSH1 0x0 SWAP3 SWAP2 PUSH2 0x3D9C DUP3 PUSH2 0x171F JUMP JUMPDEST SWAP2 PUSH1 0x1 SWAP1 DUP2 DUP2 AND SWAP1 DUP2 ISZERO PUSH2 0x3D79 JUMPI POP PUSH1 0x1 EQ PUSH2 0x3DB7 JUMPI POP POP POP JUMP JUMPDEST SWAP1 SWAP2 SWAP3 SWAP4 POP PUSH1 0xF PUSH1 0x0 MSTORE PUSH1 0x0 DUP1 MLOAD PUSH1 0x20 PUSH2 0x4E90 DUP4 CODECOPY DUP2 MLOAD SWAP2 MSTORE SWAP1 PUSH1 0x0 SWAP2 JUMPDEST DUP5 DUP4 LT PUSH2 0x3DE3 JUMPI POP POP POP ADD SWAP1 JUMP JUMPDEST DUP2 DUP2 PUSH1 0x20 SWAP3 SLOAD DUP6 DUP8 ADD MSTORE ADD SWAP3 ADD SWAP2 PUSH2 0x3DD5 JUMP JUMPDEST PUSH1 0x19 SLOAD PUSH1 0x0 SWAP3 SWAP2 PUSH2 0x3E06 DUP3 PUSH2 0x171F JUMP JUMPDEST SWAP2 PUSH1 0x1 SWAP1 DUP2 DUP2 AND SWAP1 DUP2 ISZERO PUSH2 0x3D79 JUMPI POP PUSH1 0x1 EQ PUSH2 0x3E21 JUMPI POP POP POP JUMP JUMPDEST SWAP1 SWAP2 SWAP3 SWAP4 POP PUSH1 0x19 PUSH1 0x0 MSTORE PUSH1 0x0 DUP1 MLOAD PUSH1 0x20 PUSH2 0x4EB0 DUP4 CODECOPY DUP2 MLOAD SWAP2 MSTORE SWAP1 PUSH1 0x0 SWAP2 JUMPDEST DUP5 DUP4 LT PUSH2 0x3E4D JUMPI POP POP POP ADD SWAP1 JUMP JUMPDEST DUP2 DUP2 PUSH1 0x20 SWAP3 SLOAD DUP6 DUP8 ADD MSTORE ADD SWAP3 ADD SWAP2 PUSH2 0x3E3F JUMP JUMPDEST PUSH1 0x14 SLOAD PUSH1 0x0 SWAP3 SWAP2 PUSH2 0x3E70 DUP3 PUSH2 0x171F JUMP JUMPDEST SWAP2 PUSH1 0x1 SWAP1 DUP2 DUP2 AND SWAP1 DUP2 ISZERO PUSH2 0x3D79 JUMPI POP PUSH1 0x1 EQ PUSH2 0x3E8B JUMPI POP POP POP JUMP JUMPDEST SWAP1 SWAP2 SWAP3 SWAP4 POP PUSH1 0x14 PUSH1 0x0 MSTORE PUSH1 0x0 DUP1 MLOAD PUSH1 0x20 PUSH2 0x4E70 DUP4 CODECOPY DUP2 MLOAD SWAP2 MSTORE SWAP1 PUSH1 0x0 SWAP2 JUMPDEST DUP5 DUP4 LT PUSH2 0x3EB7 JUMPI POP POP POP ADD SWAP1 JUMP JUMPDEST DUP2 DUP2 PUSH1 0x20 SWAP3 SLOAD DUP6 DUP8 ADD MSTORE ADD SWAP3 ADD SWAP2 PUSH2 0x3EA9 JUMP JUMPDEST PUSH1 0x11 SLOAD PUSH1 0x0 SWAP3 SWAP2 PUSH2 0x3EDA DUP3 PUSH2 0x171F JUMP JUMPDEST SWAP2 PUSH1 0x1 SWAP1 DUP2 DUP2 AND SWAP1 DUP2 ISZERO PUSH2 0x3D79 JUMPI POP PUSH1 0x1 EQ PUSH2 0x3EF5 JUMPI POP POP POP JUMP JUMPDEST SWAP1 SWAP2 SWAP3 SWAP4 POP PUSH1 0x11 PUSH1 0x0 MSTORE PUSH32 0x31ECC21A745E3968A04E9570E4425BC18FA8019C68028196B546D1669C200C68 SWAP1 PUSH1 0x0 SWAP2 JUMPDEST DUP5 DUP4 LT PUSH2 0x3F33 JUMPI POP POP POP ADD SWAP1 JUMP JUMPDEST DUP2 DUP2 PUSH1 0x20 SWAP3 SLOAD DUP6 DUP8 ADD MSTORE ADD SWAP3 ADD SWAP2 PUSH2 0x3F25 JUMP JUMPDEST PUSH1 0x0 SWAP3 SWAP2 DUP2 SLOAD PUSH2 0x3F55 DUP2 PUSH2 0x171F JUMP JUMPDEST SWAP3 PUSH1 0x1 SWAP2 DUP1 DUP4 AND SWAP1 DUP2 ISZERO PUSH2 0x3FAE JUMPI POP PUSH1 0x1 EQ PUSH2 0x3F71 JUMPI POP POP POP POP JUMP JUMPDEST SWAP1 SWAP2 SWAP3 SWAP4 SWAP5 POP PUSH1 0x0 MSTORE PUSH1 0x20 SWAP1 PUSH1 0x20 PUSH1 0x0 KECCAK256 SWAP1 PUSH1 0x0 SWAP2 JUMPDEST DUP6 DUP4 LT PUSH2 0x3F9D JUMPI POP POP POP POP ADD SWAP1 CODESIZE DUP1 DUP1 DUP1 PUSH2 0x1786 JUMP JUMPDEST DUP1 SLOAD DUP6 DUP5 ADD MSTORE SWAP2 DUP4 ADD SWAP2 DUP2 ADD PUSH2 0x3F87 JUMP JUMPDEST PUSH1 0xFF NOT AND DUP5 MSTORE POP POP POP DUP2 ISZERO ISZERO SWAP1 SWAP2 MUL ADD SWAP2 POP CODESIZE DUP1 DUP1 DUP1 PUSH2 0x1786 JUMP JUMPDEST PUSH1 0x40 MLOAD SWAP1 PUSH2 0x3FD6 DUP3 PUSH2 0x62F JUMP JUMPDEST PUSH1 0x2 DUP3 MSTORE PUSH2 0x4E6F PUSH1 0xF0 SHL PUSH1 0x20 DUP4 ADD MSTORE JUMP JUMPDEST PUSH1 0x40 MLOAD SWAP1 PUSH2 0x3FF4 DUP3 PUSH2 0x62F JUMP JUMPDEST PUSH1 0x3 DUP3 MSTORE PUSH3 0x596573 PUSH1 0xE8 SHL PUSH1 0x20 DUP4 ADD MSTORE JUMP JUMPDEST PUSH1 0x0 DUP2 DUP2 MSTORE PUSH1 0x2 PUSH1 0x20 MSTORE PUSH1 0x40 SWAP1 KECCAK256 PUSH2 0x402A SWAP1 PUSH1 0x1 PUSH1 0x1 PUSH1 0xA0 SHL SUB SWAP1 PUSH2 0x11F3 SWAP1 PUSH2 0x11E6 JUMP JUMPDEST PUSH2 0x4035 PUSH1 0x1A SLOAD PUSH2 0x171F JUMP JUMPDEST PUSH2 0x4280 JUMPI PUSH2 0x4042 DUP2 PUSH2 0x48BA JUMP JUMPDEST PUSH2 0x4059 PUSH2 0xDF4 DUP4 PUSH1 0x0 MSTORE PUSH1 0x1D PUSH1 0x20 MSTORE PUSH1 0x40 PUSH1 0x0 KECCAK256 SWAP1 JUMP JUMPDEST ISZERO PUSH2 0x4275 JUMPI PUSH2 0x407A PUSH2 0x4069 PUSH2 0x3FE7 JUMP JUMPDEST SWAP3 PUSH1 0x0 MSTORE PUSH1 0x1E PUSH1 0x20 MSTORE PUSH1 0x40 PUSH1 0x0 KECCAK256 SWAP1 JUMP JUMPDEST PUSH1 0x40 MLOAD PUSH9 0x3D913730B6B2911D11 PUSH1 0xB9 SHL PUSH1 0x20 DUP3 ADD MSTORE SWAP3 DUP4 SWAP3 PUSH2 0x409E PUSH1 0x29 DUP6 ADD PUSH2 0x3D8C JUMP JUMPDEST PUSH9 0x205469636B65742023 PUSH1 0xB8 SHL DUP2 MSTORE PUSH1 0x9 ADD PUSH2 0x40B9 SWAP2 PUSH2 0x3CDC JUMP JUMPDEST PUSH17 0x1116113232B9B1B934B83A34B7B7111D11 PUSH1 0x79 SHL DUP2 MSTORE PUSH1 0x11 ADD PUSH2 0x40DC SWAP1 PUSH2 0x3DF6 JUMP JUMPDEST PUSH11 0x11161134B6B0B3B2911D11 PUSH1 0xA9 SHL DUP2 MSTORE PUSH1 0xB ADD PUSH2 0x40F9 SWAP1 PUSH2 0x3E60 JUMP JUMPDEST PUSH16 0x222C2261747472696275746573223A5B PUSH1 0x80 SHL DUP2 MSTORE PUSH1 0x10 ADD PUSH32 0x7B2274726169745F74797065223A224576656E74222C2276616C7565223A2200 DUP2 MSTORE PUSH1 0x1F ADD PUSH2 0x4141 SWAP1 PUSH2 0x3D8C JUMP JUMPDEST PUSH3 0x89F4B PUSH1 0xEA SHL DUP2 MSTORE PUSH1 0x3 ADD PUSH32 0x7B2274726169745F74797065223A2256656E7565222C2276616C7565223A2200 DUP2 MSTORE PUSH1 0x1F ADD PUSH2 0x417C SWAP1 PUSH2 0x3ECA JUMP JUMPDEST PUSH3 0x89F4B PUSH1 0xEA SHL DUP2 MSTORE PUSH1 0x3 ADD PUSH32 0x7B2274726169745F74797065223A2255736564222C2276616C7565223A220000 DUP2 MSTORE PUSH1 0x1E ADD PUSH2 0x41B7 SWAP2 PUSH2 0x3CDC JUMP JUMPDEST PUSH3 0x89F4B PUSH1 0xEA SHL DUP2 MSTORE PUSH1 0x3 ADD PUSH32 0x7B2274726169745F74797065223A22427579657220436861696E222C2276616C DUP2 MSTORE PUSH5 0x3AB2911D11 PUSH1 0xD9 SHL PUSH1 0x20 DUP3 ADD MSTORE PUSH1 0x25 ADD PUSH2 0x4200 SWAP2 PUSH2 0x3F46 JUMP JUMPDEST PUSH4 0x227D5D7D PUSH1 0xE0 SHL DUP2 MSTORE PUSH1 0x4 ADD SUB SWAP1 PUSH1 0x1F NOT SWAP2 DUP3 DUP2 ADD DUP3 MSTORE PUSH2 0x4222 SWAP1 DUP3 PUSH2 0x64A JUMP JUMPDEST PUSH2 0x422B SWAP1 PUSH2 0x4A6D JUMP JUMPDEST PUSH1 0x40 MLOAD PUSH32 0x646174613A6170706C69636174696F6E2F6A736F6E3B6261736536342C000000 PUSH1 0x20 DUP3 ADD MSTORE SWAP2 SWAP1 DUP3 SWAP1 PUSH1 0x3D DUP3 ADD PUSH2 0x4265 SWAP2 PUSH2 0x3CDC JUMP JUMPDEST SUB SWAP1 DUP2 ADD DUP3 MSTORE PUSH2 0x6F8 SWAP1 DUP3 PUSH2 0x64A JUMP JUMPDEST PUSH2 0x407A PUSH2 0x4069 PUSH2 0x3FC9 JUMP JUMPDEST PUSH2 0x6F8 PUSH2 0x428F PUSH2 0x42AA SWAP3 PUSH2 0x48BA JUMP JUMPDEST PUSH2 0x42BB PUSH1 0x40 MLOAD SWAP4 DUP5 SWAP3 PUSH2 0x42A4 PUSH1 0x20 DUP6 ADD PUSH2 0x3D0F JUMP JUMPDEST SWAP1 PUSH2 0x3CDC JUMP JUMPDEST PUSH5 0x173539B7B7 PUSH1 0xD9 SHL DUP2 MSTORE PUSH1 0x5 ADD SWAP1 JUMP JUMPDEST SUB PUSH1 0x1F NOT DUP2 ADD DUP4 MSTORE DUP3 PUSH2 0x64A JUMP JUMPDEST PUSH2 0x42D8 PUSH2 0xC72 PUSH1 0x21 SLOAD PUSH1 0xFF AND SWAP1 JUMP JUMPDEST DUP1 ISZERO PUSH2 0x43C8 JUMPI JUMPDEST PUSH2 0x43B9 JUMPI PUSH2 0x42EC DUP2 PUSH2 0x3CA3 JUMP JUMPDEST SWAP2 DUP3 ISZERO PUSH2 0x43AC JUMPI PUSH1 0x0 SWAP3 DUP4 SWAP3 DUP5 JUMPDEST DUP3 DUP2 LT PUSH2 0x4338 JUMPI POP POP POP DUP3 ISZERO ISZERO SWAP1 DUP2 PUSH2 0x4321 JUMPI JUMPDEST PUSH2 0x431A PUSH1 0x16 SLOAD DUP6 PUSH2 0x39C4 JUMP JUMPDEST SWAP2 SWAP4 SWAP3 SWAP2 SWAP1 JUMP JUMPDEST SWAP1 POP SELFBALANCE PUSH2 0x4330 PUSH1 0x16 SLOAD DUP6 PUSH2 0x39C4 JUMP JUMPDEST GT ISZERO SWAP1 PUSH2 0x430E JUMP JUMPDEST PUSH2 0x4342 DUP2 DUP4 PUSH2 0x3C1F JUMP JUMPDEST PUSH2 0x4359 PUSH2 0xDF4 DUP3 PUSH1 0x0 MSTORE PUSH1 0x23 PUSH1 0x20 MSTORE PUSH1 0x40 PUSH1 0x0 KECCAK256 SWAP1 JUMP JUMPDEST ISZERO PUSH2 0x4369 JUMPI POP PUSH1 0x1 SWAP1 JUMPDEST ADD PUSH2 0x42FA JUMP JUMPDEST PUSH2 0xDF4 PUSH2 0x4383 SWAP2 SWAP7 SWAP3 SWAP7 PUSH1 0x0 MSTORE PUSH1 0x1D PUSH1 0x20 MSTORE PUSH1 0x40 PUSH1 0x0 KECCAK256 SWAP1 JUMP JUMPDEST ISZERO PUSH2 0x4399 JUMPI PUSH2 0x4393 PUSH1 0x1 SWAP2 PUSH2 0x3987 JUMP JUMPDEST SWAP5 PUSH2 0x4363 JUMP JUMPDEST SWAP4 SWAP5 PUSH2 0x43A6 PUSH1 0x1 SWAP2 PUSH2 0x3987 JUMP JUMPDEST SWAP6 PUSH2 0x4363 JUMP JUMPDEST PUSH1 0x0 SWAP3 POP DUP3 SWAP2 POP DUP2 SWAP1 DUP2 SWAP1 JUMP JUMPDEST POP PUSH1 0x0 SWAP1 PUSH1 0x0 SWAP1 PUSH1 0x0 SWAP1 PUSH1 0x0 SWAP1 JUMP JUMPDEST POP PUSH1 0x18 SLOAD TIMESTAMP GT PUSH2 0x42DF JUMP JUMPDEST PUSH1 0x0 DUP2 DUP2 MSTORE PUSH1 0x2 PUSH1 0x20 MSTORE PUSH1 0x40 SWAP1 KECCAK256 SLOAD PUSH1 0x1 PUSH1 0x1 PUSH1 0xA0 SHL SUB AND SWAP1 DUP2 ISZERO PUSH2 0x43F6 JUMPI POP SWAP1 JUMP JUMPDEST PUSH1 0x24 SWAP1 PUSH1 0x40 MLOAD SWAP1 PUSH4 0x7E273289 PUSH1 0xE0 SHL DUP3 MSTORE PUSH1 0x4 DUP3 ADD MSTORE REVERT JUMPDEST PUSH1 0x0 DUP2 DUP2 MSTORE PUSH1 0x2 PUSH1 0x20 MSTORE PUSH1 0x40 SWAP1 KECCAK256 SLOAD PUSH1 0x1 PUSH1 0x1 PUSH1 0xA0 SHL SUB AND DUP1 ISZERO SWAP1 DUP3 DUP3 ISZERO DUP1 PUSH2 0x44B9 JUMPI JUMPDEST PUSH2 0x4446 DUP3 PUSH1 0x0 MSTORE PUSH1 0x2 PUSH1 0x20 MSTORE PUSH1 0x40 PUSH1 0x0 KECCAK256 SWAP1 JUMP JUMPDEST DUP1 SLOAD PUSH1 0x1 PUSH1 0x1 PUSH1 0xA0 SHL SUB NOT AND SWAP1 SSTORE DUP2 PUSH1 0x0 DUP5 PUSH32 0xDDF252AD1BE2C89B69C2B068FC378DAA952BA7F163C4A11628F55A4DF523B3EF DUP3 DUP1 LOG4 DUP4 ISZERO PUSH2 0x449D JUMPI POP PUSH2 0x448D SWAP2 POP PUSH2 0x4BF4 JUMP JUMPDEST PUSH2 0x4496 DUP3 PUSH2 0x4C98 JUMP JUMPDEST PUSH2 0x43F6 JUMPI POP JUMP JUMPDEST PUSH2 0x44A9 JUMPI JUMPDEST POP POP PUSH2 0x448D JUMP JUMPDEST PUSH2 0x44B2 SWAP2 PUSH2 0x4B84 JUMP JUMPDEST CODESIZE DUP3 PUSH2 0x44A2 JUMP JUMPDEST PUSH2 0x44C2 DUP3 PUSH2 0x4B60 JUMP JUMPDEST PUSH1 0x1 PUSH1 0x1 PUSH1 0xA0 SHL SUB DUP4 AND PUSH1 0x0 SWAP1 DUP2 MSTORE PUSH1 0x3 PUSH1 0x20 MSTORE PUSH1 0x40 SWAP1 KECCAK256 DUP1 SLOAD PUSH1 0x0 NOT ADD SWAP1 SSTORE PUSH2 0x4432 JUMP JUMPDEST SWAP1 PUSH1 0x40 MLOAD PUSH2 0x44F4 DUP2 PUSH2 0x614 JUMP JUMPDEST PUSH1 0x0 DUP2 MSTORE PUSH2 0x4502 DUP3 DUP5 PUSH2 0x45EE JUMP JUMPDEST DUP3 EXTCODESIZE PUSH2 0x450D JUMPI POP POP POP JUMP JUMPDEST PUSH1 0x20 PUSH2 0x4530 SWAP2 PUSH1 0x40 MLOAD DUP1 SWAP4 DUP2 SWAP3 PUSH4 0xA85BD01 PUSH1 0xE1 SHL SWAP7 DUP8 DUP5 MSTORE CALLER PUSH1 0x4 DUP6 ADD PUSH2 0x47A0 JUMP JUMPDEST SUB DUP2 PUSH1 0x0 PUSH1 0x1 PUSH1 0x1 PUSH1 0xA0 SHL SUB DUP9 AND GAS CALL PUSH1 0x0 SWAP2 DUP2 PUSH2 0x45BD JUMPI JUMPDEST POP PUSH2 0x4588 JUMPI DUP3 PUSH2 0x4557 PUSH2 0x3A23 JUMP JUMPDEST DUP1 MLOAD SWAP2 SWAP1 DUP3 PUSH2 0x4581 JUMPI PUSH1 0x40 MLOAD PUSH4 0x32505749 PUSH1 0xE1 SHL DUP2 MSTORE PUSH1 0x1 PUSH1 0x1 PUSH1 0xA0 SHL SUB DUP4 AND PUSH1 0x4 DUP3 ADD MSTORE PUSH1 0x24 SWAP1 REVERT JUMPDEST PUSH1 0x20 SWAP2 POP ADD REVERT JUMPDEST PUSH1 0x1 PUSH1 0x1 PUSH1 0xE0 SHL SUB NOT AND SUB PUSH2 0x459A JUMPI POP JUMP JUMPDEST PUSH1 0x40 MLOAD PUSH4 0x32505749 PUSH1 0xE1 SHL DUP2 MSTORE PUSH1 0x1 PUSH1 0x1 PUSH1 0xA0 SHL SUB SWAP2 SWAP1 SWAP2 AND PUSH1 0x4 DUP3 ADD MSTORE PUSH1 0x24 SWAP1 REVERT JUMPDEST PUSH2 0x45E0 SWAP2 SWAP3 POP PUSH1 0x20 RETURNDATASIZE PUSH1 0x20 GT PUSH2 0x45E7 JUMPI JUMPDEST PUSH2 0x45D8 DUP2 DUP4 PUSH2 0x64A JUMP JUMPDEST DUP2 ADD SWAP1 PUSH2 0x478B JUMP JUMPDEST SWAP1 CODESIZE PUSH2 0x4549 JUMP JUMPDEST POP RETURNDATASIZE PUSH2 0x45CE JUMP JUMPDEST PUSH1 0x1 PUSH1 0x1 PUSH1 0xA0 SHL SUB SWAP2 DUP2 DUP4 AND DUP1 ISZERO PUSH2 0x3BC3 JUMPI PUSH1 0x0 DUP3 DUP2 MSTORE PUSH1 0x2 PUSH1 0x20 MSTORE PUSH1 0x40 SWAP1 KECCAK256 SLOAD PUSH1 0x1 PUSH1 0x1 PUSH1 0xA0 SHL SUB AND SWAP4 DUP5 AND DUP1 ISZERO SWAP5 DUP6 ISZERO SWAP6 DUP7 PUSH2 0x46EC JUMPI JUMPDEST PUSH1 0x1 PUSH1 0x1 PUSH1 0xA0 SHL SUB DUP7 AND PUSH1 0x0 SWAP1 DUP2 MSTORE PUSH1 0x3 PUSH1 0x20 MSTORE PUSH1 0x40 SWAP1 KECCAK256 PUSH1 0x1 DUP2 SLOAD ADD SWAP1 SSTORE PUSH2 0x465E DUP7 PUSH2 0xA6C DUP8 PUSH1 0x0 MSTORE PUSH1 0x2 PUSH1 0x20 MSTORE PUSH1 0x40 PUSH1 0x0 KECCAK256 SWAP1 JUMP JUMPDEST DUP5 DUP5 DUP5 PUSH32 0xDDF252AD1BE2C89B69C2B068FC378DAA952BA7F163C4A11628F55A4DF523B3EF PUSH1 0x0 DUP1 LOG4 ISZERO PUSH2 0x46CC JUMPI POP PUSH2 0x4695 DUP4 PUSH2 0x4BF4 JUMP JUMPDEST SUB PUSH2 0x46BC JUMPI JUMPDEST POP POP PUSH2 0x46A3 JUMPI JUMP JUMPDEST PUSH1 0x40 MLOAD PUSH4 0x39E35637 PUSH1 0xE1 SHL DUP2 MSTORE PUSH1 0x0 PUSH1 0x4 DUP3 ADD MSTORE PUSH1 0x24 SWAP1 REVERT JUMPDEST PUSH2 0x46C5 SWAP2 PUSH2 0x4C51 JUMP JUMPDEST CODESIZE DUP1 PUSH2 0x469B JUMP JUMPDEST DUP4 DUP4 DUP4 SUB PUSH2 0x46DC JUMPI JUMPDEST POP POP PUSH2 0x4695 JUMP JUMPDEST PUSH2 0x46E5 SWAP2 PUSH2 0x4B84 JUMP JUMPDEST CODESIZE DUP4 PUSH2 0x46D5 JUMP JUMPDEST PUSH2 0x46F5 DUP6 PUSH2 0x4B60 JUMP JUMPDEST PUSH1 0x1 PUSH1 0x1 PUSH1 0xA0 SHL SUB DUP3 AND PUSH1 0x0 SWAP1 DUP2 MSTORE PUSH1 0x3 PUSH1 0x20 MSTORE PUSH1 0x40 SWAP1 KECCAK256 DUP1 SLOAD PUSH1 0x0 NOT ADD SWAP1 SSTORE PUSH2 0x4627 JUMP JUMPDEST PUSH2 0x4723 CHAINID PUSH2 0x48BA JUMP JUMPDEST PUSH2 0x6F8 PUSH1 0x26 PUSH1 0x40 MLOAD DUP1 SWAP4 PUSH6 0x31B430B4B71D PUSH1 0xD1 SHL PUSH1 0x20 DUP4 ADD MSTORE PUSH2 0x474F DUP2 MLOAD DUP1 SWAP3 PUSH1 0x20 DUP7 DUP7 ADD SWAP2 ADD PUSH2 0x81F JUMP JUMPDEST DUP2 ADD SUB PUSH1 0x6 DUP2 ADD DUP5 MSTORE ADD DUP3 PUSH2 0x64A JUMP JUMPDEST PUSH1 0xA SLOAD PUSH1 0x1 PUSH1 0x1 PUSH1 0xA0 SHL SUB AND CALLER SUB PUSH2 0x4773 JUMPI JUMP JUMPDEST PUSH1 0x40 MLOAD PUSH4 0x118CDAA7 PUSH1 0xE0 SHL DUP2 MSTORE CALLER PUSH1 0x4 DUP3 ADD MSTORE PUSH1 0x24 SWAP1 REVERT JUMPDEST SWAP1 DUP2 PUSH1 0x20 SWAP2 SUB SLT PUSH2 0x50E JUMPI MLOAD PUSH2 0x6F8 DUP2 PUSH2 0x4FC JUMP JUMPDEST PUSH2 0x6F8 SWAP4 SWAP3 PUSH1 0x80 SWAP3 PUSH1 0x1 DUP1 PUSH1 0xA0 SHL SUB AND DUP3 MSTORE PUSH1 0x0 PUSH1 0x20 DUP4 ADD MSTORE PUSH1 0x40 DUP3 ADD MSTORE DUP2 PUSH1 0x60 DUP3 ADD MSTORE ADD SWAP1 PUSH2 0x842 JUMP JUMPDEST PUSH1 0x1 PUSH1 0x1 PUSH1 0xA0 SHL SUB SWAP2 DUP3 AND DUP2 MSTORE SWAP2 AND PUSH1 0x20 DUP3 ADD MSTORE PUSH1 0x40 DUP2 ADD SWAP2 SWAP1 SWAP2 MSTORE PUSH1 0x80 PUSH1 0x60 DUP3 ADD DUP2 SWAP1 MSTORE PUSH2 0x6F8 SWAP3 SWAP2 ADD SWAP1 PUSH2 0x842 JUMP JUMPDEST SWAP3 SWAP4 SWAP2 SWAP4 DUP5 EXTCODESIZE PUSH2 0x480D JUMPI POP POP POP POP POP JUMP JUMPDEST PUSH1 0x20 SWAP2 PUSH2 0x4830 PUSH1 0x40 MLOAD SWAP5 DUP6 SWAP4 DUP5 SWAP4 PUSH4 0xA85BD01 PUSH1 0xE1 SHL SWAP9 DUP10 DUP7 MSTORE PUSH1 0x4 DUP7 ADD PUSH2 0x47CB JUMP JUMPDEST SUB DUP2 PUSH1 0x0 PUSH1 0x1 PUSH1 0x1 PUSH1 0xA0 SHL SUB DUP9 AND GAS CALL PUSH1 0x0 SWAP2 DUP2 PUSH2 0x4871 JUMPI JUMPDEST POP PUSH2 0x4857 JUMPI DUP3 PUSH2 0x4557 PUSH2 0x3A23 JUMP JUMPDEST PUSH1 0x1 PUSH1 0x1 PUSH1 0xE0 SHL SUB NOT AND SUB PUSH2 0x459A JUMPI POP CODESIZE DUP1 DUP1 DUP1 DUP1 PUSH2 0x1A50 JUMP JUMPDEST PUSH2 0x488B SWAP2 SWAP3 POP PUSH1 0x20 RETURNDATASIZE PUSH1 0x20 GT PUSH2 0x45E7 JUMPI PUSH2 0x45D8 DUP2 DUP4 PUSH2 0x64A JUMP JUMPDEST SWAP1 CODESIZE PUSH2 0x4849 JUMP JUMPDEST SWAP1 PUSH2 0x489C DUP3 PUSH2 0x66B JUMP JUMPDEST PUSH2 0x48A9 PUSH1 0x40 MLOAD SWAP2 DUP3 PUSH2 0x64A JUMP JUMPDEST DUP3 DUP2 MSTORE DUP1 SWAP3 PUSH2 0x3938 PUSH1 0x1F NOT SWAP2 PUSH2 0x66B JUMP JUMPDEST DUP1 PUSH1 0x0 SWAP2 PUSH27 0x184F03E93FF9F4DAA797ED6E38ED64BF6A1F010000000000000000 DUP1 DUP3 LT ISZERO PUSH2 0x49F0 JUMPI JUMPDEST POP PUSH14 0x4EE2D6D415B85ACEF8100000000 DUP1 DUP4 LT ISZERO PUSH2 0x49E1 JUMPI JUMPDEST POP PUSH7 0x2386F26FC10000 DUP1 DUP4 LT ISZERO PUSH2 0x49D2 JUMPI JUMPDEST POP PUSH4 0x5F5E100 DUP1 DUP4 LT ISZERO PUSH2 0x49C3 JUMPI JUMPDEST POP PUSH2 0x2710 DUP1 DUP4 LT ISZERO PUSH2 0x49B4 JUMPI JUMPDEST POP PUSH1 0x64 DUP3 LT ISZERO PUSH2 0x49A4 JUMPI JUMPDEST PUSH1 0xA DUP1 SWAP3 LT ISZERO PUSH2 0x499A JUMPI JUMPDEST PUSH1 0x1 SWAP1 DUP2 PUSH1 0x21 PUSH2 0x4952 PUSH1 0x1 DUP8 ADD PUSH2 0x4892 JUMP JUMPDEST SWAP6 DUP7 ADD ADD SWAP1 JUMPDEST PUSH2 0x4964 JUMPI JUMPDEST POP POP POP POP SWAP1 JUMP JUMPDEST PUSH1 0x0 NOT ADD SWAP1 DUP4 SWAP1 PUSH16 0x181899199A1A9B1B9C1CB0B131B232B3 PUSH1 0x81 SHL DUP3 DUP3 MOD BYTE DUP4 MSTORE8 DIV SWAP2 DUP3 ISZERO PUSH2 0x4995 JUMPI SWAP2 SWAP1 DUP3 PUSH2 0x4958 JUMP JUMPDEST PUSH2 0x495D JUMP JUMPDEST SWAP2 PUSH1 0x1 ADD SWAP2 PUSH2 0x4940 JUMP JUMPDEST SWAP2 SWAP1 PUSH1 0x64 PUSH1 0x2 SWAP2 DIV SWAP2 ADD SWAP2 PUSH2 0x4935 JUMP JUMPDEST PUSH1 0x4 SWAP2 SWAP4 SWAP3 DIV SWAP2 ADD SWAP2 CODESIZE PUSH2 0x492A JUMP JUMPDEST PUSH1 0x8 SWAP2 SWAP4 SWAP3 DIV SWAP2 ADD SWAP2 CODESIZE PUSH2 0x491D JUMP JUMPDEST PUSH1 0x10 SWAP2 SWAP4 SWAP3 DIV SWAP2 ADD SWAP2 CODESIZE PUSH2 0x490E JUMP JUMPDEST PUSH1 0x20 SWAP2 SWAP4 SWAP3 DIV SWAP2 ADD SWAP2 CODESIZE PUSH2 0x48FC JUMP JUMPDEST PUSH1 0x40 SWAP4 POP DUP2 DIV SWAP2 POP CODESIZE PUSH2 0x48E3 JUMP JUMPDEST PUSH1 0x40 MLOAD SWAP1 PUSH1 0x60 DUP3 ADD DUP3 DUP2 LT PUSH1 0x1 PUSH1 0x1 PUSH1 0x40 SHL SUB DUP3 GT OR PUSH2 0x60F JUMPI PUSH1 0x40 MSTORE PUSH1 0x40 DUP3 MSTORE PUSH32 0x6768696A6B6C6D6E6F707172737475767778797A303132333435363738392B2F PUSH1 0x40 DUP4 PUSH32 0x4142434445464748494A4B4C4D4E4F505152535455565758595A616263646566 PUSH1 0x20 DUP3 ADD MSTORE ADD MSTORE JUMP JUMPDEST DUP1 MLOAD ISZERO PUSH2 0x4B57 JUMPI PUSH2 0x4A7C PUSH2 0x49FE JUMP JUMPDEST PUSH2 0x4A98 PUSH2 0x4A93 PUSH2 0x4A8C DUP5 MLOAD PUSH2 0x39E7 JUMP JUMPDEST PUSH1 0x3 SWAP1 DIV SWAP1 JUMP JUMPDEST PUSH2 0x39AC JUMP JUMPDEST SWAP2 PUSH2 0x4AAA PUSH2 0x4AA5 DUP5 PUSH2 0x39F5 JUMP JUMPDEST PUSH2 0x4892 JUMP JUMPDEST SWAP3 DUP4 MSTORE DUP1 DUP2 MLOAD DUP3 ADD SWAP1 PUSH1 0x20 DUP6 ADD SWAP4 JUMPDEST DUP3 DUP3 LT PUSH2 0x4AFB JUMPI POP POP POP PUSH1 0x3 SWAP1 MLOAD MOD DUP1 PUSH1 0x1 EQ PUSH2 0x4AEA JUMPI PUSH1 0x2 EQ PUSH2 0x4ADB JUMPI POP SWAP1 JUMP JUMPDEST PUSH1 0x3D PUSH1 0xF8 SHL PUSH1 0x0 NOT SWAP1 SWAP2 ADD MSTORE SWAP1 JUMP JUMPDEST POP PUSH2 0x3D3D PUSH1 0xF0 SHL PUSH1 0x1 NOT SWAP1 SWAP2 ADD MSTORE SWAP1 JUMP JUMPDEST SWAP1 SWAP2 SWAP4 PUSH1 0x4 SWAP1 PUSH1 0x3 DUP1 SWAP5 ADD SWAP4 DUP5 MLOAD PUSH1 0x1 PUSH1 0x3F DUP2 DUP2 DUP5 PUSH1 0x12 SHR AND DUP9 ADD ADD MLOAD SWAP3 PUSH1 0xF8 SWAP4 DUP5 SHL DUP7 MSTORE DUP3 DUP3 DUP3 PUSH1 0xC SHR AND DUP10 ADD ADD MLOAD DUP5 SHL DUP4 DUP8 ADD MSTORE DUP3 DUP3 DUP3 PUSH1 0x6 SHR AND DUP10 ADD ADD MLOAD DUP5 SHL PUSH1 0x2 DUP8 ADD MSTORE AND DUP7 ADD ADD MLOAD SWAP1 SHL SWAP1 DUP3 ADD MSTORE ADD SWAP4 SWAP2 SWAP1 PUSH2 0x4AB9 JUMP JUMPDEST POP PUSH2 0x6F8 PUSH2 0x3A10 JUMP JUMPDEST PUSH2 0x4B74 SWAP1 PUSH1 0x0 MSTORE PUSH1 0x4 PUSH1 0x20 MSTORE PUSH1 0x40 PUSH1 0x0 KECCAK256 SWAP1 JUMP JUMPDEST DUP1 SLOAD PUSH1 0x1 PUSH1 0x1 PUSH1 0xA0 SHL SUB NOT AND SWAP1 SSTORE JUMP JUMPDEST SWAP1 PUSH2 0x4B8E DUP3 PUSH2 0x3CA3 JUMP JUMPDEST SWAP2 PUSH1 0x0 SWAP3 DUP3 DUP5 MSTORE PUSH1 0x20 SWAP1 PUSH1 0x7 DUP3 MSTORE PUSH1 0x40 SWAP4 DUP5 DUP7 KECCAK256 SLOAD SWAP4 PUSH1 0x1 DUP1 PUSH1 0xA0 SHL SUB AND DUP7 MSTORE PUSH1 0x6 DUP4 MSTORE DUP5 DUP7 KECCAK256 SWAP4 DUP3 DUP2 SUB PUSH2 0x4BD2 JUMPI JUMPDEST POP DUP6 MSTORE PUSH1 0x7 DUP3 MSTORE DUP5 DUP5 DUP2 KECCAK256 SSTORE DUP5 MSTORE MSTORE DUP2 KECCAK256 SSTORE JUMP JUMPDEST DUP3 DUP8 MSTORE DUP5 DUP5 MSTORE DUP6 DUP8 KECCAK256 SLOAD DUP2 DUP9 MSTORE DUP1 DUP8 DUP10 KECCAK256 SSTORE DUP8 MSTORE PUSH1 0x7 DUP5 MSTORE DUP6 DUP8 KECCAK256 SSTORE CODESIZE PUSH2 0x4BBE JUMP JUMPDEST PUSH1 0x8 SLOAD DUP2 PUSH1 0x0 MSTORE PUSH1 0x9 PUSH1 0x20 MSTORE DUP1 PUSH1 0x40 PUSH1 0x0 KECCAK256 SSTORE PUSH9 0x10000000000000000 DUP2 LT ISZERO PUSH2 0x60F JUMPI PUSH1 0x1 DUP2 ADD DUP1 PUSH1 0x8 SSTORE DUP2 LT ISZERO PUSH2 0x396C JUMPI PUSH1 0x8 PUSH1 0x0 MSTORE PUSH32 0xF3F7A9FE364FAAB93B216DA50A3214154F22A0A2B415B23A84C8169E8B636EE3 ADD SSTORE JUMP JUMPDEST SWAP1 PUSH2 0x4C5B DUP3 PUSH2 0x3CA3 JUMP JUMPDEST PUSH1 0x0 NOT DUP2 ADD SWAP3 SWAP1 DUP4 GT PUSH2 0x1F7E JUMPI PUSH1 0x1 PUSH1 0x1 PUSH1 0xA0 SHL SUB AND PUSH1 0x0 SWAP1 DUP2 MSTORE PUSH1 0x6 PUSH1 0x20 SWAP1 DUP2 MSTORE PUSH1 0x40 DUP1 DUP4 KECCAK256 DUP6 DUP5 MSTORE DUP3 MSTORE DUP1 DUP4 KECCAK256 DUP5 SWAP1 SSTORE SWAP3 DUP3 MSTORE PUSH1 0x7 SWAP1 MSTORE KECCAK256 SSTORE JUMP JUMPDEST PUSH1 0x8 DUP1 SLOAD PUSH1 0x0 NOT SWAP3 DUP4 DUP3 ADD DUP3 DUP2 GT PUSH2 0x1F7E JUMPI PUSH1 0x0 SWAP3 DUP3 DUP5 MSTORE PUSH1 0x9 PUSH1 0x20 MSTORE DUP1 PUSH1 0x40 DUP6 KECCAK256 SLOAD SWAP3 LT ISZERO PUSH2 0x396C JUMPI DUP5 DUP5 MSTORE PUSH32 0xF3F7A9FE364FAAB93B216DA50A3214154F22A0A2B415B23A84C8169E8B636EE2 SWAP3 DUP4 DUP3 ADD SLOAD SWAP2 DUP4 LT ISZERO PUSH2 0x396C JUMPI DUP5 SWAP3 PUSH2 0x4D34 PUSH2 0x4D45 SWAP4 DUP9 DUP7 MSTORE DUP1 DUP4 PUSH32 0xF3F7A9FE364FAAB93B216DA50A3214154F22A0A2B415B23A84C8169E8B636EE3 ADD SSTORE PUSH1 0x0 MSTORE PUSH1 0x9 PUSH1 0x20 MSTORE PUSH1 0x40 PUSH1 0x0 KECCAK256 SWAP1 JUMP JUMPDEST SSTORE PUSH1 0x0 MSTORE PUSH1 0x9 PUSH1 0x20 MSTORE PUSH1 0x40 PUSH1 0x0 KECCAK256 SWAP1 JUMP JUMPDEST SSTORE DUP3 SLOAD SWAP4 DUP5 ISZERO PUSH2 0x4D62 JUMPI DUP5 ADD SWAP4 DUP1 DUP6 LT ISZERO PUSH2 0x396C JUMPI DUP4 DUP4 MSTORE ADD SSTORE SSTORE JUMP JUMPDEST PUSH4 0x4E487B71 PUSH1 0xE0 SHL DUP4 MSTORE PUSH1 0x31 PUSH1 0x4 MSTORE PUSH1 0x24 DUP4 REVERT JUMPDEST PUSH1 0x1 PUSH1 0x1 PUSH1 0xA0 SHL SUB SWAP1 DUP3 DUP3 AND DUP1 ISZERO ISZERO SWAP1 DUP2 PUSH2 0x4DE1 JUMPI JUMPDEST POP ISZERO PUSH2 0x4D98 JUMPI POP POP POP POP JUMP JUMPDEST AND PUSH2 0x4DB6 JUMPI PUSH1 0x40 MLOAD PUSH4 0x7E273289 PUSH1 0xE0 SHL DUP2 MSTORE PUSH1 0x4 DUP2 ADD DUP4 SWAP1 MSTORE PUSH1 0x24 SWAP1 REVERT JUMPDEST PUSH1 0x40 MLOAD PUSH4 0x177E802F PUSH1 0xE0 SHL DUP2 MSTORE PUSH1 0x1 PUSH1 0x1 PUSH1 0xA0 SHL SUB SWAP2 SWAP1 SWAP2 AND PUSH1 0x4 DUP3 ADD MSTORE PUSH1 0x24 DUP2 ADD SWAP2 SWAP1 SWAP2 MSTORE PUSH1 0x44 SWAP1 REVERT JUMPDEST DUP3 DUP5 AND DUP1 DUP3 EQ SWAP3 POP DUP3 ISZERO PUSH2 0x4E19 JUMPI JUMPDEST POP DUP2 ISZERO PUSH2 0x4DFF JUMPI JUMPDEST POP CODESIZE PUSH2 0x4D8C JUMP JUMPDEST SWAP1 POP DUP5 PUSH1 0x0 MSTORE PUSH1 0x4 PUSH1 0x20 MSTORE DUP3 PUSH1 0x40 PUSH1 0x0 KECCAK256 SLOAD AND EQ CODESIZE PUSH2 0x4DF8 JUMP JUMPDEST SWAP1 SWAP2 POP PUSH1 0x0 MSTORE PUSH1 0x5 PUSH1 0x20 MSTORE PUSH1 0xFF PUSH2 0x4E46 DUP6 PUSH1 0x40 PUSH1 0x0 KECCAK256 SWAP1 PUSH1 0x1 DUP1 PUSH1 0xA0 SHL SUB AND PUSH1 0x0 MSTORE PUSH1 0x20 MSTORE PUSH1 0x40 PUSH1 0x0 KECCAK256 SWAP1 JUMP JUMPDEST SLOAD AND SWAP1 CODESIZE PUSH2 0x4DF0 JUMP INVALID SDIV PUSH29 0x384A7D1C54F3A1B2E5E67B2617B8224FDFD1EA7234EEA573A6FF665FF6 RETURNDATACOPY 0xCE PUSH14 0x7B5282BD9A3661AE061FEED1DBDA 0x4E MSTORE 0xAB SMOD EXTCODESIZE 0x1F SWAP3 DUP6 0xBE PUSH15 0x155D9C38D4EC8D1108E10BCB7C27DD 0xDF 0xC0 0x2E 0xD9 0xD6 SWAP4 LOG0 PUSH21 0x39D026CF4EA4240B40F7D581AC802944998273E47 PUSH28 0x495144FB8794C914197F3CCB46BE2900F4698FD0EF743C9695A26469 PUSH17 0x667358221220A19CA9AF19984D2F3174C4 0xD4 KECCAK256 0x2B 0xCA 0x2F 0xD3 0xE7 SWAP11 PUSH26 0x6E9228ACACC744CD9D0347CA64736F6C63430008160033BB8A6A CHAINID PUSH10 0xBA250D26CD7A459ECA9D 0x21 PUSH0 DUP4 SMOD 0xE3 GASPRICE 0xEB 0xE5 SUB PUSH26 0xBC5A3617EC344431ECC21A745E3968A04E9570E4425BC18FA801 SWAP13 PUSH9 0x28196B546D1669C20 0xC PUSH9 0x290DECD9548B62A8D6 SUB GASLIMIT 0xA9 DUP9 CODESIZE PUSH16 0xC84BA6BC95484008F6362F93160EF3E5 PUSH4 0x3AD8AA4F DUP8 SLOAD NUMBER 0x23 0xA9 0xD1 0xE5 0xDD SWAP1 0x2F BLOCKHASH 0xC3 JUMP MSTORE PUSH27 0x7955687113DB5F9A85AD579DC166DE8FFDA797E3DE9C05E8FC57B3 0xBF 0xE 0xC2 DUP11 SWAP4 0xD BLOCKHASH 0xB0 0xD2 DUP6 0xD9 EXTCODECOPY MOD POP SHR 0xF6 LOG0 SWAP1 SDIV PUSH29 0x384A7D1C54F3A1B2E5E67B2617B8224FDFD1EA7234EEA573A6FF665FF6 RETURNDATACOPY 0xB1 0xE 0x2D MSTORE PUSH23 0x12073B26EECDFD717E6A320CF44B4AFAC2B0732D9FCBE2 0xB7 STATICCALL 0xC 0xF6 0xCE PUSH14 0x7B5282BD9A3661AE061FEED1DBDA 0x4E MSTORE 0xAB SMOD EXTCODESIZE 0x1F SWAP3 DUP6 0xBE PUSH15 0x155D9C38D4EC8D1108E10BCB7C27DD 0xDF 0xC0 0x2E 0xD9 0xD6 SWAP4 LOG0 PUSH21 0x39D026CF4EA4240B40F7D581AC802000000000000 "},"methodIdentifiers":{"FRAUD_THRESHOLD_PERCENT()":"649fa01f","WITHDRAWAL_LOCK_PERIOD()":"8e61f85f","approve(address,uint256)":"095ea7b3","balanceOf(address)":"70a08231","cancelEvent()":"fb6c9537","claimEmergencyRefund()":"105fd61f","claimRefund()":"b5545a3c","contentHash()":"646c2e33","emergencyRefundEnabled()":"6c155769","eventCancelled()":"e1a494d1","eventDate()":"4bfbe5df","eventDescription()":"9434571b","eventId()":"089cdd0c","eventImageUri()":"684e78dd","eventName()":"8043c9c0","eventOrganizerContract()":"0beb11b7","eventPaused()":"b40f2989","eventVenue()":"e22bda35","fraudReportCount()":"a73abbc2","fundsUnlockTime()":"69ae3dfa","fundsWithdrawn()":"ac307fcf","getApproved(uint256)":"081812fc","getEventDetails()":"e2bb3ccf","getEventInfo()":"6d00fa68","getFraudProtectionInfo()":"61d73adb","getOwnerTicketsDetails(address)":"10409cb2","getRefundInfo(address)":"eb7b7006","getTicketDetails(uint256)":"24c14160","getTicketMetadata(uint256)":"ba0ae43c","getTicketsRemaining()":"da649e6b","getTokensByOwner(address)":"40398d67","hasReportedFraud(address)":"e18b057d","isApprovedForAll(address,address)":"e985e9c5","isRefunded(uint256)":"55866c8d","isTicketUsed(uint256)":"2cd1d35c","maxSupply()":"d5abeb01","metadataUri()":"77a4d559","mintTicket()":"573c80fa","name()":"06fdde03","organizer()":"61203265","owner()":"8da5cb5b","ownerOf(uint256)":"6352211e","pauseEvent()":"b5e5f51b","refundDeadline()":"e1aa1bcc","refundedTicketCount(address)":"2c8cc6f7","refundsEnabled()":"532f1179","renounceOwnership()":"715018a6","reportFraud()":"9c378d80","resumeEvent()":"93d28635","royaltyInfo(uint256,uint256)":"2a55205a","royaltyPercent()":"9f67756d","safeTransferFrom(address,address,uint256)":"42842e0e","safeTransferFrom(address,address,uint256,bytes)":"b88d4fde","setApprovalForAll(address,bool)":"a22cb465","setEventOrganizerContract(address)":"25ff167e","setRoyaltyPercent(uint96)":"4bc46a82","supportsInterface(bytes4)":"01ffc9a7","symbol()":"95d89b41","ticketPrice()":"1209b1f6","tokenBuyerChain(uint256)":"55c85457","tokenByIndex(uint256)":"4f6ccce7","tokenOfOwnerByIndex(address,uint256)":"2f745c59","tokenOriginalBuyer(uint256)":"def3ad67","tokenPurchasePrice(uint256)":"9e408d4c","tokenURI(uint256)":"c87b56dd","totalRefundsClaimed()":"b963f8ca","totalSupply()":"18160ddd","transferFrom(address,address,uint256)":"23b872dd","transferOwnership(address)":"f2fde38b","updateEventDescription(string)":"c0af2346","updateEventImage(string)":"1feeaf74","updateEventName(string)":"05ccfd33","updateMetadataUri(string)":"870c8f26","useTicket(uint256)":"26606448","used(uint256)":"020fe6e5","venueAddress()":"69ba4f68","venueCoordinates()":"5e7bfd12","withdrawFunds()":"24600fc3"}}}}}