{
  "_format": "hh-sol-artifact-1",
  "contractName": "EventOrganizerV2",
  "sourceName": "contracts/V2/EventOrganizerV2.sol",
  "abi": [
    {
      "inputs": [],
      "stateMutability": "nonpayable",
      "type": "constructor"
    },
    {
      "inputs": [],
      "name": "AlreadyRegistered",
      "type": "error"
    },
    {
      "inputs": [],
      "name": "EventNotFound",
      "type": "error"
    },
    {
      "inputs": [],
      "name": "InvalidAddress",
      "type": "error"
    },
    {
      "inputs": [],
      "name": "InvalidRating",
      "type": "error"
    },
    {
      "inputs": [],
      "name": "NotAuthorized",
      "type": "error"
    },
    {
      "inputs": [],
      "name": "NotRegistered",
      "type": "error"
    },
    {
      "inputs": [],
      "name": "NotVerified",
      "type": "error"
    },
    {
      "inputs": [
        {
          "internalType": "address",
          "name": "owner",
          "type": "address"
        }
      ],
      "name": "OwnableInvalidOwner",
      "type": "error"
    },
    {
      "inputs": [
        {
          "internalType": "address",
          "name": "account",
          "type": "address"
        }
      ],
      "name": "OwnableUnauthorizedAccount",
      "type": "error"
    },
    {
      "inputs": [],
      "name": "UEARequired",
      "type": "error"
    },
    {
      "anonymous": false,
      "inputs": [
        {
          "indexed": true,
          "internalType": "uint256",
          "name": "eventId",
          "type": "uint256"
        }
      ],
      "name": "EventDeactivated",
      "type": "event"
    },
    {
      "anonymous": false,
      "inputs": [
        {
          "indexed": true,
          "internalType": "uint256",
          "name": "eventId",
          "type": "uint256"
        },
        {
          "indexed": true,
          "internalType": "address",
          "name": "eventContract",
          "type": "address"
        },
        {
          "indexed": true,
          "internalType": "address",
          "name": "organizer",
          "type": "address"
        },
        {
          "indexed": false,
          "internalType": "uint256",
          "name": "timestamp",
          "type": "uint256"
        }
      ],
      "name": "EventRecorded",
      "type": "event"
    },
    {
      "anonymous": false,
      "inputs": [
        {
          "indexed": true,
          "internalType": "address",
          "name": "organizer",
          "type": "address"
        },
        {
          "indexed": false,
          "internalType": "string",
          "name": "profileUri",
          "type": "string"
        },
        {
          "indexed": false,
          "internalType": "uint256",
          "name": "timestamp",
          "type": "uint256"
        }
      ],
      "name": "OrganizerRegistered",
      "type": "event"
    },
    {
      "anonymous": false,
      "inputs": [
        {
          "indexed": true,
          "internalType": "address",
          "name": "ueaAddress",
          "type": "address"
        },
        {
          "indexed": true,
          "internalType": "address",
          "name": "originalAddress",
          "type": "address"
        },
        {
          "indexed": false,
          "internalType": "string",
          "name": "profileUri",
          "type": "string"
        },
        {
          "indexed": false,
          "internalType": "uint256",
          "name": "timestamp",
          "type": "uint256"
        }
      ],
      "name": "OrganizerRegisteredWithUEA",
      "type": "event"
    },
    {
      "anonymous": false,
      "inputs": [
        {
          "indexed": true,
          "internalType": "address",
          "name": "organizer",
          "type": "address"
        },
        {
          "indexed": false,
          "internalType": "bool",
          "name": "verified",
          "type": "bool"
        }
      ],
      "name": "OrganizerVerified",
      "type": "event"
    },
    {
      "anonymous": false,
      "inputs": [
        {
          "indexed": true,
          "internalType": "address",
          "name": "previousOwner",
          "type": "address"
        },
        {
          "indexed": true,
          "internalType": "address",
          "name": "newOwner",
          "type": "address"
        }
      ],
      "name": "OwnershipTransferred",
      "type": "event"
    },
    {
      "anonymous": false,
      "inputs": [
        {
          "indexed": true,
          "internalType": "address",
          "name": "organizer",
          "type": "address"
        },
        {
          "indexed": false,
          "internalType": "address",
          "name": "newAddress",
          "type": "address"
        }
      ],
      "name": "PayoutAddressUpdated",
      "type": "event"
    },
    {
      "anonymous": false,
      "inputs": [
        {
          "indexed": true,
          "internalType": "address",
          "name": "organizer",
          "type": "address"
        },
        {
          "indexed": false,
          "internalType": "string",
          "name": "profileUri",
          "type": "string"
        }
      ],
      "name": "ProfileUpdated",
      "type": "event"
    },
    {
      "anonymous": false,
      "inputs": [
        {
          "indexed": true,
          "internalType": "address",
          "name": "organizer",
          "type": "address"
        },
        {
          "indexed": false,
          "internalType": "uint256",
          "name": "rating",
          "type": "uint256"
        },
        {
          "indexed": false,
          "internalType": "address",
          "name": "ratedBy",
          "type": "address"
        }
      ],
      "name": "RatingAdded",
      "type": "event"
    },
    {
      "anonymous": false,
      "inputs": [
        {
          "indexed": true,
          "internalType": "address",
          "name": "organizer",
          "type": "address"
        },
        {
          "indexed": false,
          "internalType": "uint256",
          "name": "amount",
          "type": "uint256"
        },
        {
          "indexed": false,
          "internalType": "uint256",
          "name": "revenue",
          "type": "uint256"
        }
      ],
      "name": "TicketsSoldIncremented",
      "type": "event"
    },
    {
      "inputs": [
        {
          "internalType": "address",
          "name": "_organizer",
          "type": "address"
        },
        {
          "internalType": "uint256",
          "name": "_rating",
          "type": "uint256"
        }
      ],
      "name": "addOrganizerRating",
      "outputs": [],
      "stateMutability": "nonpayable",
      "type": "function"
    },
    {
      "inputs": [
        {
          "internalType": "address",
          "name": "",
          "type": "address"
        }
      ],
      "name": "authorizedEventContracts",
      "outputs": [
        {
          "internalType": "bool",
          "name": "",
          "type": "bool"
        }
      ],
      "stateMutability": "view",
      "type": "function"
    },
    {
      "inputs": [
        {
          "internalType": "uint256",
          "name": "eventId",
          "type": "uint256"
        }
      ],
      "name": "deactivateEvent",
      "outputs": [],
      "stateMutability": "nonpayable",
      "type": "function"
    },
    {
      "inputs": [
        {
          "internalType": "uint256",
          "name": "",
          "type": "uint256"
        }
      ],
      "name": "deployedEvents",
      "outputs": [
        {
          "internalType": "address",
          "name": "eventContract",
          "type": "address"
        },
        {
          "internalType": "address",
          "name": "organizer",
          "type": "address"
        },
        {
          "internalType": "uint256",
          "name": "eventId",
          "type": "uint256"
        },
        {
          "internalType": "uint256",
          "name": "deployedAt",
          "type": "uint256"
        },
        {
          "internalType": "bool",
          "name": "isActive",
          "type": "bool"
        }
      ],
      "stateMutability": "view",
      "type": "function"
    },
    {
      "inputs": [
        {
          "internalType": "address",
          "name": "",
          "type": "address"
        }
      ],
      "name": "eventContractToId",
      "outputs": [
        {
          "internalType": "uint256",
          "name": "",
          "type": "uint256"
        }
      ],
      "stateMutability": "view",
      "type": "function"
    },
    {
      "inputs": [],
      "name": "getActiveEvents",
      "outputs": [
        {
          "components": [
            {
              "internalType": "address",
              "name": "eventContract",
              "type": "address"
            },
            {
              "internalType": "address",
              "name": "organizer",
              "type": "address"
            },
            {
              "internalType": "uint256",
              "name": "eventId",
              "type": "uint256"
            },
            {
              "internalType": "uint256",
              "name": "deployedAt",
              "type": "uint256"
            },
            {
              "internalType": "bool",
              "name": "isActive",
              "type": "bool"
            }
          ],
          "internalType": "struct EventOrganizerV2.DeployedEvent[]",
          "name": "",
          "type": "tuple[]"
        }
      ],
      "stateMutability": "view",
      "type": "function"
    },
    {
      "inputs": [],
      "name": "getAllDeployedEvents",
      "outputs": [
        {
          "components": [
            {
              "internalType": "address",
              "name": "eventContract",
              "type": "address"
            },
            {
              "internalType": "address",
              "name": "organizer",
              "type": "address"
            },
            {
              "internalType": "uint256",
              "name": "eventId",
              "type": "uint256"
            },
            {
              "internalType": "uint256",
              "name": "deployedAt",
              "type": "uint256"
            },
            {
              "internalType": "bool",
              "name": "isActive",
              "type": "bool"
            }
          ],
          "internalType": "struct EventOrganizerV2.DeployedEvent[]",
          "name": "",
          "type": "tuple[]"
        }
      ],
      "stateMutability": "view",
      "type": "function"
    },
    {
      "inputs": [],
      "name": "getDeployedEventsCount",
      "outputs": [
        {
          "internalType": "uint256",
          "name": "",
          "type": "uint256"
        }
      ],
      "stateMutability": "view",
      "type": "function"
    },
    {
      "inputs": [
        {
          "internalType": "uint256",
          "name": "eventId",
          "type": "uint256"
        }
      ],
      "name": "getEventDetails",
      "outputs": [
        {
          "internalType": "address",
          "name": "eventContract",
          "type": "address"
        },
        {
          "internalType": "address",
          "name": "organizer",
          "type": "address"
        },
        {
          "internalType": "uint256",
          "name": "deployedAt",
          "type": "uint256"
        },
        {
          "internalType": "bool",
          "name": "isActive",
          "type": "bool"
        }
      ],
      "stateMutability": "view",
      "type": "function"
    },
    {
      "inputs": [
        {
          "internalType": "address",
          "name": "eventContract",
          "type": "address"
        }
      ],
      "name": "getEventIdByContract",
      "outputs": [
        {
          "internalType": "uint256",
          "name": "",
          "type": "uint256"
        }
      ],
      "stateMutability": "view",
      "type": "function"
    },
    {
      "inputs": [
        {
          "internalType": "address",
          "name": "organizer",
          "type": "address"
        }
      ],
      "name": "getEventsByOrganizer",
      "outputs": [
        {
          "internalType": "uint256[]",
          "name": "",
          "type": "uint256[]"
        }
      ],
      "stateMutability": "view",
      "type": "function"
    },
    {
      "inputs": [],
      "name": "getOrganizerCount",
      "outputs": [
        {
          "internalType": "uint256",
          "name": "",
          "type": "uint256"
        }
      ],
      "stateMutability": "view",
      "type": "function"
    },
    {
      "inputs": [
        {
          "internalType": "address",
          "name": "organizerAddr",
          "type": "address"
        }
      ],
      "name": "getOrganizerDetails",
      "outputs": [
        {
          "internalType": "string",
          "name": "profileUri",
          "type": "string"
        },
        {
          "internalType": "string",
          "name": "contentHash",
          "type": "string"
        },
        {
          "internalType": "uint256",
          "name": "registrationDate",
          "type": "uint256"
        },
        {
          "internalType": "bool",
          "name": "isVerified",
          "type": "bool"
        },
        {
          "internalType": "uint256",
          "name": "totalEvents",
          "type": "uint256"
        },
        {
          "internalType": "uint256",
          "name": "totalTicketsSold",
          "type": "uint256"
        },
        {
          "internalType": "uint256",
          "name": "totalRevenue",
          "type": "uint256"
        },
        {
          "internalType": "uint256",
          "name": "averageRating",
          "type": "uint256"
        }
      ],
      "stateMutability": "view",
      "type": "function"
    },
    {
      "inputs": [
        {
          "internalType": "address",
          "name": "organizer",
          "type": "address"
        }
      ],
      "name": "getOrganizerPayoutAddress",
      "outputs": [
        {
          "internalType": "address",
          "name": "",
          "type": "address"
        }
      ],
      "stateMutability": "view",
      "type": "function"
    },
    {
      "inputs": [
        {
          "internalType": "address",
          "name": "_organizer",
          "type": "address"
        }
      ],
      "name": "getOrganizerRating",
      "outputs": [
        {
          "internalType": "uint256",
          "name": "",
          "type": "uint256"
        }
      ],
      "stateMutability": "view",
      "type": "function"
    },
    {
      "inputs": [
        {
          "internalType": "address",
          "name": "ueaAddress",
          "type": "address"
        }
      ],
      "name": "getOriginalFromUEA",
      "outputs": [
        {
          "internalType": "address",
          "name": "",
          "type": "address"
        }
      ],
      "stateMutability": "view",
      "type": "function"
    },
    {
      "inputs": [
        {
          "internalType": "address",
          "name": "organizer",
          "type": "address"
        }
      ],
      "name": "getPrimaryOrganizerAddress",
      "outputs": [
        {
          "internalType": "address",
          "name": "",
          "type": "address"
        }
      ],
      "stateMutability": "view",
      "type": "function"
    },
    {
      "inputs": [
        {
          "internalType": "address",
          "name": "originalAddress",
          "type": "address"
        }
      ],
      "name": "getUEAFromOriginal",
      "outputs": [
        {
          "internalType": "address",
          "name": "",
          "type": "address"
        }
      ],
      "stateMutability": "view",
      "type": "function"
    },
    {
      "inputs": [],
      "name": "getVerifiedOrganizers",
      "outputs": [
        {
          "internalType": "address[]",
          "name": "",
          "type": "address[]"
        }
      ],
      "stateMutability": "view",
      "type": "function"
    },
    {
      "inputs": [
        {
          "internalType": "address",
          "name": "organizer",
          "type": "address"
        },
        {
          "internalType": "uint256",
          "name": "amount",
          "type": "uint256"
        },
        {
          "internalType": "uint256",
          "name": "revenue",
          "type": "uint256"
        }
      ],
      "name": "incrementTicketsSold",
      "outputs": [],
      "stateMutability": "nonpayable",
      "type": "function"
    },
    {
      "inputs": [
        {
          "internalType": "address",
          "name": "eventContract",
          "type": "address"
        }
      ],
      "name": "isAuthorizedEventContract",
      "outputs": [
        {
          "internalType": "bool",
          "name": "",
          "type": "bool"
        }
      ],
      "stateMutability": "view",
      "type": "function"
    },
    {
      "inputs": [
        {
          "internalType": "address",
          "name": "organizer",
          "type": "address"
        }
      ],
      "name": "isVerifiedOrganizer",
      "outputs": [
        {
          "internalType": "bool",
          "name": "",
          "type": "bool"
        }
      ],
      "stateMutability": "view",
      "type": "function"
    },
    {
      "inputs": [
        {
          "internalType": "address",
          "name": "",
          "type": "address"
        },
        {
          "internalType": "uint256",
          "name": "",
          "type": "uint256"
        }
      ],
      "name": "organizerEvents",
      "outputs": [
        {
          "internalType": "uint256",
          "name": "",
          "type": "uint256"
        }
      ],
      "stateMutability": "view",
      "type": "function"
    },
    {
      "inputs": [
        {
          "internalType": "address",
          "name": "organizer",
          "type": "address"
        }
      ],
      "name": "organizerExists",
      "outputs": [
        {
          "internalType": "bool",
          "name": "",
          "type": "bool"
        }
      ],
      "stateMutability": "view",
      "type": "function"
    },
    {
      "inputs": [
        {
          "internalType": "uint256",
          "name": "",
          "type": "uint256"
        }
      ],
      "name": "organizerList",
      "outputs": [
        {
          "internalType": "address",
          "name": "",
          "type": "address"
        }
      ],
      "stateMutability": "view",
      "type": "function"
    },
    {
      "inputs": [
        {
          "internalType": "address",
          "name": "",
          "type": "address"
        }
      ],
      "name": "organizers",
      "outputs": [
        {
          "internalType": "string",
          "name": "profileUri",
          "type": "string"
        },
        {
          "internalType": "string",
          "name": "contentHash",
          "type": "string"
        },
        {
          "internalType": "uint256",
          "name": "registrationDate",
          "type": "uint256"
        },
        {
          "internalType": "bool",
          "name": "isVerified",
          "type": "bool"
        },
        {
          "internalType": "uint256",
          "name": "totalEvents",
          "type": "uint256"
        },
        {
          "internalType": "uint256",
          "name": "totalTicketsSold",
          "type": "uint256"
        },
        {
          "internalType": "uint256",
          "name": "totalRevenue",
          "type": "uint256"
        },
        {
          "internalType": "uint256",
          "name": "ratingSum",
          "type": "uint256"
        },
        {
          "internalType": "uint256",
          "name": "ratingCount",
          "type": "uint256"
        },
        {
          "internalType": "address",
          "name": "payoutAddress",
          "type": "address"
        },
        {
          "internalType": "bool",
          "name": "exists",
          "type": "bool"
        }
      ],
      "stateMutability": "view",
      "type": "function"
    },
    {
      "inputs": [
        {
          "internalType": "address",
          "name": "",
          "type": "address"
        }
      ],
      "name": "originalToUea",
      "outputs": [
        {
          "internalType": "address",
          "name": "",
          "type": "address"
        }
      ],
      "stateMutability": "view",
      "type": "function"
    },
    {
      "inputs": [],
      "name": "owner",
      "outputs": [
        {
          "internalType": "address",
          "name": "",
          "type": "address"
        }
      ],
      "stateMutability": "view",
      "type": "function"
    },
    {
      "inputs": [
        {
          "internalType": "address",
          "name": "eventContract",
          "type": "address"
        },
        {
          "internalType": "address",
          "name": "creator",
          "type": "address"
        },
        {
          "internalType": "uint256",
          "name": "_eventId",
          "type": "uint256"
        }
      ],
      "name": "recordEventCreation",
      "outputs": [
        {
          "internalType": "uint256",
          "name": "assignedEventId",
          "type": "uint256"
        }
      ],
      "stateMutability": "nonpayable",
      "type": "function"
    },
    {
      "inputs": [
        {
          "internalType": "string",
          "name": "_profileUri",
          "type": "string"
        },
        {
          "internalType": "string",
          "name": "_contentHash",
          "type": "string"
        },
        {
          "internalType": "address",
          "name": "_originalAddress",
          "type": "address"
        }
      ],
      "name": "registerOrganizer",
      "outputs": [],
      "stateMutability": "nonpayable",
      "type": "function"
    },
    {
      "inputs": [],
      "name": "renounceOwnership",
      "outputs": [],
      "stateMutability": "nonpayable",
      "type": "function"
    },
    {
      "inputs": [
        {
          "internalType": "address",
          "name": "newOwner",
          "type": "address"
        }
      ],
      "name": "transferOwnership",
      "outputs": [],
      "stateMutability": "nonpayable",
      "type": "function"
    },
    {
      "inputs": [
        {
          "internalType": "address",
          "name": "",
          "type": "address"
        }
      ],
      "name": "ueaToOriginal",
      "outputs": [
        {
          "internalType": "address",
          "name": "",
          "type": "address"
        }
      ],
      "stateMutability": "view",
      "type": "function"
    },
    {
      "inputs": [
        {
          "internalType": "address",
          "name": "_newAddress",
          "type": "address"
        }
      ],
      "name": "updateOrganizerPayoutAddress",
      "outputs": [],
      "stateMutability": "nonpayable",
      "type": "function"
    },
    {
      "inputs": [
        {
          "internalType": "string",
          "name": "_profileUri",
          "type": "string"
        },
        {
          "internalType": "string",
          "name": "_contentHash",
          "type": "string"
        }
      ],
      "name": "updateOrganizerProfile",
      "outputs": [],
      "stateMutability": "nonpayable",
      "type": "function"
    },
    {
      "inputs": [
        {
          "internalType": "address",
          "name": "_organizer",
          "type": "address"
        },
        {
          "internalType": "bool",
          "name": "_verified",
          "type": "bool"
        }
      ],
      "name": "verifyOrganizer",
      "outputs": [],
      "stateMutability": "nonpayable",
      "type": "function"
    }
  ],
  "bytecode": "0x608080604052346200054f573315620005395760008054336001600160a01b0319821681178355916001600160a01b03909116907f8be0079c531659141344cd1fd0a4f28419497f9722a3daafe3b4186f6b6457e09080a360405161016081016001600160401b0381118282101762000365576040526200007f62000554565b6000815281526200008f62000554565b6000815260208201524260408201526001606082015260006080820152600060a0820152600060c0820152600060e08201526000610100820152336101208201526001610140820152336000526001602052604060002090805191825160018060401b03811162000365578154600181811c911680156200052e575b60208210146200044b57601f8111620004e5575b506020601f82116001146200047857819293946000926200046c575b50508160011b916000199060031b1c19161781555b60208201518051906001600160401b03821162000365576001830154600181811c9116801562000461575b60208210146200044b57601f8111620003ff575b50602090601f831160011462000387576009939291600091836200037b575b50508160011b916000199060031b1c19161760018201555b60408301516002820155600381016060840151151560ff801983541691161790556080830151600482015560a0830151600582015560c0830151600682015560e083015160078201556101008301516008820155019060018060a01b036101208201511682549161014060ff60a01b910151151560a01b169160018060a81b0319161717905560018060a01b036000541660025468010000000000000000811015620003655760018101806002558110156200034f57600260009081527f405787fa12a823e0f2b7631cc41b3ba8828b3321ca811111fa75cd3aa3bb5ace9190910180546001600160a01b03191690921790915554620002cf906001600160a01b031662000574565b5060018060a01b0360005416807f3d5483a93df0921e07ba2b0050c4d0f5793795035f1db5af3face517df5e333b60606040516040815260006040820152426020820152a27fb2db07fb09ffc5844977daaf0aae46ed92b7b07810799a6af9e9d0c80eba59de602060405160018152a26040516122cb9081620006158239f35b634e487b7160e01b600052603260045260246000fd5b634e487b7160e01b600052604160045260246000fd5b015190508580620001ae565b906001840160005260206000209160005b601f1985168110620003e6575091839160019360099695601f19811610620003cc575b505050811b016001820155620001c6565b015160001960f88460031b161c19169055858080620003bb565b9192602060018192868501518155019401920162000398565b600184016000526020600020601f840160051c81016020851062000443575b601f830160051c82018110620004365750506200018f565b600081556001016200041e565b50806200041e565b634e487b7160e01b600052602260045260246000fd5b90607f16906200017b565b0151905084806200013b565b8260005260206000209060005b601f1984168110620004cc5750600193949583601f19811610620004b2575b505050811b01815562000150565b015160001960f88460031b161c19169055848080620004a4565b9091602060018192858a01518155019301910162000485565b826000526020600020601f830160051c81016020841062000526575b601f830160051c82018110620005195750506200011f565b6000815560010162000501565b508062000501565b90607f16906200010b565b631e4fbdf760e01b815260006004820152602490fd5b600080fd5b60405190602082016001600160401b038111838210176200036557604052565b6000818152600460205260408120546200060f5760035468010000000000000000811015620005fb576001810180600355811015620005e7577fc2575a0e9e593c00f959f8c92f12db2869c3395a3b0502d05e2516446f71f85b0182905560035491815260046020526040902055600190565b634e487b7160e01b82526032600452602482fd5b634e487b7160e01b82526041600452602482fd5b90509056fe6080604052600436101561001257600080fd5b60003560e01c80630544c5b9146119aa578063087da4a41461068a5780631624939d146118c65780631bfba652146116b35780631c00caab146115605780632264e8cb1461153d57806324af603214611510578063317893ff146114f257806332833f28146114615780633612280f14611330578063412a9986146113005780634adad82d14610b1f5780634ca6db3914610b5e5780634ec33f6e1461124c5780635cb75d8514610ce557806361b0c73914610bf25780636bb7de8b14610747578063715018a614610b99578063722adcee14610b5e5780637b8bce2214610b1f5780638da5cb5b14610af6578063957a632e14610a5c5780639593644814610a315780639f6271c31461097d5780639f816ba214610897578063b085e083146107c4578063bb26b2aa14610782578063d1d8327014610747578063d36b904c146106e2578063d9d4c1c7146106c4578063e0c322b61461068a578063e4aa47e314610632578063eade22f6146105c4578063ec38d5a014610549578063f1755ba2146102365763f2fde38b146101a857600080fd5b34610231576020366003190112610231576101c1611a89565b6101c961211f565b6001600160a01b0390811690811561021857600054826001600160601b0360a01b821617600055167f8be0079c531659141344cd1fd0a4f28419497f9722a3daafe3b4186f6b6457e0600080a3005b604051631e4fbdf760e01b815260006004820152602490fd5b600080fd5b346102315760403660031901126102315767ffffffffffffffff60043581811161023157610268903690600401611c90565b9060243581811161023157610281903690600401611c90565b913360005260019260209084825260ff60096040600020015460a01c1615610537576001600160a01b036102b433611feb565b16938460005285835260406000209584519682881161046e576102d78154611a9f565b97601f988981116104f1575b5080868a821160011461048f57600091610484575b50600019600383901b1c191690831b1790555b856000528084528060406000200192805192831161046e5761032d8454611a9f565b888111610428575b50849783116001146103a65782917fdd635a4cd84864e37e4479dbfc2ec667acfa473c83c8422a8ac9d9d07599b01c9798839260009461039b575b50501b916000199060031b1c19161790555b610396604051928284938452830190611bd9565b0390a2005b015192508980610370565b601f9291921982169784600052856000209160005b8a81106104135750837fdd635a4cd84864e37e4479dbfc2ec667acfa473c83c8422a8ac9d9d07599b01c999a106103fa575b505050811b019055610382565b015160001960f88460031b161c191690558780806103ed565b818301518455928501929187019187016103bb565b84600052856000208980860160051c820192888710610465575b0160051c019083905b828110610459575050610335565b6000815501839061044b565b92508192610442565b634e487b7160e01b600052604160045260246000fd5b90508701518a6102f8565b849250601f1982169084600052886000209160005b8a8c8383106104dc5750505083116104c3575b5050811b01905561030b565b89015160001960f88460031b161c191690558a806104b7565b840151855588969094019392830192016104a4565b82600052866000208a80840160051c82019289851061052e575b0160051c019084905b8281106105225750506102e3565b60008155018490610514565b9250819261050b565b60405163aba4733960e01b8152600490fd5b34610231576020366003190112610231576004356007548110156105b25761057b610575608092611d83565b50611f8a565b60018060a01b0390818151169160208201511690836060820151910151151591604051938452602084015260408301526060820152f35b604051635add554360e01b8152600490fd5b3461023157602036600319011261023157600435600754811015610231576105ed60a091611d83565b50600180831b0390818154169160018201541690600281015460ff60046003840154930154169260405194855260208501526040840152606083015215156080820152f35b346102315760403660031901126102315761064b611a89565b6001600160a01b03166000908152600860205260409020805460243591908210156102315760209161067c91611d6b565b90546040519160031b1c8152f35b34610231576020366003190112610231576001600160a01b036106ab611a89565b1660005260096020526020604060002054604051908152f35b34610231576000366003190112610231576020600254604051908152f35b34610231576020366003190112610231576001600160a01b038061070c610707611a89565b611feb565b169081600052600160205260ff60096040600020015460a01c1615610537576020916000526001825260096040600020015416604051908152f35b346102315760203660031901126102315760206001600160a01b038061076b611a89565b166000526005825260406000205416604051908152f35b3461023157602036600319011261023157600435600254811015610231576107ab602091611ce7565b905460405160039290921b1c6001600160a01b03168152f35b34610231576040366003190112610231576107dd611a89565b6024359081151590818303610231576107f461211f565b6001600160a01b039061080690611feb565b169182600052600160205260ff60096040600020015460a01c1615610537577fb2db07fb09ffc5844977daaf0aae46ed92b7b07810799a6af9e9d0c80eba59de91602091846000526001835261086f8160036040600020019060ff801983541691151516179055565b156108885761087d8461214b565b505b604051908152a2005b610891846121ac565b5061087f565b3461023157600036600319011261023157600380546108b581611f72565b6108c26040519182611b12565b8181526108ce82611f72565b6020938285019391601f190136853760005b82811061093657505050906040519283926020840190602085525180915260408401929160005b82811061091657505050500390f35b83516001600160a01b031685528695509381019392810192600101610907565b60008290527fc2575a0e9e593c00f959f8c92f12db2869c3395a3b0502d05e2516446f71f85b810154600191906001600160a01b03166109768287611fd7565b52016108e0565b3461023157602080600319360112610231576001600160a01b0361099f611a89565b1660005260088152604060002060405190818382549182815201908192600052846000209060005b86828210610a1d5786866109dd82880383611b12565b604051928392818401908285525180915260408401929160005b828110610a0657505050500390f35b8351855286955093810193928101926001016109f7565b8354855290930192600192830192016109c7565b34610231576020366003190112610231576020610a54610a4f611a89565b612051565b604051908152f35b34610231576020366003190112610231576004356007548110156105b257610a8381611d83565b50600054336001600160a01b0391821614159081610ae5575b50610ad357600401805460ff191690557f9bec5b77a290657edefc9defa075c60a874e90f7cc9496853ca9962d58a4ffdd600080a2005b60405163ea8e4eb560e01b8152600490fd5b905060018201541633141583610a9c565b34610231576000366003190112610231576000546040516001600160a01b039091168152602090f35b34610231576020366003190112610231576001600160a01b03610b40611a89565b16600052600a602052602060ff604060002054166040519015158152f35b346102315760203660031901126102315760206001600160a01b0380610b82611a89565b166000526006825260406000205416604051908152f35b3461023157600036600319011261023157610bb261211f565b600080546001600160a01b0319811682556001600160a01b03167f8be0079c531659141344cd1fd0a4f28419497f9722a3daafe3b4186f6b6457e08280a3005b3461023157606036600319011261023157610c0b611a89565b60005460443591602435916001600160a01b03919082163303610cbd575b610c3290611feb565b169182600052600160205260ff60096040600020015460a01c1615610537577f17e83cfa962d2a1753c58a1d4c41f6262bbf47dd8a24f98d7f883dc0284567c49160409184600052600160205260058360002001610c91838254611dbe565b905584600052600160205260068360002001610cae828254611dbe565b905582519182526020820152a2005b33600052600a60205260ff60406000205416610c295760405163ea8e4eb560e01b8152600490fd5b346102315760603660031901126102315760043567ffffffffffffffff811161023157610d16903690600401611c90565b60243567ffffffffffffffff811161023157610d36903690600401611c90565b604435906001600160a01b03821682036102315733600052600160205260ff60096040600020015460a01c1661123a576001600160a01b038216611212575b60405190610d8282611af5565b83825260208201524260408201526001606082015260006080820152600060a0820152600060c0820152600060e082015260006101008201523361012082015260016101408201523360005260016020526040600020815180519067ffffffffffffffff821161046e578190610df88454611a9f565b601f81116111c2575b50602090601f83116001146111565760009261114b575b50508160011b916000199060031b1c19161781555b602082015180519067ffffffffffffffff821161046e57610e516001840154611a9f565b601f8111611104575b50602090601f831160011461109157600993929160009183611086575b50508160011b916000199060031b1c19161760018201555b60408301516002820155610eb860608401511515600383019060ff801983541691151516179055565b6080830151600482015560a0830151600582015560c0830151600682015560e083015160078201556101008301516008820155019060018060a01b036101208201511682549161014060ff60a01b910151151560a01b16916affffffffffffffffffffff60a81b1617179055600254600160401b81101561046e57806001610f439201600255611ce7565b81549060031b9033821b9160018060a01b03901b1916179055610f653361214b565b506001600160a01b0381161561103d5733600052600560205260406000206001600160601b0360a01b9060018060a01b0383168282541617905560018060a01b038216600052600660205260406000209033908254161790557f7f1838e1923f4fcd4770c40162134223bb524ac45a29053099b7dc5cf5845312610ff460405193604085526040850190611bd9565b4260208501526001600160a01b0390921692339281900390a35b604051600181527fb2db07fb09ffc5844977daaf0aae46ed92b7b07810799a6af9e9d0c80eba59de60203392a2005b507f3d5483a93df0921e07ba2b0050c4d0f5793795035f1db5af3face517df5e333b61107460405192604084526040840190611bd9565b914260208201528033930390a261100e565b015190508780610e77565b906001840160005260206000209160005b601f19851681106110ec575091839160019360099695601f198116106110d3575b505050811b016001820155610e8f565b015160001960f88460031b161c191690558780806110c3565b919260206001819286850151815501940192016110a2565b600184016000526020600020601f840160051c810160208510611144575b601f830160051c82018110611138575050610e5a565b60008155600101611122565b5080611122565b015190508680610e18565b9250836000526020600020906000935b601f19841685106111a7576001945083601f1981161061118e575b505050811b018155610e2d565b015160001960f88460031b161c19169055868080611181565b81810151835560209485019460019093019290910190611166565b909150836000526020600020601f840160051c81016020851061120b575b90849392915b601f830160051c820181106111fc575050610e01565b600081558594506001016111e6565b50806111e0565b6001600160a01b03821660009081526001602052604090206009015460a01c60ff1615610d75575b604051630ea075bf60e21b8152600490fd5b3461023157602036600319011261023157611265611a89565b33600052600160205260ff60096040600020015460a01c1615610537576001600160a01b039081169081156112ee5760207fba2be5e898fed1646bc0814dee1cc9a2aee98f51fced7d5fc4699c47d9907753916112c133611feb565b169283600052600182526009604060002001816001600160601b0360a01b825416179055604051908152a2005b60405163e6c4247b60e01b8152600490fd5b3461023157602036600319011261023157602061131e610707611a89565b6040516001600160a01b039091168152f35b3461023157600036600319011261023157600080600754905b81811061142f575061135a82611f72565b916113686040519384611b12565b808352611377601f1991611f72565b0160005b8181106113f55750506000805b8281106113a1576040518061139d8682611c19565b0390f35b60ff60046113ae83611d83565b500154166113bf575b600101611388565b906113ed6001916113d261057585611d83565b6113dc8288611fd7565b526113e78187611fd7565b50611de1565b9190506113b7565b60209060405161140481611ad9565b600081528260008183015260006040830152600060608301526000608083015282870101520161137b565b60ff600461143c83611d83565b5001541661144d575b600101611349565b91611459600191611de1565b929050611445565b346102315760003660031901126102315760075461147e81611f72565b61148b6040519182611b12565b8181526020916020820160076000527fa66cc928b5edb82af9bd49922954155ab7b0942694bea4ce44661d9a8736c688936000915b8383106114d5576040518061139d8782611c19565b6005826001926114e489611f8a565b8152019601920191946114c0565b34610231576000366003190112610231576020600754604051908152f35b3461023157602036600319011261023157602061153361152e611a89565b611e7b565b6040519015158152f35b3461023157602036600319011261023157602061153361155b611a89565b611e10565b34610231576020366003190112610231576001600160a01b0380611585610707611a89565b1660005260016020526040600020604051916115a083611af5565b6115a982611b34565b83526115b760018301611b34565b926020810193845260028301546040820190815260ff6003850154169260608301931515845260048501546080840190815260058601549060a0850191825260068701549260c0860193845260078801548060e088015260ff60088a01549260096101009b858d8c015201549081166101208a015260a01c1615156101408801528115156000146116a6576116839161164f91611df0565b955b519851945196511515915192519351946116756040519a8a8c9b8c528b0190611bd9565b9089820360208b0152611bd9565b9560408801526060870152608086015260a085015260c084015260e08301520390f35b5050611683600095611651565b34610231576060366003190112610231576116cc611a89565b602435906001600160a01b039081831683036102315781908160005416330361188f575b169182156112ee576117028291611feb565b168060005260019260209380855260ff60096040600020015460a01c16156105375782600052808552600460406000200161173d8154611de1565b9055600754936040519061175082611ad9565b8382528682018581526040830192878452606081014281526080820190868252600160401b95868b101561046e57878b0160075561178d8b611d83565b95909561187957866117e1976004965116906001600160601b0360a01b91828954161788558a88019251169082541617905551600285015551600384015551151591019060ff801983541691151516179055565b836000526008865260406000209081549081101561046e5761180c8187938561182394018155611d6b565b819391549060031b91821b91600019901b19161790565b9055816000526009855283604060002055600a855260406000209060ff19825416179055827fff58b66f24ff4eb8cdcbb449f475bb0a38562bcc93747b2789258890a3ec587f85604051428152a4604051908152f35b634e487b7160e01b600052600060045260246000fd5b9081163303610ad357816118a284611feb565b16600052600160205260ff60096040600020015460a01c16156105375781906116f0565b34610231576040366003190112610231576118df611a89565b602435906001600160a01b03906118f590611feb565b169081600052600160205260ff60096040600020015460a01c1615610537576001811080156119a0575b61198e5760407f0bb5dae0881d92dbba846442c97b0e16b14bb50c193562dd865ef8fb6693363a9183600052600160205260078260002001611962828254611dbe565b90558360005260016020526008826000200161197e8154611de1565b90558151908152336020820152a2005b60405163d29df2dd60e01b8152600490fd5b506005811161191f565b3461023157602036600319011261023157611a3c6001600160a01b03806119cf611a89565b166000526001602052604060002060ff6119e882611b34565b926119f560018401611b34565b906002840154938360038201541660048201546005830154600684015491600785015493611a4a60096008880154970154986040519d8e9d8e610160908181520190611bd9565b8d810360208f015290611bd9565b9960408c0152151560608b015260808a015260a089015260c088015260e0870152610100860152811661012085015260a01c1615156101408301520390f35b600435906001600160a01b038216820361023157565b90600182811c92168015611acf575b6020831014611ab957565b634e487b7160e01b600052602260045260246000fd5b91607f1691611aae565b60a0810190811067ffffffffffffffff82111761046e57604052565b610160810190811067ffffffffffffffff82111761046e57604052565b90601f8019910116810190811067ffffffffffffffff82111761046e57604052565b90604051918260008254611b4781611a9f565b90818452602094600191600181169081600014611bb75750600114611b78575b505050611b7692500383611b12565b565b600090815285812095935091905b818310611b9f575050611b769350820101388080611b67565b85548884018501529485019487945091830191611b86565b92505050611b7694925060ff191682840152151560051b820101388080611b67565b919082519283825260005b848110611c05575050826000602080949584010152601f8019910116010190565b602081830181015184830182015201611be4565b60208082019080835283518092528060408094019401926000905b838210611c4357505050505090565b845180516001600160a01b03908116885281850151168785015280820151878301526060808201519088015260809081015115159087015260a09095019493820193600190910190611c34565b81601f820112156102315780359067ffffffffffffffff821161046e5760405192611cc5601f8401601f191660200185611b12565b8284526020838301011161023157816000926020809301838601378301015290565b600254811015611d1e5760026000527f405787fa12a823e0f2b7631cc41b3ba8828b3321ca811111fa75cd3aa3bb5ace0190600090565b634e487b7160e01b600052603260045260246000fd5b600354811015611d1e5760036000527fc2575a0e9e593c00f959f8c92f12db2869c3395a3b0502d05e2516446f71f85b0190600090565b8054821015611d1e5760005260206000200190600090565b600754811015611d1e576005906007600052027fa66cc928b5edb82af9bd49922954155ab7b0942694bea4ce44661d9a8736c6880190600090565b91908201809211611dcb57565b634e487b7160e01b600052601160045260246000fd5b6000198114611dcb5760010190565b8115611dfa570490565b634e487b7160e01b600052601260045260246000fd5b60018060a01b0380600092168252600160205260ff600960408420015460a01c16611e745760066020526040822054168015159081611e58575b50611e525790565b50600190565b8252506001602052604081206009015460a01c60ff1638611e4a565b5050600190565b60018060a01b038091166000918183526001916020918383526040908186209260ff938480600983015460a01c169182611f64575b5050611f2c57600685528183882054168015159081611f4b575b81611f36575b50611f2c578652600584528186205416151592849084611f15575b84611f02575b50505050611efd575090565b905090565b5284206003015416905038808381611ef1565b8094505283826009838820015460a01c1693611eeb565b5050505050905090565b88525085855282872060030154841638611ed0565b8089528787528489206009015460a01c86169150611eca565b600301541690508438611eb0565b67ffffffffffffffff811161046e5760051b60200190565b90604051611f9781611ad9565b82546001600160a01b0390811682526001840154166020820152600283015460408201526003830154606082015260049092015460ff1615156080830152565b8051821015611d1e5760209160051b010190565b6001600160a01b0381811660009081526001602052604090206009015460a01c60ff1661204d576006602052604060002054168015158061202f575b611efd575090565b5080600052600160205260ff60096040600020015460a01c16612027565b5090565b6001600160a01b0390819061206590611feb565b166000526001602052604060002060405161207f81611af5565b61208882611b34565b815261209660018301611b34565b60208201526002820154604082015260ff6003830154161515606082015260048201546080820152600582015460a0820152600682015460c082015261014060ff6007840154948560e0850152600960088601549586610100870152015490811661012085015260a01c16151591015280156121185761211591611df0565b90565b5050600090565b6000546001600160a01b0316330361213357565b60405163118cdaa760e01b8152336004820152602490fd5b600081815260046020526040812054611efd57600354600160401b81101561219857908261218461180c84600160409601600355611d34565b905560035492815260046020522055600190565b634e487b7160e01b82526041600452602482fd5b60009080825260049081602052604083205480151560001461228f576000199080820181811161227c576003549083820191821161226957818103612236575b50505060035480156122235781019061220482611d34565b909182549160031b1b1916905560035582526020526040812055600190565b634e487b7160e01b855260318452602485fd5b61225461224561180c93611d34565b90549060031b1c928392611d34565b905585528360205260408520553880806121ec565b634e487b7160e01b875260118652602487fd5b634e487b7160e01b865260118552602486fd5b5050509056fea26469706673582212200aa0483e3494085e3fe64a7bf6aa97992c105e8bd829920d55f2f96bb9425bdb64736f6c63430008160033",
  "linkReferences": {},
  "deployedLinkReferences": {}
}