{
  "_format": "hh-sol-artifact-1",
  "contractName": "UniversalTicketValidator",
  "sourceName": "contracts/BIG/UniversalTicketValidator.sol",
  "abi": [
    {
      "inputs": [],
      "stateMutability": "nonpayable",
      "type": "constructor"
    },
    {
      "inputs": [
        {
          "internalType": "address",
          "name": "owner",
          "type": "address"
        }
      ],
      "name": "OwnableInvalidOwner",
      "type": "error"
    },
    {
      "inputs": [
        {
          "internalType": "address",
          "name": "account",
          "type": "address"
        }
      ],
      "name": "OwnableUnauthorizedAccount",
      "type": "error"
    },
    {
      "anonymous": false,
      "inputs": [
        {
          "indexed": true,
          "internalType": "address",
          "name": "previousOwner",
          "type": "address"
        },
        {
          "indexed": true,
          "internalType": "address",
          "name": "newOwner",
          "type": "address"
        }
      ],
      "name": "OwnershipTransferred",
      "type": "event"
    },
    {
      "anonymous": false,
      "inputs": [
        {
          "indexed": true,
          "internalType": "uint256",
          "name": "eventId",
          "type": "uint256"
        },
        {
          "indexed": false,
          "internalType": "uint256",
          "name": "tokenId",
          "type": "uint256"
        },
        {
          "indexed": true,
          "internalType": "address",
          "name": "ticketOwner",
          "type": "address"
        },
        {
          "indexed": true,
          "internalType": "address",
          "name": "validator",
          "type": "address"
        },
        {
          "indexed": false,
          "internalType": "string",
          "name": "locationUri",
          "type": "string"
        }
      ],
      "name": "TicketValidated",
      "type": "event"
    },
    {
      "anonymous": false,
      "inputs": [
        {
          "indexed": true,
          "internalType": "address",
          "name": "validator",
          "type": "address"
        }
      ],
      "name": "ValidatorAdded",
      "type": "event"
    },
    {
      "anonymous": false,
      "inputs": [
        {
          "indexed": true,
          "internalType": "address",
          "name": "validator",
          "type": "address"
        }
      ],
      "name": "ValidatorRemoved",
      "type": "event"
    },
    {
      "inputs": [
        {
          "internalType": "address",
          "name": "validator",
          "type": "address"
        }
      ],
      "name": "addValidator",
      "outputs": [],
      "stateMutability": "nonpayable",
      "type": "function"
    },
    {
      "inputs": [
        {
          "internalType": "uint256",
          "name": "",
          "type": "uint256"
        }
      ],
      "name": "authorizedValidators",
      "outputs": [
        {
          "internalType": "address",
          "name": "",
          "type": "address"
        }
      ],
      "stateMutability": "view",
      "type": "function"
    },
    {
      "inputs": [
        {
          "internalType": "bytes32",
          "name": "validationId",
          "type": "bytes32"
        }
      ],
      "name": "getValidationRecord",
      "outputs": [
        {
          "components": [
            {
              "internalType": "uint256",
              "name": "eventId",
              "type": "uint256"
            },
            {
              "internalType": "address",
              "name": "ticketOwner",
              "type": "address"
            },
            {
              "internalType": "uint256",
              "name": "tokenId",
              "type": "uint256"
            },
            {
              "internalType": "uint256",
              "name": "validationTime",
              "type": "uint256"
            },
            {
              "internalType": "string",
              "name": "locationUri",
              "type": "string"
            },
            {
              "internalType": "string",
              "name": "locationHash",
              "type": "string"
            },
            {
              "internalType": "address",
              "name": "validator",
              "type": "address"
            },
            {
              "internalType": "bool",
              "name": "isValid",
              "type": "bool"
            }
          ],
          "internalType": "struct UniversalTicketValidator.ValidationRecord",
          "name": "",
          "type": "tuple"
        }
      ],
      "stateMutability": "view",
      "type": "function"
    },
    {
      "inputs": [],
      "name": "getValidators",
      "outputs": [
        {
          "internalType": "address[]",
          "name": "",
          "type": "address[]"
        }
      ],
      "stateMutability": "view",
      "type": "function"
    },
    {
      "inputs": [
        {
          "internalType": "uint256",
          "name": "eventId",
          "type": "uint256"
        },
        {
          "internalType": "uint256",
          "name": "tokenId",
          "type": "uint256"
        },
        {
          "internalType": "address",
          "name": "ticketOwner",
          "type": "address"
        }
      ],
      "name": "isTicketValidated",
      "outputs": [
        {
          "internalType": "bool",
          "name": "",
          "type": "bool"
        }
      ],
      "stateMutability": "view",
      "type": "function"
    },
    {
      "inputs": [],
      "name": "owner",
      "outputs": [
        {
          "internalType": "address",
          "name": "",
          "type": "address"
        }
      ],
      "stateMutability": "view",
      "type": "function"
    },
    {
      "inputs": [],
      "name": "platformContract",
      "outputs": [
        {
          "internalType": "address",
          "name": "",
          "type": "address"
        }
      ],
      "stateMutability": "view",
      "type": "function"
    },
    {
      "inputs": [
        {
          "internalType": "address",
          "name": "validator",
          "type": "address"
        }
      ],
      "name": "removeValidator",
      "outputs": [],
      "stateMutability": "nonpayable",
      "type": "function"
    },
    {
      "inputs": [],
      "name": "renounceOwnership",
      "outputs": [],
      "stateMutability": "nonpayable",
      "type": "function"
    },
    {
      "inputs": [
        {
          "internalType": "address",
          "name": "_platform",
          "type": "address"
        }
      ],
      "name": "setPlatformContract",
      "outputs": [],
      "stateMutability": "nonpayable",
      "type": "function"
    },
    {
      "inputs": [
        {
          "internalType": "uint256",
          "name": "",
          "type": "uint256"
        },
        {
          "internalType": "uint256",
          "name": "",
          "type": "uint256"
        }
      ],
      "name": "ticketUsed",
      "outputs": [
        {
          "internalType": "bool",
          "name": "",
          "type": "bool"
        }
      ],
      "stateMutability": "view",
      "type": "function"
    },
    {
      "inputs": [
        {
          "internalType": "address",
          "name": "newOwner",
          "type": "address"
        }
      ],
      "name": "transferOwnership",
      "outputs": [],
      "stateMutability": "nonpayable",
      "type": "function"
    },
    {
      "inputs": [
        {
          "internalType": "address",
          "name": "eventContract",
          "type": "address"
        },
        {
          "internalType": "uint256",
          "name": "tokenId",
          "type": "uint256"
        },
        {
          "internalType": "address",
          "name": "ticketOwner",
          "type": "address"
        },
        {
          "internalType": "string",
          "name": "locationUri",
          "type": "string"
        },
        {
          "internalType": "string",
          "name": "locationHash",
          "type": "string"
        }
      ],
      "name": "validateTicketAtEvent",
      "outputs": [
        {
          "internalType": "bool",
          "name": "",
          "type": "bool"
        }
      ],
      "stateMutability": "nonpayable",
      "type": "function"
    },
    {
      "inputs": [
        {
          "internalType": "uint256",
          "name": "",
          "type": "uint256"
        },
        {
          "internalType": "address",
          "name": "",
          "type": "address"
        }
      ],
      "name": "validatedTickets",
      "outputs": [
        {
          "internalType": "bool",
          "name": "",
          "type": "bool"
        }
      ],
      "stateMutability": "view",
      "type": "function"
    },
    {
      "inputs": [
        {
          "internalType": "bytes32",
          "name": "",
          "type": "bytes32"
        }
      ],
      "name": "validationRecords",
      "outputs": [
        {
          "internalType": "uint256",
          "name": "eventId",
          "type": "uint256"
        },
        {
          "internalType": "address",
          "name": "ticketOwner",
          "type": "address"
        },
        {
          "internalType": "uint256",
          "name": "tokenId",
          "type": "uint256"
        },
        {
          "internalType": "uint256",
          "name": "validationTime",
          "type": "uint256"
        },
        {
          "internalType": "string",
          "name": "locationUri",
          "type": "string"
        },
        {
          "internalType": "string",
          "name": "locationHash",
          "type": "string"
        },
        {
          "internalType": "address",
          "name": "validator",
          "type": "address"
        },
        {
          "internalType": "bool",
          "name": "isValid",
          "type": "bool"
        }
      ],
      "stateMutability": "view",
      "type": "function"
    }
  ],
  "bytecode": "0x608080604052346100f65733156100e057600080546001600160a01b03198082163390811784556040519391926001600160a01b03167f8be0079c531659141344cd1fd0a4f28419497f9722a3daafe3b4186f6b6457e08380a360055490680100000000000000008210156100cc5760018201806005558210156100b857600590527f036b6384b5eca791c62761152d0c79bb0604c104a5fb6f4eb0703f3154bb3db0018054909116331790556112dd90816100fc8239f35b634e487b7160e01b81526032600452602490fd5b634e487b7160e01b81526041600452602490fd5b631e4fbdf760e01b815260006004820152602490fd5b600080fdfe6080604052600436101561001257600080fd5b6000803560e01c806305b5c39614610e745780631627469514610e4b57806340a141ff14610d235780634d238c8e14610cf6578063715018a614610c9c57806371ecca9014610c58578063807fc8c414610c075780638da5cb5b14610be05780639adbae5914610b6c578063a44760f214610ae0578063b7ab4db514610a1a578063db0619d4146102cb578063f2fde38b14610240578063fa99005d146100fd5763fc26f027146100c257600080fd5b346100fa5760403660031901126100fa5760ff6040602092600435815260038452818120602435825284522054166040519015158152f35b80fd5b50346100fa57602090816003193601126100fa578060409160e0835161012281610f60565b8281528286820152828582015282606082015260606080820152606060a08201528260c08201520152600435815260048352206040519061016282610f60565b8054825260018060a01b039081600182015416918484019283526002820154906040850191825261022d6003840154606087019081526101a460048601610fc9565b906080880191825260066101ba60058801610fc9565b9660a08a019788520154948460c08a01988188168a5260ff60e08c019860a01c16151588526040519b8c9b818d5251908c0152511660408a0152516060890152516080880152519361021a610100958660a08a015261012089019061106e565b9051878203601f190160c089015261106e565b93511660e0850152511515908301520390f35b50346100fa5760203660031901126100fa5761025a6110ae565b61026261127b565b6001600160a01b039081169081156102b257600054826001600160601b0360a01b821617600055167f8be0079c531659141344cd1fd0a4f28419497f9722a3daafe3b4186f6b6457e0600080a380f35b604051631e4fbdf760e01b815260048101849052602490fd5b50346100fa5760a03660031901126100fa576102e56110ae565b6102ed6110c9565b60643567ffffffffffffffff81116107145761030d90369060040161112c565b60843567ffffffffffffffff8111610a165761032d90369060040161112c565b928485600554905b8181106109e1575b505015610982576001600160a01b03831615610946576040516001600160601b0319808360601b16602083015260243560348301528460601b166054820152426068820152606881528060a081011067ffffffffffffffff60a0830111176109325760a08101604052805160208201206103b960a08301610f60565b6001600160a01b0383811660a0840190815286821660c0850190815260243560e08601908152426101008701908152610120870189815261014088018c90523361016089015260016101808901819052968d52600460205260408d2094518555925195840180546001600160a01b031916969095169590951790935591516002820155915160038301555180519067ffffffffffffffff82116108545781906104656004850154610f26565b601f81116108e2575b50602090601f8311600114610873578a92610868575b50508160011b916000199060031b1c19161760048201555b61014082015180519067ffffffffffffffff8211610854576104c16005840154610f26565b601f8111610810575b50602090601f83116001146107a05760069392918a9183610795575b50508160011b916000199060031b1c19161760058201555b61016083015191018054610180909301516001600160a81b03199093166001600160a01b039283161792151560a01b60ff60a01b1692909217909155818116808752600260209081526040808920938716808a52938252808920805460ff199081166001908117909255848b5260038452828b20602435808d52908552838c20805490921690921790558151908152918201819052339392917f6ddee919232bf8b74e3a12e3314551aa8a7f7d479d92a001f8121956048cff289181906105c79082018961106e565b0390a46001546001600160a01b031690816105e8575b602060405160018152f35b60046020879360405192838092630e64f35d60e01b82525afa90811561078a57839161076b575b506001600160a01b0316803b15610767576040516347727f6760e01b81526001600160a01b0390921660048301529091908290602490829084905af1610752575b5060015460405163a2105dbb60e01b815285939291602090829060049082906001600160a01b03165afa908115610747578491610718575b506001600160a01b031690813b1561071457836106dc936106ee60405197889687958694634dfa6ee560e11b8652602435600487015260018060a01b0316602486015260806044860152608485019061106e565b8381036003190160648501529061106e565b03925af1610700575b808080806105dd565b61070a8291610f93565b6100fa57806106f7565b8380fd5b61073a915060203d602011610740575b6107328183610fa7565b81019061125c565b38610688565b503d610728565b6040513d86823e3d90fd5b61075f9094919294610f93565b929038610650565b8280fd5b610784915060203d602011610740576107328183610fa7565b3861060f565b6040513d85823e3d90fd5b0151905038806104e6565b90600584018a5260208a20918a5b601f19851681106107f8575091839160019360069695601f198116106107df575b505050811b0160058201556104fe565b015160001960f88460031b161c191690553880806107cf565b919260206001819286850151815501940192016107ae565b600584018a5260208a20601f840160051c81016020851061084d575b601f830160051c820181106108425750506104ca565b8b815560010161082c565b508061082c565b634e487b7160e01b89526041600452602489fd5b015190503880610484565b9250600484018a5260208a20908a935b601f19841685106108c7576001945083601f198116106108ae575b505050811b01600482015561049c565b015160001960f88460031b161c1916905538808061089e565b81810151835560209485019460019093019290910190610883565b909150600484018a5260208a20601f840160051c81016020851061092b575b90849392915b601f830160051c8201811061091d57505061046e565b8c8155859450600101610907565b5080610901565b634e487b7160e01b86526041600452602486fd5b60405162461bcd60e51b815260206004820152601460248201527324b73b30b634b2103a34b1b5b2ba1037bbb732b960611b6044820152606490fd5b60405162461bcd60e51b815260206004820152603160248201527f4f6e6c7920617574686f72697a65642076616c696461746f72732063616e206360448201527030b636103a3434b990333ab731ba34b7b760791b6064820152608490fd5b6109ea816110df565b905460039190911b1c6001600160a01b03163314610a0a57600101610335565b5050506001388061033d565b8480fd5b50346100fa57806003193601126100fa5760405180916005549081835260208093018092600583527f036b6384b5eca791c62761152d0c79bb0604c104a5fb6f4eb0703f3154bb3db090835b818110610ac35750505084610a7c910385610fa7565b60405193838594850191818652518092526040850193925b828110610aa357505050500390f35b83516001600160a01b031685528695509381019392810192600101610a94565b82546001600160a01b031684529286019260019283019201610a66565b50346100fa5760203660031901126100fa57610afa6110ae565b610b0261127b565b6001600160a01b03168015610b27576001600160601b0360a01b600154161760015580f35b60405162461bcd60e51b815260206004820152601860248201527f496e76616c696420706c6174666f726d206164647265737300000000000000006044820152606490fd5b50346100fa5760603660031901126100fa5760209060ff604060043592610b916110c9565b848252600286528282206001600160a01b03909116825285528181205493815260038552818120602435825285522054918116911681610bd7575b506040519015158152f35b90501538610bcc565b50346100fa57806003193601126100fa57546040516001600160a01b039091168152602090f35b50346100fa5760403660031901126100fa576024356001600160a01b03811690819003610c5457604060209260ff9260043582526002855282822090825284522054166040519015158152f35b5080fd5b50346100fa5760203660031901126100fa57600435906005548210156100fa576020610c83836110df565b905460405160039290921b1c6001600160a01b03168152f35b50346100fa57806003193601126100fa57610cb561127b565b80546001600160a01b03198116825581906001600160a01b03167f8be0079c531659141344cd1fd0a4f28419497f9722a3daafe3b4186f6b6457e08280a380f35b50346100fa5760203660031901126100fa57610d20610d136110ae565b610d1b61127b565b611183565b80f35b50346100fa5760203660031901126100fa57610d3d6110ae565b610d4561127b565b6001600160a01b03908116825b600580549081831015610e4357849184610d6b856110df565b949054600395861b1c1614610d8557505050600101610d52565b93949193909260001991828101908111610e2f5790610db784610daa610dd5946110df565b905490891b1c16916110df565b90919060018060a01b038084549260031b9316831b921b1916179055565b82548015610e1b570192610de8846110df565b81939154921b1b19169055557fe1434e25d6611e0db941968fdc97811c982ac1602e951637d206f5fdda9dd8f18280a280f35b634e487b7160e01b87526031600452602487fd5b634e487b7160e01b88526011600452602488fd5b505050505080f35b50346100fa57806003193601126100fa576001546040516001600160a01b039091168152602090f35b50346100fa5760203660031901126100fa576040906004358152600460205220805460018060a01b0360ff8160018501541692610f0f600286015495610f01600382015493610ec560048401610fc9565b906006610ed460058601610fc9565b940154956040519a8b9a610100938c5260208c015260408b015260608a01528060808a015288019061106e565b9086820360a088015261106e565b92811660c085015260a01c16151560e08301520390f35b90600182811c92168015610f56575b6020831014610f4057565b634e487b7160e01b600052602260045260246000fd5b91607f1691610f35565b610100810190811067ffffffffffffffff821117610f7d57604052565b634e487b7160e01b600052604160045260246000fd5b67ffffffffffffffff8111610f7d57604052565b90601f8019910116810190811067ffffffffffffffff821117610f7d57604052565b90604051918260008254610fdc81610f26565b9081845260209460019160018116908160001461104c575060011461100d575b50505061100b92500383610fa7565b565b600090815285812095935091905b81831061103457505061100b9350820101388080610ffc565b8554888401850152948501948794509183019161101b565b9250505061100b94925060ff191682840152151560051b820101388080610ffc565b919082519283825260005b84811061109a575050826000602080949584010152601f8019910116010190565b602081830181015184830182015201611079565b600435906001600160a01b03821682036110c457565b600080fd5b604435906001600160a01b03821682036110c457565b6005548110156111165760056000527f036b6384b5eca791c62761152d0c79bb0604c104a5fb6f4eb0703f3154bb3db00190600090565b634e487b7160e01b600052603260045260246000fd5b81601f820112156110c45780359067ffffffffffffffff8211610f7d5760405192611161601f8401601f191660200185610fa7565b828452602083830101116110c457816000926020809301838601378301015290565b6001600160a01b03818116918215611217576005549160005b8381106111f057505068010000000000000000821015610f7d57610db78260016111c994016005556110df565b7fe366c1c0452ed8eec96861e9e54141ebff23c9ec89fe27b996b45f5ec3884987600080a2565b84826111fb836110df565b90549060031b1c16146112105760010161119c565b5050505050565b60405162461bcd60e51b815260206004820152601960248201527f496e76616c69642076616c696461746f722061646472657373000000000000006044820152606490fd5b908160209103126110c457516001600160a01b03811681036110c45790565b6000546001600160a01b0316330361128f57565b60405163118cdaa760e01b8152336004820152602490fdfea264697066735822122078cd6bebc82b3d2f18768c1f028d440cdccde30dc8d4d26d9001d8b547931b1064736f6c63430008160033",
  "linkReferences": {},
  "deployedLinkReferences": {}
}