{
  "_format": "hh-sol-artifact-1",
  "contractName": "UserProfile",
  "sourceName": "contracts/BIG/UserProfile.sol",
  "abi": [
    {
      "inputs": [],
      "stateMutability": "nonpayable",
      "type": "constructor"
    },
    {
      "inputs": [
        {
          "internalType": "address",
          "name": "owner",
          "type": "address"
        }
      ],
      "name": "OwnableInvalidOwner",
      "type": "error"
    },
    {
      "inputs": [
        {
          "internalType": "address",
          "name": "account",
          "type": "address"
        }
      ],
      "name": "OwnableUnauthorizedAccount",
      "type": "error"
    },
    {
      "anonymous": false,
      "inputs": [
        {
          "indexed": true,
          "internalType": "address",
          "name": "universalAccount",
          "type": "address"
        },
        {
          "indexed": true,
          "internalType": "address",
          "name": "linkedAccount",
          "type": "address"
        }
      ],
      "name": "AccountLinked",
      "type": "event"
    },
    {
      "anonymous": false,
      "inputs": [
        {
          "indexed": true,
          "internalType": "address",
          "name": "universalAccount",
          "type": "address"
        },
        {
          "indexed": true,
          "internalType": "address",
          "name": "linkedAccount",
          "type": "address"
        }
      ],
      "name": "AccountUnlinked",
      "type": "event"
    },
    {
      "anonymous": false,
      "inputs": [
        {
          "indexed": true,
          "internalType": "address",
          "name": "previousOwner",
          "type": "address"
        },
        {
          "indexed": true,
          "internalType": "address",
          "name": "newOwner",
          "type": "address"
        }
      ],
      "name": "OwnershipTransferred",
      "type": "event"
    },
    {
      "anonymous": false,
      "inputs": [
        {
          "indexed": true,
          "internalType": "address",
          "name": "user",
          "type": "address"
        },
        {
          "indexed": false,
          "internalType": "string",
          "name": "profileUri",
          "type": "string"
        }
      ],
      "name": "ProfileCreated",
      "type": "event"
    },
    {
      "anonymous": false,
      "inputs": [
        {
          "indexed": true,
          "internalType": "address",
          "name": "user",
          "type": "address"
        },
        {
          "indexed": false,
          "internalType": "string",
          "name": "field",
          "type": "string"
        }
      ],
      "name": "ProfileUpdated",
      "type": "event"
    },
    {
      "inputs": [
        {
          "internalType": "address",
          "name": "user",
          "type": "address"
        },
        {
          "internalType": "uint256",
          "name": "eventId",
          "type": "uint256"
        }
      ],
      "name": "addEventAttended",
      "outputs": [],
      "stateMutability": "nonpayable",
      "type": "function"
    },
    {
      "inputs": [
        {
          "internalType": "address",
          "name": "user",
          "type": "address"
        },
        {
          "internalType": "uint256",
          "name": "ticketId",
          "type": "uint256"
        },
        {
          "internalType": "uint256",
          "name": "eventId",
          "type": "uint256"
        }
      ],
      "name": "addTicket",
      "outputs": [],
      "stateMutability": "nonpayable",
      "type": "function"
    },
    {
      "inputs": [
        {
          "internalType": "address",
          "name": "account",
          "type": "address"
        }
      ],
      "name": "addUniversalAccount",
      "outputs": [],
      "stateMutability": "nonpayable",
      "type": "function"
    },
    {
      "inputs": [
        {
          "internalType": "string",
          "name": "_profileUri",
          "type": "string"
        },
        {
          "internalType": "string",
          "name": "_contentHash",
          "type": "string"
        }
      ],
      "name": "createOrUpdateProfile",
      "outputs": [],
      "stateMutability": "nonpayable",
      "type": "function"
    },
    {
      "inputs": [
        {
          "internalType": "address",
          "name": "user",
          "type": "address"
        },
        {
          "internalType": "string",
          "name": "_profileUri",
          "type": "string"
        },
        {
          "internalType": "string",
          "name": "_contentHash",
          "type": "string"
        }
      ],
      "name": "createProfile",
      "outputs": [],
      "stateMutability": "nonpayable",
      "type": "function"
    },
    {
      "inputs": [
        {
          "internalType": "address",
          "name": "universalAccount",
          "type": "address"
        }
      ],
      "name": "getLinkedAccounts",
      "outputs": [
        {
          "internalType": "address[]",
          "name": "",
          "type": "address[]"
        }
      ],
      "stateMutability": "view",
      "type": "function"
    },
    {
      "inputs": [
        {
          "internalType": "address",
          "name": "user",
          "type": "address"
        }
      ],
      "name": "getProfile",
      "outputs": [
        {
          "internalType": "string",
          "name": "profileUri",
          "type": "string"
        },
        {
          "internalType": "string",
          "name": "contentHash",
          "type": "string"
        },
        {
          "internalType": "uint256",
          "name": "joinDate",
          "type": "uint256"
        },
        {
          "internalType": "uint256",
          "name": "totalTickets",
          "type": "uint256"
        },
        {
          "internalType": "uint256",
          "name": "totalEventsAttended",
          "type": "uint256"
        },
        {
          "internalType": "uint256",
          "name": "averageRating",
          "type": "uint256"
        }
      ],
      "stateMutability": "view",
      "type": "function"
    },
    {
      "inputs": [
        {
          "internalType": "address",
          "name": "user",
          "type": "address"
        }
      ],
      "name": "getUserActivity",
      "outputs": [
        {
          "internalType": "uint256[]",
          "name": "ticketIds",
          "type": "uint256[]"
        },
        {
          "internalType": "uint256[]",
          "name": "eventIds",
          "type": "uint256[]"
        }
      ],
      "stateMutability": "view",
      "type": "function"
    },
    {
      "inputs": [],
      "name": "getUserCount",
      "outputs": [
        {
          "internalType": "uint256",
          "name": "",
          "type": "uint256"
        }
      ],
      "stateMutability": "view",
      "type": "function"
    },
    {
      "inputs": [
        {
          "internalType": "address",
          "name": "user",
          "type": "address"
        }
      ],
      "name": "getUserRating",
      "outputs": [
        {
          "internalType": "uint256",
          "name": "",
          "type": "uint256"
        }
      ],
      "stateMutability": "view",
      "type": "function"
    },
    {
      "inputs": [
        {
          "internalType": "address",
          "name": "user",
          "type": "address"
        },
        {
          "internalType": "uint256",
          "name": "eventId",
          "type": "uint256"
        }
      ],
      "name": "hasReviewedEvent",
      "outputs": [
        {
          "internalType": "bool",
          "name": "",
          "type": "bool"
        }
      ],
      "stateMutability": "view",
      "type": "function"
    },
    {
      "inputs": [
        {
          "internalType": "address",
          "name": "",
          "type": "address"
        }
      ],
      "name": "isUniversalAccount",
      "outputs": [
        {
          "internalType": "bool",
          "name": "",
          "type": "bool"
        }
      ],
      "stateMutability": "view",
      "type": "function"
    },
    {
      "inputs": [
        {
          "internalType": "address",
          "name": "otherChainAccount",
          "type": "address"
        }
      ],
      "name": "linkAccount",
      "outputs": [],
      "stateMutability": "nonpayable",
      "type": "function"
    },
    {
      "inputs": [
        {
          "internalType": "address",
          "name": "",
          "type": "address"
        },
        {
          "internalType": "uint256",
          "name": "",
          "type": "uint256"
        }
      ],
      "name": "linkedAccounts",
      "outputs": [
        {
          "internalType": "address",
          "name": "",
          "type": "address"
        }
      ],
      "stateMutability": "view",
      "type": "function"
    },
    {
      "inputs": [
        {
          "internalType": "address",
          "name": "user",
          "type": "address"
        },
        {
          "internalType": "uint256",
          "name": "eventId",
          "type": "uint256"
        }
      ],
      "name": "markEventReviewed",
      "outputs": [],
      "stateMutability": "nonpayable",
      "type": "function"
    },
    {
      "inputs": [],
      "name": "owner",
      "outputs": [
        {
          "internalType": "address",
          "name": "",
          "type": "address"
        }
      ],
      "stateMutability": "view",
      "type": "function"
    },
    {
      "inputs": [],
      "name": "platformContract",
      "outputs": [
        {
          "internalType": "address",
          "name": "",
          "type": "address"
        }
      ],
      "stateMutability": "view",
      "type": "function"
    },
    {
      "inputs": [
        {
          "internalType": "address",
          "name": "user",
          "type": "address"
        }
      ],
      "name": "profileExists",
      "outputs": [
        {
          "internalType": "bool",
          "name": "",
          "type": "bool"
        }
      ],
      "stateMutability": "view",
      "type": "function"
    },
    {
      "inputs": [
        {
          "internalType": "address",
          "name": "",
          "type": "address"
        }
      ],
      "name": "profiles",
      "outputs": [
        {
          "internalType": "string",
          "name": "profileUri",
          "type": "string"
        },
        {
          "internalType": "string",
          "name": "contentHash",
          "type": "string"
        },
        {
          "internalType": "uint256",
          "name": "joinDate",
          "type": "uint256"
        },
        {
          "internalType": "uint256",
          "name": "totalTickets",
          "type": "uint256"
        },
        {
          "internalType": "uint256",
          "name": "totalEventsAttended",
          "type": "uint256"
        },
        {
          "internalType": "uint256",
          "name": "ratingSum",
          "type": "uint256"
        },
        {
          "internalType": "uint256",
          "name": "ratingCount",
          "type": "uint256"
        },
        {
          "internalType": "bool",
          "name": "exists",
          "type": "bool"
        }
      ],
      "stateMutability": "view",
      "type": "function"
    },
    {
      "inputs": [
        {
          "internalType": "uint256",
          "name": "eventId",
          "type": "uint256"
        }
      ],
      "name": "recordEventAttendance",
      "outputs": [],
      "stateMutability": "nonpayable",
      "type": "function"
    },
    {
      "inputs": [
        {
          "internalType": "uint256",
          "name": "ticketId",
          "type": "uint256"
        }
      ],
      "name": "recordTicketPurchase",
      "outputs": [],
      "stateMutability": "nonpayable",
      "type": "function"
    },
    {
      "inputs": [
        {
          "internalType": "string",
          "name": "_profileUri",
          "type": "string"
        },
        {
          "internalType": "string",
          "name": "_contentHash",
          "type": "string"
        }
      ],
      "name": "registerProfile",
      "outputs": [],
      "stateMutability": "nonpayable",
      "type": "function"
    },
    {
      "inputs": [
        {
          "internalType": "address",
          "name": "account",
          "type": "address"
        }
      ],
      "name": "removeUniversalAccount",
      "outputs": [],
      "stateMutability": "nonpayable",
      "type": "function"
    },
    {
      "inputs": [],
      "name": "renounceOwnership",
      "outputs": [],
      "stateMutability": "nonpayable",
      "type": "function"
    },
    {
      "inputs": [
        {
          "internalType": "uint256",
          "name": "eventId",
          "type": "uint256"
        },
        {
          "internalType": "uint256",
          "name": "rating",
          "type": "uint256"
        }
      ],
      "name": "setEventRating",
      "outputs": [],
      "stateMutability": "nonpayable",
      "type": "function"
    },
    {
      "inputs": [
        {
          "internalType": "address",
          "name": "_platform",
          "type": "address"
        }
      ],
      "name": "setPlatformContract",
      "outputs": [],
      "stateMutability": "nonpayable",
      "type": "function"
    },
    {
      "inputs": [
        {
          "internalType": "address",
          "name": "newOwner",
          "type": "address"
        }
      ],
      "name": "transferOwnership",
      "outputs": [],
      "stateMutability": "nonpayable",
      "type": "function"
    },
    {
      "inputs": [
        {
          "internalType": "address",
          "name": "otherChainAccount",
          "type": "address"
        }
      ],
      "name": "unlinkAccount",
      "outputs": [],
      "stateMutability": "nonpayable",
      "type": "function"
    },
    {
      "inputs": [
        {
          "internalType": "string",
          "name": "_profileUri",
          "type": "string"
        },
        {
          "internalType": "string",
          "name": "_contentHash",
          "type": "string"
        }
      ],
      "name": "updateProfileUri",
      "outputs": [],
      "stateMutability": "nonpayable",
      "type": "function"
    },
    {
      "inputs": [
        {
          "internalType": "address",
          "name": "user",
          "type": "address"
        },
        {
          "internalType": "uint256",
          "name": "rating",
          "type": "uint256"
        }
      ],
      "name": "updateRating",
      "outputs": [],
      "stateMutability": "nonpayable",
      "type": "function"
    },
    {
      "inputs": [
        {
          "internalType": "uint256",
          "name": "",
          "type": "uint256"
        }
      ],
      "name": "userList",
      "outputs": [
        {
          "internalType": "address",
          "name": "",
          "type": "address"
        }
      ],
      "stateMutability": "view",
      "type": "function"
    }
  ],
  "bytecode": "0x6080806040523461009157331561007b5760008054336001600160a01b0319821681178355604080519390929091906001600160a01b03167f8be0079c531659141344cd1fd0a4f28419497f9722a3daafe3b4186f6b6457e08380a3338152600560205220805460ff1916600117905561262490816100978239f35b631e4fbdf760e01b815260006004820152602490fd5b600080fdfe6080604052600436101561001257600080fd5b60003560e01c8063039d327d14611bca57806305cfa06f14611b8857806306c5958f14611b2f57806309492aa61461198c5780630f53a4701461188457806310bfaf5a1461182057806316274695146117f757806319dfac07146116935780631b4886a3146116855780631d64c99d146115d2578063278d432014610ffc578063345698f014610ef4578063460168c314610ec95780634e63f9b114610d6057806360dd681214610c695780636a0b109d146109b0578063715018a6146109575780637ddac903146107865780637ffe1bdc146106345780638da5cb5b1461060b578063954ebb3c1461057d5780639f4216e814610522578063a44760f214610490578063b5cb15f714610472578063bbe15627146103bc578063caed31ab1461036c578063d01091a41461031c578063e0f3aa11146102ac578063e6521b7d14610243578063f2fde38b146101b55763feb3409d1461017157600080fd5b346101b05760203660031901126101b0576001600160a01b03610192611beb565b166000526005602052602060ff604060002054166040519015158152f35b600080fd5b346101b05760203660031901126101b0576101ce611beb565b6101d66125c2565b6001600160a01b0390811690811561022a57600054826bffffffffffffffffffffffff60a01b821617600055167f8be0079c531659141344cd1fd0a4f28419497f9722a3daafe3b4186f6b6457e0600080a3005b604051631e4fbdf760e01b815260006004820152602490fd5b346101b05760203660031901126101b05733600052600260205261027160ff6007604060002001541661212a565b336000526002602052600460406000200161028c81546120fb565b90553360005260036020526102aa60043560016040600020016120c6565b005b346101b05760203660031901126101b0576001600160a01b036102cd611beb565b16600052600360205261030a60406000206103186102f660016102ef84612214565b9301612214565b604051938493604085526040850190611e47565b908382036020850152611e47565b0390f35b346101b05760203660031901126101b057610335611beb565b61033d6125c2565b6001600160a01b0316610351811515611e7b565b6000908152600560205260409020805460ff19166001179055005b346101b05760403660031901126101b0576001600160a01b0361038d611beb565b1660005260036020526002604060002001602435600052602052602060ff604060002054166040519015158152f35b346101b05760203660031901126101b0576001600160a01b036103dd611beb565b16600052600260205261043f60406000206103f781611da2565b9061040460018201611da2565b6002820154916003810154600482015460058301549161044d60ff600760068701549601541695604051998a99610100808c528b0190611c2f565b9089820360208b0152611c2f565b9560408801526060870152608086015260a085015260c0840152151560e08301520390f35b346101b05760003660031901126101b0576020600454604051908152f35b346101b05760203660031901126101b0576104a9611beb565b6104b16125c2565b6001600160a01b031680156104dd576bffffffffffffffffffffffff60a01b6001541617600155600080f35b60405162461bcd60e51b815260206004820152601860248201527f496e76616c696420706c6174666f726d206164647265737300000000000000006044820152606490fd5b346101b05760203660031901126101b0576004356004548110156101b05760046000527f8a35acfbc15ff81a39ae7d344fd709f28e8600b4aa8c65c6b64bfe7fe36bd19b01546040516001600160a01b039091168152602090f35b346101b05760203660031901126101b057610596611beb565b61059e6125c2565b6001600160a01b03163381146105c6576000908152600560205260409020805460ff19169055005b60405162461bcd60e51b815260206004820152601b60248201527f43616e6e6f742072656d6f7665206f776e6572206163636f756e7400000000006044820152606490fd5b346101b05760003660031901126101b0576000546040516001600160a01b039091168152602090f35b346101b05760403660031901126101b05761064d611beb565b6001546001600160a01b039081163381148015610779575b80156106f3575b6106769150612089565b81169081600052600260205260ff60076040600020015416156106c3575b50600052600360205260026040600020016024356000526020526040600020600160ff19825416179055600080f35b6106ed906040516106d381611c8c565b60008152604051916106e483611c8c565b60008352612265565b81610694565b5080151580610707575b610676915061066c565b506020602491604051928380926366d0ead360e01b82523360048301525afa801561076d576106769160009161073e575b506106fd565b610760915060203d602011610766575b6107588183611ca8565b810190612071565b84610738565b503d61074e565b6040513d6000823e3d90fd5b5081600054163314610665565b346101b0576020806003193601126101b0576107a0611beb565b90336000526005815260ff60406000205416156108f9576001600160a01b0391821691906107cf831515611e7b565b60005b3360005260069081835260406000209182548210156102aa57856107f7838795611c01565b969054600397881b1c161461081257509092506001016107d2565b909233600052818152604060002093845490600019958683019283116108e3578561084361087a9461085c93611c01565b9054908a1b1c1691336000528585526040600020611c01565b90919060018060a01b038084549260031b9316831b921b1916179055565b3360005252604060002091825480156108cd5701926108998484611c01565b81939154921b1b1916905555337f648aaf779455c60180d5794bcc292d4503300b9e0ee7183ce3eac83d334ac6c3600080a3005b634e487b7160e01b600052603160045260246000fd5b634e487b7160e01b600052601160045260246000fd5b6084906040519062461bcd60e51b82526004820152603160248201527f4f6e6c7920756e6976657273616c206163636f756e74732063616e20756e6c696044820152706e6b206f74686572206163636f756e747360781b6064820152fd5b346101b05760003660031901126101b0576109706125c2565b600080546001600160a01b0319811682556001600160a01b03167f8be0079c531659141344cd1fd0a4f28419497f9722a3daafe3b4186f6b6457e08280a3005b346101b0576109be36611d21565b33600052602091600283526109dd60ff6007604060002001541661212a565b3360005260028352604060002081519067ffffffffffffffff91828111610b945780610a098354611d68565b94601f95868111610c1a575b508790868311600114610bb557600092610baa575b50508160011b916000199060031b1c19161790555b336000526002845260019182604060002001938051928311610b9457610a658554611d68565b828111610b4e575b5085918311600114610aeb57928293918392600094610ae0575b50501b916000199060031b1c19161790555b600a604051918083528201526970726f66696c6555726960b01b60408201527fdd635a4cd84864e37e4479dbfc2ec667acfa473c83c8422a8ac9d9d07599b01c60603392a2005b015192508680610a87565b90601f198316918560005283876000209360005b8988838310610b375750505010610b1e575b505050811b019055610a99565b015160001960f88460031b161c19169055848080610b11565b868601518855909601959485019487935001610aff565b85600052866000208380860160051c820192898710610b8b575b0160051c019085905b828110610b7f575050610a6d565b60008155018590610b71565b92508192610b68565b634e487b7160e01b600052604160045260246000fd5b015190508780610a2a565b60008581528981209350601f198516905b8a828210610c04575050908460019594939210610beb575b505050811b019055610a3f565b015160001960f88460031b161c19169055878080610bde565b6001859682939686015181550195019301610bc6565b90915083600052876000208680850160051c8201928a8610610c60575b9085949392910160051c01905b818110610c515750610a15565b60008155849350600101610c44565b92508192610c37565b346101b05760603660031901126101b057610c82611beb565b67ffffffffffffffff6024358181116101b057610ca3903690600401611cca565b906044359081116101b057610cbc903690600401611cca565b9060018060a01b039283811680600052600260205260ff60076040600020015416610d22576102aa94610d00913314908115610d13575b8115610d05575b50612089565b612265565b905060005416331486610cfa565b80915060015416331490610cf3565b60405162461bcd60e51b815260206004820152601660248201527550726f66696c6520616c72656164792065786973747360501b6044820152606490fd5b346101b05760403660031901126101b057610d79611beb565b600154602435916001600160a01b039182163381148015610ebc575b8015610e52575b610da69150612089565b1690816000526002602052610dc560ff6007604060002001541661212a565b600181101580610e47575b15610e1157816000526002602052610df1600560406000200191825461216f565b905560005260026020526006604060002001610e0d81546120fb565b9055005b60405162461bcd60e51b815260206004820152600e60248201526d496e76616c696420726174696e6760901b6044820152606490fd5b506005811115610dd0565b5080151580610e66575b610da69150610d9c565b506020602491604051928380926366d0ead360e01b82523360048301525afa801561076d57610da691600091610e9d575b50610e5c565b610eb6915060203d602011610766576107588183611ca8565b85610e97565b5082600054163314610d95565b346101b05760203660031901126101b0576020610eec610ee7611beb565b61217c565b604051908152f35b346101b05760403660031901126101b057610f0d611beb565b6001546001600160a01b039081163381148015610fef575b8015610f85575b610f369150612089565b81169081600052600260205260ff6007604060002001541615610f6f575b5060005260026020526004604060002001610e0d81546120fb565b610f7f906040516106d381611c8c565b81610f54565b5080151580610f99575b610f369150610f2c565b506020602491604051928380926366d0ead360e01b82523360048301525afa801561076d57610f3691600091610fd0575b50610f8f565b610fe9915060203d602011610766576107588183611ca8565b84610fca565b5081600054163314610f25565b346101b05761100a36611d21565b90336000526002602052604060002060ff600782015416156000146113615750906040519061103882611c6f565b82825260208201524260408201526000606082015260006080820152600060a0820152600060c0820152600160e0820152336000526002602052604060002091815192835167ffffffffffffffff8111610b94576110968254611d68565b601f811161131d575b506020601f82116001146112b45781929394956000926112a9575b50508160011b916000199060031b1c19161781555b602083015192835167ffffffffffffffff8111610b94576110f36001840154611d68565b601f8111611262575b506020601f82116001146111ea57918160e09260079461118097986000926111df575b50508160011b916000199060031b1c19161760018501555b60408101516002850155606081015160038501556080810151600485015560a0810151600585015560c081015160068501550151151591019060ff801983541691151516179055565b61118933611ec7565b3360005260056020526040600020600160ff198254161790557fbafddecbd1dec1c1afb76d693f1de16901f521bdf29a02438e3e6806c0b8d94860405160208152806111da33946020830190611c2f565b0390a2005b01519050888061111f565b6001840160005260206000209560005b601f198416811061124a57508261118096976007959360019360e096601f19811610611231575b505050811b016001850155611137565b015160001960f88460031b161c19169055888080611221565b828201518855600190970196602092830192016111fa565b600184016000526020600020601f830160051c8101602084106112a2575b601f830160051c820181106112965750506110fc565b60008155600101611280565b5080611280565b0151905085806110ba565b8260005260206000209060005b601f1984168110611305575060019394959683601f198116106112ec575b505050811b0181556110cf565b015160001960f88460031b161c191690558580806112df565b9091602060018192858b0151815501930191016112c1565b826000526020600020601f830160051c81016020841061135a575b601f830160051c8201811061134e57505061109f565b60008155600101611338565b5080611338565b81519067ffffffffffffffff91828111610b9457806113808354611d68565b94601f95868111611581575b5060209086831160011461151b57600092611510575b50508160011b916000199060031b1c19161790555b33600052600260205260019182604060002001938051928311610b94576113de8554611d68565b8281116114c8575b50602091831160011461146457928293918392600094611459575b50501b916000199060031b1c19161790555b60405160208152600760208201526670726f66696c6560c81b60408201527fdd635a4cd84864e37e4479dbfc2ec667acfa473c83c8422a8ac9d9d07599b01c60603392a2005b015192508580611401565b90601f19831691856000528360206000209360005b878282106114af57505010611496575b505050811b019055611413565b015160001960f88460031b161c19169055838080611489565b8486015187559095019460209485019487935001611479565b8560005260206000208380860160051c82019260208710611507575b0160051c019085905b8281106114fb5750506113e6565b600081550185906114ed565b925081926114e4565b0151905086806113a2565b6000858152602081209350601f198516905b8181106115695750908460019594939210611550575b505050811b0190556113b7565b015160001960f88460031b161c19169055868080611543565b9293602060018192878601518155019501930161152d565b9091508360005260206000208680850160051c820192602086106115c9575b9085949392910160051c01905b8181106115ba575061138c565b600081558493506001016115ad565b925081926115a0565b346101b0576020806003193601126101b0576001600160a01b0390816115f6611beb565b1660005260068152604060002060405191828183549182815201908193600052826000209060005b81811061166f5750505083611634910384611ca8565b60405192818401908285525180915260408401929160005b8281106116595785850386f35b835187168552938101939281019260010161164c565b825488168452928401926001928301920161161e565b346101b0576102aa36611d21565b346101b05760403660031901126101b05760043560243533600052602090600282526116c960ff6007604060002001541661212a565b6001811015806117ec575b156117a7573360005260038252600260406000200183600052825260ff60406000205416611762573360005260028252611717600560406000200191825461216f565b905533600052600281526006604060002001805490600182018092116108e357553360005260038152600260406000200191600052526040600020600160ff19825416179055600080f35b60405162461bcd60e51b815260048101839052601b60248201527f416c72656164792072657669657765642074686973206576656e7400000000006044820152606490fd5b60405162461bcd60e51b815260048101839052601e60248201527f526174696e67206d757374206265206265747765656e203120616e64203500006044820152606490fd5b5060058111156116d4565b346101b05760003660031901126101b0576001546040516001600160a01b039091168152602090f35b346101b05760203660031901126101b05733600052600260205261184e60ff6007604060002001541661212a565b336000526002602052600360406000200161186981546120fb565b90553360005260036020526102aa60043560406000206120c6565b346101b05760203660031901126101b0576001600160a01b036118a5611beb565b1660005260026020526119586040600020604051906118c382611c6f565b6118cc81611da2565b82526118da60018201611da2565b80602084015260028201549182604085015260038101548060608601526004820154918260808701526005810154958660a082015260ff60076006840154938460c0850152015416151560e0820152519581151560001461197f57611966916119429161210a565b935b60405197889760c0895260c0890190611c2f565b908782036020890152611c2f565b9360408601526060850152608084015260a08301520390f35b5050611966600093611944565b346101b05760603660031901126101b0576119a5611beb565b6001805460443591906001600160a01b039081163381148015611b22575b8015611ab8575b6119d49150612089565b83169283600052600260205260ff6007604060002001541615611aa2575b50826000526003906003602052611a0f60243560406000206120c6565b60008481526003602052604081206001018054919390845b838110611a75575b505050505015611a55575b5060005260026020526003604060002001610e0d81546120fb565b611a6f9082600052600360205260016040600020016120c6565b81611a3a565b86611a808284611c01565b905490851b1c14611a92578401611a27565b5050505090508380808080611a2f565b611ab2906040516106d381611c8c565b836119f2565b5080151580611acc575b6119d491506119ca565b506020602491604051928380926366d0ead360e01b82523360048301525afa801561076d576119d491600091611b03575b50611ac2565b611b1c915060203d602011610766576107588183611ca8565b86611afd565b50816000541633146119c3565b346101b05760403660031901126101b057611b48611beb565b6024359060018060a01b038091166000526006602052604060002080548310156101b057602092611b7891611c01565b9190546040519260031b1c168152f35b346101b05760203660031901126101b0576001600160a01b03611ba9611beb565b166000526002602052602060ff600760406000200154166040519015158152f35b346101b05760203660031901126101b0576102aa611be6611beb565b611f2b565b600435906001600160a01b03821682036101b057565b8054821015611c195760005260206000200190600090565b634e487b7160e01b600052603260045260246000fd5b919082519283825260005b848110611c5b575050826000602080949584010152601f8019910116010190565b602081830181015184830182015201611c3a565b610100810190811067ffffffffffffffff821117610b9457604052565b6020810190811067ffffffffffffffff821117610b9457604052565b90601f8019910116810190811067ffffffffffffffff821117610b9457604052565b81601f820112156101b05780359067ffffffffffffffff8211610b945760405192611cff601f8401601f191660200185611ca8565b828452602083830101116101b057816000926020809301838601378301015290565b9060406003198301126101b05767ffffffffffffffff6004358181116101b05783611d4e91600401611cca565b926024359182116101b057611d6591600401611cca565b90565b90600182811c92168015611d98575b6020831014611d8257565b634e487b7160e01b600052602260045260246000fd5b91607f1691611d77565b90604051918260008254611db581611d68565b90818452602094600191600181169081600014611e255750600114611de6575b505050611de492500383611ca8565b565b600090815285812095935091905b818310611e0d575050611de49350820101388080611dd5565b85548884018501529485019487945091830191611df4565b92505050611de494925060ff191682840152151560051b820101388080611dd5565b90815180825260208080930193019160005b828110611e67575050505090565b835185529381019392810192600101611e59565b15611e8257565b60405162461bcd60e51b815260206004820152601760248201527f496e76616c6964206163636f756e7420616464726573730000000000000000006044820152606490fd5b600454600160401b811015610b94576001810180600455811015611c195760046000527f8a35acfbc15ff81a39ae7d344fd709f28e8600b4aa8c65c6b64bfe7fe36bd19b0180546001600160a01b0319166001600160a01b03909216919091179055565b600090338252602091600560205260409160ff60408320541615612014576001600160a01b0381811693909290611f63851515611e7b565b815b338352600687528183208054821015611fa25785611f84838993611c01565b90549060031b1c1614611f9957600101611f65565b50505050505050565b5050509293509050338252600660205260408220805490600160401b821015612000578161085c916001611fd99594018155611c01565b7f663f26703bd344e9f8d6bc0b1f4e4fa06a81703a4eb10c90e62d60044e8be4ca339180a3565b634e487b7160e01b84526041600452602484fd5b60405162461bcd60e51b815260206004820152602f60248201527f4f6e6c7920756e6976657273616c206163636f756e74732063616e206c696e6b60448201526e206f74686572206163636f756e747360881b6064820152608490fd5b908160209103126101b0575180151581036101b05790565b1561209057565b60405162461bcd60e51b815260206004820152600e60248201526d139bdd08185d5d1a1bdc9a5e995960921b6044820152606490fd5b8054600160401b811015610b94576120e391600182018155611c01565b819291549060031b91821b91600019901b1916179055565b60001981146108e35760010190565b8115612114570490565b634e487b7160e01b600052601260045260246000fd5b1561213157565b60405162461bcd60e51b8152602060048201526016602482015275141c9bd99a5b1948191bd95cc81b9bdd08195e1a5cdd60521b6044820152606490fd5b919082018092116108e357565b60018060a01b0316600052600260205260406000206040519061219e82611c6f565b6121a781611da2565b82526121b560018201611da2565b60208301526002810154604083015260038101546060830152600481015460808301526005810154918260a082015260e060ff60076006850154948560c08601520154161515910152801561220d57611d659161210a565b5050600090565b90604051918281549182825260209260208301916000526020600020936000905b82821061224b57505050611de492500383611ca8565b855484526001958601958895509381019390910190612235565b6040519261227284611c6f565b82845260208401524260408401526000606084015260006080840152600060a0840152600060c0840152600160e084015260018060a01b03811692836000526002602052604060002090805180519067ffffffffffffffff8211610b945781906122dc8554611d68565b601f8111612572575b50602090601f8311600114612506576000926124fb575b50508160011b916000199060031b1c19161782555b602081015180519067ffffffffffffffff8211610b94576123356001850154611d68565b601f81116124b4575b50602090601f83116001146124135793600760e06123ef958561240399966123ea967fbafddecbd1dec1c1afb76d693f1de16901f521bdf29a02438e3e6806c0b8d9489c9a6000926124085750508160011b916000199060031b1c191617600185015560408101516002850155606081015160038501556080810151600485015560a0810151600585015560c081015160068501550151151591019060ff801983541691151516179055565b611ec7565b604051918291602083526020830190611c2f565b0390a2565b01519050388061111f565b906001850160005260206000209160005b601f198516811061249c575060e06123ef956001866123ea967fbafddecbd1dec1c1afb76d693f1de16901f521bdf29a02438e3e6806c0b8d9489c9a966007966124039d9a601f1981161061248357505050811b016001850155611137565b015160001960f88460031b161c19169055388080611221565b91926020600181928685015181550194019201612424565b600185016000526020600020601f840160051c8101602085106124f4575b601f830160051c820181106124e857505061233e565b600081556001016124d2565b50806124d2565b0151905038806122fc565b9250846000526020600020906000935b601f1984168510612557576001945083601f1981161061253e575b505050811b018255612311565b015160001960f88460031b161c19169055388080612531565b81810151835560209485019460019093019290910190612516565b909150846000526020600020601f840160051c8101602085106125bb575b90849392915b601f830160051c820181106125ac5750506122e5565b60008155859450600101612596565b5080612590565b6000546001600160a01b031633036125d657565b60405163118cdaa760e01b8152336004820152602490fdfea264697066735822122029354c6641874d8b3be6eade424b8088a7d05d1df8879edb77d863c9fffd598f64736f6c63430008160033",
  "linkReferences": {},
  "deployedLinkReferences": {}
}