{
  "_format": "hh-sol-artifact-1",
  "contractName": "EventReview",
  "sourceName": "contracts/BIG/EventReview.sol",
  "abi": [
    {
      "inputs": [],
      "stateMutability": "nonpayable",
      "type": "constructor"
    },
    {
      "inputs": [
        {
          "internalType": "address",
          "name": "owner",
          "type": "address"
        }
      ],
      "name": "OwnableInvalidOwner",
      "type": "error"
    },
    {
      "inputs": [
        {
          "internalType": "address",
          "name": "account",
          "type": "address"
        }
      ],
      "name": "OwnableUnauthorizedAccount",
      "type": "error"
    },
    {
      "anonymous": false,
      "inputs": [
        {
          "indexed": true,
          "internalType": "address",
          "name": "previousOwner",
          "type": "address"
        },
        {
          "indexed": true,
          "internalType": "address",
          "name": "newOwner",
          "type": "address"
        }
      ],
      "name": "OwnershipTransferred",
      "type": "event"
    },
    {
      "anonymous": false,
      "inputs": [
        {
          "indexed": true,
          "internalType": "address",
          "name": "reviewer",
          "type": "address"
        },
        {
          "indexed": true,
          "internalType": "uint256",
          "name": "eventId",
          "type": "uint256"
        },
        {
          "indexed": false,
          "internalType": "uint256",
          "name": "rating",
          "type": "uint256"
        },
        {
          "indexed": false,
          "internalType": "string",
          "name": "reviewUri",
          "type": "string"
        }
      ],
      "name": "ReviewCreated",
      "type": "event"
    },
    {
      "anonymous": false,
      "inputs": [
        {
          "indexed": true,
          "internalType": "address",
          "name": "user",
          "type": "address"
        },
        {
          "indexed": true,
          "internalType": "bytes32",
          "name": "reviewId",
          "type": "bytes32"
        }
      ],
      "name": "ReviewHelpful",
      "type": "event"
    },
    {
      "anonymous": false,
      "inputs": [
        {
          "indexed": true,
          "internalType": "address",
          "name": "reviewer",
          "type": "address"
        },
        {
          "indexed": true,
          "internalType": "uint256",
          "name": "eventId",
          "type": "uint256"
        },
        {
          "indexed": false,
          "internalType": "uint256",
          "name": "rating",
          "type": "uint256"
        },
        {
          "indexed": false,
          "internalType": "string",
          "name": "reviewUri",
          "type": "string"
        }
      ],
      "name": "ReviewUpdated",
      "type": "event"
    },
    {
      "inputs": [
        {
          "internalType": "uint256",
          "name": "eventId",
          "type": "uint256"
        },
        {
          "internalType": "uint256",
          "name": "rating",
          "type": "uint256"
        },
        {
          "internalType": "string",
          "name": "reviewUri",
          "type": "string"
        },
        {
          "internalType": "string",
          "name": "contentHash",
          "type": "string"
        }
      ],
      "name": "createReview",
      "outputs": [],
      "stateMutability": "nonpayable",
      "type": "function"
    },
    {
      "inputs": [
        {
          "internalType": "uint256",
          "name": "",
          "type": "uint256"
        }
      ],
      "name": "eventStats",
      "outputs": [
        {
          "internalType": "uint256",
          "name": "totalReviews",
          "type": "uint256"
        },
        {
          "internalType": "uint256",
          "name": "totalRatingSum",
          "type": "uint256"
        },
        {
          "internalType": "uint256",
          "name": "averageRating",
          "type": "uint256"
        }
      ],
      "stateMutability": "view",
      "type": "function"
    },
    {
      "inputs": [],
      "name": "getAllReviewIds",
      "outputs": [
        {
          "internalType": "bytes32[]",
          "name": "",
          "type": "bytes32[]"
        }
      ],
      "stateMutability": "view",
      "type": "function"
    },
    {
      "inputs": [
        {
          "internalType": "uint256",
          "name": "eventId",
          "type": "uint256"
        }
      ],
      "name": "getEventStats",
      "outputs": [
        {
          "internalType": "uint256",
          "name": "totalReviews",
          "type": "uint256"
        },
        {
          "internalType": "uint256",
          "name": "averageRating",
          "type": "uint256"
        },
        {
          "internalType": "uint256",
          "name": "totalRatingSum",
          "type": "uint256"
        }
      ],
      "stateMutability": "view",
      "type": "function"
    },
    {
      "inputs": [
        {
          "internalType": "uint256",
          "name": "eventId",
          "type": "uint256"
        },
        {
          "internalType": "address",
          "name": "reviewer",
          "type": "address"
        }
      ],
      "name": "getReview",
      "outputs": [
        {
          "internalType": "address",
          "name": "_reviewer",
          "type": "address"
        },
        {
          "internalType": "uint256",
          "name": "_eventId",
          "type": "uint256"
        },
        {
          "internalType": "uint256",
          "name": "_rating",
          "type": "uint256"
        },
        {
          "internalType": "string",
          "name": "_reviewUri",
          "type": "string"
        },
        {
          "internalType": "string",
          "name": "_contentHash",
          "type": "string"
        },
        {
          "internalType": "uint256",
          "name": "_timestamp",
          "type": "uint256"
        },
        {
          "internalType": "uint256",
          "name": "_helpfulCount",
          "type": "uint256"
        }
      ],
      "stateMutability": "view",
      "type": "function"
    },
    {
      "inputs": [
        {
          "internalType": "uint256",
          "name": "eventId",
          "type": "uint256"
        },
        {
          "internalType": "uint256",
          "name": "offset",
          "type": "uint256"
        },
        {
          "internalType": "uint256",
          "name": "limit",
          "type": "uint256"
        }
      ],
      "name": "getReviewsForEvent",
      "outputs": [
        {
          "internalType": "address[]",
          "name": "reviewers",
          "type": "address[]"
        },
        {
          "internalType": "uint256[]",
          "name": "ratings",
          "type": "uint256[]"
        },
        {
          "internalType": "string[]",
          "name": "reviewUris",
          "type": "string[]"
        },
        {
          "internalType": "string[]",
          "name": "contentHashes",
          "type": "string[]"
        },
        {
          "internalType": "uint256[]",
          "name": "timestamps",
          "type": "uint256[]"
        },
        {
          "internalType": "uint256[]",
          "name": "helpfulCounts",
          "type": "uint256[]"
        }
      ],
      "stateMutability": "view",
      "type": "function"
    },
    {
      "inputs": [],
      "name": "getTotalReviews",
      "outputs": [
        {
          "internalType": "uint256",
          "name": "",
          "type": "uint256"
        }
      ],
      "stateMutability": "view",
      "type": "function"
    },
    {
      "inputs": [
        {
          "internalType": "uint256",
          "name": "eventId",
          "type": "uint256"
        },
        {
          "internalType": "address",
          "name": "user",
          "type": "address"
        }
      ],
      "name": "hasUserReviewed",
      "outputs": [
        {
          "internalType": "bool",
          "name": "",
          "type": "bool"
        }
      ],
      "stateMutability": "view",
      "type": "function"
    },
    {
      "inputs": [
        {
          "internalType": "uint256",
          "name": "eventId",
          "type": "uint256"
        },
        {
          "internalType": "address",
          "name": "reviewer",
          "type": "address"
        }
      ],
      "name": "markReviewHelpful",
      "outputs": [],
      "stateMutability": "nonpayable",
      "type": "function"
    },
    {
      "inputs": [],
      "name": "owner",
      "outputs": [
        {
          "internalType": "address",
          "name": "",
          "type": "address"
        }
      ],
      "stateMutability": "view",
      "type": "function"
    },
    {
      "inputs": [],
      "name": "platformContract",
      "outputs": [
        {
          "internalType": "address",
          "name": "",
          "type": "address"
        }
      ],
      "stateMutability": "view",
      "type": "function"
    },
    {
      "inputs": [],
      "name": "renounceOwnership",
      "outputs": [],
      "stateMutability": "nonpayable",
      "type": "function"
    },
    {
      "inputs": [
        {
          "internalType": "uint256",
          "name": "",
          "type": "uint256"
        }
      ],
      "name": "reviewIds",
      "outputs": [
        {
          "internalType": "bytes32",
          "name": "",
          "type": "bytes32"
        }
      ],
      "stateMutability": "view",
      "type": "function"
    },
    {
      "inputs": [
        {
          "internalType": "bytes32",
          "name": "",
          "type": "bytes32"
        }
      ],
      "name": "reviews",
      "outputs": [
        {
          "internalType": "address",
          "name": "reviewer",
          "type": "address"
        },
        {
          "internalType": "uint256",
          "name": "eventId",
          "type": "uint256"
        },
        {
          "internalType": "uint256",
          "name": "rating",
          "type": "uint256"
        },
        {
          "internalType": "string",
          "name": "reviewUri",
          "type": "string"
        },
        {
          "internalType": "string",
          "name": "contentHash",
          "type": "string"
        },
        {
          "internalType": "uint256",
          "name": "timestamp",
          "type": "uint256"
        },
        {
          "internalType": "uint256",
          "name": "helpfulCount",
          "type": "uint256"
        },
        {
          "internalType": "bool",
          "name": "exists",
          "type": "bool"
        }
      ],
      "stateMutability": "view",
      "type": "function"
    },
    {
      "inputs": [
        {
          "internalType": "address",
          "name": "_platform",
          "type": "address"
        }
      ],
      "name": "setPlatformContract",
      "outputs": [],
      "stateMutability": "nonpayable",
      "type": "function"
    },
    {
      "inputs": [
        {
          "internalType": "address",
          "name": "newOwner",
          "type": "address"
        }
      ],
      "name": "transferOwnership",
      "outputs": [],
      "stateMutability": "nonpayable",
      "type": "function"
    },
    {
      "inputs": [
        {
          "internalType": "uint256",
          "name": "eventId",
          "type": "uint256"
        },
        {
          "internalType": "uint256",
          "name": "newRating",
          "type": "uint256"
        },
        {
          "internalType": "string",
          "name": "newReviewUri",
          "type": "string"
        },
        {
          "internalType": "string",
          "name": "newContentHash",
          "type": "string"
        }
      ],
      "name": "updateReview",
      "outputs": [],
      "stateMutability": "nonpayable",
      "type": "function"
    }
  ],
  "bytecode": "0x6080806040523461007a5733156100645760008054336001600160a01b03198216811783556040519290916001600160a01b0316907f8be0079c531659141344cd1fd0a4f28419497f9722a3daafe3b4186f6b6457e09080a3611bfd90816100808239f35b631e4fbdf760e01b815260006004820152602490fd5b600080fdfe608080604052600436101561001357600080fd5b600090813560e01c90816316274695146115e7575080632101ff65146114ae578063234353aa1461146257806325a19f041461141657806325f60082146113f857806328be65af146113ad57806358733e49146112f957806369c02abe146111dd578063715018a6146111835780637d85b2be14610a3e5780638475100d146109895780638da5cb5b14610962578063a44760f2146108d6578063c2ef97bd146104e9578063c40e33df146104b0578063d6fbd753146101695763f2fde38b146100dc57600080fd5b34610166576020366003190112610166576100f561162b565b6100fd611b9b565b6001600160a01b0390811690811561014d57600054826001600160601b0360a01b821617600055167f8be0079c531659141344cd1fd0a4f28419497f9722a3daafe3b4186f6b6457e0600080a380f35b604051631e4fbdf760e01b815260048101849052602490fd5b80fd5b5034610166576060366003190112610166576004546044359180805b83811061046c57508061019a85602435611a9a565b11610458575b60243511610450575b916101b381611af3565b916101c160405193846116c8565b8183526101cd82611af3565b602084019490601f19013686376101e383611b0b565b6101ec84611b3d565b906101f685611b3d565b9261020086611b0b565b9461020a87611b0b565b968283845b8481106102bc575b50505050506040519660c088019060c089525180915260e0880198915b81811061029d5750505061028b9261026f6102999695936102618a61027d958b809d0360208d01526118bc565b9089820360408b01526118f0565b9087820360608901526118f0565b9085820360808701526118bc565b9083820360a08501526118bc565b0390f35b82516001600160a01b03168a526020998a019990920191600101610234565b6102cf819c959c9b9a999897969b61186f565b90549060031b1c8b526002602052600435600160408d20015414610300575b6001019a939a9994959697989961020f565b9060243581101580610447575b610332575b61031b90611991565b908383106102ee57849b5099949596979899610217565b9161033c8261186f565b90549060031b1c8b52600260205260408b206040519061035b82611681565b80546001600160a01b031682526001810154602083015260028101546040830190815261038a600383016117ca565b606084019081529061039e600484016117ca565b60808501908152600584015460a0860152600684015460c086015260079093015460ff16151560e085015283516001600160a01b03166103de868b611b87565b52516103ea858b611b87565b52516103f6848b611b87565b52610401838a611b87565b505161040d838b611b87565b52610418828a611b87565b5060a0810151610428838c611b87565b5260c00151610437828c611b87565b5261044190611991565b91610312565b5083831061030d565b9150816101a9565b925061046660243584611ae6565b926101a0565b6104758161186f565b90549060031b1c8352600260205260043560016040852001541461049c575b600101610185565b906104a8600191611991565b919050610494565b503461016657602036600319011261016657600435906004548210156101665760206104db8361186f565b90546040519160031b1c8152f35b5034610166576104f836611741565b60018392931015806108cb575b61050e906119b6565b61051a83511515611a02565b61052681511515611a4e565b60408051602081018681523360601b6001600160601b0319169282019290925261055d81605481015b03601f1981018352826116c8565b51902085526002602052604085209061057c60ff60078401541661194d565b8154336001600160a01b03909116036108785784865260036020528260408720600181019060026105cc8354936105c1866105bc858b0197885490611ae6565b611a9a565b809155835490611aa7565b91015555835167ffffffffffffffff81116107aa576105ee6003840154611790565b601f8111610833575b50806020601f82116001146107c95788916107be575b508160011b916000199060031b1c19161760038301555b80519067ffffffffffffffff82116107aa576106436004840154611790565b601f8111610761575b50602090601f83116001146106d4577f9ba07e17fb4232c346b396d3b287fbd84d637c451543170397b0d399369b80d4949392918891836106c9575b50508160011b916000199060031b1c19161760048201555b60054291015560405190815260406020820152806106c333946040830190611641565b0390a380f35b015190503880610688565b600484018852602088209190601f198416895b81811061074957509160019391857f9ba07e17fb4232c346b396d3b287fbd84d637c451543170397b0d399369b80d49897969410610730575b505050811b0160048201556106a0565b015160001960f88460031b161c19169055388080610720565b929360206001819287860151815501950193016106e7565b60048401885260208820601f840160051c810191602085106107a0575b601f0160051c01905b818110610794575061064c565b60008155600101610787565b909150819061077e565b634e487b7160e01b87526041600452602487fd5b90508501513861060d565b91506003840188526020882088925b601f198316841061081b576001935082601f19811610610802575b5050811b016003830155610624565b87015160001960f88460031b161c1916905538806107f3565b878101518255602093840193600190920191016107d8565b60038401885260208820601f830160051c810160208410610871575b601f830160051c820181106108655750506105f7565b6000815560010161084f565b508061084f565b60405162461bcd60e51b815260206004820152602560248201527f4f6e6c7920746865206f726967696e616c2072657669657765722063616e2075604482015264706461746560d81b6064820152608490fd5b506005821115610505565b5034610166576020366003190112610166576108f061162b565b6108f8611b9b565b6001600160a01b0316801561091d576001600160601b0360a01b600154161760015580f35b60405162461bcd60e51b815260206004820152601860248201527f496e76616c696420706c6174666f726d206164647265737300000000000000006044820152606490fd5b5034610166578060031936011261016657546040516001600160a01b039091168152602090f35b503461016657602036600319011261016657600435815260026020819052604090912080546001820154928201549291906001600160a01b03166109cf600383016117ca565b91610a286109df600483016117ca565b610a1a60058401549560ff600760068701549601541695604051998a99610100928b5260208b015260408a01528060608a0152880190611641565b908682036080880152611641565b9260a085015260c0840152151560e08301520390f35b503461016657610a4d36611741565b60018395949295101580611178575b610a65906119b6565b610a7185511515611a02565b610a7d81511515611a4e565b81845260036020526003604085200133855260205260ff6040852054166111335760408051602081018481523360601b6001600160601b03191692820192909252610acb816054810161054f565b519020808552600260205260ff6007604087200154166110f65760405191610af283611681565b338352602083019084825260408401868152606085019189835260808601524260a08601528760c0860152600160e08601528388526002602052604088209260018060a01b038651166001600160601b0360a01b8554161784555160018401555160028301555180519067ffffffffffffffff8211611018578190610b7a6003850154611790565b601f81116110a6575b50602090601f831160011461103757899261102c575b50508160011b916000199060031b1c19161760038201555b608083015180519067ffffffffffffffff821161101857610bd56004840154611790565b601f8111610fd4575b50602090601f8311600114610f6557918060e094926007948b92610f5a575b50508160011b916000199060031b1c19161760048201555b60a0850151600582015560c085015160068201550192015115159160ff199260ff84835416911617905560045468010000000000000000811015610f4657806001610c63920160045561186f565b819291549060031b91821b91600019901b19161790558184526003602052816040852095610cae610c948854611991565b80895560018901610ca6888254611a9a565b809155611aa7565b926002880193845533875260038801602052600160408820918254161790557fda6d42e29a33fa58c8ab89211d200c1872542c44cfe9ce01a5d3866b9ea4580e6040518681526040602082015280610d0b33946040830190611641565b0390a36001546001600160a01b031680610d23578480f35b602060049160405192838092630e64f35d60e01b82525afa908115610f08578591610f27575b5060018060a01b03169054945494813b15610ee5576040516001625850a560e11b03198152600481018490526024810191909152604481019590955283908590606490829084905af1610f13575b82935060018060a01b036001541690604051602081600481631c5f309960e01b968782525afa908115610f08578591610ee9575b506001600160a01b031690813b15610ee557604051631fff86f760e21b81523360048201526024810191909152849182908290604490829084905af1610ed1575b5050600154604051918252602090829060049082906001600160a01b03165afa908115610ec6578391610e97575b506001600160a01b0316803b15610e9357604051634e63f9b160e01b8152336004820152602481019290925282908290604490829084905af1610e7f575b8080808480f35b610e88906116b4565b610166578038610e78565b5050fd5b610eb9915060203d602011610ebf575b610eb181836116c8565b810190611ac7565b38610e3a565b503d610ea7565b6040513d85823e3d90fd5b610eda906116b4565b610e93578238610e0c565b8480fd5b610f02915060203d602011610ebf57610eb181836116c8565b38610dcb565b6040513d87823e3d90fd5b919092610f1f906116b4565b908290610d97565b610f40915060203d602011610ebf57610eb181836116c8565b38610d49565b634e487b7160e01b86526041600452602486fd5b015190503880610bfd565b600484018952602089209190601f1984168a5b818110610fbc575092600192859260079660e0989610610fa3575b505050811b016004820155610c15565b015160001960f88460031b161c19169055388080610f93565b92936020600181928786015181550195019301610f78565b60048401895260208920601f840160051c810160208510611011575b601f830160051c82018110611006575050610bde565b8a8155600101610ff0565b5080610ff0565b634e487b7160e01b88526041600452602488fd5b015190503880610b99565b9250600384018952602089209089935b601f198416851061108b576001945083601f19811610611072575b505050811b016003820155610bb1565b015160001960f88460031b161c19169055388080611062565b81810151835560209485019460019093019290910190611047565b90915060038401895260208920601f840160051c8101602085106110ef575b90849392915b601f830160051c820181106110e1575050610b83565b8b81558594506001016110cb565b50806110c5565b60405162461bcd60e51b815260206004820152601560248201527452657669657720616c72656164792065786973747360581b6044820152606490fd5b60405162461bcd60e51b815260206004820152601b60248201527f416c72656164792072657669657765642074686973206576656e7400000000006044820152606490fd5b506005831115610a5c565b503461016657806003193601126101665761119c611b9b565b80546001600160a01b03198116825581906001600160a01b03167f8be0079c531659141344cd1fd0a4f28419497f9722a3daafe3b4186f6b6457e08280a380f35b5034610166576040366003190112610166576111f7611610565b6040516112288161054f602082019460043586909160349282526001600160601b03199060601b1660208201520190565b519020808252600260205261124660ff60076040852001541661194d565b808252600260205260408220546001600160a01b031633146112a55780825260026020526006604083200161127b8154611991565b9055337f49881b79a6cd9b25e8f9be536cc2732f8823c80e75dda072eb8af052917427408380a380f35b60405162461bcd60e51b815260206004820152602660248201527f43616e6e6f74206d61726b20796f7572206f776e207265766965772061732068604482015265195b1c199d5b60d21b6064820152608490fd5b503461016657806003193601126101665760405180916004549081835260208093018092600483527f8a35acfbc15ff81a39ae7d344fd709f28e8600b4aa8c65c6b64bfe7fe36bd19b90835b818110611399575050508461135b9103856116c8565b60405193838594850191818652518092526040850193925b82811061138257505050500390f35b835185528695509381019392810192600101611373565b825484529286019260019283019201611345565b50346101665760403660031901126101665760ff60406020926113ce611610565b600435825260038086528383206001600160a01b0390921683520184522054604051911615158152f35b50346101665780600319360112610166576020600454604051908152f35b5034610166576020366003190112610166576040906004358152600360205220805461029960016002840154930154604051938493846040919493926060820195825260208201520152565b5034610166576020366003190112610166576040906004358152600360205220805461029960026001840154930154604051938493846040919493926060820195825260208201520152565b5034610166576040366003190112610166576040906114cb611610565b82516004356020820190815260609290921b6001600160601b03191660408201526114f9816054810161054f565b51902081526002602052206040519061151182611681565b60018060a01b0390818154168352600181015491602084019283526115d8600283015494604081019586526115ca61154b600386016117ca565b936060830194855261155f600487016117ca565b906080840191825260058701549360a0810194855261159860ff600760068b01549a60c085019b8c5201541615158060e084015261194d565b51169651975194519051925195519460405198899889526020890152604088015260e0606088015260e0870190611641565b908582036080870152611641565b9160a084015260c08301520390f35b90503461160c578160031936011261160c576001546001600160a01b03168152602090f35b5080fd5b602435906001600160a01b038216820361162657565b600080fd5b600435906001600160a01b038216820361162657565b919082519283825260005b84811061166d575050826000602080949584010152601f8019910116010190565b60208183018101518483018201520161164c565b610100810190811067ffffffffffffffff82111761169e57604052565b634e487b7160e01b600052604160045260246000fd5b67ffffffffffffffff811161169e57604052565b90601f8019910116810190811067ffffffffffffffff82111761169e57604052565b81601f820112156116265780359067ffffffffffffffff821161169e576040519261171f601f8401601f1916602001856116c8565b8284526020838301011161162657816000926020809301838601378301015290565b90608060031983011261162657600435916024359167ffffffffffffffff6044358181116116265783611776916004016116ea565b926064359182116116265761178d916004016116ea565b90565b90600182811c921680156117c0575b60208310146117aa57565b634e487b7160e01b600052602260045260246000fd5b91607f169161179f565b906040519182600082546117dd81611790565b9081845260209460019160018116908160001461184d575060011461180e575b50505061180c925003836116c8565b565b600090815285812095935091905b81831061183557505061180c93508201013880806117fd565b8554888401850152948501948794509183019161181c565b9250505061180c94925060ff191682840152151560051b8201013880806117fd565b6004548110156118a65760046000527f8a35acfbc15ff81a39ae7d344fd709f28e8600b4aa8c65c6b64bfe7fe36bd19b0190600090565b634e487b7160e01b600052603260045260246000fd5b90815180825260208080930193019160005b8281106118dc575050505090565b8351855293810193928101926001016118ce565b90808251908181526020809101926020808460051b8301019501936000915b84831061191f5750505050505090565b909192939495848061193d600193601f198682030187528a51611641565b980193019301919493929061190f565b1561195457565b60405162461bcd60e51b815260206004820152601560248201527414995d9a595dc8191bd95cc81b9bdd08195e1a5cdd605a1b6044820152606490fd5b60001981146119a05760010190565b634e487b7160e01b600052601160045260246000fd5b156119bd57565b60405162461bcd60e51b815260206004820152601e60248201527f526174696e67206d757374206265206265747765656e203120616e64203500006044820152606490fd5b15611a0957565b60405162461bcd60e51b815260206004820152601a60248201527f526576696577205552492063616e6e6f7420626520656d7074790000000000006044820152606490fd5b15611a5557565b60405162461bcd60e51b815260206004820152601c60248201527f436f6e74656e7420686173682063616e6e6f7420626520656d707479000000006044820152606490fd5b919082018092116119a057565b8115611ab1570490565b634e487b7160e01b600052601260045260246000fd5b9081602091031261162657516001600160a01b03811681036116265790565b919082039182116119a057565b67ffffffffffffffff811161169e5760051b60200190565b90611b1582611af3565b611b2260405191826116c8565b8281528092611b33601f1991611af3565b0190602036910137565b90611b4782611af3565b611b5460405191826116c8565b8281528092611b65601f1991611af3565b019060005b828110611b7657505050565b806060602080938501015201611b6a565b80518210156118a65760209160051b010190565b6000546001600160a01b03163303611baf57565b60405163118cdaa760e01b8152336004820152602490fdfea264697066735822122073070f81d0789bfd37d74f1022f0e280e980d0e6cb6804e414d0f7d49eb642a764736f6c63430008160033",
  "linkReferences": {},
  "deployedLinkReferences": {}
}