{
  "_format": "hh-sol-artifact-1",
  "contractName": "TicketManagement",
  "sourceName": "contracts/BIG/TicketManagement.sol",
  "abi": [
    {
      "inputs": [],
      "stateMutability": "nonpayable",
      "type": "constructor"
    },
    {
      "inputs": [
        {
          "internalType": "address",
          "name": "owner",
          "type": "address"
        }
      ],
      "name": "OwnableInvalidOwner",
      "type": "error"
    },
    {
      "inputs": [
        {
          "internalType": "address",
          "name": "account",
          "type": "address"
        }
      ],
      "name": "OwnableUnauthorizedAccount",
      "type": "error"
    },
    {
      "anonymous": false,
      "inputs": [
        {
          "indexed": false,
          "internalType": "uint256",
          "name": "chainId",
          "type": "uint256"
        }
      ],
      "name": "ChainRegistered",
      "type": "event"
    },
    {
      "anonymous": false,
      "inputs": [
        {
          "indexed": true,
          "internalType": "bytes32",
          "name": "transferId",
          "type": "bytes32"
        },
        {
          "indexed": true,
          "internalType": "uint256",
          "name": "tokenId",
          "type": "uint256"
        },
        {
          "indexed": true,
          "internalType": "address",
          "name": "recipient",
          "type": "address"
        }
      ],
      "name": "CrossChainTransferCompleted",
      "type": "event"
    },
    {
      "anonymous": false,
      "inputs": [
        {
          "indexed": true,
          "internalType": "bytes32",
          "name": "transferId",
          "type": "bytes32"
        },
        {
          "indexed": true,
          "internalType": "uint256",
          "name": "tokenId",
          "type": "uint256"
        },
        {
          "indexed": true,
          "internalType": "address",
          "name": "sender",
          "type": "address"
        },
        {
          "indexed": false,
          "internalType": "string",
          "name": "metadataUri",
          "type": "string"
        }
      ],
      "name": "CrossChainTransferInitiated",
      "type": "event"
    },
    {
      "anonymous": false,
      "inputs": [
        {
          "indexed": true,
          "internalType": "address",
          "name": "previousOwner",
          "type": "address"
        },
        {
          "indexed": true,
          "internalType": "address",
          "name": "newOwner",
          "type": "address"
        }
      ],
      "name": "OwnershipTransferred",
      "type": "event"
    },
    {
      "anonymous": false,
      "inputs": [
        {
          "indexed": true,
          "internalType": "uint256",
          "name": "tokenId",
          "type": "uint256"
        },
        {
          "indexed": true,
          "internalType": "address",
          "name": "validator",
          "type": "address"
        },
        {
          "indexed": false,
          "internalType": "string",
          "name": "locationUri",
          "type": "string"
        }
      ],
      "name": "TicketValidated",
      "type": "event"
    },
    {
      "anonymous": false,
      "inputs": [
        {
          "indexed": true,
          "internalType": "uint256",
          "name": "tokenId",
          "type": "uint256"
        },
        {
          "indexed": true,
          "internalType": "address",
          "name": "revoker",
          "type": "address"
        }
      ],
      "name": "TicketValidationRevoked",
      "type": "event"
    },
    {
      "inputs": [
        {
          "internalType": "bytes32",
          "name": "transferId",
          "type": "bytes32"
        }
      ],
      "name": "completeCrossChainTransfer",
      "outputs": [
        {
          "internalType": "bool",
          "name": "",
          "type": "bool"
        }
      ],
      "stateMutability": "nonpayable",
      "type": "function"
    },
    {
      "inputs": [
        {
          "internalType": "bytes32",
          "name": "",
          "type": "bytes32"
        }
      ],
      "name": "crossChainTransfers",
      "outputs": [
        {
          "internalType": "address",
          "name": "sender",
          "type": "address"
        },
        {
          "internalType": "address",
          "name": "recipient",
          "type": "address"
        },
        {
          "internalType": "uint256",
          "name": "tokenId",
          "type": "uint256"
        },
        {
          "internalType": "uint256",
          "name": "sourceChainId",
          "type": "uint256"
        },
        {
          "internalType": "uint256",
          "name": "destinationChainId",
          "type": "uint256"
        },
        {
          "internalType": "uint256",
          "name": "timestamp",
          "type": "uint256"
        },
        {
          "internalType": "bool",
          "name": "completed",
          "type": "bool"
        },
        {
          "internalType": "string",
          "name": "metadataUri",
          "type": "string"
        }
      ],
      "stateMutability": "view",
      "type": "function"
    },
    {
      "inputs": [
        {
          "internalType": "bytes32",
          "name": "transferId",
          "type": "bytes32"
        }
      ],
      "name": "getCrossChainTransfer",
      "outputs": [
        {
          "internalType": "address",
          "name": "sender",
          "type": "address"
        },
        {
          "internalType": "address",
          "name": "recipient",
          "type": "address"
        },
        {
          "internalType": "uint256",
          "name": "tokenId",
          "type": "uint256"
        },
        {
          "internalType": "uint256",
          "name": "sourceChainId",
          "type": "uint256"
        },
        {
          "internalType": "uint256",
          "name": "destinationChainId",
          "type": "uint256"
        },
        {
          "internalType": "uint256",
          "name": "timestamp",
          "type": "uint256"
        },
        {
          "internalType": "bool",
          "name": "completed",
          "type": "bool"
        },
        {
          "internalType": "string",
          "name": "metadataUri",
          "type": "string"
        }
      ],
      "stateMutability": "view",
      "type": "function"
    },
    {
      "inputs": [],
      "name": "getRegisteredChains",
      "outputs": [
        {
          "internalType": "uint256[]",
          "name": "",
          "type": "uint256[]"
        }
      ],
      "stateMutability": "view",
      "type": "function"
    },
    {
      "inputs": [
        {
          "internalType": "uint256",
          "name": "tokenId",
          "type": "uint256"
        },
        {
          "internalType": "address",
          "name": "validator",
          "type": "address"
        }
      ],
      "name": "getValidationStatus",
      "outputs": [
        {
          "internalType": "bool",
          "name": "isValidated",
          "type": "bool"
        },
        {
          "internalType": "uint256",
          "name": "validationTime",
          "type": "uint256"
        },
        {
          "internalType": "string",
          "name": "locationUri",
          "type": "string"
        },
        {
          "internalType": "string",
          "name": "locationHash",
          "type": "string"
        },
        {
          "internalType": "bool",
          "name": "isRevoked",
          "type": "bool"
        }
      ],
      "stateMutability": "view",
      "type": "function"
    },
    {
      "inputs": [
        {
          "internalType": "uint256",
          "name": "tokenId",
          "type": "uint256"
        },
        {
          "internalType": "address",
          "name": "recipient",
          "type": "address"
        },
        {
          "internalType": "uint256",
          "name": "destinationChainId",
          "type": "uint256"
        },
        {
          "internalType": "string",
          "name": "metadataUri",
          "type": "string"
        }
      ],
      "name": "initiateCrossChainTransfer",
      "outputs": [
        {
          "internalType": "bytes32",
          "name": "",
          "type": "bytes32"
        }
      ],
      "stateMutability": "nonpayable",
      "type": "function"
    },
    {
      "inputs": [
        {
          "internalType": "uint256",
          "name": "",
          "type": "uint256"
        }
      ],
      "name": "isChainRegistered",
      "outputs": [
        {
          "internalType": "bool",
          "name": "",
          "type": "bool"
        }
      ],
      "stateMutability": "view",
      "type": "function"
    },
    {
      "inputs": [
        {
          "internalType": "uint256",
          "name": "chainId",
          "type": "uint256"
        }
      ],
      "name": "isChainSupported",
      "outputs": [
        {
          "internalType": "bool",
          "name": "",
          "type": "bool"
        }
      ],
      "stateMutability": "view",
      "type": "function"
    },
    {
      "inputs": [
        {
          "internalType": "uint256",
          "name": "tokenId",
          "type": "uint256"
        }
      ],
      "name": "isTicketValidated",
      "outputs": [
        {
          "internalType": "bool",
          "name": "",
          "type": "bool"
        }
      ],
      "stateMutability": "view",
      "type": "function"
    },
    {
      "inputs": [],
      "name": "owner",
      "outputs": [
        {
          "internalType": "address",
          "name": "",
          "type": "address"
        }
      ],
      "stateMutability": "view",
      "type": "function"
    },
    {
      "inputs": [
        {
          "internalType": "uint256",
          "name": "chainId",
          "type": "uint256"
        }
      ],
      "name": "registerChain",
      "outputs": [],
      "stateMutability": "nonpayable",
      "type": "function"
    },
    {
      "inputs": [],
      "name": "renounceOwnership",
      "outputs": [],
      "stateMutability": "nonpayable",
      "type": "function"
    },
    {
      "inputs": [
        {
          "internalType": "uint256",
          "name": "tokenId",
          "type": "uint256"
        },
        {
          "internalType": "address",
          "name": "validator",
          "type": "address"
        }
      ],
      "name": "revokeValidation",
      "outputs": [
        {
          "internalType": "bool",
          "name": "",
          "type": "bool"
        }
      ],
      "stateMutability": "nonpayable",
      "type": "function"
    },
    {
      "inputs": [
        {
          "internalType": "uint256",
          "name": "",
          "type": "uint256"
        },
        {
          "internalType": "address",
          "name": "",
          "type": "address"
        }
      ],
      "name": "ticketValidations",
      "outputs": [
        {
          "internalType": "bool",
          "name": "isValidated",
          "type": "bool"
        },
        {
          "internalType": "uint256",
          "name": "validationTime",
          "type": "uint256"
        },
        {
          "internalType": "string",
          "name": "locationUri",
          "type": "string"
        },
        {
          "internalType": "string",
          "name": "locationHash",
          "type": "string"
        },
        {
          "internalType": "address",
          "name": "validator",
          "type": "address"
        },
        {
          "internalType": "bool",
          "name": "isRevoked",
          "type": "bool"
        }
      ],
      "stateMutability": "view",
      "type": "function"
    },
    {
      "inputs": [
        {
          "internalType": "address",
          "name": "newOwner",
          "type": "address"
        }
      ],
      "name": "transferOwnership",
      "outputs": [],
      "stateMutability": "nonpayable",
      "type": "function"
    },
    {
      "inputs": [
        {
          "internalType": "uint256",
          "name": "tokenId",
          "type": "uint256"
        },
        {
          "internalType": "address",
          "name": "ticketOwner",
          "type": "address"
        },
        {
          "internalType": "string",
          "name": "locationUri",
          "type": "string"
        },
        {
          "internalType": "string",
          "name": "locationHash",
          "type": "string"
        }
      ],
      "name": "validateTicket",
      "outputs": [
        {
          "internalType": "bool",
          "name": "",
          "type": "bool"
        }
      ],
      "stateMutability": "nonpayable",
      "type": "function"
    }
  ],
  "bytecode": "0x6080806040523461007a5733156100645760008054336001600160a01b03198216811783556040519290916001600160a01b0316907f8be0079c531659141344cd1fd0a4f28419497f9722a3daafe3b4186f6b6457e09080a361142f90816100808239f35b631e4fbdf760e01b815260006004820152602490fd5b600080fdfe6080604052600436101561001257600080fd5b60003560e01c8062f9832b14610fee57806306ec807c14610ed057806315da294414610dfb578063184cbf7714610d8e57806346d3b06414610ccb5780635221c1f01461029657806365d645fe14610959578063715018a6146109005780638da5cb5b146108d75780638e143c5b1461082057806398cf5af61461073b5780639bf4ddca146102c7578063b9e0640214610296578063cb51060f14610224578063f10d8c971461015b5763f2fde38b146100cb57600080fd5b34610156576020366003190112610156576004356001600160a01b0381811691829003610156576100fa6113cd565b811561013d57600054826001600160601b0360a01b821617600055167f8be0079c531659141344cd1fd0a4f28419497f9722a3daafe3b4186f6b6457e0600080a3005b604051631e4fbdf760e01b815260006004820152602490fd5b600080fd5b34610156576020366003190112610156576004356101776113cd565b80600052600460205260ff604060002054161561019057005b6003546801000000000000000081101561020e577f51f61861fc6e796ffd63c9c30190bb4a24477325376d9e326d507a75097f89e7916101d882600160209401600355611396565b81549060031b9083821b91600019901b191617905580600052600482526040600020600160ff19825416179055604051908152a1005b634e487b7160e01b600052604160045260246000fd5b34610156576020366003190112610156576004356000526002602052604060002060018060a01b0361029281835416916001840154169260028101549060038101546004820154600583015491610285600760ff60068701541695016112d9565b94604051988998896111a1565b0390f35b34610156576020366003190112610156576004356000526004602052602060ff604060002054166040519015158152f35b34610156576080366003190112610156576102e061114b565b5060443567ffffffffffffffff811161015657610301903690600401611248565b60643567ffffffffffffffff811161015657610321903690600401611248565b600435600052600160205260406000203360005260205260ff604060002054166106e357600435600052600160205260406000203360005260205260ff60046040600020015460a01c166106a5576040519161037c8361120a565b60018352602083019142835260408401908282526060850152336080850152600060a085015260043560005260016020526040600020336000526020526040600020926103d885511515859060ff801983541691151516179055565b5160018401555192835167ffffffffffffffff811161020e576103fe600285015461129f565b601f811161065e575b506020601f82116001146105ef5781929394956000926105e4575b50508160011b916000199060031b1c19161760028401555b606081015192835167ffffffffffffffff811161020e5761045e600383015461129f565b601f8111610599575b506020601f8211600114610528578190600494959660009261051d575b50508160011b916000199060031b1c19161760038201555b019060018060a01b0360808201511682549160a060ff811b910151151560a01b16916affffffffffffffffffffff60a81b161717905560405190602082527ff1f23c06761d856ec48f778b8fe5c244a42ee911d4ba2a0f41f82a9d45e20dc233928061050f600435946020830190611161565b0390a3602060405160018152f35b015190508680610484565b601f198216956003840160005260206000209660005b818110610581575091600495969791846001959410610568575b505050811b01600382015561049c565b015160001960f88460031b161c19169055868080610558565b8383015189556001909801976020938401930161053e565b600383016000526020600020601f830160051c810191602084106105da575b601f0160051c01905b8181106105ce5750610467565b600081556001016105c1565b90915081906105b8565b015190508580610422565b6002850160005260206000209060005b601f1984168110610646575060019394959683601f1981161061062d575b505050811b01600284015561043a565b015160001960f88460031b161c1916905585808061061d565b9091602060018192858b0151815501930191016105ff565b600285016000526020600020601f830160051c81016020841061069e575b601f830160051c82018110610692575050610407565b6000815560010161067c565b508061067c565b60405162461bcd60e51b815260206004820152601660248201527515985b1a59185d1a5bdb881dd85cc81c995d9bdad95960521b6044820152606490fd5b60405162461bcd60e51b815260206004820152602a60248201527f5469636b657420616c72656164792076616c6964617465642062792074686973604482015269103b30b634b230ba37b960b11b6064820152608490fd5b346101565760403660031901126101565761075461114b565b6004356000526001602052604060002060018060a01b0380921660005260205260406000206040516107858161120a565b60ff825416151581526108166001830154926020830193845261080860ff6107af600284016112d9565b966040860197885260046107c5600386016112d9565b948560608901520154908116608087015260a01c161515938460a0820152511515945195516040519687968752602087015260a0604087015260a0860190611161565b908482036060860152611161565b9060808301520390f35b346101565760403660031901126101565761083961114b565b6004356000526001602052604060002060018060a01b0380921660005260205260406000209060ff8254169060ff6001840154936108c061087c600283016112d9565b916108b2600461088e600384016112d9565b9201549360405198899815158952602089015260c0604089015260c0880190611161565b908682036060880152611161565b928116608085015260a01c16151560a08301520390f35b34610156576000366003190112610156576000546040516001600160a01b039091168152602090f35b34610156576000366003190112610156576109196113cd565b600080546001600160a01b0319811682556001600160a01b03167f8be0079c531659141344cd1fd0a4f28419497f9722a3daafe3b4186f6b6457e08280a3005b346101565760803660031901126101565760043561097561114b565b60643567ffffffffffffffff811161015657610995903690600401611248565b604435600052600460205260ff6040600020541615610c87576001600160a01b038216928315610c42576040519260208401908282523360601b60408601526001600160601b03199060601b166054850152426068850152606884528360a081011067ffffffffffffffff60a08601111761020e5760a084016040528351902092610a2260a082016111ed565b3360a082015260c081019485528160e082015246610100820152604435610120820152426101408201526000610160820152826101808201528360005260026020526101806007604060002060018060a01b0360a085015116976001600160601b0360a01b98898354161782556001988983019160018060a01b039051169082541617905560e08401516002820155610100840151600382015561012084015160048201556101408401516005820155610af26101608501511515600683019060ff801983541691151516179055565b0191015194855167ffffffffffffffff811161020e57610b12835461129f565b601f8111610bfb575b506020968790601f8311600114610b9957928293918392600094610b8e575b50501b916000199060031b1c19161790555b827fb616f197ad9da927ab397f6ad3fa43efdaa2a65449f468952291bf7fba7bd03c60405186815280610b83339689830190611161565b0390a4604051908152f35b015192508980610b3a565b90601f1983169185600052838a6000209360005b87828210610be357505010610bca575b505050811b019055610b4c565b015160001960f88460031b161c19169055878080610bbd565b84860151875590950194938c01938692508c01610bad565b836000526020600020601f830160051c81019160208410610c38575b601f0160051c01905b818110610c2d5750610b1b565b600081558301610c20565b9091508190610c17565b60405162461bcd60e51b815260206004820152601960248201527f496e76616c696420726563697069656e742061646472657373000000000000006044820152606490fd5b606460405162461bcd60e51b815260206004820152602060248201527f44657374696e6174696f6e20636861696e206e6f7420726567697374657265646044820152fd5b346101565760203660031901126101565760043560005260026020526040600020604051610cf8816111ed565b61029260018060a01b0391828454168152826001850154169260208201938452600285015494604083019586526003810154916060840192835260048201546080850190815260058301549160a0860192835280610d69600760ff6006880154169660c08a019715158852016112d9565b968760e0820152511697511697519351905191519251151593604051988998896111a1565b3461015657602080600319360112610156576004358060005260018252604060002033600052825260ff604060002054169081610dd1575b506040519015158152f35b905060005260018152604060002033600052815260ff60046040600020015460a01c161582610dc6565b346101565760003660031901126101565760038054610e198161137e565b610e266040519182611226565b818152610e328261137e565b6020938285019391601f190136853760005b828110610e8f5750505090604051928392818401908285525180915260408401929160005b828110610e7857505050500390f35b835185528695509381019392810192600101610e69565b610e9881611396565b905490831b1c908451811015610eba57600191878260051b8701015201610e44565b634e487b7160e01b600052603260045260246000fd5b3461015657602036600319011261015657600435610eec6113cd565b806000526002602052604060002090600682019182549260ff8416610fa95760048201544603610f6457600160209460ff19161790556002810154906001808060a01b039101541690604051927fcae03c7c47b6473eade83ec9f1bf4b597f2d5cbe32dee85a3f69034c4a915d67600080a460018152f35b60405162461bcd60e51b815260206004820152601960248201527f4e6f74207468652064657374696e6174696f6e20636861696e000000000000006044820152606490fd5b60405162461bcd60e51b815260206004820152601a60248201527f5472616e7366657220616c726561647920636f6d706c657465640000000000006044820152606490fd5b346101565760403660031901126101565760043561100a61114b565b906110136113cd565b806000526020916001835260406000209060018060a01b03169081600052835260ff6040600020541615611106578160005260018352604060002081600052835260ff60046040600020015460a01c166110c1576000828152600184526040808220928252918452818120600401805460ff60a01b1916600160a01b17905590519133917fb1117ab05887dbe51f8d198bc96adbf2e64480e1df8cd9452463e7a6c8da867e9080a360018152f35b60405162461bcd60e51b815260048101849052601a60248201527f56616c69646174696f6e20616c7265616479207265766f6b65640000000000006044820152606490fd5b60405162461bcd60e51b815260048101849052601760248201527f4e6f2076616c69646174696f6e20746f207265766f6b650000000000000000006044820152606490fd5b602435906001600160a01b038216820361015657565b919082519283825260005b84811061118d575050826000602080949584010152601f8019910116010190565b60208183018101518483018201520161116c565b949195926111ea989794916101009760018060a01b03809216885216602087015260408601526060850152608084015260a0830152151560c08201528160e08201520190611161565b90565b610100810190811067ffffffffffffffff82111761020e57604052565b60c0810190811067ffffffffffffffff82111761020e57604052565b90601f8019910116810190811067ffffffffffffffff82111761020e57604052565b81601f820112156101565780359067ffffffffffffffff821161020e576040519261127d601f8401601f191660200185611226565b8284526020838301011161015657816000926020809301838601378301015290565b90600182811c921680156112cf575b60208310146112b957565b634e487b7160e01b600052602260045260246000fd5b91607f16916112ae565b906040519182600082546112ec8161129f565b9081845260209460019160018116908160001461135c575060011461131d575b50505061131b92500383611226565b565b600090815285812095935091905b81831061134457505061131b935082010138808061130c565b8554888401850152948501948794509183019161132b565b9250505061131b94925060ff191682840152151560051b82010138808061130c565b67ffffffffffffffff811161020e5760051b60200190565b600354811015610eba5760036000527fc2575a0e9e593c00f959f8c92f12db2869c3395a3b0502d05e2516446f71f85b0190600090565b6000546001600160a01b031633036113e157565b60405163118cdaa760e01b8152336004820152602490fdfea2646970667358221220bde15a8232e37d04b1a54984cbef1438191ef61af365450a6a1479dfb8e61c3e64736f6c63430008160033",
  "linkReferences": {},
  "deployedLinkReferences": {}
}