{
  "_format": "hh-sol-artifact-1",
  "contractName": "PushChainEticketingPlatform",
  "sourceName": "contracts/BIG/PushChainEticketingPlatform.sol",
  "abi": [
    {
      "inputs": [],
      "stateMutability": "nonpayable",
      "type": "constructor"
    },
    {
      "inputs": [
        {
          "internalType": "address",
          "name": "owner",
          "type": "address"
        }
      ],
      "name": "OwnableInvalidOwner",
      "type": "error"
    },
    {
      "inputs": [
        {
          "internalType": "address",
          "name": "account",
          "type": "address"
        }
      ],
      "name": "OwnableUnauthorizedAccount",
      "type": "error"
    },
    {
      "anonymous": false,
      "inputs": [
        {
          "indexed": true,
          "internalType": "string",
          "name": "name",
          "type": "string"
        },
        {
          "indexed": true,
          "internalType": "address",
          "name": "contractAddress",
          "type": "address"
        }
      ],
      "name": "ContractRegistered",
      "type": "event"
    },
    {
      "anonymous": false,
      "inputs": [
        {
          "indexed": true,
          "internalType": "string",
          "name": "name",
          "type": "string"
        },
        {
          "indexed": true,
          "internalType": "address",
          "name": "oldAddress",
          "type": "address"
        },
        {
          "indexed": true,
          "internalType": "address",
          "name": "newAddress",
          "type": "address"
        }
      ],
      "name": "ContractUpgraded",
      "type": "event"
    },
    {
      "anonymous": false,
      "inputs": [
        {
          "indexed": true,
          "internalType": "address",
          "name": "previousOwner",
          "type": "address"
        },
        {
          "indexed": true,
          "internalType": "address",
          "name": "newOwner",
          "type": "address"
        }
      ],
      "name": "OwnershipTransferred",
      "type": "event"
    },
    {
      "anonymous": false,
      "inputs": [
        {
          "indexed": true,
          "internalType": "address",
          "name": "contractAddr",
          "type": "address"
        },
        {
          "indexed": false,
          "internalType": "string",
          "name": "permission",
          "type": "string"
        }
      ],
      "name": "PermissionGranted",
      "type": "event"
    },
    {
      "anonymous": false,
      "inputs": [
        {
          "indexed": true,
          "internalType": "address",
          "name": "contractAddr",
          "type": "address"
        },
        {
          "indexed": false,
          "internalType": "string",
          "name": "permission",
          "type": "string"
        }
      ],
      "name": "PermissionRevoked",
      "type": "event"
    },
    {
      "anonymous": false,
      "inputs": [],
      "name": "PlatformInitialized",
      "type": "event"
    },
    {
      "inputs": [
        {
          "internalType": "address",
          "name": "upgrader",
          "type": "address"
        }
      ],
      "name": "addContractUpgrader",
      "outputs": [],
      "stateMutability": "nonpayable",
      "type": "function"
    },
    {
      "inputs": [
        {
          "internalType": "address",
          "name": "",
          "type": "address"
        }
      ],
      "name": "authorizedContractUpgraders",
      "outputs": [
        {
          "internalType": "bool",
          "name": "",
          "type": "bool"
        }
      ],
      "stateMutability": "view",
      "type": "function"
    },
    {
      "inputs": [
        {
          "internalType": "address",
          "name": "",
          "type": "address"
        }
      ],
      "name": "authorizedContracts",
      "outputs": [
        {
          "internalType": "bool",
          "name": "",
          "type": "bool"
        }
      ],
      "stateMutability": "view",
      "type": "function"
    },
    {
      "inputs": [
        {
          "internalType": "address",
          "name": "",
          "type": "address"
        },
        {
          "internalType": "string",
          "name": "",
          "type": "string"
        }
      ],
      "name": "contractPermissions",
      "outputs": [
        {
          "internalType": "bool",
          "name": "",
          "type": "bool"
        }
      ],
      "stateMutability": "view",
      "type": "function"
    },
    {
      "inputs": [
        {
          "internalType": "string",
          "name": "",
          "type": "string"
        }
      ],
      "name": "contractRegistry",
      "outputs": [
        {
          "internalType": "address",
          "name": "",
          "type": "address"
        }
      ],
      "stateMutability": "view",
      "type": "function"
    },
    {
      "inputs": [
        {
          "internalType": "string",
          "name": "name",
          "type": "string"
        },
        {
          "internalType": "address",
          "name": "newContract",
          "type": "address"
        }
      ],
      "name": "emergencyUpgradeContract",
      "outputs": [],
      "stateMutability": "nonpayable",
      "type": "function"
    },
    {
      "inputs": [],
      "name": "eventOrganizerContract",
      "outputs": [
        {
          "internalType": "address",
          "name": "",
          "type": "address"
        }
      ],
      "stateMutability": "view",
      "type": "function"
    },
    {
      "inputs": [],
      "name": "eventRefundContract",
      "outputs": [
        {
          "internalType": "address",
          "name": "",
          "type": "address"
        }
      ],
      "stateMutability": "view",
      "type": "function"
    },
    {
      "inputs": [],
      "name": "eventReviewContract",
      "outputs": [
        {
          "internalType": "address",
          "name": "",
          "type": "address"
        }
      ],
      "stateMutability": "view",
      "type": "function"
    },
    {
      "inputs": [],
      "name": "eventStatisticsContract",
      "outputs": [
        {
          "internalType": "address",
          "name": "",
          "type": "address"
        }
      ],
      "stateMutability": "view",
      "type": "function"
    },
    {
      "inputs": [],
      "name": "getAllPlatformContracts",
      "outputs": [
        {
          "internalType": "address",
          "name": "eventOrganizer",
          "type": "address"
        },
        {
          "internalType": "address",
          "name": "universalValidator",
          "type": "address"
        },
        {
          "internalType": "address",
          "name": "userProfile",
          "type": "address"
        },
        {
          "internalType": "address",
          "name": "eventReview",
          "type": "address"
        },
        {
          "internalType": "address",
          "name": "notificationSystem",
          "type": "address"
        },
        {
          "internalType": "address",
          "name": "eventStatistics",
          "type": "address"
        },
        {
          "internalType": "address",
          "name": "ticketManagement",
          "type": "address"
        },
        {
          "internalType": "address",
          "name": "nftMarketplace",
          "type": "address"
        },
        {
          "internalType": "address",
          "name": "eventRefund",
          "type": "address"
        }
      ],
      "stateMutability": "view",
      "type": "function"
    },
    {
      "inputs": [
        {
          "internalType": "string",
          "name": "name",
          "type": "string"
        }
      ],
      "name": "getContractAddress",
      "outputs": [
        {
          "internalType": "address",
          "name": "",
          "type": "address"
        }
      ],
      "stateMutability": "view",
      "type": "function"
    },
    {
      "inputs": [],
      "name": "getPlatformBalance",
      "outputs": [
        {
          "internalType": "uint256",
          "name": "",
          "type": "uint256"
        }
      ],
      "stateMutability": "view",
      "type": "function"
    },
    {
      "inputs": [],
      "name": "getPlatformContracts",
      "outputs": [
        {
          "internalType": "address",
          "name": "eventOrganizer",
          "type": "address"
        },
        {
          "internalType": "address",
          "name": "universalValidator",
          "type": "address"
        },
        {
          "internalType": "address",
          "name": "userProfile",
          "type": "address"
        },
        {
          "internalType": "address",
          "name": "eventReview",
          "type": "address"
        },
        {
          "internalType": "address",
          "name": "notificationSystem",
          "type": "address"
        },
        {
          "internalType": "address",
          "name": "eventStatistics",
          "type": "address"
        },
        {
          "internalType": "address",
          "name": "ticketManagement",
          "type": "address"
        }
      ],
      "stateMutability": "view",
      "type": "function"
    },
    {
      "inputs": [
        {
          "internalType": "address",
          "name": "contractAddr",
          "type": "address"
        },
        {
          "internalType": "string",
          "name": "permission",
          "type": "string"
        }
      ],
      "name": "grantPermission",
      "outputs": [],
      "stateMutability": "nonpayable",
      "type": "function"
    },
    {
      "inputs": [
        {
          "internalType": "string",
          "name": "contractName",
          "type": "string"
        },
        {
          "internalType": "address",
          "name": "caller",
          "type": "address"
        }
      ],
      "name": "hasPermission",
      "outputs": [
        {
          "internalType": "bool",
          "name": "",
          "type": "bool"
        }
      ],
      "stateMutability": "view",
      "type": "function"
    },
    {
      "inputs": [
        {
          "internalType": "address",
          "name": "contractAddr",
          "type": "address"
        }
      ],
      "name": "isAuthorizedContract",
      "outputs": [
        {
          "internalType": "bool",
          "name": "",
          "type": "bool"
        }
      ],
      "stateMutability": "view",
      "type": "function"
    },
    {
      "inputs": [
        {
          "internalType": "address",
          "name": "addr",
          "type": "address"
        }
      ],
      "name": "isAuthorizedContractUpgrader",
      "outputs": [
        {
          "internalType": "bool",
          "name": "",
          "type": "bool"
        }
      ],
      "stateMutability": "view",
      "type": "function"
    },
    {
      "inputs": [],
      "name": "nftMarketplaceContract",
      "outputs": [
        {
          "internalType": "address",
          "name": "",
          "type": "address"
        }
      ],
      "stateMutability": "view",
      "type": "function"
    },
    {
      "inputs": [],
      "name": "notificationSystemContract",
      "outputs": [
        {
          "internalType": "address",
          "name": "",
          "type": "address"
        }
      ],
      "stateMutability": "view",
      "type": "function"
    },
    {
      "inputs": [],
      "name": "owner",
      "outputs": [
        {
          "internalType": "address",
          "name": "",
          "type": "address"
        }
      ],
      "stateMutability": "view",
      "type": "function"
    },
    {
      "inputs": [],
      "name": "pausePlatform",
      "outputs": [],
      "stateMutability": "nonpayable",
      "type": "function"
    },
    {
      "inputs": [],
      "name": "platformPaused",
      "outputs": [
        {
          "internalType": "bool",
          "name": "",
          "type": "bool"
        }
      ],
      "stateMutability": "view",
      "type": "function"
    },
    {
      "inputs": [
        {
          "internalType": "address",
          "name": "_nftMarketplace",
          "type": "address"
        },
        {
          "internalType": "address",
          "name": "_eventRefund",
          "type": "address"
        }
      ],
      "name": "registerAdditionalContracts",
      "outputs": [],
      "stateMutability": "nonpayable",
      "type": "function"
    },
    {
      "inputs": [
        {
          "internalType": "string",
          "name": "name",
          "type": "string"
        },
        {
          "internalType": "address",
          "name": "contractAddress",
          "type": "address"
        }
      ],
      "name": "registerContract",
      "outputs": [],
      "stateMutability": "nonpayable",
      "type": "function"
    },
    {
      "inputs": [
        {
          "internalType": "address",
          "name": "upgrader",
          "type": "address"
        }
      ],
      "name": "removeContractUpgrader",
      "outputs": [],
      "stateMutability": "nonpayable",
      "type": "function"
    },
    {
      "inputs": [],
      "name": "renounceOwnership",
      "outputs": [],
      "stateMutability": "nonpayable",
      "type": "function"
    },
    {
      "inputs": [
        {
          "internalType": "address",
          "name": "contractAddr",
          "type": "address"
        },
        {
          "internalType": "string",
          "name": "permission",
          "type": "string"
        }
      ],
      "name": "revokePermission",
      "outputs": [],
      "stateMutability": "nonpayable",
      "type": "function"
    },
    {
      "inputs": [
        {
          "internalType": "address",
          "name": "_eventOrganizer",
          "type": "address"
        },
        {
          "internalType": "address",
          "name": "_universalValidator",
          "type": "address"
        },
        {
          "internalType": "address",
          "name": "_userProfile",
          "type": "address"
        },
        {
          "internalType": "address",
          "name": "_eventReview",
          "type": "address"
        },
        {
          "internalType": "address",
          "name": "_notificationSystem",
          "type": "address"
        },
        {
          "internalType": "address",
          "name": "_eventStatistics",
          "type": "address"
        },
        {
          "internalType": "address",
          "name": "_ticketManagement",
          "type": "address"
        }
      ],
      "name": "setupPlatform",
      "outputs": [],
      "stateMutability": "nonpayable",
      "type": "function"
    },
    {
      "inputs": [],
      "name": "ticketManagementContract",
      "outputs": [
        {
          "internalType": "address",
          "name": "",
          "type": "address"
        }
      ],
      "stateMutability": "view",
      "type": "function"
    },
    {
      "inputs": [
        {
          "internalType": "address",
          "name": "newOwner",
          "type": "address"
        }
      ],
      "name": "transferOwnership",
      "outputs": [],
      "stateMutability": "nonpayable",
      "type": "function"
    },
    {
      "inputs": [],
      "name": "universalValidatorContract",
      "outputs": [
        {
          "internalType": "address",
          "name": "",
          "type": "address"
        }
      ],
      "stateMutability": "view",
      "type": "function"
    },
    {
      "inputs": [],
      "name": "unpausePlatform",
      "outputs": [],
      "stateMutability": "nonpayable",
      "type": "function"
    },
    {
      "inputs": [],
      "name": "userProfileContract",
      "outputs": [
        {
          "internalType": "address",
          "name": "",
          "type": "address"
        }
      ],
      "stateMutability": "view",
      "type": "function"
    },
    {
      "inputs": [
        {
          "internalType": "address payable",
          "name": "to",
          "type": "address"
        },
        {
          "internalType": "uint256",
          "name": "amount",
          "type": "uint256"
        }
      ],
      "name": "withdrawFunds",
      "outputs": [],
      "stateMutability": "nonpayable",
      "type": "function"
    },
    {
      "stateMutability": "payable",
      "type": "receive"
    }
  ],
  "bytecode": "0x608080604052346100a85733156100925760008054336001600160a01b0319821681178355604051927f3d8e80a8ed0e73d46a33913eaaef3e7cb15c9bc6ce7c40eccbde474f6d65444f929091906001600160a01b03167f8be0079c531659141344cd1fd0a4f28419497f9722a3daafe3b4186f6b6457e08380a360ff19600e5416600e5580a16137be90816100ae8239f35b631e4fbdf760e01b815260006004820152602490fd5b600080fdfe6080604052600436101561001b575b361561001957600080fd5b005b60003560e01c806304433bbc14612a0c5780630beb11b71461334c5780630e64f35d146133235780631a9ba7eb146132fe5780631c5f3099146132d557806333cef944146132ac5780633b43692114613283578063490acd09146132605780634c9d8463146131e65780634daeb0d7146130b657806366d0ead314610eab5780636b78c29b146131be5780636ff891591461314e578063715018a6146130f557806371a8b3c3146130b65780637f3c2c2814612d6a5780638da5cb5b14612d4157806390f110b814612d18578063a2105dbb14612cef578063a259bd4e14612cb0578063b1c21c3114612c87578063ba9bf75714612c6b578063bbd9a5fa14612be7578063bf11abac14612ba5578063c107532914612a75578063c805427314612a0c578063ccb8260a14610f51578063d3be8c7614610eea578063d5b9221b14610eab578063ebe7711614610e1b578063ee3c5f6114610d9d578063ef65f77c14610d74578063f1715372146104bb578063f2fde38b146104325763f58643840361000e573461042d576101af36613456565b906101b86135bc565b6001600160a01b0391821691610273906101d3841515613550565b6102616040518451866020928381818a01946101f08183886134db565b8101600a8152030190206001600160601b0360a01b908282825416179055600080516020613749833981519152885184206d22bb32b73a27b933b0b734bd32b960911b8661023c613375565b600e81520152036102885760015416176001555b6040518093819288519283916134db565b8101600a81520301902054169161359c565b600080516020613709833981519152600080a4005b6000805160206136c983398151915288518420600080516020613689833981519152866102b3613375565b601281520152036102cb576002541617600255610250565b600080516020613649833981519152885184206a5573657250726f66696c6560a81b866102f6613375565b600b815201520361030e576003541617600355610250565b600080516020613609833981519152885184206a4576656e7452657669657760a81b86610339613375565b600b8152015203610351576004541617600455610250565b6000805160206135e9833981519152885184206000805160206136698339815191528661037c613375565b60128152015203610394576005541617600555610250565b600080516020613729833981519152885184206e4576656e745374617469737469637360881b866103c3613375565b600f81520152036103db576006541617600655610250565b6000805160206136a9833981519152885184206f151a58dad95d13585b9859d95b595b9d60821b8661040b613375565b6010815201521461041e575b5050610250565b60075416176007558638610417565b600080fd5b3461042d57602036600319011261042d5761044b61342a565b6104536135bc565b6001600160a01b039081169081156104a257600054826001600160601b0360a01b821617600055167f8be0079c531659141344cd1fd0a4f28419497f9722a3daafe3b4186f6b6457e0600080a3005b604051631e4fbdf760e01b815260006004820152602490fd5b3461042d57604036600319011261042d576104d461342a565b6104dc613440565b906104e56135bc565b6104ed613375565b90600e82526d4e46544d61726b6574706c61636560901b60208301526105116135bc565b6105256001600160a01b0382161515613550565b60405182516105388183602087016134db565b810190600a825260208160018060a01b03930301902054169060405160208185516105668183858a016134db565b600a9082019081520301902080546001600160a01b0319166001600160a01b0383169081179091556000908152600d60209081526040909120805460ff19166001179055835184820120600080516020613749833981519152916d22bb32b73a27b933b0b734bd32b960911b906105db613375565b600e8152015203610a9757600180546001600160a01b0319166001600160a01b0383161790555b61060b8361359c565b6001600160a01b038216906000805160206136e9833981519152600080a381610a69575b50505061063a613375565b90600b82526a115d995b9d1499599d5b9960aa1b602083015261065b6135bc565b61066f6001600160a01b0382161515613550565b60405182516106828183602087016134db565b810190600a825260208160018060a01b03930301902054169060405160208185516106b08183858a016134db565b600a9082019081520301902080546001600160a01b0319166001600160a01b0383169081179091556000908152600d60209081526040909120805460ff19166001179055835184820120600080516020613749833981519152916d22bb32b73a27b933b0b734bd32b960911b90610725613375565b600e815201520361078c57600180546001600160a01b0319166001600160a01b0383161790555b6001600160a01b03811661075f8461359c565b6000805160206136e9833981519152600080a38161077957005b6001600160a01b0316916102739061359c565b6000805160206136c98339815191528351602085012060008051602061368983398151915260206107bb613375565b601281520152036107e757600280546001600160a01b0319166001600160a01b0383161790555b61074c565b600080516020613649833981519152835160208501206a5573657250726f66696c6560a81b6020610816613375565b600b815201520361084157600380546001600160a01b0319166001600160a01b03831617905561074c565b600080516020613609833981519152835160208501206a4576656e7452657669657760a81b6020610870613375565b600b815201520361089b57600480546001600160a01b0319166001600160a01b03831617905561074c565b6000805160206135e98339815191528351602085012060008051602061366983398151915260206108ca613375565b601281520152036108f557600580546001600160a01b0319166001600160a01b03831617905561074c565b600080516020613729833981519152835160208501206e4576656e745374617469737469637360881b6020610928613375565b600f815201520361095357600680546001600160a01b0319166001600160a01b03831617905561074c565b6000805160206136a9833981519152835160208501206f151a58dad95d13585b9859d95b595b9d60821b6020610987613375565b601081520152036109b257600780546001600160a01b0319166001600160a01b03831617905561074c565b600080516020613629833981519152835160208501206d4e46544d61726b6574706c61636560901b60206109e4613375565b600e8152015203610a0f57600880546001600160a01b0319166001600160a01b03831617905561074c565b600080516020613769833981519152835160208501206a115d995b9d1499599d5b9960aa1b6020610a3e613375565b600b81520152036107e257600980546001600160a01b0319166001600160a01b03831617905561074c565b6001600160a01b031691610a7c9061359c565b600080516020613709833981519152600080a481808061062f565b6000805160206136c9833981519152835160208501206000805160206136898339815191526020610ac6613375565b60128152015203610af257600280546001600160a01b0319166001600160a01b0383161790555b610602565b600080516020613649833981519152835160208501206a5573657250726f66696c6560a81b6020610b21613375565b600b8152015203610b4c57600380546001600160a01b0319166001600160a01b038316179055610602565b600080516020613609833981519152835160208501206a4576656e7452657669657760a81b6020610b7b613375565b600b8152015203610ba657600480546001600160a01b0319166001600160a01b038316179055610602565b6000805160206135e9833981519152835160208501206000805160206136698339815191526020610bd5613375565b60128152015203610c0057600580546001600160a01b0319166001600160a01b038316179055610602565b600080516020613729833981519152835160208501206e4576656e745374617469737469637360881b6020610c33613375565b600f8152015203610c5e57600680546001600160a01b0319166001600160a01b038316179055610602565b6000805160206136a9833981519152835160208501206f151a58dad95d13585b9859d95b595b9d60821b6020610c92613375565b60108152015203610cbd57600780546001600160a01b0319166001600160a01b038316179055610602565b600080516020613629833981519152835160208501206d4e46544d61726b6574706c61636560901b6020610cef613375565b600e8152015203610d1a57600880546001600160a01b0319166001600160a01b038316179055610602565b600080516020613769833981519152835160208501206a115d995b9d1499599d5b9960aa1b6020610d49613375565b600b8152015203610aed57600980546001600160a01b0319166001600160a01b038316179055610602565b3461042d57600036600319011261042d576009546040516001600160a01b039091168152602090f35b3461042d57600036600319011261042d5761012060018060a01b038060015416908060025416908060035416816004541682600554168360065416918460075416938560085416956009541696604051988952602089015260408801526060870152608086015260a085015260c084015260e0830152610100820152f35b3461042d57602036600319011261042d57610e3461342a565b610e3c6135bc565b6001600160a01b03168015610e66576000908152600b60205260409020805460ff19166001179055005b60405162461bcd60e51b815260206004820152601860248201527f496e76616c6964207570677261646572206164647265737300000000000000006044820152606490fd5b3461042d57602036600319011261042d576001600160a01b03610ecc61342a565b16600052600d602052602060ff604060002054166040519015158152f35b3461042d57600036600319011261042d5760e060018060a01b03806001541690806002541690806003541681600454168260055416918360065416936007541694604051968752602087015260408601526060850152608084015260a083015260c0820152f35b3461042d5760e036600319011261042d57610f6a61342a565b610f72613440565b6044356001600160a01b038116810361042d576064356001600160a01b038116810361042d57608435916001600160a01b038316830361042d5760a435936001600160a01b038516850361042d5760c435956001600160a01b038716870361042d57610fdc6135bc565b610fe4613375565b90600e82526d22bb32b73a27b933b0b734bd32b960911b60208301526110086135bc565b61101c6001600160a01b0382161515613550565b6040518251906110308282602087016134db565b600a8282015260208160018060a01b0393810103019020541690604051602081855161105f8183858a016134db565b600a9082019081520301902080546001600160a01b0319166001600160a01b0383169081179091556000908152600d60209081526040909120805460ff19166001179055835184820120600080516020613749833981519152916d22bb32b73a27b933b0b734bd32b960911b906110d4613375565b600e815201520361272f57600180546001600160a01b0319166001600160a01b0383161790555b6111048361359c565b6001600160a01b038216906000805160206136e9833981519152600080a381612701575b505050611133613375565b906012825260008051602061368983398151915260208301526111546135bc565b6111686001600160a01b0382161515613550565b604051825161117b8183602087016134db565b810190600a825260208160018060a01b03930301902054169060405160208185516111a98183858a016134db565b600a9082019081520301902080546001600160a01b0319166001600160a01b0383169081179091556000908152600d60209081526040909120805460ff19166001179055835184820120600080516020613749833981519152916d22bb32b73a27b933b0b734bd32b960911b9061121e613375565b600e815201520361242457600180546001600160a01b0319166001600160a01b0383161790555b6001600160a01b0381166112588461359c565b6000805160206136e9833981519152600080a3816123f6575b50505061127c613375565b90600b82526a5573657250726f66696c6560a81b602083015261129d6135bc565b6112b16001600160a01b0382161515613550565b60405182516112c48183602087016134db565b810190600a825260208160018060a01b03930301902054169060405160208185516112f28183858a016134db565b600a9082019081520301902080546001600160a01b0319166001600160a01b0383169081179091556000908152600d60209081526040909120805460ff19166001179055835184820120600080516020613749833981519152916d22bb32b73a27b933b0b734bd32b960911b90611367613375565b600e815201520361211957600180546001600160a01b0319166001600160a01b0383161790555b6001600160a01b0381166113a18461359c565b6000805160206136e9833981519152600080a3816120eb575b5050506113c5613375565b90600b82526a4576656e7452657669657760a81b60208301526113e66135bc565b6113fa6001600160a01b0382161515613550565b604051825161140d8183602087016134db565b810190600a825260208160018060a01b039303019020541690604051602081855161143b8183858a016134db565b600a9082019081520301902080546001600160a01b0319166001600160a01b0383169081179091556000908152600d60209081526040909120805460ff19166001179055835184820120600080516020613749833981519152916d22bb32b73a27b933b0b734bd32b960911b906114b0613375565b600e8152015203611e0e57600180546001600160a01b0319166001600160a01b0383161790555b6001600160a01b0381166114ea8461359c565b6000805160206136e9833981519152600080a381611de0575b50505061150e613375565b9060128252600080516020613669833981519152602083015261152f6135bc565b6115436001600160a01b0382161515613550565b60405182516115568183602087016134db565b810190600a825260208160018060a01b03930301902054169060405160208185516115848183858a016134db565b600a9082019081520301902080546001600160a01b0319166001600160a01b0383169081179091556000908152600d60209081526040909120805460ff19166001179055835184820120600080516020613749833981519152916d22bb32b73a27b933b0b734bd32b960911b906115f9613375565b600e8152015203611b0357600180546001600160a01b0319166001600160a01b0383161790555b6001600160a01b0381166116338461359c565b6000805160206136e9833981519152600080a381611ad5575b505050611657613375565b90600f82526e4576656e745374617469737469637360881b602083015261167c6135bc565b6116906001600160a01b0382161515613550565b60405182516116a38183602087016134db565b810190600a825260208160018060a01b03930301902054169060405160208185516116d18183858a016134db565b600a9082019081520301902080546001600160a01b0319166001600160a01b0383169081179091556000908152600d60209081526040909120805460ff19166001179055835184820120600080516020613749833981519152916d22bb32b73a27b933b0b734bd32b960911b90611746613375565b600e81520152036117f857600180546001600160a01b0319166001600160a01b0383161790555b6001600160a01b0381166117808461359c565b6000805160206136e9833981519152600080a3816117ca575b5050506117a4613375565b90601082526f151a58dad95d13585b9859d95b595b9d60821b602083015261065b6135bc565b6001600160a01b0316916117dd9061359c565b600080516020613709833981519152600080a4818080611799565b6000805160206136c9833981519152835160208501206000805160206136898339815191526020611827613375565b6012815201520361185357600280546001600160a01b0319166001600160a01b0383161790555b61176d565b600080516020613649833981519152835160208501206a5573657250726f66696c6560a81b6020611882613375565b600b81520152036118ad57600380546001600160a01b0319166001600160a01b03831617905561176d565b600080516020613609833981519152835160208501206a4576656e7452657669657760a81b60206118dc613375565b600b815201520361190757600480546001600160a01b0319166001600160a01b03831617905561176d565b6000805160206135e9833981519152835160208501206000805160206136698339815191526020611936613375565b6012815201520361196157600580546001600160a01b0319166001600160a01b03831617905561176d565b600080516020613729833981519152835160208501206e4576656e745374617469737469637360881b6020611994613375565b600f81520152036119bf57600680546001600160a01b0319166001600160a01b03831617905561176d565b6000805160206136a9833981519152835160208501206f151a58dad95d13585b9859d95b595b9d60821b60206119f3613375565b60108152015203611a1e57600780546001600160a01b0319166001600160a01b03831617905561176d565b600080516020613629833981519152835160208501206d4e46544d61726b6574706c61636560901b6020611a50613375565b600e8152015203611a7b57600880546001600160a01b0319166001600160a01b03831617905561176d565b600080516020613769833981519152835160208501206a115d995b9d1499599d5b9960aa1b6020611aaa613375565b600b815201520361184e57600980546001600160a01b0319166001600160a01b03831617905561176d565b6001600160a01b031691611ae89061359c565b600080516020613709833981519152600080a482808061164c565b6000805160206136c9833981519152835160208501206000805160206136898339815191526020611b32613375565b60128152015203611b5e57600280546001600160a01b0319166001600160a01b0383161790555b611620565b600080516020613649833981519152835160208501206a5573657250726f66696c6560a81b6020611b8d613375565b600b8152015203611bb857600380546001600160a01b0319166001600160a01b038316179055611620565b600080516020613609833981519152835160208501206a4576656e7452657669657760a81b6020611be7613375565b600b8152015203611c1257600480546001600160a01b0319166001600160a01b038316179055611620565b6000805160206135e9833981519152835160208501206000805160206136698339815191526020611c41613375565b60128152015203611c6c57600580546001600160a01b0319166001600160a01b038316179055611620565b600080516020613729833981519152835160208501206e4576656e745374617469737469637360881b6020611c9f613375565b600f8152015203611cca57600680546001600160a01b0319166001600160a01b038316179055611620565b6000805160206136a9833981519152835160208501206f151a58dad95d13585b9859d95b595b9d60821b6020611cfe613375565b60108152015203611d2957600780546001600160a01b0319166001600160a01b038316179055611620565b600080516020613629833981519152835160208501206d4e46544d61726b6574706c61636560901b6020611d5b613375565b600e8152015203611d8657600880546001600160a01b0319166001600160a01b038316179055611620565b600080516020613769833981519152835160208501206a115d995b9d1499599d5b9960aa1b6020611db5613375565b600b8152015203611b5957600980546001600160a01b0319166001600160a01b038316179055611620565b6001600160a01b031691611df39061359c565b600080516020613709833981519152600080a4838080611503565b6000805160206136c9833981519152835160208501206000805160206136898339815191526020611e3d613375565b60128152015203611e6957600280546001600160a01b0319166001600160a01b0383161790555b6114d7565b600080516020613649833981519152835160208501206a5573657250726f66696c6560a81b6020611e98613375565b600b8152015203611ec357600380546001600160a01b0319166001600160a01b0383161790556114d7565b600080516020613609833981519152835160208501206a4576656e7452657669657760a81b6020611ef2613375565b600b8152015203611f1d57600480546001600160a01b0319166001600160a01b0383161790556114d7565b6000805160206135e9833981519152835160208501206000805160206136698339815191526020611f4c613375565b60128152015203611f7757600580546001600160a01b0319166001600160a01b0383161790556114d7565b600080516020613729833981519152835160208501206e4576656e745374617469737469637360881b6020611faa613375565b600f8152015203611fd557600680546001600160a01b0319166001600160a01b0383161790556114d7565b6000805160206136a9833981519152835160208501206f151a58dad95d13585b9859d95b595b9d60821b6020612009613375565b6010815201520361203457600780546001600160a01b0319166001600160a01b0383161790556114d7565b600080516020613629833981519152835160208501206d4e46544d61726b6574706c61636560901b6020612066613375565b600e815201520361209157600880546001600160a01b0319166001600160a01b0383161790556114d7565b600080516020613769833981519152835160208501206a115d995b9d1499599d5b9960aa1b60206120c0613375565b600b8152015203611e6457600980546001600160a01b0319166001600160a01b0383161790556114d7565b6001600160a01b0316916120fe9061359c565b600080516020613709833981519152600080a48480806113ba565b6000805160206136c9833981519152835160208501206000805160206136898339815191526020612148613375565b6012815201520361217457600280546001600160a01b0319166001600160a01b0383161790555b61138e565b600080516020613649833981519152835160208501206a5573657250726f66696c6560a81b60206121a3613375565b600b81520152036121ce57600380546001600160a01b0319166001600160a01b03831617905561138e565b600080516020613609833981519152835160208501206a4576656e7452657669657760a81b60206121fd613375565b600b815201520361222857600480546001600160a01b0319166001600160a01b03831617905561138e565b6000805160206135e9833981519152835160208501206000805160206136698339815191526020612257613375565b6012815201520361228257600580546001600160a01b0319166001600160a01b03831617905561138e565b600080516020613729833981519152835160208501206e4576656e745374617469737469637360881b60206122b5613375565b600f81520152036122e057600680546001600160a01b0319166001600160a01b03831617905561138e565b6000805160206136a9833981519152835160208501206f151a58dad95d13585b9859d95b595b9d60821b6020612314613375565b6010815201520361233f57600780546001600160a01b0319166001600160a01b03831617905561138e565b600080516020613629833981519152835160208501206d4e46544d61726b6574706c61636560901b6020612371613375565b600e815201520361239c57600880546001600160a01b0319166001600160a01b03831617905561138e565b600080516020613769833981519152835160208501206a115d995b9d1499599d5b9960aa1b60206123cb613375565b600b815201520361216f57600980546001600160a01b0319166001600160a01b03831617905561138e565b6001600160a01b0316916124099061359c565b600080516020613709833981519152600080a4858080611271565b6000805160206136c9833981519152835160208501206000805160206136898339815191526020612453613375565b6012815201520361247f57600280546001600160a01b0319166001600160a01b0383161790555b611245565b600080516020613649833981519152835160208501206a5573657250726f66696c6560a81b60206124ae613375565b600b81520152036124d957600380546001600160a01b0319166001600160a01b038316179055611245565b600080516020613609833981519152835160208501206a4576656e7452657669657760a81b6020612508613375565b600b815201520361253357600480546001600160a01b0319166001600160a01b038316179055611245565b6000805160206135e9833981519152835160208501206000805160206136698339815191526020612562613375565b6012815201520361258d57600580546001600160a01b0319166001600160a01b038316179055611245565b600080516020613729833981519152835160208501206e4576656e745374617469737469637360881b60206125c0613375565b600f81520152036125eb57600680546001600160a01b0319166001600160a01b038316179055611245565b6000805160206136a9833981519152835160208501206f151a58dad95d13585b9859d95b595b9d60821b602061261f613375565b6010815201520361264a57600780546001600160a01b0319166001600160a01b038316179055611245565b600080516020613629833981519152835160208501206d4e46544d61726b6574706c61636560901b602061267c613375565b600e81520152036126a757600880546001600160a01b0319166001600160a01b038316179055611245565b600080516020613769833981519152835160208501206a115d995b9d1499599d5b9960aa1b60206126d6613375565b600b815201520361247a57600980546001600160a01b0319166001600160a01b038316179055611245565b6001600160a01b0316916127149061359c565b600080516020613709833981519152600080a4868080611128565b6000805160206136c983398151915283516020850120600080516020613689833981519152602061275e613375565b6012815201520361278a57600280546001600160a01b0319166001600160a01b0383161790555b6110fb565b600080516020613649833981519152835160208501206a5573657250726f66696c6560a81b60206127b9613375565b600b81520152036127e457600380546001600160a01b0319166001600160a01b0383161790556110fb565b600080516020613609833981519152835160208501206a4576656e7452657669657760a81b6020612813613375565b600b815201520361283e57600480546001600160a01b0319166001600160a01b0383161790556110fb565b6000805160206135e983398151915283516020850120600080516020613669833981519152602061286d613375565b6012815201520361289857600580546001600160a01b0319166001600160a01b0383161790556110fb565b600080516020613729833981519152835160208501206e4576656e745374617469737469637360881b60206128cb613375565b600f81520152036128f657600680546001600160a01b0319166001600160a01b0383161790556110fb565b6000805160206136a9833981519152835160208501206f151a58dad95d13585b9859d95b595b9d60821b602061292a613375565b6010815201520361295557600780546001600160a01b0319166001600160a01b0383161790556110fb565b600080516020613629833981519152835160208501206d4e46544d61726b6574706c61636560901b6020612987613375565b600e81520152036129b257600880546001600160a01b0319166001600160a01b0383161790556110fb565b600080516020613769833981519152835160208501206a115d995b9d1499599d5b9960aa1b60206129e1613375565b600b815201520361278557600980546001600160a01b0319166001600160a01b0383161790556110fb565b3461042d57602036600319011261042d5760043567ffffffffffffffff811161042d57612a3f60209136906004016133ed565b81612a5360405192838151938492016134db565b600a90820190815281900382019020546040516001600160a01b039091168152f35b3461042d57604036600319011261042d576004356001600160a01b0381169081900361042d5760243590612aa76135bc565b8015612b6057478211612b2457600080809381935af13d15612b1f573d612ad5612ad0826133d1565b6133ab565b908152600060203d92013e5b15612ae857005b60405162461bcd60e51b815260206004820152600f60248201526e151c985b9cd9995c8819985a5b1959608a1b6044820152606490fd5b612ae1565b60405162461bcd60e51b8152602060048201526014602482015273496e73756666696369656e742062616c616e636560601b6044820152606490fd5b60405162461bcd60e51b815260206004820152601960248201527f496e76616c696420726563697069656e742061646472657373000000000000006044820152606490fd5b3461042d57602036600319011261042d57612bbe61342a565b612bc66135bc565b6001600160a01b03166000908152600b60205260409020805460ff19169055005b3461042d57612c667f3e7a939fe856e16ddb4b017165d29dcf6d87c6bc6115a55d7895ec3e7d4c66a1612c1936613498565b9290612c236135bc565b6001600160a01b031692612c38841515613550565b83600052600c602052612c4f6040600020826134fe565b805460ff1916600117905560405191829182613524565b0390a2005b3461042d57600036600319011261042d57602047604051908152f35b3461042d57600036600319011261042d576002546040516001600160a01b039091168152602090f35b3461042d57602060ff612ce3612cc536613498565b6001600160a01b039091166000908152600c855260409020906134fe565b54166040519015158152f35b3461042d57600036600319011261042d576007546040516001600160a01b039091168152602090f35b3461042d57600036600319011261042d576008546040516001600160a01b039091168152602090f35b3461042d57600036600319011261042d576000546040516001600160a01b039091168152602090f35b3461042d57612d7836613456565b612d806135bc565b6001600160a01b0390811691612d97831515613550565b82604051825193602091828181870197612db281838b6134db565b8101600a81520301902054169360405182818651612dd18183876134db565b8101600a815203019020916001600160601b0360a01b92848482541617905583600052600d81526040600020600160ff19825416179055600080516020613749833981519152855183206d22bb32b73a27b933b0b734bd32b960911b83612e36613375565b600e8152015203612e7957505060015416176001555b82612e568261359c565b6000805160206136e9833981519152600080a381612e7057005b6102739061359c565b6000805160206136c98339815191528551832060008051602061368983398151915283612ea4613375565b60128152015203612ebe5750506002541617600255612e4c565b600080516020613649833981519152855183206a5573657250726f66696c6560a81b83612ee9613375565b600b8152015203612f035750506003541617600355612e4c565b600080516020613609833981519152855183206a4576656e7452657669657760a81b83612f2e613375565b600b8152015203612f485750506004541617600455612e4c565b6000805160206135e98339815191528551832060008051602061366983398151915283612f73613375565b60128152015203612f8d5750506005541617600555612e4c565b600080516020613729833981519152855183206e4576656e745374617469737469637360881b83612fbc613375565b600f8152015203612fd65750506006541617600655612e4c565b6000805160206136a9833981519152855183206f151a58dad95d13585b9859d95b595b9d60821b83613006613375565b601081520152036130205750506007541617600755612e4c565b600080516020613629833981519152855183206d4e46544d61726b6574706c61636560901b8361304e613375565b600e81520152036130685750506008541617600855612e4c565b6a115d995b9d1499599d5b9960aa1b600080516020613769833981519152928651902091613094613375565b600b81520152146130a7575b5050612e4c565b600954161760095582846130a0565b3461042d57602036600319011261042d576001600160a01b036130d761342a565b16600052600b602052602060ff604060002054166040519015158152f35b3461042d57600036600319011261042d5761310e6135bc565b600080546001600160a01b0319811682556001600160a01b03167f8be0079c531659141344cd1fd0a4f28419497f9722a3daafe3b4186f6b6457e08280a3005b3461042d57612c667f280695bd728e67c68c12776e30681a8ca746d6122488eab32b7bdec64eb2e73361318036613498565b929061318a6135bc565b60018060a01b03169283600052600c6020526131aa6040600020826134fe565b805460ff1916905560405191829182613524565b3461042d57600036600319011261042d576131d76135bc565b600e805460ff19166001179055005b3461042d5760206131f636613456565b90604051815161320981838786016134db565b600a90820190815281900384019020546001600160a01b039283169216821491821561323c575b50506040519015158152f35b60ff92509061325791600052600c84526040600020906134fe565b54168280613230565b3461042d57600036600319011261042d57602060ff600e54166040519015158152f35b3461042d57600036600319011261042d576004546040516001600160a01b039091168152602090f35b3461042d57600036600319011261042d576005546040516001600160a01b039091168152602090f35b3461042d57600036600319011261042d576003546040516001600160a01b039091168152602090f35b3461042d57600036600319011261042d576133176135bc565b600e805460ff19169055005b3461042d57600036600319011261042d576006546040516001600160a01b039091168152602090f35b3461042d57600036600319011261042d576001546040516001600160a01b039091168152602090f35b604051906040820182811067ffffffffffffffff82111761339557604052565b634e487b7160e01b600052604160045260246000fd5b6040519190601f01601f1916820167ffffffffffffffff81118382101761339557604052565b67ffffffffffffffff811161339557601f01601f191660200190565b81601f8201121561042d57803590613407612ad0836133d1565b928284526020838301011161042d57816000926020809301838601378301015290565b600435906001600160a01b038216820361042d57565b602435906001600160a01b038216820361042d57565b604060031982011261042d576004359067ffffffffffffffff821161042d57613481916004016133ed565b906024356001600160a01b038116810361042d5790565b90604060031983011261042d576004356001600160a01b038116810361042d57916024359067ffffffffffffffff821161042d576134d8916004016133ed565b90565b60005b8381106134ee5750506000910152565b81810151838201526020016134de565b6020906135189282604051948386809551938492016134db565b82019081520301902090565b6040916020825261354481518092816020860152602086860191016134db565b601f01601f1916010190565b1561355757565b60405162461bcd60e51b815260206004820152601860248201527f496e76616c696420636f6e7472616374206164647265737300000000000000006044820152606490fd5b6135b4906020604051928284809451938492016134db565b810103902090565b6000546001600160a01b031633036135d057565b60405163118cdaa760e01b8152336004820152602490fdfe3e2f8bd9b67ca75d24e73a0e5277f66ec8581a1c4c7ca046225e6cfbab1a71550c4a6c0665466025e37390a6d4215447234fec76d4ccf66bbe8d60c1f3ed0869a5c11b0609ca47cbb791b8469512e86848cad6852ae2ccb4271cb85f88dc18f05974b58f6a42f45f2a47a4811052bcabcf3d9059a88eabfd33c68a0d7bd05be14e6f74696669636174696f6e53797374656d0000000000000000000000000000556e6976657273616c56616c696461746f7200000000000000000000000000003f8c7e1590f1d888b5c611e3fe7e767bf3659eb5da21bb1a2179ce43e04347004a29b2511e9677b9a3efb882c06bdf212677a6dbd6b327d353908dfb8c40328b2a88e68a891ddb61f7aebfdeefd9fb74964fcd5371b692ea59cca73fc58f48050441abf574021357ac657a1ea4fbfa96c4c3f39a68bc29c9d793d337c0e86fada382c3f56b357bfcb30d9e3da995a6826ac8a519e735541fbfe784f58446ab7d43c90c9ed788b1c7912024fe911e0c321a98f7d32f186bb16805a457fb06f32c20525c6a8b3d43be2f04487aed8997ef9a831db21dadd1822b68199a42bd1e8ba264697066735822122075634f78cd74becaaa922b75c4b9d1b0250059e285e517cfbd456c010f10438164736f6c63430008160033",
  "linkReferences": {},
  "deployedLinkReferences": {}
}