{
  "_format": "hh-sol-artifact-1",
  "contractName": "EventTicketV3",
  "sourceName": "contracts/V2/EventTicketV2.sol",
  "abi": [
    {
      "inputs": [
        {
          "internalType": "uint256",
          "name": "_totalSupply",
          "type": "uint256"
        },
        {
          "internalType": "uint256",
          "name": "_ticketPrice",
          "type": "uint256"
        },
        {
          "internalType": "string",
          "name": "_nftName",
          "type": "string"
        },
        {
          "internalType": "string",
          "name": "_nftSymbol",
          "type": "string"
        },
        {
          "internalType": "string",
          "name": "_eventName",
          "type": "string"
        },
        {
          "internalType": "uint256",
          "name": "_eventDate",
          "type": "uint256"
        },
        {
          "internalType": "string",
          "name": "_eventVenue",
          "type": "string"
        },
        {
          "internalType": "string",
          "name": "_venueAddress",
          "type": "string"
        },
        {
          "internalType": "string",
          "name": "_venueCoordinates",
          "type": "string"
        },
        {
          "internalType": "string",
          "name": "_eventImageUri",
          "type": "string"
        },
        {
          "internalType": "string",
          "name": "_metadataUri",
          "type": "string"
        },
        {
          "internalType": "address",
          "name": "_eventOrganizerContract",
          "type": "address"
        },
        {
          "internalType": "string",
          "name": "_eventDescription",
          "type": "string"
        }
      ],
      "stateMutability": "nonpayable",
      "type": "constructor"
    },
    {
      "inputs": [],
      "name": "AlreadyReportedFraud",
      "type": "error"
    },
    {
      "inputs": [],
      "name": "CannotWithdrawWithPendingRefunds",
      "type": "error"
    },
    {
      "inputs": [],
      "name": "ERC721EnumerableForbiddenBatchMint",
      "type": "error"
    },
    {
      "inputs": [
        {
          "internalType": "address",
          "name": "sender",
          "type": "address"
        },
        {
          "internalType": "uint256",
          "name": "tokenId",
          "type": "uint256"
        },
        {
          "internalType": "address",
          "name": "owner",
          "type": "address"
        }
      ],
      "name": "ERC721IncorrectOwner",
      "type": "error"
    },
    {
      "inputs": [
        {
          "internalType": "address",
          "name": "operator",
          "type": "address"
        },
        {
          "internalType": "uint256",
          "name": "tokenId",
          "type": "uint256"
        }
      ],
      "name": "ERC721InsufficientApproval",
      "type": "error"
    },
    {
      "inputs": [
        {
          "internalType": "address",
          "name": "approver",
          "type": "address"
        }
      ],
      "name": "ERC721InvalidApprover",
      "type": "error"
    },
    {
      "inputs": [
        {
          "internalType": "address",
          "name": "operator",
          "type": "address"
        }
      ],
      "name": "ERC721InvalidOperator",
      "type": "error"
    },
    {
      "inputs": [
        {
          "internalType": "address",
          "name": "owner",
          "type": "address"
        }
      ],
      "name": "ERC721InvalidOwner",
      "type": "error"
    },
    {
      "inputs": [
        {
          "internalType": "address",
          "name": "receiver",
          "type": "address"
        }
      ],
      "name": "ERC721InvalidReceiver",
      "type": "error"
    },
    {
      "inputs": [
        {
          "internalType": "address",
          "name": "sender",
          "type": "address"
        }
      ],
      "name": "ERC721InvalidSender",
      "type": "error"
    },
    {
      "inputs": [
        {
          "internalType": "uint256",
          "name": "tokenId",
          "type": "uint256"
        }
      ],
      "name": "ERC721NonexistentToken",
      "type": "error"
    },
    {
      "inputs": [
        {
          "internalType": "address",
          "name": "owner",
          "type": "address"
        },
        {
          "internalType": "uint256",
          "name": "index",
          "type": "uint256"
        }
      ],
      "name": "ERC721OutOfBoundsIndex",
      "type": "error"
    },
    {
      "inputs": [],
      "name": "EmergencyRefundNotEnabled",
      "type": "error"
    },
    {
      "inputs": [],
      "name": "EventIsCancelled",
      "type": "error"
    },
    {
      "inputs": [],
      "name": "EventIsPaused",
      "type": "error"
    },
    {
      "inputs": [],
      "name": "EventNotEnded",
      "type": "error"
    },
    {
      "inputs": [],
      "name": "FundsAlreadyWithdrawn",
      "type": "error"
    },
    {
      "inputs": [],
      "name": "FundsStillLocked",
      "type": "error"
    },
    {
      "inputs": [],
      "name": "InsufficientBalance",
      "type": "error"
    },
    {
      "inputs": [],
      "name": "InsufficientPayment",
      "type": "error"
    },
    {
      "inputs": [],
      "name": "NoFundsToWithdraw",
      "type": "error"
    },
    {
      "inputs": [],
      "name": "NoTicketsOwned",
      "type": "error"
    },
    {
      "inputs": [],
      "name": "NoUnusedTickets",
      "type": "error"
    },
    {
      "inputs": [],
      "name": "NotTokenOwner",
      "type": "error"
    },
    {
      "inputs": [
        {
          "internalType": "address",
          "name": "owner",
          "type": "address"
        }
      ],
      "name": "OwnableInvalidOwner",
      "type": "error"
    },
    {
      "inputs": [
        {
          "internalType": "address",
          "name": "account",
          "type": "address"
        }
      ],
      "name": "OwnableUnauthorizedAccount",
      "type": "error"
    },
    {
      "inputs": [],
      "name": "RefundDeadlinePassed",
      "type": "error"
    },
    {
      "inputs": [],
      "name": "RefundTransferFailed",
      "type": "error"
    },
    {
      "inputs": [],
      "name": "RefundsAreEnabled",
      "type": "error"
    },
    {
      "inputs": [],
      "name": "RefundsNotEnabled",
      "type": "error"
    },
    {
      "inputs": [],
      "name": "SoldOut",
      "type": "error"
    },
    {
      "inputs": [],
      "name": "TicketAlreadyRefunded",
      "type": "error"
    },
    {
      "inputs": [],
      "name": "TicketAlreadyUsed",
      "type": "error"
    },
    {
      "inputs": [],
      "name": "WithdrawalFailed",
      "type": "error"
    },
    {
      "anonymous": false,
      "inputs": [
        {
          "indexed": true,
          "internalType": "address",
          "name": "owner",
          "type": "address"
        },
        {
          "indexed": true,
          "internalType": "address",
          "name": "approved",
          "type": "address"
        },
        {
          "indexed": true,
          "internalType": "uint256",
          "name": "tokenId",
          "type": "uint256"
        }
      ],
      "name": "Approval",
      "type": "event"
    },
    {
      "anonymous": false,
      "inputs": [
        {
          "indexed": true,
          "internalType": "address",
          "name": "owner",
          "type": "address"
        },
        {
          "indexed": true,
          "internalType": "address",
          "name": "operator",
          "type": "address"
        },
        {
          "indexed": false,
          "internalType": "bool",
          "name": "approved",
          "type": "bool"
        }
      ],
      "name": "ApprovalForAll",
      "type": "event"
    },
    {
      "anonymous": false,
      "inputs": [
        {
          "indexed": false,
          "internalType": "uint256",
          "name": "timestamp",
          "type": "uint256"
        },
        {
          "indexed": false,
          "internalType": "uint256",
          "name": "reportCount",
          "type": "uint256"
        }
      ],
      "name": "EmergencyRefundActivated",
      "type": "event"
    },
    {
      "anonymous": false,
      "inputs": [
        {
          "indexed": true,
          "internalType": "address",
          "name": "user",
          "type": "address"
        },
        {
          "indexed": false,
          "internalType": "uint256",
          "name": "amount",
          "type": "uint256"
        },
        {
          "indexed": false,
          "internalType": "uint256[]",
          "name": "tokenIds",
          "type": "uint256[]"
        }
      ],
      "name": "EmergencyRefundClaimed",
      "type": "event"
    },
    {
      "anonymous": false,
      "inputs": [
        {
          "indexed": false,
          "internalType": "uint256",
          "name": "timestamp",
          "type": "uint256"
        }
      ],
      "name": "EventCancelled",
      "type": "event"
    },
    {
      "anonymous": false,
      "inputs": [
        {
          "indexed": true,
          "internalType": "address",
          "name": "eventOrganizer",
          "type": "address"
        }
      ],
      "name": "EventOrganizerSet",
      "type": "event"
    },
    {
      "anonymous": false,
      "inputs": [
        {
          "indexed": false,
          "internalType": "uint256",
          "name": "timestamp",
          "type": "uint256"
        }
      ],
      "name": "EventPaused",
      "type": "event"
    },
    {
      "anonymous": false,
      "inputs": [
        {
          "indexed": false,
          "internalType": "uint256",
          "name": "timestamp",
          "type": "uint256"
        }
      ],
      "name": "EventResumed",
      "type": "event"
    },
    {
      "anonymous": false,
      "inputs": [
        {
          "indexed": true,
          "internalType": "address",
          "name": "reporter",
          "type": "address"
        },
        {
          "indexed": false,
          "internalType": "uint256",
          "name": "reportCount",
          "type": "uint256"
        },
        {
          "indexed": false,
          "internalType": "uint256",
          "name": "threshold",
          "type": "uint256"
        }
      ],
      "name": "FraudReported",
      "type": "event"
    },
    {
      "anonymous": false,
      "inputs": [
        {
          "indexed": true,
          "internalType": "address",
          "name": "organizer",
          "type": "address"
        },
        {
          "indexed": false,
          "internalType": "uint256",
          "name": "amount",
          "type": "uint256"
        }
      ],
      "name": "FundsWithdrawn",
      "type": "event"
    },
    {
      "anonymous": false,
      "inputs": [
        {
          "indexed": true,
          "internalType": "address",
          "name": "previousOwner",
          "type": "address"
        },
        {
          "indexed": true,
          "internalType": "address",
          "name": "newOwner",
          "type": "address"
        }
      ],
      "name": "OwnershipTransferred",
      "type": "event"
    },
    {
      "anonymous": false,
      "inputs": [
        {
          "indexed": true,
          "internalType": "address",
          "name": "user",
          "type": "address"
        },
        {
          "indexed": false,
          "internalType": "uint256",
          "name": "amount",
          "type": "uint256"
        },
        {
          "indexed": false,
          "internalType": "uint256",
          "name": "ticketCount",
          "type": "uint256"
        },
        {
          "indexed": false,
          "internalType": "uint256[]",
          "name": "tokenIds",
          "type": "uint256[]"
        }
      ],
      "name": "PartialRefundClaimed",
      "type": "event"
    },
    {
      "anonymous": false,
      "inputs": [
        {
          "indexed": true,
          "internalType": "address",
          "name": "user",
          "type": "address"
        },
        {
          "indexed": false,
          "internalType": "uint256",
          "name": "amount",
          "type": "uint256"
        },
        {
          "indexed": false,
          "internalType": "uint256[]",
          "name": "tokenIds",
          "type": "uint256[]"
        }
      ],
      "name": "RefundClaimed",
      "type": "event"
    },
    {
      "anonymous": false,
      "inputs": [
        {
          "indexed": true,
          "internalType": "address",
          "name": "buyer",
          "type": "address"
        },
        {
          "indexed": true,
          "internalType": "uint256",
          "name": "tokenId",
          "type": "uint256"
        },
        {
          "indexed": false,
          "internalType": "uint256",
          "name": "price",
          "type": "uint256"
        },
        {
          "indexed": false,
          "internalType": "string",
          "name": "buyerChain",
          "type": "string"
        }
      ],
      "name": "TicketMinted",
      "type": "event"
    },
    {
      "anonymous": false,
      "inputs": [
        {
          "indexed": true,
          "internalType": "address",
          "name": "user",
          "type": "address"
        },
        {
          "indexed": true,
          "internalType": "uint256",
          "name": "tokenId",
          "type": "uint256"
        },
        {
          "indexed": false,
          "internalType": "uint256",
          "name": "timestamp",
          "type": "uint256"
        }
      ],
      "name": "TicketUsed",
      "type": "event"
    },
    {
      "anonymous": false,
      "inputs": [
        {
          "indexed": true,
          "internalType": "address",
          "name": "from",
          "type": "address"
        },
        {
          "indexed": true,
          "internalType": "address",
          "name": "to",
          "type": "address"
        },
        {
          "indexed": true,
          "internalType": "uint256",
          "name": "tokenId",
          "type": "uint256"
        }
      ],
      "name": "Transfer",
      "type": "event"
    },
    {
      "inputs": [],
      "name": "FRAUD_THRESHOLD_PERCENT",
      "outputs": [
        {
          "internalType": "uint256",
          "name": "",
          "type": "uint256"
        }
      ],
      "stateMutability": "view",
      "type": "function"
    },
    {
      "inputs": [],
      "name": "WITHDRAWAL_LOCK_PERIOD",
      "outputs": [
        {
          "internalType": "uint256",
          "name": "",
          "type": "uint256"
        }
      ],
      "stateMutability": "view",
      "type": "function"
    },
    {
      "inputs": [
        {
          "internalType": "address",
          "name": "to",
          "type": "address"
        },
        {
          "internalType": "uint256",
          "name": "tokenId",
          "type": "uint256"
        }
      ],
      "name": "approve",
      "outputs": [],
      "stateMutability": "nonpayable",
      "type": "function"
    },
    {
      "inputs": [
        {
          "internalType": "address",
          "name": "owner",
          "type": "address"
        }
      ],
      "name": "balanceOf",
      "outputs": [
        {
          "internalType": "uint256",
          "name": "",
          "type": "uint256"
        }
      ],
      "stateMutability": "view",
      "type": "function"
    },
    {
      "inputs": [],
      "name": "cancelEvent",
      "outputs": [],
      "stateMutability": "nonpayable",
      "type": "function"
    },
    {
      "inputs": [],
      "name": "claimEmergencyRefund",
      "outputs": [],
      "stateMutability": "nonpayable",
      "type": "function"
    },
    {
      "inputs": [],
      "name": "claimRefund",
      "outputs": [],
      "stateMutability": "nonpayable",
      "type": "function"
    },
    {
      "inputs": [],
      "name": "contentHash",
      "outputs": [
        {
          "internalType": "string",
          "name": "",
          "type": "string"
        }
      ],
      "stateMutability": "view",
      "type": "function"
    },
    {
      "inputs": [],
      "name": "emergencyRefundEnabled",
      "outputs": [
        {
          "internalType": "bool",
          "name": "",
          "type": "bool"
        }
      ],
      "stateMutability": "view",
      "type": "function"
    },
    {
      "inputs": [],
      "name": "eventCancelled",
      "outputs": [
        {
          "internalType": "bool",
          "name": "",
          "type": "bool"
        }
      ],
      "stateMutability": "view",
      "type": "function"
    },
    {
      "inputs": [],
      "name": "eventDate",
      "outputs": [
        {
          "internalType": "uint256",
          "name": "",
          "type": "uint256"
        }
      ],
      "stateMutability": "view",
      "type": "function"
    },
    {
      "inputs": [],
      "name": "eventDescription",
      "outputs": [
        {
          "internalType": "string",
          "name": "",
          "type": "string"
        }
      ],
      "stateMutability": "view",
      "type": "function"
    },
    {
      "inputs": [],
      "name": "eventId",
      "outputs": [
        {
          "internalType": "uint256",
          "name": "",
          "type": "uint256"
        }
      ],
      "stateMutability": "view",
      "type": "function"
    },
    {
      "inputs": [],
      "name": "eventImageUri",
      "outputs": [
        {
          "internalType": "string",
          "name": "",
          "type": "string"
        }
      ],
      "stateMutability": "view",
      "type": "function"
    },
    {
      "inputs": [],
      "name": "eventName",
      "outputs": [
        {
          "internalType": "string",
          "name": "",
          "type": "string"
        }
      ],
      "stateMutability": "view",
      "type": "function"
    },
    {
      "inputs": [],
      "name": "eventOrganizerContract",
      "outputs": [
        {
          "internalType": "address",
          "name": "",
          "type": "address"
        }
      ],
      "stateMutability": "view",
      "type": "function"
    },
    {
      "inputs": [],
      "name": "eventPaused",
      "outputs": [
        {
          "internalType": "bool",
          "name": "",
          "type": "bool"
        }
      ],
      "stateMutability": "view",
      "type": "function"
    },
    {
      "inputs": [],
      "name": "eventVenue",
      "outputs": [
        {
          "internalType": "string",
          "name": "",
          "type": "string"
        }
      ],
      "stateMutability": "view",
      "type": "function"
    },
    {
      "inputs": [],
      "name": "fraudReportCount",
      "outputs": [
        {
          "internalType": "uint256",
          "name": "",
          "type": "uint256"
        }
      ],
      "stateMutability": "view",
      "type": "function"
    },
    {
      "inputs": [],
      "name": "fundsUnlockTime",
      "outputs": [
        {
          "internalType": "uint256",
          "name": "",
          "type": "uint256"
        }
      ],
      "stateMutability": "view",
      "type": "function"
    },
    {
      "inputs": [],
      "name": "fundsWithdrawn",
      "outputs": [
        {
          "internalType": "bool",
          "name": "",
          "type": "bool"
        }
      ],
      "stateMutability": "view",
      "type": "function"
    },
    {
      "inputs": [
        {
          "internalType": "uint256",
          "name": "tokenId",
          "type": "uint256"
        }
      ],
      "name": "getApproved",
      "outputs": [
        {
          "internalType": "address",
          "name": "",
          "type": "address"
        }
      ],
      "stateMutability": "view",
      "type": "function"
    },
    {
      "inputs": [],
      "name": "getEventDetails",
      "outputs": [
        {
          "internalType": "string",
          "name": "name",
          "type": "string"
        },
        {
          "internalType": "uint256",
          "name": "date",
          "type": "uint256"
        },
        {
          "internalType": "string",
          "name": "venue",
          "type": "string"
        },
        {
          "internalType": "string",
          "name": "vAddress",
          "type": "string"
        },
        {
          "internalType": "string",
          "name": "coordinates",
          "type": "string"
        },
        {
          "internalType": "string",
          "name": "imageUri",
          "type": "string"
        },
        {
          "internalType": "uint256",
          "name": "supply",
          "type": "uint256"
        },
        {
          "internalType": "uint256",
          "name": "price",
          "type": "uint256"
        },
        {
          "internalType": "uint256",
          "name": "sold",
          "type": "uint256"
        },
        {
          "internalType": "uint256",
          "name": "remaining",
          "type": "uint256"
        },
        {
          "internalType": "bool",
          "name": "cancelled",
          "type": "bool"
        },
        {
          "internalType": "bool",
          "name": "paused",
          "type": "bool"
        },
        {
          "internalType": "uint8",
          "name": "status",
          "type": "uint8"
        },
        {
          "internalType": "address",
          "name": "org",
          "type": "address"
        },
        {
          "internalType": "string",
          "name": "description",
          "type": "string"
        }
      ],
      "stateMutability": "view",
      "type": "function"
    },
    {
      "inputs": [],
      "name": "getEventInfo",
      "outputs": [
        {
          "internalType": "string",
          "name": "name",
          "type": "string"
        },
        {
          "internalType": "uint256",
          "name": "date",
          "type": "uint256"
        },
        {
          "internalType": "string",
          "name": "venue",
          "type": "string"
        },
        {
          "internalType": "uint256",
          "name": "price",
          "type": "uint256"
        },
        {
          "internalType": "uint256",
          "name": "remaining",
          "type": "uint256"
        },
        {
          "internalType": "bool",
          "name": "cancelled",
          "type": "bool"
        },
        {
          "internalType": "bool",
          "name": "paused",
          "type": "bool"
        }
      ],
      "stateMutability": "view",
      "type": "function"
    },
    {
      "inputs": [],
      "name": "getFraudProtectionInfo",
      "outputs": [
        {
          "internalType": "uint256",
          "name": "reportCount",
          "type": "uint256"
        },
        {
          "internalType": "uint256",
          "name": "threshold",
          "type": "uint256"
        },
        {
          "internalType": "bool",
          "name": "emergencyActive",
          "type": "bool"
        },
        {
          "internalType": "uint256",
          "name": "fundsUnlock",
          "type": "uint256"
        },
        {
          "internalType": "bool",
          "name": "canWithdraw",
          "type": "bool"
        }
      ],
      "stateMutability": "view",
      "type": "function"
    },
    {
      "inputs": [
        {
          "internalType": "address",
          "name": "owner",
          "type": "address"
        }
      ],
      "name": "getOwnerTicketsDetails",
      "outputs": [
        {
          "internalType": "uint256[]",
          "name": "tokenIds",
          "type": "uint256[]"
        },
        {
          "internalType": "bool[]",
          "name": "isUsed",
          "type": "bool[]"
        }
      ],
      "stateMutability": "view",
      "type": "function"
    },
    {
      "inputs": [
        {
          "internalType": "address",
          "name": "user",
          "type": "address"
        }
      ],
      "name": "getRefundInfo",
      "outputs": [
        {
          "internalType": "bool",
          "name": "canClaim",
          "type": "bool"
        },
        {
          "internalType": "uint256",
          "name": "unusedTicketCount",
          "type": "uint256"
        },
        {
          "internalType": "uint256",
          "name": "usedTicketCount",
          "type": "uint256"
        },
        {
          "internalType": "uint256",
          "name": "refundAmount",
          "type": "uint256"
        }
      ],
      "stateMutability": "view",
      "type": "function"
    },
    {
      "inputs": [
        {
          "internalType": "uint256",
          "name": "tokenId",
          "type": "uint256"
        }
      ],
      "name": "getTicketDetails",
      "outputs": [
        {
          "internalType": "address",
          "name": "owner",
          "type": "address"
        },
        {
          "internalType": "bool",
          "name": "isUsed",
          "type": "bool"
        },
        {
          "internalType": "string",
          "name": "eName",
          "type": "string"
        },
        {
          "internalType": "uint256",
          "name": "eDate",
          "type": "uint256"
        },
        {
          "internalType": "string",
          "name": "eVenue",
          "type": "string"
        },
        {
          "internalType": "string",
          "name": "eImage",
          "type": "string"
        },
        {
          "internalType": "uint8",
          "name": "status",
          "type": "uint8"
        }
      ],
      "stateMutability": "view",
      "type": "function"
    },
    {
      "inputs": [
        {
          "internalType": "uint256",
          "name": "tokenId",
          "type": "uint256"
        }
      ],
      "name": "getTicketMetadata",
      "outputs": [
        {
          "internalType": "address",
          "name": "owner",
          "type": "address"
        },
        {
          "internalType": "address",
          "name": "originalBuyer",
          "type": "address"
        },
        {
          "internalType": "uint256",
          "name": "purchasePrice",
          "type": "uint256"
        },
        {
          "internalType": "string",
          "name": "buyerChain",
          "type": "string"
        },
        {
          "internalType": "bool",
          "name": "isUsed",
          "type": "bool"
        }
      ],
      "stateMutability": "view",
      "type": "function"
    },
    {
      "inputs": [],
      "name": "getTicketsRemaining",
      "outputs": [
        {
          "internalType": "uint256",
          "name": "",
          "type": "uint256"
        }
      ],
      "stateMutability": "view",
      "type": "function"
    },
    {
      "inputs": [
        {
          "internalType": "address",
          "name": "owner",
          "type": "address"
        }
      ],
      "name": "getTokensByOwner",
      "outputs": [
        {
          "internalType": "uint256[]",
          "name": "",
          "type": "uint256[]"
        }
      ],
      "stateMutability": "view",
      "type": "function"
    },
    {
      "inputs": [
        {
          "internalType": "address",
          "name": "",
          "type": "address"
        }
      ],
      "name": "hasReportedFraud",
      "outputs": [
        {
          "internalType": "bool",
          "name": "",
          "type": "bool"
        }
      ],
      "stateMutability": "view",
      "type": "function"
    },
    {
      "inputs": [
        {
          "internalType": "address",
          "name": "owner",
          "type": "address"
        },
        {
          "internalType": "address",
          "name": "operator",
          "type": "address"
        }
      ],
      "name": "isApprovedForAll",
      "outputs": [
        {
          "internalType": "bool",
          "name": "",
          "type": "bool"
        }
      ],
      "stateMutability": "view",
      "type": "function"
    },
    {
      "inputs": [
        {
          "internalType": "uint256",
          "name": "",
          "type": "uint256"
        }
      ],
      "name": "isRefunded",
      "outputs": [
        {
          "internalType": "bool",
          "name": "",
          "type": "bool"
        }
      ],
      "stateMutability": "view",
      "type": "function"
    },
    {
      "inputs": [
        {
          "internalType": "uint256",
          "name": "tokenId",
          "type": "uint256"
        }
      ],
      "name": "isTicketUsed",
      "outputs": [
        {
          "internalType": "bool",
          "name": "",
          "type": "bool"
        }
      ],
      "stateMutability": "view",
      "type": "function"
    },
    {
      "inputs": [],
      "name": "maxSupply",
      "outputs": [
        {
          "internalType": "uint256",
          "name": "",
          "type": "uint256"
        }
      ],
      "stateMutability": "view",
      "type": "function"
    },
    {
      "inputs": [],
      "name": "metadataUri",
      "outputs": [
        {
          "internalType": "string",
          "name": "",
          "type": "string"
        }
      ],
      "stateMutability": "view",
      "type": "function"
    },
    {
      "inputs": [],
      "name": "mintTicket",
      "outputs": [
        {
          "internalType": "uint256",
          "name": "",
          "type": "uint256"
        }
      ],
      "stateMutability": "payable",
      "type": "function"
    },
    {
      "inputs": [],
      "name": "name",
      "outputs": [
        {
          "internalType": "string",
          "name": "",
          "type": "string"
        }
      ],
      "stateMutability": "view",
      "type": "function"
    },
    {
      "inputs": [],
      "name": "organizer",
      "outputs": [
        {
          "internalType": "address",
          "name": "",
          "type": "address"
        }
      ],
      "stateMutability": "view",
      "type": "function"
    },
    {
      "inputs": [],
      "name": "owner",
      "outputs": [
        {
          "internalType": "address",
          "name": "",
          "type": "address"
        }
      ],
      "stateMutability": "view",
      "type": "function"
    },
    {
      "inputs": [
        {
          "internalType": "uint256",
          "name": "tokenId",
          "type": "uint256"
        }
      ],
      "name": "ownerOf",
      "outputs": [
        {
          "internalType": "address",
          "name": "",
          "type": "address"
        }
      ],
      "stateMutability": "view",
      "type": "function"
    },
    {
      "inputs": [],
      "name": "pauseEvent",
      "outputs": [],
      "stateMutability": "nonpayable",
      "type": "function"
    },
    {
      "inputs": [],
      "name": "refundDeadline",
      "outputs": [
        {
          "internalType": "uint256",
          "name": "",
          "type": "uint256"
        }
      ],
      "stateMutability": "view",
      "type": "function"
    },
    {
      "inputs": [
        {
          "internalType": "address",
          "name": "",
          "type": "address"
        }
      ],
      "name": "refundedTicketCount",
      "outputs": [
        {
          "internalType": "uint256",
          "name": "",
          "type": "uint256"
        }
      ],
      "stateMutability": "view",
      "type": "function"
    },
    {
      "inputs": [],
      "name": "refundsEnabled",
      "outputs": [
        {
          "internalType": "bool",
          "name": "",
          "type": "bool"
        }
      ],
      "stateMutability": "view",
      "type": "function"
    },
    {
      "inputs": [],
      "name": "renounceOwnership",
      "outputs": [],
      "stateMutability": "nonpayable",
      "type": "function"
    },
    {
      "inputs": [],
      "name": "reportFraud",
      "outputs": [],
      "stateMutability": "nonpayable",
      "type": "function"
    },
    {
      "inputs": [],
      "name": "resumeEvent",
      "outputs": [],
      "stateMutability": "nonpayable",
      "type": "function"
    },
    {
      "inputs": [
        {
          "internalType": "uint256",
          "name": "",
          "type": "uint256"
        },
        {
          "internalType": "uint256",
          "name": "salePrice",
          "type": "uint256"
        }
      ],
      "name": "royaltyInfo",
      "outputs": [
        {
          "internalType": "address",
          "name": "receiver",
          "type": "address"
        },
        {
          "internalType": "uint256",
          "name": "royaltyAmount",
          "type": "uint256"
        }
      ],
      "stateMutability": "view",
      "type": "function"
    },
    {
      "inputs": [],
      "name": "royaltyPercent",
      "outputs": [
        {
          "internalType": "uint96",
          "name": "",
          "type": "uint96"
        }
      ],
      "stateMutability": "view",
      "type": "function"
    },
    {
      "inputs": [
        {
          "internalType": "address",
          "name": "from",
          "type": "address"
        },
        {
          "internalType": "address",
          "name": "to",
          "type": "address"
        },
        {
          "internalType": "uint256",
          "name": "tokenId",
          "type": "uint256"
        }
      ],
      "name": "safeTransferFrom",
      "outputs": [],
      "stateMutability": "nonpayable",
      "type": "function"
    },
    {
      "inputs": [
        {
          "internalType": "address",
          "name": "from",
          "type": "address"
        },
        {
          "internalType": "address",
          "name": "to",
          "type": "address"
        },
        {
          "internalType": "uint256",
          "name": "tokenId",
          "type": "uint256"
        },
        {
          "internalType": "bytes",
          "name": "data",
          "type": "bytes"
        }
      ],
      "name": "safeTransferFrom",
      "outputs": [],
      "stateMutability": "nonpayable",
      "type": "function"
    },
    {
      "inputs": [
        {
          "internalType": "address",
          "name": "operator",
          "type": "address"
        },
        {
          "internalType": "bool",
          "name": "approved",
          "type": "bool"
        }
      ],
      "name": "setApprovalForAll",
      "outputs": [],
      "stateMutability": "nonpayable",
      "type": "function"
    },
    {
      "inputs": [
        {
          "internalType": "address",
          "name": "_eventOrganizer",
          "type": "address"
        }
      ],
      "name": "setEventOrganizerContract",
      "outputs": [],
      "stateMutability": "nonpayable",
      "type": "function"
    },
    {
      "inputs": [
        {
          "internalType": "uint96",
          "name": "newPercent",
          "type": "uint96"
        }
      ],
      "name": "setRoyaltyPercent",
      "outputs": [],
      "stateMutability": "nonpayable",
      "type": "function"
    },
    {
      "inputs": [
        {
          "internalType": "bytes4",
          "name": "interfaceId",
          "type": "bytes4"
        }
      ],
      "name": "supportsInterface",
      "outputs": [
        {
          "internalType": "bool",
          "name": "",
          "type": "bool"
        }
      ],
      "stateMutability": "view",
      "type": "function"
    },
    {
      "inputs": [],
      "name": "symbol",
      "outputs": [
        {
          "internalType": "string",
          "name": "",
          "type": "string"
        }
      ],
      "stateMutability": "view",
      "type": "function"
    },
    {
      "inputs": [],
      "name": "ticketPrice",
      "outputs": [
        {
          "internalType": "uint256",
          "name": "",
          "type": "uint256"
        }
      ],
      "stateMutability": "view",
      "type": "function"
    },
    {
      "inputs": [
        {
          "internalType": "uint256",
          "name": "",
          "type": "uint256"
        }
      ],
      "name": "tokenBuyerChain",
      "outputs": [
        {
          "internalType": "string",
          "name": "",
          "type": "string"
        }
      ],
      "stateMutability": "view",
      "type": "function"
    },
    {
      "inputs": [
        {
          "internalType": "uint256",
          "name": "index",
          "type": "uint256"
        }
      ],
      "name": "tokenByIndex",
      "outputs": [
        {
          "internalType": "uint256",
          "name": "",
          "type": "uint256"
        }
      ],
      "stateMutability": "view",
      "type": "function"
    },
    {
      "inputs": [
        {
          "internalType": "address",
          "name": "owner",
          "type": "address"
        },
        {
          "internalType": "uint256",
          "name": "index",
          "type": "uint256"
        }
      ],
      "name": "tokenOfOwnerByIndex",
      "outputs": [
        {
          "internalType": "uint256",
          "name": "",
          "type": "uint256"
        }
      ],
      "stateMutability": "view",
      "type": "function"
    },
    {
      "inputs": [
        {
          "internalType": "uint256",
          "name": "",
          "type": "uint256"
        }
      ],
      "name": "tokenOriginalBuyer",
      "outputs": [
        {
          "internalType": "address",
          "name": "",
          "type": "address"
        }
      ],
      "stateMutability": "view",
      "type": "function"
    },
    {
      "inputs": [
        {
          "internalType": "uint256",
          "name": "",
          "type": "uint256"
        }
      ],
      "name": "tokenPurchasePrice",
      "outputs": [
        {
          "internalType": "uint256",
          "name": "",
          "type": "uint256"
        }
      ],
      "stateMutability": "view",
      "type": "function"
    },
    {
      "inputs": [
        {
          "internalType": "uint256",
          "name": "tokenId",
          "type": "uint256"
        }
      ],
      "name": "tokenURI",
      "outputs": [
        {
          "internalType": "string",
          "name": "",
          "type": "string"
        }
      ],
      "stateMutability": "view",
      "type": "function"
    },
    {
      "inputs": [],
      "name": "totalRefundsClaimed",
      "outputs": [
        {
          "internalType": "uint256",
          "name": "",
          "type": "uint256"
        }
      ],
      "stateMutability": "view",
      "type": "function"
    },
    {
      "inputs": [],
      "name": "totalSupply",
      "outputs": [
        {
          "internalType": "uint256",
          "name": "",
          "type": "uint256"
        }
      ],
      "stateMutability": "view",
      "type": "function"
    },
    {
      "inputs": [
        {
          "internalType": "address",
          "name": "from",
          "type": "address"
        },
        {
          "internalType": "address",
          "name": "to",
          "type": "address"
        },
        {
          "internalType": "uint256",
          "name": "tokenId",
          "type": "uint256"
        }
      ],
      "name": "transferFrom",
      "outputs": [],
      "stateMutability": "nonpayable",
      "type": "function"
    },
    {
      "inputs": [
        {
          "internalType": "address",
          "name": "newOwner",
          "type": "address"
        }
      ],
      "name": "transferOwnership",
      "outputs": [],
      "stateMutability": "nonpayable",
      "type": "function"
    },
    {
      "inputs": [
        {
          "internalType": "string",
          "name": "newDescription",
          "type": "string"
        }
      ],
      "name": "updateEventDescription",
      "outputs": [],
      "stateMutability": "nonpayable",
      "type": "function"
    },
    {
      "inputs": [
        {
          "internalType": "string",
          "name": "newImageUri",
          "type": "string"
        }
      ],
      "name": "updateEventImage",
      "outputs": [],
      "stateMutability": "nonpayable",
      "type": "function"
    },
    {
      "inputs": [
        {
          "internalType": "string",
          "name": "newName",
          "type": "string"
        }
      ],
      "name": "updateEventName",
      "outputs": [],
      "stateMutability": "nonpayable",
      "type": "function"
    },
    {
      "inputs": [
        {
          "internalType": "string",
          "name": "newUri",
          "type": "string"
        }
      ],
      "name": "updateMetadataUri",
      "outputs": [],
      "stateMutability": "nonpayable",
      "type": "function"
    },
    {
      "inputs": [
        {
          "internalType": "uint256",
          "name": "tokenId",
          "type": "uint256"
        }
      ],
      "name": "useTicket",
      "outputs": [],
      "stateMutability": "nonpayable",
      "type": "function"
    },
    {
      "inputs": [
        {
          "internalType": "uint256",
          "name": "",
          "type": "uint256"
        }
      ],
      "name": "used",
      "outputs": [
        {
          "internalType": "bool",
          "name": "",
          "type": "bool"
        }
      ],
      "stateMutability": "view",
      "type": "function"
    },
    {
      "inputs": [],
      "name": "venueAddress",
      "outputs": [
        {
          "internalType": "string",
          "name": "",
          "type": "string"
        }
      ],
      "stateMutability": "view",
      "type": "function"
    },
    {
      "inputs": [],
      "name": "venueCoordinates",
      "outputs": [
        {
          "internalType": "string",
          "name": "",
          "type": "string"
        }
      ],
      "stateMutability": "view",
      "type": "function"
    },
    {
      "inputs": [],
      "name": "withdrawFunds",
      "outputs": [],
      "stateMutability": "nonpayable",
      "type": "function"
    }
  ],
  "bytecode": "0x6080604081815234620006c2576200625b803803809162000021828662001191565b84398201916101a081840312620006c25780516020820151838301516001600160401b038111620006c257856200005a918501620011da565b60608401519092906001600160401b038111620006c257866200007f918601620011da565b60808501519092906001600160401b038111620006c25787620000a4918701620011da565b60a086015160c08701519095906001600160401b038111620006c25789620000ce918901620011da565b60e08801519092906001600160401b038111620006c2578a620000f3918a01620011da565b6101008901519094906001600160401b038111620006c2578b62000119918b01620011da565b6101208a01519096906001600160401b038111620006c2578c6200013f918c01620011da565b6101408b01519098906001600160401b038111620006c2578d62000165918d01620011da565b6101608c01519d909b906001600160a01b038f168f9003620006c2576101808201516001600160401b038111620006c257620001a29201620011da565b855190956001600160401b038211620008995760005490600182811c9216801562001186575b6020831014620008785781601f84931162001126575b50602090601f8311600114620010aa576000926200109e575b50508160011b916000199060031b1c1916176000555b8051906001600160401b038211620008995760015490600182811c9216801562001093575b6020831014620008785781601f84931162001032575b50602090601f831160011462000fb85760009262000fac575b50508160011b916000199060031b1c1916176001555b331562000f9457600a8054336001600160a01b0319821681179092556001600160a01b03167f8be0079c531659141344cd1fd0a4f28419497f9722a3daafe3b4186f6b6457e0600080a36015556016558051906001600160401b0382116200089957600f5490600182811c9216801562000f89575b6020831014620008785781601f84931162000f28575b50602090601f831160011462000eaa5760009262000e9e575b50508160011b916000199060031b1c191617600f555b8051906001600160401b038211620008995760195490600182811c9216801562000e93575b6020831014620008785781601f84931162000e21575b50602090601f831160011462000d925760009262000d86575b50508160011b916000199060031b1c1916176019555b60108590558051906001600160401b038211620008995760115490600182811c9216801562000d7b575b6020831014620008785781601f84931162000d1a575b50602090601f831160011462000c9c5760009262000c90575b50508160011b916000199060031b1c1916176011555b8051906001600160401b038211620008995760125490600182811c9216801562000c85575b6020831014620008785781601f84931162000c21575b50602090601f831160011462000ba35760009262000b97575b50508160011b916000199060031b1c1916176012555b8051906001600160401b038211620008995760135490600182811c9216801562000b8c575b6020831014620008785781601f84931162000b28575b50602090601f831160011462000aae5760009262000aa2575b50508160011b916000199060031b1c1916176013555b8051906001600160401b038211620008995760145490600182811c9216801562000a97575b6020831014620008785781601f84931162000a33575b50602090601f8311600114620009b957600092620009ad575b50508160011b916000199060031b1c1916176014555b81516001600160401b0381116200089957601a54600181811c91168015620009a2575b60208210146200087857601f811162000949575b50806020601f8211600114620008d157600091620008c5575b508160011b916000199060031b1c191617601a555b6000600c55600d80546001600160a01b03199081163317909155600b80549091166001600160a01b038616179055601c80546001600160601b03191660fa17905562278d008101808211620008af576018556203f4808101809111620008af5760265580519081620006d0575b50909190506001600160a01b0381166200063e575b5051614f059081620012368239f35b8151630dfdd32960e11b81523060048201523360248201526000604482018190529091602091839160649183916001600160a01b03165af16000918162000691575b50156200062f57600c55386200062f565b9091506020813d602011620006c7575b81620006b06020938362001191565b81010312620006c25751903862000680565b600080fd5b3d9150620006a1565b90620006fe6020809383620006f0875195869385850198899101620011b5565b810103808452018262001191565b5190208151602080820192909252908152918282016001600160401b038111848210176200089957825282516001600160401b0381116200089957601b54600181811c911680156200088e575b60208210146200087857601f81116200081f575b506020601f8211600114620007a657819293946000926200079a575b50508160011b916000199060031b1c191617601b555b9038806200061a565b0151905038806200077b565b601b60009081526000805160206200619b8339815191529190601f198416905b8181106200080657509583600195969710620007ec575b505050811b01601b5562000791565b015160001960f88460031b161c19169055388080620007dd565b9192602060018192868b015181550194019201620007c6565b601b6000526000805160206200619b833981519152601f830160051c810191602084106200086d575b601f0160051c01905b8181106200086057506200075f565b6000815560010162000851565b909150819062000848565b634e487b7160e01b600052602260045260246000fd5b90607f16906200074b565b634e487b7160e01b600052604160045260246000fd5b634e487b7160e01b600052601160045260246000fd5b90508301513862000598565b601a6000908152600080516020620061db8339815191529250601f198416905b818110620009305750908360019493921062000916575b5050811b01601a55620005ad565b85015160001960f88460031b161c19169055388062000908565b9192602060018192868a015181550194019201620008f1565b601a600052600080516020620061db833981519152601f830160051c8101916020841062000997575b601f0160051c01905b8181106200098a57506200057f565b600081556001016200097b565b909150819062000972565b90607f16906200056b565b01519050388062000532565b601460009081526000805160206200621b8339815191529350601f198516905b81811062000a1a575090846001959493921062000a00575b505050811b0160145562000548565b015160001960f88460031b161c19169055388080620009f1565b92936020600181928786015181550195019301620009d9565b60146000529091506000805160206200621b833981519152601f840160051c8101916020851062000a8c575b90601f859493920160051c01905b81811062000a7c575062000519565b6000815584935060010162000a6d565b909150819062000a5f565b91607f169162000503565b015190503880620004c8565b60136000908152600080516020620061bb8339815191529350601f198516905b81811062000b0f575090846001959493921062000af5575b505050811b01601355620004de565b015160001960f88460031b161c1916905538808062000ae6565b9293602060018192878601518155019501930162000ace565b6013600052909150600080516020620061bb833981519152601f840160051c8101916020851062000b81575b90601f859493920160051c01905b81811062000b715750620004af565b6000815584935060010162000b62565b909150819062000b54565b91607f169162000499565b0151905038806200045e565b6012600090815293506000805160206200613b83398151915291905b601f198416851062000c05576001945083601f1981161062000beb575b505050811b0160125562000474565b015160001960f88460031b161c1916905538808062000bdc565b8181015183556020948501946001909301929091019062000bbf565b60126000529091506000805160206200613b833981519152601f840160051c8101916020851062000c7a575b90601f859493920160051c01905b81811062000c6a575062000445565b6000815584935060010162000c5b565b909150819062000c4d565b91607f16916200042f565b015190503880620003f4565b6011600090815293506000805160206200615b83398151915291905b601f198416851062000cfe576001945083601f1981161062000ce4575b505050811b016011556200040a565b015160001960f88460031b161c1916905538808062000cd5565b8181015183556020948501946001909301929091019062000cb8565b60116000529091506000805160206200615b833981519152601f840160051c81016020851062000d73575b90849392915b601f830160051c8201811062000d63575050620003db565b6000815585945060010162000d4b565b508062000d45565b91607f1691620003c5565b01519050388062000385565b6019600090815293507f944998273e477b495144fb8794c914197f3ccb46be2900f4698fd0ef743c969591905b601f198416851062000e05576001945083601f1981161062000deb575b505050811b016019556200039b565b015160001960f88460031b161c1916905538808062000ddc565b8181015183556020948501946001909301929091019062000dbf565b60196000529091507f944998273e477b495144fb8794c914197f3ccb46be2900f4698fd0ef743c9695601f840160051c81016020851062000e8b575b90849392915b601f830160051c8201811062000e7b5750506200036c565b6000815585945060010162000e63565b508062000e5d565b91607f169162000356565b0151905038806200031b565b600f600090815293506000805160206200623b83398151915291905b601f198416851062000f0c576001945083601f1981161062000ef2575b505050811b01600f5562000331565b015160001960f88460031b161c1916905538808062000ee3565b8181015183556020948501946001909301929091019062000ec6565b600f6000529091506000805160206200623b833981519152601f840160051c81016020851062000f81575b90849392915b601f830160051c8201811062000f7157505062000302565b6000815585945060010162000f59565b508062000f53565b91607f1691620002ec565b8a51631e4fbdf760e01b815260006004820152602490fd5b01519050388062000261565b60016000908152600080516020620061fb8339815191529350601f198516905b81811062001019575090846001959493921062000fff575b505050811b0160015562000277565b015160001960f88460031b161c1916905538808062000ff0565b9293602060018192878601518155019501930162000fd8565b6001600052909150600080516020620061fb833981519152601f840160051c8101602085106200108b575b90849392915b601f830160051c820181106200107b57505062000248565b6000815585945060010162001063565b50806200105d565b91607f169162000232565b015190503880620001f7565b600080805293506000805160206200617b83398151915291905b601f19841685106200110a576001945083601f19811610620010f0575b505050811b016000556200020d565b015160001960f88460031b161c19169055388080620010e1565b81810151835560209485019460019093019290910190620010c4565b600080529091506000805160206200617b833981519152601f840160051c8101602085106200117e575b90849392915b601f830160051c820181106200116e575050620001de565b6000815585945060010162001156565b508062001150565b91607f1691620001c8565b601f909101601f19168101906001600160401b038211908210176200089957604052565b60005b838110620011c95750506000910152565b8181015183820152602001620011b8565b81601f82011215620006c25780516001600160401b03811162000899576040519262001211601f8301601f19166020018562001191565b81845260208284010111620006c257620012329160208085019101620011b5565b9056fe6080604052600436101561001257600080fd5b60003560e01c806301ffc9a7146104f7578063020fe6e5146104f257806305ccfd33146104ed57806306fdde03146104e8578063081812fc146104e3578063089cdd0c146104de578063095ea7b3146104d95780630beb11b7146104d457806310409cb2146104cf578063105fd61f146104ca5780631209b1f6146104c557806318160ddd146104c05780631feeaf74146104bb57806323b872dd146104b657806324600fc3146104b157806324c14160146104ac57806325ff167e146104a757806326606448146104a25780632a55205a1461049d5780632c8cc6f7146104985780632cd1d35c146104935780632f745c591461048e57806340398d671461048957806342842e0e146104845780634bc46a821461047f5780634bfbe5df1461047a5780634f6ccce714610475578063532f11791461047057806355866c8d1461046b57806355c8545714610466578063573c80fa146104615780635e7bfd121461045c578063612032651461045757806361d73adb146104525780636352211e1461044d578063646c2e3314610448578063649fa01f14610443578063684e78dd1461043e57806369ae3dfa1461043957806369ba4f68146104345780636c1557691461042f5780636d00fa681461042a57806370a0823114610425578063715018a61461042057806377a4d5591461041b5780638043c9c014610416578063870c8f26146104115780638da5cb5b1461040c5780638e61f85f1461040757806393d28635146104025780639434571b146103fd57806395d89b41146103f85780639c378d80146103f35780639e408d4c146103ee5780639f67756d146103e9578063a22cb465146103e4578063a73abbc2146103df578063ac307fcf146103da578063b40f2989146103d5578063b5545a3c146103d0578063b5e5f51b146103cb578063b88d4fde146103c6578063b963f8ca146103c1578063ba0ae43c146103bc578063c0af2346146103b7578063c87b56dd146103b2578063d5abeb01146103ad578063da649e6b146103a8578063def3ad67146103a3578063e18b057d1461039e578063e1a494d114610399578063e1aa1bcc14610394578063e22bda351461038f578063e2bb3ccf1461038a578063e985e9c514610385578063eb7b700614610380578063f2fde38b1461037b5763fb6c95371461037657600080fd5b6133f3565b61336a565b61332d565b6132d0565b61320a565b613110565b6130f2565b6130cf565b613090565b61305c565b613031565b613013565b612ff4565b612ef6565b612e67565b612e0c565b612da7565b612cf3565b612ae4565b612abe565b612a9b565b612a7d565b6129c0565b612999565b61296e565b612804565b61275d565b6126c1565b612613565b6125f5565b6125cc565b61246a565b612446565b6123aa565b61234c565b612329565b612213565b6121a4565b6120f6565b6120d8565b6120b4565b612098565b611fb3565b611f83565b611ed4565b611eab565b611e87565b611cba565b611c69565b6116ee565b6116cb565b61165b565b61163d565b6115a0565b61156c565b611502565b6114d3565b61147f565b611445565b6113f2565b611311565b61128e565b6111b2565b610fd2565b610fbb565b610e88565b610e6a565b610e4c565b610c51565b610b92565b610ae6565b6109e7565b61099d565b61095f565b610878565b6106fb565b6105b5565b610513565b6001600160e01b031981160361050e57565b600080fd5b3461050e57602036600319011261050e576020600435610532816104fc565b63ffffffff60e01b1663152a902d60e11b8114908115610558575b506040519015158152f35b63780e9d6360e01b811491508115610572575b503861054d565b6380ac58cd60e01b8114915081156105a4575b8115610593575b503861056b565b6301ffc9a760e01b1490503861058c565b635b5e139f60e01b81149150610585565b3461050e57602036600319011261050e57600435600052601d602052602060ff604060002054166040519015158152f35b634e487b7160e01b600052604160045260246000fd5b6001600160401b03811161060f57604052565b6105e6565b602081019081106001600160401b0382111761060f57604052565b604081019081106001600160401b0382111761060f57604052565b90601f801991011681019081106001600160401b0382111761060f57604052565b6001600160401b03811161060f57601f01601f191660200190565b9291926106928261066b565b916106a0604051938461064a565b82948184528183011161050e578281602093846000960137010152565b602060031982011261050e57600435906001600160401b03821161050e578060238301121561050e578160246106f893600401359101610686565b90565b3461050e57610709366106bd565b600d5461072b90336001600160a01b0391821614908115610806575b506134b8565b80516001600160401b03811161060f5761074f8161074a600f5461171f565b613504565b602080601f83116001146107915750819061078193600092610786575b50508160011b916000199060031b1c19161790565b600f55005b01519050388061076c565b90601f198316936107b2600f600052600080516020614e9083398151915290565b926000905b8682106107ee57505083600195106107d5575b505050811b01600f55005b015160001960f88460031b161c191690553880806107ca565b806001859682949686015181550195019301906107b7565b9050600a5416331438610725565b600091031261050e57565b60005b8381106108325750506000910152565b8181015183820152602001610822565b9060209161085b8151809281855285808601910161081f565b601f01601f1916010190565b9060206106f8928181520190610842565b3461050e5760008060031936011261095c57604051908080549061089b8261171f565b8085529160209160019182811690811561092f57506001146108d8575b6108d4866108c88188038261064a565b60405191829182610867565b0390f35b80809550527f290decd9548b62a8d60345a988386fc84ba6bc95484008f6362f93160ef3e5635b83851061091c575050505081016020016108c8826108d4386108b8565b80548686018401529382019381016108ff565b90508695506108d4969350602092506108c894915060ff191682840152151560051b8201019293386108b8565b80fd5b3461050e57602036600319011261050e5760043561097c816143d3565b506000526004602052602060018060a01b0360406000205416604051908152f35b3461050e57600036600319011261050e576020600c54604051908152f35b600435906001600160a01b038216820361050e57565b602435906001600160a01b038216820361050e57565b3461050e57604036600319011261050e57610a006109bb565b60243590610a0d826143d3565b33151580610ad3575b80610aa5575b610a8d57610a8b92610a6c9181906001600160a01b0385811691167f8c5be1e5ebec7d5bd14f71427d1e84f3dd0314c0f7b2291e5b200ac8c7c3b925600080a46000526004602052604060002090565b80546001600160a01b0319166001600160a01b03909216919091179055565b005b60405163a9fbf51f60e01b8152336004820152602490fd5b506001600160a01b038116600090815260056020908152604080832033845290915290205460ff1615610a1c565b506001600160a01b038116331415610a16565b3461050e57600036600319011261050e57600b546040516001600160a01b039091168152602090f35b90815180825260208080930193019160005b828110610b2f575050505090565b835185529381019392810192600101610b21565b90610b5690604083526040830190610b0f565b81810360209283015282518082529082019282019160005b828110610b7c575050505090565b8351151585529381019392810192600101610b6e565b3461050e5760208060031936011261050e57610bac6109bb565b90610bb682613ca3565b610bbf81613910565b91610bc9826138f9565b93604091610bda604051968761064a565b838652601f19610be9856138f9565b0136602088013760009160005b858110610c0c57604051806108d48a8a83610b43565b80610c1960019284613c1f565b610c23828a613958565b52610c2e8189613958565b518552601d845260ff8686205416610c46828b613958565b901515905201610bf6565b3461050e5760008060031936011261095c57610c76610c7260275460ff1690565b1590565b610e3a57610c8333613ca3565b8015610e2857610c9281613910565b8291835b818110610dd05750508115610dbe57610cb1601654836139c4565b91824710610dac57610cc281613910565b91845b828110610d60575050336000908152602260205260409020610ce990918254613a03565b9055610cff610cfa83602454613a03565b602455565b8280808085335af1610d0f613a23565b5015610d4e57610d487fe81669fa6bec5188de8d647e0a936a79ec4eb1456eaf01e8d7f7929a7b51951991604051918291339583613a53565b0390a280f35b60405163cbe4e8c360e01b8152600490fd5b80610da6610d7060019385613958565b51610d95610d88826000526023602052604060002090565b805460ff19166001179055565b80610da08489613958565b5261440e565b01610cc5565b604051631e9acf1760e31b8152600490fd5b604051637dc40a7960e11b8152600490fd5b610dda8133613c1f565b610dfb610c72610df4836000526023602052604060002090565b5460ff1690565b610e09575b50600101610c96565b84610e2191610e1b6001949787613958565b52613987565b9390610e00565b60405163a39a279f60e01b8152600490fd5b60405163c1c379b160e01b8152600490fd5b3461050e57600036600319011261050e576020601654604051908152f35b3461050e57600036600319011261050e576020600854604051908152f35b3461050e57610e96366106bd565b600d54610eb790336001600160a01b039182161490811561080657506134b8565b80516001600160401b03811161060f57610edb81610ed660145461171f565b613564565b602080601f8311600114610f1157508190610f0c936000926107865750508160011b916000199060031b1c19161790565b601455005b90601f19831693610f326014600052600080516020614e7083398151915290565b926000905b868210610f6e5750508360019510610f55575b505050811b01601455005b015160001960f88460031b161c19169055388080610f4a565b80600185968294968601518155019501930190610f37565b606090600319011261050e576001600160a01b0390600435828116810361050e5791602435908116810361050e579060443590565b3461050e57610a8b610fcc36610f86565b91613a6a565b3461050e5760008060031936011261095c57600d5461100590336001600160a01b039182161490811561080657506134b8565b60255460ff1661113f5760105442111561112d57602654421061111b5760275460ff166110fd5760215460ff168061110f575b6110fd574780156110eb57611055600160ff196025541617602555565b818080808461107d611071611071600d5460018060a01b031690565b6001600160a01b031690565b5af1611087613a23565b50156110d957600d547feaff4b37086828766ad3268786972c0cd24259d4c87a80f9d3963a3c3d999b0d90610d48906110c8906001600160a01b0316611071565b604051938452929081906020820190565b6040516327fcd9d160e01b8152600490fd5b6040516367e3990d60e01b8152600490fd5b604051630c8470bd60e41b8152600490fd5b50601854421115611038565b604051636fc48ba160e11b8152600490fd5b60405163fb141a0d60e01b8152600490fd5b604051633f72752760e21b8152600490fd5b95919360c09561118a6111ab9560ff9761119d959c9b9c60018060a01b03168b52151560208b015260e060408b015260e08a0190610842565b9160608901528782036080890152610842565b9085820360a0870152610842565b9416910152565b3461050e57602036600319011261050e5760043560008181526002602052604090206111fb906001600160a01b03906111f3905b546001600160a01b031690565b161515613bdc565b600061120960175460ff1690565b1561126157506003905b6108d4611236610df4611225846143d3565b93600052601d602052604060002090565b92601054611242611ab7565b9061124b611ad1565b90611254611ae2565b9260405197889788611151565b600e54601554116112755750600190611213565b6010544211156112885750600290611213565b90611213565b3461050e57602036600319011261050e576112a76109bb565b600d546001600160a01b039190821633148015611304575b6112c8906134b8565b16806001600160601b0360a01b600b541617600b557ffc6a300fd572a7ad998e6f2e11421513f73c2e920602d23090ae226909308908600080a2005b50600a54821633146112bf565b3461050e57602036600319011261050e5760043561132e816143d3565b336001600160a01b03909116036113e057611356610df482600052601d602052604060002090565b6113ce576113656010546139d7565b421161112d5760175460ff166113bc5761138c610d8882600052601d602052604060002090565b60405142815233907faa5eb4d6707e5715467e6d9ceb94a60d0ddfadff0bb1d854a226f3459485dc9090602090a3005b60405163349bd75960e21b8152600490fd5b604051630869773360e41b8152600490fd5b6040516359dc379f60e01b8152600490fd5b3461050e57604036600319011261050e5760018060a01b03600d54166127106114286001600160601b03601c54166024356139c4565b604080516001600160a01b03949094168452919004602083015290f35b3461050e57602036600319011261050e576001600160a01b036114666109bb565b1660005260226020526020604060002054604051908152f35b3461050e57602036600319011261050e576004356000818152600260205260409020546114b6906001600160a01b03161515613bdc565b600052601d602052602060ff604060002054166040519015158152f35b3461050e57604036600319011261050e5760206114fa6114f16109bb565b60243590613c1f565b604051908152f35b3461050e57602036600319011261050e5761151b6109bb565b61152481613ca3565b61152d81613910565b9160005b82811061154e57604051602080825281906108d490820187610b0f565b8061155b60019284613c1f565b6115658287613958565b5201611531565b3461050e57610a8b61157d36610f86565b906040519261158b84610614565b6000845261159a838383613a6a565b336147fc565b3461050e57602036600319011261050e576004356001600160601b03811680910361050e57600d546115e690336001600160a01b039182161490811561080657506134b8565b6103e88111611605576001600160601b0319601c541617601c55600080f35b60405162461bcd60e51b815260206004820152601060248201526f0a4def2c2d8e8f240e8dede40d0d2ced60831b6044820152606490fd5b3461050e57600036600319011261050e576020601054604051908152f35b3461050e57602036600319011261050e576004356008548110156116ac5760209060086000527ff3f7a9fe364faab93b216da50a3214154f22a0a2b415b23a84c8169e8b636ee30154604051908152f35b6044906040519063295f44f760e21b8252600060048301526024820152fd5b3461050e57600036600319011261050e57602060ff602154166040519015158152f35b3461050e57602036600319011261050e576004356000526023602052602060ff604060002054166040519015158152f35b90600182811c9216801561174f575b602083101461173957565b634e487b7160e01b600052602260045260246000fd5b91607f169161172e565b601154600092916117698261171f565b808252916020906001908181169081156117e8575060011461178c575b50505050565b9293945060116000527f31ecc21a745e3968a04e9570e4425bc18fa8019c68028196b546d1669c200c68926000935b8585106117d5575050506020925001019038808080611786565b80548585018401529382019381016117bb565b92505050602093945060ff929192191683830152151560051b01019038808080611786565b600f546000929161181d8261171f565b808252916020906001908181169081156117e8575060011461183f5750505050565b92939450600f600052600080516020614e90833981519152926000935b858510611876575050506020925001019038808080611786565b805485850184015293820193810161185c565b601154600092916118998261171f565b808252916020906001908181169081156117e857506001146118bb5750505050565b9293945060116000527f31ecc21a745e3968a04e9570e4425bc18fa8019c68028196b546d1669c200c68926000935b858510611904575050506020925001019038808080611786565b80548585018401529382019381016118ea565b601454600092916119278261171f565b808252916020906001908181169081156117e857506001146119495750505050565b929394506014600052600080516020614e70833981519152926000935b858510611980575050506020925001019038808080611786565b8054858501840152938201938101611966565b601354600092916119a38261171f565b808252916020906001908181169081156117e857506001146119c55750505050565b9293945060136000527f66de8ffda797e3de9c05e8fc57b3bf0ec28a930d40b0d285d93c06501cf6a090926000935b858510611a0e575050506020925001019038808080611786565b80548585018401529382019381016119f4565b805460009392611a308261171f565b91828252602093600191600181169081600014611a985750600114611a57575b5050505050565b90939495506000929192528360002092846000945b838610611a8457505050500101903880808080611a50565b805485870183015294019385908201611a6c565b60ff19168685015250505090151560051b010191503880808080611a50565b60405190611acf82611ac88161180d565b038361064a565b565b60405190611acf82611ac881611889565b60405190611acf82611ac881611917565b6040519060008260125491611b078361171f565b80835292602090600190818116908115611b935750600114611b32575b5050611acf9250038361064a565b91509260126000527fbb8a6a4669ba250d26cd7a459eca9d215f8307e33aebe50379bc5a3617ec3444936000925b828410611b7b5750611acf9450505081016020013880611b24565b85548885018301529485019487945092810192611b60565b91505060209250611acf94915060ff191682840152151560051b8201013880611b24565b60405190611acf82611ac881611993565b6040519060008260195491611bdc8361171f565b80835292602090600190818116908115611b935750600114611c06575050611acf9250038361064a565b9150926019600052600080516020614eb0833981519152936000925b828410611c3d5750611acf9450505081016020013880611b24565b85548885018301529485019487945092810192611c22565b90611acf611ac89260405193848092611a21565b3461050e57602036600319011261050e57600435600052601e6020526108d4611c9f611ca6604060002060405192838092611a21565b038261064a565b604051918291602083526020830190610842565b60008060031936011261095c5760175460ff81166113bc5760081c60ff16611e7557600e54601554811015611e63576016543410611e5157611d03611cfe82613987565b600e55565b333b15611e4257611d1481336145ee565b611d38611d1f61471a565b611d3383600052601e602052604060002090565b613830565b611d5033610a6c83600052601f602052604060002090565b34611d648260005260208052604060002090565b5580611d7a81600052601e602052604060002090565b7fb89988e1d3e88c0f1c82060eacd83b1eeff9d84e2dceb882de0781fbb7c04fc560405180611dab33943483613c7f565b0390a3600b546001600160a01b031680611dcb575b604051828152602090f35b600d546001600160a01b03169060165491813b15611e3e576040516361b0c73960e01b81526001600160a01b039190911660048201526001602482015260448101929092526108d493908290606490829084905af115611dc05780611e32611e38926105fc565b80610814565b38611dc0565b8480fd5b611e4c81336144e7565b611d14565b60405163cd1c886760e01b8152600490fd5b6040516352df9fe560e01b8152600490fd5b604051630e15836160e31b8152600490fd5b3461050e57600036600319011261050e576108d4604051611ca681611c9f81611993565b3461050e57600036600319011261050e57600d546040516001600160a01b039091168152602090f35b3461050e57600036600319011261050e57600e54601e810290808204601e1490151715611f7e576064906108d4602654804210159081611f67575b81611f50575b60295460275460ff169060405196879604908693909594919260809360a0860197865260208601521515604085015260608401521515910152565b9050611f61610c7260255460ff1690565b90611f15565b9050611f78610c7260275460ff1690565b90611f0f565b613971565b3461050e57602036600319011261050e576020611fa16004356143d3565b6040516001600160a01b039091168152f35b3461050e5760008060031936011261095c57604051908082601b5491611fd88361171f565b928383526020946001918660018216918260001461207657505060011461201c575b50506120089250038361064a565b6108d4604051928284938452830190610842565b90859250601b82527f3ad8aa4f87544323a9d1e5dd902f40c356527a7955687113db5f9a85ad579dc15b85831061205e57505061200893508201013880611ffa565b80548389018501528794508693909201918101612046565b925093505061200894915060ff191682840152151560051b8201013880611ffa565b3461050e57600036600319011261050e576020604051601e8152f35b3461050e57600036600319011261050e576108d4604051611ca681611c9f81611917565b3461050e57600036600319011261050e576020602654604051908152f35b3461050e5760008060031936011261095c576040519080826012549161211b8361171f565b928383526020946001918660018216918260001461207657505060011461214a5750506120089250038361064a565b90859250601282527fbb8a6a4669ba250d26cd7a459eca9d215f8307e33aebe50379bc5a3617ec34445b85831061218c57505061200893508201013880611ffa565b80548389018501528794508693909201918101612174565b3461050e57600036600319011261050e57602060ff602754166040519015158152f35b95929160c095926121e76121fa939a99969a60e08a5260e08a0190610842565b9160208901528782036040890152610842565b9660608601526080850152151560a08401521515910152565b3461050e5760008060031936011261095c5760105460165490601554600e548103908111611f7e57601754906040519085600f54906122518261171f565b808552916020916001918281169081156122fa57506001146122b2575b50505050612283826108d4959697038361064a565b6040519561229b8761229481611759565b038861064a565b60405196879660ff808760081c16961694886121c7565b9850600f8952600080516020614e908339815191525b838a106122e7575050505094810160200194612283826108d43861226e565b8054868b018401529882019881016122c8565b60ff191660208089019190915294151560051b8701909401995061228393508592506108d4915038905061226e565b3461050e57602036600319011261050e5760206114fa6123476109bb565b613ca3565b3461050e5760008060031936011261095c5761236661475f565b600a80546001600160a01b0319811690915581906001600160a01b03167f8be0079c531659141344cd1fd0a4f28419497f9722a3daafe3b4186f6b6457e08280a380f35b3461050e5760008060031936011261095c57604051908082601a54916123cf8361171f565b92838352602094600191866001821691826000146120765750506001146123fe5750506120089250038361064a565b90859250601a8252600080516020614e508339815191525b85831061242e57505061200893508201013880611ffa565b80548389018501528794508693909201918101612416565b3461050e57600036600319011261050e576108d4604051611ca681611c9f8161180d565b3461050e57612478366106bd565b600d5461249990336001600160a01b039182161490811561080657506134b8565b80516001600160401b03811161060f576124bd816124b8601a5461171f565b6135c4565b6020601f821160011461255b5790806124ec92600091612550575b508160011b916000199060031b1c19161790565b601a555b80516124f857005b61253f61254b610a8b926040519081612515602082018093613cdc565b0391612529601f199384810183528261064a565b5190206040519384916020830160209181520190565b0390810183528261064a565b61374c565b9050830151386124d8565b601a600052601f19821690600080516020614e508339815191529160005b8181106125b45750908360019493921061259b575b5050811b01601a556124f0565b84015160001960f88460031b161c19169055388061258e565b91926020600181928689015181550194019201612579565b3461050e57600036600319011261050e57600a546040516001600160a01b039091168152602090f35b3461050e57600036600319011261050e5760206040516203f4808152f35b3461050e57600036600319011261050e57600d5461264590336001600160a01b039182161490811561080657506134b8565b60175460ff8160081c161561268f5761ff0019166017556040514281527f153e62e8cbf370987f79cde37897d15d96049c5da8601cc119746169febed1c99080602081015b0390a1005b60405162461bcd60e51b815260206004820152600a602482015269139bdd081c185d5cd95960b21b6044820152606490fd5b3461050e5760008060031936011261095c57604051908082601954916126e68361171f565b92838352602094600191866001821691826000146120765750506001146127155750506120089250038361064a565b9085925060198252600080516020614eb08339815191525b85831061274557505061200893508201013880611ffa565b8054838901850152879450869390920191810161272d565b3461050e5760008060031936011261095c57604051908060018054906127828261171f565b808652926020926001811690811561092f57506001146127ac576108d4866108c88188038261064a565b9350600184527fb10e2d527612073b26eecdfd717e6a320cf44b4afac2b0732d9fcbe2b7fa0cf65b8385106127f1575050505081016020016108c8826108d4386108b8565b80548686018401529382019381016127d4565b3461050e57600036600319011261050e5761281e33613ca3565b336000908152602260205260409020541590159081612966575b50610e285733600090815260286020526040902061285590610df4565b6129545733600090815260286020526040902061287190610d88565b61288461287f602954613987565b602955565b612899612892600e54613996565b6064900490565b602954604080518281526020810184905233917f963553e4c1aa776a576b2a0f3ff27eb7870bd13a5ec6b0bb266c3113a26a298791a210158061293f575b6128dd57005b6128ef600160ff196027541617602755565b612901600160ff196021541617602155565b6029546040805142815260208101929092527fc62bec035d80f84213952b377ca5c7e4663e52e2564beba8436b893449f7fe7c91908190810161268a565b5061294f610c7260275460ff1690565b6128d7565b6040516370cc686b60e11b8152600490fd5b905038612838565b3461050e57602036600319011261050e57600435600052602080526020604060002054604051908152f35b3461050e57600036600319011261050e5760206001600160601b03601c5416604051908152f35b3461050e57604036600319011261050e576129d96109bb565b6024358015159081810361050e576001600160a01b038316928315612a645790612a25612a369233600052600560205260406000209060018060a01b0316600052602052604060002090565b9060ff801983541691151516179055565b6040519081527f17307eab39ab6107e8899845ad3d59bd9653f200f220920489ca2b5937696c3160203392a3005b604051630b61174360e31b815260048101859052602490fd5b3461050e57600036600319011261050e576020602954604051908152f35b3461050e57600036600319011261050e57602060ff602554166040519015158152f35b3461050e57600036600319011261050e57602060ff60175460081c166040519015158152f35b3461050e5760008060031936011261095c57612b05610c7260215460ff1690565b612ce1576018544211612ccf57612b1b33613ca3565b8015610e2857612b2a81613910565b82835b838110612c5e57508015612c4c57612b47601654826139c4565b92834710610dac57612b5882613910565b92855b838110612c13575050336000908152602260205260409020612b7e838254613a03565b9055612b8f610cfa85602454613a03565b8480808087335af1612b9f613a23565b5015610d4e578103612bdf5750610d487f4ab127485e25b893b831478744ce27218f38f11abcf85cab4bfe1454decaac6f91604051918291339583613a53565b907f0c7f7bd90e47f42337993bf872ab3fec1d437a69b7edc259f426f3dcbe8f430791610d48604051928392339684613cf3565b80612c46612c2360019385613958565b51612c3b610d88826000526023602052604060002090565b80610da0848a613958565b01612b5b565b60405163a53c6c4f60e01b8152600490fd5b612c688133613c1f565b612c82610c72610df483600052601d602052604060002090565b80612caf575b612c96575b50600101612b2d565b82612ca891610e1b6001949587613958565b9190612c8d565b50612cca610c72610df4836000526023602052604060002090565b612c88565b6040516336ad388960e11b8152600490fd5b6040516364547e6960e01b8152600490fd5b3461050e57600036600319011261050e57600d54612d2590336001600160a01b039182161490811561080657506134b8565b60175460ff8160081c16612d715761ff001916610100176017556040514281527ffdb456e665aa5cdbe3bd91babd696c20184ff9664fb5544c37869f078c2cd71c90806020810161268a565b60405162461bcd60e51b815260206004820152600e60248201526d105b1c9958591e481c185d5cd95960921b6044820152606490fd5b3461050e57608036600319011261050e57612dc06109bb565b612dc86109d1565b90604435606435926001600160401b03841161050e573660238501121561050e57612e00610a8b943690602481600401359101610686565b9261159a838383613a6a565b3461050e57600036600319011261050e576020602454604051908152f35b939092608093612e5f9397969760018060a01b038092168752166020860152604085015260a0606085015260a0840190610842565b931515910152565b3461050e5760208060031936011261050e57600435906108d46000928084526002835260018060a01b0392612ea3846040872054161515613bdc565b612ee960ff612ee16040612eb6866143d3565b97868a52601f8652818a20541698858052601e8282205496522094600052601d602052604060002090565b541692611c55565b9060405195869586612e2a565b3461050e57612f04366106bd565b600d54612f2590336001600160a01b039182161490811561080657506134b8565b80516001600160401b03811161060f57612f4981612f4460195461171f565b613624565b602080601f8311600114612f7f57508190612f7a936000926107865750508160011b916000199060031b1c19161790565b601955005b90601f19831693612fa06019600052600080516020614eb083398151915290565b926000905b868210612fdc5750508360019510612fc3575b505050811b01601955005b015160001960f88460031b161c19169055388080612fb8565b80600185968294968601518155019501930190612fa5565b3461050e57602036600319011261050e576108d4611ca6600435614006565b3461050e57600036600319011261050e576020601554604051908152f35b3461050e57600036600319011261050e57601554600e548103908111611f7e57602090604051908152f35b3461050e57602036600319011261050e57600435600052601f602052602060018060a01b0360406000205416604051908152f35b3461050e57602036600319011261050e576001600160a01b036130b16109bb565b166000526028602052602060ff604060002054166040519015158152f35b3461050e57600036600319011261050e57602060ff601754166040519015158152f35b3461050e57600036600319011261050e576020601854604051908152f35b3461050e57600036600319011261050e576108d4604051611ca681611c9f81611889565b9b956106f89f9d98916131e0989f9b94916131a58f92986131fc9f98613197906131eb9f98613189906131b3986131766131d69f6101e0808c528b0190610842565b9160208a015288820360408a0152610842565b908682036060880152610842565b908482036080860152610842565b9160a0818403910152610842565b9d60c08d015260e08c01526101008b01526101208a015261014089019015159052565b1515610160870152565b60ff16610180850152565b6001600160a01b03166101a0830152565b6101c0818403910152610842565b3461050e57600036600319011261050e5760175460ff8116600081156132a357506003915b601054916015549060165494600e546132488185613c96565b600d546001600160a01b0316939061325e611ab7565b92613267611ad1565b99613270611af3565b97613279611bb7565b613281611ae2565b9061328a611bc8565b9a6040519e8f9e8f9e60081c60ff169a6108d49f613134565b600e54601554116132b7575060019161322f565b6010544211156132ca575060029161322f565b9161322f565b3461050e57604036600319011261050e57602060ff6133216132f06109bb565b6132f86109d1565b6001600160a01b0391821660009081526005865260408082209290931681526020919091522090565b54166040519015158152f35b3461050e57602036600319011261050e57608061335061334b6109bb565b6142c9565b916040519315158452602084015260408301526060820152f35b3461050e57602036600319011261050e576133836109bb565b61338b61475f565b6001600160a01b039081169081156133da57600a54826001600160601b0360a01b821617600a55167f8be0079c531659141344cd1fd0a4f28419497f9722a3daafe3b4186f6b6457e0600080a3005b604051631e4fbdf760e01b815260006004820152602490fd5b3461050e57600036600319011261050e57600d5461342590336001600160a01b039182161490811561080657506134b8565b60175460ff811661347f5760019060ff19161760175561344d600160ff196021541617602155565b6040514281527fdc3cb569b066460f4a22dffa05317bdcce5d3826382ed49a21f13e5fa2063d3990806020810161268a565b60405162461bcd60e51b8152602060048201526011602482015270105b1c9958591e4818d85b98d95b1b1959607a1b6044820152606490fd5b156134bf57565b60405162461bcd60e51b815260206004820152601760248201527f4f6e6c79206f7267616e697a6572206f72206f776e65720000000000000000006044820152606490fd5b601f8111613510575050565b600090600f600052600080516020614e90833981519152906020601f850160051c8301941061355a575b601f0160051c01915b82811061354f57505050565b818155600101613543565b909250829061353a565b601f8111613570575050565b6000906014600052600080516020614e70833981519152906020601f850160051c830194106135ba575b601f0160051c01915b8281106135af57505050565b8181556001016135a3565b909250829061359a565b601f81116135d0575050565b600090601a600052600080516020614e50833981519152906020601f850160051c8301941061361a575b601f0160051c01915b82811061360f57505050565b818155600101613603565b90925082906135fa565b601f8111613630575050565b6000906019600052600080516020614eb0833981519152906020601f850160051c8301941061367a575b601f0160051c01915b82811061366f57505050565b818155600101613663565b909250829061365a565b601f8111613690575050565b600090601b6000527f3ad8aa4f87544323a9d1e5dd902f40c356527a7955687113db5f9a85ad579dc1906020601f850160051c830194106136ec575b601f0160051c01915b8281106136e157505050565b8181556001016136d5565b90925082906136cc565b90601f811161370457505050565b6000916000526020600020906020601f850160051c83019410613742575b601f0160051c01915b82811061373757505050565b81815560010161372b565b9092508290613722565b9081516001600160401b03811161060f576137718161376c601b5461171f565b613684565b602080601f83116001146137a8575081906137a393946000926107865750508160011b916000199060031b1c19161790565b601b55565b90601f198316946137db601b6000527f3ad8aa4f87544323a9d1e5dd902f40c356527a7955687113db5f9a85ad579dc190565b926000905b8782106138185750508360019596106137ff575b505050811b01601b55565b015160001960f88460031b161c191690553880806137f4565b806001859682949686015181550195019301906137e0565b91909182516001600160401b03811161060f5761385781613851845461171f565b846136f6565b602080601f831160011461388e5750819061388a9394956000926107865750508160011b916000199060031b1c19161790565b9055565b90601f198316956138a485600052602060002090565b926000905b8882106138e1575050836001959697106138c8575b505050811b019055565b015160001960f88460031b161c191690553880806138be565b806001859682949686015181550195019301906138a9565b6001600160401b03811161060f5760051b60200190565b9061391a826138f9565b613927604051918261064a565b8281528092613938601f19916138f9565b0190602036910137565b634e487b7160e01b600052603260045260246000fd5b805182101561396c5760209160051b010190565b613942565b634e487b7160e01b600052601160045260246000fd5b6000198114611f7e5760010190565b90601e820291808304601e1490151715611f7e57565b600281901b91906001600160fe1b03811603611f7e57565b81810292918115918404141715611f7e57565b90620151808201809211611f7e57565b9060028201809211611f7e57565b9060208201809211611f7e57565b91908201809211611f7e57565b60405190613a1d82610614565b60008252565b3d15613a4e573d90613a348261066b565b91613a42604051938461064a565b82523d6000602084013e565b606090565b6040906106f8939281528160208201520190610b0f565b6001600160a01b03828116929091908315613bc35760008581526002602052604090205485906001600160a01b03169433613bb3575b8486169586158015613b85575b6001600160a01b038516600090815260036020526040902060018154019055613ae485610a6c866000526002602052604060002090565b8383897fddf252ad1be2c89b69c2b068fc378daa952ba7f163c4a11628f55a4df523b3ef600080a415613b655750613b1b82614bf4565b8503613b55575b50501691828203613b3257505050565b60649350604051926364283d7b60e01b8452600484015260248301526044820152fd5b613b5e91614c51565b3884613b22565b82828803613b75575b5050613b1b565b613b7e91614b84565b3882613b6e565b613b8e84614b60565b6001600160a01b03821660009081526003602052604090208054600019019055613aad565b613bbe823388614d76565b613aa0565b604051633250574960e11b815260006004820152602490fd5b15613be357565b60405162461bcd60e51b8152602060048201526014602482015273151bdad95b88191bd95cc81b9bdd08195e1a5cdd60621b6044820152606490fd5b613c2881613ca3565b821015613c545760018060a01b0316600052600660205260406000209060005260205260406000205490565b60405163295f44f760e21b81526001600160a01b039190911660048201526024810191909152604490fd5b6040906106f8939281528160208201520190611a21565b91908203918211611f7e57565b6001600160a01b03168015613cc357600052600360205260406000205490565b6040516322718ad960e21b815260006004820152602490fd5b90613cef6020928281519485920161081f565b0190565b6106f89392606092825260208201528160408201520190610b0f565b601a5460009291613d1f8261171f565b91600190818116908115613d795750600114613d3a57505050565b9091929350601a600052600080516020614e50833981519152906000915b848310613d66575050500190565b8181602092548587015201920191613d58565b60ff191683525050811515909102019150565b600f5460009291613d9c8261171f565b91600190818116908115613d795750600114613db757505050565b9091929350600f600052600080516020614e90833981519152906000915b848310613de3575050500190565b8181602092548587015201920191613dd5565b60195460009291613e068261171f565b91600190818116908115613d795750600114613e2157505050565b90919293506019600052600080516020614eb0833981519152906000915b848310613e4d575050500190565b8181602092548587015201920191613e3f565b60145460009291613e708261171f565b91600190818116908115613d795750600114613e8b57505050565b90919293506014600052600080516020614e70833981519152906000915b848310613eb7575050500190565b8181602092548587015201920191613ea9565b60115460009291613eda8261171f565b91600190818116908115613d795750600114613ef557505050565b909192935060116000527f31ecc21a745e3968a04e9570e4425bc18fa8019c68028196b546d1669c200c68906000915b848310613f33575050500190565b8181602092548587015201920191613f25565b600092918154613f558161171f565b92600191808316908115613fae5750600114613f715750505050565b9091929394506000526020906020600020906000915b858310613f9d5750505050019038808080611786565b805485840152918301918101613f87565b60ff1916845250505081151590910201915038808080611786565b60405190613fd68261062f565b60028252614e6f60f01b6020830152565b60405190613ff48261062f565b600382526259657360e81b6020830152565b600081815260026020526040902061402a906001600160a01b03906111f3906111e6565b614035601a5461171f565b61428057614042816148ba565b614059610df483600052601d602052604060002090565b156142755761407a614069613fe7565b92600052601e602052604060002090565b604051683d913730b6b2911d1160b91b602082015292839261409e60298501613d8c565b68205469636b6574202360b81b81526009016140b991613cdc565b701116113232b9b1b934b83a34b7b7111d1160791b81526011016140dc90613df6565b6a11161134b6b0b3b2911d1160a91b8152600b016140f990613e60565b6f222c2261747472696275746573223a5b60801b81526010017f7b2274726169745f74797065223a224576656e74222c2276616c7565223a22008152601f0161414190613d8c565b62089f4b60ea1b81526003017f7b2274726169745f74797065223a2256656e7565222c2276616c7565223a22008152601f0161417c90613eca565b62089f4b60ea1b81526003017f7b2274726169745f74797065223a2255736564222c2276616c7565223a2200008152601e016141b791613cdc565b62089f4b60ea1b81526003017f7b2274726169745f74797065223a22427579657220436861696e222c2276616c8152643ab2911d1160d91b602082015260250161420091613f46565b63227d5d7d60e01b81526004010390601f19918281018252614222908261064a565b61422b90614a6d565b6040517f646174613a6170706c69636174696f6e2f6a736f6e3b6261736536342c000000602082015291908290603d820161426591613cdc565b0390810182526106f8908261064a565b61407a614069613fc9565b6106f861428f6142aa926148ba565b6142bb6040519384926142a460208501613d0f565b90613cdc565b64173539b7b760d91b815260050190565b03601f19810183528261064a565b6142d8610c7260215460ff1690565b80156143c8575b6143b9576142ec81613ca3565b9182156143ac576000928392845b828110614338575050508215159081614321575b61431a601654856139c4565b9193929190565b905047614330601654856139c4565b11159061430e565b6143428183613c1f565b614359610df4826000526023602052604060002090565b1561436957506001905b016142fa565b610df461438391969296600052601d602052604060002090565b1561439957614393600191613987565b94614363565b93946143a6600191613987565b95614363565b6000925082915081908190565b50600090600090600090600090565b5060185442116142df565b6000818152600260205260409020546001600160a01b03169081156143f6575090565b60249060405190637e27328960e01b82526004820152fd5b6000818152600260205260409020546001600160a01b0316801590828215806144b9575b614446826000526002602052604060002090565b80546001600160a01b0319169055816000847fddf252ad1be2c89b69c2b068fc378daa952ba7f163c4a11628f55a4df523b3ef8280a4831561449d575061448d9150614bf4565b61449682614c98565b6143f65750565b6144a9575b505061448d565b6144b291614b84565b38826144a2565b6144c282614b60565b6001600160a01b03831660009081526003602052604090208054600019019055614432565b906040516144f481610614565b6000815261450282846145ee565b823b61450d57505050565b60206145309160405180938192630a85bd0160e11b9687845233600485016147a0565b038160006001600160a01b0388165af1600091816145bd575b506145885782614557613a23565b805191908261458157604051633250574960e11b81526001600160a01b0383166004820152602490fd5b6020915001fd5b6001600160e01b0319160361459a5750565b604051633250574960e11b81526001600160a01b03919091166004820152602490fd5b6145e091925060203d6020116145e7575b6145d8818361064a565b81019061478b565b9038614549565b503d6145ce565b6001600160a01b03918183168015613bc3576000828152600260205260409020546001600160a01b0316938416801594851595866146ec575b6001600160a01b03861660009081526003602052604090206001815401905561465e86610a6c876000526002602052604060002090565b8484847fddf252ad1be2c89b69c2b068fc378daa952ba7f163c4a11628f55a4df523b3ef600080a4156146cc575061469583614bf4565b036146bc575b50506146a357565b6040516339e3563760e11b815260006004820152602490fd5b6146c591614c51565b388061469b565b838383036146dc575b5050614695565b6146e591614b84565b38836146d5565b6146f585614b60565b6001600160a01b03821660009081526003602052604090208054600019019055614627565b614723466148ba565b6106f8602660405180936531b430b4b71d60d11b602083015261474f815180926020868601910161081f565b810103600681018452018261064a565b600a546001600160a01b0316330361477357565b60405163118cdaa760e01b8152336004820152602490fd5b9081602091031261050e57516106f8816104fc565b6106f8939260809260018060a01b031682526000602083015260408201528160608201520190610842565b6001600160a01b0391821681529116602082015260408101919091526080606082018190526106f892910190610842565b92939193843b61480d575050505050565b6020916148306040519485938493630a85bd0160e11b98898652600486016147cb565b038160006001600160a01b0388165af160009181614871575b506148575782614557613a23565b6001600160e01b0319160361459a57503880808080611a50565b61488b91925060203d6020116145e7576145d8818361064a565b9038614849565b9061489c8261066b565b6148a9604051918261064a565b8281528092613938601f199161066b565b806000917a184f03e93ff9f4daa797ed6e38ed64bf6a1f010000000000000000808210156149f0575b506d04ee2d6d415b85acef8100000000808310156149e1575b50662386f26fc10000808310156149d2575b506305f5e100808310156149c3575b50612710808310156149b4575b5060648210156149a4575b600a8092101561499a575b60019081602161495260018701614892565b95860101905b614964575b5050505090565b600019019083906f181899199a1a9b1b9c1cb0b131b232b360811b8282061a83530491821561499557919082614958565b61495d565b9160010191614940565b9190606460029104910191614935565b6004919392049101913861492a565b6008919392049101913861491d565b6010919392049101913861490e565b602091939204910191386148fc565b6040935081049150386148e3565b60405190606082018281106001600160401b0382111761060f57604052604082527f6768696a6b6c6d6e6f707172737475767778797a303132333435363738392b2f6040837f4142434445464748494a4b4c4d4e4f505152535455565758595a61626364656660208201520152565b805115614b5757614a7c6149fe565b614a98614a93614a8c84516139e7565b6003900490565b6139ac565b91614aaa614aa5846139f5565b614892565b92835280815182019060208501935b828210614afb57505050600390510680600114614aea57600214614adb575090565b603d60f81b6000199091015290565b50613d3d60f01b6001199091015290565b90919360049060038094019384516001603f81818460121c16880101519260f893841b8652828282600c1c1689010151841b8387015282828260061c1689010151841b60028701521686010151901b9082015201939190614ab9565b506106f8613a10565b614b74906000526004602052604060002090565b80546001600160a01b0319169055565b90614b8e82613ca3565b9160009282845260209060078252604093848620549360018060a01b031686526006835284862093828103614bd2575b508552600782528484812055845252812055565b8287528484528587205481885280878920558752600784528587205538614bbe565b600854816000526009602052806040600020556801000000000000000081101561060f57600181018060085581101561396c5760086000527ff3f7a9fe364faab93b216da50a3214154f22a0a2b415b23a84c8169e8b636ee30155565b90614c5b82613ca3565b600019810192908311611f7e576001600160a01b031660009081526006602090815260408083208584528252808320849055928252600790522055565b6008805460001992838201828111611f7e57600092828452600960205280604085205492101561396c578484527ff3f7a9fe364faab93b216da50a3214154f22a0a2b415b23a84c8169e8b636ee292838201549183101561396c578492614d34614d459388865280837ff3f7a9fe364faab93b216da50a3214154f22a0a2b415b23a84c8169e8b636ee301556000526009602052604060002090565b556000526009602052604060002090565b558254938415614d62578401938085101561396c57838352015555565b634e487b7160e01b83526031600452602483fd5b6001600160a01b03908282168015159081614de1575b5015614d985750505050565b16614db657604051637e27328960e01b815260048101839052602490fd5b60405163177e802f60e01b81526001600160a01b039190911660048201526024810191909152604490fd5b82841680821492508215614e19575b508115614dff575b5038614d8c565b905084600052600460205282604060002054161438614df8565b909150600052600560205260ff614e468560406000209060018060a01b0316600052602052604060002090565b54169038614df056fe057c384a7d1c54f3a1b2e5e67b2617b8224fdfd1ea7234eea573a6ff665ff63ece6d7b5282bd9a3661ae061feed1dbda4e52ab073b1f9285be6e155d9c38d4ec8d1108e10bcb7c27dddfc02ed9d693a074039d026cf4ea4240b40f7d581ac802944998273e477b495144fb8794c914197f3ccb46be2900f4698fd0ef743c9695a2646970667358221220a19ca9af19984d2f3174c4d4202bca2fd3e79a796e9228acacc744cd9d0347ca64736f6c63430008160033bb8a6a4669ba250d26cd7a459eca9d215f8307e33aebe50379bc5a3617ec344431ecc21a745e3968a04e9570e4425bc18fa8019c68028196b546d1669c200c68290decd9548b62a8d60345a988386fc84ba6bc95484008f6362f93160ef3e5633ad8aa4f87544323a9d1e5dd902f40c356527a7955687113db5f9a85ad579dc166de8ffda797e3de9c05e8fc57b3bf0ec28a930d40b0d285d93c06501cf6a090057c384a7d1c54f3a1b2e5e67b2617b8224fdfd1ea7234eea573a6ff665ff63eb10e2d527612073b26eecdfd717e6a320cf44b4afac2b0732d9fcbe2b7fa0cf6ce6d7b5282bd9a3661ae061feed1dbda4e52ab073b1f9285be6e155d9c38d4ec8d1108e10bcb7c27dddfc02ed9d693a074039d026cf4ea4240b40f7d581ac802",
  "linkReferences": {},
  "deployedLinkReferences": {}
}