{
  "_format": "hh-sol-artifact-1",
  "contractName": "EventReview",
  "sourceName": "contracts/EventReview.sol",
  "abi": [
    {
      "inputs": [],
      "stateMutability": "nonpayable",
      "type": "constructor"
    },
    {
      "inputs": [
        {
          "internalType": "address",
          "name": "owner",
          "type": "address"
        }
      ],
      "name": "OwnableInvalidOwner",
      "type": "error"
    },
    {
      "inputs": [
        {
          "internalType": "address",
          "name": "account",
          "type": "address"
        }
      ],
      "name": "OwnableUnauthorizedAccount",
      "type": "error"
    },
    {
      "anonymous": false,
      "inputs": [
        {
          "indexed": true,
          "internalType": "address",
          "name": "previousOwner",
          "type": "address"
        },
        {
          "indexed": true,
          "internalType": "address",
          "name": "newOwner",
          "type": "address"
        }
      ],
      "name": "OwnershipTransferred",
      "type": "event"
    },
    {
      "anonymous": false,
      "inputs": [
        {
          "indexed": true,
          "internalType": "address",
          "name": "reviewer",
          "type": "address"
        },
        {
          "indexed": true,
          "internalType": "uint256",
          "name": "eventId",
          "type": "uint256"
        },
        {
          "indexed": false,
          "internalType": "uint256",
          "name": "rating",
          "type": "uint256"
        },
        {
          "indexed": false,
          "internalType": "string",
          "name": "reviewUri",
          "type": "string"
        }
      ],
      "name": "ReviewCreated",
      "type": "event"
    },
    {
      "anonymous": false,
      "inputs": [
        {
          "indexed": true,
          "internalType": "address",
          "name": "user",
          "type": "address"
        },
        {
          "indexed": true,
          "internalType": "bytes32",
          "name": "reviewId",
          "type": "bytes32"
        }
      ],
      "name": "ReviewHelpful",
      "type": "event"
    },
    {
      "anonymous": false,
      "inputs": [
        {
          "indexed": true,
          "internalType": "address",
          "name": "reviewer",
          "type": "address"
        },
        {
          "indexed": true,
          "internalType": "uint256",
          "name": "eventId",
          "type": "uint256"
        },
        {
          "indexed": false,
          "internalType": "uint256",
          "name": "rating",
          "type": "uint256"
        },
        {
          "indexed": false,
          "internalType": "string",
          "name": "reviewUri",
          "type": "string"
        }
      ],
      "name": "ReviewUpdated",
      "type": "event"
    },
    {
      "inputs": [
        {
          "internalType": "uint256",
          "name": "eventId",
          "type": "uint256"
        },
        {
          "internalType": "uint256",
          "name": "rating",
          "type": "uint256"
        },
        {
          "internalType": "string",
          "name": "reviewUri",
          "type": "string"
        },
        {
          "internalType": "string",
          "name": "contentHash",
          "type": "string"
        }
      ],
      "name": "createReview",
      "outputs": [],
      "stateMutability": "nonpayable",
      "type": "function"
    },
    {
      "inputs": [
        {
          "internalType": "uint256",
          "name": "",
          "type": "uint256"
        }
      ],
      "name": "eventStats",
      "outputs": [
        {
          "internalType": "uint256",
          "name": "totalReviews",
          "type": "uint256"
        },
        {
          "internalType": "uint256",
          "name": "totalRatingSum",
          "type": "uint256"
        },
        {
          "internalType": "uint256",
          "name": "averageRating",
          "type": "uint256"
        }
      ],
      "stateMutability": "view",
      "type": "function"
    },
    {
      "inputs": [],
      "name": "getAllReviewIds",
      "outputs": [
        {
          "internalType": "bytes32[]",
          "name": "",
          "type": "bytes32[]"
        }
      ],
      "stateMutability": "view",
      "type": "function"
    },
    {
      "inputs": [
        {
          "internalType": "uint256",
          "name": "eventId",
          "type": "uint256"
        }
      ],
      "name": "getEventStats",
      "outputs": [
        {
          "internalType": "uint256",
          "name": "totalReviews",
          "type": "uint256"
        },
        {
          "internalType": "uint256",
          "name": "averageRating",
          "type": "uint256"
        },
        {
          "internalType": "uint256",
          "name": "totalRatingSum",
          "type": "uint256"
        }
      ],
      "stateMutability": "view",
      "type": "function"
    },
    {
      "inputs": [
        {
          "internalType": "uint256",
          "name": "eventId",
          "type": "uint256"
        },
        {
          "internalType": "address",
          "name": "reviewer",
          "type": "address"
        }
      ],
      "name": "getReview",
      "outputs": [
        {
          "internalType": "address",
          "name": "_reviewer",
          "type": "address"
        },
        {
          "internalType": "uint256",
          "name": "_eventId",
          "type": "uint256"
        },
        {
          "internalType": "uint256",
          "name": "_rating",
          "type": "uint256"
        },
        {
          "internalType": "string",
          "name": "_reviewUri",
          "type": "string"
        },
        {
          "internalType": "string",
          "name": "_contentHash",
          "type": "string"
        },
        {
          "internalType": "uint256",
          "name": "_timestamp",
          "type": "uint256"
        },
        {
          "internalType": "uint256",
          "name": "_helpfulCount",
          "type": "uint256"
        }
      ],
      "stateMutability": "view",
      "type": "function"
    },
    {
      "inputs": [
        {
          "internalType": "uint256",
          "name": "eventId",
          "type": "uint256"
        },
        {
          "internalType": "uint256",
          "name": "offset",
          "type": "uint256"
        },
        {
          "internalType": "uint256",
          "name": "limit",
          "type": "uint256"
        }
      ],
      "name": "getReviewsForEvent",
      "outputs": [
        {
          "internalType": "address[]",
          "name": "reviewers",
          "type": "address[]"
        },
        {
          "internalType": "uint256[]",
          "name": "ratings",
          "type": "uint256[]"
        },
        {
          "internalType": "string[]",
          "name": "reviewUris",
          "type": "string[]"
        },
        {
          "internalType": "string[]",
          "name": "contentHashes",
          "type": "string[]"
        },
        {
          "internalType": "uint256[]",
          "name": "timestamps",
          "type": "uint256[]"
        },
        {
          "internalType": "uint256[]",
          "name": "helpfulCounts",
          "type": "uint256[]"
        }
      ],
      "stateMutability": "view",
      "type": "function"
    },
    {
      "inputs": [],
      "name": "getTotalReviews",
      "outputs": [
        {
          "internalType": "uint256",
          "name": "",
          "type": "uint256"
        }
      ],
      "stateMutability": "view",
      "type": "function"
    },
    {
      "inputs": [
        {
          "internalType": "uint256",
          "name": "eventId",
          "type": "uint256"
        },
        {
          "internalType": "address",
          "name": "user",
          "type": "address"
        }
      ],
      "name": "hasUserReviewed",
      "outputs": [
        {
          "internalType": "bool",
          "name": "",
          "type": "bool"
        }
      ],
      "stateMutability": "view",
      "type": "function"
    },
    {
      "inputs": [
        {
          "internalType": "uint256",
          "name": "eventId",
          "type": "uint256"
        },
        {
          "internalType": "address",
          "name": "reviewer",
          "type": "address"
        }
      ],
      "name": "markReviewHelpful",
      "outputs": [],
      "stateMutability": "nonpayable",
      "type": "function"
    },
    {
      "inputs": [],
      "name": "owner",
      "outputs": [
        {
          "internalType": "address",
          "name": "",
          "type": "address"
        }
      ],
      "stateMutability": "view",
      "type": "function"
    },
    {
      "inputs": [],
      "name": "platformContract",
      "outputs": [
        {
          "internalType": "address",
          "name": "",
          "type": "address"
        }
      ],
      "stateMutability": "view",
      "type": "function"
    },
    {
      "inputs": [],
      "name": "renounceOwnership",
      "outputs": [],
      "stateMutability": "nonpayable",
      "type": "function"
    },
    {
      "inputs": [
        {
          "internalType": "uint256",
          "name": "",
          "type": "uint256"
        }
      ],
      "name": "reviewIds",
      "outputs": [
        {
          "internalType": "bytes32",
          "name": "",
          "type": "bytes32"
        }
      ],
      "stateMutability": "view",
      "type": "function"
    },
    {
      "inputs": [
        {
          "internalType": "bytes32",
          "name": "",
          "type": "bytes32"
        }
      ],
      "name": "reviews",
      "outputs": [
        {
          "internalType": "address",
          "name": "reviewer",
          "type": "address"
        },
        {
          "internalType": "uint256",
          "name": "eventId",
          "type": "uint256"
        },
        {
          "internalType": "uint256",
          "name": "rating",
          "type": "uint256"
        },
        {
          "internalType": "string",
          "name": "reviewUri",
          "type": "string"
        },
        {
          "internalType": "string",
          "name": "contentHash",
          "type": "string"
        },
        {
          "internalType": "uint256",
          "name": "timestamp",
          "type": "uint256"
        },
        {
          "internalType": "uint256",
          "name": "helpfulCount",
          "type": "uint256"
        },
        {
          "internalType": "bool",
          "name": "exists",
          "type": "bool"
        }
      ],
      "stateMutability": "view",
      "type": "function"
    },
    {
      "inputs": [
        {
          "internalType": "address",
          "name": "_platform",
          "type": "address"
        }
      ],
      "name": "setPlatformContract",
      "outputs": [],
      "stateMutability": "nonpayable",
      "type": "function"
    },
    {
      "inputs": [
        {
          "internalType": "address",
          "name": "newOwner",
          "type": "address"
        }
      ],
      "name": "transferOwnership",
      "outputs": [],
      "stateMutability": "nonpayable",
      "type": "function"
    },
    {
      "inputs": [
        {
          "internalType": "uint256",
          "name": "eventId",
          "type": "uint256"
        },
        {
          "internalType": "uint256",
          "name": "newRating",
          "type": "uint256"
        },
        {
          "internalType": "string",
          "name": "newReviewUri",
          "type": "string"
        },
        {
          "internalType": "string",
          "name": "newContentHash",
          "type": "string"
        }
      ],
      "name": "updateReview",
      "outputs": [],
      "stateMutability": "nonpayable",
      "type": "function"
    }
  ],
  "bytecode": "0x6080806040523461007a5733156100645760008054336001600160a01b03198216811783556040519290916001600160a01b0316907f8be0079c531659141344cd1fd0a4f28419497f9722a3daafe3b4186f6b6457e09080a3611b6890816100808239f35b631e4fbdf760e01b815260006004820152602490fd5b600080fdfe608080604052600436101561001357600080fd5b600090813560e01c90816316274695146114e7575080632101ff65146113c5578063234353aa1461138a57806325a19f041461134f57806325f600821461133157806328be65af146112e657806358733e491461125057806369c02abe1461114d578063715018a6146111055780637d85b2be146109ed5780638475100d146109385780638da5cb5b14610911578063a44760f214610889578063c2ef97bd146104d4578063c40e33df1461049b578063d6fbd753146101545763f2fde38b146100dc57600080fd5b34610151576020366003190112610151576100f561152b565b6100fd611ac6565b6001600160a01b03908116908115610138576000548260018060a01b031982161760005516600080516020611b13833981519152600080a380f35b604051631e4fbdf760e01b815260048101849052602490fd5b80fd5b5034610151576060366003190112610151576004546044359180805b838110610457575080610185856024356119ab565b11610443575b6024351161043b575b9161019e81611a1f565b916101ac60405193846115dc565b8183526101b882611a1f565b602084019490601f19013686376101ce83611a36565b6101d784611a68565b906101e185611a68565b926101eb86611a36565b946101f587611a36565b968283845b8481106102a7575b50505050506040519660c088019060c089525180915260e0880198915b818110610288575050506102769261025a61028496959361024c8a610268958b809d0360208d01526117b3565b9089820360408b01526117e7565b9087820360608901526117e7565b9085820360808701526117b3565b9083820360a08501526117b3565b0390f35b82516001600160a01b03168a526020998a01999092019160010161021f565b6102ba819c959c9b9a999897969b611782565b90549060031b1c8b526002602052600435600160408d200154146102eb575b6001019a939a999495969798996101fa565b9060243581101580610432575b61031d575b610306906118a6565b908383106102d957849b5099949596979899610202565b9161032782611782565b90549060031b1c8b52600260205260408b206040519061034682611597565b80546001600160a01b0316825260018101546020830152600281015460408301908152610375600383016116dd565b6060840190815290610389600484016116dd565b60808501908152600584015460a0860152600684015460c086015260079093015460ff16151560e085015283516001600160a01b03166103c9868b611ab2565b52516103d5858b611ab2565b52516103e1848b611ab2565b526103ec838a611ab2565b50516103f8838b611ab2565b52610403828a611ab2565b5060a0810151610413838c611ab2565b5260c00151610422828c611ab2565b5261042c906118a6565b916102fd565b508383106102f8565b915081610194565b925061045160243584611a12565b9261018b565b61046081611782565b90549060031b1c83526002602052600435600160408520015414610487575b600101610170565b906104936001916118a6565b91905061047f565b503461015157602036600319011261015157600435906004548210156101515760206104c683611782565b90546040519160031b1c8152f35b5034610151576104e336611655565b600183929310158061087e575b6104f9906118cb565b61050583511515611917565b61051181511515611960565b604051602081019061053681610528338986611844565b03601f1981018352826115dc565b51902085526002602052604085209061055560ff600784015416611862565b8154336001600160a01b039091160361082b5784865260036020528260408720600181019060026105a583549361059a86610595858b0197885490611a12565b6119ab565b8091558354906119b8565b9101555583516001600160401b03811161075d576105c660038401546116a3565b601f81116107e6575b50806020601f821160011461077c578891610771575b508160011b916000199060031b1c19161760038301555b8051906001600160401b03821161075d5761061a60048401546116a3565b601f8111610714575b50602090601f831160011461069957600080516020611af38339815191529493929188918361068e575b50508160011b916000199060031b1c19161760048201555b600542910155604051908152604060208201528061068833946040830190611541565b0390a380f35b01519050388061064d565b600484018852602088209190601f198416895b8181106106fc5750916001939185600080516020611af383398151915298979694106106e3575b505050811b016004820155610665565b015160001960f88460031b161c191690553880806106d3565b929360206001819287860151815501950193016106ac565b60048401885260208820601f840160051c81019160208510610753575b601f0160051c01905b8181106107475750610623565b6000815560010161073a565b9091508190610731565b634e487b7160e01b87526041600452602487fd5b9050850151386105e5565b91506003840188526020882088925b601f19831684106107ce576001935082601f198116106107b5575b5050811b0160038301556105fc565b87015160001960f88460031b161c1916905538806107a6565b8781015182556020938401936001909201910161078b565b60038401885260208820601f830160051c810160208410610824575b601f830160051c820181106108185750506105cf565b60008155600101610802565b5080610802565b60405162461bcd60e51b815260206004820152602560248201527f4f6e6c7920746865206f726967696e616c2072657669657765722063616e2075604482015264706461746560d81b6064820152608490fd5b5060058211156104f0565b5034610151576020366003190112610151576108a361152b565b6108ab611ac6565b6001600160a01b031680156108d157600180546001600160a01b03191691909117905580f35b60405162461bcd60e51b8152602060048201526018602482015277496e76616c696420706c6174666f726d206164647265737360401b6044820152606490fd5b5034610151578060031936011261015157546040516001600160a01b039091168152602090f35b503461015157602036600319011261015157600435815260026020819052604090912080546001820154928201549291906001600160a01b031661097e600383016116dd565b916109d761098e600483016116dd565b6109c960058401549560ff600760068701549601541695604051998a99610100928b5260208b015260408a01528060608a0152880190611541565b908682036080880152611541565b9260a085015260c0840152151560e08301520390f35b5034610151576109fc36611655565b600183959492951015806110fa575b610a14906118cb565b610a2085511515611917565b610a2c81511515611960565b81845260036020526003604085200133855260205260ff6040852054166110b7576040516020810190610a6481610528338786611844565b519020808552600260205260ff60076040872001541661107a5760405191610a8b83611597565b338352602083019084825260408401868152606085019189835260808601524260a08601528760c0860152600160e08601528388526002602052604088209260018060a01b0386511660018060a01b03198554161784555160018401555160028301555180519060018060401b038211610f9c578190610b0e60038501546116a3565b601f811161102a575b50602090601f8311600114610fbb578992610fb0575b50508160011b916000199060031b1c19161760038201555b60808301518051906001600160401b038211610f9c57610b6860048401546116a3565b601f8111610f58575b50602090601f8311600114610ee957918060e094926007948b92610ede575b50508160011b916000199060031b1c19161760048201555b60a0850151600582015560c085015160068201550192015115159160ff199260ff848354169116179055600454600160401b811015610eca57806001610bf19201600455611782565b819291549060031b91821b91600019901b19161790558184526003602052816040852095610c3c610c2288546118a6565b80895560018901610c348882546119ab565b8091556119b8565b926002880193845533875260038801602052600160408820918254161790557fda6d42e29a33fa58c8ab89211d200c1872542c44cfe9ce01a5d3866b9ea4580e6040518681526040602082015280610c9933946040830190611541565b0390a36001546001600160a01b031680610cb1578480f35b602060049160405192838092630e64f35d60e01b82525afa908115610e8c578591610eab575b5060018060a01b03169054945494813b15610e6957948491610d119683604051809981958294637fa7af5b60e11b84528960048501611581565b03925af1610e97575b82935060018060a01b036001541690604051602081600481631c5f309960e01b968782525afa908115610e8c578591610e6d575b506001600160a01b031690813b15610e695784610d8581938293604051948580948193631fff86f760e21b835233600484016119f7565b03925af1610e55575b5050600154604051918252602090829060049082906001600160a01b03165afa908115610e4a578391610e1b575b506001600160a01b0316803b15610e1757604051634e63f9b160e01b81529183918391829084908290610df39033600484016119f7565b03925af1610e03575b8080808480f35b610e0c906115c9565b610151578038610dfc565b5050fd5b610e3d915060203d602011610e43575b610e3581836115dc565b8101906119d8565b38610dbc565b503d610e2b565b6040513d85823e3d90fd5b610e5e906115c9565b610e17578238610d8e565b8480fd5b610e86915060203d602011610e4357610e3581836115dc565b38610d4e565b6040513d87823e3d90fd5b919092610ea3906115c9565b908290610d1a565b610ec4915060203d602011610e4357610e3581836115dc565b38610cd7565b634e487b7160e01b86526041600452602486fd5b015190503880610b90565b600484018952602089209190601f1984168a5b818110610f40575092600192859260079660e0989610610f27575b505050811b016004820155610ba8565b015160001960f88460031b161c19169055388080610f17565b92936020600181928786015181550195019301610efc565b60048401895260208920601f840160051c810160208510610f95575b601f830160051c82018110610f8a575050610b71565b8a8155600101610f74565b5080610f74565b634e487b7160e01b88526041600452602488fd5b015190503880610b2d565b9250600384018952602089209089935b601f198416851061100f576001945083601f19811610610ff6575b505050811b016003820155610b45565b015160001960f88460031b161c19169055388080610fe6565b81810151835560209485019460019093019290910190610fcb565b90915060038401895260208920601f840160051c810160208510611073575b90849392915b601f830160051c82018110611065575050610b17565b8b815585945060010161104f565b5080611049565b60405162461bcd60e51b815260206004820152601560248201527452657669657720616c72656164792065786973747360581b6044820152606490fd5b60405162461bcd60e51b815260206004820152601b60248201527a105b1c9958591e481c995d9a595dd959081d1a1a5cc8195d995b9d602a1b6044820152606490fd5b506005831115610a0b565b503461015157806003193601126101515761111e611ac6565b80546001600160a01b03198116825581906001600160a01b0316600080516020611b138339815191528280a380f35b503461015157604036600319011261015157611167611510565b60405161117f81610528602082019460043586611844565b519020808252600260205261119d60ff600760408520015416611862565b808252600260205260408220546001600160a01b031633146111fc578082526002602052600660408320016111d281546118a6565b9055337f49881b79a6cd9b25e8f9be536cc2732f8823c80e75dda072eb8af052917427408380a380f35b60405162461bcd60e51b815260206004820152602660248201527f43616e6e6f74206d61726b20796f7572206f776e207265766965772061732068604482015265195b1c199d5b60d21b6064820152608490fd5b5034610151578060031936011261015157604051809160045490818352602080930180926004835284832090835b8181106112d257505050846112949103856115dc565b60405193838594850191818652518092526040850193925b8281106112bb57505050500390f35b8351855286955093810193928101926001016112ac565b82548452928601926001928301920161127e565b50346101515760403660031901126101515760ff6040602092611307611510565b600435825260038086528383206001600160a01b0390921683520184522054604051911615158152f35b50346101515780600319360112610151576020600454604051908152f35b503461015157602036600319011261015157604090600435815260036020522080546102846001600284015493015460405193849384611581565b503461015157602036600319011261015157604090600435815260036020522080546102846002600184015493015460405193849384611581565b5034610151576040366003190112610151576040906113e2611510565b82516113f981610528602082019460043586611844565b51902081526002602052206040519061141182611597565b60018060a01b0390818154168352600181015491602084019283526114d8600283015494604081019586526114ca61144b600386016116dd565b936060830194855261145f600487016116dd565b906080840191825260058701549360a0810194855261149860ff600760068b01549a60c085019b8c5201541615158060e0840152611862565b51169651975194519051925195519460405198899889526020890152604088015260e0606088015260e0870190611541565b908582036080870152611541565b9160a084015260c08301520390f35b90503461150c578160031936011261150c576001546001600160a01b03168152602090f35b5080fd5b602435906001600160a01b038216820361152657565b600080fd5b600435906001600160a01b038216820361152657565b919082519283825260005b84811061156d575050826000602080949584010152601f8019910116010190565b60208183018101518483018201520161154c565b6040919493926060820195825260208201520152565b61010081019081106001600160401b038211176115b357604052565b634e487b7160e01b600052604160045260246000fd5b6001600160401b0381116115b357604052565b601f909101601f19168101906001600160401b038211908210176115b357604052565b81601f82011215611526578035906001600160401b0382116115b35760405192611633601f8401601f1916602001856115dc565b8284526020838301011161152657816000926020809301838601378301015290565b9060806003198301126115265760043591602435916001600160401b036044358181116115265783611689916004016115ff565b92606435918211611526576116a0916004016115ff565b90565b90600182811c921680156116d3575b60208310146116bd57565b634e487b7160e01b600052602260045260246000fd5b91607f16916116b2565b906040519182600082546116f0816116a3565b908184526020946001916001811690816000146117605750600114611721575b50505061171f925003836115dc565b565b600090815285812095935091905b81831061174857505061171f9350820101388080611710565b8554888401850152948501948794509183019161172f565b9250505061171f94925060ff191682840152151560051b820101388080611710565b60045481101561179d57600460005260206000200190600090565b634e487b7160e01b600052603260045260246000fd5b90815180825260208080930193019160005b8281106117d3575050505090565b8351855293810193928101926001016117c5565b90808251908181526020809101926020808460051b8301019501936000915b8483106118165750505050505090565b9091929394958480611834600193601f198682030187528a51611541565b9801930193019194939290611806565b90815260609190911b6001600160601b031916602082015260340190565b1561186957565b60405162461bcd60e51b815260206004820152601560248201527414995d9a595dc8191bd95cc81b9bdd08195e1a5cdd605a1b6044820152606490fd5b60001981146118b55760010190565b634e487b7160e01b600052601160045260246000fd5b156118d257565b60405162461bcd60e51b815260206004820152601e60248201527f526174696e67206d757374206265206265747765656e203120616e64203500006044820152606490fd5b1561191e57565b60405162461bcd60e51b815260206004820152601a602482015279526576696577205552492063616e6e6f7420626520656d70747960301b6044820152606490fd5b1561196757565b60405162461bcd60e51b815260206004820152601c60248201527b436f6e74656e7420686173682063616e6e6f7420626520656d70747960201b6044820152606490fd5b919082018092116118b557565b81156119c2570490565b634e487b7160e01b600052601260045260246000fd5b9081602091031261152657516001600160a01b03811681036115265790565b6001600160a01b039091168152602081019190915260400190565b919082039182116118b557565b6001600160401b0381116115b35760051b60200190565b90611a4082611a1f565b611a4d60405191826115dc565b8281528092611a5e601f1991611a1f565b0190602036910137565b90611a7282611a1f565b611a7f60405191826115dc565b8281528092611a90601f1991611a1f565b019060005b828110611aa157505050565b806060602080938501015201611a95565b805182101561179d5760209160051b010190565b6000546001600160a01b03163303611ada57565b60405163118cdaa760e01b8152336004820152602490fdfe9ba07e17fb4232c346b396d3b287fbd84d637c451543170397b0d399369b80d48be0079c531659141344cd1fd0a4f28419497f9722a3daafe3b4186f6b6457e0a2646970667358221220bfe696d060e988957f817cde4a2174e69002bf4c04be1f2fa7bbbb1927a7860964736f6c63430008160033",
  "linkReferences": {},
  "deployedLinkReferences": {}
}