{
  "_format": "hh-sol-artifact-1",
  "contractName": "EventRefund",
  "sourceName": "contracts/EventRefund.sol",
  "abi": [
    {
      "inputs": [],
      "stateMutability": "nonpayable",
      "type": "constructor"
    },
    {
      "inputs": [
        {
          "internalType": "address",
          "name": "owner",
          "type": "address"
        }
      ],
      "name": "OwnableInvalidOwner",
      "type": "error"
    },
    {
      "inputs": [
        {
          "internalType": "address",
          "name": "account",
          "type": "address"
        }
      ],
      "name": "OwnableUnauthorizedAccount",
      "type": "error"
    },
    {
      "inputs": [],
      "name": "ReentrancyGuardReentrantCall",
      "type": "error"
    },
    {
      "anonymous": false,
      "inputs": [
        {
          "indexed": true,
          "internalType": "address",
          "name": "eventContract",
          "type": "address"
        },
        {
          "indexed": true,
          "internalType": "uint256",
          "name": "eventId",
          "type": "uint256"
        },
        {
          "indexed": true,
          "internalType": "address",
          "name": "organizer",
          "type": "address"
        },
        {
          "indexed": false,
          "internalType": "enum EventRefund.CancellationReason",
          "name": "reason",
          "type": "uint8"
        },
        {
          "indexed": false,
          "internalType": "uint256",
          "name": "refundDeadline",
          "type": "uint256"
        }
      ],
      "name": "EventCancelled",
      "type": "event"
    },
    {
      "anonymous": false,
      "inputs": [
        {
          "indexed": true,
          "internalType": "address",
          "name": "previousOwner",
          "type": "address"
        },
        {
          "indexed": true,
          "internalType": "address",
          "name": "newOwner",
          "type": "address"
        }
      ],
      "name": "OwnershipTransferred",
      "type": "event"
    },
    {
      "anonymous": false,
      "inputs": [
        {
          "indexed": true,
          "internalType": "uint256",
          "name": "claimId",
          "type": "uint256"
        }
      ],
      "name": "RefundApproved",
      "type": "event"
    },
    {
      "anonymous": false,
      "inputs": [
        {
          "indexed": true,
          "internalType": "uint256",
          "name": "claimId",
          "type": "uint256"
        },
        {
          "indexed": true,
          "internalType": "address",
          "name": "claimant",
          "type": "address"
        },
        {
          "indexed": true,
          "internalType": "address",
          "name": "eventContract",
          "type": "address"
        },
        {
          "indexed": false,
          "internalType": "uint256",
          "name": "eventId",
          "type": "uint256"
        },
        {
          "indexed": false,
          "internalType": "uint256",
          "name": "tokenId",
          "type": "uint256"
        },
        {
          "indexed": false,
          "internalType": "uint256",
          "name": "refundAmount",
          "type": "uint256"
        }
      ],
      "name": "RefundClaimCreated",
      "type": "event"
    },
    {
      "anonymous": false,
      "inputs": [
        {
          "indexed": true,
          "internalType": "uint256",
          "name": "claimId",
          "type": "uint256"
        },
        {
          "indexed": true,
          "internalType": "address",
          "name": "claimant",
          "type": "address"
        },
        {
          "indexed": false,
          "internalType": "uint256",
          "name": "refundAmount",
          "type": "uint256"
        }
      ],
      "name": "RefundClaimed",
      "type": "event"
    },
    {
      "anonymous": false,
      "inputs": [
        {
          "indexed": true,
          "internalType": "address",
          "name": "eventContract",
          "type": "address"
        },
        {
          "indexed": true,
          "internalType": "uint256",
          "name": "eventId",
          "type": "uint256"
        },
        {
          "indexed": false,
          "internalType": "uint256",
          "name": "amount",
          "type": "uint256"
        }
      ],
      "name": "RefundPoolFunded",
      "type": "event"
    },
    {
      "anonymous": false,
      "inputs": [
        {
          "indexed": true,
          "internalType": "uint256",
          "name": "claimId",
          "type": "uint256"
        }
      ],
      "name": "RefundRejected",
      "type": "event"
    },
    {
      "inputs": [
        {
          "internalType": "uint256",
          "name": "claimId",
          "type": "uint256"
        }
      ],
      "name": "approveRefund",
      "outputs": [],
      "stateMutability": "nonpayable",
      "type": "function"
    },
    {
      "inputs": [
        {
          "internalType": "uint256[]",
          "name": "claimIds",
          "type": "uint256[]"
        }
      ],
      "name": "batchApproveRefunds",
      "outputs": [],
      "stateMutability": "nonpayable",
      "type": "function"
    },
    {
      "inputs": [
        {
          "internalType": "address",
          "name": "eventContract",
          "type": "address"
        },
        {
          "internalType": "uint256",
          "name": "eventId",
          "type": "uint256"
        },
        {
          "internalType": "uint256",
          "name": "tokenId",
          "type": "uint256"
        },
        {
          "internalType": "address",
          "name": "user",
          "type": "address"
        }
      ],
      "name": "canClaimRefund",
      "outputs": [
        {
          "internalType": "bool",
          "name": "",
          "type": "bool"
        }
      ],
      "stateMutability": "view",
      "type": "function"
    },
    {
      "inputs": [
        {
          "internalType": "address",
          "name": "eventContract",
          "type": "address"
        },
        {
          "internalType": "uint256",
          "name": "eventId",
          "type": "uint256"
        },
        {
          "internalType": "uint256",
          "name": "ticketPrice",
          "type": "uint256"
        },
        {
          "internalType": "uint256",
          "name": "totalTicketsSold",
          "type": "uint256"
        },
        {
          "internalType": "uint256",
          "name": "refundDeadlineDays",
          "type": "uint256"
        },
        {
          "internalType": "enum EventRefund.CancellationReason",
          "name": "reason",
          "type": "uint8"
        }
      ],
      "name": "cancelEvent",
      "outputs": [
        {
          "internalType": "bool",
          "name": "",
          "type": "bool"
        }
      ],
      "stateMutability": "nonpayable",
      "type": "function"
    },
    {
      "inputs": [
        {
          "internalType": "address",
          "name": "eventContract",
          "type": "address"
        },
        {
          "internalType": "uint256",
          "name": "eventId",
          "type": "uint256"
        },
        {
          "internalType": "uint256",
          "name": "tokenId",
          "type": "uint256"
        }
      ],
      "name": "claimRefund",
      "outputs": [
        {
          "internalType": "uint256",
          "name": "",
          "type": "uint256"
        }
      ],
      "stateMutability": "nonpayable",
      "type": "function"
    },
    {
      "inputs": [],
      "name": "emergencyWithdraw",
      "outputs": [],
      "stateMutability": "nonpayable",
      "type": "function"
    },
    {
      "inputs": [
        {
          "internalType": "address",
          "name": "",
          "type": "address"
        },
        {
          "internalType": "uint256",
          "name": "",
          "type": "uint256"
        }
      ],
      "name": "eventCancellations",
      "outputs": [
        {
          "internalType": "address",
          "name": "eventContract",
          "type": "address"
        },
        {
          "internalType": "uint256",
          "name": "eventId",
          "type": "uint256"
        },
        {
          "internalType": "address",
          "name": "organizer",
          "type": "address"
        },
        {
          "internalType": "uint256",
          "name": "ticketPrice",
          "type": "uint256"
        },
        {
          "internalType": "uint256",
          "name": "totalTicketsSold",
          "type": "uint256"
        },
        {
          "internalType": "uint256",
          "name": "refundDeadline",
          "type": "uint256"
        },
        {
          "internalType": "uint256",
          "name": "cancelledAt",
          "type": "uint256"
        },
        {
          "internalType": "enum EventRefund.CancellationReason",
          "name": "reason",
          "type": "uint8"
        },
        {
          "internalType": "bool",
          "name": "refundPoolFunded",
          "type": "bool"
        },
        {
          "internalType": "bool",
          "name": "active",
          "type": "bool"
        }
      ],
      "stateMutability": "view",
      "type": "function"
    },
    {
      "inputs": [
        {
          "internalType": "address",
          "name": "eventContract",
          "type": "address"
        },
        {
          "internalType": "uint256",
          "name": "eventId",
          "type": "uint256"
        }
      ],
      "name": "fundRefundPool",
      "outputs": [
        {
          "internalType": "bool",
          "name": "",
          "type": "bool"
        }
      ],
      "stateMutability": "payable",
      "type": "function"
    },
    {
      "inputs": [
        {
          "internalType": "address",
          "name": "eventContract",
          "type": "address"
        },
        {
          "internalType": "uint256",
          "name": "eventId",
          "type": "uint256"
        }
      ],
      "name": "getEventCancellation",
      "outputs": [
        {
          "components": [
            {
              "internalType": "address",
              "name": "eventContract",
              "type": "address"
            },
            {
              "internalType": "uint256",
              "name": "eventId",
              "type": "uint256"
            },
            {
              "internalType": "address",
              "name": "organizer",
              "type": "address"
            },
            {
              "internalType": "uint256",
              "name": "ticketPrice",
              "type": "uint256"
            },
            {
              "internalType": "uint256",
              "name": "totalTicketsSold",
              "type": "uint256"
            },
            {
              "internalType": "uint256",
              "name": "refundDeadline",
              "type": "uint256"
            },
            {
              "internalType": "uint256",
              "name": "cancelledAt",
              "type": "uint256"
            },
            {
              "internalType": "enum EventRefund.CancellationReason",
              "name": "reason",
              "type": "uint8"
            },
            {
              "internalType": "bool",
              "name": "refundPoolFunded",
              "type": "bool"
            },
            {
              "internalType": "bool",
              "name": "active",
              "type": "bool"
            }
          ],
          "internalType": "struct EventRefund.EventCancellation",
          "name": "",
          "type": "tuple"
        }
      ],
      "stateMutability": "view",
      "type": "function"
    },
    {
      "inputs": [
        {
          "internalType": "uint256",
          "name": "claimId",
          "type": "uint256"
        }
      ],
      "name": "getRefundClaim",
      "outputs": [
        {
          "components": [
            {
              "internalType": "address",
              "name": "claimant",
              "type": "address"
            },
            {
              "internalType": "address",
              "name": "eventContract",
              "type": "address"
            },
            {
              "internalType": "uint256",
              "name": "eventId",
              "type": "uint256"
            },
            {
              "internalType": "uint256",
              "name": "tokenId",
              "type": "uint256"
            },
            {
              "internalType": "uint256",
              "name": "refundAmount",
              "type": "uint256"
            },
            {
              "internalType": "enum EventRefund.RefundStatus",
              "name": "status",
              "type": "uint8"
            },
            {
              "internalType": "uint256",
              "name": "claimedAt",
              "type": "uint256"
            },
            {
              "internalType": "uint256",
              "name": "processedAt",
              "type": "uint256"
            },
            {
              "internalType": "bool",
              "name": "ticketBurned",
              "type": "bool"
            }
          ],
          "internalType": "struct EventRefund.RefundClaim",
          "name": "",
          "type": "tuple"
        }
      ],
      "stateMutability": "view",
      "type": "function"
    },
    {
      "inputs": [
        {
          "internalType": "address",
          "name": "eventContract",
          "type": "address"
        },
        {
          "internalType": "uint256",
          "name": "eventId",
          "type": "uint256"
        }
      ],
      "name": "getRefundPoolBalance",
      "outputs": [
        {
          "internalType": "uint256",
          "name": "",
          "type": "uint256"
        }
      ],
      "stateMutability": "view",
      "type": "function"
    },
    {
      "inputs": [],
      "name": "getRefundStats",
      "outputs": [
        {
          "internalType": "uint256",
          "name": "totalCancellationsCount",
          "type": "uint256"
        },
        {
          "internalType": "uint256",
          "name": "totalRefundsClaimedCount",
          "type": "uint256"
        },
        {
          "internalType": "uint256",
          "name": "totalRefundAmountPaid",
          "type": "uint256"
        }
      ],
      "stateMutability": "view",
      "type": "function"
    },
    {
      "inputs": [],
      "name": "owner",
      "outputs": [
        {
          "internalType": "address",
          "name": "",
          "type": "address"
        }
      ],
      "stateMutability": "view",
      "type": "function"
    },
    {
      "inputs": [],
      "name": "platformContract",
      "outputs": [
        {
          "internalType": "address",
          "name": "",
          "type": "address"
        }
      ],
      "stateMutability": "view",
      "type": "function"
    },
    {
      "inputs": [
        {
          "internalType": "uint256",
          "name": "",
          "type": "uint256"
        }
      ],
      "name": "refundClaims",
      "outputs": [
        {
          "internalType": "address",
          "name": "claimant",
          "type": "address"
        },
        {
          "internalType": "address",
          "name": "eventContract",
          "type": "address"
        },
        {
          "internalType": "uint256",
          "name": "eventId",
          "type": "uint256"
        },
        {
          "internalType": "uint256",
          "name": "tokenId",
          "type": "uint256"
        },
        {
          "internalType": "uint256",
          "name": "refundAmount",
          "type": "uint256"
        },
        {
          "internalType": "enum EventRefund.RefundStatus",
          "name": "status",
          "type": "uint8"
        },
        {
          "internalType": "uint256",
          "name": "claimedAt",
          "type": "uint256"
        },
        {
          "internalType": "uint256",
          "name": "processedAt",
          "type": "uint256"
        },
        {
          "internalType": "bool",
          "name": "ticketBurned",
          "type": "bool"
        }
      ],
      "stateMutability": "view",
      "type": "function"
    },
    {
      "inputs": [
        {
          "internalType": "address",
          "name": "",
          "type": "address"
        },
        {
          "internalType": "uint256",
          "name": "",
          "type": "uint256"
        }
      ],
      "name": "refundPool",
      "outputs": [
        {
          "internalType": "uint256",
          "name": "",
          "type": "uint256"
        }
      ],
      "stateMutability": "view",
      "type": "function"
    },
    {
      "inputs": [
        {
          "internalType": "uint256",
          "name": "claimId",
          "type": "uint256"
        }
      ],
      "name": "rejectRefund",
      "outputs": [],
      "stateMutability": "nonpayable",
      "type": "function"
    },
    {
      "inputs": [],
      "name": "renounceOwnership",
      "outputs": [],
      "stateMutability": "nonpayable",
      "type": "function"
    },
    {
      "inputs": [
        {
          "internalType": "address",
          "name": "_platform",
          "type": "address"
        }
      ],
      "name": "setPlatformContract",
      "outputs": [],
      "stateMutability": "nonpayable",
      "type": "function"
    },
    {
      "inputs": [
        {
          "internalType": "address",
          "name": "",
          "type": "address"
        },
        {
          "internalType": "uint256",
          "name": "",
          "type": "uint256"
        },
        {
          "internalType": "uint256",
          "name": "",
          "type": "uint256"
        }
      ],
      "name": "tokenClaimId",
      "outputs": [
        {
          "internalType": "uint256",
          "name": "",
          "type": "uint256"
        }
      ],
      "stateMutability": "view",
      "type": "function"
    },
    {
      "inputs": [],
      "name": "totalCancellations",
      "outputs": [
        {
          "internalType": "uint256",
          "name": "",
          "type": "uint256"
        }
      ],
      "stateMutability": "view",
      "type": "function"
    },
    {
      "inputs": [],
      "name": "totalRefundAmount",
      "outputs": [
        {
          "internalType": "uint256",
          "name": "",
          "type": "uint256"
        }
      ],
      "stateMutability": "view",
      "type": "function"
    },
    {
      "inputs": [],
      "name": "totalRefundsClaimed",
      "outputs": [
        {
          "internalType": "uint256",
          "name": "",
          "type": "uint256"
        }
      ],
      "stateMutability": "view",
      "type": "function"
    },
    {
      "inputs": [
        {
          "internalType": "address",
          "name": "newOwner",
          "type": "address"
        }
      ],
      "name": "transferOwnership",
      "outputs": [],
      "stateMutability": "nonpayable",
      "type": "function"
    },
    {
      "inputs": [
        {
          "internalType": "address",
          "name": "eventContract",
          "type": "address"
        },
        {
          "internalType": "uint256",
          "name": "eventId",
          "type": "uint256"
        }
      ],
      "name": "withdrawUnclaimedRefunds",
      "outputs": [],
      "stateMutability": "nonpayable",
      "type": "function"
    }
  ],
  "bytecode": "0x6080806040523461007e5733156100685760008054336001600160a01b03198216811783556040519290916001600160a01b0316907f8be0079c531659141344cd1fd0a4f28419497f9722a3daafe3b4186f6b6457e09080a360018055611f7390816100848239f35b631e4fbdf760e01b815260006004820152602490fd5b600080fdfe608080604052600436101561001357600080fd5b60003560e01c90816316274695146114f1575080631d7628481461142f5780632c4e9b04146114115780632d2bd71314611317578063348a71a61461129c57806354bb12521461126e578063638fea3a1461112757806364ef1c18146110dc5780636d465749146109465780636f0203ba1461105e5780636fa6316c14611040578063715018a614610ff95780637a32fab914610c0e5780638056779c14610a2e57806380a07ecc1461098e57806385ab1ded146109465780638da5cb5b1461091d5780638f0fbcd5146107c4578063931f7daf14610480578063a44760f2146103fa578063b0d3068d146103b3578063b963f8ca14610395578063c31637f2146101fe578063db2e21bc146101ab5763f2fde38b1461013257600080fd5b346101a65760203660031901126101a65761014b611515565b6101536119ba565b6001600160a01b0390811690811561018d576000548260018060a01b031982161760005516600080516020611f1e833981519152600080a3005b604051631e4fbdf760e01b815260006004820152602490fd5b600080fd5b346101a65760003660031901126101a6576101c46119ba565b6000805481908190819047906001600160a01b03168282156101f5575bf1156101e957005b6040513d6000823e3d90fd5b506108fc6101e1565b346101a65760403660031901126101a65761014061021a611515565b6040519061022782611623565b6000825260006020830152600060408301526000606083015260006080830152600060a0830152600060c0830152600060e08301526000610120610100938285820152015260018060a01b031660005260036020526040600020602435600052602052610120604060002060ff6007604051926102a384611623565b80546001600160a01b0390811685526001820154602086015260028201541660408501526003810154606085015260048101546080850152600581015460a0850152600681015460c085015201548181166102fd8161152b565b60e0840152818160081c1615158584015260101c161515828201526040519260018060a01b0382511684526020820151602085015260018060a01b036040830151166040850152606082015160608501526080820151608085015260a082015160a085015260c082015160c085015260e082015161037a8161152b565b60e08501528082015115159084015201511515610120820152f35b346101a65760003660031901126101a6576020600854604051908152f35b346101a6576103c136611561565b9160018060a01b031660005260056020526040600020906000526020526040600020906000526020526020604060002054604051908152f35b346101a65760203660031901126101a657610413611515565b61041b6119ba565b6001600160a01b0316801561044057600280546001600160a01b031916919091179055005b60405162461bcd60e51b8152602060048201526018602482015277496e76616c696420706c6174666f726d206164647265737360401b6044820152606490fd5b346101a65760c03660031901126101a657610499611515565b602490606435604435608435600560a43510156101a6576007811015806107b8575b1561077a57811561073f5782156107095760018060a01b03841660005260036020526040600020853560005260205260ff60076040600020015460101c166106cb5762015180908181029181830414901517156106b65761051c90426119ad565b916040519161052a83611623565b6001600160a01b0385168352853560208401523360408401526060830152608082015260a081018290524260c082015261056560a43561152b565b60a43560e082015260006101008201526101208101906001825260018060a01b0384166000526003602052604060002085356000526020526007604060002060018060a01b0383511660018060a01b0319908183541617825560208401516001830155600282019060018060a01b0360408601511690825416179055606083015160038201556080830151600482015560a0830151600582015560c08301516006820155019160e08201519161061a8361152b565b6106238361152b565b60ff62ff000061ff006101008754940151151560081b169351151560101b1693169062ffffff1916171717905561065b600754611954565b6007556040519061066d60a43561152b565b60a43582526020820152339235916001600160a01b0316907febc39c6e264298854761e935635a074caa69adf8301d41a528df8d217f0054aa90604090a4602060405160018152f35b84634e487b7160e01b60005260116004526000fd5b60405162461bcd60e51b81526020600482015260178187015276115d995b9d08185b1c9958591e4818d85b98d95b1b1959604a1b6044820152606490fd5b60405162461bcd60e51b815260206004820152600f818701526e139bc81d1a58dad95d1cc81cdbdb19608a1b6044820152606490fd5b60405162461bcd60e51b81526020600482015260148187015273496e76616c6964207469636b657420707269636560601b6044820152606490fd5b60405162461bcd60e51b81526020600482015260178187015276496e76616c696420726566756e6420646561646c696e6560481b6044820152606490fd5b5061016d8111156104bb565b346101a65760403660031901126101a6576107dd611515565b6024356107e86119e6565b60018060a01b038092169182600052600560209160038352604060002084600052835261083e60406000209161082760ff600785015460101c166118cb565b80600284015416331490811561090f575b50611963565b01544211156108ce5782600052600a81526040600020826000528152604060002054928315610892576000938493849384938452600a815260408420918452528160408120553382f1156101e95760018055005b60405162461bcd60e51b81526004810183905260146024820152734e6f20756e636c61696d656420726566756e647360601b6044820152606490fd5b6064906040519062461bcd60e51b82526004820152601a6024820152791499599d5b9908191958591b1a5b99481b9bdd081c185cdcd95960321b6044820152fd5b905060005416331487610838565b346101a65760003660031901126101a6576000546040516001600160a01b039091168152602090f35b346101a65760403660031901126101a6576001600160a01b03610967611515565b16600052600a60205260406000206024356000526020526020604060002054604051908152f35b346101a65760203660031901126101a6576004356000526004602052610120604060002060018060a01b039081815416916001820154169060028101546003820154600483015460ff6005850154169160068501549360ff6008600788015497015416966040519889526020890152604088015260608701526080860152610a158161152b565b60a085015260c084015260e08301521515610100820152f35b60403660031901126101a657610a42611515565b602435610a4d6119e6565b60018060a01b038092168060005260209260038452604060002083600052845260406000209060ff6007830191610aa4835491610a8e848460101c166118cb565b806002870154163314908115610c005750611963565b60081c16610bbe576004600383015492015491828102928184041490151715610ba857813410610b635782600052600a855260406000208460005285523460406000205561010061ff001982541617905583813411610b34575b7f26da8e17d94e67b7d08f99d96908a107527f0d67f3daf3e48f3404409d93abe991604051908152a36001805560405160018152f35b506000808080610b4485346119a0565b818115610b5a575b3390f1156101e95783610afe565b506108fc610b4c565b60405162461bcd60e51b815260048101869052601f60248201527f496e73756666696369656e7420726566756e6420706f6f6c20616d6f756e74006044820152606490fd5b634e487b7160e01b600052601160045260246000fd5b60405162461bcd60e51b815260048101869052601a6024820152791499599d5b99081c1bdbdb08185b1c9958591e48199d5b99195960321b6044820152606490fd5b905060005416331489610838565b346101a657610c1c36611561565b9190610c266119e6565b60018060a01b038092169081600052602092600384526040600020826000528452604060002060ff6007820154610c61828260101c166118cb565b60081c1615610fb75760058101544211610f795783600052600585526040600020836000528552604060002086600052855260406000205480610ec3575b506040516331a9108f60e11b8152600481018790528581602481885afa9081156101e957600091610e96575b508233911603610e5a57600094957f4d28f9965dd7f506817798b08778bda5bd090efc7644ddcf4f25472f7ce1d16791858752600a8852604087208588528852610d21600360408920549201918254111561190d565b610d2c600654611954565b9687948560065560ff60088454888d60405192610d48846115f1565b3384528d8285019081528d6040860190815260608601918c83526080870193845260a087019960028b52600460c089019642885260e08a0198428a526101008b019e8f52600052528060406000209851169060018060a01b031991828a5416178955600189019251169082541617905551600286015551600385015551600484015560058301955195610dda8761152b565b610de38761152b565b85199686888354169116179055516006830155516007820155019251151591835416911617905585600052600588526040600020856000528852604060002082600052885283604060002055610e3884611a2c565b5490610e4b60405192839233978461154b565b0390a460018055604051908152f35b60405162461bcd60e51b81526004810186905260146024820152732737ba103a3432903a34b1b5b2ba1037bbb732b960611b6044820152606490fd5b610eb69150863d8811610ebc575b610eae8183611652565b810190611675565b87610ccb565b503d610ea4565b6000526004855260ff60056040600020015416610edf8161152b565b60048114610f3b5780610ef360019261152b565b14610efe5786610c9f565b60405162461bcd60e51b8152600481018690526015602482015274436c61696d20616c72656164792070656e64696e6760581b6044820152606490fd5b60405162461bcd60e51b81526004810187905260166024820152751499599d5b9908185b1c9958591e4818db185a5b595960521b6044820152606490fd5b60405162461bcd60e51b81526004810186905260166024820152751499599d5b9908191958591b1a5b99481c185cdcd95960521b6044820152606490fd5b60405162461bcd60e51b815260048101869052601a6024820152791499599d5b99081c1bdbdb081b9bdd08199d5b991959081e595d60321b6044820152606490fd5b346101a65760003660031901126101a6576110126119ba565b600080546001600160a01b0319811682556001600160a01b0316600080516020611f1e8339815191528280a3005b346101a65760003660031901126101a6576020600954604051908152f35b346101a65760203660031901126101a65760043561107a6119ba565b806000526004602052604060002060058101600381546110a8600160ff83166110a28161152b565b146115b1565b60ff19161790556007429101557fcd310aec5fd008c92a8b717bcc35f96c945fa4edece9d6a4a0d7fa0e1c509efb600080a2005b346101a65760803660031901126101a6576110f5611515565b606435906001600160a01b03821682036101a65760209161111d916044359060243590611694565b6040519015158152f35b346101a65760203660031901126101a657610120604051611147816115f1565b6000815260006020820152600060408201526000606082015260006080820152600060a0820152600060c0820152600060e08201526000610100809201526004356000526004602052604060002090604051916111a3836115f1565b60018060a01b03908181541684528160018201541691602085019283526002820154604086019081526003830154606087019081526004840154906080880191825260ff6005860154169260a08901936111fc8161152b565b845260068601549460c08a0195865260ff600860078901549860e08d01998a5201541697898b019815158952816040519b51168b52511660208a0152516040890152516060880152516080870152516112548161152b565b60a08601525160c08501525160e084015251151590820152f35b346101a65760003660031901126101a657600754600854906112986009546040519384938461154b565b0390f35b346101a65760203660031901126101a6576004356112b86119ba565b6112c06119e6565b806000526004602052604060002060058101600281546112e8600160ff83166110a28161152b565b60ff19161790556007429101556112fe81611a2c565b600080516020611efe833981519152600080a260018055005b346101a6576020806003193601126101a6576001600160401b036004358181116101a657366023820112156101a65780600401359182116101a6576024810192600591602436918560051b0101116101a6576113716119ba565b6113796119e6565b60005b8381106113895760018055005b80611397600192868861158b565b3560005260048352604060002084810180548460ff82166113b78161152b565b146113c6575b5050500161137c565b60029060ff19161790556007429101556113ea6113e482878961158b565b35611a2c565b6113f581868861158b565b35600080516020611efe833981519152600080a28680806113bd565b346101a65760003660031901126101a6576020600754604051908152f35b346101a65760403660031901126101a65761014061144b611515565b60018060a01b038091166000526003602052604060002060243560005260205260ff604060002082815416926001820154906002830154169160038101546004820154600583015491600760068501549401549587871695604051998a5260208a015260408901526060880152608087015260a086015260c08501526114d08161152b565b60e0840152818160081c16151561010084015260101c161515610120820152f35b346101a65760003660031901126101a6576002546001600160a01b03168152602090f35b600435906001600160a01b03821682036101a657565b6005111561153557565b634e487b7160e01b600052602160045260246000fd5b6040919493926060820195825260208201520152565b60609060031901126101a6576004356001600160a01b03811681036101a657906024359060443590565b919081101561159b5760051b0190565b634e487b7160e01b600052603260045260246000fd5b156115b857565b60405162461bcd60e51b8152602060048201526011602482015270436c61696d206e6f742070656e64696e6760781b6044820152606490fd5b61012081019081106001600160401b0382111761160d57604052565b634e487b7160e01b600052604160045260246000fd5b61014081019081106001600160401b0382111761160d57604052565b6001600160401b03811161160d57604052565b601f909101601f19168101906001600160401b0382119082101761160d57604052565b908160209103126101a657516001600160a01b03811681036101a65790565b9092919260018060a01b03809216936000948086526020916003835260409485882085895284528588209686516116ca81611623565b8289541681526001890154868201528260028a0154168882015260038901549860608201998a5260048101546080830152600760058201549160a08401928352600681015460c0850152015460ff81166117238161152b565b60e08401526101009260ff808360081c16159283158684015260101c16159061012082159101526118bd576118b0575142116118a457848a5260058652878a20878b528652878a20848b528652878a205490816117ff575b50508651926331a9108f60e11b845260048401528483602481875afa8993816117e0575b506117af57505050505050505090565b81169116036117d8578552600a8152828520918552528220549051116117d55750600190565b90565b505050505090565b6117f8919450863d8811610ebc57610eae8183611652565b923861179f565b6004918b52818752888b2090895190611817826115f1565b858354168252856001840154168983015260028301548b8301526003830154606083015283830154608083015260ff600881600586015416946118598661152b565b8560a0860152600681015460c0860152600781015460e086015201541615159101526118848161152b565b61188d8161152b565b1461189957388061177b565b505050505050505090565b50505050505050505090565b5050505050505050505090565b505050505050505050505090565b156118d257565b60405162461bcd60e51b8152602060048201526013602482015272115d995b9d081b9bdd0818d85b98d95b1b1959606a1b6044820152606490fd5b1561191457565b60405162461bcd60e51b8152602060048201526018602482015277125b9cdd59999a58da595b9d081c99599d5b99081c1bdbdb60421b6044820152606490fd5b6000198114610ba85760010190565b1561196a57565b60405162461bcd60e51b815260206004820152600e60248201526d139bdd08185d5d1a1bdc9a5e995960921b6044820152606490fd5b91908203918211610ba857565b91908201809211610ba857565b6000546001600160a01b031633036119ce57565b60405163118cdaa760e01b8152336004820152602490fd5b6002600154146119f7576002600155565b604051633ee5aeb560e01b8152600490fd5b60005b838110611a1c5750506000910152565b8181015183820152602001611a0c565b906000828152600460208181526040918284209160058301600260ff825416611a548161152b565b03611dd557859697600185979697019060018060a01b0392838084541693848a5288611aba8c600283019c8d54600a8c528282208183528c528c83832054950199611aa38b548097101561190d565b8252600a8c528282209082528b52209182546119a0565b9055541685600389015460248c51809481936331a9108f60e11b83528c8301525afa908115611dcb578b8087819482948391611dae575b508c54821691168114611d9a575b875490828215611d91575bf115611d87578560ff19825416179055426007870155611b2b600854611954565b600855611b3b82546009546119ad565b6009557ff3f402280ef0a7905e124aa621b65eaeb2725c343e8b36d398ed78c29daf285c848488541693548a51908152a3806002541680611b81575b5050505050505050565b828491885192838092630e64f35d60e01b82525afa908115611d49579082918991611d6a575b50168554813b15611d66578891602483928a519485938492630202eeef60e41b84528a8401525af1611d53575b5082828260025416885192838092630cf3be5160e21b82525afa908115611d4957918091611c0f938a91611d2c575b50169454169454611e28565b94611c61603c82518098611c51868301967b526566756e642070726f63657373656420666f72206576656e74202360201b885282519283918686019101611a09565b810103601c810189520187611652565b833b15611d28576101248795949392611cc9879351988997889663e567d29d60e01b885287015260806024870152601060848701526f1499599d5b9908141c9bd8d95cdcd95960821b60a487015260c060448701525180928160c488015260e4870190611a09565b601f801991011683016d524546554e445f5355434345535360901b6101048583039260e084016064880152600e60e4820152015201925af1611d11575b808080808080611b77565b611d1b829161163f565b611d255780611d06565b80fd5b8680fd5b611d439150853d8711610ebc57610eae8183611652565b38611c03565b87513d8a823e3d90fd5b611d5f9097919761163f565b9538611bd4565b8880fd5b611d819150843d8611610ebc57610eae8183611652565b38611ba7565b88513d8b823e3d90fd5b506108fc611b0a565b60088c01805460ff19166001179055611aff565b611dc591508b3d8d11610ebc57610eae8183611652565b38611af1565b8a513d8d823e3d90fd5b845162461bcd60e51b8152808401839052601260248201527110db185a5b481b9bdd08185c1c1c9bdd995960721b6044820152606490fd5b6001600160401b03811161160d57601f01601f191660200190565b8015611ecf57600081805b611ebb5750611e4181611e0d565b90611e4f6040519283611652565b808252601f19611e5e82611e0d565b013660208401375b80928015611eb4576000198201918211610ba8578193600a926030908484068201809211610ba8578551111561159b5760f81b6001600160f81b03191660001a908401601f01530491611e66565b5050905090565b90611ec7600a91611954565b910480611e33565b50604080519081016001600160401b0381118282101761160d5760405260018152600360fc1b60208201529056fe0cec41c850484bb431beff673efed0d9d32b7110d6910662f6729e64f050ca6a8be0079c531659141344cd1fd0a4f28419497f9722a3daafe3b4186f6b6457e0a264697066735822122042bcd7c6da3d6170f9440cc79787daa53deabaaa04e35890fc0464cddedc868e64736f6c63430008160033",
  "linkReferences": {},
  "deployedLinkReferences": {}
}