{
  "_format": "hh-sol-artifact-1",
  "contractName": "EventStatistics",
  "sourceName": "contracts/EventStatistics.sol",
  "abi": [
    {
      "inputs": [],
      "stateMutability": "nonpayable",
      "type": "constructor"
    },
    {
      "inputs": [
        {
          "internalType": "address",
          "name": "owner",
          "type": "address"
        }
      ],
      "name": "OwnableInvalidOwner",
      "type": "error"
    },
    {
      "inputs": [
        {
          "internalType": "address",
          "name": "account",
          "type": "address"
        }
      ],
      "name": "OwnableUnauthorizedAccount",
      "type": "error"
    },
    {
      "anonymous": false,
      "inputs": [
        {
          "indexed": true,
          "internalType": "uint256",
          "name": "eventId",
          "type": "uint256"
        },
        {
          "indexed": false,
          "internalType": "string",
          "name": "metricType",
          "type": "string"
        },
        {
          "indexed": false,
          "internalType": "uint256",
          "name": "value",
          "type": "uint256"
        },
        {
          "indexed": false,
          "internalType": "uint256",
          "name": "timestamp",
          "type": "uint256"
        }
      ],
      "name": "EventMetricsUpdated",
      "type": "event"
    },
    {
      "anonymous": false,
      "inputs": [
        {
          "indexed": false,
          "internalType": "string",
          "name": "metricType",
          "type": "string"
        },
        {
          "indexed": false,
          "internalType": "uint256",
          "name": "value",
          "type": "uint256"
        },
        {
          "indexed": false,
          "internalType": "uint256",
          "name": "timestamp",
          "type": "uint256"
        }
      ],
      "name": "GlobalMetricsUpdated",
      "type": "event"
    },
    {
      "anonymous": false,
      "inputs": [
        {
          "indexed": true,
          "internalType": "address",
          "name": "previousOwner",
          "type": "address"
        },
        {
          "indexed": true,
          "internalType": "address",
          "name": "newOwner",
          "type": "address"
        }
      ],
      "name": "OwnershipTransferred",
      "type": "event"
    },
    {
      "inputs": [
        {
          "internalType": "uint256",
          "name": "",
          "type": "uint256"
        }
      ],
      "name": "eventMetrics",
      "outputs": [
        {
          "internalType": "uint256",
          "name": "totalTicketsMinted",
          "type": "uint256"
        },
        {
          "internalType": "uint256",
          "name": "totalTicketsSold",
          "type": "uint256"
        },
        {
          "internalType": "uint256",
          "name": "totalTicketsValidated",
          "type": "uint256"
        },
        {
          "internalType": "uint256",
          "name": "totalRevenue",
          "type": "uint256"
        },
        {
          "internalType": "uint256",
          "name": "uniqueAttendees",
          "type": "uint256"
        },
        {
          "internalType": "uint256",
          "name": "startTime",
          "type": "uint256"
        },
        {
          "internalType": "uint256",
          "name": "endTime",
          "type": "uint256"
        },
        {
          "internalType": "uint256",
          "name": "aggregateSalesPerHour",
          "type": "uint256"
        },
        {
          "internalType": "uint256",
          "name": "aggregateEngagementRate",
          "type": "uint256"
        },
        {
          "internalType": "bool",
          "name": "exists",
          "type": "bool"
        }
      ],
      "stateMutability": "view",
      "type": "function"
    },
    {
      "inputs": [
        {
          "internalType": "uint256",
          "name": "eventId",
          "type": "uint256"
        }
      ],
      "name": "eventMetricsExists",
      "outputs": [
        {
          "internalType": "bool",
          "name": "",
          "type": "bool"
        }
      ],
      "stateMutability": "view",
      "type": "function"
    },
    {
      "inputs": [
        {
          "internalType": "uint256",
          "name": "eventId",
          "type": "uint256"
        }
      ],
      "name": "getEventEngagementRate",
      "outputs": [
        {
          "internalType": "uint256",
          "name": "",
          "type": "uint256"
        }
      ],
      "stateMutability": "view",
      "type": "function"
    },
    {
      "inputs": [
        {
          "internalType": "uint256",
          "name": "eventId",
          "type": "uint256"
        }
      ],
      "name": "getEventMetrics",
      "outputs": [
        {
          "internalType": "uint256",
          "name": "totalTicketsMinted",
          "type": "uint256"
        },
        {
          "internalType": "uint256",
          "name": "totalTicketsSold",
          "type": "uint256"
        },
        {
          "internalType": "uint256",
          "name": "totalTicketsValidated",
          "type": "uint256"
        },
        {
          "internalType": "uint256",
          "name": "totalRevenue",
          "type": "uint256"
        },
        {
          "internalType": "uint256",
          "name": "uniqueAttendees",
          "type": "uint256"
        },
        {
          "internalType": "uint256",
          "name": "startTime",
          "type": "uint256"
        },
        {
          "internalType": "uint256",
          "name": "endTime",
          "type": "uint256"
        },
        {
          "internalType": "uint256",
          "name": "duration",
          "type": "uint256"
        },
        {
          "internalType": "uint256",
          "name": "salesPerHour",
          "type": "uint256"
        },
        {
          "internalType": "uint256",
          "name": "engagementRate",
          "type": "uint256"
        }
      ],
      "stateMutability": "view",
      "type": "function"
    },
    {
      "inputs": [],
      "name": "getGlobalMetrics",
      "outputs": [
        {
          "internalType": "uint256",
          "name": "totalEventsCreated",
          "type": "uint256"
        },
        {
          "internalType": "uint256",
          "name": "totalTicketsMinted",
          "type": "uint256"
        },
        {
          "internalType": "uint256",
          "name": "totalRevenueGenerated",
          "type": "uint256"
        },
        {
          "internalType": "uint256",
          "name": "totalUniqueUsers",
          "type": "uint256"
        },
        {
          "internalType": "uint256",
          "name": "platformGrowthRate",
          "type": "uint256"
        }
      ],
      "stateMutability": "view",
      "type": "function"
    },
    {
      "inputs": [],
      "name": "globalMetrics",
      "outputs": [
        {
          "internalType": "uint256",
          "name": "totalEventsCreated",
          "type": "uint256"
        },
        {
          "internalType": "uint256",
          "name": "totalTicketsMinted",
          "type": "uint256"
        },
        {
          "internalType": "uint256",
          "name": "totalRevenueGenerated",
          "type": "uint256"
        },
        {
          "internalType": "uint256",
          "name": "totalUniqueUsers",
          "type": "uint256"
        },
        {
          "internalType": "uint256",
          "name": "platformGrowthRate",
          "type": "uint256"
        }
      ],
      "stateMutability": "view",
      "type": "function"
    },
    {
      "inputs": [
        {
          "internalType": "uint256",
          "name": "eventId",
          "type": "uint256"
        }
      ],
      "name": "incrementRefunds",
      "outputs": [],
      "stateMutability": "nonpayable",
      "type": "function"
    },
    {
      "inputs": [
        {
          "internalType": "uint256",
          "name": "eventId",
          "type": "uint256"
        },
        {
          "internalType": "uint256",
          "name": "amount",
          "type": "uint256"
        }
      ],
      "name": "incrementTicketsSold",
      "outputs": [],
      "stateMutability": "nonpayable",
      "type": "function"
    },
    {
      "inputs": [
        {
          "internalType": "uint256",
          "name": "eventId",
          "type": "uint256"
        }
      ],
      "name": "incrementValidations",
      "outputs": [],
      "stateMutability": "nonpayable",
      "type": "function"
    },
    {
      "inputs": [
        {
          "internalType": "uint256",
          "name": "eventId",
          "type": "uint256"
        }
      ],
      "name": "initializeEventMetrics",
      "outputs": [],
      "stateMutability": "nonpayable",
      "type": "function"
    },
    {
      "inputs": [
        {
          "internalType": "uint256",
          "name": "eventId",
          "type": "uint256"
        }
      ],
      "name": "isEventInitialized",
      "outputs": [
        {
          "internalType": "bool",
          "name": "",
          "type": "bool"
        }
      ],
      "stateMutability": "view",
      "type": "function"
    },
    {
      "inputs": [],
      "name": "owner",
      "outputs": [
        {
          "internalType": "address",
          "name": "",
          "type": "address"
        }
      ],
      "stateMutability": "view",
      "type": "function"
    },
    {
      "inputs": [],
      "name": "platformContract",
      "outputs": [
        {
          "internalType": "address",
          "name": "",
          "type": "address"
        }
      ],
      "stateMutability": "view",
      "type": "function"
    },
    {
      "inputs": [
        {
          "internalType": "uint256",
          "name": "eventId",
          "type": "uint256"
        },
        {
          "internalType": "uint256",
          "name": "ticketPrice",
          "type": "uint256"
        }
      ],
      "name": "recordTicketMint",
      "outputs": [],
      "stateMutability": "nonpayable",
      "type": "function"
    },
    {
      "inputs": [
        {
          "internalType": "uint256",
          "name": "eventId",
          "type": "uint256"
        }
      ],
      "name": "recordTicketValidation",
      "outputs": [],
      "stateMutability": "nonpayable",
      "type": "function"
    },
    {
      "inputs": [],
      "name": "renounceOwnership",
      "outputs": [],
      "stateMutability": "nonpayable",
      "type": "function"
    },
    {
      "inputs": [
        {
          "internalType": "uint256",
          "name": "eventId",
          "type": "uint256"
        }
      ],
      "name": "setEventEndTime",
      "outputs": [],
      "stateMutability": "nonpayable",
      "type": "function"
    },
    {
      "inputs": [
        {
          "internalType": "address",
          "name": "_platform",
          "type": "address"
        }
      ],
      "name": "setPlatformContract",
      "outputs": [],
      "stateMutability": "nonpayable",
      "type": "function"
    },
    {
      "inputs": [
        {
          "internalType": "address",
          "name": "newOwner",
          "type": "address"
        }
      ],
      "name": "transferOwnership",
      "outputs": [],
      "stateMutability": "nonpayable",
      "type": "function"
    },
    {
      "inputs": [
        {
          "internalType": "uint256",
          "name": "eventId",
          "type": "uint256"
        },
        {
          "internalType": "uint256",
          "name": "salesPerHour",
          "type": "uint256"
        },
        {
          "internalType": "uint256",
          "name": "engagementRate",
          "type": "uint256"
        }
      ],
      "name": "updateAggregateMetrics",
      "outputs": [],
      "stateMutability": "nonpayable",
      "type": "function"
    },
    {
      "inputs": [
        {
          "internalType": "uint256",
          "name": "eventId",
          "type": "uint256"
        },
        {
          "internalType": "uint256",
          "name": "rating",
          "type": "uint256"
        },
        {
          "internalType": "uint256",
          "name": "reviewCount",
          "type": "uint256"
        }
      ],
      "name": "updateAverageRating",
      "outputs": [],
      "stateMutability": "nonpayable",
      "type": "function"
    },
    {
      "inputs": [
        {
          "internalType": "uint256",
          "name": "newTotalEvents",
          "type": "uint256"
        },
        {
          "internalType": "uint256",
          "name": "newTotalTickets",
          "type": "uint256"
        },
        {
          "internalType": "uint256",
          "name": "newTotalRevenue",
          "type": "uint256"
        },
        {
          "internalType": "uint256",
          "name": "newTotalUniqueUsers",
          "type": "uint256"
        },
        {
          "internalType": "uint256",
          "name": "newGrowthRate",
          "type": "uint256"
        }
      ],
      "name": "updateGlobalMetrics",
      "outputs": [],
      "stateMutability": "nonpayable",
      "type": "function"
    },
    {
      "inputs": [
        {
          "internalType": "uint256",
          "name": "eventId",
          "type": "uint256"
        },
        {
          "internalType": "uint256",
          "name": "amount",
          "type": "uint256"
        }
      ],
      "name": "updateRevenue",
      "outputs": [],
      "stateMutability": "nonpayable",
      "type": "function"
    },
    {
      "inputs": [
        {
          "internalType": "uint256",
          "name": "eventId",
          "type": "uint256"
        },
        {
          "internalType": "uint256",
          "name": "newCount",
          "type": "uint256"
        }
      ],
      "name": "updateUniqueAttendees",
      "outputs": [],
      "stateMutability": "nonpayable",
      "type": "function"
    }
  ],
  "bytecode": "0x6080806040523461007a5733156100645760008054336001600160a01b03198216811783556040519290916001600160a01b0316907f8be0079c531659141344cd1fd0a4f28419497f9722a3daafe3b4186f6b6457e09080a361193090816100808239f35b631e4fbdf760e01b815260006004820152602490fd5b600080fdfe608060408181526004918236101561001657600080fd5b60009060e08235811c91826316274695146115a9575081631bc50c9b146112bc578163202eeef0146111515781633c3d7a3714610e1857816346a6547214610cd257816347727f6714610cd75781634ae4d91114610cd2578163715018a614610c8a578163727d8b9d14610bf95781637821e39c14610bc757816380211f7a14610b475781638da5cb5b14610b1f578163a09817831461090b578163a44760f21461087d578163b05cd32e14610843578163b75bbd771461072c57508063bd8fddfa146106e7578063cc8a1396146104e2578063d76bb276146104ac578063dc98d1d414610425578063e8efab9314610324578063f2fde38b146102a7578063ff4f5eb6146101565763ffb350361461012e57600080fd5b34610153576020366003190112610153575061014c602092356117b0565b9051908152f35b80fd5b509190346102a35761016736611641565b5091909260018060a01b03908160015416803314928315610296575b5082156101f5575b50509160a0916101a96000805160206118db833981519152946116c8565b84865260026020526101c360ff6009838920015416611728565b80519160608352600d60608401526c61766572616765526174696e6760981b608084015260208301524290820152a280f35b8015159250908261020d575b508290506101a961018b565b602091925060248451809481936366d0ead360e01b835233908301525afa90811561028c57916101a96000805160206118db833981519152949260a094889161025d575b50929450819350610201565b61027f915060203d602011610285575b610277818361168d565b8101906116b0565b38610251565b503d61026d565b82513d87823e3d90fd5b8754163314925038610183565b8280fd5b509190346102a35760203660031901126102a3576001600160a01b03823581811693919290849003610320576102db61186e565b831561030a57505082546001600160a01b0319811683178455166000805160206118bb8339815191528380a380f35b51631e4fbdf760e01b8152908101849052602490fd5b8480fd5b5091346102a35760203660031901126102a35761033f61186e565b8035835260026020528183209161035c60ff600985015416611728565b600683019081546103ec5750429055600182015490816103aa575b50610e10610389600584015442611783565b049081610394578380f35b6007916103a091611790565b9101553880808380f35b6002830154906064820291808304606414901517156103d95750816103ce91611790565b600883015538610377565b634e487b7160e01b855260119052602484fd5b5162461bcd60e51b81526020818401526014602482015273115b99081d1a5b5948185b1c9958591e481cd95d60621b6044820152606490fd5b5091346102a35760203660031901126102a35760a06000805160206118db8339815191529135928385526002602052600281862061046960ff600983015416611728565b01906104758254611774565b80925580519160608352600f60608401526e1d1a58dad95d15985b1a59185d1959608a1b608084015260208301524290820152a280f35b50829034610153578060031936011261015357506104de6003549154926005546006549060075492519586958661161d565b0390f35b509190346102a3576104f3366115ce565b909260018060a01b0380600154168033149182156106da575b508115610658575b8660a08088888888610525896116c8565b83875260026020526105868388209261054460ff600986015416611728565b61054e8454611774565b84556001840161055e8154611774565b90556003840161056f828254611705565b905561057b8354611774565b809355600554611705565b918260055554936000805160206118db833981519152868551606097888252600c898301526b1d1a58dad95d135a5b9d195960a21b608083015260208201524287820152a2825190848252601285830152711d1bdd185b151a58dad95d1cd35a5b9d195960721b6080830152602082015242838201527f2c479f4eeeca59f91c422d55b6f9e3a77496b778b3ace1c763fb388cd3522e8b958691a16015825193808552840152741d1bdd185b14995d995b9d5951d95b995c985d1959605a1b608084015260208301524290820152a180f35b80151591508161066b575b5060a0610514565b84516366d0ead360e01b815233848201529150602090829060249082905afa9081156106d0579161052560a096949287969489916106b1575b5092949650509193610663565b6106ca915060203d60201161028557610277818361168d565b386106a4565b84513d88823e3d90fd5b875416331491503861050c565b5090346107285760086106f936611641565b93909161070461186e565b8552600260205284209061071e60ff600984015416611728565b6007820155015580f35b5080fd5b905083833461083f57602036600319011261083f579261014093823582526002602052808220815161075d8161165b565b81548152600182015495602082019687526002830154958483019687526003840154906060840191825284015460808401908152600585015460a0850190815260068601549160c0860192835260078701549385870194855260088801549860ff60096101009a8b8b019c8d520154169a6107e2610120809d151580918c0152611728565b85518015610838576107f79150855190611783565b975b519c519b519151925193519451955199519b602082519e8f90815201528c015260608b015260808a015260a089015260c0880152860152840152820152f35b50976107f9565b8380fd5b8285346107285760a03660031901126107285761085e61186e565b8035600355602435905560443560055560643560065560843560075580f35b505091346102a35760203660031901126102a35780356001600160a01b038116929083900361083f576108ae61186e565b82156108cd575050600180546001600160a01b03191691909117905580f35b906020606492519162461bcd60e51b83528201526018602482015277496e76616c696420706c6174666f726d206164647265737360401b6044820152fd5b905083833461083f576020918260031936011261032057600154813594906001600160a01b0390811690338214908115610b12575b508015610a9b575b61095291506116c8565b8486526002845260ff6009848820015416610a615790838686938551936109788561165b565b8285528385019083825287860184815260608701858152608088019186835260a08901944286528b60c08b01978989528b0198808a526101008c019a818c526101208d019d60018f528252600290522099518a555160018a015551600289015551600388015551908601555160058501555160068401555160078301555160088201556009019051151560ff198254169060ff16179055600354610a1b90611774565b600355838151926060845260608401600b9052608084016a1a5b9a5d1a585b1a5e995960aa1b9052830152429082015260a06000805160206118db83398151915291a280f35b5082608492519162461bcd60e51b83528201526021602482015260008051602061189b8339815191526044820152601960fa1b6064820152fd5b50848115159182610ab2575b505061095290610948565b85516366d0ead360e01b815233868201529250829060249082905afa908115610b085790610952918891610aeb575b5090508488610aa7565b610b029150863d881161028557610277818361168d565b88610ae1565b84513d89823e3d90fd5b9050875416331488610940565b828434610728578160031936011261072857905490516001600160a01b039091168152602090f35b828585346102a35760a06000805160206118db83398151915291610b6a366115ce565b80929195610b7661186e565b8688526002602052828820610b9160ff600983015416611728565b015580519160608352600f60608401526e756e69717565417474656e6465657360881b608084015260208301524290820152a280f35b83858434610153578060031936011261015357506104de6003549154926005546006549060075492519586958661161d565b905083833461083f57602036600319011261083f578061014094833581526002602052209081549360018301549360028401549060038501549085015460058601549160068701549360078801549660ff600960088b01549a0154169981519b8c5260208c01528a01526060890152608088015260a087015260c08601528401526101008301521515610120820152f35b8234610153578060031936011261015357610ca361186e565b80546001600160a01b03198116825581906001600160a01b03166000805160206118bb8339815191528280a380f35b6115e9565b828585346102a3576020908160031936011261083f576001548335936001600160a01b03918216338114928315610e0b575b508215610d87575b50509160a091610d2f6000805160206118db833981519152946116c8565b848652600282526002818720610d4b60ff600983015416611728565b01610d568154611774565b80915581519260608452600b60608501526a76616c69646174696f6e7360a81b60808501528301524290820152a280f35b80151592509082610d9f575b50829050610d2f610d11565b8491925060248451809481936366d0ead360e01b835233908301525afa90811561028c5791610d2f6000805160206118db833981519152949260a0948891610dee575b50929450819350610d93565b610e059150843d861161028557610277818361168d565b88610de2565b8754163314925087610d09565b848484923461083f57610e2a366115ce565b909360018060a01b0392836001541691823314928380159081611145575b80156110dc575b610e58906116c8565b888a5260209660028852888b209560ff60098801541615610ed5575b8b8b6000805160206118db83398151915260a08c8e8d610ea760038f0191610e9d818454611705565b8355600554611705565b60055554815192606084526007606085015266726576656e756560c81b60808501528301524290820152a280f35b90919293949550969596916110cf575b508015611058575b610ef791506116c8565b8587526002835260ff600986892001541661101d5790868692865192610f1c8461165b565b828452858401918383528885019084825260608601858152608087019086825260a088019342855260c08901958887528901968888528d6101008b0199808b528d6101208d019d60018f528252600290522099518a555160018a015551600289015551600388015551908601555160058501555160068401555160078301555160088201556009019051151560ff198254169060ff16179055600354610fc190611774565b6003558383516060815260608101600b9052608081016a1a5b9a5d1a585b1a5e995960aa1b90528683820152428582015260a06000805160206118db83398151915291a283855260028152828520868080808080979697610e74565b845162461bcd60e51b81529081018390526021602482015260008051602061189b8339815191526044820152601960fa1b6064820152608490fd5b5083811515918261106f575b5050610ef790610eed565b87516366d0ead360e01b815233858201529250829060249082905afa9081156110c55790610ef79189916110a8575b5090508389611064565b6110bf9150853d871161028557610277818361168d565b8961109e565b86513d8a823e3d90fd5b9050885416331489610ee5565b508115158015610e4f575087516366d0ead360e01b81523384820152602081602481865afa90811561113b5790610e58918c9161111c575b509050610e4f565b611135915060203d60201161028557610277818361168d565b8c611114565b89513d8d823e3d90fd5b50868a54163314610e48565b828585346102a3576020908160031936011261083f57600154833593906001600160a01b03908116903382149081156112af575b508015611238575b61119791506116c8565b8385526002835260018286206111b360ff600983015416611728565b019081549081158015611202575b87876000805160206118db83398151915260a089896001815192606084526007606085015266726566756e647360c81b60808501528301524290820152a280f35b61122557506000190190558160a06000805160206118db833981519152876111c1565b634e487b7160e01b875260119052602486fd5b5083811515918261124f575b50506111979061118d565b84516366d0ead360e01b815233858201529250829060249082905afa9081156112a55790611197918791611288575b5090508387611244565b61129f9150853d871161028557610277818361168d565b8761127e565b83513d88823e3d90fd5b9050865416331487611185565b848484923461083f576112ce366115ce565b909360018060a01b039283600154169182331492838015908161159d575b801561153e575b6112fc906116c8565b888a5260209660028852888b209560ff6009880154161561137c575b8b8b6000805160206118db83398151915260a08c8e8d8d61134c6001820192611342818554611705565b8094558254611705565b905581519260608452600b60608501526a1d1a58dad95d1cd4dbdb1960aa1b60808501528301524290820152a280f35b9091929394955096959691611531575b5080156114c4575b61139e91506116c8565b8587526002835260ff600986892001541661101d57908686928651926113c38461165b565b828452858401918383528885019084825260608601858152608087019086825260a088019342855260c08901958887528901968888528d6101008b0199808b528d6101208d019d60018f528252600290522099518a555160018a015551600289015551600388015551908601555160058501555160068401555160078301555160088201556009019051151560ff198254169060ff1617905560035461146890611774565b6003558383516060815260608101600b9052608081016a1a5b9a5d1a585b1a5e995960aa1b90528683820152428582015260a06000805160206118db83398151915291a283855260028152828520868080808080979697611318565b508381151591826114db575b505061139e90611394565b87516366d0ead360e01b815233858201529250829060249082905afa9081156110c5579061139e918991611514575b50905083896114d0565b61152b9150853d871161028557610277818361168d565b8961150a565b905088541633148961138c565b5081151580156112f3575087516366d0ead360e01b81523384820152602081602481865afa90811561113b57906112fc918c9161157e575b5090506112f3565b611597915060203d60201161028557610277818361168d565b8c611576565b50868a541633146112ec565b8390346107285781600319360112610728576001546001600160a01b03168152602090f35b60409060031901126115e4576004359060243590565b600080fd5b346115e45760203660031901126115e4576004356000526002602052602060ff600960406000200154166040519015158152f35b9192608093969594919660a084019784526020840152604083015260608201520152565b60609060031901126115e457600435906024359060443590565b61014081019081106001600160401b0382111761167757604052565b634e487b7160e01b600052604160045260246000fd5b601f909101601f19168101906001600160401b0382119082101761167757604052565b908160209103126115e4575180151581036115e45790565b156116cf57565b60405162461bcd60e51b815260206004820152600e60248201526d139bdd08185d5d1a1bdc9a5e995960921b6044820152606490fd5b9190820180921161171257565b634e487b7160e01b600052601160045260246000fd5b1561172f57565b60405162461bcd60e51b815260206004820152601d60248201527f4576656e74206d657472696373206e6f7420696e697469616c697a65640000006044820152606490fd5b60001981146117125760010190565b9190820391821161171257565b811561179a570490565b634e487b7160e01b600052601260045260246000fd5b60005260026020526040600020604051906117ca8261165b565b8054825261183e6101206001830154936020810194855260ff6009600286015495604084019687526003810154606085015260048101546080850152600581015460a0850152600681015460c0850152600781015460e0850152600881015461010085015201541615159182910152611728565b815115611867575160648102908082046064149015171561171257611864915190611790565b90565b5050600090565b6000546001600160a01b0316330361188257565b60405163118cdaa760e01b8152336004820152602490fdfe4576656e74206d65747269637320616c726561647920696e697469616c697a658be0079c531659141344cd1fd0a4f28419497f9722a3daafe3b4186f6b6457e0d0f0da26cc017e4643ee8bac836923350063839e03b6e350a8959af5ea13b8faa264697066735822122000a979da606288be5c74a8a33e09a882e13b62eedc8e3faf290ccfc2dfce44c464736f6c63430008160033",
  "linkReferences": {},
  "deployedLinkReferences": {}
}