{
  "_format": "hh-sol-artifact-1",
  "contractName": "NotificationSystem",
  "sourceName": "contracts/NotificationSystem.sol",
  "abi": [
    {
      "inputs": [],
      "stateMutability": "nonpayable",
      "type": "constructor"
    },
    {
      "inputs": [
        {
          "internalType": "address",
          "name": "owner",
          "type": "address"
        }
      ],
      "name": "OwnableInvalidOwner",
      "type": "error"
    },
    {
      "inputs": [
        {
          "internalType": "address",
          "name": "account",
          "type": "address"
        }
      ],
      "name": "OwnableUnauthorizedAccount",
      "type": "error"
    },
    {
      "anonymous": false,
      "inputs": [
        {
          "indexed": true,
          "internalType": "address",
          "name": "recipient",
          "type": "address"
        },
        {
          "indexed": false,
          "internalType": "string",
          "name": "category",
          "type": "string"
        },
        {
          "indexed": false,
          "internalType": "string",
          "name": "notificationUri",
          "type": "string"
        }
      ],
      "name": "NotificationSent",
      "type": "event"
    },
    {
      "anonymous": false,
      "inputs": [
        {
          "indexed": true,
          "internalType": "address",
          "name": "previousOwner",
          "type": "address"
        },
        {
          "indexed": true,
          "internalType": "address",
          "name": "newOwner",
          "type": "address"
        }
      ],
      "name": "OwnershipTransferred",
      "type": "event"
    },
    {
      "anonymous": false,
      "inputs": [
        {
          "indexed": false,
          "internalType": "bool",
          "name": "enabled",
          "type": "bool"
        }
      ],
      "name": "PushIntegrationToggled",
      "type": "event"
    },
    {
      "anonymous": false,
      "inputs": [
        {
          "indexed": true,
          "internalType": "address",
          "name": "serviceProvider",
          "type": "address"
        }
      ],
      "name": "PushServiceProviderUpdated",
      "type": "event"
    },
    {
      "inputs": [],
      "name": "getNotifiableUsers",
      "outputs": [
        {
          "internalType": "address[]",
          "name": "",
          "type": "address[]"
        }
      ],
      "stateMutability": "view",
      "type": "function"
    },
    {
      "inputs": [
        {
          "internalType": "address",
          "name": "user",
          "type": "address"
        }
      ],
      "name": "getNotificationCount",
      "outputs": [
        {
          "internalType": "uint256",
          "name": "",
          "type": "uint256"
        }
      ],
      "stateMutability": "view",
      "type": "function"
    },
    {
      "inputs": [
        {
          "internalType": "address",
          "name": "user",
          "type": "address"
        }
      ],
      "name": "getUnreadCount",
      "outputs": [
        {
          "internalType": "uint256",
          "name": "",
          "type": "uint256"
        }
      ],
      "stateMutability": "view",
      "type": "function"
    },
    {
      "inputs": [
        {
          "internalType": "address",
          "name": "user",
          "type": "address"
        },
        {
          "internalType": "uint256",
          "name": "offset",
          "type": "uint256"
        },
        {
          "internalType": "uint256",
          "name": "limit",
          "type": "uint256"
        }
      ],
      "name": "getUserNotificationMetadata",
      "outputs": [
        {
          "internalType": "address[]",
          "name": "recipients",
          "type": "address[]"
        },
        {
          "internalType": "string[]",
          "name": "notificationUris",
          "type": "string[]"
        },
        {
          "internalType": "string[]",
          "name": "contentHashes",
          "type": "string[]"
        },
        {
          "internalType": "uint256[]",
          "name": "timestamps",
          "type": "uint256[]"
        },
        {
          "internalType": "string[]",
          "name": "categories",
          "type": "string[]"
        },
        {
          "internalType": "bool[]",
          "name": "reads",
          "type": "bool[]"
        },
        {
          "internalType": "bool[]",
          "name": "sents",
          "type": "bool[]"
        }
      ],
      "stateMutability": "view",
      "type": "function"
    },
    {
      "inputs": [],
      "name": "markAllAsRead",
      "outputs": [],
      "stateMutability": "nonpayable",
      "type": "function"
    },
    {
      "inputs": [
        {
          "internalType": "uint256",
          "name": "notificationIndex",
          "type": "uint256"
        }
      ],
      "name": "markAsRead",
      "outputs": [],
      "stateMutability": "nonpayable",
      "type": "function"
    },
    {
      "inputs": [
        {
          "internalType": "uint256",
          "name": "",
          "type": "uint256"
        }
      ],
      "name": "notifiableUsers",
      "outputs": [
        {
          "internalType": "address",
          "name": "",
          "type": "address"
        }
      ],
      "stateMutability": "view",
      "type": "function"
    },
    {
      "inputs": [],
      "name": "owner",
      "outputs": [
        {
          "internalType": "address",
          "name": "",
          "type": "address"
        }
      ],
      "stateMutability": "view",
      "type": "function"
    },
    {
      "inputs": [],
      "name": "platformContract",
      "outputs": [
        {
          "internalType": "address",
          "name": "",
          "type": "address"
        }
      ],
      "stateMutability": "view",
      "type": "function"
    },
    {
      "inputs": [],
      "name": "pushIntegrationEnabled",
      "outputs": [
        {
          "internalType": "bool",
          "name": "",
          "type": "bool"
        }
      ],
      "stateMutability": "view",
      "type": "function"
    },
    {
      "inputs": [],
      "name": "pushServiceProvider",
      "outputs": [
        {
          "internalType": "address",
          "name": "",
          "type": "address"
        }
      ],
      "stateMutability": "view",
      "type": "function"
    },
    {
      "inputs": [],
      "name": "renounceOwnership",
      "outputs": [],
      "stateMutability": "nonpayable",
      "type": "function"
    },
    {
      "inputs": [
        {
          "internalType": "address[]",
          "name": "users",
          "type": "address[]"
        },
        {
          "internalType": "string",
          "name": "title",
          "type": "string"
        },
        {
          "internalType": "string",
          "name": "message",
          "type": "string"
        },
        {
          "internalType": "string",
          "name": "category",
          "type": "string"
        }
      ],
      "name": "sendBulkNotification",
      "outputs": [],
      "stateMutability": "nonpayable",
      "type": "function"
    },
    {
      "inputs": [
        {
          "internalType": "address",
          "name": "user",
          "type": "address"
        },
        {
          "internalType": "string",
          "name": "title",
          "type": "string"
        },
        {
          "internalType": "string",
          "name": "message",
          "type": "string"
        },
        {
          "internalType": "string",
          "name": "category",
          "type": "string"
        }
      ],
      "name": "sendNotification",
      "outputs": [],
      "stateMutability": "nonpayable",
      "type": "function"
    },
    {
      "inputs": [
        {
          "internalType": "address",
          "name": "_platform",
          "type": "address"
        }
      ],
      "name": "setPlatformContract",
      "outputs": [],
      "stateMutability": "nonpayable",
      "type": "function"
    },
    {
      "inputs": [
        {
          "internalType": "address",
          "name": "_provider",
          "type": "address"
        }
      ],
      "name": "setPushServiceProvider",
      "outputs": [],
      "stateMutability": "nonpayable",
      "type": "function"
    },
    {
      "inputs": [
        {
          "internalType": "bool",
          "name": "_enabled",
          "type": "bool"
        }
      ],
      "name": "togglePushIntegration",
      "outputs": [],
      "stateMutability": "nonpayable",
      "type": "function"
    },
    {
      "inputs": [
        {
          "internalType": "address",
          "name": "newOwner",
          "type": "address"
        }
      ],
      "name": "transferOwnership",
      "outputs": [],
      "stateMutability": "nonpayable",
      "type": "function"
    },
    {
      "inputs": [
        {
          "internalType": "address[]",
          "name": "recipients",
          "type": "address[]"
        },
        {
          "internalType": "string",
          "name": "notificationUri",
          "type": "string"
        },
        {
          "internalType": "string",
          "name": "contentHash",
          "type": "string"
        },
        {
          "internalType": "string",
          "name": "category",
          "type": "string"
        }
      ],
      "name": "triggerBulkNotification",
      "outputs": [],
      "stateMutability": "nonpayable",
      "type": "function"
    },
    {
      "inputs": [
        {
          "internalType": "address",
          "name": "recipient",
          "type": "address"
        },
        {
          "internalType": "string",
          "name": "notificationUri",
          "type": "string"
        },
        {
          "internalType": "string",
          "name": "contentHash",
          "type": "string"
        },
        {
          "internalType": "string",
          "name": "category",
          "type": "string"
        }
      ],
      "name": "triggerNotification",
      "outputs": [],
      "stateMutability": "nonpayable",
      "type": "function"
    },
    {
      "inputs": [
        {
          "internalType": "address",
          "name": "",
          "type": "address"
        }
      ],
      "name": "unreadCount",
      "outputs": [
        {
          "internalType": "uint256",
          "name": "",
          "type": "uint256"
        }
      ],
      "stateMutability": "view",
      "type": "function"
    },
    {
      "inputs": [
        {
          "internalType": "address",
          "name": "",
          "type": "address"
        },
        {
          "internalType": "uint256",
          "name": "",
          "type": "uint256"
        }
      ],
      "name": "userNotifications",
      "outputs": [
        {
          "internalType": "address",
          "name": "recipient",
          "type": "address"
        },
        {
          "internalType": "string",
          "name": "notificationUri",
          "type": "string"
        },
        {
          "internalType": "string",
          "name": "contentHash",
          "type": "string"
        },
        {
          "internalType": "uint256",
          "name": "timestamp",
          "type": "uint256"
        },
        {
          "internalType": "string",
          "name": "category",
          "type": "string"
        },
        {
          "internalType": "bool",
          "name": "read",
          "type": "bool"
        },
        {
          "internalType": "bool",
          "name": "sent",
          "type": "bool"
        }
      ],
      "stateMutability": "view",
      "type": "function"
    }
  ],
  "bytecode": "0x6080806040523461008d5733156100775760008054336001600160a01b03198216811783556040519290916001600160a01b0316907f8be0079c531659141344cd1fd0a4f28419497f9722a3daafe3b4186f6b6457e09080a36005805460ff60a01b1916600160a01b179055611dc990816100938239f35b631e4fbdf760e01b815260006004820152602490fd5b600080fdfe6040608081526004908136101561001557600080fd5b600091823560e01c80630ba961da146112f157806316274695146112c85780632c488b9414610f99578063349e85a814610cf6578063352cf66c14610cb657806338c9191014610bda5780635a566f9c14610b6e5780635c3e46ed14610b45578063715018a614610afd5780637c100c36146109d65780638ceb998a1461092b5780638da5cb5b146109035780639a41f77c146106d3578063a0cb30be146106ac578063a44760f214610623578063a662fac9146103cc578063bbac36231461043c578063ca97252614610404578063cb33ed40146103cc578063e48414f51461034e578063e567d29d1461018a5763f2fde38b1461011357600080fd5b346101865760203660031901126101865761012c6113a3565b90610135611d27565b6001600160a01b0391821692831561017057505082546001600160a01b031981168317845516600080516020611d748339815191528380a380f35b51631e4fbdf760e01b8152908101849052602490fd5b8280fd5b5090346101865761019a36611795565b929093919460018060a01b039060019082600154168033148015610342575b80156102bf575b6101ca91506118bd565b61021285516101d8816114ce565b848616998a8252896020830152878201524260608201528760808201528a60a0820152600160c0820152898b526002602052868b206118fa565b8789526003926003602052858a2061022a81546117d6565b905589938a9254925b83811061027d575b50505050509161026891600080516020611d548339815191529594931561026e575b505192839283611d02565b0390a280f35b61027790611cc5565b3861025d565b8a8361028883611669565b905490851b1c161461029b578401610233565b50929350849250600080516020611d5483398151915291506102689050388061023b565b50801515806102d3575b6101ca91506101c0565b5060206024918751928380926366d0ead360e01b825233878301525afa90811561033857906101ca918b91610309575b506102c9565b61032b915060203d602011610331575b61032381836114ff565b8101906118a5565b38610303565b503d610319565b86513d8c823e3d90fd5b50838a541633146101b9565b509190346103c857816003193601126103c8578051918284549081815260208091019583526020832092905b8282106103a8576103a48686610392828b03836114ff565b519182916020835260208301906113be565b0390f35b83546001600160a01b03168752958601956001938401939091019061037a565b5080fd5b5050346103c85760203660031901126103c85760209181906001600160a01b036103f46113a3565b1681526003845220549051908152f35b5050346103c85760203660031901126103c85760209181906001600160a01b0361042c6113a3565b1681526002845220549051908152f35b5091346106205761044c3661158f565b90949293610458611d27565b805b855181101561061c576001600160a01b03806104768389611891565b5116865190610484826114ce565b81526020908682820152898882015242606082015285608082015260a09185838301528560c0830152836104b8868c611891565b511686526104cd6002928383528a88206118fa565b836104d8868c611891565b5116865260038082528987206104ee81546117d6565b90558c548791825b8281106105e2575b505050156105c8575b6005928460ff855480931c1691826105bc575b505061055a575b505050906001916105328289611891565b5116600080516020611d54833981519152875180610551898983611d02565b0390a20161045a565b83610565868c611891565b511686525286842080549081156105215760001982019182116105a9576001949392916105919161169a565b5001805461ff00191661010017905590913880610521565b634e487b7160e01b865260118c52602486fd5b1615159050843861051a565b6105dd846105d6878d611891565b5116611cc5565b610507565b8d886105ff8b826105f286611669565b905490881b1c1693611891565b51161461060e576001016104f6565b5050505060013880806104fe565b5080f35b80fd5b50346101865760203660031901126101865761063d6113a3565b610645611d27565b6001600160a01b031691821561066e575050600180546001600160a01b03191691909117905580f35b906020606492519162461bcd60e51b83528201526018602482015277496e76616c696420706c6174666f726d206164647265737360401b6044820152fd5b5050346103c857816003193601126103c85760209060ff60055460a01c1690519015158152f35b508234610620576106e336611795565b9092946106ee611d27565b6001600160a01b038681169485156108c45784511561088157885161074b91610716826114ce565b8782528660208301528a8201524260608201528460808201528760a08201528760c082015286885260026020528988206118fa565b848652600396600360205288872061076381546117d6565b9055869787908454915b828110610851575b5050509091929394959615610842575b506005549060ff8260a01c169182610836575b50506107bf575b50610268600080516020611d548339815191529394955192839283611d02565b948385526002602052808520805490816107dc575b50509461079f565b600019820191821161082357600080516020611d548339815191529596975061080b610268939260059261169a565b500161010061ff0019825416179055908695946107d4565b634e487b7160e01b875260118852602487fd5b16151590508780610798565b61084b90611cc5565b87610785565b888561085c83611669565b905490851b1c16146108705760010161076d565b50600199508b915081905080610775565b885162461bcd60e51b8152602081850181905260248201527f4e6f74696669636174696f6e205552492063616e6e6f7420626520656d7074796044820152606490fd5b885162461bcd60e51b81526020818501526019602482015278496e76616c696420726563697069656e74206164647265737360381b6044820152606490fd5b5050346103c857816003193601126103c857905490516001600160a01b039091168152602090f35b5034610186576020366003190112610186576109456113a3565b61094d611d27565b6001600160a01b0316918215610998575050600580546001600160a01b031916821790557f8ef4f05d96d15a25abe7e6960b0e5345de550a1406f348f141cbf88dd7e32f268280a280f35b906020606492519162461bcd60e51b83528201526018602482015277496e76616c69642070726f7669646572206164647265737360401b6044820152fd5b50903461018657602036600319011261018657813533845260026020528184208054821015610abd5760ff6005610a0d848461169a565b50015416610a6e57600591610a219161169a565b5001805460ff19166001179055338352600360205282208054909181158015610a48578480f35b610a5b5750600019019055388080808480f35b634e487b7160e01b845260119052602483fd5b825162461bcd60e51b8152602081860152602360248201527f4e6f74696669636174696f6e20616c7265616479206d61726b6564206173207260448201526219585960ea1b6064820152608490fd5b825162461bcd60e51b8152602081860152601a602482015279092dcecc2d8d2c840dcdee8d2ccd2c6c2e8d2dedc40d2dcc8caf60331b6044820152606490fd5b8334610620578060031936011261062057610b16611d27565b80546001600160a01b03198116825581906001600160a01b0316600080516020611d748339815191528280a380f35b5050346103c857816003193601126103c85760055490516001600160a01b039091168152602090f35b5034610186576020366003190112610186573590811515809203610186577fbd43d9dc951e68fed364636302876c9a5ad077d327ca2d10aaadc59b5ff6d90d91602091610bb9611d27565b6005805460ff60a01b191660a084901b60ff60a01b1617905551908152a180f35b509034610186578060031936011261018657610bf46113a3565b6001600160a01b039081168452600260205281842080549194602435928310156106205750610c2860ff92610c9c9261169a565b509485541693610c3a600187016116f0565b95610c89610c4a600283016116f0565b956005610c5d60038501549585016116f0565b93015496610c7c82519a8b9a8b5260e060208c015260e08b01906113fb565b91898303908a01526113fb565b91606087015285820360808701526113fb565b91818116151560a085015260081c16151560c08301520390f35b50913461062057602036600319011261062057823592548310156106205750610ce0602092611669565b905491519160018060a01b039160031b1c168152f35b50823461062057610d063661158f565b9091929560018060a01b03956001968088541698893314998a15610f8b575b8a15610f0e575b50610d3889989a6118bd565b89985b610d43578980f35b8099979899518a1015610f075781610d5b8b83611891565b511699828a54169a8b33148015610efb575b8015610e6b575b8b9c509088610dcc8b898e9f9e8f9796610d8d906118bd565b815192610d99846114ce565b86845260209586850152828401524260608401528c60808401528060a08401528760c084015285815260028552206118fa565b818d526003809152878d20610de181546117d6565b905586548d91825b828110610e30575b50505015610e22575b600080516020611d54833981519152875180610e178c8c83611d02565b0390a2019899610d3b565b610e2b81611cc5565b610dfa565b8489610e428399949596979899611669565b905490861b1c1614610e5b5701908d9594939291610de9565b50949392505050828e8080610df1565b508b151580610e7f575b9a9b508b9a610d74565b5085516366d0ead360e01b8152338682015260209c8d908290815a91602492fa9c8d15610ef1578a888e9f9d9e9d8f908f90610d8d908f97610dcc978592610ed4575b505096505050505050509a999a610e75565b610eea9250803d106103315761032381836114ff565b3880610ec2565b87513d8d823e3d90fd5b50838a54163314610d6d565b8799508980f35b8015159a508a610f22575b50610d38610d2c565b84516366d0ead360e01b815233858201529a506020908b9060249082905afa998a15610f8157899a610d38918a9b9a91610f62575b509a50989798610f19565b610f7b915060203d6020116103315761032381836114ff565b8c610f57565b84513d8a823e3d90fd5b995081885416331499610d25565b503461018657606036600319011261018657610fb36113a3565b6001600160a01b039081168452600260208181528486208054602435959493604435939290610fe183611522565b96610fee8a5198896114ff565b838852848801928b52848b20918b935b8b8787871061124d5750505050505050508461101a8382611808565b855180911161123a575b50845110611232575b959061103881611522565b96611045875198896114ff565b81885261105182611522565b601f1997908801368a84013761106683611815565b9861107084611815565b9061107a85611522565b94611087845196876114ff565b80865261109381611522565b8686019b01368c376110a481611815565b976110ae8261185f565b996110b88361185f565b9b895b84811061116557505050505091611100916110f360e09b9c6110e6879685519e8f81815201906113be565b8d8103878f01529061143b565b918b8303908c015261143b565b9288840360608a015251928381520197925b8281106111515787806103a4896111438a6111358f8c878203608089015261143b565b9085820360a0870152611498565b9083820360c0850152611498565b835189529781019792810192600101611112565b8f8e858f8f908e9f9d9e918f8796938f8f908f908a97888f968f829895839661118f858094611808565b61119891611891565b519d8e5116916111a791611891565b528b01516111b58284611891565b526111bf91611891565b508801516111cd8284611891565b526111d791611891565b506060860151916111e791611891565b528260808501516111f88284611891565b5261120291611891565b5060a083015115159161121491611891565b5260c0015115159161122591611891565b52600101999897996110bb565b86915061102d565b6112459293506117fb565b908438611024565b60019282600693519061125f826114ce565b8d8954168252611270868a016116f0565b8483015261127f878a016116f0565b90820152600388015460608201526112988789016116f0565b6080820152600588015460ff90818116151560a084015260081c16151560c0820152815201940194019392610ffe565b5050346103c857816003193601126103c85760015490516001600160a01b039091168152602090f35b5050346103c857816003193601126103c85733825260026020528082209180805b845481101561136857611325818661169a565b5060ff600580920154161561133e575b50600101611312565b8193611361916113506001948961169a565b5001805460ff1916841790556117d6565b9290611335565b5080918381611375575050f35b3383526003602052822090808254101560001461139e5781611399929350546117fb565b905580f35b505580f35b600435906001600160a01b03821682036113b957565b600080fd5b90815180825260208080930193019160005b8281106113de575050505090565b83516001600160a01b0316855293810193928101926001016113d0565b919082519283825260005b848110611427575050826000602080949584010152601f8019910116010190565b602081830181015184830182015201611406565b90808251908181526020809101926020808460051b8301019501936000915b84831061146a5750505050505090565b9091929394958480611488600193601f198682030187528a516113fb565b980193019301919493929061145a565b90815180825260208080930193019160005b8281106114b8575050505090565b83511515855293810193928101926001016114aa565b60e081019081106001600160401b038211176114e957604052565b634e487b7160e01b600052604160045260246000fd5b601f909101601f19168101906001600160401b038211908210176114e957604052565b6001600160401b0381116114e95760051b60200190565b81601f820112156113b9578035906001600160401b0382116114e9576040519261156d601f8401601f1916602001856114ff565b828452602083830101116113b957816000926020809301838601378301015290565b60806003198201126113b9576001600160401b03906004358281116113b957816023820112156113b95780600401356115c781611522565b916115d560405193846114ff565b8183526020916024602085019160051b830101918583116113b957602401905b82821061164a5750505050926024358381116113b9578261161891600401611539565b926044358181116113b9578361163091600401611539565b926064359182116113b95761164791600401611539565b90565b81356001600160a01b03811681036113b95781529083019083016115f5565b60045481101561168457600460005260206000200190600090565b634e487b7160e01b600052603260045260246000fd5b8054821015611684576000526006602060002091020190600090565b90600182811c921680156116e6575b60208310146116d057565b634e487b7160e01b600052602260045260246000fd5b91607f16916116c5565b90604051918260008254611703816116b6565b908184526020946001916001811690816000146117735750600114611734575b505050611732925003836114ff565b565b600090815285812095935091905b81831061175b5750506117329350820101388080611723565b85548884018501529485019487945091830191611742565b9250505061173294925060ff191682840152151560051b820101388080611723565b9060806003198301126113b9576004356001600160a01b03811681036113b957916001600160401b03916024358381116113b9578261161891600401611539565b60001981146117e55760010190565b634e487b7160e01b600052601160045260246000fd5b919082039182116117e557565b919082018092116117e557565b9061181f82611522565b61182c60405191826114ff565b828152809261183d601f1991611522565b019060005b82811061184e57505050565b806060602080938501015201611842565b9061186982611522565b61187660405191826114ff565b8281528092611887601f1991611522565b0190602036910137565b80518210156116845760209160051b010190565b908160209103126113b9575180151581036113b95790565b156118c457565b60405162461bcd60e51b815260206004820152600e60248201526d139bdd08185d5d1a1bdc9a5e995960921b6044820152606490fd5b91908254600160401b8110156114e95761191b90600194858201815561169a565b611caf57815181546001600160a01b0319166001600160a01b039190911617815560208083015180516001600160401b03969190828501908881116114e9578061196583546116b6565b93601f94858111611c5b575b508690858311600114611bf857600092611bed575b5050600019600383901b1c191690841b1790555b6002840160408601518051908982116114e95781906119b984546116b6565b858111611b9c575b508690858311600114611b3957600092611b2e575b5050600019600383901b1c191690841b1790555b60608501516003850155600484019260808601519081519889116114e957611a1285546116b6565b838111611ae8575b5080928911600114611a80575096809281926005979899600094611a75575b50501b916000199060031b1c19161790555b019060a081015115159060ff61ff0060c08554930151151560081b1692169061ffff191617179055565b015192503880611a39565b909791601f198316988560005282600020926000905b8b8210611ad157505083600598999a10611ab8575b505050811b019055611a4b565b015160001960f88460031b161c19169055388080611aab565b808785968294968601518155019501930190611a96565b856000528160002084808c0160051c820192848d10611b25575b0160051c019085905b828110611b19575050611a1a565b60008155018590611b0b565b92508192611b02565b0151905038806119d6565b90869350601f1983169185600052886000209260005b8a828210611b865750508411611b6d575b505050811b0190556119ea565b015160001960f88460031b161c19169055388080611b60565b8385015186558a97909501949384019301611b4f565b90915083600052866000208580850160051c820192898610611be4575b918891869594930160051c01915b828110611bd55750506119c1565b60008155859450889101611bc7565b92508192611bb9565b015190503880611986565b90869350601f1983169185600052886000209260005b8a828210611c455750508411611c2c575b505050811b01905561199a565b015160001960f88460031b161c19169055388080611c1f565b8385015186558a97909501949384019301611c0e565b909150600084600052876000208680860160051c8201938a8710611ca6575b91899187969594930160051c01925b838110611c9857505050611971565b828155869550899101611c89565b93508193611c7a565b634e487b7160e01b600052600060045260246000fd5b600454600160401b8110156114e957806001611ce49201600455611669565b60018060a09493941b038084549260031b9316831b921b1916179055565b9091611d19611647936040845260408401906113fb565b9160208184039101526113fb565b6000546001600160a01b03163303611d3b57565b60405163118cdaa760e01b8152336004820152602490fdfea2f507583a39f2155dd9e8bf4caea9bf60f7a23f9fdf75f5b881ce6a2989ee878be0079c531659141344cd1fd0a4f28419497f9722a3daafe3b4186f6b6457e0a2646970667358221220dc8b770961948cfc776a03c0f6a8d42062b246b9aa303c27cba9f1e4313f513964736f6c63430008160033",
  "linkReferences": {},
  "deployedLinkReferences": {}
}