{
  "_format": "hh-sol-artifact-1",
  "contractName": "PushChainEticketingPlatform",
  "sourceName": "contracts/PushChainEticketingPlatform.sol",
  "abi": [
    {
      "inputs": [],
      "stateMutability": "nonpayable",
      "type": "constructor"
    },
    {
      "inputs": [
        {
          "internalType": "address",
          "name": "owner",
          "type": "address"
        }
      ],
      "name": "OwnableInvalidOwner",
      "type": "error"
    },
    {
      "inputs": [
        {
          "internalType": "address",
          "name": "account",
          "type": "address"
        }
      ],
      "name": "OwnableUnauthorizedAccount",
      "type": "error"
    },
    {
      "anonymous": false,
      "inputs": [
        {
          "indexed": true,
          "internalType": "string",
          "name": "name",
          "type": "string"
        },
        {
          "indexed": true,
          "internalType": "address",
          "name": "contractAddress",
          "type": "address"
        }
      ],
      "name": "ContractRegistered",
      "type": "event"
    },
    {
      "anonymous": false,
      "inputs": [
        {
          "indexed": true,
          "internalType": "string",
          "name": "name",
          "type": "string"
        },
        {
          "indexed": true,
          "internalType": "address",
          "name": "oldAddress",
          "type": "address"
        },
        {
          "indexed": true,
          "internalType": "address",
          "name": "newAddress",
          "type": "address"
        }
      ],
      "name": "ContractUpgraded",
      "type": "event"
    },
    {
      "anonymous": false,
      "inputs": [
        {
          "indexed": true,
          "internalType": "address",
          "name": "previousOwner",
          "type": "address"
        },
        {
          "indexed": true,
          "internalType": "address",
          "name": "newOwner",
          "type": "address"
        }
      ],
      "name": "OwnershipTransferred",
      "type": "event"
    },
    {
      "anonymous": false,
      "inputs": [
        {
          "indexed": true,
          "internalType": "address",
          "name": "contractAddr",
          "type": "address"
        },
        {
          "indexed": false,
          "internalType": "string",
          "name": "permission",
          "type": "string"
        }
      ],
      "name": "PermissionGranted",
      "type": "event"
    },
    {
      "anonymous": false,
      "inputs": [
        {
          "indexed": true,
          "internalType": "address",
          "name": "contractAddr",
          "type": "address"
        },
        {
          "indexed": false,
          "internalType": "string",
          "name": "permission",
          "type": "string"
        }
      ],
      "name": "PermissionRevoked",
      "type": "event"
    },
    {
      "anonymous": false,
      "inputs": [],
      "name": "PlatformInitialized",
      "type": "event"
    },
    {
      "inputs": [
        {
          "internalType": "address",
          "name": "upgrader",
          "type": "address"
        }
      ],
      "name": "addContractUpgrader",
      "outputs": [],
      "stateMutability": "nonpayable",
      "type": "function"
    },
    {
      "inputs": [
        {
          "internalType": "address",
          "name": "",
          "type": "address"
        }
      ],
      "name": "authorizedContractUpgraders",
      "outputs": [
        {
          "internalType": "bool",
          "name": "",
          "type": "bool"
        }
      ],
      "stateMutability": "view",
      "type": "function"
    },
    {
      "inputs": [
        {
          "internalType": "address",
          "name": "",
          "type": "address"
        }
      ],
      "name": "authorizedContracts",
      "outputs": [
        {
          "internalType": "bool",
          "name": "",
          "type": "bool"
        }
      ],
      "stateMutability": "view",
      "type": "function"
    },
    {
      "inputs": [
        {
          "internalType": "address",
          "name": "",
          "type": "address"
        },
        {
          "internalType": "string",
          "name": "",
          "type": "string"
        }
      ],
      "name": "contractPermissions",
      "outputs": [
        {
          "internalType": "bool",
          "name": "",
          "type": "bool"
        }
      ],
      "stateMutability": "view",
      "type": "function"
    },
    {
      "inputs": [
        {
          "internalType": "string",
          "name": "",
          "type": "string"
        }
      ],
      "name": "contractRegistry",
      "outputs": [
        {
          "internalType": "address",
          "name": "",
          "type": "address"
        }
      ],
      "stateMutability": "view",
      "type": "function"
    },
    {
      "inputs": [
        {
          "internalType": "string",
          "name": "name",
          "type": "string"
        },
        {
          "internalType": "address",
          "name": "newContract",
          "type": "address"
        }
      ],
      "name": "emergencyUpgradeContract",
      "outputs": [],
      "stateMutability": "nonpayable",
      "type": "function"
    },
    {
      "inputs": [],
      "name": "eventOrganizerContract",
      "outputs": [
        {
          "internalType": "address",
          "name": "",
          "type": "address"
        }
      ],
      "stateMutability": "view",
      "type": "function"
    },
    {
      "inputs": [],
      "name": "eventRefundContract",
      "outputs": [
        {
          "internalType": "address",
          "name": "",
          "type": "address"
        }
      ],
      "stateMutability": "view",
      "type": "function"
    },
    {
      "inputs": [],
      "name": "eventReviewContract",
      "outputs": [
        {
          "internalType": "address",
          "name": "",
          "type": "address"
        }
      ],
      "stateMutability": "view",
      "type": "function"
    },
    {
      "inputs": [],
      "name": "eventStatisticsContract",
      "outputs": [
        {
          "internalType": "address",
          "name": "",
          "type": "address"
        }
      ],
      "stateMutability": "view",
      "type": "function"
    },
    {
      "inputs": [],
      "name": "getAllPlatformContracts",
      "outputs": [
        {
          "internalType": "address",
          "name": "eventOrganizer",
          "type": "address"
        },
        {
          "internalType": "address",
          "name": "universalValidator",
          "type": "address"
        },
        {
          "internalType": "address",
          "name": "userProfile",
          "type": "address"
        },
        {
          "internalType": "address",
          "name": "eventReview",
          "type": "address"
        },
        {
          "internalType": "address",
          "name": "notificationSystem",
          "type": "address"
        },
        {
          "internalType": "address",
          "name": "eventStatistics",
          "type": "address"
        },
        {
          "internalType": "address",
          "name": "ticketManagement",
          "type": "address"
        },
        {
          "internalType": "address",
          "name": "nftMarketplace",
          "type": "address"
        },
        {
          "internalType": "address",
          "name": "eventRefund",
          "type": "address"
        }
      ],
      "stateMutability": "view",
      "type": "function"
    },
    {
      "inputs": [
        {
          "internalType": "string",
          "name": "name",
          "type": "string"
        }
      ],
      "name": "getContractAddress",
      "outputs": [
        {
          "internalType": "address",
          "name": "",
          "type": "address"
        }
      ],
      "stateMutability": "view",
      "type": "function"
    },
    {
      "inputs": [],
      "name": "getPlatformBalance",
      "outputs": [
        {
          "internalType": "uint256",
          "name": "",
          "type": "uint256"
        }
      ],
      "stateMutability": "view",
      "type": "function"
    },
    {
      "inputs": [],
      "name": "getPlatformContracts",
      "outputs": [
        {
          "internalType": "address",
          "name": "eventOrganizer",
          "type": "address"
        },
        {
          "internalType": "address",
          "name": "universalValidator",
          "type": "address"
        },
        {
          "internalType": "address",
          "name": "userProfile",
          "type": "address"
        },
        {
          "internalType": "address",
          "name": "eventReview",
          "type": "address"
        },
        {
          "internalType": "address",
          "name": "notificationSystem",
          "type": "address"
        },
        {
          "internalType": "address",
          "name": "eventStatistics",
          "type": "address"
        },
        {
          "internalType": "address",
          "name": "ticketManagement",
          "type": "address"
        }
      ],
      "stateMutability": "view",
      "type": "function"
    },
    {
      "inputs": [
        {
          "internalType": "address",
          "name": "contractAddr",
          "type": "address"
        },
        {
          "internalType": "string",
          "name": "permission",
          "type": "string"
        }
      ],
      "name": "grantPermission",
      "outputs": [],
      "stateMutability": "nonpayable",
      "type": "function"
    },
    {
      "inputs": [
        {
          "internalType": "string",
          "name": "contractName",
          "type": "string"
        },
        {
          "internalType": "address",
          "name": "caller",
          "type": "address"
        }
      ],
      "name": "hasPermission",
      "outputs": [
        {
          "internalType": "bool",
          "name": "",
          "type": "bool"
        }
      ],
      "stateMutability": "view",
      "type": "function"
    },
    {
      "inputs": [
        {
          "internalType": "address",
          "name": "contractAddr",
          "type": "address"
        }
      ],
      "name": "isAuthorizedContract",
      "outputs": [
        {
          "internalType": "bool",
          "name": "",
          "type": "bool"
        }
      ],
      "stateMutability": "view",
      "type": "function"
    },
    {
      "inputs": [
        {
          "internalType": "address",
          "name": "addr",
          "type": "address"
        }
      ],
      "name": "isAuthorizedContractUpgrader",
      "outputs": [
        {
          "internalType": "bool",
          "name": "",
          "type": "bool"
        }
      ],
      "stateMutability": "view",
      "type": "function"
    },
    {
      "inputs": [],
      "name": "nftMarketplaceContract",
      "outputs": [
        {
          "internalType": "address",
          "name": "",
          "type": "address"
        }
      ],
      "stateMutability": "view",
      "type": "function"
    },
    {
      "inputs": [],
      "name": "notificationSystemContract",
      "outputs": [
        {
          "internalType": "address",
          "name": "",
          "type": "address"
        }
      ],
      "stateMutability": "view",
      "type": "function"
    },
    {
      "inputs": [],
      "name": "owner",
      "outputs": [
        {
          "internalType": "address",
          "name": "",
          "type": "address"
        }
      ],
      "stateMutability": "view",
      "type": "function"
    },
    {
      "inputs": [],
      "name": "pausePlatform",
      "outputs": [],
      "stateMutability": "nonpayable",
      "type": "function"
    },
    {
      "inputs": [],
      "name": "platformPaused",
      "outputs": [
        {
          "internalType": "bool",
          "name": "",
          "type": "bool"
        }
      ],
      "stateMutability": "view",
      "type": "function"
    },
    {
      "inputs": [
        {
          "internalType": "address",
          "name": "_nftMarketplace",
          "type": "address"
        },
        {
          "internalType": "address",
          "name": "_eventRefund",
          "type": "address"
        }
      ],
      "name": "registerAdditionalContracts",
      "outputs": [],
      "stateMutability": "nonpayable",
      "type": "function"
    },
    {
      "inputs": [
        {
          "internalType": "string",
          "name": "name",
          "type": "string"
        },
        {
          "internalType": "address",
          "name": "contractAddress",
          "type": "address"
        }
      ],
      "name": "registerContract",
      "outputs": [],
      "stateMutability": "nonpayable",
      "type": "function"
    },
    {
      "inputs": [
        {
          "internalType": "address",
          "name": "upgrader",
          "type": "address"
        }
      ],
      "name": "removeContractUpgrader",
      "outputs": [],
      "stateMutability": "nonpayable",
      "type": "function"
    },
    {
      "inputs": [],
      "name": "renounceOwnership",
      "outputs": [],
      "stateMutability": "nonpayable",
      "type": "function"
    },
    {
      "inputs": [
        {
          "internalType": "address",
          "name": "contractAddr",
          "type": "address"
        },
        {
          "internalType": "string",
          "name": "permission",
          "type": "string"
        }
      ],
      "name": "revokePermission",
      "outputs": [],
      "stateMutability": "nonpayable",
      "type": "function"
    },
    {
      "inputs": [
        {
          "internalType": "address",
          "name": "_eventOrganizer",
          "type": "address"
        },
        {
          "internalType": "address",
          "name": "_universalValidator",
          "type": "address"
        },
        {
          "internalType": "address",
          "name": "_userProfile",
          "type": "address"
        },
        {
          "internalType": "address",
          "name": "_eventReview",
          "type": "address"
        },
        {
          "internalType": "address",
          "name": "_notificationSystem",
          "type": "address"
        },
        {
          "internalType": "address",
          "name": "_eventStatistics",
          "type": "address"
        },
        {
          "internalType": "address",
          "name": "_ticketManagement",
          "type": "address"
        }
      ],
      "name": "setupPlatform",
      "outputs": [],
      "stateMutability": "nonpayable",
      "type": "function"
    },
    {
      "inputs": [],
      "name": "ticketManagementContract",
      "outputs": [
        {
          "internalType": "address",
          "name": "",
          "type": "address"
        }
      ],
      "stateMutability": "view",
      "type": "function"
    },
    {
      "inputs": [
        {
          "internalType": "address",
          "name": "newOwner",
          "type": "address"
        }
      ],
      "name": "transferOwnership",
      "outputs": [],
      "stateMutability": "nonpayable",
      "type": "function"
    },
    {
      "inputs": [],
      "name": "universalValidatorContract",
      "outputs": [
        {
          "internalType": "address",
          "name": "",
          "type": "address"
        }
      ],
      "stateMutability": "view",
      "type": "function"
    },
    {
      "inputs": [],
      "name": "unpausePlatform",
      "outputs": [],
      "stateMutability": "nonpayable",
      "type": "function"
    },
    {
      "inputs": [],
      "name": "userProfileContract",
      "outputs": [
        {
          "internalType": "address",
          "name": "",
          "type": "address"
        }
      ],
      "stateMutability": "view",
      "type": "function"
    },
    {
      "inputs": [
        {
          "internalType": "address payable",
          "name": "to",
          "type": "address"
        },
        {
          "internalType": "uint256",
          "name": "amount",
          "type": "uint256"
        }
      ],
      "name": "withdrawFunds",
      "outputs": [],
      "stateMutability": "nonpayable",
      "type": "function"
    },
    {
      "stateMutability": "payable",
      "type": "receive"
    }
  ],
  "bytecode": "0x608080604052346100a85733156100925760008054336001600160a01b0319821681178355604051927f3d8e80a8ed0e73d46a33913eaaef3e7cb15c9bc6ce7c40eccbde474f6d65444f929091906001600160a01b03167f8be0079c531659141344cd1fd0a4f28419497f9722a3daafe3b4186f6b6457e08380a360ff19600e5416600e5580a161338990816100ae8239f35b631e4fbdf760e01b815260006004820152602490fd5b600080fdfe6080604052600436101561001b575b361561001957600080fd5b005b60003560e01c806304433bbc146126e75780630beb11b714612fc15780630e64f35d14612f985780631a9ba7eb14612f735780631c5f309914612f4a57806333cef94414612f215780633b43692114612ef8578063490acd0914612ed55780634c9d846314612e5b5780634daeb0d714612d3d57806366d0ead314610d9d5780636b78c29b14612e335780636ff8915914612dc3578063715018a614612d7c57806371a8b3c314612d3d5780637f3c2c2814612a405780638da5cb5b14612a1757806390f110b8146129ee578063a2105dbb146129c5578063a259bd4e14612986578063b1c21c311461295d578063ba9bf75714612941578063bbd9a5fa146128bd578063bf11abac1461287b578063c10753291461274f578063c8054273146126e7578063ccb8260a14610e43578063d3be8c7614610ddc578063d5b9221b14610d9d578063ebe7711614610d12578063ee3c5f6114610c94578063ef65f77c14610c6b578063f17153721461045c578063f2fde38b146103e85763f58643840361000e57346103e3576101af366130c8565b906101b8613227565b6001600160a01b039182169161026b906101d38415156131c0565b6102596040518451866020928381818a01946101f081838861314b565b600a9082019081520301902080546001600160a01b0319908116831790915587518320600e8561021e612fea565b828152016d22bb32b73a27b933b0b734bd32b960911b815220146000146102805760015416176001555b60405180938192885192839161314b565b8101600a815203019020541691613207565b600080516020613334833981519152600080a4005b8751832060128561028f612fea565b828152016000805160206132f4833981519152815220146000146102ba576002541617600255610248565b87518320600b856102c9612fea565b828152016a5573657250726f66696c6560a81b815220146000146102f4576003541617600355610248565b87518320600b85610303612fea565b828152016a4576656e7452657669657760a81b8152201460001461032e576004541617600455610248565b8751832060128561033d612fea565b828152016000805160206132d483398151915281522014600014610368576005541617600555610248565b87518320600f85610377612fea565b82815201600080516020613254833981519152815220146000146103a2576006541617600655610248565b875183206010856103b1612fea565b82815201600080516020613274833981519152815220146103d4575b5050610248565b600754161760075586386103cd565b600080fd5b346103e35760203660031901126103e35761040161309c565b610409613227565b6001600160a01b03908116908115610443576000548260018060a01b0319821617600055166000805160206132b4833981519152600080a3005b604051631e4fbdf760e01b815260006004820152602490fd5b346103e35760403660031901126103e35761047561309c565b61047d6130b2565b90610486613227565b61048e612fea565b90600e82526d4e46544d61726b6574706c61636560901b60208301526104b2613227565b6104c66001600160a01b03821615156131c0565b60405182516104d981836020870161314b565b810190600a825260208160018060a01b03930301902054169060405160208185516105078183858a0161314b565b600a9082019081520301902080546001600160a01b0319166001600160a01b0383169081179091556000908152600d60209081526040909120805460ff1916600117905583518482012090600e9061055d612fea565b828152016d22bb32b73a27b933b0b734bd32b960911b815220146000146109d257600180546001600160a01b0319166001600160a01b0383161790555b6105a383613207565b6001600160a01b03821690600080516020613314833981519152600080a3816109a4575b5050506105d2612fea565b90600b82526a115d995b9d1499599d5b9960aa1b60208301526105f3613227565b6106076001600160a01b03821615156131c0565b604051825161061a81836020870161314b565b810190600a825260208160018060a01b03930301902054169060405160208185516106488183858a0161314b565b600a9082019081520301902080546001600160a01b0319166001600160a01b0383169081179091556000908152600d60209081526040909120805460ff1916600117905583518482012090600e9061069e612fea565b828152016d22bb32b73a27b933b0b734bd32b960911b8152201460001461071b57600180546001600160a01b0319166001600160a01b0383161790555b6001600160a01b0381166106ee84613207565b600080516020613314833981519152600080a38161070857005b6001600160a01b03169161026b90613207565b825160208401206012602061072e612fea565b828152016000805160206132f48339815191528152201460001461076d57600280546001600160a01b0319166001600160a01b0383161790555b6106db565b82516020840120600b6020610780612fea565b828152016a5573657250726f66696c6560a81b815220146000146107be57600380546001600160a01b0319166001600160a01b0383161790556106db565b82516020840120600b60206107d1612fea565b828152016a4576656e7452657669657760a81b8152201460001461080f57600480546001600160a01b0319166001600160a01b0383161790556106db565b8251602084012060126020610822612fea565b828152016000805160206132d48339815191528152201460001461086057600580546001600160a01b0319166001600160a01b0383161790556106db565b82516020840120600f6020610873612fea565b82815201600080516020613254833981519152815220146000146108b157600680546001600160a01b0319166001600160a01b0383161790556106db565b82516020840120601060206108c4612fea565b828152016000805160206132748339815191528152201460001461090257600780546001600160a01b0319166001600160a01b0383161790556106db565b82516020840120600e6020610915612fea565b828152016d4e46544d61726b6574706c61636560901b8152201460001461095657600880546001600160a01b0319166001600160a01b0383161790556106db565b82516020840120600b6020610969612fea565b828152016a115d995b9d1499599d5b9960aa1b8152200361076857600980546001600160a01b0319166001600160a01b0383161790556106db565b6001600160a01b0316916109b790613207565b600080516020613334833981519152600080a48180806105c7565b82516020840120601260206109e5612fea565b828152016000805160206132f483398151915281522014600014610a2457600280546001600160a01b0319166001600160a01b0383161790555b61059a565b6020835181850120610a34612fea565b600b8082526a5573657250726f66696c6560a81b919093015260008051602061329483398151915203610a825750600380546001600160a01b0319166001600160a01b03831617905561059a565b83516020850120816020610a94612fea565b828152016a4576656e7452657669657760a81b81522014600014610ad35750600480546001600160a01b0319166001600160a01b03831617905561059a565b8351602085012060126020610ae6612fea565b828152016000805160206132d483398151915281522014600014610b255750600580546001600160a01b0319166001600160a01b03831617905561059a565b83516020850120600f6020610b38612fea565b8281520160008051602061325483398151915281522014600014610b775750600680546001600160a01b0319166001600160a01b03831617905561059a565b8351602085012060106020610b8a612fea565b8281520160008051602061327483398151915281522014600014610bc95750600780546001600160a01b0319166001600160a01b03831617905561059a565b83516020850120600e6020610bdc612fea565b828152016d4e46544d61726b6574706c61636560901b81522014600014610c1e5750600880546001600160a01b0319166001600160a01b03831617905561059a565b83516020850120906020610c30612fea565b828152016a115d995b9d1499599d5b9960aa1b81522003610a1f57600980546001600160a01b0319166001600160a01b03831617905561059a565b346103e35760003660031901126103e3576009546040516001600160a01b039091168152602090f35b346103e35760003660031901126103e35761012060018060a01b038060015416908060025416908060035416816004541682600554168360065416918460075416938560085416956009541696604051988952602089015260408801526060870152608086015260a085015260c084015260e0830152610100820152f35b346103e35760203660031901126103e357610d2b61309c565b610d33613227565b6001600160a01b03168015610d5d576000908152600b60205260409020805460ff19166001179055005b60405162461bcd60e51b8152602060048201526018602482015277496e76616c6964207570677261646572206164647265737360401b6044820152606490fd5b346103e35760203660031901126103e3576001600160a01b03610dbe61309c565b16600052600d602052602060ff604060002054166040519015158152f35b346103e35760003660031901126103e35760e060018060a01b03806001541690806002541690806003541681600454168260055416918360065416936007541694604051968752602087015260408601526060850152608084015260a083015260c0820152f35b346103e35760e03660031901126103e357610e5c61309c565b610e646130b2565b6044356001600160a01b03811681036103e3576064356001600160a01b03811681036103e357608435916001600160a01b03831683036103e35760a435936001600160a01b03851685036103e35760c435956001600160a01b03871687036103e357610ece613227565b610ed6612fea565b90600e82526d22bb32b73a27b933b0b734bd32b960911b6020830152610efa613227565b610f0e6001600160a01b03821615156131c0565b604051825190610f2282826020870161314b565b600a8282015260208160018060a01b03938101030190205416906040516020818551610f518183858a0161314b565b600a9082019081520301902080546001600160a01b0319166001600160a01b0383169081179091556000908152600d60209081526040909120805460ff1916600117905583518482012090600e90610fa7612fea565b828152016d22bb32b73a27b933b0b734bd32b960911b8152201460001461244e57600180546001600160a01b0319166001600160a01b0383161790555b610fed83613207565b6001600160a01b03821690600080516020613314833981519152600080a381612420575b50505061101c612fea565b90601282526000805160206132f4833981519152602083015261103d613227565b6110516001600160a01b03821615156131c0565b604051825161106481836020870161314b565b810190600a825260208160018060a01b03930301902054169060405160208185516110928183858a0161314b565b600a9082019081520301902080546001600160a01b0319166001600160a01b0383169081179091556000908152600d60209081526040909120805460ff1916600117905583518482012090600e906110e8612fea565b828152016d22bb32b73a27b933b0b734bd32b960911b8152201460001461218757600180546001600160a01b0319166001600160a01b0383161790555b6001600160a01b03811661113884613207565b600080516020613314833981519152600080a381612159575b50505061115c612fea565b90600b82526a5573657250726f66696c6560a81b602083015261117d613227565b6111916001600160a01b03821615156131c0565b60405182516111a481836020870161314b565b810190600a825260208160018060a01b03930301902054169060405160208185516111d28183858a0161314b565b600a9082019081520301902080546001600160a01b0319166001600160a01b0383169081179091556000908152600d60209081526040909120805460ff1916600117905583518482012090600e90611228612fea565b828152016d22bb32b73a27b933b0b734bd32b960911b81522014600014611ed057600180546001600160a01b0319166001600160a01b0383161790555b6001600160a01b03811661127884613207565b600080516020613314833981519152600080a381611ea2575b50505061129c612fea565b90600b82526a4576656e7452657669657760a81b60208301526112bd613227565b6112d16001600160a01b03821615156131c0565b60405182516112e481836020870161314b565b810190600a825260208160018060a01b03930301902054169060405160208185516113128183858a0161314b565b600a9082019081520301902080546001600160a01b0319166001600160a01b0383169081179091556000908152600d60209081526040909120805460ff1916600117905583518482012090600e90611368612fea565b828152016d22bb32b73a27b933b0b734bd32b960911b81522014600014611c1957600180546001600160a01b0319166001600160a01b0383161790555b6001600160a01b0381166113b884613207565b600080516020613314833981519152600080a381611beb575b5050506113dc612fea565b90601282526000805160206132d483398151915260208301526113fd613227565b6114116001600160a01b03821615156131c0565b604051825161142481836020870161314b565b810190600a825260208160018060a01b03930301902054169060405160208185516114528183858a0161314b565b600a9082019081520301902080546001600160a01b0319166001600160a01b0383169081179091556000908152600d60209081526040909120805460ff1916600117905583518482012090600e906114a8612fea565b828152016d22bb32b73a27b933b0b734bd32b960911b8152201460001461196257600180546001600160a01b0319166001600160a01b0383161790555b6001600160a01b0381166114f884613207565b600080516020613314833981519152600080a381611934575b50505061151c612fea565b90600f8252600080516020613254833981519152602083015261153d613227565b6115516001600160a01b03821615156131c0565b604051825161156481836020870161314b565b810190600a825260208160018060a01b03930301902054169060405160208185516115928183858a0161314b565b600a9082019081520301902080546001600160a01b0319166001600160a01b0383169081179091556000908152600d60209081526040909120805460ff1916600117905583518482012090600e906115e8612fea565b828152016d22bb32b73a27b933b0b734bd32b960911b815220146000146116ab57600180546001600160a01b0319166001600160a01b0383161790555b6001600160a01b03811661163884613207565b600080516020613314833981519152600080a38161167d575b50505061165c612fea565b906010825260008051602061327483398151915260208301526105f3613227565b6001600160a01b03169161169090613207565b600080516020613334833981519152600080a4818080611651565b82516020840120601260206116be612fea565b828152016000805160206132f4833981519152815220146000146116fd57600280546001600160a01b0319166001600160a01b0383161790555b611625565b82516020840120600b6020611710612fea565b828152016a5573657250726f66696c6560a81b8152201460001461174e57600380546001600160a01b0319166001600160a01b038316179055611625565b82516020840120600b6020611761612fea565b828152016a4576656e7452657669657760a81b8152201460001461179f57600480546001600160a01b0319166001600160a01b038316179055611625565b82516020840120601260206117b2612fea565b828152016000805160206132d4833981519152815220146000146117f057600580546001600160a01b0319166001600160a01b038316179055611625565b82516020840120600f6020611803612fea565b828152016000805160206132548339815191528152201460001461184157600680546001600160a01b0319166001600160a01b038316179055611625565b8251602084012060106020611854612fea565b828152016000805160206132748339815191528152201460001461189257600780546001600160a01b0319166001600160a01b038316179055611625565b82516020840120600e60206118a5612fea565b828152016d4e46544d61726b6574706c61636560901b815220146000146118e657600880546001600160a01b0319166001600160a01b038316179055611625565b82516020840120600b60206118f9612fea565b828152016a115d995b9d1499599d5b9960aa1b815220036116f857600980546001600160a01b0319166001600160a01b038316179055611625565b6001600160a01b03169161194790613207565b600080516020613334833981519152600080a4828080611511565b8251602084012060126020611975612fea565b828152016000805160206132f4833981519152815220146000146119b457600280546001600160a01b0319166001600160a01b0383161790555b6114e5565b82516020840120600b60206119c7612fea565b828152016a5573657250726f66696c6560a81b81522014600014611a0557600380546001600160a01b0319166001600160a01b0383161790556114e5565b82516020840120600b6020611a18612fea565b828152016a4576656e7452657669657760a81b81522014600014611a5657600480546001600160a01b0319166001600160a01b0383161790556114e5565b8251602084012060126020611a69612fea565b828152016000805160206132d483398151915281522014600014611aa757600580546001600160a01b0319166001600160a01b0383161790556114e5565b82516020840120600f6020611aba612fea565b8281520160008051602061325483398151915281522014600014611af857600680546001600160a01b0319166001600160a01b0383161790556114e5565b8251602084012060106020611b0b612fea565b8281520160008051602061327483398151915281522014600014611b4957600780546001600160a01b0319166001600160a01b0383161790556114e5565b82516020840120600e6020611b5c612fea565b828152016d4e46544d61726b6574706c61636560901b81522014600014611b9d57600880546001600160a01b0319166001600160a01b0383161790556114e5565b82516020840120600b6020611bb0612fea565b828152016a115d995b9d1499599d5b9960aa1b815220036119af57600980546001600160a01b0319166001600160a01b0383161790556114e5565b6001600160a01b031691611bfe90613207565b600080516020613334833981519152600080a48380806113d1565b8251602084012060126020611c2c612fea565b828152016000805160206132f483398151915281522014600014611c6b57600280546001600160a01b0319166001600160a01b0383161790555b6113a5565b82516020840120600b6020611c7e612fea565b828152016a5573657250726f66696c6560a81b81522014600014611cbc57600380546001600160a01b0319166001600160a01b0383161790556113a5565b82516020840120600b6020611ccf612fea565b828152016a4576656e7452657669657760a81b81522014600014611d0d57600480546001600160a01b0319166001600160a01b0383161790556113a5565b8251602084012060126020611d20612fea565b828152016000805160206132d483398151915281522014600014611d5e57600580546001600160a01b0319166001600160a01b0383161790556113a5565b82516020840120600f6020611d71612fea565b8281520160008051602061325483398151915281522014600014611daf57600680546001600160a01b0319166001600160a01b0383161790556113a5565b8251602084012060106020611dc2612fea565b8281520160008051602061327483398151915281522014600014611e0057600780546001600160a01b0319166001600160a01b0383161790556113a5565b82516020840120600e6020611e13612fea565b828152016d4e46544d61726b6574706c61636560901b81522014600014611e5457600880546001600160a01b0319166001600160a01b0383161790556113a5565b82516020840120600b6020611e67612fea565b828152016a115d995b9d1499599d5b9960aa1b81522003611c6657600980546001600160a01b0319166001600160a01b0383161790556113a5565b6001600160a01b031691611eb590613207565b600080516020613334833981519152600080a4848080611291565b8251602084012060126020611ee3612fea565b828152016000805160206132f483398151915281522014600014611f2257600280546001600160a01b0319166001600160a01b0383161790555b611265565b82516020840120600b6020611f35612fea565b828152016a5573657250726f66696c6560a81b81522014600014611f7357600380546001600160a01b0319166001600160a01b038316179055611265565b82516020840120600b6020611f86612fea565b828152016a4576656e7452657669657760a81b81522014600014611fc457600480546001600160a01b0319166001600160a01b038316179055611265565b8251602084012060126020611fd7612fea565b828152016000805160206132d48339815191528152201460001461201557600580546001600160a01b0319166001600160a01b038316179055611265565b82516020840120600f6020612028612fea565b828152016000805160206132548339815191528152201460001461206657600680546001600160a01b0319166001600160a01b038316179055611265565b8251602084012060106020612079612fea565b82815201600080516020613274833981519152815220146000146120b757600780546001600160a01b0319166001600160a01b038316179055611265565b82516020840120600e60206120ca612fea565b828152016d4e46544d61726b6574706c61636560901b8152201460001461210b57600880546001600160a01b0319166001600160a01b038316179055611265565b82516020840120600b602061211e612fea565b828152016a115d995b9d1499599d5b9960aa1b81522003611f1d57600980546001600160a01b0319166001600160a01b038316179055611265565b6001600160a01b03169161216c90613207565b600080516020613334833981519152600080a4858080611151565b825160208401206012602061219a612fea565b828152016000805160206132f4833981519152815220146000146121d957600280546001600160a01b0319166001600160a01b0383161790555b611125565b60208351818501206121e9612fea565b600b8082526a5573657250726f66696c6560a81b9190930152600080516020613294833981519152036122375750600380546001600160a01b0319166001600160a01b038316179055611125565b83516020850120816020612249612fea565b828152016a4576656e7452657669657760a81b815220146000146122885750600480546001600160a01b0319166001600160a01b038316179055611125565b835160208501206012602061229b612fea565b828152016000805160206132d4833981519152815220146000146122da5750600580546001600160a01b0319166001600160a01b038316179055611125565b83516020850120600f60206122ed612fea565b828152016000805160206132548339815191528152201460001461232c5750600680546001600160a01b0319166001600160a01b038316179055611125565b835160208501206010602061233f612fea565b828152016000805160206132748339815191528152201460001461237e5750600780546001600160a01b0319166001600160a01b038316179055611125565b83516020850120600e6020612391612fea565b828152016d4e46544d61726b6574706c61636560901b815220146000146123d35750600880546001600160a01b0319166001600160a01b038316179055611125565b835160208501209060206123e5612fea565b828152016a115d995b9d1499599d5b9960aa1b815220036121d457600980546001600160a01b0319166001600160a01b038316179055611125565b6001600160a01b03169161243390613207565b600080516020613334833981519152600080a4868080611011565b8251602084012060126020612461612fea565b828152016000805160206132f4833981519152815220146000146124a057600280546001600160a01b0319166001600160a01b0383161790555b610fe4565b60208351818501206124b0612fea565b600b8082526a5573657250726f66696c6560a81b9190930152600080516020613294833981519152036124fe5750600380546001600160a01b0319166001600160a01b038316179055610fe4565b83516020850120816020612510612fea565b828152016a4576656e7452657669657760a81b8152201460001461254f5750600480546001600160a01b0319166001600160a01b038316179055610fe4565b8351602085012060126020612562612fea565b828152016000805160206132d4833981519152815220146000146125a15750600580546001600160a01b0319166001600160a01b038316179055610fe4565b83516020850120600f60206125b4612fea565b82815201600080516020613254833981519152815220146000146125f35750600680546001600160a01b0319166001600160a01b038316179055610fe4565b8351602085012060106020612606612fea565b82815201600080516020613274833981519152815220146000146126455750600780546001600160a01b0319166001600160a01b038316179055610fe4565b83516020850120600e6020612658612fea565b828152016d4e46544d61726b6574706c61636560901b8152201460001461269a5750600880546001600160a01b0319166001600160a01b038316179055610fe4565b835160208501209060206126ac612fea565b828152016a115d995b9d1499599d5b9960aa1b8152200361249b57600980546001600160a01b0319166001600160a01b038316179055610fe4565b346103e35760203660031901126103e3576004356001600160401b0381116103e357612719602091369060040161305f565b8161272d604051928381519384920161314b565b600a90820190815281900382019020546040516001600160a01b039091168152f35b346103e35760403660031901126103e3576004356001600160a01b038116908190036103e35760243590612781613227565b801561283a574782116127fe57600080809381935af13d156127f9573d6127af6127aa82613044565b61301f565b908152600060203d92013e5b156127c257005b60405162461bcd60e51b815260206004820152600f60248201526e151c985b9cd9995c8819985a5b1959608a1b6044820152606490fd5b6127bb565b60405162461bcd60e51b8152602060048201526014602482015273496e73756666696369656e742062616c616e636560601b6044820152606490fd5b60405162461bcd60e51b8152602060048201526019602482015278496e76616c696420726563697069656e74206164647265737360381b6044820152606490fd5b346103e35760203660031901126103e35761289461309c565b61289c613227565b6001600160a01b03166000908152600b60205260409020805460ff19169055005b346103e35761293c7f3e7a939fe856e16ddb4b017165d29dcf6d87c6bc6115a55d7895ec3e7d4c66a16128ef36613109565b92906128f9613227565b6001600160a01b03169261290e8415156131c0565b83600052600c60205261292560406000208261316e565b805460ff1916600117905560405191829182613194565b0390a2005b346103e35760003660031901126103e357602047604051908152f35b346103e35760003660031901126103e3576002546040516001600160a01b039091168152602090f35b346103e357602060ff6129b961299b36613109565b6001600160a01b039091166000908152600c8552604090209061316e565b54166040519015158152f35b346103e35760003660031901126103e3576007546040516001600160a01b039091168152602090f35b346103e35760003660031901126103e3576008546040516001600160a01b039091168152602090f35b346103e35760003660031901126103e3576000546040516001600160a01b039091168152602090f35b346103e357612a4e366130c8565b612a56613227565b6001600160a01b0390811691612a6d8315156131c0565b8260405192825190602094858181870194612a8981838861314b565b8101600a81520301902054169360405181818651612aa881838861314b565b8101600a8152030190209160018060a01b031992848482541617905583600052600d82526040600020600160ff1982541617905584518120600e83612aeb612fea565b828152016d22bb32b73a27b933b0b734bd32b960911b81522014600014612b4457505060015416176001555b82612b2182613207565b600080516020613314833981519152600080a381612b3b57005b61026b90613207565b84518120601283612b53612fea565b828152016000805160206132f483398151915281522014600014612b805750506002541617600255612b17565b819085518120612b8e612fea565b600b8082526a5573657250726f66696c6560a81b919094015260008051602061329483398151915203612bcb575050506003541617600355612b17565b855181208284612bd9612fea565b828152016a4576656e7452657669657760a81b81522014600014612c07575050506004541617600455612b17565b85518120601284612c16612fea565b828152016000805160206132d483398151915281522014600014612c44575050506005541617600555612b17565b85518120600f84612c53612fea565b8281520160008051602061325483398151915281522014600014612c81575050506006541617600655612b17565b85518120601084612c90612fea565b8281520160008051602061327483398151915281522014600014612cbe575050506007541617600755612b17565b85518120600e84612ccd612fea565b828152016d4e46544d61726b6574706c61636560901b81522014600014612cfe575050506008541617600855612b17565b8551902091612d0b612fea565b828152016a115d995b9d1499599d5b9960aa1b81522014612d2e575b5050612b17565b60095416176009558284612d27565b346103e35760203660031901126103e3576001600160a01b03612d5e61309c565b16600052600b602052602060ff604060002054166040519015158152f35b346103e35760003660031901126103e357612d95613227565b600080546001600160a01b0319811682556001600160a01b03166000805160206132b48339815191528280a3005b346103e35761293c7f280695bd728e67c68c12776e30681a8ca746d6122488eab32b7bdec64eb2e733612df536613109565b9290612dff613227565b60018060a01b03169283600052600c602052612e1f60406000208261316e565b805460ff1916905560405191829182613194565b346103e35760003660031901126103e357612e4c613227565b600e805460ff19166001179055005b346103e3576020612e6b366130c8565b906040518151612e7e818387860161314b565b600a90820190815281900384019020546001600160a01b0392831692168214918215612eb1575b50506040519015158152f35b60ff925090612ecc91600052600c845260406000209061316e565b54168280612ea5565b346103e35760003660031901126103e357602060ff600e54166040519015158152f35b346103e35760003660031901126103e3576004546040516001600160a01b039091168152602090f35b346103e35760003660031901126103e3576005546040516001600160a01b039091168152602090f35b346103e35760003660031901126103e3576003546040516001600160a01b039091168152602090f35b346103e35760003660031901126103e357612f8c613227565b600e805460ff19169055005b346103e35760003660031901126103e3576006546040516001600160a01b039091168152602090f35b346103e35760003660031901126103e3576001546040516001600160a01b039091168152602090f35b60408051919082016001600160401b0381118382101761300957604052565b634e487b7160e01b600052604160045260246000fd5b6040519190601f01601f191682016001600160401b0381118382101761300957604052565b6001600160401b03811161300957601f01601f191660200190565b81601f820112156103e3578035906130796127aa83613044565b92828452602083830101116103e357816000926020809301838601378301015290565b600435906001600160a01b03821682036103e357565b602435906001600160a01b03821682036103e357565b60406003198201126103e357600435906001600160401b0382116103e3576130f29160040161305f565b906024356001600160a01b03811681036103e35790565b9060406003198301126103e3576004356001600160a01b03811681036103e35791602435906001600160401b0382116103e3576131489160040161305f565b90565b60005b83811061315e5750506000910152565b818101518382015260200161314e565b60209061318892826040519483868095519384920161314b565b82019081520301902090565b604091602082526131b4815180928160208601526020868601910161314b565b601f01601f1916010190565b156131c757565b60405162461bcd60e51b8152602060048201526018602482015277496e76616c696420636f6e7472616374206164647265737360401b6044820152606490fd5b61321f9060206040519282848094519384920161314b565b810103902090565b6000546001600160a01b0316330361323b57565b60405163118cdaa760e01b8152336004820152602490fdfe4576656e745374617469737469637300000000000000000000000000000000005469636b65744d616e6167656d656e74000000000000000000000000000000005974b58f6a42f45f2a47a4811052bcabcf3d9059a88eabfd33c68a0d7bd05be18be0079c531659141344cd1fd0a4f28419497f9722a3daafe3b4186f6b6457e04e6f74696669636174696f6e53797374656d0000000000000000000000000000556e6976657273616c56616c696461746f7200000000000000000000000000002a88e68a891ddb61f7aebfdeefd9fb74964fcd5371b692ea59cca73fc58f48050441abf574021357ac657a1ea4fbfa96c4c3f39a68bc29c9d793d337c0e86fada2646970667358221220a645d93a4879311877f74666752a749b4b914c4ebe4c6006fbd670df854e614264736f6c63430008160033",
  "linkReferences": {},
  "deployedLinkReferences": {}
}