{
  "_format": "hh-sol-artifact-1",
  "contractName": "TicketManagement",
  "sourceName": "contracts/TicketManagement.sol",
  "abi": [
    {
      "inputs": [],
      "stateMutability": "nonpayable",
      "type": "constructor"
    },
    {
      "inputs": [
        {
          "internalType": "address",
          "name": "owner",
          "type": "address"
        }
      ],
      "name": "OwnableInvalidOwner",
      "type": "error"
    },
    {
      "inputs": [
        {
          "internalType": "address",
          "name": "account",
          "type": "address"
        }
      ],
      "name": "OwnableUnauthorizedAccount",
      "type": "error"
    },
    {
      "anonymous": false,
      "inputs": [
        {
          "indexed": false,
          "internalType": "uint256",
          "name": "chainId",
          "type": "uint256"
        }
      ],
      "name": "ChainRegistered",
      "type": "event"
    },
    {
      "anonymous": false,
      "inputs": [
        {
          "indexed": true,
          "internalType": "bytes32",
          "name": "transferId",
          "type": "bytes32"
        },
        {
          "indexed": true,
          "internalType": "uint256",
          "name": "tokenId",
          "type": "uint256"
        },
        {
          "indexed": true,
          "internalType": "address",
          "name": "recipient",
          "type": "address"
        }
      ],
      "name": "CrossChainTransferCompleted",
      "type": "event"
    },
    {
      "anonymous": false,
      "inputs": [
        {
          "indexed": true,
          "internalType": "bytes32",
          "name": "transferId",
          "type": "bytes32"
        },
        {
          "indexed": true,
          "internalType": "uint256",
          "name": "tokenId",
          "type": "uint256"
        },
        {
          "indexed": true,
          "internalType": "address",
          "name": "sender",
          "type": "address"
        },
        {
          "indexed": false,
          "internalType": "string",
          "name": "metadataUri",
          "type": "string"
        }
      ],
      "name": "CrossChainTransferInitiated",
      "type": "event"
    },
    {
      "anonymous": false,
      "inputs": [
        {
          "indexed": true,
          "internalType": "address",
          "name": "previousOwner",
          "type": "address"
        },
        {
          "indexed": true,
          "internalType": "address",
          "name": "newOwner",
          "type": "address"
        }
      ],
      "name": "OwnershipTransferred",
      "type": "event"
    },
    {
      "anonymous": false,
      "inputs": [
        {
          "indexed": true,
          "internalType": "uint256",
          "name": "tokenId",
          "type": "uint256"
        },
        {
          "indexed": true,
          "internalType": "address",
          "name": "validator",
          "type": "address"
        },
        {
          "indexed": false,
          "internalType": "string",
          "name": "locationUri",
          "type": "string"
        }
      ],
      "name": "TicketValidated",
      "type": "event"
    },
    {
      "anonymous": false,
      "inputs": [
        {
          "indexed": true,
          "internalType": "uint256",
          "name": "tokenId",
          "type": "uint256"
        },
        {
          "indexed": true,
          "internalType": "address",
          "name": "revoker",
          "type": "address"
        }
      ],
      "name": "TicketValidationRevoked",
      "type": "event"
    },
    {
      "inputs": [
        {
          "internalType": "bytes32",
          "name": "transferId",
          "type": "bytes32"
        }
      ],
      "name": "completeCrossChainTransfer",
      "outputs": [
        {
          "internalType": "bool",
          "name": "",
          "type": "bool"
        }
      ],
      "stateMutability": "nonpayable",
      "type": "function"
    },
    {
      "inputs": [
        {
          "internalType": "bytes32",
          "name": "",
          "type": "bytes32"
        }
      ],
      "name": "crossChainTransfers",
      "outputs": [
        {
          "internalType": "address",
          "name": "sender",
          "type": "address"
        },
        {
          "internalType": "address",
          "name": "recipient",
          "type": "address"
        },
        {
          "internalType": "uint256",
          "name": "tokenId",
          "type": "uint256"
        },
        {
          "internalType": "uint256",
          "name": "sourceChainId",
          "type": "uint256"
        },
        {
          "internalType": "uint256",
          "name": "destinationChainId",
          "type": "uint256"
        },
        {
          "internalType": "uint256",
          "name": "timestamp",
          "type": "uint256"
        },
        {
          "internalType": "bool",
          "name": "completed",
          "type": "bool"
        },
        {
          "internalType": "string",
          "name": "metadataUri",
          "type": "string"
        }
      ],
      "stateMutability": "view",
      "type": "function"
    },
    {
      "inputs": [
        {
          "internalType": "bytes32",
          "name": "transferId",
          "type": "bytes32"
        }
      ],
      "name": "getCrossChainTransfer",
      "outputs": [
        {
          "internalType": "address",
          "name": "sender",
          "type": "address"
        },
        {
          "internalType": "address",
          "name": "recipient",
          "type": "address"
        },
        {
          "internalType": "uint256",
          "name": "tokenId",
          "type": "uint256"
        },
        {
          "internalType": "uint256",
          "name": "sourceChainId",
          "type": "uint256"
        },
        {
          "internalType": "uint256",
          "name": "destinationChainId",
          "type": "uint256"
        },
        {
          "internalType": "uint256",
          "name": "timestamp",
          "type": "uint256"
        },
        {
          "internalType": "bool",
          "name": "completed",
          "type": "bool"
        },
        {
          "internalType": "string",
          "name": "metadataUri",
          "type": "string"
        }
      ],
      "stateMutability": "view",
      "type": "function"
    },
    {
      "inputs": [],
      "name": "getRegisteredChains",
      "outputs": [
        {
          "internalType": "uint256[]",
          "name": "",
          "type": "uint256[]"
        }
      ],
      "stateMutability": "view",
      "type": "function"
    },
    {
      "inputs": [
        {
          "internalType": "uint256",
          "name": "tokenId",
          "type": "uint256"
        },
        {
          "internalType": "address",
          "name": "validator",
          "type": "address"
        }
      ],
      "name": "getValidationStatus",
      "outputs": [
        {
          "internalType": "bool",
          "name": "isValidated",
          "type": "bool"
        },
        {
          "internalType": "uint256",
          "name": "validationTime",
          "type": "uint256"
        },
        {
          "internalType": "string",
          "name": "locationUri",
          "type": "string"
        },
        {
          "internalType": "string",
          "name": "locationHash",
          "type": "string"
        },
        {
          "internalType": "bool",
          "name": "isRevoked",
          "type": "bool"
        }
      ],
      "stateMutability": "view",
      "type": "function"
    },
    {
      "inputs": [
        {
          "internalType": "uint256",
          "name": "tokenId",
          "type": "uint256"
        },
        {
          "internalType": "address",
          "name": "recipient",
          "type": "address"
        },
        {
          "internalType": "uint256",
          "name": "destinationChainId",
          "type": "uint256"
        },
        {
          "internalType": "string",
          "name": "metadataUri",
          "type": "string"
        }
      ],
      "name": "initiateCrossChainTransfer",
      "outputs": [
        {
          "internalType": "bytes32",
          "name": "",
          "type": "bytes32"
        }
      ],
      "stateMutability": "nonpayable",
      "type": "function"
    },
    {
      "inputs": [
        {
          "internalType": "uint256",
          "name": "",
          "type": "uint256"
        }
      ],
      "name": "isChainRegistered",
      "outputs": [
        {
          "internalType": "bool",
          "name": "",
          "type": "bool"
        }
      ],
      "stateMutability": "view",
      "type": "function"
    },
    {
      "inputs": [
        {
          "internalType": "uint256",
          "name": "chainId",
          "type": "uint256"
        }
      ],
      "name": "isChainSupported",
      "outputs": [
        {
          "internalType": "bool",
          "name": "",
          "type": "bool"
        }
      ],
      "stateMutability": "view",
      "type": "function"
    },
    {
      "inputs": [
        {
          "internalType": "uint256",
          "name": "tokenId",
          "type": "uint256"
        }
      ],
      "name": "isTicketValidated",
      "outputs": [
        {
          "internalType": "bool",
          "name": "",
          "type": "bool"
        }
      ],
      "stateMutability": "view",
      "type": "function"
    },
    {
      "inputs": [],
      "name": "owner",
      "outputs": [
        {
          "internalType": "address",
          "name": "",
          "type": "address"
        }
      ],
      "stateMutability": "view",
      "type": "function"
    },
    {
      "inputs": [
        {
          "internalType": "uint256",
          "name": "chainId",
          "type": "uint256"
        }
      ],
      "name": "registerChain",
      "outputs": [],
      "stateMutability": "nonpayable",
      "type": "function"
    },
    {
      "inputs": [],
      "name": "renounceOwnership",
      "outputs": [],
      "stateMutability": "nonpayable",
      "type": "function"
    },
    {
      "inputs": [
        {
          "internalType": "uint256",
          "name": "tokenId",
          "type": "uint256"
        },
        {
          "internalType": "address",
          "name": "validator",
          "type": "address"
        }
      ],
      "name": "revokeValidation",
      "outputs": [
        {
          "internalType": "bool",
          "name": "",
          "type": "bool"
        }
      ],
      "stateMutability": "nonpayable",
      "type": "function"
    },
    {
      "inputs": [
        {
          "internalType": "uint256",
          "name": "",
          "type": "uint256"
        },
        {
          "internalType": "address",
          "name": "",
          "type": "address"
        }
      ],
      "name": "ticketValidations",
      "outputs": [
        {
          "internalType": "bool",
          "name": "isValidated",
          "type": "bool"
        },
        {
          "internalType": "uint256",
          "name": "validationTime",
          "type": "uint256"
        },
        {
          "internalType": "string",
          "name": "locationUri",
          "type": "string"
        },
        {
          "internalType": "string",
          "name": "locationHash",
          "type": "string"
        },
        {
          "internalType": "address",
          "name": "validator",
          "type": "address"
        },
        {
          "internalType": "bool",
          "name": "isRevoked",
          "type": "bool"
        }
      ],
      "stateMutability": "view",
      "type": "function"
    },
    {
      "inputs": [
        {
          "internalType": "address",
          "name": "newOwner",
          "type": "address"
        }
      ],
      "name": "transferOwnership",
      "outputs": [],
      "stateMutability": "nonpayable",
      "type": "function"
    },
    {
      "inputs": [
        {
          "internalType": "uint256",
          "name": "tokenId",
          "type": "uint256"
        },
        {
          "internalType": "address",
          "name": "ticketOwner",
          "type": "address"
        },
        {
          "internalType": "string",
          "name": "locationUri",
          "type": "string"
        },
        {
          "internalType": "string",
          "name": "locationHash",
          "type": "string"
        }
      ],
      "name": "validateTicket",
      "outputs": [
        {
          "internalType": "bool",
          "name": "",
          "type": "bool"
        }
      ],
      "stateMutability": "nonpayable",
      "type": "function"
    }
  ],
  "bytecode": "0x6080806040523461007a5733156100645760008054336001600160a01b03198216811783556040519290916001600160a01b0316907f8be0079c531659141344cd1fd0a4f28419497f9722a3daafe3b4186f6b6457e09080a36113e090816100808239f35b631e4fbdf760e01b815260006004820152602490fd5b600080fdfe6080604052600436101561001257600080fd5b60003560e01c8062f9832b14610fa757806306ec807c14610e9057806315da294414610dbb578063184cbf7714610d4e57806346d3b06414610c8b5780635221c1f01461027c57806365d645fe14610926578063715018a6146108df5780638da5cb5b146108b65780638e143c5b146107ff57806398cf5af61461071a5780639bf4ddca146102ad578063b9e064021461027c578063cb51060f1461020a578063f10d8c97146101465763f2fde38b146100cb57600080fd5b34610141576020366003190112610141576004356001600160a01b0381811691829003610141576100fa61135e565b8115610128576000548260018060a01b03198216176000551660008051602061138b833981519152600080a3005b604051631e4fbdf760e01b815260006004820152602490fd5b600080fd5b346101415760203660031901126101415760043561016261135e565b80600052600460205260ff604060002054161561017b57005b600354600160401b8110156101f4577f51f61861fc6e796ffd63c9c30190bb4a24477325376d9e326d507a75097f89e7916101be82600160209401600355611343565b81549060031b9083821b91600019901b191617905580600052600482526040600020600160ff19825416179055604051908152a1005b634e487b7160e01b600052604160045260246000fd5b34610141576020366003190112610141576004356000526002602052604060002060018060a01b036102788183541691600184015416926002810154906003810154600482015460058301549161026b600760ff6006870154169501611287565b9460405198899889611151565b0390f35b34610141576020366003190112610141576004356000526004602052602060ff604060002054166040519015158152f35b34610141576080366003190112610141576102c66110fb565b506044356001600160401b038111610141576102e69036906004016111f7565b6064356001600160401b038111610141576103059036906004016111f7565b600435600052600160205260406000203360005260205260ff604060002054166106c257600435600052600160205260406000203360005260205260ff60046040600020015460a01c166106845760405191610360836111b9565b60018352602083019142835260408401908282526060850152336080850152600060a085015260043560005260016020526040600020336000526020526040600020926103bc85511515859060ff801983541691151516179055565b5160018401555180519093906001600160401b0381116101f4576103e3600285015461124d565b601f811161063d575b506020601f82116001146105ce5781929394956000926105c3575b50508160011b916000199060031b1c19161760028401555b606081015180519093906001600160401b0381116101f457610444600383015461124d565b601f8111610578575b506020601f821160011461050757819060049495966000926104fc575b50508160011b916000199060031b1c19161760038201555b019060018060a01b0360808201511682549160a060ff811b910151151560a01b169160018060a81b0319161717905560405190602082527ff1f23c06761d856ec48f778b8fe5c244a42ee911d4ba2a0f41f82a9d45e20dc23392806104ee600435946020830190611111565b0390a3602060405160018152f35b01519050868061046a565b601f198216956003840160005260206000209660005b818110610560575091600495969791846001959410610547575b505050811b016003820155610482565b015160001960f88460031b161c19169055868080610537565b8383015189556001909801976020938401930161051d565b600383016000526020600020601f830160051c810191602084106105b9575b601f0160051c01905b8181106105ad575061044d565b600081556001016105a0565b9091508190610597565b015190508580610407565b6002850160005260206000209060005b601f1984168110610625575060019394959683601f1981161061060c575b505050811b01600284015561041f565b015160001960f88460031b161c191690558580806105fc565b9091602060018192858b0151815501930191016105de565b600285016000526020600020601f830160051c81016020841061067d575b601f830160051c820181106106715750506103ec565b6000815560010161065b565b508061065b565b60405162461bcd60e51b815260206004820152601660248201527515985b1a59185d1a5bdb881dd85cc81c995d9bdad95960521b6044820152606490fd5b60405162461bcd60e51b815260206004820152602a60248201527f5469636b657420616c72656164792076616c6964617465642062792074686973604482015269103b30b634b230ba37b960b11b6064820152608490fd5b34610141576040366003190112610141576107336110fb565b6004356000526001602052604060002060018060a01b038092166000526020526040600020604051610764816111b9565b60ff825416151581526107f5600183015492602083019384526107e760ff61078e60028401611287565b966040860197885260046107a460038601611287565b948560608901520154908116608087015260a01c161515938460a0820152511515945195516040519687968752602087015260a0604087015260a0860190611111565b908482036060860152611111565b9060808301520390f35b34610141576040366003190112610141576108186110fb565b6004356000526001602052604060002060018060a01b0380921660005260205260406000209060ff8254169060ff60018401549361089f61085b60028301611287565b91610891600461086d60038401611287565b9201549360405198899815158952602089015260c0604089015260c0880190611111565b908682036060880152611111565b928116608085015260a01c16151560a08301520390f35b34610141576000366003190112610141576000546040516001600160a01b039091168152602090f35b34610141576000366003190112610141576108f861135e565b600080546001600160a01b0319811682556001600160a01b031660008051602061138b8339815191528280a3005b34610141576080366003190112610141576004356109426110fb565b6064356001600160401b038111610141576109619036906004016111f7565b604435600052600460205260ff6040600020541615610c47576001600160a01b038216928315610c06576040519260208401908282523360601b604086015260018060601b03199060601b166054850152426068850152606884528360a081011060018060401b0360a0860111176101f45760a0840160405283519020926109eb60a0820161119d565b3360a082015260c081019485528160e082015246610100820152604435610120820152426101408201526000610160820152826101808201528360005260026020526101806007604060002060018060a01b0360a0850151169760018060a01b031998898354161782556001988983019160018060a01b039051169082541617905560e08401516002820155610100840151600382015561012084015160048201556101408401516005820155610ab86101608501511515600683019060ff801983541691151516179055565b0191015194855160018060401b0381116101f457610ad6835461124d565b601f8111610bbf575b506020968790601f8311600114610b5d57928293918392600094610b52575b50501b916000199060031b1c19161790555b827fb616f197ad9da927ab397f6ad3fa43efdaa2a65449f468952291bf7fba7bd03c60405186815280610b47339689830190611111565b0390a4604051908152f35b015192508980610afe565b90601f1983169185600052838a6000209360005b87828210610ba757505010610b8e575b505050811b019055610b10565b015160001960f88460031b161c19169055878080610b81565b84860151875590950194938c01938692508c01610b71565b836000526020600020601f830160051c81019160208410610bfc575b601f0160051c01905b818110610bf15750610adf565b600081558301610be4565b9091508190610bdb565b60405162461bcd60e51b8152602060048201526019602482015278496e76616c696420726563697069656e74206164647265737360381b6044820152606490fd5b606460405162461bcd60e51b815260206004820152602060248201527f44657374696e6174696f6e20636861696e206e6f7420726567697374657265646044820152fd5b346101415760203660031901126101415760043560005260026020526040600020604051610cb88161119d565b61027860018060a01b0391828454168152826001850154169260208201938452600285015494604083019586526003810154916060840192835260048201546080850190815260058301549160a0860192835280610d29600760ff6006880154169660c08a01971515885201611287565b968760e082015251169751169751935190519151925115159360405198899889611151565b3461014157602080600319360112610141576004358060005260018252604060002033600052825260ff604060002054169081610d91575b506040519015158152f35b905060005260018152604060002033600052815260ff60046040600020015460a01c161582610d86565b346101415760003660031901126101415760038054610dd98161132c565b610de660405191826111d4565b818152610df28261132c565b6020938285019391601f190136853760005b828110610e4f5750505090604051928392818401908285525180915260408401929160005b828110610e3857505050500390f35b835185528695509381019392810192600101610e29565b610e5881611343565b905490831b1c908451811015610e7a57600191878260051b8701015201610e04565b634e487b7160e01b600052603260045260246000fd5b3461014157602036600319011261014157600435610eac61135e565b806000526002602052604060002090600682019182549260ff8416610f655760048201544603610f2457600160209460ff19161790556002810154906001808060a01b039101541690604051927fcae03c7c47b6473eade83ec9f1bf4b597f2d5cbe32dee85a3f69034c4a915d67600080a460018152f35b60405162461bcd60e51b81526020600482015260196024820152782737ba103a3432903232b9ba34b730ba34b7b71031b430b4b760391b6044820152606490fd5b60405162461bcd60e51b815260206004820152601a602482015279151c985b9cd9995c88185b1c9958591e4818dbdb5c1b195d195960321b6044820152606490fd5b3461014157604036600319011261014157600435610fc36110fb565b90610fcc61135e565b806000526020916001835260406000209060018060a01b03169081600052835260ff60406000205416156110bc578160005260018352604060002081600052835260ff60046040600020015460a01c1661107a576000828152600184526040808220928252918452818120600401805460ff60a01b1916600160a01b17905590519133917fb1117ab05887dbe51f8d198bc96adbf2e64480e1df8cd9452463e7a6c8da867e9080a360018152f35b60405162461bcd60e51b815260048101849052601a60248201527915985b1a59185d1a5bdb88185b1c9958591e481c995d9bdad95960321b6044820152606490fd5b60405162461bcd60e51b81526004810184905260176024820152764e6f2076616c69646174696f6e20746f207265766f6b6560481b6044820152606490fd5b602435906001600160a01b038216820361014157565b919082519283825260005b84811061113d575050826000602080949584010152601f8019910116010190565b60208183018101518483018201520161111c565b9491959261119a989794916101009760018060a01b03809216885216602087015260408601526060850152608084015260a0830152151560c08201528160e08201520190611111565b90565b61010081019081106001600160401b038211176101f457604052565b60c081019081106001600160401b038211176101f457604052565b601f909101601f19168101906001600160401b038211908210176101f457604052565b81601f82011215610141578035906001600160401b0382116101f4576040519261122b601f8401601f1916602001856111d4565b8284526020838301011161014157816000926020809301838601378301015290565b90600182811c9216801561127d575b602083101461126757565b634e487b7160e01b600052602260045260246000fd5b91607f169161125c565b9060405191826000825461129a8161124d565b9081845260209460019160018116908160001461130a57506001146112cb575b5050506112c9925003836111d4565b565b600090815285812095935091905b8183106112f25750506112c993508201013880806112ba565b855488840185015294850194879450918301916112d9565b925050506112c994925060ff191682840152151560051b8201013880806112ba565b6001600160401b0381116101f45760051b60200190565b600354811015610e7a57600360005260206000200190600090565b6000546001600160a01b0316330361137257565b60405163118cdaa760e01b8152336004820152602490fdfe8be0079c531659141344cd1fd0a4f28419497f9722a3daafe3b4186f6b6457e0a2646970667358221220e5e1f62d00ad77141190ac006a24f3eb425ac5c7bd2a1ad258efdfba21dff93264736f6c63430008160033",
  "linkReferences": {},
  "deployedLinkReferences": {}
}