{
  "_format": "hh-sol-artifact-1",
  "contractName": "UniversalEventTicket",
  "sourceName": "contracts/EventTicket.sol",
  "abi": [
    {
      "inputs": [
        {
          "internalType": "uint256",
          "name": "_totalSupply",
          "type": "uint256"
        },
        {
          "internalType": "uint256",
          "name": "_ticketPrice",
          "type": "uint256"
        },
        {
          "internalType": "string",
          "name": "_nftName",
          "type": "string"
        },
        {
          "internalType": "string",
          "name": "_nftSymbol",
          "type": "string"
        },
        {
          "internalType": "string",
          "name": "_eventName",
          "type": "string"
        },
        {
          "internalType": "uint256",
          "name": "_eventDate",
          "type": "uint256"
        },
        {
          "internalType": "string",
          "name": "_eventVenue",
          "type": "string"
        },
        {
          "internalType": "string",
          "name": "_metadataUri",
          "type": "string"
        },
        {
          "internalType": "string",
          "name": "_contentHash",
          "type": "string"
        }
      ],
      "stateMutability": "nonpayable",
      "type": "constructor"
    },
    {
      "inputs": [],
      "name": "ERC721EnumerableForbiddenBatchMint",
      "type": "error"
    },
    {
      "inputs": [
        {
          "internalType": "address",
          "name": "sender",
          "type": "address"
        },
        {
          "internalType": "uint256",
          "name": "tokenId",
          "type": "uint256"
        },
        {
          "internalType": "address",
          "name": "owner",
          "type": "address"
        }
      ],
      "name": "ERC721IncorrectOwner",
      "type": "error"
    },
    {
      "inputs": [
        {
          "internalType": "address",
          "name": "operator",
          "type": "address"
        },
        {
          "internalType": "uint256",
          "name": "tokenId",
          "type": "uint256"
        }
      ],
      "name": "ERC721InsufficientApproval",
      "type": "error"
    },
    {
      "inputs": [
        {
          "internalType": "address",
          "name": "approver",
          "type": "address"
        }
      ],
      "name": "ERC721InvalidApprover",
      "type": "error"
    },
    {
      "inputs": [
        {
          "internalType": "address",
          "name": "operator",
          "type": "address"
        }
      ],
      "name": "ERC721InvalidOperator",
      "type": "error"
    },
    {
      "inputs": [
        {
          "internalType": "address",
          "name": "owner",
          "type": "address"
        }
      ],
      "name": "ERC721InvalidOwner",
      "type": "error"
    },
    {
      "inputs": [
        {
          "internalType": "address",
          "name": "receiver",
          "type": "address"
        }
      ],
      "name": "ERC721InvalidReceiver",
      "type": "error"
    },
    {
      "inputs": [
        {
          "internalType": "address",
          "name": "sender",
          "type": "address"
        }
      ],
      "name": "ERC721InvalidSender",
      "type": "error"
    },
    {
      "inputs": [
        {
          "internalType": "uint256",
          "name": "tokenId",
          "type": "uint256"
        }
      ],
      "name": "ERC721NonexistentToken",
      "type": "error"
    },
    {
      "inputs": [
        {
          "internalType": "address",
          "name": "owner",
          "type": "address"
        },
        {
          "internalType": "uint256",
          "name": "index",
          "type": "uint256"
        }
      ],
      "name": "ERC721OutOfBoundsIndex",
      "type": "error"
    },
    {
      "inputs": [
        {
          "internalType": "address",
          "name": "owner",
          "type": "address"
        }
      ],
      "name": "OwnableInvalidOwner",
      "type": "error"
    },
    {
      "inputs": [
        {
          "internalType": "address",
          "name": "account",
          "type": "address"
        }
      ],
      "name": "OwnableUnauthorizedAccount",
      "type": "error"
    },
    {
      "anonymous": false,
      "inputs": [
        {
          "indexed": true,
          "internalType": "address",
          "name": "owner",
          "type": "address"
        },
        {
          "indexed": true,
          "internalType": "address",
          "name": "approved",
          "type": "address"
        },
        {
          "indexed": true,
          "internalType": "uint256",
          "name": "tokenId",
          "type": "uint256"
        }
      ],
      "name": "Approval",
      "type": "event"
    },
    {
      "anonymous": false,
      "inputs": [
        {
          "indexed": true,
          "internalType": "address",
          "name": "owner",
          "type": "address"
        },
        {
          "indexed": true,
          "internalType": "address",
          "name": "operator",
          "type": "address"
        },
        {
          "indexed": false,
          "internalType": "bool",
          "name": "approved",
          "type": "bool"
        }
      ],
      "name": "ApprovalForAll",
      "type": "event"
    },
    {
      "anonymous": false,
      "inputs": [],
      "name": "EventCancelled",
      "type": "event"
    },
    {
      "anonymous": false,
      "inputs": [
        {
          "indexed": false,
          "internalType": "uint256",
          "name": "oldDate",
          "type": "uint256"
        },
        {
          "indexed": false,
          "internalType": "uint256",
          "name": "newDate",
          "type": "uint256"
        }
      ],
      "name": "EventRescheduled",
      "type": "event"
    },
    {
      "anonymous": false,
      "inputs": [
        {
          "indexed": false,
          "internalType": "string",
          "name": "newUri",
          "type": "string"
        },
        {
          "indexed": false,
          "internalType": "string",
          "name": "newHash",
          "type": "string"
        }
      ],
      "name": "MetadataUpdated",
      "type": "event"
    },
    {
      "anonymous": false,
      "inputs": [
        {
          "indexed": true,
          "internalType": "address",
          "name": "previousOwner",
          "type": "address"
        },
        {
          "indexed": true,
          "internalType": "address",
          "name": "newOwner",
          "type": "address"
        }
      ],
      "name": "OwnershipTransferred",
      "type": "event"
    },
    {
      "anonymous": false,
      "inputs": [
        {
          "indexed": true,
          "internalType": "address",
          "name": "user",
          "type": "address"
        },
        {
          "indexed": true,
          "internalType": "uint256",
          "name": "tokenId",
          "type": "uint256"
        }
      ],
      "name": "TicketUsed",
      "type": "event"
    },
    {
      "anonymous": false,
      "inputs": [
        {
          "indexed": true,
          "internalType": "address",
          "name": "from",
          "type": "address"
        },
        {
          "indexed": true,
          "internalType": "address",
          "name": "to",
          "type": "address"
        },
        {
          "indexed": true,
          "internalType": "uint256",
          "name": "tokenId",
          "type": "uint256"
        }
      ],
      "name": "Transfer",
      "type": "event"
    },
    {
      "inputs": [
        {
          "internalType": "address",
          "name": "account",
          "type": "address"
        }
      ],
      "name": "addUniversalAccount",
      "outputs": [],
      "stateMutability": "nonpayable",
      "type": "function"
    },
    {
      "inputs": [
        {
          "internalType": "address",
          "name": "to",
          "type": "address"
        },
        {
          "internalType": "uint256",
          "name": "tokenId",
          "type": "uint256"
        }
      ],
      "name": "approve",
      "outputs": [],
      "stateMutability": "nonpayable",
      "type": "function"
    },
    {
      "inputs": [
        {
          "internalType": "address",
          "name": "owner",
          "type": "address"
        }
      ],
      "name": "balanceOf",
      "outputs": [
        {
          "internalType": "uint256",
          "name": "",
          "type": "uint256"
        }
      ],
      "stateMutability": "view",
      "type": "function"
    },
    {
      "inputs": [],
      "name": "cancelEvent",
      "outputs": [],
      "stateMutability": "nonpayable",
      "type": "function"
    },
    {
      "inputs": [],
      "name": "contentHash",
      "outputs": [
        {
          "internalType": "string",
          "name": "",
          "type": "string"
        }
      ],
      "stateMutability": "view",
      "type": "function"
    },
    {
      "inputs": [],
      "name": "eventCancelled",
      "outputs": [
        {
          "internalType": "bool",
          "name": "",
          "type": "bool"
        }
      ],
      "stateMutability": "view",
      "type": "function"
    },
    {
      "inputs": [],
      "name": "eventDate",
      "outputs": [
        {
          "internalType": "uint256",
          "name": "",
          "type": "uint256"
        }
      ],
      "stateMutability": "view",
      "type": "function"
    },
    {
      "inputs": [],
      "name": "eventId",
      "outputs": [
        {
          "internalType": "uint256",
          "name": "",
          "type": "uint256"
        }
      ],
      "stateMutability": "view",
      "type": "function"
    },
    {
      "inputs": [],
      "name": "eventName",
      "outputs": [
        {
          "internalType": "string",
          "name": "",
          "type": "string"
        }
      ],
      "stateMutability": "view",
      "type": "function"
    },
    {
      "inputs": [],
      "name": "eventVenue",
      "outputs": [
        {
          "internalType": "string",
          "name": "",
          "type": "string"
        }
      ],
      "stateMutability": "view",
      "type": "function"
    },
    {
      "inputs": [
        {
          "internalType": "uint256",
          "name": "tokenId",
          "type": "uint256"
        }
      ],
      "name": "getApproved",
      "outputs": [
        {
          "internalType": "address",
          "name": "",
          "type": "address"
        }
      ],
      "stateMutability": "view",
      "type": "function"
    },
    {
      "inputs": [],
      "name": "getEventStatus",
      "outputs": [
        {
          "internalType": "enum UniversalEventTicket.EventStatus",
          "name": "",
          "type": "uint8"
        }
      ],
      "stateMutability": "view",
      "type": "function"
    },
    {
      "inputs": [],
      "name": "getTicketsRemaining",
      "outputs": [
        {
          "internalType": "uint256",
          "name": "",
          "type": "uint256"
        }
      ],
      "stateMutability": "view",
      "type": "function"
    },
    {
      "inputs": [
        {
          "internalType": "address",
          "name": "owner",
          "type": "address"
        },
        {
          "internalType": "address",
          "name": "operator",
          "type": "address"
        }
      ],
      "name": "isApprovedForAll",
      "outputs": [
        {
          "internalType": "bool",
          "name": "",
          "type": "bool"
        }
      ],
      "stateMutability": "view",
      "type": "function"
    },
    {
      "inputs": [
        {
          "internalType": "uint256",
          "name": "tokenId",
          "type": "uint256"
        }
      ],
      "name": "isTicketUsed",
      "outputs": [
        {
          "internalType": "bool",
          "name": "",
          "type": "bool"
        }
      ],
      "stateMutability": "view",
      "type": "function"
    },
    {
      "inputs": [],
      "name": "maxSupply",
      "outputs": [
        {
          "internalType": "uint256",
          "name": "",
          "type": "uint256"
        }
      ],
      "stateMutability": "view",
      "type": "function"
    },
    {
      "inputs": [],
      "name": "metadataUri",
      "outputs": [
        {
          "internalType": "string",
          "name": "",
          "type": "string"
        }
      ],
      "stateMutability": "view",
      "type": "function"
    },
    {
      "inputs": [],
      "name": "mintTicket",
      "outputs": [
        {
          "internalType": "uint256",
          "name": "",
          "type": "uint256"
        }
      ],
      "stateMutability": "payable",
      "type": "function"
    },
    {
      "inputs": [],
      "name": "name",
      "outputs": [
        {
          "internalType": "string",
          "name": "",
          "type": "string"
        }
      ],
      "stateMutability": "view",
      "type": "function"
    },
    {
      "inputs": [],
      "name": "organizer",
      "outputs": [
        {
          "internalType": "address",
          "name": "",
          "type": "address"
        }
      ],
      "stateMutability": "view",
      "type": "function"
    },
    {
      "inputs": [],
      "name": "owner",
      "outputs": [
        {
          "internalType": "address",
          "name": "",
          "type": "address"
        }
      ],
      "stateMutability": "view",
      "type": "function"
    },
    {
      "inputs": [
        {
          "internalType": "uint256",
          "name": "tokenId",
          "type": "uint256"
        }
      ],
      "name": "ownerOf",
      "outputs": [
        {
          "internalType": "address",
          "name": "",
          "type": "address"
        }
      ],
      "stateMutability": "view",
      "type": "function"
    },
    {
      "inputs": [],
      "name": "platformContract",
      "outputs": [
        {
          "internalType": "address",
          "name": "",
          "type": "address"
        }
      ],
      "stateMutability": "view",
      "type": "function"
    },
    {
      "inputs": [],
      "name": "refundDeadline",
      "outputs": [
        {
          "internalType": "uint256",
          "name": "",
          "type": "uint256"
        }
      ],
      "stateMutability": "view",
      "type": "function"
    },
    {
      "inputs": [
        {
          "internalType": "uint256",
          "name": "tokenId",
          "type": "uint256"
        }
      ],
      "name": "refundTicket",
      "outputs": [],
      "stateMutability": "nonpayable",
      "type": "function"
    },
    {
      "inputs": [
        {
          "internalType": "address",
          "name": "account",
          "type": "address"
        }
      ],
      "name": "removeUniversalAccount",
      "outputs": [],
      "stateMutability": "nonpayable",
      "type": "function"
    },
    {
      "inputs": [],
      "name": "renounceOwnership",
      "outputs": [],
      "stateMutability": "nonpayable",
      "type": "function"
    },
    {
      "inputs": [
        {
          "internalType": "uint256",
          "name": "",
          "type": "uint256"
        },
        {
          "internalType": "uint256",
          "name": "salePrice",
          "type": "uint256"
        }
      ],
      "name": "royaltyInfo",
      "outputs": [
        {
          "internalType": "address",
          "name": "receiver",
          "type": "address"
        },
        {
          "internalType": "uint256",
          "name": "royaltyAmount",
          "type": "uint256"
        }
      ],
      "stateMutability": "view",
      "type": "function"
    },
    {
      "inputs": [],
      "name": "royaltyPercent",
      "outputs": [
        {
          "internalType": "uint96",
          "name": "",
          "type": "uint96"
        }
      ],
      "stateMutability": "view",
      "type": "function"
    },
    {
      "inputs": [
        {
          "internalType": "address",
          "name": "from",
          "type": "address"
        },
        {
          "internalType": "address",
          "name": "to",
          "type": "address"
        },
        {
          "internalType": "uint256",
          "name": "tokenId",
          "type": "uint256"
        }
      ],
      "name": "safeTransferFrom",
      "outputs": [],
      "stateMutability": "nonpayable",
      "type": "function"
    },
    {
      "inputs": [
        {
          "internalType": "address",
          "name": "from",
          "type": "address"
        },
        {
          "internalType": "address",
          "name": "to",
          "type": "address"
        },
        {
          "internalType": "uint256",
          "name": "tokenId",
          "type": "uint256"
        },
        {
          "internalType": "bytes",
          "name": "data",
          "type": "bytes"
        }
      ],
      "name": "safeTransferFrom",
      "outputs": [],
      "stateMutability": "nonpayable",
      "type": "function"
    },
    {
      "inputs": [
        {
          "internalType": "address",
          "name": "operator",
          "type": "address"
        },
        {
          "internalType": "bool",
          "name": "approved",
          "type": "bool"
        }
      ],
      "name": "setApprovalForAll",
      "outputs": [],
      "stateMutability": "nonpayable",
      "type": "function"
    },
    {
      "inputs": [
        {
          "internalType": "address",
          "name": "_platform",
          "type": "address"
        },
        {
          "internalType": "uint256",
          "name": "_eventId",
          "type": "uint256"
        }
      ],
      "name": "setPlatformContract",
      "outputs": [],
      "stateMutability": "nonpayable",
      "type": "function"
    },
    {
      "inputs": [
        {
          "internalType": "uint96",
          "name": "_percent",
          "type": "uint96"
        }
      ],
      "name": "setRoyaltyPercent",
      "outputs": [],
      "stateMutability": "nonpayable",
      "type": "function"
    },
    {
      "inputs": [
        {
          "internalType": "bytes4",
          "name": "interfaceId",
          "type": "bytes4"
        }
      ],
      "name": "supportsInterface",
      "outputs": [
        {
          "internalType": "bool",
          "name": "",
          "type": "bool"
        }
      ],
      "stateMutability": "view",
      "type": "function"
    },
    {
      "inputs": [],
      "name": "symbol",
      "outputs": [
        {
          "internalType": "string",
          "name": "",
          "type": "string"
        }
      ],
      "stateMutability": "view",
      "type": "function"
    },
    {
      "inputs": [],
      "name": "ticketPrice",
      "outputs": [
        {
          "internalType": "uint256",
          "name": "",
          "type": "uint256"
        }
      ],
      "stateMutability": "view",
      "type": "function"
    },
    {
      "inputs": [
        {
          "internalType": "uint256",
          "name": "index",
          "type": "uint256"
        }
      ],
      "name": "tokenByIndex",
      "outputs": [
        {
          "internalType": "uint256",
          "name": "",
          "type": "uint256"
        }
      ],
      "stateMutability": "view",
      "type": "function"
    },
    {
      "inputs": [
        {
          "internalType": "address",
          "name": "owner",
          "type": "address"
        },
        {
          "internalType": "uint256",
          "name": "index",
          "type": "uint256"
        }
      ],
      "name": "tokenOfOwnerByIndex",
      "outputs": [
        {
          "internalType": "uint256",
          "name": "",
          "type": "uint256"
        }
      ],
      "stateMutability": "view",
      "type": "function"
    },
    {
      "inputs": [
        {
          "internalType": "uint256",
          "name": "tokenId",
          "type": "uint256"
        }
      ],
      "name": "tokenURI",
      "outputs": [
        {
          "internalType": "string",
          "name": "",
          "type": "string"
        }
      ],
      "stateMutability": "view",
      "type": "function"
    },
    {
      "inputs": [],
      "name": "totalSupply",
      "outputs": [
        {
          "internalType": "uint256",
          "name": "",
          "type": "uint256"
        }
      ],
      "stateMutability": "view",
      "type": "function"
    },
    {
      "inputs": [
        {
          "internalType": "address",
          "name": "from",
          "type": "address"
        },
        {
          "internalType": "address",
          "name": "to",
          "type": "address"
        },
        {
          "internalType": "uint256",
          "name": "tokenId",
          "type": "uint256"
        }
      ],
      "name": "transferFrom",
      "outputs": [],
      "stateMutability": "nonpayable",
      "type": "function"
    },
    {
      "inputs": [
        {
          "internalType": "address",
          "name": "newOwner",
          "type": "address"
        }
      ],
      "name": "transferOwnership",
      "outputs": [],
      "stateMutability": "nonpayable",
      "type": "function"
    },
    {
      "inputs": [
        {
          "internalType": "address",
          "name": "",
          "type": "address"
        }
      ],
      "name": "universalAccountWhitelist",
      "outputs": [
        {
          "internalType": "bool",
          "name": "",
          "type": "bool"
        }
      ],
      "stateMutability": "view",
      "type": "function"
    },
    {
      "inputs": [
        {
          "internalType": "uint256",
          "name": "_newDate",
          "type": "uint256"
        }
      ],
      "name": "updateEventDate",
      "outputs": [],
      "stateMutability": "nonpayable",
      "type": "function"
    },
    {
      "inputs": [
        {
          "internalType": "string",
          "name": "_name",
          "type": "string"
        }
      ],
      "name": "updateEventName",
      "outputs": [],
      "stateMutability": "nonpayable",
      "type": "function"
    },
    {
      "inputs": [
        {
          "internalType": "string",
          "name": "_venue",
          "type": "string"
        }
      ],
      "name": "updateEventVenue",
      "outputs": [],
      "stateMutability": "nonpayable",
      "type": "function"
    },
    {
      "inputs": [
        {
          "internalType": "string",
          "name": "_uri",
          "type": "string"
        },
        {
          "internalType": "string",
          "name": "_hash",
          "type": "string"
        }
      ],
      "name": "updateMetadataUri",
      "outputs": [],
      "stateMutability": "nonpayable",
      "type": "function"
    },
    {
      "inputs": [
        {
          "internalType": "uint256",
          "name": "tokenId",
          "type": "uint256"
        }
      ],
      "name": "useTicket",
      "outputs": [],
      "stateMutability": "nonpayable",
      "type": "function"
    },
    {
      "inputs": [
        {
          "internalType": "uint256",
          "name": "",
          "type": "uint256"
        }
      ],
      "name": "used",
      "outputs": [
        {
          "internalType": "bool",
          "name": "",
          "type": "bool"
        }
      ],
      "stateMutability": "view",
      "type": "function"
    }
  ],
  "bytecode": "0x60806040523462000a4b5762003d52803803806200001d8162000a50565b92833981016101208282031262000a4b578151602083015160408401519091906001600160401b03811162000a4b57836200005a91860162000a76565b60608501519092906001600160401b03811162000a4b57846200007f91870162000a76565b60808601519091906001600160401b03811162000a4b5785620000a491880162000a76565b9060a08701519260c088015160018060401b03811162000a4b5787620000cc918a0162000a76565b60e08901519098906001600160401b03811162000a4b5788620000f191830162000a76565b6101008201519098906001600160401b03811162000a4b5762000115920162000a76565b865190966001600160401b038211620005435760005490600182811c9216801562000a40575b6020831014620005225781601f849311620009dd575b50602090601f8311600114620009615760009262000955575b50508160011b916000199060031b1c1916176000555b8051906001600160401b038211620005435760015490600182811c921680156200094a575b6020831014620005225781601f849311620008e6575b50602090601f83116001146200086c5760009262000860575b50508160011b916000199060031b1c1916176001555b33156200084757600a80546001600160a01b0319808216339081179093559591906001600160a01b03167f8be0079c531659141344cd1fd0a4f28419497f9722a3daafe3b4186f6b6457e0600080a36013556014558051906001600160401b038211620005435760105490600182811c921680156200083c575b6020831014620005225781601f849311620007d8575b50602090601f83116001146200075e5760009262000752575b50508160011b916000199060031b1c1916176010555b60115583516001600160401b0381116200054357601254600181811c9116801562000747575b60208210146200052257601f8111620006dd575b50602094601f8211600114620006705794819293949560009262000664575b50508160011b916000199060031b1c1916176012555b82516001600160401b0381116200054357601854600181811c9116801562000659575b60208210146200052257601f8111620005ef575b506020601f821160011462000565578192939460009262000559575b50508160011b916000199060031b1c1916176018555b81516001600160401b0381116200054357601954600181811c9116801562000538575b60208210146200052257601f8111620004b8575b50602092601f82116001146200044d579281929360009262000441575b50508160011b916000199060031b1c1916176019555b62278d0042018042116200042b57601755601a80546001600160601b0319166101f4179055600d805490911633179055604051613209908162000ae98239f35b634e487b7160e01b600052601160045260246000fd5b015190503880620003d5565b601f19821693601960005260206000209160005b8681106200049f575083600195961062000485575b505050811b01601955620003eb565b015160001960f88460031b161c1916905538808062000476565b9192602060018192868501518155019401920162000461565b60196000527f944998273e477b495144fb8794c914197f3ccb46be2900f4698fd0ef743c9695601f830160051c8101916020841062000517575b601f0160051c01905b8181106200050a5750620003b8565b60008155600101620004fb565b9091508190620004f2565b634e487b7160e01b600052602260045260246000fd5b90607f1690620003a4565b634e487b7160e01b600052604160045260246000fd5b0151905038806200036b565b601860009081527fb13d2d76d1f4b7be834882e410b3e3a8afaf69f83600ae24db354391d2378d2e9190601f198416905b818110620005d657509583600195969710620005bc575b505050811b0160185562000381565b015160001960f88460031b161c19169055388080620005ad565b9192602060018192868b01518155019401920162000596565b60186000527fb13d2d76d1f4b7be834882e410b3e3a8afaf69f83600ae24db354391d2378d2e601f830160051c810191602084106200064e575b601f0160051c01905b8181106200064157506200034f565b6000815560010162000632565b909150819062000629565b90607f16906200033b565b01519050388062000302565b601f19821695601260005260206000209160005b888110620006c457508360019596979810620006aa575b505050811b0160125562000318565b015160001960f88460031b161c191690553880806200069b565b9192602060018192868501518155019401920162000684565b60126000527fbb8a6a4669ba250d26cd7a459eca9d215f8307e33aebe50379bc5a3617ec3444601f830160051c810191602084106200073c575b601f0160051c01905b8181106200072f5750620002e3565b6000815560010162000720565b909150819062000717565b90607f1690620002cf565b01519050388062000293565b6010600090815260008051602062003d328339815191529350601f198516905b818110620007bf5750908460019594939210620007a5575b505050811b01601055620002a9565b015160001960f88460031b161c1916905538808062000796565b929360206001819287860151815501950193016200077e565b601060005290915060008051602062003d32833981519152601f840160051c8101916020851062000831575b90601f859493920160051c01905b8181106200082157506200027a565b6000815584935060010162000812565b909150819062000804565b91607f169162000264565b604051631e4fbdf760e01b815260006004820152602490fd5b015190503880620001d4565b6001600090815260008051602062003d128339815191529350601f198516905b818110620008cd5750908460019594939210620008b3575b505050811b01600155620001ea565b015160001960f88460031b161c19169055388080620008a4565b929360206001819287860151815501950193016200088c565b600160005290915060008051602062003d12833981519152601f840160051c810191602085106200093f575b90601f859493920160051c01905b8181106200092f5750620001bb565b6000815584935060010162000920565b909150819062000912565b91607f1691620001a5565b0151905038806200016a565b6000808052935060008051602062003cf283398151915291905b601f1984168510620009c1576001945083601f19811610620009a7575b505050811b0160005562000180565b015160001960f88460031b161c1916905538808062000998565b818101518355602094850194600190930192909101906200097b565b6000805290915060008051602062003cf2833981519152601f840160051c8101916020851062000a35575b90601f859493920160051c01905b81811062000a25575062000151565b6000815584935060010162000a16565b909150819062000a08565b91607f16916200013b565b600080fd5b6040519190601f01601f191682016001600160401b038111838210176200054357604052565b919080601f8401121562000a4b5782516001600160401b038111620005435760209062000aac601f8201601f1916830162000a50565b9281845282828701011162000a4b5760005b81811062000ad457508260009394955001015290565b858101830151848201840152820162000abe56fe60806040908082526004918236101561001757600080fd5b600091823560e01c90816301ffc9a71461278957508063020fe6e51461205557806305ccfd331461264d57806306fdde0314612592578063081812fc14612556578063089cdd0c14612538578063095ea7b31461245b5780631209b1f61461243d578063162746951461241557806318160ddd146123f757806323b872dd146123df57806326606448146120e95780632a55205a146120825780632cd1d35c146120555780632f745c5914611fde57806334410c4814611e8e57806342842e0e14611e605780634bc46a8214611dbd5780634bfbe5df14611d9f5780634e4febb414611af55780634f6ccce714611a9d578063573c80fa146112b5578063612032651461128d5780636352211e1461125c5780636454567314611208578063646c2e331461117057806370a082311461114b578063715018a6146110ff5780637577410014610d9157806377a4d55914610d615780638043c9c014610cc95780638da5cb5b14610ca1578063954ebb3c14610c6257806395d89b4114610bc85780639f67756d14610ba0578063a0e1870514610b11578063a22cb46514610a6d578063b075c4ee14610a30578063b75b25ec146109f1578063b88d4fde1461097f578063c87b56dd14610773578063d01091a414610731578063d5abeb0114610713578063da649e6b146106e9578063e1a494d1146106c6578063e1aa1bcc146106a8578063e22bda35146105da578063e985e9c51461058b578063f2fde38b146105125763fb6c95371461024b57600080fd5b3461050e5760031990828236011261050a57610265612f84565b6015549160ff83166104cd576001809360ff1916176015557fc423524f667a9459893f10159c8a95981a43fb77edd414f6325d8439604ad4188480a1600b546001600160a01b0390811690816102b9578580f35b600f546102c581612f6d565b956102d28651978861286d565b818752886102df83612f6d565b602095898701948792601f19013687378b5b81811061048a5750508851630cf3be5160e21b815292839182905afa908115610480579084918a91610453575b501698865193610379602b86610335898201612e30565b7f20686173206265656e2063616e63656c6c65642e20526566756e64732061726581526a1030bb30b4b630b136329760a91b8a82015203600b81018852018661286d565b8a3b1561044f579190875198630693d0b560e31b8a52608060848b01928b01525180915260a4890193928a905b82821061043857505050505084869464115591539560da1b899a956103ff88968c9a87603c8a8e9a0388810160248d0152600f83526e115d995b9d0810d85b98d95b1b1959608a1b878401520160448b01520190612928565b868103938401606488015260058152015201925af1610421575b808080808580f35b61042a90612829565b610435578038610419565b80fd5b8451811686529487019493870193908301906103a6565b8980fd5b6104739150863d8811610479575b61046b818361286d565b810190612e11565b3861031e565b503d610461565b87513d8b823e3d90fd5b919350915061049881612fb0565b8a518210156104ba579086859216888260051b8d010152019186918c936102f1565b634e487b7160e01b8c5260328d5260248cfd5b815162461bcd60e51b81526020818701526017602482015276115d995b9d08185b1c9958591e4818d85b98d95b1b1959604a1b6044820152606490fd5b8280fd5b5080fd5b50823461050a57602036600319011261050a5761052d61294d565b90610536612f84565b6001600160a01b03918216928315610575575050600a80546001600160a01b03198116841790915516600080516020613194833981519152600080a380f35b51631e4fbdf760e01b8152908101849052602490fd5b503461050e578060031936011261050e576020916105a761294d565b826105b0612963565b9260018060a01b03809316815260058652209116600052825260ff81600020541690519015158152f35b5090346104355780600319360112610435575080516012549091826000610600846129c9565b80835260209460019086600182169182600014610686575050600114610646575b5050610642929161063391038561286d565b51928284938452830190612928565b0390f35b90859250601260005282600020916000925b82841061066e5750505082010181610633610621565b8054848a018601528895508794909301928101610658565b60ff19168682015292151560051b850190920192508391506106339050610621565b503461050e578160031936011261050e576020906017549051908152f35b503461050e578160031936011261050e5760209060ff6015541690519015158152f35b503461050e578160031936011261050e5760209061070c601354600f5490612f4a565b9051908152f35b503461050e578160031936011261050e576020906013549051908152f35b503461050e57602036600319011261050e5761074b61294d565b610753612f84565b6001600160a01b03168252600e6020528120805460ff1916600117905580f35b50823461050a576020908160031936011261097b57819293813561079681612fb0565b5061079f612a03565b80519093901561095f57829190819072184f03e93ff9f4daa797ed6e38ed64bf6a1f0160401b8281811015610952575b508790506904ee2d6d415b85acef8160201b80851015610944575b5050662386f26fc1000080841015610935575b506305f5e10080841015610926575b5061271080841015610918575b50506064821015610908575b600a809210156108fe575b60219088936001928161085e600186940161085661084d82612890565b9951998a61286d565b808952612890565b878b019890601f1901368a3750860101905b6108c8575b50505050926108ac926108b892610642958851958361089d8895518092888089019101612905565b84019151809386840190612905565b0103808452018261286d565b9251928284938452830190612928565b600019019083906f181899199a1a9b1b9c1cb0b131b232b360811b8282061a8353049182156108f957919082610870565b610875565b9160010191610830565b9190606460029104910191610825565b930192909104908880610819565b6008919493049201928961080c565b601091949304920192896107fd565b94019390920491868a6107ea565b8a955004925089806107cf565b505084516106429350915061097382612852565b815292610633565b8380fd5b82843461050e57608036600319011261050e5761099a61294d565b6109a2612963565b604435906064356001600160401b0381116109ed57366023820112156109ed576109ea948160246109d8933693013591016128ab565b926109e4838383612aa5565b33612feb565b80f35b8580fd5b503461050e578160031936011261050e57610a0a612f0f565b90519183821015610a1d57602083838152f35b634e487b7160e01b815260218452602490fd5b503461050e57602036600319011261050e5760209160ff9082906001600160a01b03610a5a61294d565b168152600e855220541690519015158152f35b5082903461050a578060031936011261050a57610a8861294d565b9060243591821515809303610b0d576001600160a01b0316928315610af857503384526005602052808420836000526020528060002060ff1981541660ff8416179055519081527f17307eab39ab6107e8899845ad3d59bd9653f200f220920489ca2b5937696c3160203392a380f35b836024925191630b61174360e31b8352820152fd5b8480fd5b50823461050a578160031936011261050a57610b2b61294d565b610b33612f84565b6001600160a01b0316918215610b62575050600b80546001600160a01b031916919091179055602435600c5580f35b906020606492519162461bcd60e51b83528201526018602482015277496e76616c696420706c6174666f726d206164647265737360401b6044820152fd5b503461050e578160031936011261050e57601a5490516001600160601b039091168152602090f35b509034610435578060031936011261043557508051906000908260019260015493610bf2856129c9565b9081845260209586600182169182600014610686575050600114610c22575050610642929161063391038561286d565b90859250600160005282600020916000925b828410610c4a5750505082010181610633610621565b8054848a018601528895508794909301928101610c34565b503461050e57602036600319011261050e57610c7c61294d565b610c84612f84565b6001600160a01b03168252600e6020528120805460ff1916905580f35b503461050e578160031936011261050e57600a5490516001600160a01b039091168152602090f35b5090346104355780600319360112610435575080516010549091826000610cef846129c9565b80835260209460019086600182169182600014610686575050600114610d21575050610642929161063391038561286d565b90859250601060005282600020916000925b828410610d495750505082010181610633610621565b8054848a018601528895508794909301928101610d33565b503461050e578160031936011261050e5761064290610d7e612a03565b9051918291602083526020830190612928565b5082903461050a576020908160031936011261097b57823591338552600e815260ff828620541680156110f7575b610dc890612d2a565b6001600160a01b033381610ddb86612fb0565b16036110b65760175442116110765783865260168252610e0160ff848820541615612d88565b60ff6015541661101757836000526002825282600020541690811591821580610ff5575b60008681526002845285812080546001600160a01b03191690558690836000805160206131b48339815191528280a48315610f775750506008548460005260098252808460002055600160401b811015610f625784610e8d826001610ea69401600855612ea5565b90919082549060031b91821b91600019901b1916179055565b60085460001991828201918211610f4d5760099086600052818152610ecf866000205493612ea5565b90549060031b1c610ee381610e8d86612ea5565b600052528360002055836000526000838120556008548015610f3857810190610f0b82612ea5565b909182549160031b1b19169055600855610f23578380f35b51637e27328960e01b81529182015260249150fd5b603186634e487b7160e01b6000525260246000fd5b601187634e487b7160e01b6000525260246000fd5b604186634e487b7160e01b6000525260246000fd5b610f82575b50610ea6565b610f8b81612ed6565b8560005260078352846000205491600052600683528460002091818103610fcd575b508560005260078352600085812055600052815260008381205586610f7c565b8160005282845285600020548160005280876000205560005260078452856000205588610fad565b610ffe86613135565b8160005260038352846000206000198154019055610e25565b825162461bcd60e51b8152808601839052603360248201527f4576656e7420686173206265656e2063616e63656c6c6564202d2075736520456044820152721d995b9d1499599d5b990818dbdb9d1c9858dd606a1b6064820152608490fd5b825162461bcd60e51b8152808601839052601a6024820152791499599d5b9908191958591b1a5b99481a185cc81c185cdcd95960321b6044820152606490fd5b825162461bcd60e51b8152808601839052601b60248201527a13db9b1e481d1bdad95b881bdddb995c8818d85b881c99599d5b99602a1b6044820152606490fd5b506001610dbf565b8234610435578060031936011261043557611118612f84565b600a80546001600160a01b031981169091556000906001600160a01b03166000805160206131948339815191528280a380f35b503461050e57602036600319011261050e5760209061070c61116b61294d565b612ed6565b5090346104355780600319360112610435575080516019549091826000611196846129c9565b808352602094600190866001821691826000146106865750506001146111c8575050610642929161063391038561286d565b90859250601960005282600020916000925b8284106111f05750505082010181610633610621565b8054848a0186015288955087949093019281016111da565b50823461050a57602036600319011261050a577f2d23a1bda141d7bd20822d45652d678d6eea7e294f0b5a0b32a5eba2a7dc827f903591611247612f84565b6011548151908152836020820152a160115580f35b509034610435576020366003190112610435575061127c60209235612fb0565b90516001600160a01b039091168152f35b503461050e578160031936011261050e57600d5490516001600160a01b039091168152602090f35b50829060031992808436011261043557338152602093600e855260ff83832054168015611a95575b6112e690612d2a565b6112f560ff6015541615612dca565b600f5493601354851015611a53576014543410611a12576000198581146119ff5760018601600f55845161132881612852565b84815233156119e857600087815260028952869020546001600160a01b039290831680158015929190836119c8575b33600081815260038e528b8120805460010190558c815260028e528b812080546001600160a01b031916831790558c919084906000805160206131b48339815191529080a41561194a576008548a60005260098c52808a60002055600160401b811015611935578a610e8d8260016113d29401600855612ea5565b33036118e2575b506118cb57333b6117b4575b50845186336000805160206131748339815191528780a38782600b541680611410575b508651888152f35b84838092631c5f309960e01b82525afa9081156116d8579082918691611797575b5016600c54813b156109ed579085809260648a838b5195869485936304a4955360e11b8552338c860152602485015260448401525af1611783575b505080600b5416855188818581630e64f35d60e01b958682525afa90811561177957908391879161175c575b5016600c54813b1561172757868092604482938b519485938492631bc50c9b60e01b84528b840152600160248401525af1611748575b50508782600b5416918488518094819382525afa9081156116d857908291869161172b575b5016600c5460145490823b156117275786929160448492838b519586948593633c3d7a3760e01b85528b85015260248401525af1611713575b5050818782600b5416875192838092630beb11b760e01b82525afa9081156116d85790829186916116f6575b501681600d5416813b156109ed57858092604482938a51948593849263955f63e360e01b84528a840152600160248401525af16116e2575b5050818782600b5416875192838092630cf3be5160e21b82525afa9081156116d85785916116bb575b5016908451907f596f75207375636365737366756c6c79207075726368617365642061207469638883015267035b2ba103337b9160c51b868301526116128261160460488201612e30565b03601f19810184528361286d565b823b15610b0d57916116719185809461169489519788968795869463e567d29d60e01b8652339086015260806024860152600d60848601526c151a58dad95d08135a5b9d1959609a1b60a486015260c0604486015260c4850190612928565b908382030160648401526006815265151250d2d15560d21b602082015260400190565b03925af16116a7575b8080808781611408565b6116b18291612829565b610435578061169d565b6116d29150883d8a116104795761046b818361286d565b886115b9565b86513d87823e3d90fd5b6116eb90612829565b61097b578388611590565b61170d9150893d8b116104795761046b818361286d565b89611558565b61171c90612829565b61097b57838861152c565b8680fd5b6117429150893d8b116104795761046b818361286d565b896114f3565b61175190612829565b610b0d5784896114ce565b61177391508a3d8c116104795761046b818361286d565b8a611498565b87513d88823e3d90fd5b61178c90612829565b61097b57838861146c565b6117ae9150893d8b116104795761046b818361286d565b89611431565b859694939296518881806117f0630a85bd0160e11b95868352338d840152600060248401528a6044840152608060648401526084830190612928565b03816000335af1809160009161188d575b509061185e578888883d15611856573d9261181b84612890565b936118288351958661286d565b84523d60008286013e5b83519384611850578251633250574960e11b81523381860152602490fd5b84925001fd5b606092611832565b63ffffffff60e098949596981b160361187757876113e5565b8451633250574960e11b81523381840152602490fd5b8a81813d83116118c4575b6118a2818361286d565b8101031261050e5751906001600160e01b03198216820361043557508a611801565b503d611898565b85516339e3563760e11b8152808401869052602490fd5b6118eb33612ed6565b908101908111611920573360005260068a5287600020816000528a528888600020558860005260078a528760002055896113d9565b601185634e487b7160e01b6000525260246000fd5b604187634e487b7160e01b6000525260246000fd5b3381146113d25761195a81612ed6565b8a60005260078c528960002054908260005260068d528a600020918d82820361199e575b50508b60005260078d5260008b8120556000528b526000898120556113d2565b600790836000528481528d806000205480918560005260002055600052528b600020558d8d61197e565b6119d18b613135565b8160005260038c5289600020838154019055611357565b8551633250574960e11b8152808401869052602490fd5b634e487b7160e01b845260118252602484fd5b835162461bcd60e51b8152908101869052601b60248201527a125b9cdd59999a58da595b9d081c185e5b595b9d08185b5bdd5b9d602a1b6044820152606490fd5b835162461bcd60e51b8152908101869052601c60248201527b105b1b081d1a58dad95d1cc81a185d99481899595b881b5a5b9d195960221b6044820152606490fd5b5060016112dd565b509190346104355760203660031901126104355750803590600f54821015611ad957602083611acb84612ea5565b91905490519160031b1c8152f35b906000604493519263295f44f760e21b84528301526024820152fd5b503461050e578060031936011261050e576001600160401b0390833582811161097b57611b2590369086016128e7565b91602435818111610b0d57611b3d90369087016128e7565b94611b46612f84565b835190828211611cda57611b5b6018546129c9565b91601f92838111611d5b575b50806020848211600114611cf8578891611ced575b508160011b916000199060031b1c1916176018555b8651928311611cda5750611ba66019546129c9565b818111611c96575b506020908211600114611c20579481611c0f9286976000805160206131548339815191529791611c15575b508160011b916000199060031b1c1916176019555b611c018351948486958652850190612928565b908382036020850152612928565b0390a180f35b905082015138611bd9565b6019855280852090601f198316865b818110611c7e57509260008051602061315483398151915296979260019282611c0f9610611c65575b5050811b01601955611bee565b84015160001960f88460031b161c191690553880611c58565b9192602060018192868c015181550194019201611c2f565b60198652602086208280850160051c82019260208610611cd1575b0160051c01905b818110611cc55750611bae565b60008155600101611cb8565b92508192611cb1565b634e487b7160e01b865260419052602485fd5b905086015138611b7c565b601889528089209150601f198316895b818110611d4357509083600194939210611d2a575b5050811b01601855611b91565b88015160001960f88460031b161c191690553880611d1d565b9192602060018192868d015181550194019201611d08565b60188852602088208480840160051c82019260208510611d96575b0160051c01905b818110611d8a5750611b67565b60008155600101611d7d565b92508192611d76565b503461050e578160031936011261050e576020906011549051908152f35b50823461050a57602036600319011261050a5780356001600160601b038116929083900361097b57611ded612f84565b6127108311611e0f575050601a80546001600160601b03191691909117905580f35b906020608492519162461bcd60e51b8352820152602560248201527f526f79616c74792070657263656e746167652063616e6e6f7420657863656564604482015264203130302560d81b6064820152fd5b503461050e576109ea90611e7336612979565b91925192611e8084612852565b8584526109e4838383612aa5565b5050346104355760208060031936011261050e576001600160401b0390833582811161097b57611ec190369086016128e7565b93611eca612f84565b8451928311611fcb5750611edf6012546129c9565b601f8111611f86575b5080601f8311600114611f2357508293829392611f18575b50508160011b916000199060031b1c19161760125580f35b015190503880611f00565b90601f19831694601285528285209285905b878210611f6e575050836001959610611f55575b505050811b0160125580f35b015160001960f88460031b161c19169055388080611f49565b80600185968294968601518155019501930190611f35565b60128452818420601f840160051c810191838510611fc1575b601f0160051c01905b818110611fb55750611ee8565b60008155600101611fa8565b9091508190611f9f565b634e487b7160e01b845260419052602483fd5b509034610435578160031936011261043557611ff861294d565b926024359061200685612ed6565b82101561203657506001600160a01b03909316815260066020908152828220938252928352819020549051908152f35b925163295f44f760e21b8152938493612051935084016129ae565b0390fd5b50823461050a57602036600319011261050a578160209360ff923581526016855220541690519015158152f35b509034610435578160031936011261043557600a54601a546001600160601b0316602435818102946001600160a01b0393909316939181159186041417156120d657815180610642612710870486836129ae565b634e487b7160e01b815260118552602490fd5b50913461050e5760209260031991848336011261097b57803594338552600e815260ff838620541680156123d7575b61212190612d2a565b6001600160a01b03338161213489612fb0565b1603612396578686526016825261215160ff858820541615612d88565b601154421161235b57859661216b60ff6015541615612dca565b80875260168352848720805460ff19166001179055845190336000805160206131748339815191528980a381600b5416806121a4578780f35b8185818693631c5f309960e01b82525afa90811561231c57908291889161233e575b5016600c54813b1561233a5787916121f39187519a8b80948193630345698f60e41b8352338b84016129ae565b03925af1612326575b859650828282600b5416865192838092630cf3be5160e21b82525afa90811561231c5787916122ff575b5016906f02cb7bab9103a34b1b5b2ba103337b9160851b84519182015261227d60138261225560308201612e30565b72081a185cc81899595b881d985b1a59185d1959606a1b815203600c1981018452018261286d565b813b156109ed5785611671936122d88296519788968795869463e567d29d60e01b8652339086015260806024860152600b60848601526a151a58dad95d08155cd95960aa1b60a486015260c0604486015260c4850190612928565b03925af16122eb575b8080808080808780f35b6122f490612829565b6104355780386122e1565b6123169150833d85116104795761046b818361286d565b38612226565b85513d89823e3d90fd5b94909561233290612829565b9385906121fc565b8780fd5b6123559150843d86116104795761046b818361286d565b386121c6565b50606492519162461bcd60e51b83528201526017602482015276115d995b9d081a185cc8185b1c9958591e48195b991959604a1b6044820152fd5b50606492519162461bcd60e51b8352820152601f60248201527f4f6e6c7920746f6b656e206f776e65722063616e20757365207469636b6574006044820152fd5b506001612118565b8234610435576109ea6123f136612979565b91612aa5565b503461050e578160031936011261050e57602090600f549051908152f35b503461050e578160031936011261050e57600b5490516001600160a01b039091168152602090f35b503461050e578160031936011261050e576020906014549051908152f35b5082903461050a578060031936011261050a5761247661294d565b9160243561248381612fb0565b33151580612525575b806124fc575b6124e6576001600160a01b039485169482918691167f8c5be1e5ebec7d5bd14f71427d1e84f3dd0314c0f7b2291e5b200ac8c7c3b9258880a48452602052822080546001600160a01b031916909117905580f35b835163a9fbf51f60e01b81523381850152602490fd5b506001600160a01b03811686526005602090815284872033885290528386205460ff1615612492565b506001600160a01b03811633141561248c565b503461050e578160031936011261050e57602090600c549051908152f35b50823461050a57602036600319011261050a5791826020933561257881612fb0565b50825283528190205490516001600160a01b039091168152f35b509034610435578060031936011261043557815191828283546125b4816129c9565b90818452602095600191876001821691826000146126265750506001146125e9575b505050610642929161063391038561286d565b91908693508280528383205b82841061260e57505050820101816106336106426125d6565b8054848a0186015288955087949093019281016125f5565b60ff19168782015293151560051b86019093019350849250610633915061064290506125d6565b5050346104355760208060031936011261050e576001600160401b0390833582811161097b5761268090369086016128e7565b93612689612f84565b8451928311611fcb575061269e6010546129c9565b601f8111612745575b5080601f83116001146126e2575082938293926126d7575b50508160011b916000199060031b1c19161760105580f35b0151905038806126bf565b90601f19831694601085528285209285905b87821061272d575050836001959610612714575b505050811b0160105580f35b015160001960f88460031b161c19169055388080612708565b806001859682949686015181550195019301906126f4565b60108452818420601f840160051c81019183851061277f575b601f0160051c01905b81811061277457506126a7565b848155600101612767565b909150819061275e565b8390853461050a57602036600319011261050a573563ffffffff60e01b811680910361050a576020925063152a902d60e11b81149081156127cc575b5015158152f35b63780e9d6360e01b8114915081156127e6575b50836127c5565b6380ac58cd60e01b811491508115612818575b8115612807575b50836127df565b6301ffc9a760e01b14905083612800565b635b5e139f60e01b811491506127f9565b6001600160401b03811161283c57604052565b634e487b7160e01b600052604160045260246000fd5b602081019081106001600160401b0382111761283c57604052565b601f909101601f19168101906001600160401b0382119082101761283c57604052565b6001600160401b03811161283c57601f01601f191660200190565b9291926128b782612890565b916128c5604051938461286d565b8294818452818301116128e2578281602093846000960137010152565b600080fd5b9080601f830112156128e257816020612902933591016128ab565b90565b60005b8381106129185750506000910152565b8181015183820152602001612908565b9060209161294181518092818552858086019101612905565b601f01601f1916010190565b600435906001600160a01b03821682036128e257565b602435906001600160a01b03821682036128e257565b60609060031901126128e2576001600160a01b039060043582811681036128e2579160243590811681036128e2579060443590565b6001600160a01b039091168152602081019190915260400190565b90600182811c921680156129f9575b60208310146129e357565b634e487b7160e01b600052602260045260246000fd5b91607f16916129d8565b6040519060008260185491612a17836129c9565b808352602093600190818116908115612a855750600114612a43575b5050612a419250038361286d565b565b90939150601860005281600020936000915b818310612a6d575050612a4193508201013880612a33565b85548884018501529485019487945091830191612a55565b915050612a4194925060ff191682840152151560051b8201013880612a33565b6001600160a01b0382811693918415612d1157600094838652602095600287526040968488832054169633151580612c85575b5087158015612c65575b84845260038352898420805460010190558784526002835289842080546001600160a01b0319168617905587858a6000805160206131b48339815191528780a415612bf95760085487845260098352898420819055600160401b811015612be55787610e8d826001612b579401600855612ea5565b838803612b93575b505050501692838303612b725750505050565b6064945051926364283d7b60e01b8452600484015260248301526044820152fd5b612b9c90612ed6565b600019810193908411612bd15782916007918a9452600681528383208584528152878484205587835252205538808080612b5f565b634e487b7160e01b83526011600452602483fd5b634e487b7160e01b84526041600452602484fd5b878414612b5757612c0988612ed6565b878452600783528984205490898552600684528a852091818103612c43575b5088855260078452848b812055845282528289812055612b57565b8186528285528b862054818752808d8820558652600785528b86205538612c28565b612c6e88613135565b888452600383528984208054600019019055612ae2565b80612cd0575b15612c965738612ad8565b888789612cb3576024915190637e27328960e01b82526004820152fd5b905163177e802f60e01b81529081906120519033600484016129ae565b503388148015612cf5575b80612c8b57508683526004825233868a8520541614612c8b565b5087835260058252888320338452825260ff8984205416612cdb565b604051633250574960e11b815260006004820152602490fd5b15612d3157565b60405162461bcd60e51b815260206004820152602960248201527f4f6e6c792050555348434841494e20756e6976657273616c206163636f756e746044820152681cc8185b1b1bddd95960ba1b6064820152608490fd5b15612d8f57565b60405162461bcd60e51b8152602060048201526013602482015272151a58dad95d08185b1c9958591e481d5cd959606a1b6044820152606490fd5b15612dd157565b60405162461bcd60e51b8152602060048201526018602482015277115d995b9d081a185cc81899595b8818d85b98d95b1b195960421b6044820152606490fd5b908160209103126128e257516001600160a01b03811681036128e25790565b60105460009291612e40826129c9565b91600190818116908115612e925750600114612e5b57505050565b909192935060106000526020906020600020906000915b858310612e8157505050500190565b805485840152918301918101612e72565b60ff191683525050811515909102019150565b600854811015612ec057600860005260206000200190600090565b634e487b7160e01b600052603260045260246000fd5b6001600160a01b03168015612ef657600052600360205260406000205490565b6040516322718ad960e21b815260006004820152602490fd5b60ff60155416612f45576011544211612f4057612f31601354600f5490612f4a565b15612f3b57600090565b600190565b600290565b600390565b91908203918211612f5757565b634e487b7160e01b600052601160045260246000fd5b6001600160401b03811161283c5760051b60200190565b600a546001600160a01b03163303612f9857565b60405163118cdaa760e01b8152336004820152602490fd5b6000818152600260205260409020546001600160a01b0316908115612fd3575090565b60249060405190637e27328960e01b82526004820152fd5b90939192833b612ffd575b5050505050565b604051630a85bd0160e11b8082526001600160a01b03938416600483015295831660248201526044810191909152608060648201529492169260209291859061304a906084830190612928565b039483816000978189895af18691816130f5575b506130bf575050503d6000146130b6573d61307881612890565b90613086604051928361286d565b81528093823d92013e5b825192836130b157604051633250574960e11b815260048101849052602490fd5b019050fd5b60609250613090565b919450915063ffffffff60e01b16036130dd57503880808080612ff6565b60249060405190633250574960e11b82526004820152fd5b9091508481813d831161312e575b61310d818361286d565b8101031261172757516001600160e01b03198116810361172757903861305e565b503d613103565b600090815260046020526040902080546001600160a01b031916905556fe30f5c4b652f95e2a697bda3258896c421eee4f29adce8fe38060f47f7aed91ad108a46e5e0e67b88292a0674cb6edf9da3b41ad04c8cd52a738ff591ce32443a8be0079c531659141344cd1fd0a4f28419497f9722a3daafe3b4186f6b6457e0ddf252ad1be2c89b69c2b068fc378daa952ba7f163c4a11628f55a4df523b3efa2646970667358221220e14093ba519225d7bb38eacf74920257c655d4e21008463492be5892d92da00e64736f6c63430008160033290decd9548b62a8d60345a988386fc84ba6bc95484008f6362f93160ef3e563b10e2d527612073b26eecdfd717e6a320cf44b4afac2b0732d9fcbe2b7fa0cf61b6847dc741a1b0cd08d278845f9d819d87b734759afb55fe2de5cb82a9ae672",
  "linkReferences": {},
  "deployedLinkReferences": {}
}