{
  "_format": "hh-sol-artifact-1",
  "contractName": "UniversalTicketValidator",
  "sourceName": "contracts/UniversalTicketValidator.sol",
  "abi": [
    {
      "inputs": [],
      "stateMutability": "nonpayable",
      "type": "constructor"
    },
    {
      "inputs": [
        {
          "internalType": "address",
          "name": "owner",
          "type": "address"
        }
      ],
      "name": "OwnableInvalidOwner",
      "type": "error"
    },
    {
      "inputs": [
        {
          "internalType": "address",
          "name": "account",
          "type": "address"
        }
      ],
      "name": "OwnableUnauthorizedAccount",
      "type": "error"
    },
    {
      "anonymous": false,
      "inputs": [
        {
          "indexed": true,
          "internalType": "address",
          "name": "previousOwner",
          "type": "address"
        },
        {
          "indexed": true,
          "internalType": "address",
          "name": "newOwner",
          "type": "address"
        }
      ],
      "name": "OwnershipTransferred",
      "type": "event"
    },
    {
      "anonymous": false,
      "inputs": [
        {
          "indexed": true,
          "internalType": "uint256",
          "name": "eventId",
          "type": "uint256"
        },
        {
          "indexed": false,
          "internalType": "uint256",
          "name": "tokenId",
          "type": "uint256"
        },
        {
          "indexed": true,
          "internalType": "address",
          "name": "ticketOwner",
          "type": "address"
        },
        {
          "indexed": true,
          "internalType": "address",
          "name": "validator",
          "type": "address"
        },
        {
          "indexed": false,
          "internalType": "string",
          "name": "locationUri",
          "type": "string"
        }
      ],
      "name": "TicketValidated",
      "type": "event"
    },
    {
      "anonymous": false,
      "inputs": [
        {
          "indexed": true,
          "internalType": "address",
          "name": "validator",
          "type": "address"
        }
      ],
      "name": "ValidatorAdded",
      "type": "event"
    },
    {
      "anonymous": false,
      "inputs": [
        {
          "indexed": true,
          "internalType": "address",
          "name": "validator",
          "type": "address"
        }
      ],
      "name": "ValidatorRemoved",
      "type": "event"
    },
    {
      "inputs": [
        {
          "internalType": "address",
          "name": "validator",
          "type": "address"
        }
      ],
      "name": "addValidator",
      "outputs": [],
      "stateMutability": "nonpayable",
      "type": "function"
    },
    {
      "inputs": [
        {
          "internalType": "uint256",
          "name": "",
          "type": "uint256"
        }
      ],
      "name": "authorizedValidators",
      "outputs": [
        {
          "internalType": "address",
          "name": "",
          "type": "address"
        }
      ],
      "stateMutability": "view",
      "type": "function"
    },
    {
      "inputs": [
        {
          "internalType": "bytes32",
          "name": "validationId",
          "type": "bytes32"
        }
      ],
      "name": "getValidationRecord",
      "outputs": [
        {
          "components": [
            {
              "internalType": "uint256",
              "name": "eventId",
              "type": "uint256"
            },
            {
              "internalType": "address",
              "name": "ticketOwner",
              "type": "address"
            },
            {
              "internalType": "uint256",
              "name": "tokenId",
              "type": "uint256"
            },
            {
              "internalType": "uint256",
              "name": "validationTime",
              "type": "uint256"
            },
            {
              "internalType": "string",
              "name": "locationUri",
              "type": "string"
            },
            {
              "internalType": "string",
              "name": "locationHash",
              "type": "string"
            },
            {
              "internalType": "address",
              "name": "validator",
              "type": "address"
            },
            {
              "internalType": "bool",
              "name": "isValid",
              "type": "bool"
            }
          ],
          "internalType": "struct UniversalTicketValidator.ValidationRecord",
          "name": "",
          "type": "tuple"
        }
      ],
      "stateMutability": "view",
      "type": "function"
    },
    {
      "inputs": [],
      "name": "getValidators",
      "outputs": [
        {
          "internalType": "address[]",
          "name": "",
          "type": "address[]"
        }
      ],
      "stateMutability": "view",
      "type": "function"
    },
    {
      "inputs": [
        {
          "internalType": "uint256",
          "name": "eventId",
          "type": "uint256"
        },
        {
          "internalType": "uint256",
          "name": "tokenId",
          "type": "uint256"
        },
        {
          "internalType": "address",
          "name": "ticketOwner",
          "type": "address"
        }
      ],
      "name": "isTicketValidated",
      "outputs": [
        {
          "internalType": "bool",
          "name": "",
          "type": "bool"
        }
      ],
      "stateMutability": "view",
      "type": "function"
    },
    {
      "inputs": [],
      "name": "owner",
      "outputs": [
        {
          "internalType": "address",
          "name": "",
          "type": "address"
        }
      ],
      "stateMutability": "view",
      "type": "function"
    },
    {
      "inputs": [],
      "name": "platformContract",
      "outputs": [
        {
          "internalType": "address",
          "name": "",
          "type": "address"
        }
      ],
      "stateMutability": "view",
      "type": "function"
    },
    {
      "inputs": [
        {
          "internalType": "address",
          "name": "validator",
          "type": "address"
        }
      ],
      "name": "removeValidator",
      "outputs": [],
      "stateMutability": "nonpayable",
      "type": "function"
    },
    {
      "inputs": [],
      "name": "renounceOwnership",
      "outputs": [],
      "stateMutability": "nonpayable",
      "type": "function"
    },
    {
      "inputs": [
        {
          "internalType": "address",
          "name": "_platform",
          "type": "address"
        }
      ],
      "name": "setPlatformContract",
      "outputs": [],
      "stateMutability": "nonpayable",
      "type": "function"
    },
    {
      "inputs": [
        {
          "internalType": "uint256",
          "name": "",
          "type": "uint256"
        },
        {
          "internalType": "uint256",
          "name": "",
          "type": "uint256"
        }
      ],
      "name": "ticketUsed",
      "outputs": [
        {
          "internalType": "bool",
          "name": "",
          "type": "bool"
        }
      ],
      "stateMutability": "view",
      "type": "function"
    },
    {
      "inputs": [
        {
          "internalType": "address",
          "name": "newOwner",
          "type": "address"
        }
      ],
      "name": "transferOwnership",
      "outputs": [],
      "stateMutability": "nonpayable",
      "type": "function"
    },
    {
      "inputs": [
        {
          "internalType": "address",
          "name": "eventContract",
          "type": "address"
        },
        {
          "internalType": "uint256",
          "name": "tokenId",
          "type": "uint256"
        },
        {
          "internalType": "address",
          "name": "ticketOwner",
          "type": "address"
        },
        {
          "internalType": "string",
          "name": "locationUri",
          "type": "string"
        },
        {
          "internalType": "string",
          "name": "locationHash",
          "type": "string"
        }
      ],
      "name": "validateTicketAtEvent",
      "outputs": [
        {
          "internalType": "bool",
          "name": "",
          "type": "bool"
        }
      ],
      "stateMutability": "nonpayable",
      "type": "function"
    },
    {
      "inputs": [
        {
          "internalType": "uint256",
          "name": "",
          "type": "uint256"
        },
        {
          "internalType": "address",
          "name": "",
          "type": "address"
        }
      ],
      "name": "validatedTickets",
      "outputs": [
        {
          "internalType": "bool",
          "name": "",
          "type": "bool"
        }
      ],
      "stateMutability": "view",
      "type": "function"
    },
    {
      "inputs": [
        {
          "internalType": "bytes32",
          "name": "",
          "type": "bytes32"
        }
      ],
      "name": "validationRecords",
      "outputs": [
        {
          "internalType": "uint256",
          "name": "eventId",
          "type": "uint256"
        },
        {
          "internalType": "address",
          "name": "ticketOwner",
          "type": "address"
        },
        {
          "internalType": "uint256",
          "name": "tokenId",
          "type": "uint256"
        },
        {
          "internalType": "uint256",
          "name": "validationTime",
          "type": "uint256"
        },
        {
          "internalType": "string",
          "name": "locationUri",
          "type": "string"
        },
        {
          "internalType": "string",
          "name": "locationHash",
          "type": "string"
        },
        {
          "internalType": "address",
          "name": "validator",
          "type": "address"
        },
        {
          "internalType": "bool",
          "name": "isValid",
          "type": "bool"
        }
      ],
      "stateMutability": "view",
      "type": "function"
    }
  ],
  "bytecode": "0x608080604052346100f65733156100e057600080546001600160a01b03198082163390811784556040519391926001600160a01b03167f8be0079c531659141344cd1fd0a4f28419497f9722a3daafe3b4186f6b6457e08380a360055490680100000000000000008210156100cc5760018201806005558210156100b857600590527f036b6384b5eca791c62761152d0c79bb0604c104a5fb6f4eb0703f3154bb3db00180549091163317905561128990816100fc8239f35b634e487b7160e01b81526032600452602490fd5b634e487b7160e01b81526041600452602490fd5b631e4fbdf760e01b815260006004820152602490fd5b600080fdfe6080604052600436101561001257600080fd5b6000803560e01c806305b5c39614610e275780631627469514610dfe57806340a141ff14610cd65780634d238c8e14610ca9578063715018a614610c6157806371ecca9014610c1d578063807fc8c414610bcc5780638da5cb5b14610ba55780639adbae5914610b31578063a44760f214610aa9578063b7ab4db514610a01578063db0619d4146102b6578063f2fde38b14610240578063fa99005d146100fd5763fc26f027146100c257600080fd5b346100fa5760403660031901126100fa5760ff6040602092600435815260038452818120602435825284522054166040519015158152f35b80fd5b50346100fa57602090816003193601126100fa578060409160e0835161012281610f13565b8281528286820152828582015282606082015260606080820152606060a08201528260c08201520152600435815260048352206040519061016282610f13565b8054825260018060a01b039081600182015416918484019283526002820154906040850191825261022d6003840154606087019081526101a460048601610f7b565b906080880191825260066101ba60058801610f7b565b9660a08a019788520154948460c08a01988188168a5260ff60e08c019860a01c16151588526040519b8c9b818d5251908c0152511660408a0152516060890152516080880152519361021a610100958660a08a0152610120890190611020565b9051878203601f190160c0890152611020565b93511660e0850152511515908301520390f35b50346100fa5760203660031901126100fa5761025a611060565b610262611207565b6001600160a01b0390811690811561029d576000548260018060a01b031982161760005516600080516020611234833981519152600080a380f35b604051631e4fbdf760e01b815260048101849052602490fd5b50346100fa5760a03660031901126100fa576102d0611060565b6102d861107b565b6064356001600160401b0381116106fb576102f79036906004016110c2565b6084356001600160401b0381116109fd576103169036906004016110c2565b928485600554905b8181106109c8575b505015610969576001600160a01b0383161561092d576040516001600160601b0319606083811b82166020840152602435603484015285901b16605482015242606880830191909152815260a081018082116001600160401b03909111176109195760a08101604052805160208201206103a260a08301610f13565b6001600160a01b0383811660a0840190815286821660c0850190815260243560e08601908152426101008701908152610120870189815261014088018c90523361016089015260016101808901819052968d52600460205260408d2094518555925195840180546001600160a01b03191696909516959095179093559151600282015591516003830155518051906001600160401b03821161083b57819061044d6004850154610ed9565b601f81116108c9575b50602090601f831160011461085a578a9261084f575b50508160011b916000199060031b1c19161760048201555b6101408201518051906001600160401b03821161083b576104a86005840154610ed9565b601f81116107f7575b50602090601f83116001146107875760069392918a918361077c575b50508160011b916000199060031b1c19161760058201555b61016083015191018054610180909301516001600160a81b03199093166001600160a01b039283161792151560a01b60ff60a01b1692909217909155818116808752600260209081526040808920938716808a52938252808920805460ff199081166001908117909255848b5260038452828b20602435808d52908552838c20805490921690921790558151908152918201819052339392917f6ddee919232bf8b74e3a12e3314551aa8a7f7d479d92a001f8121956048cff289181906105ae90820189611020565b0390a46001546001600160a01b031690816105cf575b602060405160018152f35b60046020879360405192838092630e64f35d60e01b82525afa908115610771578391610752575b506001600160a01b0316803b1561074e576040516347727f6760e01b81526001600160a01b0390921660048301529091908290602490829084905af1610739575b5060015460405163a2105dbb60e01b815285939291602090829060049082906001600160a01b03165afa90811561072e5784916106ff575b506001600160a01b031690813b156106fb57836106c3936106d560405197889687958694634dfa6ee560e11b8652602435600487015260018060a01b03166024860152608060448601526084850190611020565b83810360031901606485015290611020565b03925af16106e7575b808080806105c4565b6106f18291610f45565b6100fa57806106de565b8380fd5b610721915060203d602011610727575b6107198183610f58565b8101906111e8565b3861066f565b503d61070f565b6040513d86823e3d90fd5b6107469094919294610f45565b929038610637565b8280fd5b61076b915060203d602011610727576107198183610f58565b386105f6565b6040513d85823e3d90fd5b0151905038806104cd565b90600584018a5260208a20918a5b601f19851681106107df575091839160019360069695601f198116106107c6575b505050811b0160058201556104e5565b015160001960f88460031b161c191690553880806107b6565b91926020600181928685015181550194019201610795565b600584018a5260208a20601f840160051c810160208510610834575b601f830160051c820181106108295750506104b1565b8b8155600101610813565b5080610813565b634e487b7160e01b89526041600452602489fd5b01519050388061046c565b9250600484018a5260208a20908a935b601f19841685106108ae576001945083601f19811610610895575b505050811b016004820155610484565b015160001960f88460031b161c19169055388080610885565b8181015183556020948501946001909301929091019061086a565b909150600484018a5260208a20601f840160051c810160208510610912575b90849392915b601f830160051c82018110610904575050610456565b8c81558594506001016108ee565b50806108e8565b634e487b7160e01b86526041600452602486fd5b60405162461bcd60e51b815260206004820152601460248201527324b73b30b634b2103a34b1b5b2ba1037bbb732b960611b6044820152606490fd5b60405162461bcd60e51b815260206004820152603160248201527f4f6e6c7920617574686f72697a65642076616c696461746f72732063616e206360448201527030b636103a3434b990333ab731ba34b7b760791b6064820152608490fd5b6109d181611091565b905460039190911b1c6001600160a01b031633146109f15760010161031e565b50505060013880610326565b8480fd5b50346100fa57806003193601126100fa57604051809160055490818352602080930180926005835284832090835b818110610a8c5750505084610a45910385610f58565b60405193838594850191818652518092526040850193925b828110610a6c57505050500390f35b83516001600160a01b031685528695509381019392810192600101610a5d565b82546001600160a01b031684529286019260019283019201610a2f565b50346100fa5760203660031901126100fa57610ac3611060565b610acb611207565b6001600160a01b03168015610af157600180546001600160a01b03191691909117905580f35b60405162461bcd60e51b8152602060048201526018602482015277496e76616c696420706c6174666f726d206164647265737360401b6044820152606490fd5b50346100fa5760603660031901126100fa5760209060ff604060043592610b5661107b565b848252600286528282206001600160a01b03909116825285528181205493815260038552818120602435825285522054918116911681610b9c575b506040519015158152f35b90501538610b91565b50346100fa57806003193601126100fa57546040516001600160a01b039091168152602090f35b50346100fa5760403660031901126100fa576024356001600160a01b03811690819003610c1957604060209260ff9260043582526002855282822090825284522054166040519015158152f35b5080fd5b50346100fa5760203660031901126100fa57600435906005548210156100fa576020610c4883611091565b905460405160039290921b1c6001600160a01b03168152f35b50346100fa57806003193601126100fa57610c7a611207565b80546001600160a01b03198116825581906001600160a01b03166000805160206112348339815191528280a380f35b50346100fa5760203660031901126100fa57610cd3610cc6611060565b610cce611207565b611118565b80f35b50346100fa5760203660031901126100fa57610cf0611060565b610cf8611207565b6001600160a01b03908116825b600580549081831015610df657849184610d1e85611091565b949054600395861b1c1614610d3857505050600101610d05565b93949193909260001991828101908111610de25790610d6a84610d5d610d8894611091565b905490891b1c1691611091565b90919060018060a01b038084549260031b9316831b921b1916179055565b82548015610dce570192610d9b84611091565b81939154921b1b19169055557fe1434e25d6611e0db941968fdc97811c982ac1602e951637d206f5fdda9dd8f18280a280f35b634e487b7160e01b87526031600452602487fd5b634e487b7160e01b88526011600452602488fd5b505050505080f35b50346100fa57806003193601126100fa576001546040516001600160a01b039091168152602090f35b50346100fa5760203660031901126100fa576040906004358152600460205220805460018060a01b0360ff8160018501541692610ec2600286015495610eb4600382015493610e7860048401610f7b565b906006610e8760058601610f7b565b940154956040519a8b9a610100938c5260208c015260408b015260608a01528060808a0152880190611020565b9086820360a0880152611020565b92811660c085015260a01c16151560e08301520390f35b90600182811c92168015610f09575b6020831014610ef357565b634e487b7160e01b600052602260045260246000fd5b91607f1691610ee8565b61010081019081106001600160401b03821117610f2f57604052565b634e487b7160e01b600052604160045260246000fd5b6001600160401b038111610f2f57604052565b601f909101601f19168101906001600160401b03821190821017610f2f57604052565b90604051918260008254610f8e81610ed9565b90818452602094600191600181169081600014610ffe5750600114610fbf575b505050610fbd92500383610f58565b565b600090815285812095935091905b818310610fe6575050610fbd9350820101388080610fae565b85548884018501529485019487945091830191610fcd565b92505050610fbd94925060ff191682840152151560051b820101388080610fae565b919082519283825260005b84811061104c575050826000602080949584010152601f8019910116010190565b60208183018101518483018201520161102b565b600435906001600160a01b038216820361107657565b600080fd5b604435906001600160a01b038216820361107657565b6005548110156110ac57600560005260206000200190600090565b634e487b7160e01b600052603260045260246000fd5b81601f82011215611076578035906001600160401b038211610f2f57604051926110f6601f8401601f191660200185610f58565b8284526020838301011161107657816000926020809301838601378301015290565b6001600160a01b038181169182156111a7576005549160005b838110611180575050600160401b821015610f2f57610d6a8260016111599401600555611091565b7fe366c1c0452ed8eec96861e9e54141ebff23c9ec89fe27b996b45f5ec3884987600080a2565b848261118b83611091565b90549060031b1c16146111a057600101611131565b5050505050565b60405162461bcd60e51b8152602060048201526019602482015278496e76616c69642076616c696461746f72206164647265737360381b6044820152606490fd5b9081602091031261107657516001600160a01b03811681036110765790565b6000546001600160a01b0316330361121b57565b60405163118cdaa760e01b8152336004820152602490fdfe8be0079c531659141344cd1fd0a4f28419497f9722a3daafe3b4186f6b6457e0a26469706673582212203f668eed425f0899aba54ac347ff9fc25663ed2cfe443327ac1d756fa48fe84e64736f6c63430008160033",
  "linkReferences": {},
  "deployedLinkReferences": {}
}