{
  "_format": "hh-sol-artifact-1",
  "contractName": "UserProfile",
  "sourceName": "contracts/UserProfile.sol",
  "abi": [
    {
      "inputs": [],
      "stateMutability": "nonpayable",
      "type": "constructor"
    },
    {
      "inputs": [
        {
          "internalType": "address",
          "name": "owner",
          "type": "address"
        }
      ],
      "name": "OwnableInvalidOwner",
      "type": "error"
    },
    {
      "inputs": [
        {
          "internalType": "address",
          "name": "account",
          "type": "address"
        }
      ],
      "name": "OwnableUnauthorizedAccount",
      "type": "error"
    },
    {
      "anonymous": false,
      "inputs": [
        {
          "indexed": true,
          "internalType": "address",
          "name": "universalAccount",
          "type": "address"
        },
        {
          "indexed": true,
          "internalType": "address",
          "name": "linkedAccount",
          "type": "address"
        }
      ],
      "name": "AccountLinked",
      "type": "event"
    },
    {
      "anonymous": false,
      "inputs": [
        {
          "indexed": true,
          "internalType": "address",
          "name": "universalAccount",
          "type": "address"
        },
        {
          "indexed": true,
          "internalType": "address",
          "name": "linkedAccount",
          "type": "address"
        }
      ],
      "name": "AccountUnlinked",
      "type": "event"
    },
    {
      "anonymous": false,
      "inputs": [
        {
          "indexed": true,
          "internalType": "address",
          "name": "previousOwner",
          "type": "address"
        },
        {
          "indexed": true,
          "internalType": "address",
          "name": "newOwner",
          "type": "address"
        }
      ],
      "name": "OwnershipTransferred",
      "type": "event"
    },
    {
      "anonymous": false,
      "inputs": [
        {
          "indexed": true,
          "internalType": "address",
          "name": "user",
          "type": "address"
        },
        {
          "indexed": false,
          "internalType": "string",
          "name": "profileUri",
          "type": "string"
        }
      ],
      "name": "ProfileCreated",
      "type": "event"
    },
    {
      "anonymous": false,
      "inputs": [
        {
          "indexed": true,
          "internalType": "address",
          "name": "user",
          "type": "address"
        },
        {
          "indexed": false,
          "internalType": "string",
          "name": "field",
          "type": "string"
        }
      ],
      "name": "ProfileUpdated",
      "type": "event"
    },
    {
      "inputs": [
        {
          "internalType": "address",
          "name": "user",
          "type": "address"
        },
        {
          "internalType": "uint256",
          "name": "eventId",
          "type": "uint256"
        }
      ],
      "name": "addEventAttended",
      "outputs": [],
      "stateMutability": "nonpayable",
      "type": "function"
    },
    {
      "inputs": [
        {
          "internalType": "address",
          "name": "user",
          "type": "address"
        },
        {
          "internalType": "uint256",
          "name": "ticketId",
          "type": "uint256"
        },
        {
          "internalType": "uint256",
          "name": "eventId",
          "type": "uint256"
        }
      ],
      "name": "addTicket",
      "outputs": [],
      "stateMutability": "nonpayable",
      "type": "function"
    },
    {
      "inputs": [
        {
          "internalType": "address",
          "name": "account",
          "type": "address"
        }
      ],
      "name": "addUniversalAccount",
      "outputs": [],
      "stateMutability": "nonpayable",
      "type": "function"
    },
    {
      "inputs": [
        {
          "internalType": "string",
          "name": "_profileUri",
          "type": "string"
        },
        {
          "internalType": "string",
          "name": "_contentHash",
          "type": "string"
        }
      ],
      "name": "createOrUpdateProfile",
      "outputs": [],
      "stateMutability": "nonpayable",
      "type": "function"
    },
    {
      "inputs": [
        {
          "internalType": "address",
          "name": "user",
          "type": "address"
        },
        {
          "internalType": "string",
          "name": "_profileUri",
          "type": "string"
        },
        {
          "internalType": "string",
          "name": "_contentHash",
          "type": "string"
        }
      ],
      "name": "createProfile",
      "outputs": [],
      "stateMutability": "nonpayable",
      "type": "function"
    },
    {
      "inputs": [
        {
          "internalType": "address",
          "name": "universalAccount",
          "type": "address"
        }
      ],
      "name": "getLinkedAccounts",
      "outputs": [
        {
          "internalType": "address[]",
          "name": "",
          "type": "address[]"
        }
      ],
      "stateMutability": "view",
      "type": "function"
    },
    {
      "inputs": [
        {
          "internalType": "address",
          "name": "user",
          "type": "address"
        }
      ],
      "name": "getProfile",
      "outputs": [
        {
          "internalType": "string",
          "name": "profileUri",
          "type": "string"
        },
        {
          "internalType": "string",
          "name": "contentHash",
          "type": "string"
        },
        {
          "internalType": "uint256",
          "name": "joinDate",
          "type": "uint256"
        },
        {
          "internalType": "uint256",
          "name": "totalTickets",
          "type": "uint256"
        },
        {
          "internalType": "uint256",
          "name": "totalEventsAttended",
          "type": "uint256"
        },
        {
          "internalType": "uint256",
          "name": "averageRating",
          "type": "uint256"
        }
      ],
      "stateMutability": "view",
      "type": "function"
    },
    {
      "inputs": [
        {
          "internalType": "address",
          "name": "user",
          "type": "address"
        }
      ],
      "name": "getUserActivity",
      "outputs": [
        {
          "internalType": "uint256[]",
          "name": "ticketIds",
          "type": "uint256[]"
        },
        {
          "internalType": "uint256[]",
          "name": "eventIds",
          "type": "uint256[]"
        }
      ],
      "stateMutability": "view",
      "type": "function"
    },
    {
      "inputs": [],
      "name": "getUserCount",
      "outputs": [
        {
          "internalType": "uint256",
          "name": "",
          "type": "uint256"
        }
      ],
      "stateMutability": "view",
      "type": "function"
    },
    {
      "inputs": [
        {
          "internalType": "address",
          "name": "user",
          "type": "address"
        }
      ],
      "name": "getUserRating",
      "outputs": [
        {
          "internalType": "uint256",
          "name": "",
          "type": "uint256"
        }
      ],
      "stateMutability": "view",
      "type": "function"
    },
    {
      "inputs": [
        {
          "internalType": "address",
          "name": "user",
          "type": "address"
        },
        {
          "internalType": "uint256",
          "name": "eventId",
          "type": "uint256"
        }
      ],
      "name": "hasReviewedEvent",
      "outputs": [
        {
          "internalType": "bool",
          "name": "",
          "type": "bool"
        }
      ],
      "stateMutability": "view",
      "type": "function"
    },
    {
      "inputs": [
        {
          "internalType": "address",
          "name": "",
          "type": "address"
        }
      ],
      "name": "isUniversalAccount",
      "outputs": [
        {
          "internalType": "bool",
          "name": "",
          "type": "bool"
        }
      ],
      "stateMutability": "view",
      "type": "function"
    },
    {
      "inputs": [
        {
          "internalType": "address",
          "name": "otherChainAccount",
          "type": "address"
        }
      ],
      "name": "linkAccount",
      "outputs": [],
      "stateMutability": "nonpayable",
      "type": "function"
    },
    {
      "inputs": [
        {
          "internalType": "address",
          "name": "",
          "type": "address"
        },
        {
          "internalType": "uint256",
          "name": "",
          "type": "uint256"
        }
      ],
      "name": "linkedAccounts",
      "outputs": [
        {
          "internalType": "address",
          "name": "",
          "type": "address"
        }
      ],
      "stateMutability": "view",
      "type": "function"
    },
    {
      "inputs": [
        {
          "internalType": "address",
          "name": "user",
          "type": "address"
        },
        {
          "internalType": "uint256",
          "name": "eventId",
          "type": "uint256"
        }
      ],
      "name": "markEventReviewed",
      "outputs": [],
      "stateMutability": "nonpayable",
      "type": "function"
    },
    {
      "inputs": [],
      "name": "owner",
      "outputs": [
        {
          "internalType": "address",
          "name": "",
          "type": "address"
        }
      ],
      "stateMutability": "view",
      "type": "function"
    },
    {
      "inputs": [],
      "name": "platformContract",
      "outputs": [
        {
          "internalType": "address",
          "name": "",
          "type": "address"
        }
      ],
      "stateMutability": "view",
      "type": "function"
    },
    {
      "inputs": [
        {
          "internalType": "address",
          "name": "user",
          "type": "address"
        }
      ],
      "name": "profileExists",
      "outputs": [
        {
          "internalType": "bool",
          "name": "",
          "type": "bool"
        }
      ],
      "stateMutability": "view",
      "type": "function"
    },
    {
      "inputs": [
        {
          "internalType": "address",
          "name": "",
          "type": "address"
        }
      ],
      "name": "profiles",
      "outputs": [
        {
          "internalType": "string",
          "name": "profileUri",
          "type": "string"
        },
        {
          "internalType": "string",
          "name": "contentHash",
          "type": "string"
        },
        {
          "internalType": "uint256",
          "name": "joinDate",
          "type": "uint256"
        },
        {
          "internalType": "uint256",
          "name": "totalTickets",
          "type": "uint256"
        },
        {
          "internalType": "uint256",
          "name": "totalEventsAttended",
          "type": "uint256"
        },
        {
          "internalType": "uint256",
          "name": "ratingSum",
          "type": "uint256"
        },
        {
          "internalType": "uint256",
          "name": "ratingCount",
          "type": "uint256"
        },
        {
          "internalType": "bool",
          "name": "exists",
          "type": "bool"
        }
      ],
      "stateMutability": "view",
      "type": "function"
    },
    {
      "inputs": [
        {
          "internalType": "uint256",
          "name": "eventId",
          "type": "uint256"
        }
      ],
      "name": "recordEventAttendance",
      "outputs": [],
      "stateMutability": "nonpayable",
      "type": "function"
    },
    {
      "inputs": [
        {
          "internalType": "uint256",
          "name": "ticketId",
          "type": "uint256"
        }
      ],
      "name": "recordTicketPurchase",
      "outputs": [],
      "stateMutability": "nonpayable",
      "type": "function"
    },
    {
      "inputs": [
        {
          "internalType": "string",
          "name": "_profileUri",
          "type": "string"
        },
        {
          "internalType": "string",
          "name": "_contentHash",
          "type": "string"
        }
      ],
      "name": "registerProfile",
      "outputs": [],
      "stateMutability": "nonpayable",
      "type": "function"
    },
    {
      "inputs": [
        {
          "internalType": "address",
          "name": "account",
          "type": "address"
        }
      ],
      "name": "removeUniversalAccount",
      "outputs": [],
      "stateMutability": "nonpayable",
      "type": "function"
    },
    {
      "inputs": [],
      "name": "renounceOwnership",
      "outputs": [],
      "stateMutability": "nonpayable",
      "type": "function"
    },
    {
      "inputs": [
        {
          "internalType": "uint256",
          "name": "eventId",
          "type": "uint256"
        },
        {
          "internalType": "uint256",
          "name": "rating",
          "type": "uint256"
        }
      ],
      "name": "setEventRating",
      "outputs": [],
      "stateMutability": "nonpayable",
      "type": "function"
    },
    {
      "inputs": [
        {
          "internalType": "address",
          "name": "_platform",
          "type": "address"
        }
      ],
      "name": "setPlatformContract",
      "outputs": [],
      "stateMutability": "nonpayable",
      "type": "function"
    },
    {
      "inputs": [
        {
          "internalType": "address",
          "name": "newOwner",
          "type": "address"
        }
      ],
      "name": "transferOwnership",
      "outputs": [],
      "stateMutability": "nonpayable",
      "type": "function"
    },
    {
      "inputs": [
        {
          "internalType": "address",
          "name": "otherChainAccount",
          "type": "address"
        }
      ],
      "name": "unlinkAccount",
      "outputs": [],
      "stateMutability": "nonpayable",
      "type": "function"
    },
    {
      "inputs": [
        {
          "internalType": "string",
          "name": "_profileUri",
          "type": "string"
        },
        {
          "internalType": "string",
          "name": "_contentHash",
          "type": "string"
        }
      ],
      "name": "updateProfileUri",
      "outputs": [],
      "stateMutability": "nonpayable",
      "type": "function"
    },
    {
      "inputs": [
        {
          "internalType": "address",
          "name": "user",
          "type": "address"
        },
        {
          "internalType": "uint256",
          "name": "rating",
          "type": "uint256"
        }
      ],
      "name": "updateRating",
      "outputs": [],
      "stateMutability": "nonpayable",
      "type": "function"
    },
    {
      "inputs": [
        {
          "internalType": "uint256",
          "name": "",
          "type": "uint256"
        }
      ],
      "name": "userList",
      "outputs": [
        {
          "internalType": "address",
          "name": "",
          "type": "address"
        }
      ],
      "stateMutability": "view",
      "type": "function"
    }
  ],
  "bytecode": "0x6080806040523461009157331561007b5760008054336001600160a01b0319821681178355604080519390929091906001600160a01b03167f8be0079c531659141344cd1fd0a4f28419497f9722a3daafe3b4186f6b6457e08380a3338152600560205220805460ff191660011790556125db90816100978239f35b631e4fbdf760e01b815260006004820152602490fd5b600080fdfe6080604052600436101561001257600080fd5b60003560e01c8063039d327d14611b4357806305cfa06f14611b0157806306c5958f14611aa857806309492aa6146119055780630f53a470146117fd57806310bfaf5a14611799578063162746951461177057806319dfac071461160e5780631b4886a3146116005780631d64c99d1461154d578063278d432014610f9d578063345698f014610e95578063460168c314610e6a5780634e63f9b114610d0157806360dd681214610c0b5780636a0b109d14610964578063715018a61461091d5780637ddac9031461074c5780637ffe1bdc146105fa5780638da5cb5b146105d1578063954ebb3c146105455780639f4216e8146104fc578063a44760f214610476578063b5cb15f714610458578063bbe15627146103a2578063caed31ab14610352578063d01091a414610302578063e0f3aa1114610292578063e6521b7d14610229578063f2fde38b146101b55763feb3409d1461017157600080fd5b346101b05760203660031901126101b0576001600160a01b03610192611b64565b166000526005602052602060ff604060002054166040519015158152f35b600080fd5b346101b05760203660031901126101b0576101ce611b64565b6101d66124f9565b6001600160a01b03908116908115610210576000548260018060a01b031982161760005516600080516020612546833981519152600080a3005b604051631e4fbdf760e01b815260006004820152602490fd5b346101b05760203660031901126101b05733600052600260205261025760ff60076040600020015416612088565b33600052600260205260046040600020016102728154612059565b90553360005260036020526102906004356001604060002001612024565b005b346101b05760203660031901126101b0576001600160a01b036102b3611b64565b1660005260036020526102f060406000206102fe6102dc60016102d584612172565b9301612172565b604051938493604085526040850190611dbd565b908382036020850152611dbd565b0390f35b346101b05760203660031901126101b05761031b611b64565b6103236124f9565b6001600160a01b0316610337811515611df1565b6000908152600560205260409020805460ff19166001179055005b346101b05760403660031901126101b0576001600160a01b03610373611b64565b1660005260036020526002604060002001602435600052602052602060ff604060002054166040519015158152f35b346101b05760203660031901126101b0576001600160a01b036103c3611b64565b16600052600260205261042560406000206103dd81611d18565b906103ea60018201611d18565b6002820154916003810154600482015460058301549161043360ff600760068701549601541695604051998a99610100808c528b0190611ba8565b9089820360208b0152611ba8565b9560408801526060870152608086015260a085015260c0840152151560e08301520390f35b346101b05760003660031901126101b0576020600454604051908152f35b346101b05760203660031901126101b05761048f611b64565b6104976124f9565b6001600160a01b031680156104bc57600180546001600160a01b031916919091179055005b60405162461bcd60e51b8152602060048201526018602482015277496e76616c696420706c6174666f726d206164647265737360401b6044820152606490fd5b346101b05760203660031901126101b0576004356004548110156101b057600460005260008051602061256683398151915201546040516001600160a01b039091168152602090f35b346101b05760203660031901126101b05761055e611b64565b6105666124f9565b6001600160a01b031633811461058e576000908152600560205260409020805460ff19169055005b60405162461bcd60e51b815260206004820152601b60248201527a10d85b9b9bdd081c995b5bdd99481bdddb995c881858d8dbdd5b9d602a1b6044820152606490fd5b346101b05760003660031901126101b0576000546040516001600160a01b039091168152602090f35b346101b05760403660031901126101b057610613611b64565b6001546001600160a01b03908116338114801561073f575b80156106b9575b61063c9150611fe7565b81169081600052600260205260ff6007604060002001541615610689575b50600052600360205260026040600020016024356000526020526040600020600160ff19825416179055600080f35b6106b39060405161069981611c04565b60008152604051916106aa83611c04565b600083526121c3565b8161065a565b50801515806106cd575b61063c9150610632565b506020602491604051928380926366d0ead360e01b82523360048301525afa80156107335761063c91600091610704575b506106c3565b610726915060203d60201161072c575b61071e8183611c1f565b810190611fcf565b846106fe565b503d610714565b6040513d6000823e3d90fd5b508160005416331461062b565b346101b0576020806003193601126101b057610766611b64565b90336000526005815260ff60406000205416156108bf576001600160a01b039182169190610795831515611df1565b60005b33600052600690818352604060002091825482101561029057856107bd838795611b7a565b969054600397881b1c16146107d85750909250600101610798565b909233600052818152604060002093845490600019958683019283116108a957856108096108409461082293611b7a565b9054908a1b1c1691336000528585526040600020611b7a565b90919060018060a01b038084549260031b9316831b921b1916179055565b33600052526040600020918254801561089357019261085f8484611b7a565b81939154921b1b1916905555337f648aaf779455c60180d5794bcc292d4503300b9e0ee7183ce3eac83d334ac6c3600080a3005b634e487b7160e01b600052603160045260246000fd5b634e487b7160e01b600052601160045260246000fd5b6084906040519062461bcd60e51b82526004820152603160248201527f4f6e6c7920756e6976657273616c206163636f756e74732063616e20756e6c696044820152706e6b206f74686572206163636f756e747360781b6064820152fd5b346101b05760003660031901126101b0576109366124f9565b600080546001600160a01b0319811682556001600160a01b03166000805160206125468339815191528280a3005b346101b05761097236611c98565b336000526020916002835261099160ff60076040600020015416612088565b336000908152600284526040902081516001600160401b039190828111610b3657806109bd8354611cde565b94601f95868111610bbc575b508790868311600114610b5757600092610b4c575b50508160011b916000199060031b1c19161790555b336000526002845260019182604060002001938051928311610b3657610a198554611cde565b828111610af0575b5085918311600114610a8d57928293918392600094610a82575b50501b916000199060031b1c19161790555b600a604051918083528201526970726f66696c6555726960b01b604082015260008051602061258683398151915260603392a2005b015192508680610a3b565b90601f198316918560005283876000209360005b8988838310610ad95750505010610ac0575b505050811b019055610a4d565b015160001960f88460031b161c19169055848080610ab3565b868601518855909601959485019487935001610aa1565b85600052866000208380860160051c820192898710610b2d575b0160051c019085905b828110610b21575050610a21565b60008155018590610b13565b92508192610b0a565b634e487b7160e01b600052604160045260246000fd5b0151905087806109de565b60008581528981209350601f198516905b8a828210610ba6575050908460019594939210610b8d575b505050811b0190556109f3565b015160001960f88460031b161c19169055878080610b80565b6001859682939686015181550195019301610b68565b90915083600052876000208680850160051c8201928a8610610c02575b9085949392910160051c01905b818110610bf357506109c9565b60008155849350600101610be6565b92508192610bd9565b346101b05760603660031901126101b057610c24611b64565b6001600160401b036024358181116101b057610c44903690600401611c42565b906044359081116101b057610c5d903690600401611c42565b9060018060a01b039283811680600052600260205260ff60076040600020015416610cc35761029094610ca1913314908115610cb4575b8115610ca6575b50611fe7565b6121c3565b905060005416331486610c9b565b80915060015416331490610c94565b60405162461bcd60e51b815260206004820152601660248201527550726f66696c6520616c72656164792065786973747360501b6044820152606490fd5b346101b05760403660031901126101b057610d1a611b64565b600154602435916001600160a01b039182163381148015610e5d575b8015610df3575b610d479150611fe7565b1690816000526002602052610d6660ff60076040600020015416612088565b600181101580610de8575b15610db257816000526002602052610d9260056040600020019182546120cd565b905560005260026020526006604060002001610dae8154612059565b9055005b60405162461bcd60e51b815260206004820152600e60248201526d496e76616c696420726174696e6760901b6044820152606490fd5b506005811115610d71565b5080151580610e07575b610d479150610d3d565b506020602491604051928380926366d0ead360e01b82523360048301525afa801561073357610d4791600091610e3e575b50610dfd565b610e57915060203d60201161072c5761071e8183611c1f565b85610e38565b5082600054163314610d36565b346101b05760203660031901126101b0576020610e8d610e88611b64565b6120da565b604051908152f35b346101b05760403660031901126101b057610eae611b64565b6001546001600160a01b039081163381148015610f90575b8015610f26575b610ed79150611fe7565b81169081600052600260205260ff6007604060002001541615610f10575b5060005260026020526004604060002001610dae8154612059565b610f209060405161069981611c04565b81610ef5565b5080151580610f3a575b610ed79150610ecd565b506020602491604051928380926366d0ead360e01b82523360048301525afa801561073357610ed791600091610f71575b50610f30565b610f8a915060203d60201161072c5761071e8183611c1f565b84610f6b565b5081600054163314610ec6565b346101b057610fab36611c98565b90336000526002602052604060002060ff600782015416156000146112ef57509060405190610fd982611be8565b82825260208201524260408201526000606082015260006080820152600060a0820152600060c0820152600160e0820152336000526002602052604060002091815192835160018060401b038111610b36576110358254611cde565b601f81116112ab575b506020601f8211600114611242578192939495600092611237575b50508160011b916000199060031b1c19161781555b602083015180519093906001600160401b038111610b36576110936001840154611cde565b601f81116111f0575b506020601f821160011461117857918160e092600794611120979860009261116d575b50508160011b916000199060031b1c19161760018501555b60408101516002850155606081015160038501556080810151600485015560a0810151600585015560c081015160068501550151151591019060ff801983541691151516179055565b61112933611e37565b3360005260056020526040600020600160ff19825416179055600080516020612526833981519152604051602081528061116833946020830190611ba8565b0390a2005b0151905088806110bf565b6001840160005260206000209560005b601f19841681106111d857508261112096976007959360019360e096601f198116106111bf575b505050811b0160018501556110d7565b015160001960f88460031b161c191690558880806111af565b82820151885560019097019660209283019201611188565b600184016000526020600020601f830160051c810160208410611230575b601f830160051c8201811061122457505061109c565b6000815560010161120e565b508061120e565b015190508580611059565b8260005260206000209060005b601f1984168110611293575060019394959683601f1981161061127a575b505050811b01815561106e565b015160001960f88460031b161c1916905585808061126d565b9091602060018192858b01518155019301910161124f565b826000526020600020601f830160051c8101602084106112e8575b601f830160051c820181106112dc57505061103e565b600081556001016112c6565b50806112c6565b81516001600160401b039190828111610b36578061130d8354611cde565b94601f958681116114fc575b506020908683116001146114965760009261148b575b50508160011b916000199060031b1c19161790555b33600052600260205260019182604060002001938051928311610b365761136b8554611cde565b828111611443575b5060209183116001146113df579282939183926000946113d4575b50501b916000199060031b1c19161790555b60405160208152600760208201526670726f66696c6560c81b604082015260008051602061258683398151915260603392a2005b01519250858061138e565b90601f19831691856000528360206000209360005b8782821061142a57505010611411575b505050811b0190556113a0565b015160001960f88460031b161c19169055838080611404565b84860151875590950194602094850194879350016113f4565b8560005260206000208380860160051c82019260208710611482575b0160051c019085905b828110611476575050611373565b60008155018590611468565b9250819261145f565b01519050868061132f565b6000858152602081209350601f198516905b8181106114e457509084600195949392106114cb575b505050811b019055611344565b015160001960f88460031b161c191690558680806114be565b929360206001819287860151815501950193016114a8565b9091508360005260206000208680850160051c82019260208610611544575b9085949392910160051c01905b8181106115355750611319565b60008155849350600101611528565b9250819261151b565b346101b0576020806003193601126101b0576001600160a01b039081611571611b64565b1660005260068152604060002060405191828183549182815201908193600052826000209060005b8181106115ea57505050836115af910384611c1f565b60405192818401908285525180915260408401929160005b8281106115d45785850386f35b83518716855293810193928101926001016115c7565b8254881684529284019260019283019201611599565b346101b05761029036611c98565b346101b05760403660031901126101b057600435602435336000526020906002825261164460ff60076040600020015416612088565b600181101580611765575b15611720573360005260038252600260406000200183600052825260ff604060002054166116dd57336000526002825261169260056040600020019182546120cd565b905533600052600281526006604060002001805490600182018092116108a957553360005260038152600260406000200191600052526040600020600160ff19825416179055600080f35b60405162461bcd60e51b815260048101839052601b60248201527a105b1c9958591e481c995d9a595dd959081d1a1a5cc8195d995b9d602a1b6044820152606490fd5b60405162461bcd60e51b815260048101839052601e60248201527f526174696e67206d757374206265206265747765656e203120616e64203500006044820152606490fd5b50600581111561164f565b346101b05760003660031901126101b0576001546040516001600160a01b039091168152602090f35b346101b05760203660031901126101b0573360005260026020526117c760ff60076040600020015416612088565b33600052600260205260036040600020016117e28154612059565b90553360005260036020526102906004356040600020612024565b346101b05760203660031901126101b0576001600160a01b0361181e611b64565b1660005260026020526118d160406000206040519061183c82611be8565b61184581611d18565b825261185360018201611d18565b80602084015260028201549182604085015260038101548060608601526004820154918260808701526005810154958660a082015260ff60076006840154938460c0850152015416151560e082015251958115156000146118f8576118df916118bb91612068565b935b60405197889760c0895260c0890190611ba8565b908782036020890152611ba8565b9360408601526060850152608084015260a08301520390f35b50506118df6000936118bd565b346101b05760603660031901126101b05761191e611b64565b6001805460443591906001600160a01b039081163381148015611a9b575b8015611a31575b61194d9150611fe7565b83169283600052600260205260ff6007604060002001541615611a1b575b508260005260039060036020526119886024356040600020612024565b60008481526003602052604081206001018054919390845b8381106119ee575b5050505050156119ce575b5060005260026020526003604060002001610dae8154612059565b6119e8908260005260036020526001604060002001612024565b816119b3565b866119f98284611b7a565b905490851b1c14611a0b5784016119a0565b50505050905083808080806119a8565b611a2b9060405161069981611c04565b8361196b565b5080151580611a45575b61194d9150611943565b506020602491604051928380926366d0ead360e01b82523360048301525afa80156107335761194d91600091611a7c575b50611a3b565b611a95915060203d60201161072c5761071e8183611c1f565b86611a76565b508160005416331461193c565b346101b05760403660031901126101b057611ac1611b64565b6024359060018060a01b038091166000526006602052604060002080548310156101b057602092611af191611b7a565b9190546040519260031b1c168152f35b346101b05760203660031901126101b0576001600160a01b03611b22611b64565b166000526002602052602060ff600760406000200154166040519015158152f35b346101b05760203660031901126101b057610290611b5f611b64565b611e89565b600435906001600160a01b03821682036101b057565b8054821015611b925760005260206000200190600090565b634e487b7160e01b600052603260045260246000fd5b919082519283825260005b848110611bd4575050826000602080949584010152601f8019910116010190565b602081830181015184830182015201611bb3565b61010081019081106001600160401b03821117610b3657604052565b602081019081106001600160401b03821117610b3657604052565b601f909101601f19168101906001600160401b03821190821017610b3657604052565b81601f820112156101b0578035906001600160401b038211610b365760405192611c76601f8401601f191660200185611c1f565b828452602083830101116101b057816000926020809301838601378301015290565b9060406003198301126101b0576001600160401b036004358181116101b05783611cc491600401611c42565b926024359182116101b057611cdb91600401611c42565b90565b90600182811c92168015611d0e575b6020831014611cf857565b634e487b7160e01b600052602260045260246000fd5b91607f1691611ced565b90604051918260008254611d2b81611cde565b90818452602094600191600181169081600014611d9b5750600114611d5c575b505050611d5a92500383611c1f565b565b600090815285812095935091905b818310611d83575050611d5a9350820101388080611d4b565b85548884018501529485019487945091830191611d6a565b92505050611d5a94925060ff191682840152151560051b820101388080611d4b565b90815180825260208080930193019160005b828110611ddd575050505090565b835185529381019392810192600101611dcf565b15611df857565b60405162461bcd60e51b8152602060048201526017602482015276496e76616c6964206163636f756e74206164647265737360481b6044820152606490fd5b600454600160401b811015610b36576001810180600455811015611b925760046000526000805160206125668339815191520180546001600160a01b0319166001600160a01b03909216919091179055565b600090338252602091600560205260409160ff60408320541615611f72576001600160a01b0381811693909290611ec1851515611df1565b815b338352600687528183208054821015611f005785611ee2838993611b7a565b90549060031b1c1614611ef757600101611ec3565b50505050505050565b5050509293509050338252600660205260408220805490600160401b821015611f5e5781610822916001611f379594018155611b7a565b7f663f26703bd344e9f8d6bc0b1f4e4fa06a81703a4eb10c90e62d60044e8be4ca339180a3565b634e487b7160e01b84526041600452602484fd5b60405162461bcd60e51b815260206004820152602f60248201527f4f6e6c7920756e6976657273616c206163636f756e74732063616e206c696e6b60448201526e206f74686572206163636f756e747360881b6064820152608490fd5b908160209103126101b0575180151581036101b05790565b15611fee57565b60405162461bcd60e51b815260206004820152600e60248201526d139bdd08185d5d1a1bdc9a5e995960921b6044820152606490fd5b8054600160401b811015610b365761204191600182018155611b7a565b819291549060031b91821b91600019901b1916179055565b60001981146108a95760010190565b8115612072570490565b634e487b7160e01b600052601260045260246000fd5b1561208f57565b60405162461bcd60e51b8152602060048201526016602482015275141c9bd99a5b1948191bd95cc81b9bdd08195e1a5cdd60521b6044820152606490fd5b919082018092116108a957565b60018060a01b031660005260026020526040600020604051906120fc82611be8565b61210581611d18565b825261211360018201611d18565b60208301526002810154604083015260038101546060830152600481015460808301526005810154918260a082015260e060ff60076006850154948560c08601520154161515910152801561216b57611cdb91612068565b5050600090565b90604051918281549182825260209260208301916000526020600020936000905b8282106121a957505050611d5a92500383611c1f565b855484526001958601958895509381019390910190612193565b604051926121d084611be8565b82845260208401524260408401526000606084015260006080840152600060a0840152600060c0840152600160e084015260018060a01b03811692836000526002602052604060002090805180519060018060401b038211610b365781906122388554611cde565b601f81116124a9575b50602090601f831160011461243d57600092612432575b50508160011b916000199060031b1c19161782555b60208101518051906001600160401b038211610b36576122906001850154611cde565b601f81116123eb575b50602090601f831160011461235c5793600760e0612338958561234c9996612333966000805160206125268339815191529c9a6000926123515750508160011b916000199060031b1c191617600185015560408101516002850155606081015160038501556080810151600485015560a0810151600585015560c081015160068501550151151591019060ff801983541691151516179055565b611e37565b604051918291602083526020830190611ba8565b0390a2565b0151905038806110bf565b906001850160005260206000209160005b601f19851681106123d3575060e061233895600186612333966000805160206125268339815191529c9a9660079661234c9d9a601f198116106123ba57505050811b0160018501556110d7565b015160001960f88460031b161c191690553880806111af565b9192602060018192868501518155019401920161236d565b600185016000526020600020601f840160051c81016020851061242b575b601f830160051c8201811061241f575050612299565b60008155600101612409565b5080612409565b015190503880612258565b9250846000526020600020906000935b601f198416851061248e576001945083601f19811610612475575b505050811b01825561226d565b015160001960f88460031b161c19169055388080612468565b8181015183556020948501946001909301929091019061244d565b909150846000526020600020601f840160051c8101602085106124f2575b90849392915b601f830160051c820181106124e3575050612241565b600081558594506001016124cd565b50806124c7565b6000546001600160a01b0316330361250d57565b60405163118cdaa760e01b8152336004820152602490fdfebafddecbd1dec1c1afb76d693f1de16901f521bdf29a02438e3e6806c0b8d9488be0079c531659141344cd1fd0a4f28419497f9722a3daafe3b4186f6b6457e08a35acfbc15ff81a39ae7d344fd709f28e8600b4aa8c65c6b64bfe7fe36bd19bdd635a4cd84864e37e4479dbfc2ec667acfa473c83c8422a8ac9d9d07599b01ca264697066735822122036220de1dda2820f71d626c7e1e0388afd44a645d3abe4f324353e5b09dad9eb64736f6c63430008160033",
  "linkReferences": {},
  "deployedLinkReferences": {}
}