{
  "_format": "hh-sol-artifact-1",
  "contractName": "EventRefund",
  "sourceName": "contracts/BIG/EventRefund.sol",
  "abi": [
    {
      "inputs": [],
      "stateMutability": "nonpayable",
      "type": "constructor"
    },
    {
      "inputs": [
        {
          "internalType": "address",
          "name": "owner",
          "type": "address"
        }
      ],
      "name": "OwnableInvalidOwner",
      "type": "error"
    },
    {
      "inputs": [
        {
          "internalType": "address",
          "name": "account",
          "type": "address"
        }
      ],
      "name": "OwnableUnauthorizedAccount",
      "type": "error"
    },
    {
      "inputs": [],
      "name": "ReentrancyGuardReentrantCall",
      "type": "error"
    },
    {
      "anonymous": false,
      "inputs": [
        {
          "indexed": true,
          "internalType": "address",
          "name": "eventContract",
          "type": "address"
        },
        {
          "indexed": true,
          "internalType": "uint256",
          "name": "eventId",
          "type": "uint256"
        },
        {
          "indexed": true,
          "internalType": "address",
          "name": "organizer",
          "type": "address"
        },
        {
          "indexed": false,
          "internalType": "enum EventRefund.CancellationReason",
          "name": "reason",
          "type": "uint8"
        },
        {
          "indexed": false,
          "internalType": "uint256",
          "name": "refundDeadline",
          "type": "uint256"
        }
      ],
      "name": "EventCancelled",
      "type": "event"
    },
    {
      "anonymous": false,
      "inputs": [
        {
          "indexed": true,
          "internalType": "address",
          "name": "previousOwner",
          "type": "address"
        },
        {
          "indexed": true,
          "internalType": "address",
          "name": "newOwner",
          "type": "address"
        }
      ],
      "name": "OwnershipTransferred",
      "type": "event"
    },
    {
      "anonymous": false,
      "inputs": [
        {
          "indexed": true,
          "internalType": "uint256",
          "name": "claimId",
          "type": "uint256"
        }
      ],
      "name": "RefundApproved",
      "type": "event"
    },
    {
      "anonymous": false,
      "inputs": [
        {
          "indexed": true,
          "internalType": "uint256",
          "name": "claimId",
          "type": "uint256"
        },
        {
          "indexed": true,
          "internalType": "address",
          "name": "claimant",
          "type": "address"
        },
        {
          "indexed": true,
          "internalType": "address",
          "name": "eventContract",
          "type": "address"
        },
        {
          "indexed": false,
          "internalType": "uint256",
          "name": "eventId",
          "type": "uint256"
        },
        {
          "indexed": false,
          "internalType": "uint256",
          "name": "tokenId",
          "type": "uint256"
        },
        {
          "indexed": false,
          "internalType": "uint256",
          "name": "refundAmount",
          "type": "uint256"
        }
      ],
      "name": "RefundClaimCreated",
      "type": "event"
    },
    {
      "anonymous": false,
      "inputs": [
        {
          "indexed": true,
          "internalType": "uint256",
          "name": "claimId",
          "type": "uint256"
        },
        {
          "indexed": true,
          "internalType": "address",
          "name": "claimant",
          "type": "address"
        },
        {
          "indexed": false,
          "internalType": "uint256",
          "name": "refundAmount",
          "type": "uint256"
        }
      ],
      "name": "RefundClaimed",
      "type": "event"
    },
    {
      "anonymous": false,
      "inputs": [
        {
          "indexed": true,
          "internalType": "address",
          "name": "eventContract",
          "type": "address"
        },
        {
          "indexed": true,
          "internalType": "uint256",
          "name": "eventId",
          "type": "uint256"
        },
        {
          "indexed": false,
          "internalType": "uint256",
          "name": "amount",
          "type": "uint256"
        }
      ],
      "name": "RefundPoolFunded",
      "type": "event"
    },
    {
      "anonymous": false,
      "inputs": [
        {
          "indexed": true,
          "internalType": "uint256",
          "name": "claimId",
          "type": "uint256"
        }
      ],
      "name": "RefundRejected",
      "type": "event"
    },
    {
      "inputs": [
        {
          "internalType": "uint256",
          "name": "claimId",
          "type": "uint256"
        }
      ],
      "name": "approveRefund",
      "outputs": [],
      "stateMutability": "nonpayable",
      "type": "function"
    },
    {
      "inputs": [
        {
          "internalType": "uint256[]",
          "name": "claimIds",
          "type": "uint256[]"
        }
      ],
      "name": "batchApproveRefunds",
      "outputs": [],
      "stateMutability": "nonpayable",
      "type": "function"
    },
    {
      "inputs": [
        {
          "internalType": "address",
          "name": "eventContract",
          "type": "address"
        },
        {
          "internalType": "uint256",
          "name": "eventId",
          "type": "uint256"
        },
        {
          "internalType": "uint256",
          "name": "tokenId",
          "type": "uint256"
        },
        {
          "internalType": "address",
          "name": "user",
          "type": "address"
        }
      ],
      "name": "canClaimRefund",
      "outputs": [
        {
          "internalType": "bool",
          "name": "",
          "type": "bool"
        }
      ],
      "stateMutability": "view",
      "type": "function"
    },
    {
      "inputs": [
        {
          "internalType": "address",
          "name": "eventContract",
          "type": "address"
        },
        {
          "internalType": "uint256",
          "name": "eventId",
          "type": "uint256"
        },
        {
          "internalType": "uint256",
          "name": "ticketPrice",
          "type": "uint256"
        },
        {
          "internalType": "uint256",
          "name": "totalTicketsSold",
          "type": "uint256"
        },
        {
          "internalType": "uint256",
          "name": "refundDeadlineDays",
          "type": "uint256"
        },
        {
          "internalType": "enum EventRefund.CancellationReason",
          "name": "reason",
          "type": "uint8"
        }
      ],
      "name": "cancelEvent",
      "outputs": [
        {
          "internalType": "bool",
          "name": "",
          "type": "bool"
        }
      ],
      "stateMutability": "nonpayable",
      "type": "function"
    },
    {
      "inputs": [
        {
          "internalType": "address",
          "name": "eventContract",
          "type": "address"
        },
        {
          "internalType": "uint256",
          "name": "eventId",
          "type": "uint256"
        },
        {
          "internalType": "uint256",
          "name": "tokenId",
          "type": "uint256"
        }
      ],
      "name": "claimRefund",
      "outputs": [
        {
          "internalType": "uint256",
          "name": "",
          "type": "uint256"
        }
      ],
      "stateMutability": "nonpayable",
      "type": "function"
    },
    {
      "inputs": [],
      "name": "emergencyWithdraw",
      "outputs": [],
      "stateMutability": "nonpayable",
      "type": "function"
    },
    {
      "inputs": [
        {
          "internalType": "address",
          "name": "",
          "type": "address"
        },
        {
          "internalType": "uint256",
          "name": "",
          "type": "uint256"
        }
      ],
      "name": "eventCancellations",
      "outputs": [
        {
          "internalType": "address",
          "name": "eventContract",
          "type": "address"
        },
        {
          "internalType": "uint256",
          "name": "eventId",
          "type": "uint256"
        },
        {
          "internalType": "address",
          "name": "organizer",
          "type": "address"
        },
        {
          "internalType": "uint256",
          "name": "ticketPrice",
          "type": "uint256"
        },
        {
          "internalType": "uint256",
          "name": "totalTicketsSold",
          "type": "uint256"
        },
        {
          "internalType": "uint256",
          "name": "refundDeadline",
          "type": "uint256"
        },
        {
          "internalType": "uint256",
          "name": "cancelledAt",
          "type": "uint256"
        },
        {
          "internalType": "enum EventRefund.CancellationReason",
          "name": "reason",
          "type": "uint8"
        },
        {
          "internalType": "bool",
          "name": "refundPoolFunded",
          "type": "bool"
        },
        {
          "internalType": "bool",
          "name": "active",
          "type": "bool"
        }
      ],
      "stateMutability": "view",
      "type": "function"
    },
    {
      "inputs": [
        {
          "internalType": "address",
          "name": "eventContract",
          "type": "address"
        },
        {
          "internalType": "uint256",
          "name": "eventId",
          "type": "uint256"
        }
      ],
      "name": "fundRefundPool",
      "outputs": [
        {
          "internalType": "bool",
          "name": "",
          "type": "bool"
        }
      ],
      "stateMutability": "payable",
      "type": "function"
    },
    {
      "inputs": [
        {
          "internalType": "address",
          "name": "eventContract",
          "type": "address"
        },
        {
          "internalType": "uint256",
          "name": "eventId",
          "type": "uint256"
        }
      ],
      "name": "getEventCancellation",
      "outputs": [
        {
          "components": [
            {
              "internalType": "address",
              "name": "eventContract",
              "type": "address"
            },
            {
              "internalType": "uint256",
              "name": "eventId",
              "type": "uint256"
            },
            {
              "internalType": "address",
              "name": "organizer",
              "type": "address"
            },
            {
              "internalType": "uint256",
              "name": "ticketPrice",
              "type": "uint256"
            },
            {
              "internalType": "uint256",
              "name": "totalTicketsSold",
              "type": "uint256"
            },
            {
              "internalType": "uint256",
              "name": "refundDeadline",
              "type": "uint256"
            },
            {
              "internalType": "uint256",
              "name": "cancelledAt",
              "type": "uint256"
            },
            {
              "internalType": "enum EventRefund.CancellationReason",
              "name": "reason",
              "type": "uint8"
            },
            {
              "internalType": "bool",
              "name": "refundPoolFunded",
              "type": "bool"
            },
            {
              "internalType": "bool",
              "name": "active",
              "type": "bool"
            }
          ],
          "internalType": "struct EventRefund.EventCancellation",
          "name": "",
          "type": "tuple"
        }
      ],
      "stateMutability": "view",
      "type": "function"
    },
    {
      "inputs": [
        {
          "internalType": "uint256",
          "name": "claimId",
          "type": "uint256"
        }
      ],
      "name": "getRefundClaim",
      "outputs": [
        {
          "components": [
            {
              "internalType": "address",
              "name": "claimant",
              "type": "address"
            },
            {
              "internalType": "address",
              "name": "eventContract",
              "type": "address"
            },
            {
              "internalType": "uint256",
              "name": "eventId",
              "type": "uint256"
            },
            {
              "internalType": "uint256",
              "name": "tokenId",
              "type": "uint256"
            },
            {
              "internalType": "uint256",
              "name": "refundAmount",
              "type": "uint256"
            },
            {
              "internalType": "enum EventRefund.RefundStatus",
              "name": "status",
              "type": "uint8"
            },
            {
              "internalType": "uint256",
              "name": "claimedAt",
              "type": "uint256"
            },
            {
              "internalType": "uint256",
              "name": "processedAt",
              "type": "uint256"
            },
            {
              "internalType": "bool",
              "name": "ticketBurned",
              "type": "bool"
            }
          ],
          "internalType": "struct EventRefund.RefundClaim",
          "name": "",
          "type": "tuple"
        }
      ],
      "stateMutability": "view",
      "type": "function"
    },
    {
      "inputs": [
        {
          "internalType": "address",
          "name": "eventContract",
          "type": "address"
        },
        {
          "internalType": "uint256",
          "name": "eventId",
          "type": "uint256"
        }
      ],
      "name": "getRefundPoolBalance",
      "outputs": [
        {
          "internalType": "uint256",
          "name": "",
          "type": "uint256"
        }
      ],
      "stateMutability": "view",
      "type": "function"
    },
    {
      "inputs": [],
      "name": "getRefundStats",
      "outputs": [
        {
          "internalType": "uint256",
          "name": "totalCancellationsCount",
          "type": "uint256"
        },
        {
          "internalType": "uint256",
          "name": "totalRefundsClaimedCount",
          "type": "uint256"
        },
        {
          "internalType": "uint256",
          "name": "totalRefundAmountPaid",
          "type": "uint256"
        }
      ],
      "stateMutability": "view",
      "type": "function"
    },
    {
      "inputs": [],
      "name": "owner",
      "outputs": [
        {
          "internalType": "address",
          "name": "",
          "type": "address"
        }
      ],
      "stateMutability": "view",
      "type": "function"
    },
    {
      "inputs": [],
      "name": "platformContract",
      "outputs": [
        {
          "internalType": "address",
          "name": "",
          "type": "address"
        }
      ],
      "stateMutability": "view",
      "type": "function"
    },
    {
      "inputs": [
        {
          "internalType": "uint256",
          "name": "",
          "type": "uint256"
        }
      ],
      "name": "refundClaims",
      "outputs": [
        {
          "internalType": "address",
          "name": "claimant",
          "type": "address"
        },
        {
          "internalType": "address",
          "name": "eventContract",
          "type": "address"
        },
        {
          "internalType": "uint256",
          "name": "eventId",
          "type": "uint256"
        },
        {
          "internalType": "uint256",
          "name": "tokenId",
          "type": "uint256"
        },
        {
          "internalType": "uint256",
          "name": "refundAmount",
          "type": "uint256"
        },
        {
          "internalType": "enum EventRefund.RefundStatus",
          "name": "status",
          "type": "uint8"
        },
        {
          "internalType": "uint256",
          "name": "claimedAt",
          "type": "uint256"
        },
        {
          "internalType": "uint256",
          "name": "processedAt",
          "type": "uint256"
        },
        {
          "internalType": "bool",
          "name": "ticketBurned",
          "type": "bool"
        }
      ],
      "stateMutability": "view",
      "type": "function"
    },
    {
      "inputs": [
        {
          "internalType": "address",
          "name": "",
          "type": "address"
        },
        {
          "internalType": "uint256",
          "name": "",
          "type": "uint256"
        }
      ],
      "name": "refundPool",
      "outputs": [
        {
          "internalType": "uint256",
          "name": "",
          "type": "uint256"
        }
      ],
      "stateMutability": "view",
      "type": "function"
    },
    {
      "inputs": [
        {
          "internalType": "uint256",
          "name": "claimId",
          "type": "uint256"
        }
      ],
      "name": "rejectRefund",
      "outputs": [],
      "stateMutability": "nonpayable",
      "type": "function"
    },
    {
      "inputs": [],
      "name": "renounceOwnership",
      "outputs": [],
      "stateMutability": "nonpayable",
      "type": "function"
    },
    {
      "inputs": [
        {
          "internalType": "address",
          "name": "_platform",
          "type": "address"
        }
      ],
      "name": "setPlatformContract",
      "outputs": [],
      "stateMutability": "nonpayable",
      "type": "function"
    },
    {
      "inputs": [
        {
          "internalType": "address",
          "name": "",
          "type": "address"
        },
        {
          "internalType": "uint256",
          "name": "",
          "type": "uint256"
        },
        {
          "internalType": "uint256",
          "name": "",
          "type": "uint256"
        }
      ],
      "name": "tokenClaimId",
      "outputs": [
        {
          "internalType": "uint256",
          "name": "",
          "type": "uint256"
        }
      ],
      "stateMutability": "view",
      "type": "function"
    },
    {
      "inputs": [],
      "name": "totalCancellations",
      "outputs": [
        {
          "internalType": "uint256",
          "name": "",
          "type": "uint256"
        }
      ],
      "stateMutability": "view",
      "type": "function"
    },
    {
      "inputs": [],
      "name": "totalRefundAmount",
      "outputs": [
        {
          "internalType": "uint256",
          "name": "",
          "type": "uint256"
        }
      ],
      "stateMutability": "view",
      "type": "function"
    },
    {
      "inputs": [],
      "name": "totalRefundsClaimed",
      "outputs": [
        {
          "internalType": "uint256",
          "name": "",
          "type": "uint256"
        }
      ],
      "stateMutability": "view",
      "type": "function"
    },
    {
      "inputs": [
        {
          "internalType": "address",
          "name": "newOwner",
          "type": "address"
        }
      ],
      "name": "transferOwnership",
      "outputs": [],
      "stateMutability": "nonpayable",
      "type": "function"
    },
    {
      "inputs": [
        {
          "internalType": "address",
          "name": "eventContract",
          "type": "address"
        },
        {
          "internalType": "uint256",
          "name": "eventId",
          "type": "uint256"
        }
      ],
      "name": "withdrawUnclaimedRefunds",
      "outputs": [],
      "stateMutability": "nonpayable",
      "type": "function"
    }
  ],
  "bytecode": "0x6080806040523461007e5733156100685760008054336001600160a01b03198216811783556040519290916001600160a01b0316907f8be0079c531659141344cd1fd0a4f28419497f9722a3daafe3b4186f6b6457e09080a360018055611f9d90816100848239f35b631e4fbdf760e01b815260006004820152602490fd5b600080fdfe608080604052600436101561001357600080fd5b60003560e01c9081631627469514611567575080631d762848146114a55780632c4e9b04146114875780632d2bd7131461137a578063348a71a6146112ed57806354bb1252146112bb578063638fea3a1461117457806364ef1c18146111295780636d465749146109745780636f0203ba146110ab5780636fa6316c1461108d578063715018a6146110345780637a32fab914610c3f5780638056779c14610a5c57806380a07ecc146109bc57806385ab1ded146109745780638da5cb5b1461094b5780638f0fbcd5146107ef578063931f7daf1461049c578063a44760f21461040f578063b0d3068d146103c8578063b963f8ca146103aa578063c31637f214610213578063db2e21bc146101c05763f2fde38b1461013257600080fd5b346101bb5760203660031901126101bb5761014b61158b565b610153611a21565b6001600160a01b039081169081156101a257600054826001600160601b0360a01b821617600055167f8be0079c531659141344cd1fd0a4f28419497f9722a3daafe3b4186f6b6457e0600080a3005b604051631e4fbdf760e01b815260006004820152602490fd5b600080fd5b346101bb5760003660031901126101bb576101d9611a21565b6000805481908190819047906001600160a01b031682821561020a575bf1156101fe57005b6040513d6000823e3d90fd5b506108fc6101f6565b346101bb5760403660031901126101bb5761014061022f61158b565b6040519061023c82611684565b6000825260006020830152600060408301526000606083015260006080830152600060a0830152600060c0830152600060e08301526000610120610100938285820152015260018060a01b031660005260036020526040600020602435600052602052610120604060002060ff6007604051926102b884611684565b80546001600160a01b0390811685526001820154602086015260028201541660408501526003810154606085015260048101546080850152600581015460a0850152600681015460c08501520154818116610312816115a1565b60e0840152818160081c1615158584015260101c161515828201526040519260018060a01b0382511684526020820151602085015260018060a01b036040830151166040850152606082015160608501526080820151608085015260a082015160a085015260c082015160c085015260e082015161038f816115a1565b60e08501528082015115159084015201511515610120820152f35b346101bb5760003660031901126101bb576020600854604051908152f35b346101bb576103d6366115c1565b9160018060a01b031660005260056020526040600020906000526020526040600020906000526020526020604060002054604051908152f35b346101bb5760203660031901126101bb5761042861158b565b610430611a21565b6001600160a01b03168015610457576001600160601b0360a01b6002541617600255600080f35b60405162461bcd60e51b815260206004820152601860248201527f496e76616c696420706c6174666f726d206164647265737300000000000000006044820152606490fd5b346101bb5760c03660031901126101bb576104b561158b565b602490606435604435608435600560a43510156101bb576007811015806107e3575b1561079f57811561076457821561072e5760018060a01b03841660005260036020526040600020853560005260205260ff60076040600020015460101c166106ea5762015180908181029181830414901517156106d5576105389042611a14565b916040519161054683611684565b6001600160a01b0385168352853560208401523360408401526060830152608082015260a081018290524260c082015261058160a4356115a1565b60a43560e082015260006101008201526101208101906001825260018060a01b0384166000526003602052604060002085356000526020526007604060002060018060a01b038351166001600160601b0360a01b908183541617825560208401516001830155600282019060018060a01b0360408601511690825416179055606083015160038201556080830151600482015560a0830151600582015560c08301516006820155019160e082015191610639836115a1565b610642836115a1565b60ff62ff000061ff006101008754940151151560081b169351151560101b1693169062ffffff1916171717905561067a6007546119bb565b6007556040519061068c60a4356115a1565b60a43582526020820152339235916001600160a01b0316907febc39c6e264298854761e935635a074caa69adf8301d41a528df8d217f0054aa90604090a4602060405160018152f35b84634e487b7160e01b60005260116004526000fd5b60405162461bcd60e51b8152602060048201526017818701527f4576656e7420616c72656164792063616e63656c6c65640000000000000000006044820152606490fd5b60405162461bcd60e51b815260206004820152600f818701526e139bc81d1a58dad95d1cc81cdbdb19608a1b6044820152606490fd5b60405162461bcd60e51b81526020600482015260148187015273496e76616c6964207469636b657420707269636560601b6044820152606490fd5b60405162461bcd60e51b8152602060048201526017818701527f496e76616c696420726566756e6420646561646c696e650000000000000000006044820152606490fd5b5061016d8111156104d7565b346101bb5760403660031901126101bb5761080861158b565b602435610813611a4d565b60018060a01b038092169182600052600560209160038352604060002084600052835261086960406000209161085260ff600785015460101c1661192d565b80600284015416331490811561093d575b506119ca565b01544211156108f95782600052600a815260406000208260005281526040600020549283156108bd576000938493849384938452600a815260408420918452528160408120553382f1156101fe5760018055005b60405162461bcd60e51b81526004810183905260146024820152734e6f20756e636c61696d656420726566756e647360601b6044820152606490fd5b6064906040519062461bcd60e51b82526004820152601a60248201527f526566756e6420646561646c696e65206e6f74207061737365640000000000006044820152fd5b905060005416331487610863565b346101bb5760003660031901126101bb576000546040516001600160a01b039091168152602090f35b346101bb5760403660031901126101bb576001600160a01b0361099561158b565b16600052600a60205260406000206024356000526020526020604060002054604051908152f35b346101bb5760203660031901126101bb576004356000526004602052610120604060002060018060a01b039081815416916001820154169060028101546003820154600483015460ff6005850154169160068501549360ff6008600788015497015416966040519889526020890152604088015260608701526080860152610a43816115a1565b60a085015260c084015260e08301521515610100820152f35b60403660031901126101bb57610a7061158b565b602435610a7b611a4d565b60018060a01b038092168060005260209260038452604060002083600052845260406000209060ff6007830191610ad2835491610abc848460101c1661192d565b806002870154163314908115610c3157506119ca565b60081c16610bec576004600383015492015491828102928184041490151715610bd657813410610b915782600052600a855260406000208460005285523460406000205561010061ff001982541617905583813411610b62575b7f26da8e17d94e67b7d08f99d96908a107527f0d67f3daf3e48f3404409d93abe991604051908152a36001805560405160018152f35b506000808080610b728534611a07565b818115610b88575b3390f1156101fe5783610b2c565b506108fc610b7a565b60405162461bcd60e51b815260048101869052601f60248201527f496e73756666696369656e7420726566756e6420706f6f6c20616d6f756e74006044820152606490fd5b634e487b7160e01b600052601160045260246000fd5b60405162461bcd60e51b815260048101869052601a60248201527f526566756e6420706f6f6c20616c72656164792066756e6465640000000000006044820152606490fd5b905060005416331489610863565b346101bb57610c4d366115c1565b9190610c57611a4d565b60018060a01b038092169081600052602092600384526040600020826000528452604060002060ff6007820154610c92828260101c1661192d565b60081c1615610fef5760058101544211610fb15783600052600585526040600020836000528552604060002086600052855260406000205480610efb575b506040516331a9108f60e11b8152600481018790528581602481885afa9081156101fe57600091610ece575b508233911603610e9257600094957f4d28f9965dd7f506817798b08778bda5bd090efc7644ddcf4f25472f7ce1d16791858752600a8852604087208588528852610d52600360408920549201918254111561196f565b610d5d6006546119bb565b9687948560065560ff60088454888d60405192610d7984611651565b3384528d8285019081528d6040860190815260608601918c83526080870193845260a087019960028b52600460c089019642885260e08a0198428a526101008b019e8f5260005252806040600020985116906001600160601b0360a01b91828a5416178955600189019251169082541617905551600286015551600385015551600484015560058301955195610e0e876115a1565b610e17876115a1565b85199686888354169116179055516006830155516007820155019251151591835416911617905585600052600588526040600020856000528852604060002082600052885283604060002055610e6c84611a93565b54604080519586526020860192909252908401523392606090a460018055604051908152f35b60405162461bcd60e51b81526004810186905260146024820152732737ba103a3432903a34b1b5b2ba1037bbb732b960611b6044820152606490fd5b610eee9150863d8811610ef4575b610ee681836116b5565b8101906116d7565b87610cfc565b503d610edc565b6000526004855260ff60056040600020015416610f17816115a1565b60048114610f735780610f2b6001926115a1565b14610f365786610cd0565b60405162461bcd60e51b8152600481018690526015602482015274436c61696d20616c72656164792070656e64696e6760581b6044820152606490fd5b60405162461bcd60e51b81526004810187905260166024820152751499599d5b9908185b1c9958591e4818db185a5b595960521b6044820152606490fd5b60405162461bcd60e51b81526004810186905260166024820152751499599d5b9908191958591b1a5b99481c185cdcd95960521b6044820152606490fd5b60405162461bcd60e51b815260048101869052601a60248201527f526566756e6420706f6f6c206e6f742066756e646564207965740000000000006044820152606490fd5b346101bb5760003660031901126101bb5761104d611a21565b600080546001600160a01b0319811682556001600160a01b03167f8be0079c531659141344cd1fd0a4f28419497f9722a3daafe3b4186f6b6457e08280a3005b346101bb5760003660031901126101bb576020600954604051908152f35b346101bb5760203660031901126101bb576004356110c7611a21565b806000526004602052604060002060058101600381546110f5600160ff83166110ef816115a1565b14611611565b60ff19161790556007429101557fcd310aec5fd008c92a8b717bcc35f96c945fa4edece9d6a4a0d7fa0e1c509efb600080a2005b346101bb5760803660031901126101bb5761114261158b565b606435906001600160a01b03821682036101bb5760209161116a9160443590602435906116f6565b6040519015158152f35b346101bb5760203660031901126101bb5761012060405161119481611651565b6000815260006020820152600060408201526000606082015260006080820152600060a0820152600060c0820152600060e08201526000610100809201526004356000526004602052604060002090604051916111f083611651565b60018060a01b03908181541684528160018201541691602085019283526002820154604086019081526003830154606087019081526004840154906080880191825260ff6005860154169260a0890193611249816115a1565b845260068601549460c08a0195865260ff600860078901549860e08d01998a5201541697898b019815158952816040519b51168b52511660208a0152516040890152516060880152516080870152516112a1816115a1565b60a08601525160c08501525160e084015251151590820152f35b346101bb5760003660031901126101bb5760075460085460095460408051938452602084019290925290820152606090f35b346101bb5760203660031901126101bb57600435611309611a21565b611311611a4d565b80600052600460205260406000206005810160028154611339600160ff83166110ef816115a1565b60ff191617905560074291015561134f81611a93565b7f0cec41c850484bb431beff673efed0d9d32b7110d6910662f6729e64f050ca6a600080a260018055005b346101bb576020806003193601126101bb5767ffffffffffffffff6004358181116101bb57366023820112156101bb5780600401359182116101bb576024810192600591602436918560051b0101116101bb576113d5611a21565b6113dd611a4d565b60005b8381106113ed5760018055005b806113fb60019286886115eb565b3560005260048352604060002084810180548460ff821661141b816115a1565b1461142a575b505050016113e0565b60029060ff191617905560074291015561144e6114488287896115eb565b35611a93565b6114598186886115eb565b357f0cec41c850484bb431beff673efed0d9d32b7110d6910662f6729e64f050ca6a600080a2868080611421565b346101bb5760003660031901126101bb576020600754604051908152f35b346101bb5760403660031901126101bb576101406114c161158b565b60018060a01b038091166000526003602052604060002060243560005260205260ff604060002082815416926001820154906002830154169160038101546004820154600583015491600760068501549401549587871695604051998a5260208a015260408901526060880152608087015260a086015260c0850152611546816115a1565b60e0840152818160081c16151561010084015260101c161515610120820152f35b346101bb5760003660031901126101bb576002546001600160a01b03168152602090f35b600435906001600160a01b03821682036101bb57565b600511156115ab57565b634e487b7160e01b600052602160045260246000fd5b60609060031901126101bb576004356001600160a01b03811681036101bb57906024359060443590565b91908110156115fb5760051b0190565b634e487b7160e01b600052603260045260246000fd5b1561161857565b60405162461bcd60e51b8152602060048201526011602482015270436c61696d206e6f742070656e64696e6760781b6044820152606490fd5b610120810190811067ffffffffffffffff82111761166e57604052565b634e487b7160e01b600052604160045260246000fd5b610140810190811067ffffffffffffffff82111761166e57604052565b67ffffffffffffffff811161166e57604052565b90601f8019910116810190811067ffffffffffffffff82111761166e57604052565b908160209103126101bb57516001600160a01b03811681036101bb5790565b9092919260018060a01b038092169360009480865260209160038352604094858820858952845285882096865161172c81611684565b8289541681526001890154868201528260028a0154168882015260038901549860608201998a5260048101546080830152600760058201549160a08401928352600681015460c0850152015460ff8116611785816115a1565b60e08401526101009260ff808360081c16159283158684015260101c161590610120821591015261191f576119125751421161190657848a5260058652878a20878b528652878a20848b528652878a20549081611861575b50508651926331a9108f60e11b845260048401528483602481875afa899381611842575b5061181157505050505050505090565b811691160361183a578552600a8152828520918552528220549051116118375750600190565b90565b505050505090565b61185a919450863d8811610ef457610ee681836116b5565b9238611801565b6004918b52818752888b209089519061187982611651565b858354168252856001840154168983015260028301548b8301526003830154606083015283830154608083015260ff600881600586015416946118bb866115a1565b8560a0860152600681015460c0860152600781015460e086015201541615159101526118e6816115a1565b6118ef816115a1565b146118fb5738806117dd565b505050505050505090565b50505050505050505090565b5050505050505050505090565b505050505050505050505090565b1561193457565b60405162461bcd60e51b8152602060048201526013602482015272115d995b9d081b9bdd0818d85b98d95b1b1959606a1b6044820152606490fd5b1561197657565b60405162461bcd60e51b815260206004820152601860248201527f496e73756666696369656e7420726566756e6420706f6f6c00000000000000006044820152606490fd5b6000198114610bd65760010190565b156119d157565b60405162461bcd60e51b815260206004820152600e60248201526d139bdd08185d5d1a1bdc9a5e995960921b6044820152606490fd5b91908203918211610bd657565b91908201809211610bd657565b6000546001600160a01b03163303611a3557565b60405163118cdaa760e01b8152336004820152602490fd5b600260015414611a5e576002600155565b604051633ee5aeb560e01b8152600490fd5b60005b838110611a835750506000910152565b8181015183820152602001611a73565b906000828152600460208181526040918284209160058301600260ff825416611abb816115a1565b03611e3d57859697600185979697019060018060a01b0392838084541693848a5288611b218c600283019c8d54600a8c528282208183528c528c83832054950199611b0a8b548097101561196f565b8252600a8c528282209082528b5220918254611a07565b9055541685600389015460248c51809481936331a9108f60e11b83528c8301525afa908115611e33578b8087819482948391611e16575b508c54821691168114611e02575b875490828215611df9575bf115611def578560ff19825416179055426007870155611b926008546119bb565b600855611ba28254600954611a14565b6009557ff3f402280ef0a7905e124aa621b65eaeb2725c343e8b36d398ed78c29daf285c848488541693548a51908152a3806002541680611be8575b5050505050505050565b828491885192838092630e64f35d60e01b82525afa908115611db1579082918991611dd2575b50168554813b15611dce578891602483928a519485938492630202eeef60e41b84528a8401525af1611dbb575b5082828260025416885192838092630cf3be5160e21b82525afa908115611db157918091611c76938a91611d94575b50169454169454611e91565b94611cc9603c82518098611cb9868301967f526566756e642070726f63657373656420666f72206576656e74202300000000885282519283918686019101611a70565b810103601c8101895201876116b5565b833b15611d90576101248795949392611d31879351988997889663e567d29d60e01b885287015260806024870152601060848701526f1499599d5b9908141c9bd8d95cdcd95960821b60a487015260c060448701525180928160c488015260e4870190611a70565b601f801991011683016d524546554e445f5355434345535360901b6101048583039260e084016064880152600e60e4820152015201925af1611d79575b808080808080611bde565b611d8382916116a1565b611d8d5780611d6e565b80fd5b8680fd5b611dab9150853d8711610ef457610ee681836116b5565b38611c6a565b87513d8a823e3d90fd5b611dc7909791976116a1565b9538611c3b565b8880fd5b611de99150843d8611610ef457610ee681836116b5565b38611c0e565b88513d8b823e3d90fd5b506108fc611b71565b60088c01805460ff19166001179055611b66565b611e2d91508b3d8d11610ef457610ee681836116b5565b38611b58565b8a513d8d823e3d90fd5b845162461bcd60e51b8152808401839052601260248201527110db185a5b481b9bdd08185c1c1c9bdd995960721b6044820152606490fd5b67ffffffffffffffff811161166e57601f01601f191660200190565b8015611f3857600081805b611f245750611eaa81611e75565b90611eb860405192836116b5565b808252601f19611ec782611e75565b013660208401375b80928015611f1d576000198201918211610bd6578193600a926030908484068201809211610bd657855111156115fb5760f81b6001600160f81b03191660001a908401601f01530491611ecf565b5050905090565b90611f30600a916119bb565b910480611e9c565b506040516040810181811067ffffffffffffffff82111761166e5760405260018152600360fc1b60208201529056fea26469706673582212207e4fab249e0070c7d8cdeac5dbe315960b3b5e019b15258bf967744200cd45eb64736f6c63430008160033",
  "linkReferences": {},
  "deployedLinkReferences": {}
}