{
  "_format": "hh-sol-artifact-1",
  "contractName": "EventOrganizer",
  "sourceName": "contracts/BIG/EventOrganizer.sol",
  "abi": [
    {
      "inputs": [],
      "stateMutability": "nonpayable",
      "type": "constructor"
    },
    {
      "inputs": [
        {
          "internalType": "address",
          "name": "owner",
          "type": "address"
        }
      ],
      "name": "OwnableInvalidOwner",
      "type": "error"
    },
    {
      "inputs": [
        {
          "internalType": "address",
          "name": "account",
          "type": "address"
        }
      ],
      "name": "OwnableUnauthorizedAccount",
      "type": "error"
    },
    {
      "anonymous": false,
      "inputs": [
        {
          "indexed": true,
          "internalType": "address",
          "name": "eventContract",
          "type": "address"
        },
        {
          "indexed": true,
          "internalType": "address",
          "name": "creator",
          "type": "address"
        },
        {
          "indexed": false,
          "internalType": "string",
          "name": "metadataUri",
          "type": "string"
        }
      ],
      "name": "EventCreated",
      "type": "event"
    },
    {
      "anonymous": false,
      "inputs": [
        {
          "indexed": true,
          "internalType": "address",
          "name": "organizer",
          "type": "address"
        },
        {
          "indexed": false,
          "internalType": "string",
          "name": "profileUri",
          "type": "string"
        }
      ],
      "name": "OrganizerRegistered",
      "type": "event"
    },
    {
      "anonymous": false,
      "inputs": [
        {
          "indexed": true,
          "internalType": "address",
          "name": "organizer",
          "type": "address"
        },
        {
          "indexed": false,
          "internalType": "bool",
          "name": "verified",
          "type": "bool"
        }
      ],
      "name": "OrganizerVerified",
      "type": "event"
    },
    {
      "anonymous": false,
      "inputs": [
        {
          "indexed": true,
          "internalType": "address",
          "name": "previousOwner",
          "type": "address"
        },
        {
          "indexed": true,
          "internalType": "address",
          "name": "newOwner",
          "type": "address"
        }
      ],
      "name": "OwnershipTransferred",
      "type": "event"
    },
    {
      "anonymous": false,
      "inputs": [
        {
          "indexed": true,
          "internalType": "address",
          "name": "organizer",
          "type": "address"
        },
        {
          "indexed": false,
          "internalType": "address",
          "name": "newAddress",
          "type": "address"
        }
      ],
      "name": "PayoutAddressUpdated",
      "type": "event"
    },
    {
      "inputs": [
        {
          "internalType": "uint256",
          "name": "eventIndex",
          "type": "uint256"
        }
      ],
      "name": "deactivateEvent",
      "outputs": [],
      "stateMutability": "nonpayable",
      "type": "function"
    },
    {
      "inputs": [
        {
          "internalType": "uint256",
          "name": "",
          "type": "uint256"
        }
      ],
      "name": "deployedEvents",
      "outputs": [
        {
          "internalType": "address",
          "name": "eventContract",
          "type": "address"
        },
        {
          "internalType": "address",
          "name": "organizer",
          "type": "address"
        },
        {
          "internalType": "uint256",
          "name": "eventId",
          "type": "uint256"
        },
        {
          "internalType": "uint256",
          "name": "deployedAt",
          "type": "uint256"
        },
        {
          "internalType": "bool",
          "name": "isActive",
          "type": "bool"
        }
      ],
      "stateMutability": "view",
      "type": "function"
    },
    {
      "inputs": [],
      "name": "getActiveEvents",
      "outputs": [
        {
          "components": [
            {
              "internalType": "address",
              "name": "eventContract",
              "type": "address"
            },
            {
              "internalType": "address",
              "name": "organizer",
              "type": "address"
            },
            {
              "internalType": "uint256",
              "name": "eventId",
              "type": "uint256"
            },
            {
              "internalType": "uint256",
              "name": "deployedAt",
              "type": "uint256"
            },
            {
              "internalType": "bool",
              "name": "isActive",
              "type": "bool"
            }
          ],
          "internalType": "struct EventOrganizer.DeployedEvent[]",
          "name": "",
          "type": "tuple[]"
        }
      ],
      "stateMutability": "view",
      "type": "function"
    },
    {
      "inputs": [],
      "name": "getAllDeployedEvents",
      "outputs": [
        {
          "components": [
            {
              "internalType": "address",
              "name": "eventContract",
              "type": "address"
            },
            {
              "internalType": "address",
              "name": "organizer",
              "type": "address"
            },
            {
              "internalType": "uint256",
              "name": "eventId",
              "type": "uint256"
            },
            {
              "internalType": "uint256",
              "name": "deployedAt",
              "type": "uint256"
            },
            {
              "internalType": "bool",
              "name": "isActive",
              "type": "bool"
            }
          ],
          "internalType": "struct EventOrganizer.DeployedEvent[]",
          "name": "",
          "type": "tuple[]"
        }
      ],
      "stateMutability": "view",
      "type": "function"
    },
    {
      "inputs": [],
      "name": "getDeployedEventsCount",
      "outputs": [
        {
          "internalType": "uint256",
          "name": "",
          "type": "uint256"
        }
      ],
      "stateMutability": "view",
      "type": "function"
    },
    {
      "inputs": [
        {
          "internalType": "uint256",
          "name": "eventIndex",
          "type": "uint256"
        }
      ],
      "name": "getEventDetails",
      "outputs": [
        {
          "internalType": "address",
          "name": "eventContract",
          "type": "address"
        },
        {
          "internalType": "address",
          "name": "organizer",
          "type": "address"
        },
        {
          "internalType": "uint256",
          "name": "eventId",
          "type": "uint256"
        },
        {
          "internalType": "uint256",
          "name": "deployedAt",
          "type": "uint256"
        },
        {
          "internalType": "bool",
          "name": "isActive",
          "type": "bool"
        }
      ],
      "stateMutability": "view",
      "type": "function"
    },
    {
      "inputs": [
        {
          "internalType": "address",
          "name": "organizer",
          "type": "address"
        }
      ],
      "name": "getEventsByOrganizer",
      "outputs": [
        {
          "internalType": "uint256[]",
          "name": "",
          "type": "uint256[]"
        }
      ],
      "stateMutability": "view",
      "type": "function"
    },
    {
      "inputs": [],
      "name": "getOrganizerCount",
      "outputs": [
        {
          "internalType": "uint256",
          "name": "",
          "type": "uint256"
        }
      ],
      "stateMutability": "view",
      "type": "function"
    },
    {
      "inputs": [
        {
          "internalType": "address",
          "name": "organizerAddr",
          "type": "address"
        }
      ],
      "name": "getOrganizerDetails",
      "outputs": [
        {
          "internalType": "string",
          "name": "profileUri",
          "type": "string"
        },
        {
          "internalType": "string",
          "name": "contentHash",
          "type": "string"
        },
        {
          "internalType": "uint256",
          "name": "registrationDate",
          "type": "uint256"
        },
        {
          "internalType": "bool",
          "name": "isVerified",
          "type": "bool"
        },
        {
          "internalType": "uint256",
          "name": "totalEvents",
          "type": "uint256"
        },
        {
          "internalType": "uint256",
          "name": "totalTicketsSold",
          "type": "uint256"
        },
        {
          "internalType": "uint256",
          "name": "averageRating",
          "type": "uint256"
        }
      ],
      "stateMutability": "view",
      "type": "function"
    },
    {
      "inputs": [
        {
          "internalType": "address",
          "name": "organizer",
          "type": "address"
        }
      ],
      "name": "getOrganizerPayoutAddress",
      "outputs": [
        {
          "internalType": "address",
          "name": "",
          "type": "address"
        }
      ],
      "stateMutability": "view",
      "type": "function"
    },
    {
      "inputs": [
        {
          "internalType": "address",
          "name": "_organizer",
          "type": "address"
        }
      ],
      "name": "getOrganizerRating",
      "outputs": [
        {
          "internalType": "uint256",
          "name": "",
          "type": "uint256"
        }
      ],
      "stateMutability": "view",
      "type": "function"
    },
    {
      "inputs": [
        {
          "internalType": "address",
          "name": "organizer",
          "type": "address"
        }
      ],
      "name": "getPastEventsByOrganizer",
      "outputs": [
        {
          "components": [
            {
              "internalType": "address",
              "name": "eventContract",
              "type": "address"
            },
            {
              "internalType": "address",
              "name": "organizer",
              "type": "address"
            },
            {
              "internalType": "uint256",
              "name": "eventId",
              "type": "uint256"
            },
            {
              "internalType": "uint256",
              "name": "deployedAt",
              "type": "uint256"
            },
            {
              "internalType": "bool",
              "name": "isActive",
              "type": "bool"
            }
          ],
          "internalType": "struct EventOrganizer.DeployedEvent[]",
          "name": "",
          "type": "tuple[]"
        }
      ],
      "stateMutability": "view",
      "type": "function"
    },
    {
      "inputs": [
        {
          "internalType": "address",
          "name": "organizer",
          "type": "address"
        }
      ],
      "name": "getUpcomingEventsByOrganizer",
      "outputs": [
        {
          "components": [
            {
              "internalType": "address",
              "name": "eventContract",
              "type": "address"
            },
            {
              "internalType": "address",
              "name": "organizer",
              "type": "address"
            },
            {
              "internalType": "uint256",
              "name": "eventId",
              "type": "uint256"
            },
            {
              "internalType": "uint256",
              "name": "deployedAt",
              "type": "uint256"
            },
            {
              "internalType": "bool",
              "name": "isActive",
              "type": "bool"
            }
          ],
          "internalType": "struct EventOrganizer.DeployedEvent[]",
          "name": "",
          "type": "tuple[]"
        }
      ],
      "stateMutability": "view",
      "type": "function"
    },
    {
      "inputs": [],
      "name": "getVerifiedOrganizers",
      "outputs": [
        {
          "internalType": "address[]",
          "name": "",
          "type": "address[]"
        }
      ],
      "stateMutability": "view",
      "type": "function"
    },
    {
      "inputs": [
        {
          "internalType": "address",
          "name": "organizer",
          "type": "address"
        },
        {
          "internalType": "uint256",
          "name": "amount",
          "type": "uint256"
        }
      ],
      "name": "incrementTicketsSold",
      "outputs": [],
      "stateMutability": "nonpayable",
      "type": "function"
    },
    {
      "inputs": [
        {
          "internalType": "address",
          "name": "organizer",
          "type": "address"
        }
      ],
      "name": "isVerifiedOrganizer",
      "outputs": [
        {
          "internalType": "bool",
          "name": "",
          "type": "bool"
        }
      ],
      "stateMutability": "view",
      "type": "function"
    },
    {
      "inputs": [
        {
          "internalType": "address",
          "name": "",
          "type": "address"
        },
        {
          "internalType": "uint256",
          "name": "",
          "type": "uint256"
        }
      ],
      "name": "organizerEvents",
      "outputs": [
        {
          "internalType": "uint256",
          "name": "",
          "type": "uint256"
        }
      ],
      "stateMutability": "view",
      "type": "function"
    },
    {
      "inputs": [
        {
          "internalType": "address",
          "name": "organizer",
          "type": "address"
        }
      ],
      "name": "organizerExists",
      "outputs": [
        {
          "internalType": "bool",
          "name": "",
          "type": "bool"
        }
      ],
      "stateMutability": "view",
      "type": "function"
    },
    {
      "inputs": [
        {
          "internalType": "uint256",
          "name": "",
          "type": "uint256"
        }
      ],
      "name": "organizerList",
      "outputs": [
        {
          "internalType": "address",
          "name": "",
          "type": "address"
        }
      ],
      "stateMutability": "view",
      "type": "function"
    },
    {
      "inputs": [
        {
          "internalType": "address",
          "name": "",
          "type": "address"
        }
      ],
      "name": "organizers",
      "outputs": [
        {
          "internalType": "string",
          "name": "profileUri",
          "type": "string"
        },
        {
          "internalType": "string",
          "name": "contentHash",
          "type": "string"
        },
        {
          "internalType": "uint256",
          "name": "registrationDate",
          "type": "uint256"
        },
        {
          "internalType": "bool",
          "name": "isVerified",
          "type": "bool"
        },
        {
          "internalType": "uint256",
          "name": "totalEvents",
          "type": "uint256"
        },
        {
          "internalType": "uint256",
          "name": "totalTicketsSold",
          "type": "uint256"
        },
        {
          "internalType": "uint256",
          "name": "ratingSum",
          "type": "uint256"
        },
        {
          "internalType": "uint256",
          "name": "ratingCount",
          "type": "uint256"
        },
        {
          "internalType": "address",
          "name": "payoutAddress",
          "type": "address"
        },
        {
          "internalType": "bool",
          "name": "exists",
          "type": "bool"
        }
      ],
      "stateMutability": "view",
      "type": "function"
    },
    {
      "inputs": [],
      "name": "owner",
      "outputs": [
        {
          "internalType": "address",
          "name": "",
          "type": "address"
        }
      ],
      "stateMutability": "view",
      "type": "function"
    },
    {
      "inputs": [],
      "name": "platformContract",
      "outputs": [
        {
          "internalType": "address",
          "name": "",
          "type": "address"
        }
      ],
      "stateMutability": "view",
      "type": "function"
    },
    {
      "inputs": [
        {
          "internalType": "address",
          "name": "eventContract",
          "type": "address"
        },
        {
          "internalType": "address",
          "name": "creator",
          "type": "address"
        },
        {
          "internalType": "uint256",
          "name": "eventId",
          "type": "uint256"
        }
      ],
      "name": "recordEventCreation",
      "outputs": [],
      "stateMutability": "nonpayable",
      "type": "function"
    },
    {
      "inputs": [
        {
          "internalType": "address",
          "name": "eventContract",
          "type": "address"
        },
        {
          "internalType": "string",
          "name": "_eventName",
          "type": "string"
        }
      ],
      "name": "registerEvent",
      "outputs": [
        {
          "internalType": "uint256",
          "name": "",
          "type": "uint256"
        }
      ],
      "stateMutability": "nonpayable",
      "type": "function"
    },
    {
      "inputs": [
        {
          "internalType": "string",
          "name": "_profileUri",
          "type": "string"
        },
        {
          "internalType": "string",
          "name": "_contentHash",
          "type": "string"
        }
      ],
      "name": "registerOrganizer",
      "outputs": [],
      "stateMutability": "nonpayable",
      "type": "function"
    },
    {
      "inputs": [],
      "name": "renounceOwnership",
      "outputs": [],
      "stateMutability": "nonpayable",
      "type": "function"
    },
    {
      "inputs": [
        {
          "internalType": "address",
          "name": "_organizer",
          "type": "address"
        },
        {
          "internalType": "uint256",
          "name": "_rating",
          "type": "uint256"
        }
      ],
      "name": "setOrganizerRating",
      "outputs": [],
      "stateMutability": "nonpayable",
      "type": "function"
    },
    {
      "inputs": [
        {
          "internalType": "address",
          "name": "_platform",
          "type": "address"
        }
      ],
      "name": "setPlatformContract",
      "outputs": [],
      "stateMutability": "nonpayable",
      "type": "function"
    },
    {
      "inputs": [
        {
          "internalType": "address",
          "name": "newOwner",
          "type": "address"
        }
      ],
      "name": "transferOwnership",
      "outputs": [],
      "stateMutability": "nonpayable",
      "type": "function"
    },
    {
      "inputs": [
        {
          "internalType": "address",
          "name": "_newAddress",
          "type": "address"
        }
      ],
      "name": "updateOrganizerPayoutAddress",
      "outputs": [],
      "stateMutability": "nonpayable",
      "type": "function"
    },
    {
      "inputs": [
        {
          "internalType": "string",
          "name": "_profileUri",
          "type": "string"
        },
        {
          "internalType": "string",
          "name": "_contentHash",
          "type": "string"
        }
      ],
      "name": "updateOrganizerProfile",
      "outputs": [],
      "stateMutability": "nonpayable",
      "type": "function"
    },
    {
      "inputs": [
        {
          "internalType": "address",
          "name": "organizer",
          "type": "address"
        },
        {
          "internalType": "uint256",
          "name": "rating",
          "type": "uint256"
        }
      ],
      "name": "updateOrganizerRating",
      "outputs": [],
      "stateMutability": "nonpayable",
      "type": "function"
    },
    {
      "inputs": [
        {
          "internalType": "address",
          "name": "_organizer",
          "type": "address"
        },
        {
          "internalType": "bool",
          "name": "_verified",
          "type": "bool"
        }
      ],
      "name": "verifyOrganizer",
      "outputs": [],
      "stateMutability": "nonpayable",
      "type": "function"
    }
  ],
  "bytecode": "0x60808060405234620004cd573315620004b75760008054336001600160a01b0319821681178355916001600160a01b03909116907f8be0079c531659141344cd1fd0a4f28419497f9722a3daafe3b4186f6b6457e09080a360405161014081016001600160401b03811182821017620002e3576040526200007f620004d2565b6000815281526200008f620004d2565b6000815260208201524260408201526001606082015260006080820152600060a0820152600060c0820152600060e0820152336101008201526001610120820152336000526002602052604060002090805191825160018060401b038111620002e3578154600181811c91168015620004ac575b6020821014620003c957601f811162000463575b506020601f8211600114620003f65781929394600092620003ea575b50508160011b916000199060031b1c19161781555b60208201518051906001600160401b038211620002e3576001830154600181811c91168015620003df575b6020821014620003c957601f81116200037d575b50602090601f83116001146200030557600893929160009183620002f9575b50508160011b916000199060031b1c19161760018201555b60408301516002820155600381016060840151151560ff801983541691161790556080830151600482015560a0830151600582015560c0830151600682015560e08301516007820155019060018060a01b036101008201511682549161012060ff60a01b910151151560a01b169160018060a81b0319161717905560018060a01b036000541660035468010000000000000000811015620002e3576001810180600355811015620002cd57600360009081527fc2575a0e9e593c00f959f8c92f12db2869c3395a3b0502d05e2516446f71f85b9190910180546001600160a01b03191690921790915554620002bc906001600160a01b0316620004f2565b506040516129b19081620005768239f35b634e487b7160e01b600052603260045260246000fd5b634e487b7160e01b600052604160045260246000fd5b015190508580620001a6565b906001840160005260206000209160005b601f198516811062000364575091839160019360089695601f198116106200034a575b505050811b016001820155620001be565b015160001960f88460031b161c1916905585808062000339565b9192602060018192868501518155019401920162000316565b600184016000526020600020601f840160051c810160208510620003c1575b601f830160051c82018110620003b457505062000187565b600081556001016200039c565b50806200039c565b634e487b7160e01b600052602260045260246000fd5b90607f169062000173565b01519050848062000133565b8260005260206000209060005b601f19841681106200044a5750600193949583601f1981161062000430575b505050811b01815562000148565b015160001960f88460031b161c1916905584808062000422565b9091602060018192858a01518155019301910162000403565b826000526020600020601f830160051c810160208410620004a4575b601f830160051c820181106200049757505062000117565b600081556001016200047f565b50806200047f565b90607f169062000103565b631e4fbdf760e01b815260006004820152602490fd5b600080fd5b60405190602082016001600160401b03811183821017620002e357604052565b600081815260056020526040812054620005705760048054680100000000000000008110156200055d57600181018083558110156200054a579083839282604095526020842001555492815260056020522055600190565b634e487b7160e01b835260328252602483fd5b634e487b7160e01b835260418252602483fd5b90509056fe6080604052600436101561001257600080fd5b600060e08135811c9081630544c5b914611f7d5781631627469514611f545781631bfba65214611cc75781631c00caab14611b905781632264e8cb14611b4a57816324af603214611aee578163317893ff14611ad057816332833f2814611a445781633612280f146119845781633f8c0d88146118955781634a3beee8146115795781634ec33f6e146114ab57816365381ea814610ed757508063715018a614610e7d5780637db7c2bb14610d6c5780638da5cb5b14610d45578063955f63e314610cbf578063957a632e14610c1a5780639593644814610bee5780639f6271c314610b405780639f816ba214610a55578063a44760f2146109c9578063b085e083146108f9578063bb26b2aa146108b5578063cc7b130314610781578063d36b904c14610726578063d9d4c1c714610708578063e4aa47e3146106b2578063eade22f614610637578063eb6c847b14610503578063ec38d5a014610480578063f1755ba2146102185763f2fde38b1461018b57600080fd5b34610215576020366003190112610215576101a4612053565b6101ac612813565b6001600160a01b039081169081156101fc57600054826001600160601b0360a01b821617600055167f8be0079c531659141344cd1fd0a4f28419497f9722a3daafe3b4186f6b6457e0600080a380f35b604051631e4fbdf760e01b815260048101849052602490fd5b80fd5b503461021557610227366122e8565b3383526020916002835261024760ff600860408720015460a01c166126cf565b33845260028352604084209080519167ffffffffffffffff928381116103b15780610272835461206e565b93601f94858111610433575b5087908583116001146103d05789926103c5575b50508160011b916000199060031b1c19161790555b338552600284526001928360408720019481519384116103b1576102cb865461206e565b83811161036d575b508092841160011461030c57509282939183928794610301575b50501b916000199060031b1c191617905580f35b0151925038806102ed565b919083601f1981168789528489209489905b88838310610353575050501061033a575b505050811b01905580f35b015160001960f88460031b161c1916905538808061032f565b85870151885590960195948501948793509081019061031e565b8688528188208480870160051c8201928488106103a8575b0160051c019086905b82811061039c5750506102d3565b6000815501869061038e565b92508192610385565b634e487b7160e01b87526041600452602487fd5b015190503880610292565b848a52888a209250601f1984168a5b8a82821061041d575050908460019594939210610404575b505050811b0190556102a7565b015160001960f88460031b161c191690553880806103f7565b60018596829396860151815501950193016103df565b9091508389528789208580850160051c8201928a8610610477575b9085949392910160051c01905b818110610468575061027e565b6000815584935060010161045b565b9250819261044e565b5034610215576020366003190112610215576104b36104ad6004356104a8600654821061271b565b6123cb565b506125a7565b805160208083015160408085015160608087015160809788015184516001600160a01b03988916815297909516958701959095529185015283019190915215159181019190915260a090f35b0390f35b50346102155760403660031901126102155761051d612053565b60243590610529612813565b6001600160a01b0316808352600260205260408320600801549091906105549060a01c60ff16612406565b600581116105f957600181106105b457818352600260205261057e600660408520019182546126c2565b90558152600260205260076040822001805490600182018092116105a0575580f35b634e487b7160e01b83526011600452602483fd5b60405162461bcd60e51b815260206004820152601860248201527f526174696e672063616e6e6f742062652062656c6f77203100000000000000006044820152606490fd5b60405162461bcd60e51b8152602060048201526016602482015275526174696e672063616e6e6f7420657863656564203560501b6044820152606490fd5b5034610215576020366003190112610215576004356006548110156106ae5761065f906123cb565b508054600182015460028301546003840154600490940154604080516001600160a01b03958616815294909316602085015291830152606082019290925260ff9091161515608082015260a090f35b5080fd5b5034610215576040366003190112610215576106cc612053565b6001600160a01b03168152600760205260408120805460243592908310156102155760206106fa84846123b3565b90546040519160031b1c8152f35b50346102155780600319360112610215576020600354604051908152f35b5034610215576020366003190112610215576020906001600160a01b039060089060409083610753612053565b168082526002865261076f60ff85858520015460a01c16612406565b81526002855220015416604051908152f35b5034610215576020906020600319360112610215576001600160a01b036107a6612053565b1681526007602052604081209160405180938491602082549182815201918552602085209385905b82821061089b575050506107e49250038361210b565b80815b835181101561082b5760806108086104ad6108028488612669565b516123cb565b0151610817575b6001016107e7565b90610823600191612452565b91905061080f565b50610835906125f4565b815b835181101561088d576108506104ad6108028387612669565b6080810151610863575b50600101610837565b83610886916108756001949686612669565b526108808185612669565b50612452565b929061085a565b604051806104ff848261221a565b8554845260019586019588955093810193909101906107ce565b503461021557602036600319011261021557600435906003548210156102155760206108e08361232f565b905460405160039290921b1c6001600160a01b03168152f35b503461021557604036600319011261021557610913612053565b60243590811515908183036109c5577fb2db07fb09ffc5844977daaf0aae46ed92b7b07810799a6af9e9d0c80eba59de9160209161094f612813565b6001600160a01b03168086526002835260408620600801549094906109799060a01c60ff16612406565b8486526002835261099c81600360408920019060ff801983541691151516179055565b156109b6576109aa8461283f565b505b604051908152a280f35b6109bf846128a5565b506109ac565b8380fd5b5034610215576020366003190112610215576109e3612053565b6109eb612813565b6001600160a01b03168015610a10576001600160601b0360a01b600154161760015580f35b60405162461bcd60e51b815260206004820152601860248201527f496e76616c696420706c6174666f726d206164647265737300000000000000006044820152606490fd5b5034610215578060031936011261021557600454610a728161258f565b91610a80604051938461210b565b818352610a8c8261258f565b6020928484019291601f1901368437815b818110610aef575050604051938493602085019160208652518092526040850193925b828110610acf57505050500390f35b83516001600160a01b031685528695509381019392810192600101610ac0565b60046000527f8a35acfbc15ff81a39ae7d344fd709f28e8600b4aa8c65c6b64bfe7fe36bd19b8101549295939492600191906001600160a01b0316610b348287612669565b52019491939294610a9d565b5034610215576020806003193601126106ae576001600160a01b03610b63612053565b168252600781526040822060405192838383549182815201908193835284832090835b818110610bda5750505084610b9c91038561210b565b60405193838594850191818652518092526040850193925b828110610bc357505050500390f35b835185528695509381019392810192600101610bb4565b825484529286019260019283019201610b86565b5034610215576020366003190112610215576020610c12610c0d612053565b61275e565b604051908152f35b503461021557602036600319011261021557600435610c3c600654821061271b565b6001610c47826123cb565b50818060a01b039182910154163314908115610cb2575b5015610c7c57610c6f6004916123cb565b5001805460ff1916905580f35b60405162461bcd60e51b815260206004820152600e60248201526d139bdd08185d5d1a1bdc9a5e995960921b6044820152606490fd5b9050825416331438610c5e565b503461021557604036600319011261021557610cd9612053565b6001546001600160a01b039190821633148015610d39575b610cfa9061267d565b168082526002602052610d1960ff600860408520015460a01c16612406565b8152600260205260056040822001610d3460243582546126c2565b905580f35b50825482163314610cf1565b5034610215578060031936011261021557546040516001600160a01b039091168152602090f35b5034610215576020906020600319360112610215576001600160a01b03610d91612053565b1681526007602052604081209160405180938491602082549182815201918552602085209385905b828210610e6357505050610dcf9250038361210b565b80815b8351811015610e11576080610ded6104ad6108028488612669565b015115610dfd575b600101610dd2565b90610e09600191612452565b919050610df5565b50610e1b906125f4565b815b835181101561088d57610e366104ad6108028387612669565b608081015115610e4a575b50600101610e1d565b83610e5c916108756001949686612669565b9290610e41565b855484526001958601958895509381019390910190610db9565b5034610215578060031936011261021557610e96612813565b600080546001600160a01b0319811682556001600160a01b03167f8be0079c531659141344cd1fd0a4f28419497f9722a3daafe3b4186f6b6457e08280a380f35b823461021557610ee6366122e8565b9092338352600260205260ff600860408520015460a01c166114665760405191610f0f836120ee565b8483526020830152426040830152600160608301528260808301528260a08301528260c0830152828183015233610100830152600161012083015233835260026020526040832090825180519067ffffffffffffffff8211611390578190610f77855461206e565b601f8111611418575b50602090601f83116001146113af5787926113a4575b50508160011b916000199060031b1c19161782555b602083015180519067ffffffffffffffff821161139057610fcf600185015461206e565b601f811161134b575b50602090601f83116001146112da576008949392918791836112cf575b50508160011b916000199060031b1c19161760018301555b6040840151600283015561103660608501511515600384019060ff801983541691151516179055565b6080840151600483015560a0840151600583015560c0840151600683015583015160078201550160018060a01b0391826101008201511682549161012060ff60a01b910151151560a01b16916affffffffffffffffffffff60a81b161717905560035492600160401b8410156112bb576110b784600185960160035561232f565b81549060031b908433831b921b19161790556110d23361283f565b507fac35be65b927c19690056f54322574255afb94436fc8b4637810cfcc1fb3daae604051602081528061110b339460208301906121f5565b0390a2604051600181527fb2db07fb09ffc5844977daaf0aae46ed92b7b07810799a6af9e9d0c80eba59de60203392a2806001541680611149575050f35b602060049160405192838092630cf3be5160e21b82525afa9081156112b0578391611281575b5016803b1561127e578180916101846040518094819363e567d29d60e01b835233600484015260806024840152601460848401527313dc99d85b9a5e995c88149959da5cdd195c995960621b60a484015260c06044840152606060c48401527f596f7572206f7267616e697a6572206163636f756e7420686173206265656e2060e48401527f7265676973746572656420616e642076657269666965642073756363657373666101048401527f756c6c792e20596f752063616e206e6f7720637265617465206576656e747321610124840152610140606484015260096101448401526827a923a0a724ad22a960b91b6101648401525af161126e5750f35b611277906120da565b6102155780f35b50fd5b6112a3915060203d6020116112a9575b61129b818361210b565b810190612550565b8461116f565b503d611291565b6040513d85823e3d90fd5b634e487b7160e01b83526041600452602483fd5b015190508880610ff5565b906001850187526020872091875b601f198516811061133357509183916001936008979695601f1981161061131a575b505050811b01600183015561100d565b015160001960f88460031b161c1916905588808061130a565b919260206001819286850151815501940192016112e8565b60018501875260208720601f840160051c810160208510611389575b601f830160051c8201811061137d575050610fd8565b60008155600101611367565b5080611367565b634e487b7160e01b86526041600452602486fd5b015190508780610f96565b9250848752602087209087935b601f19841685106113fd576001945083601f198116106113e4575b505050811b018255610fab565b015160001960f88460031b161c191690558780806113d7565b818101518355602094850194600190930192909101906113bc565b90915084875260208720601f840160051c81016020851061145f575b90849392915b601f830160051c82018110611450575050610f80565b6000815585945060010161143a565b5080611434565b60405162461bcd60e51b815260206004820152601c60248201527f4f7267616e697a657220616c72656164792072656769737465726564000000006044820152606490fd5b8234610215576020366003190112610215576114c5612053565b33825260026020526114e360ff600860408520015460a01c166126cf565b6001600160a01b0316801561154257338252600260205260086040832001816001600160601b0360a01b8254161790556040519081527fba2be5e898fed1646bc0814dee1cc9a2aee98f51fced7d5fc4699c47d990775360203392a280f35b60405162461bcd60e51b815260206004820152600f60248201526e496e76616c6964206164647265737360881b6044820152606490fd5b8234610215576003199060403683011261021557611595612053565b9060243567ffffffffffffffff81116106ae576115b6903690600401612291565b92338252602093600285526115d760ff600860408620015460a01c166126cf565b3383526002855260ff60036040852001541615611850576001600160a01b0393841693841561180b5760065494611633604051611613816120a8565b828152338982015287604082015242606082015260016080820152612477565b338552600787526116478660408720612513565b338552600287526004604086200161165f8154612452565b9055604051908782526000888301527fa54c7891edaa21526f9ad14c69ae2fd966ac0969fcd9a990a4e006427afd382e60403393a3806001541686816116a8575b604051878152f35b604051630cf3be5160e21b815291829060049082905afa9081156118005785916117e3575b501691611742604e60405180946b596f7572206576656e74202760a01b8a830152611701815180928c602c860191016121d2565b81017f2720686173206265656e2072656769737465726564207375636365737366756c602c820152616c7960f01b604c82015203602e81018552018361210b565b823b156109c557859284928360406117ac9464115591539560da1b8251988997889663e567d29d60e01b885233600489015260806024890152601060848901526f115d995b9d08149959da5cdd195c995960821b60a489015260c0604489015260c48801906121f5565b868103938401606488015260058152015201925af16117cf575b808080866116a0565b6117d982916120da565b61021557806117c6565b6117fa9150873d89116112a95761129b818361210b565b876116cd565b6040513d87823e3d90fd5b60405162461bcd60e51b815260048101879052601860248201527f496e76616c696420636f6e7472616374206164647265737300000000000000006044820152606490fd5b60405162461bcd60e51b815260048101869052601a60248201527f4d757374206265207665726966696564206f7267616e697a65720000000000006044820152606490fd5b8234610215576040366003190112610215576118af612053565b600154602435916001600160a01b0391821633148015611978575b6118d39061267d565b169081835260026020526118f360ff600860408620015460a01c16612406565b60018110158061196d575b1561193757818352600260205261191d600660408520019182546126c2565b90558152600260205260076040822001610d348154612452565b60405162461bcd60e51b815260206004820152600e60248201526d496e76616c696420726174696e6760901b6044820152606490fd5b5060058111156118fe565b508354821633146118ca565b823461021557806003193601126102155760065481805b828110611a1257506119ac906125f4565b91805b8281106119c457604051806104ff868261221a565b60ff60046119d1836123cb565b500154166119e2575b6001016119af565b90611a0a6001916119f56104ad856123cb565b6119ff8288612669565b526108808187612669565b9190506119da565b60ff6004611a1f836123cb565b50015416611a30575b60010161199b565b90611a3c600191612452565b919050611a28565b8234610215578060031936011261021557600654611a618161258f565b90611a6f604051928361210b565b808252600683527ff652222313e28459528d920b65115c16c04f3efc82aaedc97be59f3f377c0d3f9260208084015b838310611ab357604051806104ff878261221a565b600582600192611ac2896125a7565b815201960192019194611a9e565b82346102155780600319360112610215576020600654604051908152f35b8234610215576020366003190112610215576020906040906001600160a01b03611b16612053565b168152600283522060ff600882015460a01c169081611b3b575b506040519015158152f35b60ff9150600301541682611b30565b82346102155760203660031901126102155760209060ff906008906040906001600160a01b03611b78612053565b1681526002855220015460a01c166040519015158152f35b9050346106ae5760203660031901126106ae576001600160a01b039182611bb5612053565b16815260026020526040812060405190611bce826120ee565b611bd78161212d565b8252611be56001820161212d565b946020830195865260028201549160408401928352611ca160ff60038301541695606086019615158752876004840154936080880194855260ff60058201549660a08a0197885260086006840154938460c08d0152600781015480968d015201549081166101008b015260a01c161515610120890152811515600014611cbf57611c6f925061256f565b945b5197519351955115159151925193611c9360405199898b9a8b528a01906121f5565b9088820360208a01526121f5565b9460408701526060860152608085015260a084015260c08301520390f35b505094611c71565b823461021557606036600319011261021557611ce1612053565b6024356001600160a01b0381811692918390036109c557806001541633148015611f48575b8015611f20575b15611edb5782845260209060028252611d3260ff600860408820015460a01c16612406565b8385526002825260046040862001611d4a8154612452565b9055611d82600654938260405191611d61836120a8565b16948582528685830152604082015242606082015260016080820152612477565b83855260078252604085206006546000199291838201918211611ec75790611da991612513565b806001541680611dea575b50505060407fa54c7891edaa21526f9ad14c69ae2fd966ac0969fcd9a990a4e006427afd382e916000825191808352820152a380f35b8360049160405192838092630e64f35d60e01b82525afa908115611ebc578791611e9f575b5016600654918201918211611e8b57908186923b15611e875760248392604051948593849263a098178360e01b845260048401525af1611e51575b8080611db4565b7fa54c7891edaa21526f9ad14c69ae2fd966ac0969fcd9a990a4e006427afd382e9194611e7f6040926120da565b949150611e4a565b8280fd5b634e487b7160e01b86526011600452602486fd5b611eb69150843d86116112a95761129b818361210b565b87611e0f565b6040513d89823e3d90fd5b634e487b7160e01b88526011600452602488fd5b60405162461bcd60e51b815260206004820152601e60248201527f4e6f7420617574686f72697a656420746f207265636f7264206576656e7400006044820152606490fd5b5080821633148015611d0d5750828452600260205260ff600860408620015460a01c16611d0d565b50808454163314611d06565b82346102155780600319360112610215576001546040516001600160a01b039091168152602090f35b9050346106ae5760203660031901126106ae5761200e916001600160a01b03919060ff9060409084611fad612053565b168152600260205220611fbf8161212d565b93611fcc6001830161212d565b9160028101549484600383015416600483015460058401549060068501549261201c60086007880154970154986040519d8e9d8e6101409081815201906121f5565b8d810360208f0152906121f5565b9960408c0152151560608b015260808a015260a089015260c0880152860152811661010085015260a01c1615156101208301520390f35b600435906001600160a01b038216820361206957565b600080fd5b90600182811c9216801561209e575b602083101461208857565b634e487b7160e01b600052602260045260246000fd5b91607f169161207d565b60a0810190811067ffffffffffffffff8211176120c457604052565b634e487b7160e01b600052604160045260246000fd5b67ffffffffffffffff81116120c457604052565b610140810190811067ffffffffffffffff8211176120c457604052565b90601f8019910116810190811067ffffffffffffffff8211176120c457604052565b906040519182600082546121408161206e565b908184526020946001916001811690816000146121b05750600114612171575b50505061216f9250038361210b565b565b600090815285812095935091905b81831061219857505061216f9350820101388080612160565b8554888401850152948501948794509183019161217f565b9250505061216f94925060ff191682840152151560051b820101388080612160565b60005b8381106121e55750506000910152565b81810151838201526020016121d5565b9060209161220e815180928185528580860191016121d2565b601f01601f1916010190565b60208082019080835283518092528060408094019401926000905b83821061224457505050505090565b845180516001600160a01b03908116885281850151168785015280820151878301526060808201519088015260809081015115159087015260a09095019493820193600190910190612235565b81601f820112156120695780359067ffffffffffffffff82116120c457604051926122c6601f8401601f19166020018561210b565b8284526020838301011161206957816000926020809301838601378301015290565b9060406003198301126120695767ffffffffffffffff600435818111612069578361231591600401612291565b926024359182116120695761232c91600401612291565b90565b6003548110156123665760036000527fc2575a0e9e593c00f959f8c92f12db2869c3395a3b0502d05e2516446f71f85b0190600090565b634e487b7160e01b600052603260045260246000fd5b6004548110156123665760046000527f8a35acfbc15ff81a39ae7d344fd709f28e8600b4aa8c65c6b64bfe7fe36bd19b0190600090565b80548210156123665760005260206000200190600090565b600654811015612366576005906006600052027ff652222313e28459528d920b65115c16c04f3efc82aaedc97be59f3f377c0d3f0190600090565b1561240d57565b60405162461bcd60e51b815260206004820152601860248201527f4f7267616e697a657220646f6573206e6f7420657869737400000000000000006044820152606490fd5b60001981146124615760010190565b634e487b7160e01b600052601160045260246000fd5b600654600160401b8110156120c45780600161249692016006556123cb565b6124fd576004608061216f9360018060a01b03808251166001600160601b0360a01b908187541617865560018601916020840151169082541617905560408101516002850155606081015160038501550151151591019060ff801983541691151516179055565b634e487b7160e01b600052600060045260246000fd5b805490600160401b8210156120c4578161253591600161254c940181556123b3565b819391549060031b91821b91600019901b19161790565b9055565b9081602091031261206957516001600160a01b03811681036120695790565b8115612579570490565b634e487b7160e01b600052601260045260246000fd5b67ffffffffffffffff81116120c45760051b60200190565b906040516125b4816120a8565b82546001600160a01b0390811682526001840154166020820152600283015460408201526003830154606082015260049092015460ff1615156080830152565b906125fe8261258f565b60409061260e604051918261210b565b838152809361261f601f199161258f565b019160005b8381106126315750505050565b602090825161263f816120a8565b60008152826000818301526000858301526000606083015260006080830152828601015201612624565b80518210156123665760209160051b010190565b1561268457565b60405162461bcd60e51b815260206004820152601660248201527527b7363c90383630ba3337b9369037b91037bbb732b960511b6044820152606490fd5b9190820180921161246157565b156126d657565b60405162461bcd60e51b815260206004820152601c60248201527f4d7573742062652072656769737465726564206f7267616e697a6572000000006044820152606490fd5b1561272257565b60405162461bcd60e51b8152602060048201526014602482015273115d995b9d08191bd95cc81b9bdd08195e1a5cdd60621b6044820152606490fd5b60018060a01b0380911660005260026020526040600020604051612781816120ee565b61278a8261212d565b81526127986001830161212d565b60208201526002820154604082015260ff6003830154161515606082015260048201546080820152600582015460a082015261012060ff6006840154948560c085015260086007860154958660e0870152015490811661010085015260a01c161515910152801561280c5761232c9161256f565b5050600090565b6000546001600160a01b0316330361282757565b60405163118cdaa760e01b8152336004820152602490fd5b6000818152600560205260408120546128a057600454600160401b81101561288c5790826128786125358460016040960160045561237c565b905560045492815260056020522055600190565b634e487b7160e01b82526041600452602482fd5b905090565b600081815260056020526040812054909190801561297657600019908082018181116129625760045490838201918211611e8b5781810361292e575b505050600454801561291a578101906128f98261237c565b909182549160031b1b19169055600455815260056020526040812055600190565b634e487b7160e01b84526031600452602484fd5b61294c61293d6125359361237c565b90549060031b1c92839261237c565b90558452600560205260408420553880806128e1565b634e487b7160e01b85526011600452602485fd5b50509056fea2646970667358221220c7a349e86aa03a6c184e181a3492639313cbe18d1223530b1102d909aac3dca564736f6c63430008160033",
  "linkReferences": {},
  "deployedLinkReferences": {}
}