{
  "_format": "hh-sol-artifact-1",
  "contractName": "EventStatistics",
  "sourceName": "contracts/BIG/EventStatistics.sol",
  "abi": [
    {
      "inputs": [],
      "stateMutability": "nonpayable",
      "type": "constructor"
    },
    {
      "inputs": [
        {
          "internalType": "address",
          "name": "owner",
          "type": "address"
        }
      ],
      "name": "OwnableInvalidOwner",
      "type": "error"
    },
    {
      "inputs": [
        {
          "internalType": "address",
          "name": "account",
          "type": "address"
        }
      ],
      "name": "OwnableUnauthorizedAccount",
      "type": "error"
    },
    {
      "anonymous": false,
      "inputs": [
        {
          "indexed": true,
          "internalType": "uint256",
          "name": "eventId",
          "type": "uint256"
        },
        {
          "indexed": false,
          "internalType": "string",
          "name": "metricType",
          "type": "string"
        },
        {
          "indexed": false,
          "internalType": "uint256",
          "name": "value",
          "type": "uint256"
        },
        {
          "indexed": false,
          "internalType": "uint256",
          "name": "timestamp",
          "type": "uint256"
        }
      ],
      "name": "EventMetricsUpdated",
      "type": "event"
    },
    {
      "anonymous": false,
      "inputs": [
        {
          "indexed": false,
          "internalType": "string",
          "name": "metricType",
          "type": "string"
        },
        {
          "indexed": false,
          "internalType": "uint256",
          "name": "value",
          "type": "uint256"
        },
        {
          "indexed": false,
          "internalType": "uint256",
          "name": "timestamp",
          "type": "uint256"
        }
      ],
      "name": "GlobalMetricsUpdated",
      "type": "event"
    },
    {
      "anonymous": false,
      "inputs": [
        {
          "indexed": true,
          "internalType": "address",
          "name": "previousOwner",
          "type": "address"
        },
        {
          "indexed": true,
          "internalType": "address",
          "name": "newOwner",
          "type": "address"
        }
      ],
      "name": "OwnershipTransferred",
      "type": "event"
    },
    {
      "inputs": [
        {
          "internalType": "uint256",
          "name": "",
          "type": "uint256"
        }
      ],
      "name": "eventMetrics",
      "outputs": [
        {
          "internalType": "uint256",
          "name": "totalTicketsMinted",
          "type": "uint256"
        },
        {
          "internalType": "uint256",
          "name": "totalTicketsSold",
          "type": "uint256"
        },
        {
          "internalType": "uint256",
          "name": "totalTicketsValidated",
          "type": "uint256"
        },
        {
          "internalType": "uint256",
          "name": "totalRevenue",
          "type": "uint256"
        },
        {
          "internalType": "uint256",
          "name": "uniqueAttendees",
          "type": "uint256"
        },
        {
          "internalType": "uint256",
          "name": "startTime",
          "type": "uint256"
        },
        {
          "internalType": "uint256",
          "name": "endTime",
          "type": "uint256"
        },
        {
          "internalType": "uint256",
          "name": "aggregateSalesPerHour",
          "type": "uint256"
        },
        {
          "internalType": "uint256",
          "name": "aggregateEngagementRate",
          "type": "uint256"
        },
        {
          "internalType": "bool",
          "name": "exists",
          "type": "bool"
        }
      ],
      "stateMutability": "view",
      "type": "function"
    },
    {
      "inputs": [
        {
          "internalType": "uint256",
          "name": "eventId",
          "type": "uint256"
        }
      ],
      "name": "eventMetricsExists",
      "outputs": [
        {
          "internalType": "bool",
          "name": "",
          "type": "bool"
        }
      ],
      "stateMutability": "view",
      "type": "function"
    },
    {
      "inputs": [
        {
          "internalType": "uint256",
          "name": "eventId",
          "type": "uint256"
        }
      ],
      "name": "getEventEngagementRate",
      "outputs": [
        {
          "internalType": "uint256",
          "name": "",
          "type": "uint256"
        }
      ],
      "stateMutability": "view",
      "type": "function"
    },
    {
      "inputs": [
        {
          "internalType": "uint256",
          "name": "eventId",
          "type": "uint256"
        }
      ],
      "name": "getEventMetrics",
      "outputs": [
        {
          "internalType": "uint256",
          "name": "totalTicketsMinted",
          "type": "uint256"
        },
        {
          "internalType": "uint256",
          "name": "totalTicketsSold",
          "type": "uint256"
        },
        {
          "internalType": "uint256",
          "name": "totalTicketsValidated",
          "type": "uint256"
        },
        {
          "internalType": "uint256",
          "name": "totalRevenue",
          "type": "uint256"
        },
        {
          "internalType": "uint256",
          "name": "uniqueAttendees",
          "type": "uint256"
        },
        {
          "internalType": "uint256",
          "name": "startTime",
          "type": "uint256"
        },
        {
          "internalType": "uint256",
          "name": "endTime",
          "type": "uint256"
        },
        {
          "internalType": "uint256",
          "name": "duration",
          "type": "uint256"
        },
        {
          "internalType": "uint256",
          "name": "salesPerHour",
          "type": "uint256"
        },
        {
          "internalType": "uint256",
          "name": "engagementRate",
          "type": "uint256"
        }
      ],
      "stateMutability": "view",
      "type": "function"
    },
    {
      "inputs": [],
      "name": "getGlobalMetrics",
      "outputs": [
        {
          "internalType": "uint256",
          "name": "totalEventsCreated",
          "type": "uint256"
        },
        {
          "internalType": "uint256",
          "name": "totalTicketsMinted",
          "type": "uint256"
        },
        {
          "internalType": "uint256",
          "name": "totalRevenueGenerated",
          "type": "uint256"
        },
        {
          "internalType": "uint256",
          "name": "totalUniqueUsers",
          "type": "uint256"
        },
        {
          "internalType": "uint256",
          "name": "platformGrowthRate",
          "type": "uint256"
        }
      ],
      "stateMutability": "view",
      "type": "function"
    },
    {
      "inputs": [],
      "name": "globalMetrics",
      "outputs": [
        {
          "internalType": "uint256",
          "name": "totalEventsCreated",
          "type": "uint256"
        },
        {
          "internalType": "uint256",
          "name": "totalTicketsMinted",
          "type": "uint256"
        },
        {
          "internalType": "uint256",
          "name": "totalRevenueGenerated",
          "type": "uint256"
        },
        {
          "internalType": "uint256",
          "name": "totalUniqueUsers",
          "type": "uint256"
        },
        {
          "internalType": "uint256",
          "name": "platformGrowthRate",
          "type": "uint256"
        }
      ],
      "stateMutability": "view",
      "type": "function"
    },
    {
      "inputs": [
        {
          "internalType": "uint256",
          "name": "eventId",
          "type": "uint256"
        }
      ],
      "name": "incrementRefunds",
      "outputs": [],
      "stateMutability": "nonpayable",
      "type": "function"
    },
    {
      "inputs": [
        {
          "internalType": "uint256",
          "name": "eventId",
          "type": "uint256"
        },
        {
          "internalType": "uint256",
          "name": "amount",
          "type": "uint256"
        }
      ],
      "name": "incrementTicketsSold",
      "outputs": [],
      "stateMutability": "nonpayable",
      "type": "function"
    },
    {
      "inputs": [
        {
          "internalType": "uint256",
          "name": "eventId",
          "type": "uint256"
        }
      ],
      "name": "incrementValidations",
      "outputs": [],
      "stateMutability": "nonpayable",
      "type": "function"
    },
    {
      "inputs": [
        {
          "internalType": "uint256",
          "name": "eventId",
          "type": "uint256"
        }
      ],
      "name": "initializeEventMetrics",
      "outputs": [],
      "stateMutability": "nonpayable",
      "type": "function"
    },
    {
      "inputs": [
        {
          "internalType": "uint256",
          "name": "eventId",
          "type": "uint256"
        }
      ],
      "name": "isEventInitialized",
      "outputs": [
        {
          "internalType": "bool",
          "name": "",
          "type": "bool"
        }
      ],
      "stateMutability": "view",
      "type": "function"
    },
    {
      "inputs": [],
      "name": "owner",
      "outputs": [
        {
          "internalType": "address",
          "name": "",
          "type": "address"
        }
      ],
      "stateMutability": "view",
      "type": "function"
    },
    {
      "inputs": [],
      "name": "platformContract",
      "outputs": [
        {
          "internalType": "address",
          "name": "",
          "type": "address"
        }
      ],
      "stateMutability": "view",
      "type": "function"
    },
    {
      "inputs": [
        {
          "internalType": "uint256",
          "name": "eventId",
          "type": "uint256"
        },
        {
          "internalType": "uint256",
          "name": "ticketPrice",
          "type": "uint256"
        }
      ],
      "name": "recordTicketMint",
      "outputs": [],
      "stateMutability": "nonpayable",
      "type": "function"
    },
    {
      "inputs": [
        {
          "internalType": "uint256",
          "name": "eventId",
          "type": "uint256"
        }
      ],
      "name": "recordTicketValidation",
      "outputs": [],
      "stateMutability": "nonpayable",
      "type": "function"
    },
    {
      "inputs": [],
      "name": "renounceOwnership",
      "outputs": [],
      "stateMutability": "nonpayable",
      "type": "function"
    },
    {
      "inputs": [
        {
          "internalType": "uint256",
          "name": "eventId",
          "type": "uint256"
        }
      ],
      "name": "setEventEndTime",
      "outputs": [],
      "stateMutability": "nonpayable",
      "type": "function"
    },
    {
      "inputs": [
        {
          "internalType": "address",
          "name": "_platform",
          "type": "address"
        }
      ],
      "name": "setPlatformContract",
      "outputs": [],
      "stateMutability": "nonpayable",
      "type": "function"
    },
    {
      "inputs": [
        {
          "internalType": "address",
          "name": "newOwner",
          "type": "address"
        }
      ],
      "name": "transferOwnership",
      "outputs": [],
      "stateMutability": "nonpayable",
      "type": "function"
    },
    {
      "inputs": [
        {
          "internalType": "uint256",
          "name": "eventId",
          "type": "uint256"
        },
        {
          "internalType": "uint256",
          "name": "salesPerHour",
          "type": "uint256"
        },
        {
          "internalType": "uint256",
          "name": "engagementRate",
          "type": "uint256"
        }
      ],
      "name": "updateAggregateMetrics",
      "outputs": [],
      "stateMutability": "nonpayable",
      "type": "function"
    },
    {
      "inputs": [
        {
          "internalType": "uint256",
          "name": "eventId",
          "type": "uint256"
        },
        {
          "internalType": "uint256",
          "name": "rating",
          "type": "uint256"
        },
        {
          "internalType": "uint256",
          "name": "reviewCount",
          "type": "uint256"
        }
      ],
      "name": "updateAverageRating",
      "outputs": [],
      "stateMutability": "nonpayable",
      "type": "function"
    },
    {
      "inputs": [
        {
          "internalType": "uint256",
          "name": "newTotalEvents",
          "type": "uint256"
        },
        {
          "internalType": "uint256",
          "name": "newTotalTickets",
          "type": "uint256"
        },
        {
          "internalType": "uint256",
          "name": "newTotalRevenue",
          "type": "uint256"
        },
        {
          "internalType": "uint256",
          "name": "newTotalUniqueUsers",
          "type": "uint256"
        },
        {
          "internalType": "uint256",
          "name": "newGrowthRate",
          "type": "uint256"
        }
      ],
      "name": "updateGlobalMetrics",
      "outputs": [],
      "stateMutability": "nonpayable",
      "type": "function"
    },
    {
      "inputs": [
        {
          "internalType": "uint256",
          "name": "eventId",
          "type": "uint256"
        },
        {
          "internalType": "uint256",
          "name": "amount",
          "type": "uint256"
        }
      ],
      "name": "updateRevenue",
      "outputs": [],
      "stateMutability": "nonpayable",
      "type": "function"
    },
    {
      "inputs": [
        {
          "internalType": "uint256",
          "name": "eventId",
          "type": "uint256"
        },
        {
          "internalType": "uint256",
          "name": "newCount",
          "type": "uint256"
        }
      ],
      "name": "updateUniqueAttendees",
      "outputs": [],
      "stateMutability": "nonpayable",
      "type": "function"
    }
  ],
  "bytecode": "0x6080806040523461007a5733156100645760008054336001600160a01b03198216811783556040519290916001600160a01b0316907f8be0079c531659141344cd1fd0a4f28419497f9722a3daafe3b4186f6b6457e09080a361194190816100808239f35b631e4fbdf760e01b815260006004820152602490fd5b600080fdfe608060408181526004918236101561001657600080fd5b60009060e08235811c918263162746951461161e575081631bc50c9b14611331578163202eeef0146111c65781633c3d7a3714610e7b57816346a6547214610d3557816347727f6714610d3a5781634ae4d91114610d35578163715018a614610cdb578163727d8b9d14610c4a5781637821e39c14610c0457816380211f7a14610b845781638da5cb5b14610b5c578163a098178314610936578163a44760f21461089f578163b05cd32e14610865578163b75bbd771461074e57508063bd8fddfa14610709578063cc8a139614610504578063d76bb276146104be578063dc98d1d414610437578063e8efab9314610336578063f2fde38b146102a7578063ff4f5eb6146101565763ffb350361461012e57600080fd5b34610153576020366003190112610153575061014c60209235611801565b9051908152f35b80fd5b509190346102a35761016736611692565b5091909260018060a01b03908160015416803314928315610296575b5082156101f5575b50509160a0916101a96000805160206118ec83398151915294611719565b84865260026020526101c360ff6009838920015416611779565b80519160608352600d60608401526c61766572616765526174696e6760981b608084015260208301524290820152a280f35b8015159250908261020d575b508290506101a961018b565b602091925060248451809481936366d0ead360e01b835233908301525afa90811561028c57916101a96000805160206118ec833981519152949260a094889161025d575b50929450819350610201565b61027f915060203d602011610285575b61027781836116df565b810190611701565b38610251565b503d61026d565b82513d87823e3d90fd5b8754163314925038610183565b8280fd5b509190346102a35760203660031901126102a3576001600160a01b03823581811693919290849003610332576102db6118bf565b831561031c57505082546001600160a01b0319811683178455167f8be0079c531659141344cd1fd0a4f28419497f9722a3daafe3b4186f6b6457e08380a380f35b51631e4fbdf760e01b8152908101849052602490fd5b8480fd5b5091346102a35760203660031901126102a3576103516118bf565b8035835260026020528183209161036e60ff600985015416611779565b600683019081546103fe5750429055600182015490816103bc575b50610e1061039b6005840154426117d4565b0490816103a6578380f35b6007916103b2916117e1565b9101553880808380f35b6002830154906064820291808304606414901517156103eb5750816103e0916117e1565b600883015538610389565b634e487b7160e01b855260119052602484fd5b5162461bcd60e51b81526020818401526014602482015273115b99081d1a5b5948185b1c9958591e481cd95d60621b6044820152606490fd5b5091346102a35760203660031901126102a35760a06000805160206118ec8339815191529135928385526002602052600281862061047b60ff600983015416611779565b019061048782546117c5565b80925580519160608352600f60608401526e1d1a58dad95d15985b1a59185d1959608a1b608084015260208301524290820152a280f35b508290346101535780600319360112610153575060035490546005546006546007549451938452602084019290925260408301526060820152608081019190915260a090f35b509190346102a35761051536611643565b909260018060a01b0380600154168033149182156106fc575b50811561067a575b8660a0808888888861054789611719565b83875260026020526105a88388209261056660ff600986015416611779565b61057084546117c5565b84556001840161058081546117c5565b905560038401610591828254611756565b905561059d83546117c5565b809355600554611756565b918260055554936000805160206118ec833981519152868551606097888252600c898301526b1d1a58dad95d135a5b9d195960a21b608083015260208201524287820152a2825190848252601285830152711d1bdd185b151a58dad95d1cd35a5b9d195960721b6080830152602082015242838201527f2c479f4eeeca59f91c422d55b6f9e3a77496b778b3ace1c763fb388cd3522e8b958691a16015825193808552840152741d1bdd185b14995d995b9d5951d95b995c985d1959605a1b608084015260208301524290820152a180f35b80151591508161068d575b5060a0610536565b84516366d0ead360e01b815233848201529150602090829060249082905afa9081156106f2579161054760a096949287969489916106d3575b5092949650509193610685565b6106ec915060203d6020116102855761027781836116df565b386106c6565b84513d88823e3d90fd5b875416331491503861052e565b50903461074a57600861071b36611692565b9390916107266118bf565b8552600260205284209061074060ff600984015416611779565b6007820155015580f35b5080fd5b9050838334610861576020366003190112610861579261014093823582526002602052808220815161077f816116ac565b81548152600182015495602082019687526002830154958483019687526003840154906060840191825284015460808401908152600585015460a0850190815260068601549160c0860192835260078701549385870194855260088801549860ff60096101009a8b8b019c8d520154169a610804610120809d151580918c0152611779565b8551801561085a5761081991508551906117d4565b975b519c519b519151925193519451955199519b602082519e8f90815201528c015260608b015260808a015260a089015260c0880152860152840152820152f35b509761081b565b8380fd5b82853461074a5760a036600319011261074a576108806118bf565b8035600355602435905560443560055560643560065560843560075580f35b505091346102a35760203660031901126102a35780356001600160a01b0381169290839003610861576108d06118bf565b82156108f35750506bffffffffffffffffffffffff60a01b600154161760015580f35b906020606492519162461bcd60e51b8352820152601860248201527f496e76616c696420706c6174666f726d206164647265737300000000000000006044820152fd5b9050838334610861576020918260031936011261033257600154813594906001600160a01b0390811690338214908115610b4f575b508015610ad8575b61097d9150611719565b8486526002845260ff6009848820015416610a8c5790838686938551936109a3856116ac565b8285528385019083825287860184815260608701858152608088019186835260a08901944286528b60c08b01978989528b0198808a526101008c019a818c526101208d019d60018f528252600290522099518a555160018a015551600289015551600388015551908601555160058501555160068401555160078301555160088201556009019051151560ff198254169060ff16179055600354610a46906117c5565b600355838151926060845260608401600b9052608084016a1a5b9a5d1a585b1a5e995960aa1b9052830152429082015260a06000805160206118ec83398151915291a280f35b5082608492519162461bcd60e51b8352820152602160248201527f4576656e74206d65747269637320616c726561647920696e697469616c697a656044820152601960fa1b6064820152fd5b50848115159182610aef575b505061097d90610973565b85516366d0ead360e01b815233868201529250829060249082905afa908115610b45579061097d918891610b28575b5090508488610ae4565b610b3f9150863d88116102855761027781836116df565b88610b1e565b84513d89823e3d90fd5b905087541633148861096b565b82843461074a578160031936011261074a57905490516001600160a01b039091168152602090f35b828585346102a35760a06000805160206118ec83398151915291610ba736611643565b80929195610bb36118bf565b8688526002602052828820610bce60ff600983015416611779565b015580519160608352600f60608401526e756e69717565417474656e6465657360881b608084015260208301524290820152a280f35b838584346101535780600319360112610153575060035490546005546006546007549451938452602084019290925260408301526060820152608081019190915260a090f35b9050838334610861576020366003190112610861578061014094833581526002602052209081549360018301549360028401549060038501549085015460058601549160068701549360078801549660ff600960088b01549a0154169981519b8c5260208c01528a01526060890152608088015260a087015260c08601528401526101008301521515610120820152f35b8234610153578060031936011261015357610cf46118bf565b80546001600160a01b03198116825581906001600160a01b03167f8be0079c531659141344cd1fd0a4f28419497f9722a3daafe3b4186f6b6457e08280a380f35b61165e565b828585346102a35760209081600319360112610861576001548335936001600160a01b03918216338114928315610e6e575b508215610dea575b50509160a091610d926000805160206118ec83398151915294611719565b848652600282526002818720610dae60ff600983015416611779565b01610db981546117c5565b80915581519260608452600b60608501526a76616c69646174696f6e7360a81b60808501528301524290820152a280f35b80151592509082610e02575b50829050610d92610d74565b8491925060248451809481936366d0ead360e01b835233908301525afa90811561028c5791610d926000805160206118ec833981519152949260a0948891610e51575b50929450819350610df6565b610e689150843d86116102855761027781836116df565b88610e45565b8754163314925087610d6c565b848484923461086157610e8d36611643565b909360018060a01b03928360015416918233149283801590816111ba575b8015611151575b610ebb90611719565b888a5260209660028852888b209560ff60098801541615610f38575b8b8b6000805160206118ec83398151915260a08c8e8d610f0a60038f0191610f00818454611756565b8355600554611756565b60055554815192606084526007606085015266726576656e756560c81b60808501528301524290820152a280f35b9091929394955096959691611144575b5080156110cd575b610f5a9150611719565b8587526002835260ff60098689200154166110805790868692865192610f7f846116ac565b828452858401918383528885019084825260608601858152608087019086825260a088019342855260c08901958887528901968888528d6101008b0199808b528d6101208d019d60018f528252600290522099518a555160018a015551600289015551600388015551908601555160058501555160068401555160078301555160088201556009019051151560ff198254169060ff16179055600354611024906117c5565b6003558383516060815260608101600b9052608081016a1a5b9a5d1a585b1a5e995960aa1b90528683820152428582015260a06000805160206118ec83398151915291a283855260028152828520868080808080979697610ed7565b845162461bcd60e51b8152908101839052602160248201527f4576656e74206d65747269637320616c726561647920696e697469616c697a656044820152601960fa1b6064820152608490fd5b508381151591826110e4575b5050610f5a90610f50565b87516366d0ead360e01b815233858201529250829060249082905afa90811561113a5790610f5a91899161111d575b50905083896110d9565b6111349150853d87116102855761027781836116df565b89611113565b86513d8a823e3d90fd5b9050885416331489610f48565b508115158015610eb2575087516366d0ead360e01b81523384820152602081602481865afa9081156111b05790610ebb918c91611191575b509050610eb2565b6111aa915060203d6020116102855761027781836116df565b8c611189565b89513d8d823e3d90fd5b50868a54163314610eab565b828585346102a3576020908160031936011261086157600154833593906001600160a01b0390811690338214908115611324575b5080156112ad575b61120c9150611719565b83855260028352600182862061122860ff600983015416611779565b019081549081158015611277575b87876000805160206118ec83398151915260a089896001815192606084526007606085015266726566756e647360c81b60808501528301524290820152a280f35b61129a57506000190190558160a06000805160206118ec83398151915287611236565b634e487b7160e01b875260119052602486fd5b508381151591826112c4575b505061120c90611202565b84516366d0ead360e01b815233858201529250829060249082905afa90811561131a579061120c9187916112fd575b50905083876112b9565b6113149150853d87116102855761027781836116df565b876112f3565b83513d88823e3d90fd5b90508654163314876111fa565b84848492346108615761134336611643565b909360018060a01b0392836001541691823314928380159081611612575b80156115b3575b61137190611719565b888a5260209660028852888b209560ff600988015416156113f1575b8b8b6000805160206118ec83398151915260a08c8e8d8d6113c160018201926113b7818554611756565b8094558254611756565b905581519260608452600b60608501526a1d1a58dad95d1cd4dbdb1960aa1b60808501528301524290820152a280f35b90919293949550969596916115a6575b508015611539575b6114139150611719565b8587526002835260ff60098689200154166110805790868692865192611438846116ac565b828452858401918383528885019084825260608601858152608087019086825260a088019342855260c08901958887528901968888528d6101008b0199808b528d6101208d019d60018f528252600290522099518a555160018a015551600289015551600388015551908601555160058501555160068401555160078301555160088201556009019051151560ff198254169060ff161790556003546114dd906117c5565b6003558383516060815260608101600b9052608081016a1a5b9a5d1a585b1a5e995960aa1b90528683820152428582015260a06000805160206118ec83398151915291a28385526002815282852086808080808097969761138d565b50838115159182611550575b505061141390611409565b87516366d0ead360e01b815233858201529250829060249082905afa90811561113a5790611413918991611589575b5090508389611545565b6115a09150853d87116102855761027781836116df565b8961157f565b9050885416331489611401565b508115158015611368575087516366d0ead360e01b81523384820152602081602481865afa9081156111b05790611371918c916115f3575b509050611368565b61160c915060203d6020116102855761027781836116df565b8c6115eb565b50868a54163314611361565b83903461074a578160031936011261074a576001546001600160a01b03168152602090f35b6040906003190112611659576004359060243590565b600080fd5b34611659576020366003190112611659576004356000526002602052602060ff600960406000200154166040519015158152f35b606090600319011261165957600435906024359060443590565b610140810190811067ffffffffffffffff8211176116c957604052565b634e487b7160e01b600052604160045260246000fd5b90601f8019910116810190811067ffffffffffffffff8211176116c957604052565b90816020910312611659575180151581036116595790565b1561172057565b60405162461bcd60e51b815260206004820152600e60248201526d139bdd08185d5d1a1bdc9a5e995960921b6044820152606490fd5b9190820180921161176357565b634e487b7160e01b600052601160045260246000fd5b1561178057565b60405162461bcd60e51b815260206004820152601d60248201527f4576656e74206d657472696373206e6f7420696e697469616c697a65640000006044820152606490fd5b60001981146117635760010190565b9190820391821161176357565b81156117eb570490565b634e487b7160e01b600052601260045260246000fd5b600052600260205260406000206040519061181b826116ac565b8054825261188f6101206001830154936020810194855260ff6009600286015495604084019687526003810154606085015260048101546080850152600581015460a0850152600681015460c0850152600781015460e0850152600881015461010085015201541615159182910152611779565b8151156118b85751606481029080820460641490151715611763576118b59151906117e1565b90565b5050600090565b6000546001600160a01b031633036118d357565b60405163118cdaa760e01b8152336004820152602490fdfed0f0da26cc017e4643ee8bac836923350063839e03b6e350a8959af5ea13b8faa264697066735822122031c346c3a541030e1ddfba93373bafabd74f79b844df62c4e65ec187c72c680d64736f6c63430008160033",
  "linkReferences": {},
  "deployedLinkReferences": {}
}