{
  "_format": "hh-sol-artifact-1",
  "contractName": "UniversalEventTicketV2",
  "sourceName": "contracts/BIG/EventTicketV2.sol",
  "abi": [
    {
      "inputs": [
        {
          "internalType": "string",
          "name": "_eventName",
          "type": "string"
        },
        {
          "internalType": "string",
          "name": "_eventDescription",
          "type": "string"
        },
        {
          "internalType": "uint256",
          "name": "_eventDate",
          "type": "uint256"
        },
        {
          "internalType": "string",
          "name": "_eventVenue",
          "type": "string"
        },
        {
          "internalType": "string",
          "name": "_venueAddress",
          "type": "string"
        },
        {
          "internalType": "string",
          "name": "_venueCoordinates",
          "type": "string"
        },
        {
          "internalType": "string",
          "name": "_eventImageUri",
          "type": "string"
        },
        {
          "internalType": "uint256",
          "name": "_ticketPrice",
          "type": "uint256"
        },
        {
          "internalType": "uint256",
          "name": "_maxSupply",
          "type": "uint256"
        },
        {
          "internalType": "uint256",
          "name": "_eventId",
          "type": "uint256"
        },
        {
          "internalType": "address",
          "name": "_organizer",
          "type": "address"
        },
        {
          "internalType": "address",
          "name": "_platformContract",
          "type": "address"
        },
        {
          "internalType": "uint96",
          "name": "_royaltyPercent",
          "type": "uint96"
        }
      ],
      "stateMutability": "nonpayable",
      "type": "constructor"
    },
    {
      "inputs": [],
      "name": "ERC721EnumerableForbiddenBatchMint",
      "type": "error"
    },
    {
      "inputs": [
        {
          "internalType": "address",
          "name": "sender",
          "type": "address"
        },
        {
          "internalType": "uint256",
          "name": "tokenId",
          "type": "uint256"
        },
        {
          "internalType": "address",
          "name": "owner",
          "type": "address"
        }
      ],
      "name": "ERC721IncorrectOwner",
      "type": "error"
    },
    {
      "inputs": [
        {
          "internalType": "address",
          "name": "operator",
          "type": "address"
        },
        {
          "internalType": "uint256",
          "name": "tokenId",
          "type": "uint256"
        }
      ],
      "name": "ERC721InsufficientApproval",
      "type": "error"
    },
    {
      "inputs": [
        {
          "internalType": "address",
          "name": "approver",
          "type": "address"
        }
      ],
      "name": "ERC721InvalidApprover",
      "type": "error"
    },
    {
      "inputs": [
        {
          "internalType": "address",
          "name": "operator",
          "type": "address"
        }
      ],
      "name": "ERC721InvalidOperator",
      "type": "error"
    },
    {
      "inputs": [
        {
          "internalType": "address",
          "name": "owner",
          "type": "address"
        }
      ],
      "name": "ERC721InvalidOwner",
      "type": "error"
    },
    {
      "inputs": [
        {
          "internalType": "address",
          "name": "receiver",
          "type": "address"
        }
      ],
      "name": "ERC721InvalidReceiver",
      "type": "error"
    },
    {
      "inputs": [
        {
          "internalType": "address",
          "name": "sender",
          "type": "address"
        }
      ],
      "name": "ERC721InvalidSender",
      "type": "error"
    },
    {
      "inputs": [
        {
          "internalType": "uint256",
          "name": "tokenId",
          "type": "uint256"
        }
      ],
      "name": "ERC721NonexistentToken",
      "type": "error"
    },
    {
      "inputs": [
        {
          "internalType": "address",
          "name": "owner",
          "type": "address"
        },
        {
          "internalType": "uint256",
          "name": "index",
          "type": "uint256"
        }
      ],
      "name": "ERC721OutOfBoundsIndex",
      "type": "error"
    },
    {
      "inputs": [
        {
          "internalType": "address",
          "name": "owner",
          "type": "address"
        }
      ],
      "name": "OwnableInvalidOwner",
      "type": "error"
    },
    {
      "inputs": [
        {
          "internalType": "address",
          "name": "account",
          "type": "address"
        }
      ],
      "name": "OwnableUnauthorizedAccount",
      "type": "error"
    },
    {
      "anonymous": false,
      "inputs": [
        {
          "indexed": true,
          "internalType": "address",
          "name": "owner",
          "type": "address"
        },
        {
          "indexed": true,
          "internalType": "address",
          "name": "approved",
          "type": "address"
        },
        {
          "indexed": true,
          "internalType": "uint256",
          "name": "tokenId",
          "type": "uint256"
        }
      ],
      "name": "Approval",
      "type": "event"
    },
    {
      "anonymous": false,
      "inputs": [
        {
          "indexed": true,
          "internalType": "address",
          "name": "owner",
          "type": "address"
        },
        {
          "indexed": true,
          "internalType": "address",
          "name": "operator",
          "type": "address"
        },
        {
          "indexed": false,
          "internalType": "bool",
          "name": "approved",
          "type": "bool"
        }
      ],
      "name": "ApprovalForAll",
      "type": "event"
    },
    {
      "anonymous": false,
      "inputs": [],
      "name": "EventCancelled",
      "type": "event"
    },
    {
      "anonymous": false,
      "inputs": [],
      "name": "EventPaused",
      "type": "event"
    },
    {
      "anonymous": false,
      "inputs": [],
      "name": "EventResumed",
      "type": "event"
    },
    {
      "anonymous": false,
      "inputs": [
        {
          "indexed": true,
          "internalType": "address",
          "name": "organizer",
          "type": "address"
        },
        {
          "indexed": false,
          "internalType": "uint256",
          "name": "amount",
          "type": "uint256"
        }
      ],
      "name": "FundsWithdrawn",
      "type": "event"
    },
    {
      "anonymous": false,
      "inputs": [
        {
          "indexed": true,
          "internalType": "address",
          "name": "previousOwner",
          "type": "address"
        },
        {
          "indexed": true,
          "internalType": "address",
          "name": "newOwner",
          "type": "address"
        }
      ],
      "name": "OwnershipTransferred",
      "type": "event"
    },
    {
      "anonymous": false,
      "inputs": [
        {
          "indexed": true,
          "internalType": "address",
          "name": "user",
          "type": "address"
        },
        {
          "indexed": false,
          "internalType": "uint256",
          "name": "amount",
          "type": "uint256"
        },
        {
          "indexed": false,
          "internalType": "uint256[]",
          "name": "tokenIds",
          "type": "uint256[]"
        }
      ],
      "name": "RefundClaimed",
      "type": "event"
    },
    {
      "anonymous": false,
      "inputs": [
        {
          "indexed": true,
          "internalType": "address",
          "name": "buyer",
          "type": "address"
        },
        {
          "indexed": true,
          "internalType": "uint256",
          "name": "tokenId",
          "type": "uint256"
        },
        {
          "indexed": false,
          "internalType": "uint256",
          "name": "price",
          "type": "uint256"
        }
      ],
      "name": "TicketMinted",
      "type": "event"
    },
    {
      "anonymous": false,
      "inputs": [
        {
          "indexed": true,
          "internalType": "address",
          "name": "user",
          "type": "address"
        },
        {
          "indexed": true,
          "internalType": "uint256",
          "name": "tokenId",
          "type": "uint256"
        }
      ],
      "name": "TicketUsed",
      "type": "event"
    },
    {
      "anonymous": false,
      "inputs": [
        {
          "indexed": true,
          "internalType": "address",
          "name": "from",
          "type": "address"
        },
        {
          "indexed": true,
          "internalType": "address",
          "name": "to",
          "type": "address"
        },
        {
          "indexed": true,
          "internalType": "uint256",
          "name": "tokenId",
          "type": "uint256"
        }
      ],
      "name": "Transfer",
      "type": "event"
    },
    {
      "inputs": [
        {
          "internalType": "address",
          "name": "to",
          "type": "address"
        },
        {
          "internalType": "uint256",
          "name": "tokenId",
          "type": "uint256"
        }
      ],
      "name": "approve",
      "outputs": [],
      "stateMutability": "nonpayable",
      "type": "function"
    },
    {
      "inputs": [
        {
          "internalType": "address",
          "name": "owner",
          "type": "address"
        }
      ],
      "name": "balanceOf",
      "outputs": [
        {
          "internalType": "uint256",
          "name": "",
          "type": "uint256"
        }
      ],
      "stateMutability": "view",
      "type": "function"
    },
    {
      "inputs": [],
      "name": "cancelEvent",
      "outputs": [],
      "stateMutability": "nonpayable",
      "type": "function"
    },
    {
      "inputs": [],
      "name": "claimRefund",
      "outputs": [],
      "stateMutability": "nonpayable",
      "type": "function"
    },
    {
      "inputs": [],
      "name": "contentHash",
      "outputs": [
        {
          "internalType": "string",
          "name": "",
          "type": "string"
        }
      ],
      "stateMutability": "view",
      "type": "function"
    },
    {
      "inputs": [],
      "name": "eventCancelled",
      "outputs": [
        {
          "internalType": "bool",
          "name": "",
          "type": "bool"
        }
      ],
      "stateMutability": "view",
      "type": "function"
    },
    {
      "inputs": [],
      "name": "eventDate",
      "outputs": [
        {
          "internalType": "uint256",
          "name": "",
          "type": "uint256"
        }
      ],
      "stateMutability": "view",
      "type": "function"
    },
    {
      "inputs": [],
      "name": "eventDescription",
      "outputs": [
        {
          "internalType": "string",
          "name": "",
          "type": "string"
        }
      ],
      "stateMutability": "view",
      "type": "function"
    },
    {
      "inputs": [],
      "name": "eventId",
      "outputs": [
        {
          "internalType": "uint256",
          "name": "",
          "type": "uint256"
        }
      ],
      "stateMutability": "view",
      "type": "function"
    },
    {
      "inputs": [],
      "name": "eventImageUri",
      "outputs": [
        {
          "internalType": "string",
          "name": "",
          "type": "string"
        }
      ],
      "stateMutability": "view",
      "type": "function"
    },
    {
      "inputs": [],
      "name": "eventName",
      "outputs": [
        {
          "internalType": "string",
          "name": "",
          "type": "string"
        }
      ],
      "stateMutability": "view",
      "type": "function"
    },
    {
      "inputs": [],
      "name": "eventPaused",
      "outputs": [
        {
          "internalType": "bool",
          "name": "",
          "type": "bool"
        }
      ],
      "stateMutability": "view",
      "type": "function"
    },
    {
      "inputs": [],
      "name": "eventVenue",
      "outputs": [
        {
          "internalType": "string",
          "name": "",
          "type": "string"
        }
      ],
      "stateMutability": "view",
      "type": "function"
    },
    {
      "inputs": [],
      "name": "fundsWithdrawn",
      "outputs": [
        {
          "internalType": "bool",
          "name": "",
          "type": "bool"
        }
      ],
      "stateMutability": "view",
      "type": "function"
    },
    {
      "inputs": [
        {
          "internalType": "uint256",
          "name": "tokenId",
          "type": "uint256"
        }
      ],
      "name": "getApproved",
      "outputs": [
        {
          "internalType": "address",
          "name": "",
          "type": "address"
        }
      ],
      "stateMutability": "view",
      "type": "function"
    },
    {
      "inputs": [],
      "name": "getEventInfo",
      "outputs": [
        {
          "internalType": "string",
          "name": "name",
          "type": "string"
        },
        {
          "internalType": "uint256",
          "name": "date",
          "type": "uint256"
        },
        {
          "internalType": "string",
          "name": "venue",
          "type": "string"
        },
        {
          "internalType": "uint256",
          "name": "price",
          "type": "uint256"
        },
        {
          "internalType": "uint256",
          "name": "remaining",
          "type": "uint256"
        },
        {
          "internalType": "bool",
          "name": "cancelled",
          "type": "bool"
        },
        {
          "internalType": "bool",
          "name": "paused",
          "type": "bool"
        }
      ],
      "stateMutability": "view",
      "type": "function"
    },
    {
      "inputs": [],
      "name": "getTicketsRemaining",
      "outputs": [
        {
          "internalType": "uint256",
          "name": "",
          "type": "uint256"
        }
      ],
      "stateMutability": "view",
      "type": "function"
    },
    {
      "inputs": [
        {
          "internalType": "address",
          "name": "",
          "type": "address"
        }
      ],
      "name": "hasClaimedRefund",
      "outputs": [
        {
          "internalType": "bool",
          "name": "",
          "type": "bool"
        }
      ],
      "stateMutability": "view",
      "type": "function"
    },
    {
      "inputs": [
        {
          "internalType": "address",
          "name": "owner",
          "type": "address"
        },
        {
          "internalType": "address",
          "name": "operator",
          "type": "address"
        }
      ],
      "name": "isApprovedForAll",
      "outputs": [
        {
          "internalType": "bool",
          "name": "",
          "type": "bool"
        }
      ],
      "stateMutability": "view",
      "type": "function"
    },
    {
      "inputs": [
        {
          "internalType": "uint256",
          "name": "tokenId",
          "type": "uint256"
        }
      ],
      "name": "isTicketUsed",
      "outputs": [
        {
          "internalType": "bool",
          "name": "",
          "type": "bool"
        }
      ],
      "stateMutability": "view",
      "type": "function"
    },
    {
      "inputs": [],
      "name": "maxSupply",
      "outputs": [
        {
          "internalType": "uint256",
          "name": "",
          "type": "uint256"
        }
      ],
      "stateMutability": "view",
      "type": "function"
    },
    {
      "inputs": [],
      "name": "metadataUri",
      "outputs": [
        {
          "internalType": "string",
          "name": "",
          "type": "string"
        }
      ],
      "stateMutability": "view",
      "type": "function"
    },
    {
      "inputs": [],
      "name": "mintTicket",
      "outputs": [
        {
          "internalType": "uint256",
          "name": "",
          "type": "uint256"
        }
      ],
      "stateMutability": "payable",
      "type": "function"
    },
    {
      "inputs": [],
      "name": "name",
      "outputs": [
        {
          "internalType": "string",
          "name": "",
          "type": "string"
        }
      ],
      "stateMutability": "view",
      "type": "function"
    },
    {
      "inputs": [],
      "name": "organizer",
      "outputs": [
        {
          "internalType": "address",
          "name": "",
          "type": "address"
        }
      ],
      "stateMutability": "view",
      "type": "function"
    },
    {
      "inputs": [],
      "name": "owner",
      "outputs": [
        {
          "internalType": "address",
          "name": "",
          "type": "address"
        }
      ],
      "stateMutability": "view",
      "type": "function"
    },
    {
      "inputs": [
        {
          "internalType": "uint256",
          "name": "tokenId",
          "type": "uint256"
        }
      ],
      "name": "ownerOf",
      "outputs": [
        {
          "internalType": "address",
          "name": "",
          "type": "address"
        }
      ],
      "stateMutability": "view",
      "type": "function"
    },
    {
      "inputs": [],
      "name": "pauseEvent",
      "outputs": [],
      "stateMutability": "nonpayable",
      "type": "function"
    },
    {
      "inputs": [],
      "name": "platformContract",
      "outputs": [
        {
          "internalType": "address",
          "name": "",
          "type": "address"
        }
      ],
      "stateMutability": "view",
      "type": "function"
    },
    {
      "inputs": [],
      "name": "refundDeadline",
      "outputs": [
        {
          "internalType": "uint256",
          "name": "",
          "type": "uint256"
        }
      ],
      "stateMutability": "view",
      "type": "function"
    },
    {
      "inputs": [],
      "name": "refundsEnabled",
      "outputs": [
        {
          "internalType": "bool",
          "name": "",
          "type": "bool"
        }
      ],
      "stateMutability": "view",
      "type": "function"
    },
    {
      "inputs": [],
      "name": "renounceOwnership",
      "outputs": [],
      "stateMutability": "nonpayable",
      "type": "function"
    },
    {
      "inputs": [],
      "name": "resumeEvent",
      "outputs": [],
      "stateMutability": "nonpayable",
      "type": "function"
    },
    {
      "inputs": [
        {
          "internalType": "uint256",
          "name": "",
          "type": "uint256"
        },
        {
          "internalType": "uint256",
          "name": "salePrice",
          "type": "uint256"
        }
      ],
      "name": "royaltyInfo",
      "outputs": [
        {
          "internalType": "address",
          "name": "receiver",
          "type": "address"
        },
        {
          "internalType": "uint256",
          "name": "royaltyAmount",
          "type": "uint256"
        }
      ],
      "stateMutability": "view",
      "type": "function"
    },
    {
      "inputs": [],
      "name": "royaltyPercent",
      "outputs": [
        {
          "internalType": "uint96",
          "name": "",
          "type": "uint96"
        }
      ],
      "stateMutability": "view",
      "type": "function"
    },
    {
      "inputs": [
        {
          "internalType": "address",
          "name": "from",
          "type": "address"
        },
        {
          "internalType": "address",
          "name": "to",
          "type": "address"
        },
        {
          "internalType": "uint256",
          "name": "tokenId",
          "type": "uint256"
        }
      ],
      "name": "safeTransferFrom",
      "outputs": [],
      "stateMutability": "nonpayable",
      "type": "function"
    },
    {
      "inputs": [
        {
          "internalType": "address",
          "name": "from",
          "type": "address"
        },
        {
          "internalType": "address",
          "name": "to",
          "type": "address"
        },
        {
          "internalType": "uint256",
          "name": "tokenId",
          "type": "uint256"
        },
        {
          "internalType": "bytes",
          "name": "data",
          "type": "bytes"
        }
      ],
      "name": "safeTransferFrom",
      "outputs": [],
      "stateMutability": "nonpayable",
      "type": "function"
    },
    {
      "inputs": [
        {
          "internalType": "address",
          "name": "operator",
          "type": "address"
        },
        {
          "internalType": "bool",
          "name": "approved",
          "type": "bool"
        }
      ],
      "name": "setApprovalForAll",
      "outputs": [],
      "stateMutability": "nonpayable",
      "type": "function"
    },
    {
      "inputs": [
        {
          "internalType": "uint96",
          "name": "newPercent",
          "type": "uint96"
        }
      ],
      "name": "setRoyaltyPercent",
      "outputs": [],
      "stateMutability": "nonpayable",
      "type": "function"
    },
    {
      "inputs": [
        {
          "internalType": "bytes4",
          "name": "interfaceId",
          "type": "bytes4"
        }
      ],
      "name": "supportsInterface",
      "outputs": [
        {
          "internalType": "bool",
          "name": "",
          "type": "bool"
        }
      ],
      "stateMutability": "view",
      "type": "function"
    },
    {
      "inputs": [],
      "name": "symbol",
      "outputs": [
        {
          "internalType": "string",
          "name": "",
          "type": "string"
        }
      ],
      "stateMutability": "view",
      "type": "function"
    },
    {
      "inputs": [],
      "name": "ticketPrice",
      "outputs": [
        {
          "internalType": "uint256",
          "name": "",
          "type": "uint256"
        }
      ],
      "stateMutability": "view",
      "type": "function"
    },
    {
      "inputs": [
        {
          "internalType": "uint256",
          "name": "index",
          "type": "uint256"
        }
      ],
      "name": "tokenByIndex",
      "outputs": [
        {
          "internalType": "uint256",
          "name": "",
          "type": "uint256"
        }
      ],
      "stateMutability": "view",
      "type": "function"
    },
    {
      "inputs": [
        {
          "internalType": "address",
          "name": "owner",
          "type": "address"
        },
        {
          "internalType": "uint256",
          "name": "index",
          "type": "uint256"
        }
      ],
      "name": "tokenOfOwnerByIndex",
      "outputs": [
        {
          "internalType": "uint256",
          "name": "",
          "type": "uint256"
        }
      ],
      "stateMutability": "view",
      "type": "function"
    },
    {
      "inputs": [
        {
          "internalType": "uint256",
          "name": "tokenId",
          "type": "uint256"
        }
      ],
      "name": "tokenURI",
      "outputs": [
        {
          "internalType": "string",
          "name": "",
          "type": "string"
        }
      ],
      "stateMutability": "view",
      "type": "function"
    },
    {
      "inputs": [],
      "name": "totalRefundsClaimed",
      "outputs": [
        {
          "internalType": "uint256",
          "name": "",
          "type": "uint256"
        }
      ],
      "stateMutability": "view",
      "type": "function"
    },
    {
      "inputs": [],
      "name": "totalSupply",
      "outputs": [
        {
          "internalType": "uint256",
          "name": "",
          "type": "uint256"
        }
      ],
      "stateMutability": "view",
      "type": "function"
    },
    {
      "inputs": [
        {
          "internalType": "address",
          "name": "from",
          "type": "address"
        },
        {
          "internalType": "address",
          "name": "to",
          "type": "address"
        },
        {
          "internalType": "uint256",
          "name": "tokenId",
          "type": "uint256"
        }
      ],
      "name": "transferFrom",
      "outputs": [],
      "stateMutability": "nonpayable",
      "type": "function"
    },
    {
      "inputs": [
        {
          "internalType": "address",
          "name": "newOwner",
          "type": "address"
        }
      ],
      "name": "transferOwnership",
      "outputs": [],
      "stateMutability": "nonpayable",
      "type": "function"
    },
    {
      "inputs": [
        {
          "internalType": "string",
          "name": "newDescription",
          "type": "string"
        }
      ],
      "name": "updateEventDescription",
      "outputs": [],
      "stateMutability": "nonpayable",
      "type": "function"
    },
    {
      "inputs": [
        {
          "internalType": "string",
          "name": "newImageUri",
          "type": "string"
        }
      ],
      "name": "updateEventImage",
      "outputs": [],
      "stateMutability": "nonpayable",
      "type": "function"
    },
    {
      "inputs": [
        {
          "internalType": "string",
          "name": "newName",
          "type": "string"
        }
      ],
      "name": "updateEventName",
      "outputs": [],
      "stateMutability": "nonpayable",
      "type": "function"
    },
    {
      "inputs": [
        {
          "internalType": "uint256",
          "name": "tokenId",
          "type": "uint256"
        }
      ],
      "name": "useTicket",
      "outputs": [],
      "stateMutability": "nonpayable",
      "type": "function"
    },
    {
      "inputs": [
        {
          "internalType": "uint256",
          "name": "",
          "type": "uint256"
        }
      ],
      "name": "used",
      "outputs": [
        {
          "internalType": "bool",
          "name": "",
          "type": "bool"
        }
      ],
      "stateMutability": "view",
      "type": "function"
    },
    {
      "inputs": [],
      "name": "venueAddress",
      "outputs": [
        {
          "internalType": "string",
          "name": "",
          "type": "string"
        }
      ],
      "stateMutability": "view",
      "type": "function"
    },
    {
      "inputs": [],
      "name": "venueCoordinates",
      "outputs": [
        {
          "internalType": "string",
          "name": "",
          "type": "string"
        }
      ],
      "stateMutability": "view",
      "type": "function"
    },
    {
      "inputs": [],
      "name": "withdrawFunds",
      "outputs": [],
      "stateMutability": "nonpayable",
      "type": "function"
    }
  ],
  "bytecode": "0x60808060405234620006545762004d5c803803809162000020828562000e7a565b83398101906101a081830312620006545780516001600160401b0381116200065457826200005091830162000e9e565b60208201516001600160401b0381116200065457836200007291840162000e9e565b604083015160608401519091906001600160401b0381116200065457856200009c91860162000e9e565b60808501519095906001600160401b038111620006545781620000c191870162000e9e565b60a08601519091906001600160401b038111620006545781620000e691880162000e9e565b60c087015190916001600160401b03821162000654576200010991880162000e9e565b60e08701519161010088015193610120890151996200012c6101408b0162000f14565b966101806200013f6101608d0162000f14565b9b0151996001600160601b038b168b036200065457604080519081018082116001600160401b03909111176200063e57604081810190526006815265151250d2d15560d21b602082015281516001600160401b0381116200063e57600054600181811c9116801562000e6f575b60208210146200079a57601f811162000e1b575b50806020601f821160011462000da45760009162000d98575b508160011b916000199060031b1c1916176000555b8051906001600160401b0382116200063e5760015490600182811c9216801562000d8d575b60208310146200079a5781601f84931162000d2c575b50602090601f831160011462000cae5760009262000ca2575b50508160011b916000199060031b1c1916176001555b331562000c8957600a8054336001600160a01b0319821681179092556001600160a01b03167f8be0079c531659141344cd1fd0a4f28419497f9722a3daafe3b4186f6b6457e0600080a38051906001600160401b0382116200063e57600f5490600182811c9216801562000c7e575b60208310146200079a5781601f84931162000c1d575b50602090601f831160011462000b9f5760009262000b93575b50508160011b916000199060031b1c191617600f555b8051906001600160401b0382116200063e57601a5490600182811c9216801562000b88575b60208310146200079a5781601f84931162000b27575b50602090601f831160011462000aa95760009262000a9d575b50508160011b916000199060031b1c191617601a555b60108890558051906001600160401b0382116200063e5760115490600182811c9216801562000a92575b60208310146200079a5781601f84931162000a31575b50602090601f8311600114620009b357600092620009a7575b50508160011b916000199060031b1c1916176011555b8051906001600160401b0382116200063e5760125490600182811c921680156200099c575b60208310146200079a5781601f8493116200093b575b50602090601f8311600114620008bd57600092620008b1575b50508160011b916000199060031b1c1916176012555b8051906001600160401b0382116200063e5760135490600182811c92168015620008a6575b60208310146200079a5781601f84931162000845575b50602090601f8311600114620007c757600092620007bb575b50508160011b916000199060031b1c1916176013555b8051906001600160401b0382116200063e5760145490600182811c92168015620007b0575b60208310146200079a5781601f84931162000739575b50602090601f8311600114620006bf57600092620006b3575b50508160011b916000199060031b1c1916176014555b601655601555600c859055600d80546001600160a01b03199081166001600160a01b03938416908117909255600b805490911695909216948517909155601d80546001600160601b0319166001600160601b039094169390931790925590919062278d0081019081106200069d5760195580620005ab575b604051613d32908162000f2a8239f35b602060049160405192838092630beb11b760e01b82525afa6000918162000659575b50156200059b576001600160a01b03169182156200059b57823b1562000654576064600092836040519586948593630dfdd32960e11b8552306004860152602485015260448401525af162000625575b80806200059b565b6001600160401b0381116200063e57604052386200061d565b634e487b7160e01b600052604160045260246000fd5b600080fd5b9091506020813d60201162000694575b81620006786020938362000e7a565b8101031262000654576200068c9062000f14565b9038620005cd565b3d915062000669565b634e487b7160e01b600052601160045260246000fd5b0151905038806200050d565b6014600090815260008051602062004d1c8339815191529350601f198516905b81811062000720575090846001959493921062000706575b505050811b0160145562000523565b015160001960f88460031b161c19169055388080620006f7565b92936020600181928786015181550195019301620006df565b601460005290915060008051602062004d1c833981519152601f840160051c81016020851062000792575b90849392915b601f830160051c8201811062000782575050620004f4565b600081558594506001016200076a565b508062000764565b634e487b7160e01b600052602260045260246000fd5b91607f1691620004de565b015190503880620004a3565b60136000908152935060008051602062004cbc83398151915291905b601f198416851062000829576001945083601f198116106200080f575b505050811b01601355620004b9565b015160001960f88460031b161c1916905538808062000800565b81810151835560209485019460019093019290910190620007e3565b601360005290915060008051602062004cbc833981519152601f840160051c8101602085106200089e575b90849392915b601f830160051c820181106200088e5750506200048a565b6000815585945060010162000876565b508062000870565b91607f169162000474565b01519050388062000439565b60126000908152935060008051602062004c5c83398151915291905b601f19841685106200091f576001945083601f1981161062000905575b505050811b016012556200044f565b015160001960f88460031b161c19169055388080620008f6565b81810151835560209485019460019093019290910190620008d9565b601260005290915060008051602062004c5c833981519152601f840160051c81016020851062000994575b90849392915b601f830160051c820181106200098457505062000420565b600081558594506001016200096c565b508062000966565b91607f16916200040a565b015190503880620003cf565b60116000908152935060008051602062004c7c83398151915291905b601f198416851062000a15576001945083601f19811610620009fb575b505050811b01601155620003e5565b015160001960f88460031b161c19169055388080620009ec565b81810151835560209485019460019093019290910190620009cf565b601160005290915060008051602062004c7c833981519152601f840160051c81016020851062000a8a575b90849392915b601f830160051c8201811062000a7a575050620003b6565b6000815585945060010162000a62565b508062000a5c565b91607f1691620003a0565b01519050388062000360565b601a6000908152935060008051602062004cdc83398151915291905b601f198416851062000b0b576001945083601f1981161062000af1575b505050811b01601a5562000376565b015160001960f88460031b161c1916905538808062000ae2565b8181015183556020948501946001909301929091019062000ac5565b601a60005290915060008051602062004cdc833981519152601f840160051c81016020851062000b80575b90849392915b601f830160051c8201811062000b7057505062000347565b6000815585945060010162000b58565b508062000b52565b91607f169162000331565b015190503880620002f6565b600f6000908152935060008051602062004d3c83398151915291905b601f198416851062000c01576001945083601f1981161062000be7575b505050811b01600f556200030c565b015160001960f88460031b161c1916905538808062000bd8565b8181015183556020948501946001909301929091019062000bbb565b600f60005290915060008051602062004d3c833981519152601f840160051c81016020851062000c76575b90849392915b601f830160051c8201811062000c66575050620002dd565b6000815585945060010162000c4e565b508062000c48565b91607f1691620002c7565b604051631e4fbdf760e01b815260006004820152602490fd5b01519050388062000242565b60016000908152935060008051602062004cfc83398151915291905b601f198416851062000d10576001945083601f1981161062000cf6575b505050811b0160015562000258565b015160001960f88460031b161c1916905538808062000ce7565b8181015183556020948501946001909301929091019062000cca565b600160005290915060008051602062004cfc833981519152601f840160051c81016020851062000d85575b90849392915b601f830160051c8201811062000d7557505062000229565b6000815585945060010162000d5d565b508062000d57565b91607f169162000213565b905083015138620001d9565b6000808052925060008051602062004c9c833981519152905b601f198316841062000e02576001935082601f1981161062000de8575b5050811b01600055620001ee565b85015160001960f88460031b161c19169055388062000dda565b8581015182556020938401936001909201910162000dbd565b6000805260008051602062004c9c833981519152601f830160051c81016020841062000e67575b601f830160051c8201811062000e5a575050620001c0565b6000815560010162000e42565b508062000e42565b90607f1690620001ac565b601f909101601f19168101906001600160401b038211908210176200063e57604052565b919080601f84011215620006545782516001600160401b0381116200063e576020906040519262000ed983601f19601f850116018562000e7a565b818452828287010111620006545760005b81811062000f0057508260009394955001015290565b858101830151848201840152820162000eea565b51906001600160a01b0382168203620006545756fe6080604052600436101561001257600080fd5b60003560e01c806301ffc9a7146103a7578063020fe6e5146103a257806305ccfd331461039d57806306fdde0314610398578063081812fc14610393578063089cdd0c1461038e578063095ea7b3146103895780631209b1f614610384578063162746951461037f57806318160ddd1461037a5780631feeaf741461037557806323b872dd1461037057806324600fc31461036b57806326606448146103665780632a55205a146103615780632cd1d35c1461035c5780632f745c591461035757806342842e0e146103525780634bc46a821461034d5780634bfbe5df146103485780634f6ccce714610343578063532f11791461033e578063573c80fa146103395780635e7bfd1214610334578063612032651461032f5780636352211e1461032a578063646c2e3314610325578063684e78dd1461032057806368a94dfc1461031b57806369ba4f68146103165780636d00fa681461031157806370a082311461030c578063715018a61461030757806377a4d559146103025780638043c9c0146102fd5780638da5cb5b146102f857806393d28635146102f35780639434571b146102ee57806395d89b41146102e95780639f67756d146102e4578063a22cb465146102df578063ac307fcf146102da578063b40f2989146102d5578063b5545a3c146102d0578063b5e5f51b146102cb578063b88d4fde146102c6578063b963f8ca146102c1578063c0af2346146102bc578063c87b56dd146102b7578063d5abeb01146102b2578063da649e6b146102ad578063e1a494d1146102a8578063e1aa1bcc146102a3578063e22bda351461029e578063e985e9c514610299578063f2fde38b146102945763fb6c95371461028f57600080fd5b6124f7565b61246a565b612402565b6123e6565b6123c8565b6123a5565b61238a565b61236c565b61234d565b61223c565b61221e565b6121b0565b612106565b611fac565b611f86565b611f64565b611ea3565b611e7c565b611dd5565b611d2d565b611c8a565b611c61565b611c31565b611b89565b611b2b565b611b04565b611a7d565b6119d5565b611993565b6118fd565b611855565b611825565b6117fc565b611754565b61113e565b611118565b6110a8565b61108a565b610fed565b610fb9565b610f86565b610f32565b610edf565b610c32565b610b11565b610afa565b6109cf565b6109b1565b610988565b61096a565b610867565b610838565b6107fa565b610713565b610595565b610465565b6103c3565b6001600160e01b03198116036103be57565b600080fd5b346103be5760203660031901126103be5760206004356103e2816103ac565b63ffffffff60e01b1663152a902d60e11b8114908115610408575b506040519015158152f35b63780e9d6360e01b811491508115610422575b50386103fd565b6380ac58cd60e01b811491508115610454575b8115610443575b503861041b565b6301ffc9a760e01b1490503861043c565b635b5e139f60e01b81149150610435565b346103be5760203660031901126103be576004356000526018602052602060ff604060002054166040519015158152f35b634e487b7160e01b600052604160045260246000fd5b67ffffffffffffffff81116104c057604052565b610496565b6020810190811067ffffffffffffffff8211176104c057604052565b90601f8019910116810190811067ffffffffffffffff8211176104c057604052565b67ffffffffffffffff81116104c057601f01601f191660200190565b92919261052b82610503565b9161053960405193846104e1565b8294818452818301116103be578281602093846000960137010152565b60206003198201126103be576004359067ffffffffffffffff82116103be57806023830112156103be578160246105929360040135910161051f565b90565b346103be576105a336610556565b600d546105c590336001600160a01b03918216149081156106a1575b506125b2565b805167ffffffffffffffff81116104c0576105ea816105e5600f546115c7565b6125fe565b602080601f831160011461062c5750819061061c93600092610621575b50508160011b916000199060031b1c19161790565b600f55005b015190503880610607565b90601f1983169361064d600f600052600080516020613cdd83398151915290565b926000905b8682106106895750508360019510610670575b505050811b01600f55005b015160001960f88460031b161c19169055388080610665565b80600185968294968601518155019501930190610652565b9050600a54163314386105bf565b60009103126103be57565b60005b8381106106cd5750506000910152565b81810151838201526020016106bd565b906020916106f6815180928185528580860191016106ba565b601f01601f1916010190565b9060206105929281815201906106dd565b346103be576000806003193601126107f7576040519080805490610736826115c7565b808552916020916001918281169081156107ca5750600114610773575b61076f86610763818803826104e1565b60405191829182610702565b0390f35b80809550527f290decd9548b62a8d60345a988386fc84ba6bc95484008f6362f93160ef3e5635b8385106107b7575050505081016020016107638261076f38610753565b805486860184015293820193810161079a565b905086955061076f9693506020925061076394915060ff191682840152151560051b820101929338610753565b80fd5b346103be5760203660031901126103be576004356108178161343a565b506000526004602052602060018060a01b0360406000205416604051908152f35b346103be5760003660031901126103be576020600c54604051908152f35b6001600160a01b038116036103be57565b346103be5760403660031901126103be5760043561088481610856565b602435906108918261343a565b33151580610957575b80610929575b6109115761090f926108f09181906001600160a01b0385811691167f8c5be1e5ebec7d5bd14f71427d1e84f3dd0314c0f7b2291e5b200ac8c7c3b925600080a46000526004602052604060002090565b80546001600160a01b0319166001600160a01b03909216919091179055565b005b60405163a9fbf51f60e01b8152336004820152602490fd5b506001600160a01b038116600090815260056020908152604080832033845290915290205460ff16156108a0565b506001600160a01b03811633141561089a565b346103be5760003660031901126103be576020601654604051908152f35b346103be5760003660031901126103be57600b546040516001600160a01b039091168152602090f35b346103be5760003660031901126103be576020600854604051908152f35b346103be576109dd36610556565b600d546109fe90336001600160a01b03918216149081156106a157506125b2565b805167ffffffffffffffff81116104c057610a2381610a1e6014546115c7565b61265e565b602080601f8311600114610a5957508190610a54936000926106215750508160011b916000199060031b1c19161790565b601455005b90601f19831693610a7a6014600052600080516020613cbd83398151915290565b926000905b868210610ab65750508360019510610a9d575b505050811b01601455005b015160001960f88460031b161c19169055388080610a92565b80600185968294968601518155019501930190610a7f565b60609060031901126103be57600435610ae681610856565b90602435610af381610856565b9060443590565b346103be5761090f610b0b36610ace565b91612730565b346103be576000806003193601126107f757600d54610b4490336001600160a01b03918216149081156106a157506125b2565b610b5f610b5a610b5660205460ff1690565b1590565b6128a2565b610b6c60105442116128ee565b610b87610b82610b56601d5460ff9060601c1690565b612930565b47610b93811515612988565b610ba5600160ff196020541617602055565b610be08280808085610bd0610bc4610bc4600d5460018060a01b031690565b6001600160a01b031690565b5af1610bda6129de565b50612a0e565b600d547feaff4b37086828766ad3268786972c0cd24259d4c87a80f9d3963a3c3d999b0d90610c2c90610c1b906001600160a01b0316610bc4565b604051938452929081906020820190565b0390a280f35b346103be576020806003193601126103be5760043590610c518261343a565b6001600160a01b039190610c689083163314612a4e565b610c91610c8c610b56610c85866000526018602052604060002090565b5460ff1690565b612a9a565b610c9f601054421115612adc565b610cb6610cb1610b5660175460ff1690565b612b28565b610cda610ccd846000526018602052604060002090565b805460ff19166001179055565b604051600093337f108a46e5e0e67b88292a0674cb6edf9da3b41ad04c8cd52a738ff591ce32443a8680a3600b5483166001600160a01b031680610d1c578480f35b816004818593631c5f309960e01b82525afa908115610ea657849184918391610ec2575b5016600c54813b15610ebe57604051630345698f60e41b8152336004820152602481019190915291908290604490829084905af1610eab575b50600b546004908290610d9690610bc4906001600160a01b031681565b604051630cf3be5160e21b815292839182905afa908115610ea6578493610df092610e22928691610e79575b501692610e14610df560405194859384016010906f02cb7bab9103a34b1b5b2ba103337b9160851b81520190565b612b95565b72081a185cc81899595b881d985b1a59185d1959606a1b815260130190565b03601f1981018352826104e1565b813b15610e75578291610e4c9160405194858094819363e567d29d60e01b83523360048401612cf8565b03925af1610e5c575b8080808480f35b80610e69610e6f926104ac565b806106af565b38610e55565b5050fd5b610e999150853d8711610e9f575b610e9181836104e1565b810190612b74565b38610dc2565b503d610e87565b612b89565b80610e69610eb8926104ac565b38610d79565b8280fd5b610ed99150843d8611610e9f57610e9181836104e1565b38610d40565b346103be5760403660031901126103be5760018060a01b03600d5416612710610f156001600160601b03601d5416602435612d94565b604080516001600160a01b03949094168452919004602083015290f35b346103be5760203660031901126103be57600435600081815260026020526040902054610f69906001600160a01b03161515612da7565b6000526018602052602060ff604060002054166040519015158152f35b346103be5760403660031901126103be576020610fb1600435610fa881610856565b60243590612dea565b604051908152f35b346103be5761090f610fca36610ace565b9060405192610fd8846104c5565b60008452610fe7838383612730565b33613745565b346103be5760203660031901126103be576004356001600160601b0381168091036103be57600d5461103390336001600160a01b03918216149081156106a157506125b2565b6103e88111611052576001600160601b0319601d541617601d55600080f35b60405162461bcd60e51b815260206004820152601060248201526f0a4def2c2d8e8f240e8dede40d0d2ced60831b6044820152606490fd5b346103be5760003660031901126103be576020601054604051908152f35b346103be5760203660031901126103be576004356008548110156110f95760209060086000527ff3f7a9fe364faab93b216da50a3214154f22a0a2b415b23a84c8169e8b636ee30154604051908152f35b6044906040519063295f44f760e21b8252600060048301526024820152fd5b346103be5760003660031901126103be57602060ff601d5460601c166040519015158152f35b6000806003193601126107f75761116960ff60175461115f82821615612b28565b60081c1615612e60565b600e546111796015548210612eac565b611187601654341015612ef8565b61119861119382612f44565b600e55565b333b156115b8576111a9813361357c565b60408051348152829033907fcbea9c23945e351434f7ae5b1a435091cc278dd9dd0eba4c04203674014ca7d790602090a3600b546001600160a01b03908116806111f8575b8251848152602090f35b8251808092631c5f309960e01b8252602093849160049485915afa908115610ea65787918591839161159b575b5016600c54813b15610ebe5786516304a4955360e11b815233858201908152602081018a905260408101929092529291839182908490829060600103925af1611588575b50600b5461128190610bc4906001600160a01b031681565b845183818481630e64f35d60e01b958682525afa908115610ea65788918691839161156b575b5016600c54813b15610ebe578751631bc50c9b60e01b8152858101918252600160208301529291839182908490829060400103925af1611558575b50600b5483906112fc90610bc4906001600160a01b031681565b918387518094819382525afa8015610ea6578491889161153b575b501686600c549160165490803b15610ebe578751633c3d7a3760e01b81528581019485526020850192909252909283919082908490829060400103925af1611528575b50600b548190839061137690610bc4906001600160a01b031681565b8651630beb11b760e01b815292839182905afa908115610ea65787918591839161150b575b50600d549116906001600160a01b0316813b15610ebe57865163955f63e360e01b81526001600160a01b0390911684820190815260016020820152909291839182908490829060400103925af16114f8575b50600b548190839061140990610bc4906001600160a01b031681565b8651630cf3be5160e21b815292839182905afa938415610ea657610df0946114889289916114db575b50169261147a865195869283016028907f596f75207375636365737366756c6c7920707572636861736564206120746963815267035b2ba103337b9160c51b60208201520190565b03601f1981018552846104e1565b813b156114d7579185916114b59361076f97865180968195829463e567d29d60e01b845233908401612f53565b03925af16114c4575b806111ee565b80610e696114d1926104ac565b386114be565b8580fd5b6114f29150853d8711610e9f57610e9181836104e1565b38611432565b80610e69611505926104ac565b386113ed565b6115229150853d8711610e9f57610e9181836104e1565b3861139b565b80610e69611535926104ac565b3861135a565b6115529150843d8611610e9f57610e9181836104e1565b38611317565b80610e69611565926104ac565b386112e2565b6115829150863d8811610e9f57610e9181836104e1565b386112a7565b80610e69611595926104ac565b38611269565b6115b29150853d8711610e9f57610e9181836104e1565b38611225565b6115c28133613475565b6111a9565b90600182811c921680156115f7575b60208310146115e157565b634e487b7160e01b600052602260045260246000fd5b91607f16916115d6565b60405190600082600f5491611615836115c7565b808352926020906001908181169081156116915750600114611642575b5050611640925003836104e1565b565b915092600f600052600080516020613cdd833981519152936000925b82841061167957506116409450505081016020013880611632565b8554888501830152948501948794509281019261165e565b9150506020925061164094915060ff191682840152151560051b8201013880611632565b60405190600082601154916116c9836115c7565b8083529260209060019081811690811561169157506001146116f3575050611640925003836104e1565b91509260116000527f31ecc21a745e3968a04e9570e4425bc18fa8019c68028196b546d1669c200c68936000925b82841061173c57506116409450505081016020013880611632565b85548885018301529485019487945092810192611721565b346103be576000806003193601126107f757604051908060135490611778826115c7565b808552916020916001918281169081156107ca57506001146117a45761076f86610763818803826104e1565b9350601384527f66de8ffda797e3de9c05e8fc57b3bf0ec28a930d40b0d285d93c06501cf6a0905b8385106117e9575050505081016020016107638261076f38610753565b80548686018401529382019381016117cc565b346103be5760003660031901126103be57600d546040516001600160a01b039091168152602090f35b346103be5760203660031901126103be57602061184360043561343a565b6040516001600160a01b039091168152f35b346103be576000806003193601126107f7576040519080601c5490611879826115c7565b808552916020916001918281169081156107ca57506001146118a55761076f86610763818803826104e1565b9350601c84527f0e4562a10381dec21b205ed72637e6b1b523bdd0e4d4d50af5cd23dd4500a2115b8385106118ea575050505081016020016107638261076f38610753565b80548686018401529382019381016118cd565b346103be576000806003193601126107f757604051908060145490611921826115c7565b808552916020916001918281169081156107ca575060011461194d5761076f86610763818803826104e1565b935060148452600080516020613cbd8339815191525b838510611980575050505081016020016107638261076f38610753565b8054868601840152938201938101611963565b346103be5760203660031901126103be576004356119b081610856565b60018060a01b0316600052601e602052602060ff604060002054166040519015158152f35b346103be576000806003193601126107f7576040519080601254906119f9826115c7565b808552916020916001918281169081156107ca5750600114611a255761076f86610763818803826104e1565b9350601284527fbb8a6a4669ba250d26cd7a459eca9d215f8307e33aebe50379bc5a3617ec34445b838510611a6a575050505081016020016107638261076f38610753565b8054868601840152938201938101611a4d565b346103be5760003660031901126103be57611acd60105460165460ff611aa1613428565b60175490611ae0611ab0611601565b95611ab96116b5565b60405198899860e08a5260e08a01906106dd565b91602089015287820360408901526106dd565b9360608601526080850152818116151560a085015260081c16151560c08301520390f35b346103be5760203660031901126103be576020610fb1600435611b2681610856565b612f9b565b346103be576000806003193601126107f757611b456136a8565b600a80546001600160a01b0319811690915581906001600160a01b03167f8be0079c531659141344cd1fd0a4f28419497f9722a3daafe3b4186f6b6457e08280a380f35b346103be576000806003193601126107f7576040519080601b5490611bad826115c7565b808552916020916001918281169081156107ca5750600114611bd95761076f86610763818803826104e1565b9350601b84527f3ad8aa4f87544323a9d1e5dd902f40c356527a7955687113db5f9a85ad579dc15b838510611c1e575050505081016020016107638261076f38610753565b8054868601840152938201938101611c01565b346103be5760003660031901126103be5761076f611c4d611601565b6040519182916020835260208301906106dd565b346103be5760003660031901126103be57600a546040516001600160a01b039091168152602090f35b346103be576000806003193601126107f757600d54611cbd90336001600160a01b03918216149081156106a157506125b2565b60175460ff8160081c1615611cfb5761ff0019166017557fe0677e2d9b3effbc3fc8f3703d115e92a0dc283a372011a32dc6ba82948a73ae8180a180f35b60405162461bcd60e51b815260206004820152600a602482015269139bdd081c185d5cd95960b21b6044820152606490fd5b346103be576000806003193601126107f7576040519080601a5490611d51826115c7565b808552916020916001918281169081156107ca5750600114611d7d5761076f86610763818803826104e1565b9350601a84527f057c384a7d1c54f3a1b2e5e67b2617b8224fdfd1ea7234eea573a6ff665ff63e5b838510611dc2575050505081016020016107638261076f38610753565b8054868601840152938201938101611da5565b346103be576000806003193601126107f75760405190806001805490611dfa826115c7565b80865292602092600181169081156107ca5750600114611e245761076f86610763818803826104e1565b9350600184527fb10e2d527612073b26eecdfd717e6a320cf44b4afac2b0732d9fcbe2b7fa0cf65b838510611e69575050505081016020016107638261076f38610753565b8054868601840152938201938101611e4c565b346103be5760003660031901126103be5760206001600160601b03601d5416604051908152f35b346103be5760403660031901126103be57600435611ec081610856565b602435801515908181036103be576001600160a01b038316928315611f4b5790611f0c611f1d9233600052600560205260406000209060018060a01b0316600052602052604060002090565b9060ff801983541691151516179055565b6040519081527f17307eab39ab6107e8899845ad3d59bd9653f200f220920489ca2b5937696c3160203392a3005b604051630b61174360e31b815260048101859052602490fd5b346103be5760003660031901126103be57602060ff8154166040519015158152f35b346103be5760003660031901126103be57602060ff60175460081c166040519015158152f35b346103be576000806003193601126107f757601d54611fd09060601c60ff16612fd4565b336000908152601e60205260409020611ff590611ff090610b5690610c85565b613016565b61200360195442111561305b565b61200c33612f9b565b6120178115156130a0565b612020816130f7565b90825b8181106120bc5750610c2c61205c7f4ab127485e25b893b831478744ce27218f38f11abcf85cab4bfe1454decaac6f9260165490612d94565b926120698447101561318e565b336000908152601e6020526040902061208190610ccd565b61209561209085601f546131f6565b601f55565b6120ae8580808088335af16120a86129de565b50613203565b604051918291339583613248565b806120c960019233612dea565b6120d38286613129565b526121006120fb610b56610c856120ea8589613129565b516000526018602052604060002090565b613142565b01612023565b346103be576000806003193601126107f757600d5461213990336001600160a01b03918216149081156106a157506125b2565b60175460ff8160081c1661217a5761ff001916610100176017557f62fc4dfe48924cd74fd69a7123e805a52ce4384933497844a755e131723c4dfa8180a180f35b60405162461bcd60e51b815260206004820152600e60248201526d105b1c9958591e481c185d5cd95960921b6044820152606490fd5b346103be5760803660031901126103be576004356121cd81610856565b602435906121da82610856565b6044356064359267ffffffffffffffff84116103be57366023850112156103be5761221261090f94369060248160040135910161051f565b92610fe7838383612730565b346103be5760003660031901126103be576020601f54604051908152f35b346103be5761224a36610556565b600d5461226b90336001600160a01b03918216149081156106a157506125b2565b805167ffffffffffffffff81116104c0576122908161228b601a546115c7565b6126be565b602080601f83116001146122c6575081906122c1936000926106215750508160011b916000199060031b1c19161790565b601a55005b90601f198316936122f9601a6000527f057c384a7d1c54f3a1b2e5e67b2617b8224fdfd1ea7234eea573a6ff665ff63e90565b926000905b868210612335575050836001951061231c575b505050811b01601a55005b015160001960f88460031b161c19169055388080612311565b806001859682949686015181550195019301906122fe565b346103be5760203660031901126103be5761076f611c4d6004356132a1565b346103be5760003660031901126103be576020601554604051908152f35b346103be5760003660031901126103be576020610fb1613428565b346103be5760003660031901126103be57602060ff601754166040519015158152f35b346103be5760003660031901126103be576020601954604051908152f35b346103be5760003660031901126103be5761076f611c4d6116b5565b346103be5760403660031901126103be57602060ff61245e60043561242681610856565b6024359061243382610856565b60018060a01b03166000526005845260406000209060018060a01b0316600052602052604060002090565b54166040519015158152f35b346103be5760203660031901126103be5760043561248781610856565b61248f6136a8565b6001600160a01b039081169081156124de57600a54826001600160601b0360a01b821617600a55167f8be0079c531659141344cd1fd0a4f28419497f9722a3daafe3b4186f6b6457e0600080a3005b604051631e4fbdf760e01b815260006004820152602490fd5b346103be576000806003193601126107f757600d5461252a90336001600160a01b03918216149081156106a157506125b2565b60175460ff81166125795760ff1916600117601755601d805460ff60601b1916600160601b1790557fc423524f667a9459893f10159c8a95981a43fb77edd414f6325d8439604ad4188180a180f35b60405162461bcd60e51b8152602060048201526011602482015270105b1c9958591e4818d85b98d95b1b1959607a1b6044820152606490fd5b156125b957565b60405162461bcd60e51b815260206004820152601760248201527f4f6e6c79206f7267616e697a6572206f72206f776e65720000000000000000006044820152606490fd5b601f811161260a575050565b600090600f600052600080516020613cdd833981519152906020601f850160051c83019410612654575b601f0160051c01915b82811061264957505050565b81815560010161263d565b9092508290612634565b601f811161266a575050565b6000906014600052600080516020613cbd833981519152906020601f850160051c830194106126b4575b601f0160051c01915b8281106126a957505050565b81815560010161269d565b9092508290612694565b601f81116126ca575050565b600090601a6000527f057c384a7d1c54f3a1b2e5e67b2617b8224fdfd1ea7234eea573a6ff665ff63e906020601f850160051c83019410612726575b601f0160051c01915b82811061271b57505050565b81815560010161270f565b9092508290612706565b6001600160a01b038281169290919083156128895760008581526002602052604090205485906001600160a01b03169433612879575b848616958615801561284b575b6001600160a01b0385166000908152600360205260409020600181540190556127aa856108f0866000526002602052604060002090565b8383897fddf252ad1be2c89b69c2b068fc378daa952ba7f163c4a11628f55a4df523b3ef600080a41561282b57506127e182613b3f565b850361281b575b505016918282036127f857505050565b60649350604051926364283d7b60e01b8452600484015260248301526044820152fd5b61282491613b9c565b38846127e8565b8282880361283b575b50506127e1565b61284491613acf565b3882612834565b61285484613aab565b6001600160a01b03821660009081526003602052604090208054600019019055612773565b612884823388613be3565b612766565b604051633250574960e11b815260006004820152602490fd5b156128a957565b60405162461bcd60e51b815260206004820152601760248201527f46756e647320616c72656164792077697468647261776e0000000000000000006044820152606490fd5b156128f557565b60405162461bcd60e51b8152602060048201526013602482015272115d995b9d081b9bdd08195b991959081e595d606a1b6044820152606490fd5b1561293757565b60405162461bcd60e51b8152602060048201526024808201527f43616e6e6f74207769746864726177207769746820726566756e647320656e61604482015263189b195960e21b6064820152608490fd5b1561298f57565b60405162461bcd60e51b81526020600482015260146024820152734e6f2066756e647320746f20776974686472617760601b6044820152606490fd5b604051906129d8826104c5565b60008252565b3d15612a09573d906129ef82610503565b916129fd60405193846104e1565b82523d6000602084013e565b606090565b15612a1557565b60405162461bcd60e51b815260206004820152601160248201527015da5d1a191c985dd85b0819985a5b1959607a1b6044820152606490fd5b15612a5557565b60405162461bcd60e51b815260206004820152601f60248201527f4f6e6c7920746f6b656e206f776e65722063616e20757365207469636b6574006044820152606490fd5b15612aa157565b60405162461bcd60e51b8152602060048201526013602482015272151a58dad95d08185b1c9958591e481d5cd959606a1b6044820152606490fd5b15612ae357565b60405162461bcd60e51b815260206004820152601760248201527f4576656e742068617320616c726561647920656e6465640000000000000000006044820152606490fd5b15612b2f57565b60405162461bcd60e51b815260206004820152601860248201527f4576656e7420686173206265656e2063616e63656c6c656400000000000000006044820152606490fd5b908160209103126103be575161059281610856565b6040513d6000823e3d90fd5b600f5460009291612ba5826115c7565b91600190818116908115612bff5750600114612bc057505050565b9091929350600f600052600080516020613cdd833981519152906000915b848310612bec575050500190565b8181602092548587015201920191612bde565b60ff191683525050811515909102019150565b601b5460009291612c22826115c7565b91600190818116908115612bff5750600114612c3d57505050565b9091929350601b6000527f3ad8aa4f87544323a9d1e5dd902f40c356527a7955687113db5f9a85ad579dc1906000915b848310612c7b575050500190565b8181602092548587015201920191612c6d565b60145460009291612c9e826115c7565b91600190818116908115612bff5750600114612cb957505050565b90919293506014600052600080516020613cbd833981519152906000915b848310612ce5575050500190565b8181602092548587015201920191612cd7565b9061059292612d3e9160018060a01b0316835260806020840152600b60808401526a151a58dad95d08155cd95960aa1b60a084015260c0604084015260c08301906106dd565b9060608183039101526040906006815265151250d2d15560d21b60208201520190565b634e487b7160e01b600052601160045260246000fd5b600281901b91906001600160fe1b03811603612d8f57565b612d61565b81810292918115918404141715612d8f57565b15612dae57565b60405162461bcd60e51b8152602060048201526014602482015273151bdad95b88191bd95cc81b9bdd08195e1a5cdd60621b6044820152606490fd5b612df381612f9b565b821015612e1f5760018060a01b0316600052600660205260406000209060005260205260406000205490565b60405163295f44f760e21b81526001600160a01b039190911660048201526024810191909152604490fd5b634e487b7160e01b600052603260045260246000fd5b15612e6757565b60405162461bcd60e51b815260206004820152601760248201527f5469636b65742073616c657320617265207061757365640000000000000000006044820152606490fd5b15612eb357565b60405162461bcd60e51b815260206004820152601c60248201527f416c6c207469636b6574732068617665206265656e206d696e746564000000006044820152606490fd5b15612eff57565b60405162461bcd60e51b815260206004820152601b60248201527f496e73756666696369656e74207061796d656e7420616d6f756e7400000000006044820152606490fd5b6000198114612d8f5760010190565b9061059292612d3e9160018060a01b0316835260806020840152600d60808401526c151a58dad95d08135a5b9d1959609a1b60a084015260c0604084015260c08301906106dd565b6001600160a01b03168015612fbb57600052600360205260406000205490565b6040516322718ad960e21b815260006004820152602490fd5b15612fdb57565b60405162461bcd60e51b81526020600482015260136024820152721499599d5b991cc81b9bdd08195b98589b1959606a1b6044820152606490fd5b1561301d57565b60405162461bcd60e51b8152602060048201526016602482015275105b1c9958591e4818db185a5b5959081c99599d5b9960521b6044820152606490fd5b1561306257565b60405162461bcd60e51b81526020600482015260166024820152751499599d5b9908191958591b1a5b99481c185cdcd95960521b6044820152606490fd5b156130a757565b60405162461bcd60e51b815260206004820152601060248201526f139bc81d1a58dad95d1cc81bdddb995960821b6044820152606490fd5b67ffffffffffffffff81116104c05760051b60200190565b90613101826130df565b61310e60405191826104e1565b828152809261311f601f19916130df565b0190602036910137565b805182101561313d5760209160051b010190565b612e4a565b1561314957565b60405162461bcd60e51b815260206004820152601960248201527f43616e6e6f7420726566756e642075736564207469636b6574000000000000006044820152606490fd5b1561319557565b60405162461bcd60e51b815260206004820152601d60248201527f496e73756666696369656e7420636f6e74726163742062616c616e63650000006044820152606490fd5b9060028201809211612d8f57565b9060208201809211612d8f57565b91908201809211612d8f57565b1561320a57565b60405162461bcd60e51b81526020600482015260166024820152751499599d5b99081d1c985b9cd9995c8819985a5b195960521b6044820152606490fd5b906040820190825260206060819360408382015285518094520193019160005b828110613276575050505090565b835185529381019392810192600101613268565b9061329d602092828151948592016106ba565b0190565b6000818152600260205260409020546132c4906001600160a01b03161515612da7565b6132cf601b546115c7565b6133f35761059261333b6133b26132e86133e794613804565b61339961338b61338661336f610df0604051978896613335613320610df060208b01600990683d913730b6b2911d1160b91b81520190565b68205469636b6574202360b81b815260090190565b9061328a565b7f222c226465736372697074696f6e223a224576656e74207469636b657420666f815261039160f51b602082015260220190565b6a11161134b6b0b3b2911d1160a91b8152600b0190565b612c8e565b61227d60f01b815260020190565b03916133ad601f19938481018352826104e1565b6139b8565b6040517f646174613a6170706c69636174696f6e2f6a736f6e3b6261736536342c0000006020820152938491603d8301613335565b039081018352826104e1565b61059261340261341792613804565b610e1460405193849261333560208501612c12565b64173539b7b760d91b815260050190565b601554600e548103908111612d8f5790565b6000818152600260205260409020546001600160a01b031690811561345d575090565b60249060405190637e27328960e01b82526004820152fd5b90604051613482816104c5565b60008152613490828461357c565b823b61349b57505050565b60206134be9160405180938192630a85bd0160e11b9687845233600485016136e9565b038160006001600160a01b0388165af16000918161354b575b5061351657826134e56129de565b805191908261350f57604051633250574960e11b81526001600160a01b0383166004820152602490fd5b6020915001fd5b6001600160e01b031916036135285750565b604051633250574960e11b81526001600160a01b03919091166004820152602490fd5b61356e91925060203d602011613575575b61356681836104e1565b8101906136d4565b90386134d7565b503d61355c565b6001600160a01b03918183168015612889576000828152600260205260409020546001600160a01b03169384168015948515958661367a575b6001600160a01b0386166000908152600360205260409020600181540190556135ec866108f0876000526002602052604060002090565b8484847fddf252ad1be2c89b69c2b068fc378daa952ba7f163c4a11628f55a4df523b3ef600080a41561365a575061362383613b3f565b0361364a575b505061363157565b6040516339e3563760e11b815260006004820152602490fd5b61365391613b9c565b3880613629565b8383830361366a575b5050613623565b61367391613acf565b3883613663565b61368385613aab565b6001600160a01b038216600090815260036020526040902080546000190190556135b5565b600a546001600160a01b031633036136bc57565b60405163118cdaa760e01b8152336004820152602490fd5b908160209103126103be5751610592816103ac565b610592939260809260018060a01b0316825260006020830152604082015281606082015201906106dd565b6001600160a01b039182168152911660208201526040810191909152608060608201819052610592929101906106dd565b92939193843b613757575b5050505050565b60209161377a6040519485938493630a85bd0160e11b9889865260048601613714565b038160006001600160a01b0388165af1600091816137bb575b506137a157826134e56129de565b6001600160e01b0319160361352857503880808080613750565b6137d591925060203d6020116135755761356681836104e1565b9038613793565b906137e682610503565b6137f360405191826104e1565b828152809261311f601f1991610503565b806000917a184f03e93ff9f4daa797ed6e38ed64bf6a1f0100000000000000008082101561393a575b506d04ee2d6d415b85acef81000000008083101561392b575b50662386f26fc100008083101561391c575b506305f5e1008083101561390d575b50612710808310156138fe575b5060648210156138ee575b600a809210156138e4575b60019081602161389c600187016137dc565b95860101905b6138ae575b5050505090565b600019019083906f181899199a1a9b1b9c1cb0b131b232b360811b8282061a8353049182156138df579190826138a2565b6138a7565b916001019161388a565b919060646002910491019161387f565b60049193920491019138613874565b60089193920491019138613867565b60109193920491019138613858565b60209193920491019138613846565b60409350810491503861382d565b604051906060820182811067ffffffffffffffff8211176104c057604052604082527f6768696a6b6c6d6e6f707172737475767778797a303132333435363738392b2f6040837f4142434445464748494a4b4c4d4e4f505152535455565758595a61626364656660208201520152565b805115613aa2576139c7613948565b6139e36139de6139d784516131da565b6003900490565b612d77565b916139f56139f0846131e8565b6137dc565b92835280815182019060208501935b828210613a4657505050600390510680600114613a3557600214613a26575090565b603d60f81b6000199091015290565b50613d3d60f01b6001199091015290565b90919360049060038094019384516001603f81818460121c16880101519260f893841b8652828282600c1c1689010151841b8387015282828260061c1689010151841b60028701521686010151901b9082015201939190613a04565b506105926129cb565b613abf906000526004602052604060002090565b80546001600160a01b0319169055565b90613ad982612f9b565b9160009282845260209060078252604093848620549360018060a01b031686526006835284862093828103613b1d575b508552600782528484812055845252812055565b8287528484528587205481885280878920558752600784528587205538613b09565b60085481600052600960205280604060002055680100000000000000008110156104c057600181018060085581101561313d5760086000527ff3f7a9fe364faab93b216da50a3214154f22a0a2b415b23a84c8169e8b636ee30155565b90613ba682612f9b565b600019810192908311612d8f576001600160a01b031660009081526006602090815260408083208584528252808320849055928252600790522055565b6001600160a01b03908282168015159081613c4e575b5015613c055750505050565b16613c2357604051637e27328960e01b815260048101839052602490fd5b60405163177e802f60e01b81526001600160a01b039190911660048201526024810191909152604490fd5b82841680821492508215613c86575b508115613c6c575b5038613bf9565b905084600052600460205282604060002054161438613c65565b909150600052600560205260ff613cb38560406000209060018060a01b0316600052602052604060002090565b54169038613c5d56fece6d7b5282bd9a3661ae061feed1dbda4e52ab073b1f9285be6e155d9c38d4ec8d1108e10bcb7c27dddfc02ed9d693a074039d026cf4ea4240b40f7d581ac802a2646970667358221220ab2fa43a749a0825f50e9ac68e654fadb53eb3dfbc45405684108081d4061d5664736f6c63430008160033bb8a6a4669ba250d26cd7a459eca9d215f8307e33aebe50379bc5a3617ec344431ecc21a745e3968a04e9570e4425bc18fa8019c68028196b546d1669c200c68290decd9548b62a8d60345a988386fc84ba6bc95484008f6362f93160ef3e56366de8ffda797e3de9c05e8fc57b3bf0ec28a930d40b0d285d93c06501cf6a090057c384a7d1c54f3a1b2e5e67b2617b8224fdfd1ea7234eea573a6ff665ff63eb10e2d527612073b26eecdfd717e6a320cf44b4afac2b0732d9fcbe2b7fa0cf6ce6d7b5282bd9a3661ae061feed1dbda4e52ab073b1f9285be6e155d9c38d4ec8d1108e10bcb7c27dddfc02ed9d693a074039d026cf4ea4240b40f7d581ac802",
  "linkReferences": {},
  "deployedLinkReferences": {}
}