{
  "_format": "hh-sol-artifact-1",
  "contractName": "NotificationSystem",
  "sourceName": "contracts/BIG/NotificationSystem.sol",
  "abi": [
    {
      "inputs": [],
      "stateMutability": "nonpayable",
      "type": "constructor"
    },
    {
      "inputs": [
        {
          "internalType": "address",
          "name": "owner",
          "type": "address"
        }
      ],
      "name": "OwnableInvalidOwner",
      "type": "error"
    },
    {
      "inputs": [
        {
          "internalType": "address",
          "name": "account",
          "type": "address"
        }
      ],
      "name": "OwnableUnauthorizedAccount",
      "type": "error"
    },
    {
      "anonymous": false,
      "inputs": [
        {
          "indexed": true,
          "internalType": "address",
          "name": "recipient",
          "type": "address"
        },
        {
          "indexed": false,
          "internalType": "string",
          "name": "category",
          "type": "string"
        },
        {
          "indexed": false,
          "internalType": "string",
          "name": "notificationUri",
          "type": "string"
        }
      ],
      "name": "NotificationSent",
      "type": "event"
    },
    {
      "anonymous": false,
      "inputs": [
        {
          "indexed": true,
          "internalType": "address",
          "name": "previousOwner",
          "type": "address"
        },
        {
          "indexed": true,
          "internalType": "address",
          "name": "newOwner",
          "type": "address"
        }
      ],
      "name": "OwnershipTransferred",
      "type": "event"
    },
    {
      "anonymous": false,
      "inputs": [
        {
          "indexed": false,
          "internalType": "bool",
          "name": "enabled",
          "type": "bool"
        }
      ],
      "name": "PushIntegrationToggled",
      "type": "event"
    },
    {
      "anonymous": false,
      "inputs": [
        {
          "indexed": true,
          "internalType": "address",
          "name": "serviceProvider",
          "type": "address"
        }
      ],
      "name": "PushServiceProviderUpdated",
      "type": "event"
    },
    {
      "inputs": [],
      "name": "getNotifiableUsers",
      "outputs": [
        {
          "internalType": "address[]",
          "name": "",
          "type": "address[]"
        }
      ],
      "stateMutability": "view",
      "type": "function"
    },
    {
      "inputs": [
        {
          "internalType": "address",
          "name": "user",
          "type": "address"
        }
      ],
      "name": "getNotificationCount",
      "outputs": [
        {
          "internalType": "uint256",
          "name": "",
          "type": "uint256"
        }
      ],
      "stateMutability": "view",
      "type": "function"
    },
    {
      "inputs": [
        {
          "internalType": "address",
          "name": "user",
          "type": "address"
        }
      ],
      "name": "getUnreadCount",
      "outputs": [
        {
          "internalType": "uint256",
          "name": "",
          "type": "uint256"
        }
      ],
      "stateMutability": "view",
      "type": "function"
    },
    {
      "inputs": [
        {
          "internalType": "address",
          "name": "user",
          "type": "address"
        },
        {
          "internalType": "uint256",
          "name": "offset",
          "type": "uint256"
        },
        {
          "internalType": "uint256",
          "name": "limit",
          "type": "uint256"
        }
      ],
      "name": "getUserNotificationMetadata",
      "outputs": [
        {
          "internalType": "address[]",
          "name": "recipients",
          "type": "address[]"
        },
        {
          "internalType": "string[]",
          "name": "notificationUris",
          "type": "string[]"
        },
        {
          "internalType": "string[]",
          "name": "contentHashes",
          "type": "string[]"
        },
        {
          "internalType": "uint256[]",
          "name": "timestamps",
          "type": "uint256[]"
        },
        {
          "internalType": "string[]",
          "name": "categories",
          "type": "string[]"
        },
        {
          "internalType": "bool[]",
          "name": "reads",
          "type": "bool[]"
        },
        {
          "internalType": "bool[]",
          "name": "sents",
          "type": "bool[]"
        }
      ],
      "stateMutability": "view",
      "type": "function"
    },
    {
      "inputs": [],
      "name": "markAllAsRead",
      "outputs": [],
      "stateMutability": "nonpayable",
      "type": "function"
    },
    {
      "inputs": [
        {
          "internalType": "uint256",
          "name": "notificationIndex",
          "type": "uint256"
        }
      ],
      "name": "markAsRead",
      "outputs": [],
      "stateMutability": "nonpayable",
      "type": "function"
    },
    {
      "inputs": [
        {
          "internalType": "uint256",
          "name": "",
          "type": "uint256"
        }
      ],
      "name": "notifiableUsers",
      "outputs": [
        {
          "internalType": "address",
          "name": "",
          "type": "address"
        }
      ],
      "stateMutability": "view",
      "type": "function"
    },
    {
      "inputs": [],
      "name": "owner",
      "outputs": [
        {
          "internalType": "address",
          "name": "",
          "type": "address"
        }
      ],
      "stateMutability": "view",
      "type": "function"
    },
    {
      "inputs": [],
      "name": "platformContract",
      "outputs": [
        {
          "internalType": "address",
          "name": "",
          "type": "address"
        }
      ],
      "stateMutability": "view",
      "type": "function"
    },
    {
      "inputs": [],
      "name": "pushIntegrationEnabled",
      "outputs": [
        {
          "internalType": "bool",
          "name": "",
          "type": "bool"
        }
      ],
      "stateMutability": "view",
      "type": "function"
    },
    {
      "inputs": [],
      "name": "pushServiceProvider",
      "outputs": [
        {
          "internalType": "address",
          "name": "",
          "type": "address"
        }
      ],
      "stateMutability": "view",
      "type": "function"
    },
    {
      "inputs": [],
      "name": "renounceOwnership",
      "outputs": [],
      "stateMutability": "nonpayable",
      "type": "function"
    },
    {
      "inputs": [
        {
          "internalType": "address[]",
          "name": "users",
          "type": "address[]"
        },
        {
          "internalType": "string",
          "name": "title",
          "type": "string"
        },
        {
          "internalType": "string",
          "name": "message",
          "type": "string"
        },
        {
          "internalType": "string",
          "name": "category",
          "type": "string"
        }
      ],
      "name": "sendBulkNotification",
      "outputs": [],
      "stateMutability": "nonpayable",
      "type": "function"
    },
    {
      "inputs": [
        {
          "internalType": "address",
          "name": "user",
          "type": "address"
        },
        {
          "internalType": "string",
          "name": "title",
          "type": "string"
        },
        {
          "internalType": "string",
          "name": "message",
          "type": "string"
        },
        {
          "internalType": "string",
          "name": "category",
          "type": "string"
        }
      ],
      "name": "sendNotification",
      "outputs": [],
      "stateMutability": "nonpayable",
      "type": "function"
    },
    {
      "inputs": [
        {
          "internalType": "address",
          "name": "_platform",
          "type": "address"
        }
      ],
      "name": "setPlatformContract",
      "outputs": [],
      "stateMutability": "nonpayable",
      "type": "function"
    },
    {
      "inputs": [
        {
          "internalType": "address",
          "name": "_provider",
          "type": "address"
        }
      ],
      "name": "setPushServiceProvider",
      "outputs": [],
      "stateMutability": "nonpayable",
      "type": "function"
    },
    {
      "inputs": [
        {
          "internalType": "bool",
          "name": "_enabled",
          "type": "bool"
        }
      ],
      "name": "togglePushIntegration",
      "outputs": [],
      "stateMutability": "nonpayable",
      "type": "function"
    },
    {
      "inputs": [
        {
          "internalType": "address",
          "name": "newOwner",
          "type": "address"
        }
      ],
      "name": "transferOwnership",
      "outputs": [],
      "stateMutability": "nonpayable",
      "type": "function"
    },
    {
      "inputs": [
        {
          "internalType": "address[]",
          "name": "recipients",
          "type": "address[]"
        },
        {
          "internalType": "string",
          "name": "notificationUri",
          "type": "string"
        },
        {
          "internalType": "string",
          "name": "contentHash",
          "type": "string"
        },
        {
          "internalType": "string",
          "name": "category",
          "type": "string"
        }
      ],
      "name": "triggerBulkNotification",
      "outputs": [],
      "stateMutability": "nonpayable",
      "type": "function"
    },
    {
      "inputs": [
        {
          "internalType": "address",
          "name": "recipient",
          "type": "address"
        },
        {
          "internalType": "string",
          "name": "notificationUri",
          "type": "string"
        },
        {
          "internalType": "string",
          "name": "contentHash",
          "type": "string"
        },
        {
          "internalType": "string",
          "name": "category",
          "type": "string"
        }
      ],
      "name": "triggerNotification",
      "outputs": [],
      "stateMutability": "nonpayable",
      "type": "function"
    },
    {
      "inputs": [
        {
          "internalType": "address",
          "name": "",
          "type": "address"
        }
      ],
      "name": "unreadCount",
      "outputs": [
        {
          "internalType": "uint256",
          "name": "",
          "type": "uint256"
        }
      ],
      "stateMutability": "view",
      "type": "function"
    },
    {
      "inputs": [
        {
          "internalType": "address",
          "name": "",
          "type": "address"
        },
        {
          "internalType": "uint256",
          "name": "",
          "type": "uint256"
        }
      ],
      "name": "userNotifications",
      "outputs": [
        {
          "internalType": "address",
          "name": "recipient",
          "type": "address"
        },
        {
          "internalType": "string",
          "name": "notificationUri",
          "type": "string"
        },
        {
          "internalType": "string",
          "name": "contentHash",
          "type": "string"
        },
        {
          "internalType": "uint256",
          "name": "timestamp",
          "type": "uint256"
        },
        {
          "internalType": "string",
          "name": "category",
          "type": "string"
        },
        {
          "internalType": "bool",
          "name": "read",
          "type": "bool"
        },
        {
          "internalType": "bool",
          "name": "sent",
          "type": "bool"
        }
      ],
      "stateMutability": "view",
      "type": "function"
    }
  ],
  "bytecode": "0x6080806040523461008d5733156100775760008054336001600160a01b03198216811783556040519290916001600160a01b0316907f8be0079c531659141344cd1fd0a4f28419497f9722a3daafe3b4186f6b6457e09080a36005805460ff60a01b1916600160a01b179055611e2090816100938239f35b631e4fbdf760e01b815260006004820152602490fd5b600080fdfe6040608081526004908136101561001557600080fd5b600091823560e01c80630ba961da14611347578063162746951461131e5780632c488b9414610fef578063349e85a814610d4c578063352cf66c14610d0c57806338c9191014610c305780635a566f9c14610bc45780635c3e46ed14610b9b578063715018a614610b415780637c100c3614610a175780638ceb998a146109675780638da5cb5b1461093f5780639a41f77c1461070b578063a0cb30be146106e4578063a44760f214610652578063a662fac9146103fb578063bbac36231461046b578063ca97252614610433578063cb33ed40146103fb578063e48414f514610360578063e567d29d1461019c5763f2fde38b1461011357600080fd5b346101985760203660031901126101985761012c6113f9565b90610135611d9e565b6001600160a01b0391821692831561018257505082546001600160a01b0319811683178455167f8be0079c531659141344cd1fd0a4f28419497f9722a3daafe3b4186f6b6457e08380a380f35b51631e4fbdf760e01b8152908101849052602490fd5b8280fd5b509034610198576101ac3661180a565b929093919460018060a01b039060019082600154168033148015610354575b80156102d1575b6101dc9150611933565b61022485516101ea81611524565b848616998a8252896020830152878201524260608201528760808201528a60a0820152600160c0820152898b526002602052868b20611970565b8789526003926003602052858a2061023c815461184c565b905589938a9254925b83811061028f575b50505050509161027a91600080516020611dcb83398151915295949315610280575b505192839283611d79565b0390a280f35b61028990611d3c565b3861026f565b8a8361029a836116c2565b905490851b1c16146102ad578401610245565b50929350849250600080516020611dcb833981519152915061027a9050388061024d565b50801515806102e5575b6101dc91506101d2565b5060206024918751928380926366d0ead360e01b825233878301525afa90811561034a57906101dc918b9161031b575b506102db565b61033d915060203d602011610343575b6103358183611556565b81019061191b565b38610315565b503d61032b565b86513d8c823e3d90fd5b50838a541633146101cb565b509190346103f757816003193601126103f7578051918284549081815260208091019583527f8a35acfbc15ff81a39ae7d344fd709f28e8600b4aa8c65c6b64bfe7fe36bd19b92905b8282106103d7576103d386866103c1828b0383611556565b51918291602083526020830190611414565b0390f35b83546001600160a01b0316875295860195600193840193909101906103a9565b5080fd5b5050346103f75760203660031901126103f75760209181906001600160a01b036104236113f9565b1681526003845220549051908152f35b5050346103f75760203660031901126103f75760209181906001600160a01b0361045b6113f9565b1681526002845220549051908152f35b50913461064f5761047b366115e7565b90949293610487611d9e565b805b855181101561064b576001600160a01b03806104a58389611907565b51168651906104b382611524565b81526020908682820152898882015242606082015285608082015260a09185838301528560c0830152836104e7868c611907565b511686526104fc6002928383528a8820611970565b83610507868c611907565b51168652600380825289872061051d815461184c565b90558c548791825b828110610611575b505050156105f7575b6005928460ff855480931c1691826105eb575b5050610589575b505050906001916105618289611907565b5116600080516020611dcb833981519152875180610580898983611d79565b0390a201610489565b83610594868c611907565b511686525286842080549081156105505760001982019182116105d8576001949392916105c09161170f565b5001805461ff00191661010017905590913880610550565b634e487b7160e01b865260118c52602486fd5b16151590508438610549565b61060c84610605878d611907565b5116611d3c565b610536565b8d8861062e8b82610621866116c2565b905490881b1c1693611907565b51161461063d57600101610525565b50505050600138808061052d565b5080f35b80fd5b50346101985760203660031901126101985761066c6113f9565b610674611d9e565b6001600160a01b03169182156106a15750506bffffffffffffffffffffffff60a01b600154161760015580f35b906020606492519162461bcd60e51b8352820152601860248201527f496e76616c696420706c6174666f726d206164647265737300000000000000006044820152fd5b5050346103f757816003193601126103f75760209060ff60055460a01c1690519015158152f35b50823461064f5761071b3661180a565b909294610726611d9e565b6001600160a01b038681169485156108fc578451156108b95788516107839161074e82611524565b8782528660208301528a8201524260608201528460808201528760a08201528760c08201528688526002602052898820611970565b848652600396600360205288872061079b815461184c565b9055869787908454915b828110610889575b505050909192939495961561087a575b506005549060ff8260a01c16918261086e575b50506107f7575b5061027a600080516020611dcb8339815191529394955192839283611d79565b94838552600260205280852080549081610814575b5050946107d7565b600019820191821161085b57600080516020611dcb8339815191529596975061084361027a939260059261170f565b500161010061ff00198254161790559086959461080c565b634e487b7160e01b875260118852602487fd5b161515905087806107d0565b61088390611d3c565b876107bd565b8885610894836116c2565b905490851b1c16146108a8576001016107a5565b50600199508b9150819050806107ad565b885162461bcd60e51b8152602081850181905260248201527f4e6f74696669636174696f6e205552492063616e6e6f7420626520656d7074796044820152606490fd5b885162461bcd60e51b8152602081850152601960248201527f496e76616c696420726563697069656e742061646472657373000000000000006044820152606490fd5b5050346103f757816003193601126103f757905490516001600160a01b039091168152602090f35b5034610198576020366003190112610198576109816113f9565b610989611d9e565b6001600160a01b03169182156109d4575050600580546001600160a01b031916821790557f8ef4f05d96d15a25abe7e6960b0e5345de550a1406f348f141cbf88dd7e32f268280a280f35b906020606492519162461bcd60e51b8352820152601860248201527f496e76616c69642070726f7669646572206164647265737300000000000000006044820152fd5b50903461019857602036600319011261019857813533845260026020528184208054821015610afe5760ff6005610a4e848461170f565b50015416610aaf57600591610a629161170f565b5001805460ff19166001179055338352600360205282208054909181158015610a89578480f35b610a9c5750600019019055388080808480f35b634e487b7160e01b845260119052602483fd5b825162461bcd60e51b8152602081860152602360248201527f4e6f74696669636174696f6e20616c7265616479206d61726b6564206173207260448201526219585960ea1b6064820152608490fd5b825162461bcd60e51b8152602081860152601a60248201527f496e76616c6964206e6f74696669636174696f6e20696e6465780000000000006044820152606490fd5b833461064f578060031936011261064f57610b5a611d9e565b80546001600160a01b03198116825581906001600160a01b03167f8be0079c531659141344cd1fd0a4f28419497f9722a3daafe3b4186f6b6457e08280a380f35b5050346103f757816003193601126103f75760055490516001600160a01b039091168152602090f35b5034610198576020366003190112610198573590811515809203610198577fbd43d9dc951e68fed364636302876c9a5ad077d327ca2d10aaadc59b5ff6d90d91602091610c0f611d9e565b6005805460ff60a01b191660a084901b60ff60a01b1617905551908152a180f35b509034610198578060031936011261019857610c4a6113f9565b6001600160a01b0390811684526002602052818420805491946024359283101561064f5750610c7e60ff92610cf29261170f565b509485541693610c9060018701611765565b95610cdf610ca060028301611765565b956005610cb36003850154958501611765565b93015496610cd282519a8b9a8b5260e060208c015260e08b0190611451565b91898303908a0152611451565b9160608701528582036080870152611451565b91818116151560a085015260081c16151560c08301520390f35b50913461064f57602036600319011261064f578235925483101561064f5750610d366020926116c2565b905491519160018060a01b039160031b1c168152f35b50823461064f57610d5c366115e7565b9091929560018060a01b03956001968088541698893314998a15610fe1575b8a15610f64575b50610d8e89989a611933565b89985b610d99578980f35b8099979899518a1015610f5d5781610db18b83611907565b511699828a54169a8b33148015610f51575b8015610ec1575b8b9c509088610e228b898e9f9e8f9796610de390611933565b815192610def84611524565b86845260209586850152828401524260608401528c60808401528060a08401528760c08401528581526002855220611970565b818d526003809152878d20610e37815461184c565b905586548d91825b828110610e86575b50505015610e78575b600080516020611dcb833981519152875180610e6d8c8c83611d79565b0390a2019899610d91565b610e8181611d3c565b610e50565b8489610e9883999495969798996116c2565b905490861b1c1614610eb15701908d9594939291610e3f565b50949392505050828e8080610e47565b508b151580610ed5575b9a9b508b9a610dca565b5085516366d0ead360e01b8152338682015260209c8d908290815a91602492fa9c8d15610f47578a888e9f9d9e9d8f908f90610de3908f97610e22978592610f2a575b505096505050505050509a999a610ecb565b610f409250803d10610343576103358183611556565b3880610f18565b87513d8d823e3d90fd5b50838a54163314610dc3565b8799508980f35b8015159a508a610f78575b50610d8e610d82565b84516366d0ead360e01b815233858201529a506020908b9060249082905afa998a15610fd757899a610d8e918a9b9a91610fb8575b509a50989798610f6f565b610fd1915060203d602011610343576103358183611556565b8c610fad565b84513d8a823e3d90fd5b995081885416331499610d7b565b5034610198576060366003190112610198576110096113f9565b6001600160a01b03908116845260026020818152848620805460243595949360443593929061103783611578565b966110448a519889611556565b838852848801928b52848b20918b935b8b878787106112a357505050505050505084611070838261187e565b8551809111611290575b50845110611288575b959061108e81611578565b9661109b87519889611556565b8188526110a782611578565b601f1997908801368a8401376110bc8361188b565b986110c68461188b565b906110d085611578565b946110dd84519687611556565b8086526110e981611578565b8686019b01368c376110fa8161188b565b97611104826118d5565b9961110e836118d5565b9b895b8481106111bb575050505050916111569161114960e09b9c61113c879685519e8f8181520190611414565b8d8103878f015290611491565b918b8303908c0152611491565b9288840360608a015251928381520197925b8281106111a75787806103d3896111998a61118b8f8c8782036080890152611491565b9085820360a08701526114ee565b9083820360c08501526114ee565b835189529781019792810192600101611168565b8f8e858f8f908e9f9d9e918f8796938f8f908f908a97888f968f82989583966111e585809461187e565b6111ee91611907565b519d8e5116916111fd91611907565b528b015161120b8284611907565b5261121591611907565b508801516112238284611907565b5261122d91611907565b5060608601519161123d91611907565b5282608085015161124e8284611907565b5261125891611907565b5060a083015115159161126a91611907565b5260c0015115159161127b91611907565b5260010199989799611111565b869150611083565b61129b929350611871565b90843861107a565b6001928260069351906112b582611524565b8d89541682526112c6868a01611765565b848301526112d5878a01611765565b90820152600388015460608201526112ee878901611765565b6080820152600588015460ff90818116151560a084015260081c16151560c0820152815201940194019392611054565b5050346103f757816003193601126103f75760015490516001600160a01b039091168152602090f35b5050346103f757816003193601126103f75733825260026020528082209180805b84548110156113be5761137b818661170f565b5060ff6005809201541615611394575b50600101611368565b81936113b7916113a66001948961170f565b5001805460ff19168417905561184c565b929061138b565b50809183816113cb575050f35b338352600360205282209080825410156000146113f457816113ef92935054611871565b905580f35b505580f35b600435906001600160a01b038216820361140f57565b600080fd5b90815180825260208080930193019160005b828110611434575050505090565b83516001600160a01b031685529381019392810192600101611426565b919082519283825260005b84811061147d575050826000602080949584010152601f8019910116010190565b60208183018101518483018201520161145c565b90808251908181526020809101926020808460051b8301019501936000915b8483106114c05750505050505090565b90919293949584806114de600193601f198682030187528a51611451565b98019301930191949392906114b0565b90815180825260208080930193019160005b82811061150e575050505090565b8351151585529381019392810192600101611500565b60e0810190811067ffffffffffffffff82111761154057604052565b634e487b7160e01b600052604160045260246000fd5b90601f8019910116810190811067ffffffffffffffff82111761154057604052565b67ffffffffffffffff81116115405760051b60200190565b81601f8201121561140f5780359067ffffffffffffffff821161154057604051926115c5601f8401601f191660200185611556565b8284526020838301011161140f57816000926020809301838601378301015290565b608060031982011261140f5767ffffffffffffffff9060043582811161140f578160238201121561140f57806004013561162081611578565b9161162e6040519384611556565b8183526020916024602085019160051b8301019185831161140f57602401905b8282106116a357505050509260243583811161140f578261167191600401611590565b9260443581811161140f578361168991600401611590565b9260643591821161140f576116a091600401611590565b90565b81356001600160a01b038116810361140f57815290830190830161164e565b6004548110156116f95760046000527f8a35acfbc15ff81a39ae7d344fd709f28e8600b4aa8c65c6b64bfe7fe36bd19b0190600090565b634e487b7160e01b600052603260045260246000fd5b80548210156116f9576000526006602060002091020190600090565b90600182811c9216801561175b575b602083101461174557565b634e487b7160e01b600052602260045260246000fd5b91607f169161173a565b906040519182600082546117788161172b565b908184526020946001916001811690816000146117e857506001146117a9575b5050506117a792500383611556565b565b600090815285812095935091905b8183106117d05750506117a79350820101388080611798565b855488840185015294850194879450918301916117b7565b925050506117a794925060ff191682840152151560051b820101388080611798565b90608060031983011261140f576004356001600160a01b038116810361140f579167ffffffffffffffff9160243583811161140f578261167191600401611590565b600019811461185b5760010190565b634e487b7160e01b600052601160045260246000fd5b9190820391821161185b57565b9190820180921161185b57565b9061189582611578565b6118a26040519182611556565b82815280926118b3601f1991611578565b019060005b8281106118c457505050565b8060606020809385010152016118b8565b906118df82611578565b6118ec6040519182611556565b82815280926118fd601f1991611578565b0190602036910137565b80518210156116f95760209160051b010190565b9081602091031261140f5751801515810361140f5790565b1561193a57565b60405162461bcd60e51b815260206004820152600e60248201526d139bdd08185d5d1a1bdc9a5e995960921b6044820152606490fd5b91908254600160401b8110156115405761199190600194858201815561170f565b611d2657815181546001600160a01b0319166001600160a01b0391909116178155602080830151805167ffffffffffffffff9691908285019088811161154057806119dc835461172b565b93601f94858111611cd2575b508690858311600114611c6f57600092611c64575b5050600019600383901b1c191690841b1790555b600284016040860151805190898211611540578190611a30845461172b565b858111611c13575b508690858311600114611bb057600092611ba5575b5050600019600383901b1c191690841b1790555b606085015160038501556004840192608086015190815198891161154057611a89855461172b565b838111611b5f575b5080928911600114611af7575096809281926005979899600094611aec575b50501b916000199060031b1c19161790555b019060a081015115159060ff61ff0060c08554930151151560081b1692169061ffff191617179055565b015192503880611ab0565b909791601f198316988560005282600020926000905b8b8210611b4857505083600598999a10611b2f575b505050811b019055611ac2565b015160001960f88460031b161c19169055388080611b22565b808785968294968601518155019501930190611b0d565b856000528160002084808c0160051c820192848d10611b9c575b0160051c019085905b828110611b90575050611a91565b60008155018590611b82565b92508192611b79565b015190503880611a4d565b90869350601f1983169185600052886000209260005b8a828210611bfd5750508411611be4575b505050811b019055611a61565b015160001960f88460031b161c19169055388080611bd7565b8385015186558a97909501949384019301611bc6565b90915083600052866000208580850160051c820192898610611c5b575b918891869594930160051c01915b828110611c4c575050611a38565b60008155859450889101611c3e565b92508192611c30565b0151905038806119fd565b90869350601f1983169185600052886000209260005b8a828210611cbc5750508411611ca3575b505050811b019055611a11565b015160001960f88460031b161c19169055388080611c96565b8385015186558a97909501949384019301611c85565b909150600084600052876000208680860160051c8201938a8710611d1d575b91899187969594930160051c01925b838110611d0f575050506119e8565b828155869550899101611d00565b93508193611cf1565b634e487b7160e01b600052600060045260246000fd5b600454600160401b81101561154057806001611d5b92016004556116c2565b60018060a09493941b038084549260031b9316831b921b1916179055565b9091611d906116a093604084526040840190611451565b916020818403910152611451565b6000546001600160a01b03163303611db257565b60405163118cdaa760e01b8152336004820152602490fdfea2f507583a39f2155dd9e8bf4caea9bf60f7a23f9fdf75f5b881ce6a2989ee87a26469706673582212203a9855bcad389c4497fb87f1ae7c29625b91a368f6e69ec75bb38d0b04db430864736f6c63430008160033",
  "linkReferences": {},
  "deployedLinkReferences": {}
}